:100000006F60701813000000130000001300000060
:100010001300000013000000130000001300000094
:100020001300000013000000130000001300000084
:08003000130000007300100032
:1000380000000000000000005A3300005E3300009A
:1000480000000000CC680000000000000000000074
:10005800CE680000D068000000000000000000002A
:100068001EB60000000000000002000000000000B2
:10007800D6680000D8680000DA6800009CA200007A
:10008800DE680000E0680000E2680000E468000044
:10009800E6680000E8680000EA6800003C95000097
:1000A8000A960000F0680000D8960000A6970000A5
:1000B800F6680000F86800006E910000FC68000017
:1000C800FE6800000069000002690000E4330000D7
:1000D80006690000086900000A6900000C69000050
:1000E800443500001069000062AA0000F49D000079
:1000F800C29E0000909F00005EA0000090A6000035
:1001080088A700003CB100000AB20000D8B2000085
:1001180026690000286900002A6900002C6900008F
:1001280030AB00003069000032690000346900001B
:100138003669000038690000FEAB000088A800009E
:10014800A6B300004069000042690000446900004D
:1001580046690000486900004A6900004C690000CF
:100168004E690000B834000052690000546900006C
:1001780056690000586900005A6900005C6900006F
:100188005E6900006069000062690000646900003F
:1001980066690000686900006A6900006C6900000F
:1001A8006E690000706900007269000074690000DF
:1001B80076690000786900007A6900007C690000AF
:1001C8007E6900008069000082690000846900007F
:1001D8000000000000000000000000000000000017
:1001E8000000000000000000000000000000000007
:0801F8000000000000000000FF
:10020000130181F806C216C41AC61EC822CA26CC1B
:100210002ACE2ED032D236D43AD63ED842DA46DC76
:100220004ADECEC0D2C2D6C4DAC6DEC8E2CAE6CC46
:10023000EACEEED0F2D2F6D4FAD6FED8F3220030CF
:1002400096DA83A241A423A02200F32510342EC005
:100250009305000273A0458003A14189EFC03012CD
:1002600003A341A403210300824273901234D652A7
:10027000739002309240A2423243C2435244E2445D
:10028000724582551256A2563257C2575258E258FA
:1002900072598649164AA64A364BC64B564CE64C0E
:1002A000764D865D165EA65E365FC65F13018107DA
:1002B0007300203013000000130000001300000042
:1002C00013000000130000001300000013000000E2
:1002D00013000000130000001300000013000000D2
:1002E00013000000130000001300000013000000C2
:1002F00013000000130000001300000013000000B2
:1003000083A24189938202E07390023403A141A445
:10031000024182403243C2435244E2447245825514
:100320001256A2563257C2575258E258725986494D
:10033000164AA64A364BC64B564CE64C764D865D61
:10034000165EA65E365FC65FD652A102739002307B
:10035000A2421301810782801300000013000000F5
:100360001300000013000000130000001300000041
:100370001300000013000000130000001300000031
:100380001300000013000000130000001300000021
:100390001300000013000000130000001300000011
:1003A0001300000013000000130000001300000001
:1003B00013000000130000001300000013000000F1
:1003C00013000000130000001300000013000000E1
:1003D00013000000130000001300000013000000D1
:1003E00013000000130000001300000013000000C1
:1003F00013000000130000001300000013000000B1
:10040000F322003093F272FF130380781203B3E2F9
:100410006200711523205500130585FA10C12115BE
:10042000232005009302000063870200711523203A
:100430000500FD12D5BF71150CC1828000000000BF
:1004400000000000000000000000000000000000AC
:10045000000000000000000000000000000000009C
:10046000000000000000000000000000000000008C
:10047000000000000000000000000000000000007C
:10048000000000000000000000000000000000006C
:10049000000000000000000000000000000000005C
:1004A000000000000000000000000000000000004C
:1004B000000000000000000000000000000000003C
:1004C000000000000000000000000000000000002C
:1004D000000000000000000000000000000000001C
:1004E000000000000000397101436EC619A0397187
:1004F00041536AC866CA62CC5ECE19A039710153F5
:100500005AD056D252D44ED64AD826DA22DC06DE4B
:1005100033016140828241114AC026C222C406C60C
:100520008282B24D4101024D924C224CB24B4101AC
:10053000024B924A224AB249410102499244224462
:10054000B240410182803D432A876373C30293779F
:10055000F700BDEFADE5937606FF3D8ABA960CC372
:100560004CC30CC74CC74107E36BD7FE11E2828036
:10057000B306C3408A069702000096966780A600DD
:100580002307B700A306B7002306B700A305B700EB
:100590002305B700A304B7002304B700A303B700E3
:1005A0002303B700A302B7002302B700A301B700DB
:1005B0002301B700A300B7002300B700828093F5A2
:1005C000F50F93968500D58D93960501D58D61B76E
:1005D000939627009702000096968682E78086FA17
:1005E0009680C1171D8F3E96E374C3F8A5B7EFF24E
:1005F0001FF0AE96939906013A8B1307160093D914
:10060000090142074183CE86AA842E84B28A034A16
:100610002509EF00D00901C90549933B1A006395EC
:1006200089002389440901B783470B00B377F90098
:100630008DC723894409014785465686A2852685AC
:10064000EF0040750504060942041379F90F418053
:10065000E31709FC050B0549D9B783C71409FDF356
:1006600023897409C9BFEFF27FE932971319070193
:10067000B689AE9613590901C2064A87C1822A8BF0
:10068000AE8A32843E8AEF00900201C993847900D9
:10069000C204C1808D806313890059BD2286050480
:1006A0005287CE86D6855A8542049137269A418054
:1006B000DDB7EFF2BFE4329793140701B689AE9627
:1006C000C180C2062687C1822A8A2E893284EF0021
:1006D000007E01EDB1BD228605040147CE86CA85A4
:1006E00052854204EF00006B4180E39684FEDDB743
:1006F000EFF27FE21C418145902B834785034859E7
:100700003306F6020E0681350DBDA1471CA11385E7
:10071000C1B38280EFF23FE03687AE84B286B71570
:100720000000371600004111130686229385C52F5D
:100730002A84EF00D05C1305F100C13F9087B71603
:100740000000AA852687938686ED2285EF00101388
:100750004101E5B3AA959C218831A2073E95420547
:100760004181828001458280EFF2FFDA9C21AE84D4
:100770002A841CA19C311CB1BC213CA1BC313CB1E0
:10078000DC215CA1DC315CB1FC217CA1FC317CB1C1
:100790009C251CA59C351CB5BC253CA5BC353CB591
:1007A000DC255CA5DC355CB5FC257CA5FC357CB581
:1007B0009C29C5451CA92685713F2AA8CD452685BB
:1007C000513F4AA8D545268571376AA8BDB3104167
:1007D0000348C5001C223307B8001377F70FB3D6C0
:1007E00007419D4763ECE70093F7F60F58A57D5549
:1007F0003315B5001345F5FF7D8D828093071600F4
:100800001CC11C32214633060641B397C700D58F61
:10081000611793F7F70F1377F70FC9BFEFF2BFCF49
:100820002CD183458507930405062A8423060506F3
:100830002685713F834594072305A4062685413FFD
:1008400083472409A305A4062307F40693B71700DA
:10085000A307F406DDB1EFF21FCC2E848D3F7D148B
:100860008547B39787001D8D62056185F9B185477E
:10087000638CF60091C68947638AF6000D8D11A03E
:1008800032954205418182802E95E5BF118DD5BFFD
:100890008547638CF60091C68947638AF6003295D6
:1008A00011A02E95420541818280118DE5BF0D8DED
:1008B000D5BFEFF25FC38344850603499506411116
:1008C0002A84AE89328B834BA40693FAF90F338ABC
:1008D0009B40137AFA0F63743A01937AFA0F034735
:1008E0000407939C8401131C89010355440693DC7F
:1008F0008C41135C8C41BA866286E6853AC6493FD4
:100900003247835D64066286BA862A8DE6856E85E7
:10091000B93F2A86324763080B028347E40623095E
:10092000F408D686EA852285B521CE9493F4F40F97
:1009300063E14903B3847441050993F9F40F137912
:10094000F90F814449B78347D406E5F38347F4069A
:10095000F9B723049406A30484074101D9B6EFF242
:100960001FB92A84130A0506553D8345A4075285FD
:100970008309B406CD358345B4072A8C5285E13D01
:100980008345C4072A8B5285F9358304A406AA8AB5
:10099000635D90084E9B834B0407330B6041035506
:1009A0004406620B135B8B41DE865A86E285CD35A9
:1009B0002312A4062A89035564065A86DE86E28538
:1009C0007D352313A40685472A86638CFB06638046
:1009D0000B0689476387FB088D47638BFB0A2A87D1
:1009E000CA86CA852285E12129C1231404068345CC
:1009F00064075285E93B834574072A895285C13BC8
:100A0000AA840146CA8522856D35A68522850546BC
:100A10004D3585455285653B6DF583079406E3C8E2
:100A200037FD8347E4062309F4085685EDBCCA94D4
:100A300093960401B304350113970401C1824183E5
:100A40004DB7B3073941AA940509931609011397C5
:100A500004018507C18241831399070113590901D4
:100A600049B70547B3049740B307990033073741A7
:100A70009304190093960401B305E500930415004F
:100A80001397040113960501C18241834182E9B79E
:100A9000B304954013061500B306390185041317F6
:100AA0000601C20613960401C1824183418215BF2B
:100AB0003C4D1307F00FDD076368B702130700060C
:100AC000637DB70003578508BA97983335C39423DD
:100AD000E39CB6FE13852700828013070004E376AB
:100AE000B7FE03576508CDB7EFF2FFA20354A50880
:100AF000AE843E94228981454A85A9392A94894544
:100B00004A8589391109E36895FE1C301820A2072F
:100B1000D98F13978700A183D98FC207C18399CB3F
:100B20006395F4001305340009BC3C203E94F1BFEA
:100B3000014582800145CDBFEFF2FF9D2A848D3FA4
:100B40000DC5AA852285D9398345A40793040406D7
:100B5000268511338345B4072308A4082685E53983
:100B60008345C4072685C539C9BA0145F5BFEFF2EB
:100B70001F9823050506AA84AE8AF12BC1671309C5
:100B800000FC014A0144138BF7FF9389E7FF930BA5
:100B900000FC83C50A00DC4026858297AA85630392
:100BA0006503850AE30735FF26857937131A0501A2
:100BB000135A0A0163147901038904095294420407
:100BC0004180C1BF8387A40691CF03870409BA97E8
:100BD0003E943304444142044180635520014A94C9
:100BE0004204418022856FF01F94A306B5068280DF
:100BF000EFF2DF908347050705472A842E89B284E8
:100C0000B689638FE7029DC709476383E7040D47F1
:100C10006384E704CE8523122407231394062285D8
:100C2000413DAA85014589C52285153B4205418183
:100C30006FF01F907C4D8297AA94C204C180D9BFE7
:100C40007C4D82973309A940420913590901D9B74C
:100C50007C4D8297898CD5B77C4D82972A99EDB7C8
:100C6000EFF2FF884169AA8C2E84B284B689130AF8
:100C7000F9FFD521014C7919854A094B8D4B83A782
:100C80004C0083C5090066858297AA8663034505E3
:100C90008509E30625FF2686A2856685913F83C7E1
:100CA0000C076380570391CB6381670363817703EC
:100CB0002A9C420C135C0C01D9B72A94420441804F
:100CC000C5BFAA94C204C180E5B7098CC5BF898C91
:100CD000D5BF62856FF03F85EFF2FF83B717000045
:100CE0009387C70B5CC1AD3F6FF03F853C4DA9CBEF
:100CF00003061508830625088347D5082307C5087A
:100D0000A307D50895CF0547639FE70083073508FC
:100D10006354F6002307F5088307450863D2D7021A
:100D2000A307F50882808307E50703070508BA973C
:100D30006354F6002307F5086354D700A307E508BA
:100D40008280B7070000938747767CCD8280384D3C
:100D5000630DB700EFF22FFC2A842CCC1305450756
:100D60002134228561376FF04FFD8280EFF2AFFAB8
:100D7000B71700009387C70B5CC1D53B6FF0EFFB43
:100D8000EFF26FF97E3D1D8E5C55420641828297DF
:100D90006FF0AFFA8347C508C1CBD9C6854763F961
:100DA000D70089476317F7068505958DC205C18170
:100DB000058B25EF8357C5046368F6068357E50462
:100DC0006374F606AE96C206C18283578504035843
:100DD000A50463F9B60463F605059306F8FFC20699
:100DE000C18263F3D704BE8863F3B700AE889395DE
:100DF0000801C181C28763F30601B687B386B74095
:100E0000C206C182EFF22FF11C599C4782976FF006
:100E1000CFF28D47E31EF7F80506158E4206418294
:100E200041BFBE85E3EF05FB828083578504E3ED78
:100E3000F5FE8357A504E3F9F5FEB296C206C1821A
:100E40008357C5040358E50463F9C60263760603B5
:100E50009306F8FFC206C182E3F8D7FCBE8863F3AD
:100E6000C700B288139608014182C28763F3060166
:100E7000B687B386C74069B73E86E36F06FD6DB798
:100E8000894763E5B7002309B508828085472309B0
:100E9000F50882806379B60085476364D500B3B7EF
:100EA000C6003E858280E36CD5FE8147DDBFEFF250
:100EB0008FE62A84AE848355E5040355C50436893C
:100EC000BA86C93F01C98355A40403558404CA8660
:100ED0002686C9376FF06FE60343250993787600BD
:100EE0008547339817011378F80F014E63E56700C3
:100EF000428E6309F30403230500619A5C5903439E
:100F000003013306660242064182B295BE950DCFBB
:100F100005479C218508FD16B367FE00B347F8001E
:100F2000C2069CA193F87800C18263900804323D08
:100F300083472509B2956365F700054E638EE70286
:100F400005481DA8014845BFAE96C206C1829C2136
:100F50008505B367FE00B347F800A38FF5FE9397AE
:100F60000501C183E395D7FE828093171E00060812
:100F700013FEF70F1378F80FC9FE828083458503AF
:100F80001441834895031397050141839317370054
:100F90005EBD9C2A13980801135808018E073EBDB8
:100FA000931738007EBD903AC6956356B600330756
:100FB0000641420741830E072310F504BA97231117
:100FC000F504DE2A2312F504FE2A2313F504828099
:100FD000EFF26FD465376FF04FD6EFF2CFD34D33CA
:100FE0006FF0AFD5EFF22FD3035765058356250574
:100FF00003564505835505052A84553D09E5230615
:1010000004086FF08FD385472306F4080357840440
:10101000835704056374F7002314F40483572405ED
:101020000357A40463F4E7002315F404835744052D
:101030000357C4046374F7002316F404835764054C
:101040000357E404E3FFE7FA2317F4045DBFEFF26C
:101050008FCC03574504231405042315E5043841B8
:1010600078C549376FF06FCDEFF2EFCA1C59417761
:1010700038C9DC4378C982976FF02FCCEFF2AFC943
:1010800093071010230CC502A30C0502A306050646
:10109000A3060508A30805082319F5081C4354D521
:1010A0004CD918D9232C05042A84829722856D3FB8
:1010B00022854139230804066FF02FC8D1C9A947FA
:1010C0006388F508034765022DE79307B00F63FABD
:1010D000B70095472303F50285890EB1C165F9155F
:1010E000B9A09307700F63F7B70091472303F50288
:1010F0008D89E5B79307F00E63F7B7008D4723039B
:10110000F5029D89D9BF9307F00D63F7B7008947B2
:101110002303F502BD89D1B79307F00B63F7B7003E
:1011200085472303F502FD894DBFC205C1812E8588
:1011300082801E3193F5F5037D179A07DD8DC20578
:101140001377F70FC1812303E5020EB16DD379B791
:10115000C165FD15E9BF230305028280EFF2AFBB35
:101160001C492E8681469305000282976FF0EFBCE2
:10117000EFF26FBA1C49B2862E86DD4582976FF07A
:10118000CFBBEFF24FB94111CC871306F100854573
:10119000C53741016FF06FBAEFF2EFB75C452E86AD
:1011A0008146D54582976FF04FB9EFF2CFB65C45D7
:1011B000B2862E86DD4582976FF02FB8EFF20FB41E
:1011C0004111AA842E845D49E549130AE00FD54AEE
:1011D0000C20638C25036367B90063F0550341015C
:1011E0006FF00FB563FBB902E39B45FF1030930529
:1011F00090022685D087E92439A01030DC4481464E
:10120000D087268582970904E1B71C301306F100C8
:1012100085452685DC87513FFDB7DC448146014684
:101220002685050482976DB79387C5FE93F7F70F60
:1012300015476362F704EFF20FAE6D678A07130775
:10124000C764BA979C4341113289AE842A8482874D
:1012500081452937CA8522852D37054541016FF023
:10126000CFAD854536C6DD3DB2461C484A86A685CB
:1012700022858297E5B701458280EFF22FA82E8460
:10128000CC212A89B2898E0593F5F50393E50504EF
:10129000213783C569004A8593E5850BF53D7C20A0
:1012A000A1CF542058309387860093F7870F958FEE
:1012B00093F7F70F9375F70F63F4E70093F5F70FC4
:1012C000AE960D8F10408E0593F4F50FA68554A0B1
:1012D00058B04A85D93D0C405C30AE9404C091EBC7
:1012E00083A709001CC083C749005CB07C20FD17A0
:1012F0007CA05C209D8BC5F76FF08FA3EFF2AFA1B0
:10130000A94741112A84638CF50863EAB700A54711
:101310006381F5088144268541016FF00FA2AD4736
:101320006381F50CBD47E397F5FE9C423689D432C4
:101330003EC483574900508713978700A183D98FF4
:101340007C869D4763E1D7025C4581460546E145C1
:1013500082974A862C0022850D375C4481460146DF
:10136000E545228582971886BD478544E3E5E7FA7F
:101370005C4481460946E145228582974A862C00D5
:101380002285E53D5C4481460146E54522858297FC
:1013900059B7ED659385456665208544ADBF7520D9
:1013A0005C4481460546E145228582979385818686
:1013B000228529355C4481460146E5452285829790
:1013C0005C44E14581460946228582979385818662
:1013D0002285ED335C4481460146E54522858297AE
:1013E0006DBF5C4581461DE60546E14582979385C4
:1013F000C1862285E1335C4481460146E54522856C
:1014000082975C44E145814609462285829793850F
:10141000C1867DBF0546E145829793850187228578
:10142000713B5C4481460146E545228582975C44D8
:10143000E14581460946228582979385018749BF08
:101440000CC1BC292301F5028280EFF2CF8C5C49EC
:1014500081460146930580022A8482975C44814636
:101460000146D14522858297228505469305B00421
:1014700081281C40228593059002D023912022854B
:1014800001469305B0042D281C4022859305900247
:10149000D0233D20228505469305B00415201C402D
:1014A000930590022285D03321286FF00F89EFF247
:1014B0008F861C4581460146A54582976FF0EF87D0
:1014C000EFF26F855C49814682976FF00F87014587
:1014D0008280B71700009387E74C1CC55CC51CC908
:1014E0005CC9FD5723200500A30105022303050263
:1014F000232C05002302F5022304F5028280EFF27B
:101500008F8141112A842EC632C436C23AC0D137E7
:10151000B2452246924602470CC450C414C858C86B
:101520002285713741016FF04F8137050020130587
:10153000054B828005458280EFE2FFFD8547411122
:101540002A8663F5A7008D4763E6A702B707002048
:1015500083A5074B37C5000074001305659D02C6BF
:10156000EFC0004B01C9B24791C7B7E700E0116770
:1015700023A0E720054541016FE03FFCEFE2BFF902
:10158000B70700202A8403A5074B7D5781460546EF
:101590008D45EFA020228547630FF50011C98947CB
:1015A000630BF5008D476308F50005456FE0FFF814
:1015B00023200400DDBF08C0CDBFEFE2DFF5B70791
:1015C000002083A5074C411137C500007400054673
:1015D0001305659D02C6EFC0A04301C9B24791C77C
:1015E000B7E700E0116723A0E72041016FE0FFF4B7
:1015F000EFE27FF2B705002003C7D54BB707002005
:101600009385D54B238EE74AB707002003A5474BA8
:10161000EF90502683A7819182976FE01FF23705E4
:1016200000201305054C8280370500201305854BEB
:101630008280EFE25FEE85476382F6048947638329
:10164000F60401478146370400201304444B014649
:1016500008C0EF909013084037160000B71500003F
:101660000D4785461306A65B9385055FEF90701ABC
:101670000840EF90901805456FE03FEC0567930632
:101680000060D1B705679306004075BFEFE2BFE881
:1016900037040020AE841304444B15C90840B70535
:1016A00000209385D54BEF90F01C37150140930532
:1016B0000020130505C0EF80602FB707002003A5A9
:1016C000074C95C08545EFA080246FE01FE73715D4
:1016D000014093050020130505C0EF80202C084031
:1016E000EF90101BD9BF0147814605468545EFA005
:1016F000600CE1BFEFE23FE22A8437150140930519
:101700000020130505C0EF806029B707002003A55E
:10171000474B9375F40FEF90501405456FE0FFE1D0
:10172000B707002083C7C74B1CA105458280EFE2A5
:101730009FDEB704002003A5044C7D578146054673
:101740008545EFA020078547E317F5FE83A7C191E4
:101750008297D5B7EFE23FDC08218545EFD05024D2
:101760007D572386E1806FE05FDDEFE2DFDA411134
:101770008545054502C202C423160100EF5070469C
:1017800083A7018237470F0013070724B3D7E70267
:101790004C0037050040231501007C84896793873E
:1017A000F7703EC2EF50D0630546854537050040CF
:1017B000EF606015854537050040EF6040138545B3
:1017C00037050040EF60C01CB7E700E0056723A2C3
:1017D000E71041016FE07FD6EFE27FD14111B709F9
:1017E000002061370144138C4180938B093F138B98
:1017F0008180914A93140401C1801385B40042058D
:101800004181EF103067B3078C0088A31385F40083
:1018100042054181EF101066B3878B0088A31385C2
:10182000340142054181EF10F064B3078B0088A3B7
:101830000504E31154FDB70600209386864C1386F9
:1018400081809385093F13854180EF60F07F956724
:10185000938707E23EC29167938787A93EC44800F9
:10186000A5473EC6EFC0D065C9311841B707002073
:1018700023ACE74C41016FE01FCBEFE23FC8011101
:10188000C88793F745002E84A9C79379F50F1307EE
:10189000C0033387E902B7F70020938787FABA9726
:1018A000D44798473697D44B9C4F3386F6006374E1
:1018B000C700B307D740B70400209384444D8E205F
:1018C0003ECE13076010AE976371F7061305F10063
:1018D0005135937784009DCB9384C18098209307E2
:1018E000F00F6315F70288878545EFD06070888711
:1018F0000566130686B6B305C502B71700209387A1
:10190000C7B2BE95EFD0C0179C879CA09377040107
:1019100081C77D572386E1801374040401C47D5779
:101920002386E18005616FE0BFC0372900201309DD
:10193000C91F7008CA954E85EFD0A0199E20724726
:101940003E97420741839AA09947E3F4E7F883560C
:10195000490093978600A182D58FC207C1839386E1
:101960005700E3D8E6F69907E312F7F60545EFF0DE
:10197000BFBCB704002003A5844D7D5785460546AE
:101980008545EF90306337060020B7250020130609
:10199000464C938545304E85EFD0E0489384844D86
:1019A00001C51305F1007D3388408945EF903076FD
:1019B0000DB7EFE25FB6EFD0205F937715002A8472
:1019C00099C737B501001305C567EF60C125937747
:1019D000240099C737B5010013050569EF60A124FC
:1019E0009377440099CBEFD00060118919C537B5C2
:1019F00001001305856AEF600123418819CC014578
:101A0000EFD0C05BAA8519C10145853D0545EFD0E2
:101A1000E05AAA8519C105458D356FE01FB2EFE286
:101A20009FAF39711304601F11C12A841306C003CC
:101A300081454800EFE03FB18D4722D64C0013842A
:101A4000D1801385D1803ED0EFC0D061814719E9A4
:101A50000820EFD0205F854711C508208945EFD0C9
:101A6000207481473E8521616FE03FADEFE2BFAA60
:101A70001385D180C5316FE05FACB7270020938715
:101A8000C71F1CC1B70700209387474D9A23054500
:101A9000239007009AA18280EFE2FFA7B7270020DA
:101AA0002E862E84AA851385473093844730EF50C5
:101AB000212AB707002023A2874C370400201304F3
:101AC000844D0840B7070020854523A8974CEF9028
:101AD000106408407D57854605468945EF90904D36
:101AE00005456FE09FA5EFE21FA383A701928297B0
:101AF0006FE0BFA4EFE23FA2B726000095652A86FB
:101B000095470547938666AE938575C90D45EF9059
:101B1000E02605456FE07FA2EFE2FF9F0D45EF80D5
:101B200030716FE09FA1EFE21F9F0D45EF90001A0B
:101B30006FE0BFA0EFE23F9EDD3501E50D456FE0B0
:101B4000DF9F0145EDBF8280EFE2FF9C05376FE02C
:101B5000DF9EEFE25F9C01112A84AE846808930542
:101B6000A10132C6193F15C9724715453C333423CC
:101B7000A207D58F93968700A183D58FC207C18313
:101B800091EBBC8532461D0798C0E5171EA2FD5794
:101B90001CA0014505616FE05F9A1545E5BFEFE2C6
:101BA0009F979307160013D787401D06238FF5FED6
:101BB0002E85A38EE5FE93150601C1816515E93DCD
:101BC000954711C181473E856FE03F97AA95C205B1
:101BD0006D666D681307F00F9306F00FC181130651
:101BE000C66B1308C87B93170501C1836396F50084
:101BF00013958600598D828005058347F5FFB98FBF
:101C00003307F6001823C297358F9423E9BFEFE21C
:101C10009F9032842E852146A285EFF09FA18547B3
:101C20006316F5029567938707B01305300263E8E2
:101C3000870037151602130505EC3355850242055A
:101C400041814D3D054781476303E5008D473E8552
:101C50006FE0BF8EEFE23F8CB7070020814505455E
:101C600023AE074CEFF09FA2453D6FE01F8DEFE2E2
:101C70009F8A81450145EFF07FA175356FE0FF8BAD
:101C8000EFE2DF87370400201304844E1E20130781
:101C9000F00F41116371F702B7C60100716637C5D5
:101CA00001009386C6901306C68B9305D0091305D1
:101CB0004593EF5001011E200D476366F70015455F
:101CC00041016FE0FF862E890E20AA89372500206A
:101CD0009304C5401305C54032C6CD3D6DF19C202F
:101CE000324685042380F9001E20F5171EA223200A
:101CF0009900F9B7EFE23F82B707002083A4C74DF0
:101D00008547639FF406370400201304A44E06A001
:101D1000AA87A38FF5FE1E201385F5FF3707002045
:101D20003E964206418212A00E202322A74E793D04
:101D30001A209376F50F21814207418393071700FC
:101D4000C207C1831EA0B72700209387C7403E97D4
:101D500014A31A201375F50F854542074183930696
:101D60001700C206C18216A0BA9788A3B707002041
:101D7000014523A0974EEFF07F9101456FE0EFFB07
:101D80001545EDBFEFE22FF9B707002083A7074EF7
:101D9000411185C3B7C60100716637C5010093863E
:101DA000C6941306C68C9305600E13054593EF4049
:101DB00051711305F100EFF0BF96B707002093872C
:101DC000C74D98438546630FD70019C789466304FA
:101DD000D7048D476314F700EFF01FD4014541018C
:101DE0006FE0AFF5B70600209386864E239006007D
:101DF0009A221316070141821307160042074183F6
:101E00009AA29487372700201307C740329714A35C
:101E1000094798C3D1B7370700201307874E162309
:101E20001306F00F6363D6021E2393960701C18247
:101E300093871600C207C1831EA39887B727002087
:101E40009387C740B69798A341BF0D47D9B7EFE234
:101E50008FECB707002083A7C74D05476381E702D2
:101E6000B7C60100716637C501009386C69C13068C
:101E7000068E9305301213054593EF409164B70425
:101E800000209384044E984019C7630BF700014467
:101E900022856FE08FEA81450545EFF02FFFC5BF32
:101EA000370400201304A44E1E20C207C18385C737
:101EB000B70400209384444E9C40882362056185CA
:101EC000EFF05F839C4085079CC01E20FD17C20772
:101ED000C1831EA06DBF0D45EFF00FE62A8481453A
:101EE0000545EFF0AFFA23A004005DB7EFE2AFE2E3
:101EF000B70700201387C74D1443094641111384C7
:101F0000C74D638FC6028D476388F604014595CAA5
:101F10001443B9C214436381C604184301456304E2
:101F2000F702B7C60100716637C501009386869631
:101F30001306468F9305D01513054593EF4071584E
:101F40000545EFF06FDF2AC6EFF0FFBD324585474C
:101F50001CC041016FE06FDE0145F5B796211547C2
:101F60006398E608582130319306E07C2207518FB0
:101F7000131687002183598E420641821307F6FF0C
:101F800042074183AA870D4563E6E606EFE2AFD834
:101F9000B8239433239005002207558F854694A3D8
:101FA00096219354360093F4F40F850696A1937608
:101FB000760081C6850493F4F40F84B396212E84B1
:101FC00013852700850696A19315870021834D8FE1
:101FD00093051700C2058146C181EF20207401C519
:101FE000192B6FE08FD51E200145BE9406A0D5BFEA
:101FF0000D45828082809A2195476311F70658210A
:102000008D4731EF38311306D00F9306F7FF93F663
:10201000F60F6376D604EFE20FD03C210C3141116C
:10202000A207CD8F93958700A183CD8F938517004D
:10203000130717F0C2051337170085460546C181FF
:102040006800A30601005886EF20406D814719C142
:102050005D21AA873E8541016FE02FCE8D473E85E9
:10206000828096211547637FD70658213031AA8791
:102070002207518F131687002183598E4206418211
:1020800013573600937676001377F70F81C605074E
:102090001377F70F9306F6FFC206C1821308F07A92
:1020A0000D456363D804D4336390E604EFE2AFC612
:1020B000B8232E848C332207138567004D8F931627
:1020C00087002183558F0507931507018546C18138
:1020D000EF20C06401C505216FE02FC695471EA003
:1020E0000145DDBF0D4582808280962115476397AB
:1020F000E608582130319306E07C2207518F1316F1
:1021000087002183598E420641821307F6FF42075A
:102110004183AA870D4563E5E606EFE2CFBFB8230A
:102120009433239005002207558F894694A3962166
:102130009354360093F4F40F850696A193767600B7
:1021400081C6850493F4F40F84B396212E841385FD
:102150002700850696A19315870021834D8F93054F
:102160001700C205C181EF20C06901C569266FE073
:10217000CFBC1E200145BE9406A0D5BF0D45828070
:1021800082809A219547631CF702EFE2CFB83C2189
:102190000C318546A207CD8F93958700A183CD8F03
:1021A00093851700C2050546C1810D05EF20004C3F
:1021B000814719C18926AA873E856FE00FB88D47F0
:1021C0003E858280EFE22FB59A21954463F7E406BD
:1021D00058213031930670072207518F131687005C
:1021E0002183518F1316070141821307F6FF42071F
:1021F0004183AA870D4563EDE602D4331317160019
:102200001377F70F6396E602B8232E848C332207E8
:10221000138567004D8F931687002183558F05071F
:10222000931507018546C181EF20404401C5E12493
:102230006FE0AFB006A00145E5BF0D45D5BF9621C3
:102240001547639AE606EFE20FAD54211306C00767
:10225000AA8793940601C1801387F4FF4207418344
:102260000D456362E6042E84B8238C3323100400EA
:1022700088A3122086062207050612A04D8F94B36C
:1022800093158700162021834D8F9305170085062F
:10229000C20516A026868146C18113852700EF203E
:1022A000E03C01C5892C6FE04FA91E208604014542
:1022B000BE9406A0CDBF0D4582809A21A54763F24A
:1022C000E70EEFE2AFA35C2138312A84A207D98F51
:1022D00093998700A183B3E7F9009399070193D9F4
:1022E00009019387F9FFC207C1831307C0070D4592
:1022F0006367F70A1C24703013078007A207D18F89
:1023000013968700A183D18F13960701418293070B
:10231000F6FFC207C1836364F708183493171600E9
:10232000639FE70624202E890C30A2047C20CD8CEC
:102330004C30A2078546CD8F93958700A183CD8F22
:1023400093851700C205C1811305A400EF20003258
:1023500039E923100900DD471CA083570900139AAF
:1023600019009395840085072310F900A300440108
:1023700083570900A180CD8C938514008507C20581
:102380002310F90081464E86C18113052400EF20F9
:10239000E02D11E9835709003E9A231049016FE0AF
:1023A0002F9901458280812ADDBF962115476390D0
:1023B000E608582130319306B0072207518F1316D3
:1023C00087002183518F1316070141821307F6FFFF
:1023D00042074183AA870D4563EDE604EFE2AF9320
:1023E0002E843E858C331147BC232310040018A192
:1023F0001A20A2079314160005071AA004B1CD8F66
:10240000939587001A20A183CD8F93851700050728
:10241000C2051AA0C1810905EF20601901C5E12894
:102420006FE0AF911E200145BE9406A0D5BF0D45BB
:1024300082808280EFE22F8EB707002003D4C74E40
:10244000AE84B725002022869385C5500505EF4050
:102450003110050482A001456FE02F8EA14763F380
:10246000C702EFE24F8BB7C60100716637C50100A6
:102470009386869F1306869E93058003130585A089
:10248000EF40310413D73500930717003308E500F8
:102490003E958547B397C700FD17C2070E073387E0
:1024A000E540C183B397E70018210346080093C7AE
:1024B000F7FF2207518F9D89F98FB396B600DD8E05
:1024C000C206C1862300D800C206C182A18214A11F
:1024D000828093D735003E951C3108219D89A20743
:1024E000C98F05453315C500B3D7B7407D157D8D20
:1024F0001375F50F82809D4763E7A7009387418797
:10250000AA978823828011458280EFE2CF80AE8730
:102510001388F7FFB2851378F80F36869306600F9D
:1025200063FC060137C50100130585A2EF50A16FBA
:10253000094422856FE06F80238AF180094475F990
:1025400037250000130545C523A8A19037250000B5
:102550001305E5C623AAA19037250000130545CF32
:1025600023A4A19037250000130505C823A2A1903C
:102570003725000023A60190130545D823ACA19070
:10258000372500001305E5E423AEA19037250000B0
:102590001305C5EE23A0A192BA863E85EFF02FE782
:1025A0002A8441F9EFE01FF909C5054723A8E18016
:1025B00049B70D44BDBFEFD21FF6EFF0AFD72A8465
:1025C00019C5054723A8E18022856FD01FF7EFE0EA
:1025D0007FF61DCDB7270000938767B423A8F1903D
:1025E000B7270000938787B423AAF190B72700008C
:1025F000938727B523A2F190B72700009387E7B907
:1026000023A4F19023A601907D57238AE18055BF32
:102610000D445DBFEFD23FF0138401811840854720
:1026200019456318F70083A701918297014523207C
:1026300004006FD09FF0EFD21FEE83A701814111FC
:1026400019446395070C6800EFE05FF30547AA871C
:102650006304E50001445DA832476303A708894687
:10266000E31AD7FE03A581920C213707002023A08F
:10267000F190130607002382B1928147138481925F
:102680001389419293840190130707004148142253
:1026900091CA6391D5088E07BA97DC439385E1927E
:1026A000829788C083C7C192D5D794409387E1921F
:1026B00085C203470900104085458EA3136707F8BC
:1026C00018A292231840930516008EA3329714A3E4
:1026D000922303A781900C4003C5418102979DBFBF
:1026E00083A741909384C1921386E192938581924E
:1026F0001385C19282972A8431FD9C2003C74181B2
:102700006303F700A1FB0945EFE01FE322854101C8
:102710006FD0BFE285072106E39B07F761B79307F8
:1027200040063345F502A9474205418163E8A70603
:10273000F167938787A30A053E951C418287238012
:102740000500930760041CA2828089479CA193071F
:102750008002D5BF91479CA1E547F5B795479CA15D
:10276000D147D5B79D479CA1BD47F1BFA1479CA1CB
:10277000A947D1BFAD479CA1A147F1B7B1479CA1E3
:102780009D47D1B7B9479CA1994775BFBD479CA14B
:10279000954755BFC1479CA1914775B7D147E5BF44
:1027A000EFD27FD77971BD47AA842E8436859305F1
:1027B0006100130671005C83DC8395379C83034EB4
:1027C00061009308C05D93960701C182B388F84009
:1027D00013982700139716008608B30EC041139371
:1027E0002600814701458145054FD14F634A1701B6
:1027F00005476369F70A81471EA045616FD0FFD383
:1028000093161700A6960396060063DBCE04635961
:10281000C605B30607418606A6968396060063C5DD
:10282000C604B306E8008606A69683960600634DA6
:10283000D60211C19DCD81459386170010188607D9
:10284000B297135617001A974207050593F6F60F2D
:10285000239CC7FC41831375F50F63EDDF00B6873A
:1028600009074207418359B719C16384E5018545CA
:10287000E1B795463000054781472E220A22050719
:102880001377F70F898DAE97C207C1830906E366F8
:10289000D7FEFD16B3C7D702C207C1838607C2079A
:1028A000C18399BFBE86F9B7EFD2FFC6B386C50212
:1028B000AA88014701450148634FD7002E8681460B
:1028C000C285EF200104EF30917EEFB0202DEF4064
:1028D00041216FD09FC693171700C69783970700B3
:1028E00032974207B387F702418313DEF741AA9775
:1028F00033B3A70072983E851A987DBF856793878A
:102900000777AA971A2136211105158F231EE5FE98
:10291000E39AA7FE82800566814701478146130638
:1029200086BB139817002A9803180800939807018C
:1029300093D8080163D406014687C2868907E392CB
:10294000C7FE05839AA136858280EFD2DFBC05459C
:10295000EF60D0001384A193931505010420C18575
:102960000545EF605010B747002086049387C7C91C
:10297000A6978AA31C209546850793F7F70F1CA0FE
:102980001387818163F4F6040C23373501408546B3
:1029900005461305058023000400EF40201103A520
:1029A000C1931384C19401479387C1948546094616
:1029B000814523200400EFA090341C4091C7B7E765
:1029C00000E0116723A0E7206FD03FB7BA978C23B0
:1029D000373401401305048085460546EF40000D5D
:1029E000854513050480EF40E00AF9BFEFD2BFB27E
:1029F0000945EF80A02DB707002083A6C71D4167BA
:102A000079179C4203A5C193F98F9CC213848194CA
:102A10000147938781948546114681452320040010
:102A2000EFA0F02D1C4091C7B7E700E0116723A08D
:102A3000E7206FD09FB09D4763E8A702EFD2BFADFC
:102A4000AA852A845D45EF00903A370500201305DA
:102A5000050806042A941A20B7470020938787CFD9
:102A6000DAA39AAB6FD07FAD82801385C193828049
:102A700013850194828087A70193539517C013751E
:102A8000F50F8280EFD23FA95D71EF60801DA945EF
:102A90000145EF60201E71642946930504B101458C
:102AA000EF60602BA9450545EF60C01C29469305E2
:102AB00004B10545EF60202AA9450945EF60801B58
:102AC000930504B129460945EF60E02893070010FB
:102AD000B70608007010894501452316F102EF6022
:102AE000A07B93070002BEC0B72701409387C7446D
:102AF000BEC2B72700209387C752BEC485473EDEBB
:102B00008567938787BB2316F1040C188567130626
:102B100000020A853EDC02D802DAEF406123B736B4
:102B200000000A859386C69E01468545EF603012F7
:102B3000B707002003A7C71D814605461C43B705FC
:102B40000E00054593E717001CC337370000130735
:102B5000A794EF60807E83C58181373501409D4613
:102B6000054613050580EF3070740545EF30907F02
:102B7000374500201309C5D81306003281451305D7
:102B8000C5D8EFD05F9C5D45EF00902BB7040020C7
:102B900093840408060526951E213744002013045B
:102BA00084CF374500205EA0232024011306003285
:102BB0001309C50A8145231404001305C50AEFD083
:102BC0009F985D45EF00D0270605AA94374700205F
:102BD0009E20130787CA58D0374700201307C7CB5A
:102BE0001EA818D88D47374700205EAC130707CDC5
:102BF00058DC93874193374700201CCC130747CEFE
:102C0000A9471EB45EB82310F4042316F40438C494
:102C1000231CF4042312F40637470020B747002092
:102C2000130747D6938787D7231A04002326240146
:102C30002310040223160402231C0402231204049A
:102C400023180404231E040478C8231404063CD06B
:102C500061616FD09F8E1A251C410607BA978EA31B
:102C60001E255A218507C207C1831EA563E4E7001C
:102C700023140500828052211E2581469305F6FF0C
:102C8000C205C18101476317D6003345C70242051B
:102C90004185828091E3AE87FD17C20703280500B6
:102CA000C183939817004698031808008506C2064A
:102CB0004297C182C9BFAD4763E2A712EFD2BF8579
:102CC000F167938747A60A053E951C4182873745E1
:102CD0000020130585CFEFF01FFAD37705D0B1A000
:102CE00037450020130545D0FDB7374500201305B3
:102CF00005D1EFF05FF8D37705D0538507E0EF30CB
:102D00009153B7C7010003A607BC83A647BCEF20B9
:102D1000515DB7C7010003A687BC83A6C7BCEF20DF
:102D2000515CEF30115CD30705F0538507E06FD09D
:102D3000DF80374500201305C5D1EFF0DFF3D377EF
:102D400005D0538507E0EF30114FB7C7010003A648
:102D500007BC83A647BCEF20D158B7C7010003A624
:102D600007BD83A647BD65BF37450020130585D243
:102D7000E9B737450020130545D3C1B737450020D3
:102D8000130505D4EFF03FEFD37705D0538507E067
:102D9000EF30714AB7C7010003A607BC83A647BC42
:102DA000BDBF37450020130585D5EFF0DFECB7C771
:102DB0000100D37705D007A7C7BBD3F7E710B5B796
:102DC0000395619419BF374500201305C5D4F1BFA1
:102DD0000395419419B787A7019381BFD30700F0EA
:102DE000538507E08280EFD20FF041119307B05D69
:102DF0007C8323120100EF90F018B7C7010003ABEA
:102E000087B083ABC7B0056CB74A00202AC695448B
:102E1000014D01490144372A0020930C0C77938A15
:102E20008ACF85456800EF90D04289476307F90251
:102E30008D476300F902631009023735014085456B
:102E400013050580EF3010450945EF70703E0D49C0
:102E5000C9BF0949F9B70549E9B70547340019461B
:102E600081450145EFA00041A247898BA1CBB7491D
:102E700000209389C9C9094DB1479D4D3305FD0215
:102E800083952900050D89095695EFF0DFDCB147E0
:102E9000E316BDFFA947B377F402054D639297028D
:102EA000FD1493F4F40F91E0A544373501408545B6
:102EB00013050580EF30103E014D19A0E31C0DFCF9
:102EC000A247918BC5C39309CA52B38D99018395CB
:102ED000090001458909EF600039239FA9FEE398A5
:102EE0003DFF1305CA52EFF07FA1930521001305A2
:102EF000CA52EFF05FA2AA86930561000946130546
:102F0000CA52EFF0FF892C839307A05D63EEB702EE
:102F100009461305CA52EFF03F99D30705F04C005C
:102F2000539517C042054181EF50B050D37715D06B
:102F3000538507E0EF3031305A86DE86EF20713A54
:102F4000EF30313A23A8A192B707002083A7C71D0D
:102F500013078CBB0945D8C398431367170098C360
:102F6000EF70102D05041374F40FA547E3FB87EAF7
:102F7000014445BD9C4221476369F708EFD20FD851
:102F800071678A07130747A9BA979C43B6843289A9
:102F9000AE892A848287EF60703B098919C1014597
:102FA0009DA02285EF60D04185479CC0CDBFEF60DA
:102FB000103905896DD59305A00D2285EF60D03AB3
:102FC0008947E5B7EF60B037098971D92285EF608D
:102FD000F037CE852285EF6050388D47F9B7EF6026
:102FE00010361375050845DDCA852285EF60F03679
:102FF000A14765BFEF60B034137545084DD12285F8
:10300000EF60D03A05456FD0AFD2014582809C4237
:1030100029476364F70CEFD26FCE71678A071307F5
:1030200087ABBA979C43B6843289AE892A8482875B
:10303000EF60D031098919C1014571A82285EF607F
:10304000303885479CC0CDBFEF60702F05896DD5A6
:103050009305A00D2285EF6030318947E5B7EF6019
:10306000102E098971D92285EF60502ECE852285D8
:10307000EF60B02E9147F9B7EF60702C13754508DB
:1030800045DD2285EF60D033A9476DBFEF60302B5F
:1030900005895DD19305A00D2285EF60102E99471B
:1030A00055B7EF60D029098941D92285EF60102AF0
:1030B0009D4749BFEF60B0281375050435DD2285B3
:1030C000EF60102D2285EF6070262300A900228575
:1030D000EF60D02D05456FD0AFC5014582809C4182
:1030E0001D47636AF718EFD26FC171678A0713072C
:1030F00047AEBA979C432A84411113451500368A7E
:103100003289AE898287B286930500032946EFF0A3
:103110007FE68547631BF50423A0A900232009004F
:10312000A9A0B286930500031306F100EFF03FEE6D
:103130008547631CF5029C87A18BEDF3894723A08B
:10314000F900E9BFB74700209387C73C1316340046
:103150003E96CA869945EFF09FEB85476317F500C9
:10316000232009008D4723A0F90041016FD04FBCF7
:10317000B2860E043746002005041306C63C22968C
:103180009D45EFF0DFE88547E311F5FE23200900B8
:103190009147D1BFB7470020931A34009384C73CAE
:1031A00013862A00CA862696A145EFF05FE685477A
:1031B000E31DF5FAB387540184238833C204220542
:1031C000C98CA823B7078000C98C63F99702EF0068
:1031D000506BB70700FFBE94B3D4A40223109A002B
:1031E00031453304A40283150A0037450020130536
:1031F00085CF2295EFF03FA6954791B7EF00706815
:1032000033D5A4022310AA00E1BFB2860E043746CC
:1032100000200D041306C63C2296A545EFF03FDFC3
:103220008547E314F5F4994719BFB7440020131AF2
:1032300034009384C43C13064A00CA862696A945E6
:10324000EFF0FFDC8547E312F5F21334140031454B
:103250001D043304A402D294AC30DC203745002096
:10326000A205BE95C205130585CFC1852295EFF055
:103270009F9E9D47E9B58280EFD24FA8411113056B
:10328000803EEF90B00937C50100130505B602C4B2
:1032900002C6B7C40100EF40111937C90100EF9011
:1032A000604E2A8402C002C2EF90C04D018D4205DB
:1032B0004181E54763F1A70402469D47630DF6008F
:1032C000A24537C50100130545B7EF40D1030545B9
:1032D000EF60D00D02C412469D47E302F6FCB245F2
:1032E00037C50100130585B8EF40F1010145EF60D6
:1032F000F00B02C66DB7954763F8A702824791EBC2
:103300001305C9B9EF4031129D4705453EC0EF6036
:10331000F009924791EB1385C4BAEF40D1109D4755
:1033200001453EC2EF6090089386619430008A8523
:103330000145EFF0DFDA9386419470004C000545BB
:10334000EFF0FFD982471D47E390E7F61247E31DF0
:10335000F7F40545EF90807C81BF7300203037C5BE
:1033600001001971130585BD82FE86FC8AFA8EF86C
:1033700092F696F49AF29EF0A2EEA6ECAAEAAEE8D5
:10338000B2E6B6E4BAE2BEE042FE46FC4AFA4EF8C5
:1033900052F656F45AF25EF062EE66EC6AEA6EE8B5
:1033A00072E676E47AE27EE0EF40F107EFA0E07D9E
:1033B000AA8537C501001305C5BEEF40C174EFA053
:1033C000207DAA8537C501001305C5BFEF40A17355
:1033D000EFA0607CAA8537C501001305C5C0EF408A
:1033E000817201A0317106DF16DD1ADB1ED92AD7E2
:1033F0002ED532D336D13ACF3ECD42CB46C972C755
:1034000076C57AC37EC182FE86FC8AFA8EF892F671
:1034100096F49AF29EF0A2EEA6ECAAEAAEE8B2E624
:10342000B6E4BAE2BEE042FE46FC4AFA4EF852F674
:1034300056F45AF25EF062EE66EC6AEA6EE872E604
:1034400076E47AE27EE0EF40105013050008EF309A
:10345000D03EFA50EA525A53CA533A55AA551A5610
:103460008A567A47EA475A48CA483A4EAA4E1A4FED
:103470008A4F7670E6705671C6713672A6721673F0
:1034800086737664E6645665C6653666A666166714
:1034900086677278E2785279C279327AA27A127BA0
:1034A000827B726CE26C526DC26D326EA26E126FD4
:1034B000826F296173002030197182FE86FC8AFABE
:1034C0008EF892F696F49AF29EF0A2EEA6ECAAEA94
:1034D000AEE8B2E6B6E4BAE2BEE042FE46FC4AFA24
:1034E0004EF852F656F45AF25EF062EE66EC6AEA74
:1034F0006EE872E676E47AE27EE0EF50E0237670E2
:10350000E6705671C6713672A6721673867376644B
:10351000E6645665C6653666A6661667866772787F
:10352000E2785279C279327AA27A127B827B726C0B
:10353000E26C526DC26D326EA26E126F826F0961C3
:10354000730020301971294582FE86FC8AFA8EF8B4
:1035500092F696F49AF29EF0A2EEA6ECAAEAAEE8F3
:10356000B2E6B6E4BAE2BEE042FE46FC4AFA4EF8E3
:1035700052F656F45AF25EF062EE66EC6AEA6EE8D3
:1035800072E676E47AE27EE0EF40E05D854537055D
:103590000040EF40E03F7670E6705671C6713672BB
:1035A000A672167386737664E6645665C6653666DB
:1035B000A666166786677278E2785279C279327A9F
:1035C000A27A127B827B726CE26C526DC26D326E9B
:1035D000A26E126F826F096173002030B74700201E
:1035E0009387C73D3E950CA1A1810CB18280EFC2AB
:1035F0009FF22A84EFF09FFEB74500209385C53DDA
:103600000947A9460946A2952285EF5060596FC027
:10361000DFF2B74700209387C73D3E950CA182801B
:10362000EFC27FEFB74700209387C73DAA978CA3CF
:103630000947A9460546BE85EF5080566FC0FFEF8B
:10364000B74700209387C73DAA979833882322075E
:10365000598D8280B74700209387C73DAA9798333A
:10366000A82322074205498F8823498FA833620582
:10367000598D8280B74700209387C73D3E9508212A
:103680008280B74700209387C73D3E9593D785003A
:103690000CA11CB193D70501E1813CA12CB1828022
:1036A000EFC27FE7B74400201306E003814513858E
:1036B000C43DEFC05FE90947930640061306E003E7
:1036C0009385C43D0145EF50603F894755E1138420
:1036D000C43D1420130780098147638BE608130655
:1036E0008002814513056401EFC0FFE5B7070401BF
:1036F000938787191CC0B7C7FAF09387E77B5CC034
:10370000B7070AC0138727139387871A5CC4B707C4
:1037100001FF9387871A1CC8FD575EA8B7C7010031
:1037200083A5C7C11305A00218C4EFF09FF5994700
:103730007CB809479307601F9306803E1306E00399
:103740009385C43D01451EACEF50804519E537C552
:103750000100130505C2EF40014D094793064006DD
:103760001306E0039385C43D0145EF50203585479E
:103770003E856FC09FDCEFC21FDA2A84EFF07FF036
:10378000B74500209385C53D0947A9461146A29536
:103790002285EF50E0406FC05FDAB7470020938783
:1037A000C73DAA979833A82322074205498F88234B
:1037B000498FA8336205598D8280EFC23FD42A8495
:1037C00039711305A003AE89328A3689EFF05FE7BD
:1037D00063678506AA841305C003EFF07FE6B3078D
:1037E000954063D90700636A95047D14058C2A947B
:1037F000420441801D453305A4020947A9461D46E0
:103800006C001305E50342054181EF50202B1C8617
:10381000B8802380F9009C862304F9001C872322AA
:10382000F9009C87A304F900834721012310EA00D3
:103830002301FA0021616FC0BFCF2A8465BF2380B6
:103840000900CDBFEFC23FCD0111AA841305C0030B
:10385000EFF01FDF2A8468004482EF60703348086D
:10386000EF6090361D453305A4028347C1013886B9
:10387000A946DC82E24778841D465C838347D101F8
:103880001305E5034205DC831C8709474C00418191
:103890005C85EF50E0301305140042054181930729
:1038A000100363F3A7000145374400209307C43D8C
:1038B000238EA7021305A003A38E0702EFF05FD8A3
:1038C000930710039305C43D63E7A7000505238D07
:1038D000A502A38D05020947A94611469385A503B4
:1038E0001305A003EF50C02B05616FC01FC59147A2
:1038F00063E0A704EFC23FC2F167938707C30A05DD
:103900003E951C418287856593850580372501405A
:1039100013050580EF60E0071375F50F6FC0FFC159
:103920008565EDB78965DDB79165CDB7A165F9BF4F
:1039300001458280954763E5A704EFC2DFBDF167CB
:10394000938747C40A053E951C418287930500046E
:103950003725014013050580EF60A0036FC0FFBD50
:1039600093050002F5B7C145E5B7A145D5B7914527
:10397000C5B73715014093050010130505C0E9BF11
:1039800001458280EFC23FB985476309F50211C541
:103990008947630AF5026FC05FBA89E9A145371507
:1039A0000140130505C0EF50707FF5B7A1453715ED
:1039B0000140130505C0EF50707FF1BF99E1C1458B
:1039C000F9BFC145EDB781E593050002C9BF930575
:1039D0000002F1BFEFC23FB47971A9473ED23ED099
:1039E000B74700009387E78E4C0801453ED602CCCE
:1039F000EF5080484C080545EF5000484C080945F9
:103A0000EF5080474C080D45EF5000474C081145DA
:103A1000EF508046B7470000938747982C00014538
:103A20003EC802C6EF50A03A2C000545EF50203AA0
:103A30002C000945EF50A03945616FC01FB0EFC29F
:103A40009FAD011199475C84938701953EC8938788
:103A500081953EC6B7071464D1073ECA8947230C37
:103A6000F100B74700009387479328003ECEEF5000
:103A7000405705616FC07FACEFC2FFA9EFF03FFC7C
:103A8000EF508055EF908009EF50605AEF50204280
:103A9000C5BFEFC2BFA679713714014002C602C884
:103AA00002CA02CCEF50D070F146014613050480E3
:103AB000C145EF50D06A130504C08D45EF50306802
:103AC000130504808D45EF5090679305000337156B
:103AD0000140EF50D066130504809305400CEF5071
:103AE0001066B72401401385048093050078EF50D9
:103AF000106413050440B165EF5070638565371598
:103B00000140EF50D062130504408D45EF50306204
:103B1000130504409305000EEF5070611305044037
:103B20009145EF50D060130504408565EF5030603B
:103B3000E1460146130504C0A965EF5050629307A2
:103B4000800491696C08130504C03ED2231E310124
:103B5000231F01002310010223110102EF30804EC8
:103B6000130504C08565EF50905C91453715014001
:103B7000EF50F05B1305044093050004EF50305BF9
:103B8000370613808D65E146410613050440938591
:103B900005A0EF50D05C130504C093058003EF50DF
:103BA00010590569930509C037150140EF50305889
:103BB000138504809305C007EF507059130504C0A6
:103BC00093050010EF50B058C165138504809385AC
:103BD0000580EF50D05781450145EF306012130545
:103BE000044093050004EF50705B130504C0930577
:103BF0000020EF50D053370A308013062A00138577
:103C0000048091468945EF50905513062A0013858C
:103C10000480E1468545EF509054E1460146130586
:103C2000048093050040EF50905385451165EF30B7
:103C3000407B11457D26EFE0FFE4B7B51D006546EA
:103C4000938595150945EF70600F930500020945AE
:103C5000EF60705F95659D461306803E938505E293
:103C60002145EF70401A1306401F9D452145EF7016
:103C7000A0272145EF70C02F2145EF60705BB7177B
:103C80000300938707D43EC6B70700403EC86C00C8
:103C9000B70700048546054601453ECA231C31018D
:103CA000EF50F0546C00854605460545EF50305402
:103CB000930509C0130504C0F1460146EF50304A90
:103CC000F14601469305000C130504C0EF5030493E
:103CD0000145EF5090500545EF5030508947680836
:103CE0003ED602CE02D002D202D4EF50806D85457E
:103CF0000145EF20307E9305803E0145EF304000C6
:103D0000EFF05FCD0545EF40504945616FC05F82E0
:103D1000EFC27F80B7470020238EA7401145EF6098
:103D2000305113064006FD550945EF9060496FC0BC
:103D3000DF80138501968280EFC2EFFDB757002028
:103D400083A5078637450020130600401305C542AA
:103D5000EF20B17D1375F50F6FC02FFEEFC22FF965
:103D600037140140130504409145EF5030441305CA
:103D7000044093050008EF507043856537150140F6
:103D8000EF50D0422945EF807059856537150140C5
:103D9000EF50D0402945EF8070581305044093053B
:103DA0000008EF50B03F856537150140EF501040D7
:103DB0002945EF80B056856537150140EF50103E1C
:103DC0002945EF80B0559305000813050440EF50D6
:103DD000F03D1305F003EFF0BFF30545EF801054FD
:103DE0009305000813050440EF50503B1305F00302
:103DF000EFF01FF20545B7590020B7440020EF80CF
:103E0000F051B74A00209389C98213040440938477
:103E1000C441A14B7D5685450145EF90603A83A58D
:103E20004903130600401385CA42EF207172138ABA
:103E3000CA420149930500082285EF503037130527
:103E40000004EFF0FFEC136B890B5A85EFF05FEC89
:103E5000930500082285EF50703413050004EFF03D
:103E60003FEB5A85EFF0DFEA93070008114523A2E4
:103E700044019CC423800400239604000509EF60DC
:103E8000303B13064006FD5509451379F90FEF90B5
:103E90002033130A0A08E31F79F9ADBFEFC2AFE779
:103EA000B71401402A8413850440EF50B02F935576
:103EB00024409317E4008D89DD8D9167F1177D8D86
:103EC000C98DC205C18113850440EF50702DB72400
:103ED000014013850480EF50F02C0E041375F58714
:103EE00013740478498C93150401C18113850480EF
:103EF000EF50102B6FC06FE4EFC2EFE183C7419624
:103F000041113744002002C6938441961304C441F2
:103F1000A5EB371901409305000213050940EF5046
:103F2000F0281C2085651305094085C7EF5010282F
:103F30000820EFF0BFF62314040037150140914527
:103F400013050540EF50902585479CA041016FC0A7
:103F5000CFDEEF50B0245A249307F00393050008F6
:103F60001305094063EBE700EF5050233A245C400F
:103F7000BA978823EFF09FF2C9B7EF503023FDB70F
:103F800037150140914513050540EF5030225E245E
:103F90001307F0078507C207C1836361F7045EA4B6
:103FA0003E241A248507C207C1833EA463E5E702C5
:103FB0001145EF60B05103A501967C0001478D4685
:103FC00005468945EF90A053B24791C7B7E700E097
:103FD000116723A0E720238004008DBF231604006F
:103FE000C1B7EFC24FD3B7460000B7B50A00854747
:103FF0000147938686EF0546938505E6EF601058E6
:10400000371501409305000213050540EF50101AC3
:1040100037540020ED65814601461305C48293851F
:104020000564EFC02FEFE9659385053C1305C48255
:10403000EFC0FFD11305C482EFC08FEB6FC0EFCF8D
:10404000EFC26FCD0945EF304019EF20C005EF906A
:10405000901EEF20A045EF206042EF200026EFD019
:10406000AFF7EFF01FA3716513050520EF90D02582
:1040700037C501001305C5C5EF30F13AEF80C066C2
:1040800001A003D5E18182809307B00363E0A738E4
:10409000EFC26FC87167931725001307C7C6BA9799
:1040A0009C4301118287B757002083C507921305EF
:1040B0000004EFF00FD605616FC02FC8B75700207E
:1040C00083C5279213052004EDB7B757002003C519
:1040D000E791EF200041C5B7375700201307C78C81
:1040E00016230D46938751966375D6009C231EA315
:1040F000D9B794A3C9B7B75700209387C78C83D586
:10410000A70683D7C7060145C207DD8DEF40303BC8
:10411000D30705F029468545539517C042054181CF
:104120003306C5022145EF60305C2145EF605064E5
:1041300059B7B75700209387C78C83D5E70683D735
:1041400007070545C207DD8DEF407037D30705F03F
:1041500029468945539517C0420541813306C5025A
:10416000D1B7B75700209387C78C83D5270783D74C
:1041700047070945C207DD8DEF407034D30705F0CE
:1041800029469145539517C0420541813306C50222
:1041900051BFB757002003D52794EFE0DF8921BF37
:1041A000B757002083D5278F0145EF20703521B701
:1041B000B75700209387C78CEE2F9A3393F7F50FEC
:1041C000E3FBE7EEBE851145EFF08FC5EDB5B757C0
:1041D00000209387C78C8E33F62F13F7F50FE3FC7F
:1041E000E6ECDE33E379F7ECBA851545F1BFB75756
:1041F00000209387C78CCE33963313F7F50FE3FC7B
:10420000E6EABE33E379F7EABA851D4575BFB757CD
:1042100000209387C78CAE33DA3393F7F50FE37C36
:10422000F7E8BE8519454DB7B75700209387C78C6F
:10423000AE23DE2313056002C207DD8DEFF06FC4ED
:104240009DBDB75700209387C78CEE239E2713058B
:104250002002C207DD8DDDB7B75700209387C78CDA
:10426000AE27DE271305A002C207DD8DC1BFB757F9
:10427000002083C5A78D8947E3EFB7E283C7519636
:104280000545E38A07E289B7B757002083C5C78D84
:1042900005479387F5FF93F7F70FE36EF7E083C7C2
:1042A0005196E38A07E005452EC6EFF0AFBCB24554
:1042B000E31305E00D4509BF83C75196E38D07DE83
:1042C000B757002083C5478F1307200609459387FA
:1042D000F5FF93F7F70FE360F7DEFDB5B757002062
:1042E00083C5678F2945CDB5B757002003C7E78D34
:1042F000DD47E3E2E7DCB75700209387C78CBA2B92
:104300004808230AE100DA2BFE2BA30AE100230B65
:10431000F100EF60601545B3B75700209387C78C55
:1043200006053E9518219307B003E1B7B757002063
:1043300083C7478E7947FD1793F7F70FE36DF7D6DD
:10434000B75700209387C78C9A2F4808230EE100A7
:10435000BA2FDE2F3ACCA30EF100EF606015A1BB9F
:10436000B757002083C7678E2D47FD1793F7F70FC8
:10437000F1B7B757002003C7878E93072006E3F1F4
:10438000E7FC15BB83C75196E38707D2B7570020D8
:10439000131715009387C78C5515BA9742058C23C0
:1043A00041811DB583C75196E38707D0B7570020D9
:1043B00083D507916145EFF08FA3F5B9B75700207A
:1043C00083D527911305E002FDB7B757002083D5A9
:1043D000479113050003C5B7B757002083D56791F0
:1043E00013052003C9BFB757002083D58791130554
:1043F0004003D1B7B757002083C5A7915D45E9B306
:10440000B757002083C5C79125457DBB8280EFC289
:10441000EF8E83C75196B75400201384C48C1305C4
:1044200060021EA0EFF06FB7B7C7010007A707D95A
:10443000D30705F0B7C901004169D3F7E7107D192B
:10444000539507C0D37705D0D3F7E718538507E016
:104450002AA041814AA013052002EFF00FB407A75C
:1044600009D9D30705F0D3F7E710539507C0D377E1
:1044700005D0D3F7E718538507E0B37725014181CD
:104480000AA41305A0027EA0EFF02FB107A709D957
:10449000D30705F0D3F7E710539507C0D37705D0BE
:1044A000D3F7E718538507E03379250141814AA402
:1044B000054523152401EFF0EF9B6AA40D45EFF0AD
:1044C0006F9B0AA89389819613858196EF50506C53
:1044D000375500201309058C1305058CEF50D06E5D
:1044E00083C7090011453EA883C719005EA883C78A
:1044F00029009389C48CDD447EA8834789001EACC3
:10450000832749003EAC834799002D495EACEFF00C
:104510006F966AAC1545EFF0EF950AB01945EFF0CC
:104520006F952AB01D45EFF0EF944AB00945EFF0C2
:104530006F940AB42945EFF0EF932AB44A85050930
:10454000EFF04F9342092396A902135909018909F3
:10455000E31699FE6145EFF0AF8E2312A404130514
:10456000E002EFF0EF8D2313A40413050003EFF036
:104570002F8D2314A40413052003EFF06F8C231553
:10458000A40413054003EFF0AF8B2316A4045D458C
:10459000EFF04F8E2317A4042545EFF0AF8D2318BD
:1045A000A404EF10B0742319A4046FB07FF8CDCD2C
:1045B000EFB2DFF4B387C50013079002AA8A2E89F1
:1045C000B28405456342F708716A37540020814977
:1045D000130ACAD513040493130BC002B3073A019C
:1045E0008843EFE04FED37C70100D30705F00727F9
:1045F00007D9B30734019109D3F7E710539507C0E2
:10460000D37705D0D3F7E7189CE3E39969FD2545F7
:10461000EFE06FEAD30705F00609539517C0D3778B
:1046200005D005455CF4EF4050130AB8EF10B01404
:104630002AB8EF1070134AB80145EF4010126AB85B
:104640004A94090481E401456FB09FEE8357C4FF8B
:10465000FD14890AA183238FFAFE8357C4FFC20485
:10466000C180A38FFAFEF1BF05458280D5C5EFB2A8
:10467000FFE8B387C50013073003AA84411105453D
:10468000634BF706B1CA054701456396E6061397E3
:10469000150037540020FD151304C48C1395050133
:1046A000139907013A94418113590901930915009F
:1046B000C20993D909010904638E29039C20890446
:1046C000A207231EF4FE03C7F4FFD98F231EF4FEB6
:1046D000EFF09F9B4E85D9BF32C62EC4EFF03FD37B
:1046E000A245B7570020324686059387C78CBE95F2
:1046F000890509E6014541016FB09FE383D7C5FFF6
:104700007D168904A183238FF4FE83D7C5FF42065B
:104710004182A38FF4FEE9BF05458280EFB23FDD01
:104720009389F5FFC20993D909013387C9008D47E1
:1047300063C7E70C935A360013D939003284AA8430
:10474000138A1A0093F9790095CE8547014563963F
:10475000F608375A0020268B338C2A01930CCA8C1A
:10476000631F890713767400D69401CA9420130539
:10477000CA8CCE854A95EFD07FCE1305CA8CEF4008
:10478000206899A8B75B00201385CB8CEF40606A46
:10479000268B938BCB8C3309994033052B01420533
:1047A00041812146CE855E957D1AEFD09FD2050BC3
:1047B000420AA30FABFE135A0A01E3100AFE1D883A
:1047C0002146018E1374F50F3314C4001374F40FD3
:1047D000D6943354C44080A001456FB0DFD4930B0E
:1047E000190083460B00C20B33852C0193DB0B01B0
:1047F0002146CE85EFD09FC6050B5E8995B705454E
:10480000E9BFFD15C205C1813387C500954763CC5B
:10481000E706EFB2DFCD375B00202A84935A3600DB
:1048200093DB35001305CB8CB28493F975001389A3
:104830001A00EF40C073228A130BCB8CB38B8B40D2
:1048400033057A01420541812146CE855A957D196D
:10485000EFD03FC8050A4209A30FAAFE1359090168
:10486000E31009FEA1479D88B38497409377F50F25
:10487000B397970093F7F70F5694B3D797401CA0C0
:1048800001456FB05FCA05458280EFB2DFC81305EE
:104890006003EFF06FFF13058003EFF0EFFE1305E9
:1048A000A0031564EFF04FFE814437C901001304E3
:1048B00004B00545EFE01FDC8547631FF5000547A1
:1048C000A2860D4685450145EFD03FC419EDEFD0D6
:1048D0007FD411CD8544F1BF0145EFD0DFCD11E587
:1048E000130589D8EF302134DDB7E1D4CDB70545C4
:1048F000EF80C022EFD03FD4E9BF01479386C19734
:10490000094895453386E600834806009377F70FFC
:1049100063950803054718A21547114885451DE111
:104920008DCBFD1793F7F70F3386F600834806000B
:104930006393B80289471CA282800507E314B7FC81
:104940009547D9BF850793F7F70FE37FF8FC8147B9
:10495000E1BF9147D1BF7D171377F70F69F38280CD
:104960009387C1972382070023A0070003C7F1980C
:104970005146B70700203307C7029387070901464E
:104980009386C197894505481545BA97D84381470D
:104990001107832807006397B80011EA3386F600F1
:1049A0000CA2054685074107E395A7FE8280B388E0
:1049B000F60023800801FDB7EFB2FFB5F167375568
:1049C0000020938747F81307A003930600080146C9
:1049D00081451305C582EFB01FC96FB01FB6EFB296
:1049E0009FB3EF40005F184123A8E1986FB0FFB478
:1049F00037070020130707098147BD4610236309C5
:104A0000A600850793F7F70F5107E399D7FE85476F
:104A10003E858280EFB29FAE7D153707002013756B
:104A2000F50F114683C6F198930707091384F1988F
:104A3000636DA6067167130747D90A053A951841B1
:104A400002875147B386E602B697A62B8DC493F72B
:104A500004F0C2072167C183930607106385D70856
:104A600063EBF6046388E70693F7F40F89C73E8586
:104A7000EFF01FF808A06FB0BFAB5147B386E60256
:104A8000B697862BE1B75147B386E602B697C6279D
:104A900075BF5147B386E602B697E62745BF514733
:104AA000B386E602B697A62755B75147B386E60206
:104AB000B697862761BF930607306389D70213072D
:104AC0000740E393E7FA9387D198982351DF7D1746
:104AD00098A359BFEFF0DFE809472387E19805471E
:104AE0002388E19651B7A3860198BDBF1389D19859
:104AF000834909001305A0038509EFE07FB4E3D5DE
:104B0000A9F68347090085072300F900B1BF2A8869
:104B10007D1619456365C50CEFB2FF9F2E85F165C3
:104B20000A06938585DA2E9610420286631C0800D9
:104B3000EFE05FB4420541812391A198A38B0196D8
:104B40006FB0BF9FEFE0DFAFC5BF83D5219863177C
:104B5000080093F5F50FEFE0BFACDDB7EFE03FA93C
:104B6000C5B7138771971C23850793F7F70F63F475
:104B7000D7001CA3F1B723000700D9B7938771971B
:104B8000982319E394A36DBF7D1798A355BF83C6DF
:104B900071979387219893952600F1669386C6F5C1
:104BA000AE9692239442B2966364D70096A349BF0F
:104BB0009AA379B783C67197138721989395260096
:104BC000F1669386C6F5AE9612239442B305F6407D
:104BD00063E5D500158E12A3A5B71EA395B78280F5
:104BE000D38707F0FD15994763E7B712EFB2BF927D
:104BF000F167938747DC8A05BE959C414111368455
:104C00008287EFE09FB923A2A1980504A38B819628
:104C100041016FB09F9283A54198EFE0DFB5CDBF12
:104C200003C7719736969387719705071377F70F28
:104C30006359C70098A39823E31C87FC050480A34D
:104C4000C1BF23800700C5BF83C7719705061387BF
:104C5000719799C31386F7FF1376F60F6304C400A8
:104C600010A37DB77D1400A365B783C77197530761
:104C700007F063F5F600FD1793F7F70FF1669386DB
:104C8000C6F68A07B6979C633AE6538507E03EE48A
:104C9000EF10715A2A8637C50100AE861305053E0E
:104CA000EF207166938741989463A2673267D3F7C8
:104CB000D7005387E7A019C39CE399BF98E389BF46
:104CC00003C7719763F5E6007D171377F70FF16659
:104CD0009386C6F60A07369714633EE6538506E0C8
:104CE00036E4EF1051552A8637C50100AE8613050C
:104CF000053EEF205161138741981863B267A266A1
:104D00005376F708D387C6A089C75377D70818E327
:104D100001B71CE3F5BD8280FD15994763E3B71E1B
:104D2000EFB2CFFDF167938707DE8A05BE959C4100
:104D3000AA8482870144138981989149338584002C
:104D400042054181EFE01F93B307890088A3050462
:104D5000E31634FFA38B01966FB08FFD01441389D6
:104D600081989149B3078900338584008C234205DB
:104D700041810504EFE0DF8AE31634FFF1BF03C78A
:104D80007197B9469387719705071377F70F63EF0C
:104D9000E60098A398238D461376B70F6305D600D7
:104DA000AD46E31BD7FA050798A37DB7238007001C
:104DB000D5B783C771971387719791CF9386F7FF04
:104DC00093F6F60F93F5B60F0D466388C5002D4692
:104DD0006385C600B6871CA341B7F917EDBF83C72B
:104DE000719771660947938581981306C6F5636FBD
:104DF000F7008A07B297B8319C43BA971307F00FB0
:104E00006364F700BCB189BFFD57EDBF194763610B
:104E1000F702F11793962700B296B8219C42BA97F1
:104E20001307F00F6364F700BCA13DB7FD57EDBF5A
:104E300029476362F702E1178A07B29798319C43CA
:104E4000BA971307F00F6364F7009CB131B77D5731
:104E5000A384E19811B7138747FF8D473367F702A3
:104E600094210A0732971C431307F00FB697636427
:104E7000F7009CA1D5B57D572384E198F1BD83C788
:104E8000719771660947938581981306C6F5636E1D
:104E9000F7008A07B297B8319C436365F7001D8F0E
:104EA000B8B15DBDA381050045BD19476360F70238
:104EB000F11793962700B296B8219C426365F700DC
:104EC0001D8FB8A151BD2381050079B52947636CB9
:104ED000F700E1178A07B29798319C43E369F7F628
:104EE0001D8F98B195BD138747FF8D473367F70234
:104EF00094210A0732971C43E3EFF6F69D8E94A1A6
:104F0000A1BD8280EFB22FE12E841DE1138541996E
:104F1000EF50004893874199B82394339023B7C545
:104F200001009385C5542285EF20B1506FB0EFE0AA
:104F30007D159D47E3ECA7FEF1679387C7DF0A0560
:104F40003E951C418287A38B0196CDB7138541996D
:104F5000EF508051E1BF03C771979D4693877197CA
:104F600005071377F70F63EDE60098A398238946AA
:104F70006305D7009546E31BD7FA050798A37DB7CD
:104F800023800700E5B783C771971387719781CF97
:104F9000FD1793F7F70F89466389D7009546638617
:104FA000D7001CA361B79D47EDBFFD17DDBF83C7C9
:104FB000719771660547938641991306C6F5636D2F
:104FC000F7008A07B297B8229C43BA971307B00339
:104FD0006365F706BCA299BF1147636EF700F5172A
:104FE0008A07B29798329C43BA971307B003636657
:104FF000F7069CB225BF1387A7FF89473367F702DF
:105000008C220A0732971C435D47AE976364F70012
:105010009CA229BF98A219BF83C7719771660547E3
:10502000938641991306C6F5636EF7008A07B29717
:10503000B8229C436365F7001D8FB8A2C5BD2381CC
:105040000600EDB51147636FF700F5178A07B297B1
:1050500098329C436365F7001D8F98B2C1BDA38051
:105060000600E9B51387A7FF89473367F7028C224B
:105070000A0732971C4363E5F5009D8D8CA27DB530
:105080002380060065B56D1593170501C1831307CD
:1050900050026368F70071651305C5EF3E9508215E
:1050A000828001458280EFB26FC50111AA892E84EA
:1050B000B28481C683C771979CA219C385471CA37C
:1050C0004E853AC2EFF03FFC9387F9FFC207C183D8
:1050D000930690022A8963E5F65EF1668A07938655
:1050E000C6E1B6979C431247828793874199B823BC
:1050F00094339023B7C501009385C5542285EF20D2
:10510000513305616FB0CFC283C7C1981397270091
:10511000F167938707F3BA9781A383C7C1980547BF
:105120006383E70289CB0947638BE702B7C50100B8
:105130009385454529A0B7C501009385C5412285C2
:10514000EF2091337DBF1145EFE0CFD2B7C501000D
:105150002A869385C5422285EF20B12D5DB719457A
:10516000EFE04FD1B7C501002A8693850544E5B726
:105170009384D19890201305A003050632C2EFE076
:105180002FCC1246B7C50100AA869385C547228554
:10519000EF20312A8820B756002093860698138680
:1051A00041999385C198EFE04FE1A1BF95C0A14718
:1051B000638EF402B7C7010037C7010083A7473EDB
:1051C0000327873E89461146A685EFF07FA115BFCC
:1051D000EFE0AFDCEF103106AE86B7C501002A86DE
:1051E000938585482285EF20D12421BF03A54198CE
:1051F000D5B7638C0416A147638CF400814713076D
:10520000703E89462686CA850545EFF05F90D5BD7C
:1052100003D62198B7C50100938505492DBFEFD06E
:105220009FA9D30705F0B7C501009385854953961B
:1052300007C015B791C8A1476380F4020967814789
:105240001307F7708D467DBFEFE08FBF2A86B7C585
:1052500001009385054A01B703D62198CDBFEF1011
:105260004029B7C501002A869385854AEDB5EF1020
:10527000C029C5BFB7C501009385854BC9B51305C6
:105280002004EFE02FBF11C5B7C501009385054C81
:105290007DB5B7C501009385454C55B52808EF206D
:1052A000900A8348D1010348C1018347B1010347F4
:1052B000A1018346910103468101B7C50100938591
:1052C000854C2285EF20F1162DBDEF102021894756
:1052D000630AF500B7C501009385C53F2285EF201D
:1052E000511505B5B7C501009385C53EC5BF81C839
:1052F000A1476389F404A685EFF01FA219B5EFE07A
:105300006FB72AC61305190042054181EFE08FB639
:105310002AC41305290042054181EFE0AFB52AC236
:105320001305390042054181EFE0CFB41247A24690
:105330003246AA87B7C501009385854D2285EF20A7
:10534000510FC1B3138681983C3238221432102297
:10535000D5B799C8A147E38DF4EA81471307703E9A
:105360008D462686E1454DB56145EFE06FAD2A8655
:1053700055B52545EFD03F94D30705F0B7C50100DB
:105380009385C54E539617C042064182E9B3A28564
:105390002685EFF03FB7B5B39DE0375500201305E4
:1053A0000598EF506002B757002093870798B7C55C
:1053B00001009837D44390279385C54081B3FD14ED
:1053C0009D47E3E097D4F167938747EC8A04BE9446
:1053D0009C408287A38B01962DB33755002013057F
:1053E0000598EF50E00C31BB03C771979D4693873A
:1053F000719705071377F70F63EDE60098A39823DD
:1054000089466305D7009546E31DD7CE050798A3C7
:10541000CDB923800700E5B783C7719713877197CC
:1054200091CBFD1793F7F70F89466387D700954611
:105430006384D7001CA3F1B1FD17EDBF83C771973B
:10544000B756002071660547938606981306C6F581
:10545000636DF7008A07B29798369C43BA97130793
:1054600030066366F7069CB669B91147636DF700AD
:10547000F5178A07B297D8429C43BA9731476367BA
:10548000F706DCC2BDB91387A7FF89473367F70268
:105490008C260A0732971C437D47AE976364F7005A
:1054A0009CA685B198A6B1B983C77197B75600205D
:1054B00071668545938606981306C6F563EDF5007B
:1054C0008A07B29798369C4363F5E7001D8F98B61C
:1054D0000DB98CB63DB11147636EF700F5178A0719
:1054E000B297D8429C4363F5E7001D8FD8C211B92B
:1054F000CCC201B91387A7FF89473367F702882613
:105500000A0732971C4363F5A7001D8D88A6D5BEF8
:105510008CA6C5BE8DC4A147E38CF4CEB14763937E
:10552000F9021545EFE00F957D151317050141832D
:105530009307400689462686CA850145F9B1EFE002
:105540006F9335B5B5476393F9021D45EFE08F9230
:105550007D1513170501418311453AC2EFE08F9184
:10556000050593170501C1831247E9B7BD4763934A
:10557000F9021545EFE00F90050593170501C1836A
:1055800019453EC2EFE00F8F7D15131705014183CA
:1055900092474DB71D45EFE0EF8D050593170501C7
:1055A000C1831307F00F79B71305A003EFE04F890C
:1055B0002A86B7C501009385454F71BE8D47638B21
:1055C000F40263E6970099CC238701981DBE9947A2
:1055D0006382F402A147E399F4FEB7B50100938515
:1055E000456AB1BE83C70197EDDBB7C5010093855E
:1055F000C54FB1B681451305C003EFD05FFF8145AC
:105600001305A003EFD0BFFE2387019823880196DE
:10561000CDBC81C8A1476389F400854713074006C4
:1056200011BFEFE02F8569B703D6219859B7230042
:10563000070081CCA1476393F40283D72198139785
:105640002700F167938747F2F9B4EFE0AF82F16783
:105650000A05938747F2AA978C43D5B4938799FF9D
:10566000B337F00009478146F9B5EF00D0102AC2E0
:10567000EF00900F1246B7C50100AA8693854552E8
:105680002285EF20015BB5BC2300070091C8A1472C
:105690006380F4028147194781462686DD4571BD46
:1056A0005D45EFD03FFDF1670A05938707F465B7C5
:1056B00083D7219813972700F167938707F4A1BC3C
:1056C000E30104A4B7C50100938585548DBC8147CF
:1056D0001387C19789451546B306F70088226311E1
:1056E000B504EFA25FE30D4798A283C6F198514637
:1056F00037070020B386C6021307070992070D4635
:105700008145369758438146BA97CA270147239C5B
:10571000A196EFF05F9905472388E1966FA0FFE11E
:105720008507E39BC7FA05472388E1968280814776
:105730001387C1978D451546B306F70003C80600C9
:10574000631FB802EFA23FDD094798A283C6F19814
:10575000D14537070020B386B60213070709920721
:105760002A868145369758438146BA97CA2701470A
:10577000EFF07F9309472387E1986FA01FDC85072F
:10578000E39CC7FA09472387E1988280EFA2BFD53F
:105790009389019903A509005D71B7040020EF60AA
:1057A000B0191384F1989384040929C103A5090051
:1057B00013894197014693854197EF609001854792
:1057C0006316F50203471900930700086310F702F8
:1057D0009387E198942309476388E6068D47638C95
:1057E000F60E89E603450900EFF0CFA21C205147D1
:1057F000B387E7021389C197854A130B0008BE944B
:10580000C040B75400201385C482EFA07FEE930BF5
:1058100004055C4063805713638607100947638B58
:10582000E7141C2089E741040509E3948BFE1387E4
:1058300061971C23A946850793F7F70F63ECF624BD
:105840001CA361616FA0FFCD034709000D466300F3
:10585000C7066369E600E31BD7F883C70197ADC7A6
:10586000014589A891466308D7029546E310D7F809
:1058700013870197142381C62300070085BF1820D2
:1058800023800700D147B307F702A697A82BEFF0B4
:105890002F9608A0A1BF13870197142389E608A3B8
:1058A000EFF00F8CA1B790A3EFF07FE281B783C731
:1058B000019781C7EFF06F8415BF1C205147B38754
:1058C000E702A697C827E1B71C205147B387E70234
:1058D000A697E8276DBF834709001547E368F7F0EF
:1058E00071678A07130747EEBA979C43828715456D
:1058F000EFF0FFE3E5BD1945E5BF014781460946E5
:1059000003D581978145EFF00FFACDB50147814668
:105910000546FDB7014781461D46DDB70147814673
:105920001146F9BF144430200C301385C482EFB007
:10593000AFBAC5BD8349240014440C304E8613858C
:10594000C482EFB06FB94A249306A1010146130740
:10595000B1016C08EFF02FF56C081385C482EFB02D
:10596000EFC09375F50FB305BB40C20574084E86B2
:10597000C18165BF034A240014440C30528613854C
:10598000C482EFB06FB5034709008D474A24214612
:105990006303F70001461307B1019306A1016C08E8
:1059A000EFF06FF06C081385C482EFB02FBC83C793
:1059B000E1989379F50FD5C70347090063F3EA0A25
:1059C00093970901C183B30DFB40C20D894693DD56
:1059D0000D016311D70403C7019741C783C66197BF
:1059E00015476360D70813066AFF4206BE862D4737
:1059F0004182EE851385C4823EC6EFA09FCB8145D0
:105A00001385C482EFB0CFC785451385C482EFB03C
:105A1000CF9DB247834609000D476394E6040347D0
:105A2000B10113066AFF420641826311570783459D
:105A3000A101E9572D478505B385F5029946938560
:105A40000508C205C1811385C482EFA09FC68945A0
:105A50001385C482EFB0CFC285451385C482EFB0F1
:105A6000CF98B3053B41C20574085286C1811385A6
:105A7000C482EFB06FA61385C4828545EFB04FC0D6
:105A800081451385C482EFB04F9661BB2D47BE861A
:105A9000EE8555BF230007006DB3EFA23FA67C45FE
:105AA000032A0507832A450703A9070083A947009E
:105AB0003C45232C2505232E35059843DC432A84B9
:105AC00038D17CD15286D6864A85CE85EFF0306BB0
:105AD0006357A000232C4405232E540529A8032A2C
