:100000006F50306213000000130000001300000066
:100010001300000013000000130000001300000094
:100020001300000013000000130000001300000084
:08003000130000007300100032
:100038000000000000000000BA330000BE330000DA
:1000480000000000685D00000000000000000000E3
:100058006A5D00006C5D0000000000000000000008
:1000680060A900000000000000020000000000007D
:10007800725D0000745D0000765D0000F29600007D
:100088007A5D00007C5D00007E5D0000805D000000
:10009800825D0000845D0000865D0000368A0000F5
:1000A800048B00008C5D0000D28B0000A08C000047
:1000B800925D0000945D000068860000985D000075
:1000C8009A5D00009C5D00009E5D000044340000C5
:1000D800A25D0000A45D0000A65D0000A85D000010
:1000E800A4350000AC5D0000A49D00004A92000009
:1000F80018930000E6930000B4940000D299000021
:10010800CA9A00007EA400004CA500001AA60000B0
:10011800C25D0000C45D0000C65D0000C85D00004F
:10012800729E0000CC5D0000CE5D0000D05D000036
:10013800D25D0000D45D0000409F0000CA9B000013
:10014800E8A60000DC5D0000DE5D0000E05D000068
:10015800E25D0000E45D0000E65D0000E85D00008F
:10016800EA5D000018350000EE5D0000F05D00005B
:10017800F25D0000F45D0000F65D0000F85D00002F
:10018800FA5D0000FC5D0000FE5D0000005E0000FE
:10019800025E0000045E0000065E0000085E0000CB
:1001A8000A5E00000C5E00000E5E0000105E00009B
:1001B800125E0000145E0000165E0000185E00006B
:1001C8001A5E00001C5E00001E5E0000205E00003B
:1001D8000000000000000000000000000000000017
:1001E8000000000000000000000000000000000007
:0801F8000000000000000000FF
:10020000130181F806C216C41AC61EC822CA26CC1B
:100210002ACE2ED032D236D43AD63ED842DA46DC76
:100220004ADECEC0D2C2D6C4DAC6DEC8E2CAE6CC46
:10023000EACEEED0F2D2F6D4FAD6FED8F3220030CF
:1002400096DA83A281A323A02200F32510342EC0C6
:100250009305000273A0458003A14189EFB0504689
:1002600003A381A303210300824273901234D65268
:10027000739002309240A2423243C2435244E2445D
:10028000724582551256A2563257C2575258E258FA
:1002900072598649164AA64A364BC64B564CE64C0E
:1002A000764D865D165EA65E365FC65F13018107DA
:1002B0007300203013000000130000001300000042
:1002C00013000000130000001300000013000000E2
:1002D00013000000130000001300000013000000D2
:1002E00013000000130000001300000013000000C2
:1002F00013000000130000001300000013000000B2
:1003000083A24189938202E07390023403A181A306
:10031000024182403243C2435244E2447245825514
:100320001256A2563257C2575258E258725986494D
:10033000164AA64A364BC64B564CE64C764D865D61
:10034000165EA65E365FC65FD652A102739002307B
:10035000A2421301810782801300000013000000F5
:100360001300000013000000130000001300000041
:100370001300000013000000130000001300000031
:100380001300000013000000130000001300000021
:100390001300000013000000130000001300000011
:1003A0001300000013000000130000001300000001
:1003B00013000000130000001300000013000000F1
:1003C00013000000130000001300000013000000E1
:1003D00013000000130000001300000013000000D1
:1003E00013000000130000001300000013000000C1
:1003F00013000000130000001300000013000000B1
:10040000F322003093F272FF130380781203B3E2F9
:100410006200711523205500130585FA10C12115BE
:10042000232005009302000063870200711523203A
:100430000500FD12D5BF71150CC1828000000000BF
:1004400000000000000000000000000000000000AC
:10045000000000000000000000000000000000009C
:10046000000000000000000000000000000000008C
:10047000000000000000000000000000000000007C
:10048000000000000000000000000000000000006C
:10049000000000000000000000000000000000005C
:1004A000000000000000000000000000000000004C
:1004B000000000000000000000000000000000003C
:1004C000000000000000000000000000000000002C
:1004D000000000000000000000000000000000001C
:1004E000000000000000397101436EC619A0397187
:1004F00041536AC866CA62CC5ECE19A039710153F5
:100500005AD056D252D44ED64AD826DA22DC06DE4B
:1005100033016140828241114AC026C222C406C60C
:100520008282B24D4101024D924C224CB24B4101AC
:10053000024B924A224AB249410102499244224462
:10054000B240410182803D432A876373C30293779F
:10055000F700BDEFADE5937606FF3D8ABA960CC372
:100560004CC30CC74CC74107E36BD7FE11E2828036
:10057000B306C3408A069702000096966780A600DD
:100580002307B700A306B7002306B700A305B700EB
:100590002305B700A304B7002304B700A303B700E3
:1005A0002303B700A302B7002302B700A301B700DB
:1005B0002301B700A300B7002300B700828093F5A2
:1005C000F50F93968500D58D93960501D58D61B76E
:1005D000939627009702000096968682E78086FA17
:1005E0009680C1171D8F3E96E374C3F8A5B7EFF24E
:1005F0001FF0AE96939906013A8B1307160093D914
:10060000090142074183CE86AA842E84B28A034A16
:100610002509EF00D00901C90549933B1A006395EC
:1006200089002389440901B783470B00B377F90098
:100630008DC723894409014785465686A2852685AC
:10064000EF0040750504060942041379F90F418053
:10065000E31709FC050B0549D9B783C71409FDF356
:1006600023897409C9BFEFF27FE932971319070193
:10067000B689AE9613590901C2064A87C1822A8BF0
:10068000AE8A32843E8AEF00900201C993847900D9
:10069000C204C1808D806313890059BD2286050480
:1006A0005287CE86D6855A8542049137269A418054
:1006B000DDB7EFF2BFE4329793140701B689AE9627
:1006C000C180C2062687C1822A8A2E893284EF0021
:1006D000007E01EDB1BD228605040147CE86CA85A4
:1006E00052854204EF00006B4180E39684FEDDB743
:1006F000EFF27FE21C418145902B834785034859E7
:100700003306F6020E0681350DBDA1471CA11385E7
:1007100001B38280EFF23FE03687AE84B286B71530
:100720000000371600004111130686229385C52F5D
:100730002A84EF00D05C1305F100C13F9087B71603
:100740000000AA852687938686ED2285EF00101388
:100750004101E5B3AA959C218831A2073E95420547
:100760004181828001458280EFF2FFDA9C21AE84D4
:100770002A841CA19C311CB1BC213CA1BC313CB1E0
:10078000DC215CA1DC315CB1FC217CA1FC317CB1C1
:100790009C251CA59C351CB5BC253CA5BC353CB591
:1007A000DC255CA5DC355CB5FC257CA5FC357CB581
:1007B0009C29C5451CA92685713F2AA8CD452685BB
:1007C000513F4AA8D545268571376AA8BDB3104167
:1007D0000348C5001C223307B8001377F70FB3D6C0
:1007E00007419D4763ECE70093F7F60F58A57D5549
:1007F0003315B5001345F5FF7D8D828093071600F4
:100800001CC11C32214633060641B397C700D58F61
:10081000611793F7F70F1377F70FC9BFEFF2BFCF49
:100820002CD183458507930405062A8423060506F3
:100830002685713F834594072305A4062685413FFD
:1008400083472409A305A4062307F40693B71700DA
:10085000A307F406DDB1EFF21FCC2E848D3F7D148B
:100860008547B39787001D8D62056185F9B185477E
:10087000638CF60091C68947638AF6000D8D11A03E
:1008800032954205418182802E95E5BF118DD5BFFD
:100890008547638CF60091C68947638AF6003295D6
:1008A00011A02E95420541818280118DE5BF0D8DED
:1008B000D5BFEFF25FC38344850603499506411116
:1008C0002A84AE89328B834BA40693FAF90F338ABC
:1008D0009B40137AFA0F63743A01937AFA0F034735
:1008E0000407939C8401131C89010355440693DC7F
:1008F0008C41135C8C41BA866286E6853AC6493FD4
:100900003247835D64066286BA862A8DE6856E85E7
:10091000B93F2A86324763080B028347E40623095E
:10092000F408D686EA852285B521CE9493F4F40F97
:1009300063E14903B3847441050993F9F40F137912
:10094000F90F814449B78347D406E5F38347F4069A
:10095000F9B723049406A30484074101D9B6EFF242
:100960001FB92A84130A0506553D8345A4075285FD
:100970008309B406CD358345B4072A8C5285E13D01
:100980008345C4072A8B5285F9358304A406AA8AB5
:10099000635D90084E9B834B0407330B6041035506
:1009A0004406620B135B8B41DE865A86E285CD35A9
:1009B0002312A4062A89035564065A86DE86E28538
:1009C0007D352313A40685472A86638CFB06638046
:1009D0000B0689476387FB088D47638BFB0A2A87D1
:1009E000CA86CA852285E12129C1231404068345CC
:1009F00064075285E93B834574072A895285C13BC8
:100A0000AA840146CA8522856D35A68522850546BC
:100A10004D3585455285653B6DF583079406E3C8E2
:100A200037FD8347E4062309F4085685EDBCCA94D4
:100A300093960401B304350113970401C1824183E5
:100A40004DB7B3073941AA940509931609011397C5
:100A500004018507C18241831399070113590901D4
:100A600049B70547B3049740B307990033073741A7
:100A70009304190093960401B305E500930415004F
:100A80001397040113960501C18241834182E9B79E
:100A9000B304954013061500B306390185041317F6
:100AA0000601C20613960401C1824183418215BF2B
:100AB0003C4D1307F00FDD076368B702130700060C
:100AC000637DB70003578508BA97983335C39423DD
:100AD000E39CB6FE13852700828013070004E376AB
:100AE000B7FE03576508CDB7EFF2FFA20354A50880
:100AF000AE843E94228981454A85A9392A94894544
:100B00004A8589391109E36895FE1C301820A2072F
:100B1000D98F13978700A183D98FC207C18399CB3F
:100B20006395F4001305340009BC3C203E94F1BFEA
:100B3000014582800145CDBFEFF2FF9D2A848D3FA4
:100B40000DC5AA852285D9398345A40793040406D7
:100B5000268511338345B4072308A4082685E53983
:100B60008345C4072685C539C9BA0145F5BFEFF2EB
:100B70001F9823050506AA84AE8AF12BC1671309C5
:100B800000FC014A0144138BF7FF9389E7FF930BA5
:100B900000FC83C50A00DC4026858297AA85630392
:100BA0006503850AE30735FF26857937131A0501A2
:100BB000135A0A0163147901038904095294420407
:100BC0004180C1BF8387A40691CF03870409BA97E8
:100BD0003E943304444142044180635520014A94C9
:100BE0004204418022856FF01F94A306B5068280DF
:100BF000EFF2DF908347050705472A842E89B284E8
:100C0000B689638FE7029DC709476383E7040D47F1
:100C10006384E704CE8523122407231394062285D8
:100C2000413DAA85014589C52285153B4205418183
:100C30006FF01F907C4D8297AA94C204C180D9BFE7
:100C40007C4D82973309A940420913590901D9B74C
:100C50007C4D8297898CD5B77C4D82972A99EDB7C8
:100C6000EFF2FF884169AA8C2E84B284B689130AF8
:100C7000F9FFD521014C7919854A094B8D4B83A782
:100C80004C0083C5090066858297AA8663034505E3
:100C90008509E30625FF2686A2856685913F83C7E1
:100CA0000C076380570391CB6381670363817703EC
:100CB0002A9C420C135C0C01D9B72A94420441804F
:100CC000C5BFAA94C204C180E5B7098CC5BF898C91
:100CD000D5BF62856FF03F85EFF2FF83B717000045
:100CE0009387C70B5CC1AD3F6FF03F853C4DA9CBEF
:100CF00003061508830625088347D5082307C5087A
:100D0000A307D50895CF0547639FE70083073508FC
:100D10006354F6002307F5088307450863D2D7021A
:100D2000A307F50882808307E50703070508BA973C
:100D30006354F6002307F5086354D700A307E508BA
:100D40008280B7070000938747767CCD8280384D3C
:100D5000630DB700EFF22FFC2A842CCC1305450756
:100D60002134228561376FF04FFD8280EFF2AFFAB8
:100D7000B71700009387C70B5CC1D53B6FF0EFFB43
:100D8000EFF26FF97E3D1D8E5C55420641828297DF
:100D90006FF0AFFA8347C508C1CBD9C6854763F961
:100DA000D70089476317F7068505958DC205C18170
:100DB000058B25EF8357C5046368F6068357E50462
:100DC0006374F606AE96C206C18283578504035843
:100DD000A50463F9B60463F605059306F8FFC20699
:100DE000C18263F3D704BE8863F3B700AE889395DE
:100DF0000801C181C28763F30601B687B386B74095
:100E0000C206C182EFF22FF11C599C4782976FF006
:100E1000CFF28D47E31EF7F80506158E4206418294
:100E200041BFBE85E3EF05FB828083578504E3ED78
:100E3000F5FE8357A504E3F9F5FEB296C206C1821A
:100E40008357C5040358E50463F9C60263760603B5
:100E50009306F8FFC206C182E3F8D7FCBE8863F3AD
:100E6000C700B288139608014182C28763F3060166
:100E7000B687B386C74069B73E86E36F06FD6DB798
:100E8000894763E5B7002309B508828085472309B0
:100E9000F50882806379B60085476364D500B3B7EF
:100EA000C6003E858280E36CD5FE8147DDBFEFF250
:100EB0008FE62A84AE848355E5040355C50436893C
:100EC000BA86C93F01C98355A40403558404CA8660
:100ED0002686C9376FF06FE60343250993787600BD
:100EE0008547339817011378F80F014E63E56700C3
:100EF000428E6309F30403230500619A5C5903439E
:100F000003013306660242064182B295BE950DCFBB
:100F100005479C218508FD16B367FE00B347F8001E
:100F2000C2069CA193F87800C18263900804323D08
:100F300083472509B2956365F700054E638EE70286
:100F400005481DA8014845BFAE96C206C1829C2136
:100F50008505B367FE00B347F800A38FF5FE9397AE
:100F60000501C183E395D7FE828093171E00060812
:100F700013FEF70F1378F80FC9FE828083458503AF
:100F80001441834895031397050141839317370054
:100F90005EBD9C2A13980801135808018E073EBDB8
:100FA000931738007EBD903AC6956356B600330756
:100FB0000641420741830E072310F504BA97231117
:100FC000F504DE2A2312F504FE2A2313F504828099
:100FD000EFF26FD465376FF04FD6EFF2CFD34D33CA
:100FE0006FF0AFD5EFF22FD3035765058356250574
:100FF00003564505835505052A84553D09E5230615
:1010000004086FF08FD385472306F4080357840440
:10101000835704056374F7002314F40483572405ED
:101020000357A40463F4E7002315F404835744052D
:101030000357C4046374F7002316F404835764054C
:101040000357E404E3FFE7FA2317F4045DBFEFF26C
:101050008FCC03574504231405042315E5043841B8
:1010600078C549376FF06FCDEFF2EFCA1C59417761
:1010700038C9DC4378C982976FF02FCCEFF2AFC943
:1010800093071010230CC502A30C0502A306050646
:10109000A3060508A30805082319F5081C4354D521
:1010A0004CD918D9232C05042A84829722856D3FB8
:1010B00022854139230804066FF02FC8D1C9A947FA
:1010C0006388F508034765022DE79307B00F63FABD
:1010D000B70095472303F50285890EB1C165F9155F
:1010E000B9A09307700F63F7B70091472303F50288
:1010F0008D89E5B79307F00E63F7B7008D4723039B
:10110000F5029D89D9BF9307F00D63F7B7008947B2
:101110002303F502BD89D1B79307F00B63F7B7003E
:1011200085472303F502FD894DBFC205C1812E8588
:1011300082801E3193F5F5037D179A07DD8DC20578
:101140001377F70FC1812303E5020EB16DD379B791
:10115000C165FD15E9BF230305028280EFF2AFBB35
:101160001C492E8681469305000282976FF0EFBCE2
:10117000EFF26FBA1C49B2862E86DD4582976FF07A
:10118000CFBBEFF24FB94111CC871306F100854573
:10119000C53741016FF06FBAEFF2EFB75C452E86AD
:1011A0008146D54582976FF04FB9EFF2CFB65C45D7
:1011B000B2862E86DD4582976FF02FB8EFF20FB41E
:1011C0004111AA842E845D49E549130AE00FD54AEE
:1011D0000C20638C25036367B90063F0550341015C
:1011E0006FF00FB563FBB902E39B45FF1030930529
:1011F00090022685D087E92439A01030DC4481464E
:10120000D087268582970904E1B71C301306F100C8
:1012100085452685DC87513FFDB7DC448146014684
:101220002685050482976DB79387C5FE93F7F70F60
:1012300015476362F704EFF20FAE6D678A07130775
:10124000C798BA979C4341113289AE842A84828719
:1012500081452937CA8522852D37054541016FF023
:10126000CFAD854536C6DD3DB2461C484A86A685CB
:1012700022858297E5B701458280EFF22FA82E8460
:10128000CC212A89B2898E0593F5F50393E50504EF
:10129000213783C569004A8593E5850BF53D7C20A0
:1012A000A1CF542058309387860093F7870F958FEE
:1012B00093F7F70F9375F70F63F4E70093F5F70FC4
:1012C000AE960D8F10408E0593F4F50FA68554A0B1
:1012D00058B04A85D93D0C405C30AE9404C091EBC7
:1012E00083A709001CC083C749005CB07C20FD17A0
:1012F0007CA05C209D8BC5F76FF08FA3EFF2AFA1B0
:10130000A94741112A84638CF50863EAB700A54711
:101310006381F5088144268541016FF00FA2AD4736
:101320006381F50CBD47E397F5FE9C423689D432C4
:101330003EC483574900508713978700A183D98FF4
:101340007C869D4763E1D7025C4581460546E145C1
:1013500082974A862C0022850D375C4481460146DF
:10136000E545228582971886BD478544E3E5E7FA7F
:101370005C4481460946E145228582974A862C00D5
:101380002285E53D5C4481460146E54522858297FC
:1013900059B7ED659385459A65208544ADBF7520A5
:1013A0005C4481460546E145228582979385818686
:1013B000228529355C4481460146E5452285829790
:1013C0005C44E14581460946228582979385818662
:1013D0002285ED335C4481460146E54522858297AE
:1013E0006DBF5C4581461DE60546E14582979385C4
:1013F000C1862285E1335C4481460146E54522856C
:1014000082975C44E145814609462285829793850F
:10141000C1867DBF0546E145829793850187228578
:10142000713B5C4481460146E545228582975C44D8
:10143000E14581460946228582979385018749BF08
:101440000CC1BC292301F5028280EFF2CF8C5C49EC
:1014500081460146930580022A8482975C44814636
:101460000146D14522858297228505469305B00421
:1014700081281C40228593059002D023912022854B
:1014800001469305B0042D281C4022859305900247
:10149000D0233D20228505469305B00415201C402D
:1014A000930590022285D03321286FF00F89EFF247
:1014B0008F861C4581460146A54582976FF0EF87D0
:1014C000EFF26F855C49814682976FF00F87014587
:1014D0008280B71700009387E74C1CC55CC51CC908
:1014E0005CC9FD5723200500A30105022303050263
:1014F000232C05002302F5022304F5028280EFF27B
:101500008F8141112A842EC632C436C23AC0D137E7
:10151000B2452246924602470CC450C414C858C86B
:101520002285713741016FF04F8137050020130587
:101530000551828005458280EFE2FFFD854741111C
:101540002A8663F5A7008D4763E6A702B707002048
:1015500083A5075137B500007400130585D102C675
:10156000EFB0207F01C9B24791C7B7E700E011672C
:1015700023A0E720054541016FE03FFCEFE2BFF902
:10158000B70700202A8403A507517D5781460546E9
:101590008D45EF9040568547630FF50011C9894787
:1015A000630BF5008D476308F50005456FE0FFF814
:1015B00023200400DDBF08C0CDBFEFE2DFF5B70791
:1015C000002083A50752411137B50000740005467D
:1015D000130585D102C6EFB0C07701C9B24791C7E4
:1015E000B7E700E0116723A0E72041016FE0FFF4B7
:1015F000EFE27FF2B705002003C7D551B7070020FF
:101600009385D551238EE750B707002003A5475196
:10161000EF80705A83A7819182976FE01FF23705A0
:1016200000201305055282803705002013058551DF
:101630008280EFE25FEE85476382F6048947638329
:10164000F604014781463704002013044451014643
:1016500008C0EF80B047084037160000B7150000FB
:101660000D4785461306A65B9385055FEF80904E78
:101670000840EF80B04C05456FE03FEC05679306EE
:101680000060D1B705679306004075BFEFE2BFE881
:1016900037040020AE841304445115C90840B7052F
:1016A00000209385D551EF801051371501409305E7
:1016B0000020130505C0EF70007FB707002003A5C9
:1016C000075295C08545EF90A0586FE01FE737158A
:1016D000014093050020130505C0EF70C07B084052
:1016E000EF80304FD9BF0147814605468545EF90D1
:1016F0008040E1BFEFE23FE22A84371501409305C5
:101700000020130505C0EF700079B707002003A57E
:1017100047519375F40FEF80704805456FE0FFE186
:10172000B707002083C7C7511CA105458280EFE29F
:101730009FDEB704002003A504527D57814605466D
:101740008545EF90403B8547E317F5FE83A7C191A0
:101750008297D5B7EFE23FDC08218545EFC070588E
:101760007D572386E1806FE05FDDEFE2DFDA411134
:101770008545054502C202C423160100EF50C0187A
:1017800083A7018237470F0013070724B3D7E70267
:101790004C0037050040231501007C84896793873E
:1017A000F7703EC2EF50603305468545370500406F
:1017B000EF500065854537050040EF50E0628545F4
:1017C00037050040EF50606CB7E700E0056723A2E3
:1017D000E71041016FE07FD6EFE27FD14111B709F9
:1017E000002061370144138C4180938B0945138B92
:1017F0008180914A93140401C1801385B40042058D
:101800004181EF109079B3078C0088A31385F40011
:1018100042054181EF107078B3878B0088A3138550
:10182000340142054181EF105077B3078B0088A344
:101830000504E31154FDB7060020938686521386F3
:1018400081809385094513854180EF60804F9567BE
:10185000938707E23EC29167938787A93EC44800F9
:10186000A5473EC6EFC0E019C9311841B7070020AF
:1018700023ACE75241016FE01FCBEFE23FC80111FB
:10188000C88793F745002E84A9C79379F50F1307EE
:10189000C0033387E902B7F70020938787D6BA974A
:1018A000D44798473697D44B9C4F3386F6006374E1
:1018B000C700B307D740B7040020938444538E2059
:1018C0003ECE13076010AE976371F7061305F10063
:1018D0005135937784009DCB9384C18098209307E2
:1018E000F00F6315F70288878545EFC0902488873D
:1018F0000566130686B6B305C502B71700209387A1
:1019000007B8BE95EFC0E04B9C879CA0937704017D
:1019100081C77D572386E1801374040401C47D5779
:101920002386E18005616FE0BFC0372900201309DD
:1019300009257008CA954E85EFC0C04D9E2072479C
:101940003E97420741839AA09947E3F4E7F883560C
:10195000490093978600A182D58FC207C1839386E1
:101960005700E3D8E6F69907E312F7F60545EFF0DE
:10197000BFBCB704002003A584537D5785460546A8
:101980008545EF90401737060020B7250020130645
:101990004652938585354E85EFC0007D93848453F0
:1019A00001C51305F1007D3388408945EF90402A39
:1019B0000DB7EFE25FB6EFC05013937715002A849E
:1019C00099C737B501001305C59BEF506153937755
:1019D000240099C737B501001305059DEF5041520A
:1019E0009377440099CBEFC03014118919C537B5EE
:1019F00001001305859EEF50A150418819CC014587
:101A0000EFC0F00FAA8519C10145853D0545EFC01E
:101A1000100FAA8519C105458D356FE01FB2EFE2A1
:101A20009FAF39711304601F11C12A841306C003CC
:101A300081454800EFE03FB18D4722D64C0013842A
:101A4000D1801385D1803ED0EFC0E015814719E9E0
:101A50000820EFC05013854711C508208945EFC005
:101A6000502881473E8521616FE03FADEFE2BFAA7C
:101A70001385D180C5316FE05FACB7270020938715
:101A800007251CC1B7070020938747539A230545B4
:101A9000239007009AA18280EFE2FFA7B7270020DA
:101AA0002E862E84AA851385873593848735EF404B
:101AB000C157B707002023A2875237040020130420
:101AC00084530840B7070020854523A89752EF901C
:101AD000201808407D57854605468945EF90A001AE
:101AE00005456FE09FA5EFE21FA383A701928297B0
:101AF0006FE0BFA4EFE23FA2B726000095652A86FB
:101B000095470547938666AE938575C90D45EF8069
:101B1000005B05456FE07FA2EFE2FF9F0D45EF8080
:101B200040256FE09FA1EFE21F9F0D45EF80204E03
:101B30006FE0BFA0EFE23F9EDD3501E50D456FE0B0
:101B4000DF9F0145EDBF8280EFE2FF9C05376FE02C
:101B5000DF9EEFE25F9C01112A84AE846808930542
:101B6000A10132C6193F15C9724715453C333423CC
:101B7000A207D58F93968700A183D58FC207C18313
:101B800091EBBC8532461D0798C0E5171EA2FD5794
:101B90001CA0014505616FE05F9A1545E5BFEFE2C6
:101BA0009F979307160013D787401D06238FF5FED6
:101BB0002E85A38EE5FE93150601C1816515E93DCD
:101BC000954711C181473E856FE03F97AA95C205B1
:101BD0006D666D681307F00F9306F00FC181130651
:101BE000C69F1308C8AF93170501C1836396F5001C
:101BF00013958600598D828005058347F5FFB98FBF
:101C00003307F6001823C297358F9423E9BFEFE21C
:101C10009F9032842E852146A285EFF09FA18547B3
:101C20006316F5029567938707B01305300263E8E2
:101C3000870037151602130505EC3355850242055A
:101C400041814D3D054781476303E5008D473E8552
:101C50006FE0BF8EEFE23F8CB7070020814505455E
:101C600023AE0752EFF09FA2453D6FE01F8DEFE2DC
:101C70009F8A81450145EFF07FA175356FE0FF8BAD
:101C8000EFE2DF8737040020130484541E2013077B
:101C9000F00F41116371F702B7B601006D6637B5F9
:101CA00001009386C6C41306C6BF9305D009130569
:101CB00045C7EF40A12E1E200D476366F70015456E
:101CC00041016FE0FF862E890E20AA89372500206A
:101CD000930405461305054632C6CD3D6DF19C20A3
:101CE000324685042380F9001E20F5171EA223200A
:101CF0009900F9B7EFE23F82B707002083A4C753EA
:101D00008547639FF406370400201304A45406A0FB
:101D1000AA87A38FF5FE1E201385F5FF3707002045
:101D20003E964206418212A00E202322A754793DFE
:101D30001A209376F50F21814207418393071700FC
:101D4000C207C1831EA0B7270020938707463E978E
:101D500014A31A201375F50F854542074183930696
:101D60001700C206C18216A0BA9788A3B707002041
:101D7000014523A09754EFF07F9101456FE0EFFB01
:101D80001545EDBFEFE22FF9B707002083A70754F1
:101D9000411185C3B7B601006D6637B50100938662
:101DA000C6C81306C6C09305600E130545C7EF40AD
:101DB000E11E1305F100EFF0BF96B70700209387EF
:101DC000C75398438546630FD70019C789466304F4
:101DD000D7048D476314F700EFF01FD4014541018C
:101DE0006FE0AFF5B7060020938686542390060077
:101DF0009A221316070141821307160042074183F6
:101E00009AA294873727002013070746329714A316
:101E1000094798C3D1B73707002013078754162303
:101E20001306F00F6363D6021E2393960701C18247
:101E300093871600C207C1831EA39887B727002087
:101E400093870746B69798A341BF0D47D9B7EFE2EE
:101E50008FECB707002083A7C75305476381E702CC
:101E6000B7B601006D6637B501009386C6D013067C
:101E700006C293053012130545C7EF402112B7047F
:101E8000002093840454984019C7630BF700014461
:101E900022856FE08FEA81450545EFF02FFFC5BF32
:101EA000370400201304A4541E20C207C18385C731
:101EB000B7040020938444549C40882362056185C4
:101EC000EFF05F839C4085079CC01E20FD17C20772
:101ED000C1831EA06DBF0D45EFF00FE62A8481453A
:101EE0000545EFF0AFFA23A004005DB7EFE2AFE2E3
:101EF000B70700201387C7531443094641111384C1
:101F0000C753638FC6028D476388F604014595CA9F
:101F10001443B9C214436381C604184301456304E2
:101F2000F702B7B601006D6637B50100938686CA21
:101F3000130646C39305D015130545C7EF400106A8
:101F40000545EFF06FDF2AC6EFF0FFBD324585474C
:101F50001CC041016FE06FDE0145F5B796211547C2
:101F60006398E608582130319306E07C2207518FB0
:101F7000131687002183598E420641821307F6FF0C
:101F800042074183AA870D4563E6E606EFE2AFD834
:101F9000B8239433239005002207558F854694A3D8
:101FA00096219354360093F4F40F850696A1937608
:101FB000760081C6850493F4F40F84B396212E84B1
:101FC00013852700850696A19315870021834D8FE1
:101FD00093051700C2058146C181EF20C02A01C5C3
:101FE000192B6FE08FD51E200145BE9406A0D5BFEA
:101FF0000D45828082809A2195476311F70658210A
:102000008D4731EF38311306D00F9306F7FF93F663
:10201000F60F6376D604EFE20FD03C210C3141116C
:10202000A207CD8F93958700A183CD8F938517004D
:10203000130717F0C2051337170085460546C181FF
:102040006800A30601005886EF20E023814719C1EC
:102050005D21AA873E8541016FE02FCE8D473E85E9
:10206000828096211547637FD70658213031AA8791
:102070002207518F131687002183598E4206418211
:1020800013573600937676001377F70F81C605074E
:102090001377F70F9306F6FFC206C1821308F07A92
:1020A0000D456363D804D4336390E604EFE2AFC612
:1020B000B8232E848C332207138567004D8F931627
:1020C00087002183558F0507931507018546C18138
:1020D000EF20601B01C505216FE02FC695471EA0AC
:1020E0000145DDBF0D4582808280962115476397AB
:1020F000E608582130319306E07C2207518F1316F1
:1021000087002183598E420641821307F6FF42075A
:102110004183AA870D4563E5E606EFE2CFBFB8230A
:102120009433239005002207558F894694A3962166
:102130009354360093F4F40F850696A193767600B7
:1021400081C6850493F4F40F84B396212E841385FD
:102150002700850696A19315870021834D8F93054F
:102160001700C205C181EF20602001C569266FE01C
:10217000CFBC1E200145BE9406A0D5BF0D45828070
:1021800082809A219547631CF702EFE2CFB83C2189
:102190000C318546A207CD8F93958700A183CD8F03
:1021A00093851700C2050546C1810D05EF10B07D6E
:1021B000814719C18926AA873E856FE00FB88D47F0
:1021C0003E858280EFE22FB59A21954463F7E406BD
:1021D00058213031930670072207518F131687005C
:1021E0002183518F1316070141821307F6FF42071F
:1021F0004183AA870D4563EDE602D4331317160019
:102200001377F70F6396E602B8232E848C332207E8
:10221000138567004D8F931687002183558F05071F
:10222000931507018546C181EF10F07501C5E124C2
:102230006FE0AFB006A00145E5BF0D45D5BF9621C3
:102240001547639AE606EFE20FAD54211306C00767
:10225000AA8793940601C1801387F4FF4207418344
:102260000D456362E6042E84B8238C3323100400EA
:1022700088A3122086062207050612A04D8F94B36C
:1022800093158700162021834D8F9305170085062F
:10229000C20516A026868146C18113852700EF104E
:1022A000906E01C5892C6FE04FA91E208604014560
:1022B000BE9406A0CDBF0D4582809A21A54763F24A
:1022C000E70EEFE2AFA35C2138312A84A207D98F51
:1022D00093998700A183B3E7F9009399070193D9F4
:1022E00009019387F9FFC207C1831307C0070D4592
:1022F0006367F70A1C24703013078007A207D18F89
:1023000013968700A183D18F13960701418293070B
:10231000F6FFC207C1836364F708183493171600E9
:10232000639FE70624202E890C30A2047C20CD8CEC
:102330004C30A2078546CD8F93958700A183CD8F22
:1023400093851700C205C1811305A400EF10B06387
:1023500039E923100900DD471CA083570900139AAF
:1023600019009395840085072310F900A300440108
:1023700083570900A180CD8C938514008507C20581
:102380002310F90081464E86C18113052400EF1009
:10239000905F11E9835709003E9A231049016FE0CD
:1023A0002F9901458280812ADDBF962115476390D0
:1023B000E608582130319306B0072207518F1316D3
:1023C00087002183518F1316070141821307F6FFFF
:1023D00042074183AA870D4563EDE604EFE2AF9320
:1023E0002E843E858C331147BC232310040018A192
:1023F0001A20A2079314160005071AA004B1CD8F66
:10240000939587001A20A183CD8F93851700050728
:10241000C2051AA0C1810905EF10B05401C5E12819
:102420006FE0AF911E200145BE9406A0D5BF0D45BB
:1024300082808280EFE22F8EB707002003D4C7543A
:10244000AE84B72500202286938505560505EF301A
:10245000D13D050482A001456FE02F8EA14763F3B3
:10246000C702EFE24F8BB7B601006D6637B50100CA
:10247000938686D3130686D293058003130585D4ED
:10248000EF30D13113D73500930717003308E5003B
:102490003E958547B397C700FD17C2070E073387E0
:1024A000E540C183B397E70018210346080093C7AE
:1024B000F7FF2207518F9D89F98FB396B600DD8E05
:1024C000C206C1862300D800C206C182A18214A11F
:1024D000828093D735003E951C3108219D89A20743
:1024E000C98F05453315C500B3D7B7407D157D8D20
:1024F0001375F50F82809D4763E7A7009387418797
:10250000AA978823828011458280EFE2CF80AE8730
:102510001388F7FFB2851378F80F36869306600F9D
:1025200063FC060137B50100130585D6EF40511D48
:10253000094422856FE06F80238AF180094475F990
:1025400037250000130545C523A8A19037250000B5
:102550001305E5C623AAA19037250000130545CF32
:1025600023A4A19037250000130505C823A2A1903C
:102570003725000023A60190130545D823ACA19070
:10258000372500001305E5E423AEA19037250000B0
:102590001305C5EE23A0A192BA863E85EFF02FE782
:1025A0002A8441F9EFE01FF909C5054723A8E18016
:1025B00049B70D44BDBFEFD21FF6EFF0AFD72A8465
:1025C00019C5054723A8E18022856FD01FF7EFE0EA
:1025D0007FF61DCDB7270000938767B423A8F1903D
:1025E000B7270000938787B423AAF190B72700008C
:1025F000938727B523A2F190B72700009387E7B907
:1026000023A4F19023A601907D57238AE18055BF32
:102610000D445DBFEFD23FF0138401811840854720
:1026200019456318F70083A701918297014523207C
:1026300004006FD09FF0EFD21FEE83A701814111FC
:1026400019446395070C6800EFE05FF30547AA871C
:102650006304E50001445DA832476303A708894687
:10266000E31AD7FE03A581920C213707002023A08F
:10267000F190130607002382B1928147138481925F
:102680001389419293840190130707004148142253
:1026900091CA6391D5088E07BA97DC439385E1927E
:1026A000829788C083C7C192D5D794409387E1921F
:1026B00085C203470900104085458EA3136707F8BC
:1026C00018A292231840930516008EA3329714A3E4
:1026D000922303A781900C4003C5418102979DBFBF
:1026E00083A741909384C1921386E192938581924E
:1026F0001385C19282972A8431FD9C2003C74181B2
:102700006303F700A1FB0945EFE01FE322854101C8
:102710006FD0BFE285072106E39B07F761B79307F8
:1027200040063345F502A9474205418163E8A70603
:10273000ED67938787D70A053E951C4182872380E2
:102740000500930760041CA2828089479CA193071F
:102750008002D5BF91479CA1E547F5B795479CA15D
:10276000D147D5B79D479CA1BD47F1BFA1479CA1CB
:10277000A947D1BFAD479CA1A147F1B7B1479CA1E3
:102780009D47D1B7B9479CA1994775BFBD479CA14B
:10279000954755BFC1479CA1914775B7D147E5BF44
:1027A000EFD27FD77971BD47AA842E8436859305F1
:1027B0006100130671005C83DC83EFF05FF69C839D
:1027C000034E61009308C05D93960701C182B388F0
:1027D000F84013982700139716008608B30EC041DF
:1027E00013932600814701458145054FD14F634A28
:1027F000170105476369F70A81471EA045616FD03D
:10280000DFD393161700A6960396060063DBCE046B
:102810006359C605B30607418606A6968396060049
:1028200063C5C604B306E8008606A696839606002E
:10283000634DD60211C19DCD8145938617001018B6
:102840008607B297135617001A974207050593F6A5
:10285000F60F239CC7FC41831375F50F63EDDF0072
:10286000B68709074207418359B719C16384E50157
:102870008545E1B795463000054781472E220A225B
:1028800005071377F70F898DAE97C207C183090635
:10289000E366D7FEFD16B3C7D702C207C18386071A
:1028A000C207C18399BFBE86F9B7EFD2DFC6B38630
:1028B000C502AA88014701450148634FD7002E860B
:1028C0008146C285EF100138EF30012CEFA0206166
:1028D000EF30C14E6FD07FC693171700C69783970E
:1028E000070032974207B387F702418313DEF741AF
:1028F000AA9733B3A70072983E851A987DBF856763
:1029000093870777AA971A2136211105158F231E61
:10291000E5FEE39AA7FE828005668147014781466E
:10292000130686BB139817002A980318080093987B
:10293000070193D8080163D406014687C286890738
:10294000E392C7FE05839AA136858280EFD2BFBC91
:102950000545EF5050501384A193931505010420B1
:10296000C1850545EF50D05FB747002086049387A7
:1029700007CFA6978AA31C209546850793F7F70FE4
:102980001CA01387818163F4F6040C2337350140C2
:10299000854605461305058023000400EF30C05A24
:1029A00003A5C1931384C19401479387C1948546BD
:1029B0000946814523200400EF9090681C4091C790
:1029C000B7E700E0116723A0E7206FD01FB7BA97E1
:1029D0008C23373401401305048085460546EF30CB
:1029E000A056854513050480EF308054F9BFEFD21F
:1029F0009FB20945EF70A061B707002083A6C723E7
:102A0000416779179C4203A5C193F98F9CC2138437
:102A100081940147938781948546114681452320FF
:102A20000400EF90F0611C4091C7B7E700E0116728
:102A300023A0E7206FD07FB09D4763E8A702EFD2C5
:102A40009FADAA852A845D45EF00D04C3705002054
:102A50001305050806042A941A20B7470020938717
:102A6000C7D4DAA39AAB6FD05FAD8280B74700209E
:102A700003D507D582801385C19382801385019485
:102A80008280411106C622C44AC24EC0EF3041289E
:102A9000B7B7010003A687E683A6C7E637B40100EF
:102AA000EF20D103B7B7010003A607E783A647E7E6
:102AB0002A89AE89EF20C120B7B70100634805021B
:102AC00003A687E783A6C7E74A85CE85EF201101D5
:102AD000032604E8832644E8EF20C134EF30012EBA
:102AE000B2402244124982494101828003A587E70E
:102AF00083A5C7E74A86CE86EF20417E032604E8F9
:102B0000832644E8EF200132EF30412BD30705F054
:102B1000D397F720538507E0E1B787A70193539533
:102B200017C01375F50F8280EFD2FF9E5D71EF50D5
:102B3000E062A9450145EF5080636D642946930525
:102B400084E10145EF50C070A9450545EF50206272
:102B50002946930584E10545EF50806FA945094555
:102B6000EF50E060930584E129460945EF50406E3F
:102B700093070010B7060800701089450145231619
:102B8000F102EF50104193070002BEC0B727014089
:102B90009387C744BEC2B727002093870758BEC497
:102BA00085473EDE8567938787BB2316F1040C18A3
:102BB0008567130600020A853EDC02D802DAEF3090
:102BC000C146B73600000A859386E69E01468545D4
:102BD000EF509057B707002003A7C723814605464B
:102BE0001C43B7050E00054593E717001CC3373794
:102BF00000001307C794EF50F04383C58181373538
:102C000001409D46054613050580EF30E03305453C
:102C1000EF30003F37450020130905DC1306003272
:102C20008145130505DCEFD01F925D45EF00B03301
:102C3000B704002093840408060526951E21374416
:102C400000201304C4D4374500205EA023202401B3
:102C5000130600321309050E8145231404001305E1
:102C6000050EEFD05F8E5D45EF00F02F0605AA94AC
:102C70009E20374700201307C7CF1EA858D08D4786
:102C8000374700205EAC130707D118D893874193CC
:102C9000374700201CCC130747D2A9471EB45EB8A3
:102CA0002310F40458DC2316F404231CF4043747DF
:102CB0000020B7470020130787D39387C7DA231A6A
:102CC0000400232624012310040223160402231CDB
:102CD0000402231204042318040438C4231E040429
:102CE0007CC861616FD07F851A251C410607BA97A1
:102CF0008EA31E255A218507C207C1831EA563E442
:102D0000E70023140500828052211E258146930589
:102D1000F6FFC205C18101476317D6003345C702DC
:102D200042054185828091E3AE87FD17C2070328E3
:102D30000500C1839398170046980318080085067C
:102D4000C2064297C182C9BFA54763ECA712EFD262
:102D50008FFCED67938747DA0A053E951C41828711
:102D6000374500201305C5D4EFF01FFAD37705D0FF
:102D700001A237450020130585D5EFF0FFF8D37782
:102D800005D0538507E0EF20B178B7B7010003A65F
:102D900007EB83A647EBEF20E108EF302102EFF0CD
:102DA0005FCE6FD08FF937450020130545D6EFF081
:102DB000BFF5D37705D0538507E0EF207175B7B71E
:102DC000010003A607EB83A647EBEF20A105B7B7E9
:102DD000010003A687EB83A6C7EBEF20A104EF2039
:102DE000F17DC1B737450020130505D7EFF0DFF1BE
:102DF000D37705D0538507E0EF209171B7B7010075
:102E000003A607EB83A647EBEF20C101B7B701008C
:102E100003A607EC83A647ECC9B737450020130586
:102E2000C5D7E9B737450020130585D8C1B7374561
:102E30000020130545D9EFF03FEDD37705D053853A
:102E400007E0EF20F16CB7B7010003A607EB83A6FC
:102E500047EB61B737450020130505DAEFF0DFEAED
:102E6000B7B70100D37705D007A7C7EAD3F7E710B4
:102E7000538507E03DB703954194CDBD03A501936C
:102E80000DB78280EFD22FE641119307B05D7C83AE
:102E900023120100EF803043B7B7010003AB07E115
:102EA00083AB47E1B74C00202AC69544814A014CC8
:102EB00001490144370D0020372A0020938CCCD4DF
:102EC00085456800EF80106D89476307F9028D47DB
:102ED0006300F90263100902373501408545130587
:102EE0000580EF30E0040945EF60B0680D49C9BFC7
:102EF0000949F9B70549E9B7014734001946814541
:102F00000145EF90406BA247898BA1CBB7490020C8
:102F1000938909CF054C31473305EC0283950900AD
:102F2000050C89096695EFF03FDC9D473147E315B5
:102F3000FCFEA947B377F402054C63929702FD1497
:102F400093F4F40F91E0A54437350140854513050E
:102F50000580EF20F07D014C19A0E31C0CFCA2477A
:102F6000918BA1CF856A93090A58938A0A77CE9AE2
:102F70008395090001458909EF50807E239FA9FEB2
:102F8000E3983AFF13050A58EFF07F979305210065
:102F900013050A58EFF05F98AA8609469305610069
:102FA00013050A58EFF0CFFF894A05041374F40F94
:102FB000A547E3F787F0014421B7E3880AFE2C8395
:102FC0001307905D9387F5FFC207C1836360F70421
:102FD000094613050A58EFF05F8DD30705F04C0042
:102FE00093890193539517C042054181EF50001416
:102FF000D37715D0538507E0EF2091515A86DE86AE
:10300000EF105162EF20915B23A0A9008327CD230D
:103010000567130787BBD8C398430945814A1367DF
:10302000170098C3EF60F05449B7EFD22FCDAE89A7
:103030008545B6842A843289EF3020619C2011476F
:10304000636FF7006D678A071307C7DCBA979C4365
:103050008287B70502002285EF30C06819C101459B
:1030600041A885452285EF30C05F85479CA0C5BF3C
:10307000B705030085052285EF3060658547E310BD
:10308000F5FE01469305A00D2285EF3020638947A8
:10309000F1BFB7050700938525082285EF3020632F
:1030A0008547E31EF5FACE852285EF3060608D47B7
:1030B00075BFB7050700938545082285EF3020616D
:1030C0008547E31EF5F8CA852285EF30605E91479B
:1030D00071BFB7050700938545082285EF30205F53
:1030E0008547E31EF5F622858545EF3020590545D5
:1030F0006FD00FC49C221947636CF70EEFD20FC03C
:103100006D678A07130707DEBA979C43B684328936
:10311000AE892A848287B7050200EF30A05C01C522
:1031200001456FD0EFC085452285EF30805385473C
:103130009CA0FDB7B70503008505EF3040598547D2
:10314000E310F5FE01469305A00D2285EF300057F0
:103150008947F9BFB705070093852508EF30205749
:103160008547E31FF5FACE852285EF3060548D4701
:10317000C1B7B705070093854508EF30405585472F
:10318000E310F5FA85452285EF30A04D91474DB704
:10319000B70503008505EF3080538547E312F5F846
:1031A00005469305A00D2285EF304051954749B75C
:1031B000B70503008905EF3080518547E312F5F626
:1031C0009947BDB7B705001093850504EF308051CE
:1031D00021D981452285EF30004C2285EF30804D8A
:1031E0002300A90085452285EF304049054515BFDC
:1031F00001458280EFD2AFAF41111305803EEF80D1
:10320000104637B50100B7440020130585E86D6A04
:1032100093840440EF30D14E81490149130ACADF3B
:10322000138BA4000509420913590901D14763FB17
:103230002701914537150140639E0904EF50B045C1
:1032400085490149EF803008AA8AA3070100054497
:10325000374C0020EF80300733055541E54763FFC9
:10326000A70299476305F4028C8737B5010013055F
:10327000C5E9EF30F1363764004085451305048019
:10328000EF30203E854513050480EF30203FA30733
:10329000010049BFEF503041814965B79307E4FF12
:1032A00093F7F70F11476366F7008A07D2979C439D
:1032B0008287376500409306F10029469305000395
:1032C00013050580EFF07FD60544E31585F8A307C5
:1032D0000100094441B7376500409306F100130629
:1032E000E1009305000313050580EFF0BFE085477B
:1032F000E312F5F61C87A18B91E30D44A3070100AF
:1033000091BF376500409306F1001386840099450C
:1033100013050580EFF01FDE8547E31DF5F2A307D7
:103320000100114405BF376500409306F100138684
:1033300094009D4513050580EFF0DFDB8547E31B17
:10334000F5F0A3070100154431B737650040930637
:10335000F1005A86A14513050580EFF0BFD98547D6
:10336000E31AF5EE80248834B70780004204220572
:10337000498CA824938C4194498C63F38702EF0015
:10338000F050B70700FF3E943354A40223908C0002
:1033900083950C001305CCD41944EFF0FF945DBD68
:1033A000EF00D04E3355A4022390AC00D5B70545AD
:1033B000A3070100EF80B02A71BD7300203037B53C
:1033C00001001971130585EC82FE86FC8AFA8EF8DD
:1033D00092F696F49AF29EF0A2EEA6ECAAEAAEE875
:1033E000B2E6B6E4BAE2BEE042FE46FC4AFA4EF865
:1033F00052F656F45AF25EF062EE66EC6AEA6EE855
:1034000072E676E47AE27EE0EF30912FEF90102CB6
:10341000AA8537B501001305C5EDEF30711CEF909B
:10342000502BAA8537B501001305C5EEEF30511BAF
:10343000EF90902AAA8537B501001305C5EFEF304C
:10344000311A01A0317106DF16DD1ADB1ED92AD729
:103450002ED532D336D13ACF3ECD42CB46C972C7F4
:1034600076C57AC37EC182FE86FC8AFA8EF892F611
:1034700096F49AF29EF0A2EEA6ECAAEAAEE8B2E6C4
:10348000B6E4BAE2BEE042FE46FC4AFA4EF852F614
:1034900056F45AF25EF062EE66EC6AEA6EE872E6A4
:1034A00076E47AE27EE0EF40A01913050008EF20F1
:1034B000D07FFA50EA525A53CA533A55AA551A566F
:1034C0008A567A47EA475A48CA483A4EAA4E1A4F8D
:1034D0008A4F7670E6705671C6713672A672167390
:1034E00086737664E6645665C6653666A6661667B4
:1034F00086677278E2785279C279327AA27A127B40
:10350000827B726CE26C526DC26D326EA26E126F73
:10351000826F296173002030197182FE86FC8AFA5D
:103520008EF892F696F49AF29EF0A2EEA6ECAAEA33
:10353000AEE8B2E6B6E4BAE2BEE042FE46FC4AFAC3
:103540004EF852F656F45AF25EF062EE66EC6AEA13
:103550006EE872E676E47AE27EE0EF40806D7670A7
:10356000E6705671C6713672A672167386737664EB
:10357000E6645665C6653666A6661667866772781F
:10358000E2785279C279327AA27A127B827B726CAB
:10359000E26C526DC26D326EA26E126F826F096163
:1035A000730020301971294582FE86FC8AFA8EF854
:1035B00092F696F49AF29EF0A2EEA6ECAAEAAEE893
:1035C000B2E6B6E4BAE2BEE042FE46FC4AFA4EF883
:1035D00052F656F45AF25EF062EE66EC6AEA6EE873
:1035E00072E676E47AE27EE0EF3090278545370593
:1035F0000040EF3090097670E6705671C6713672F1
:10360000A672167386737664E6645665C66536667A
:10361000A666166786677278E2785279C279327A3E
:10362000A27A127B827B726CE26C526DC26D326E3A
:10363000A26E126F826F096173002030EFC2BFED7E
:10364000B74400201306E003814513850441EFC011
:103650009FEF0947930640061306E0039385044154
:103660000145EF405015894751E913840441142066
:103670001307600681476383E608130680028145CD
:1036800013056401EFC03FECB70704019387671689
:103690001CC0B7C7FAF09387E77B5CC0B7070AC0C6
:1036A000138727139387871A5CC4B70701FF938793
:1036B000871A1CC8FD575EA8994718C47CB80947EB
:1036C0009307601F9306803E1306E0039385044131
:1036D00001451EACEF40701C19E537B5010013051C
:1036E000C5F0EF30F1010947930640061306E003E9
:1036F000938504410145EF40100C85473E856FC01E
:10370000DFE3B7470020938707413E950CA1A181D5
:103710000CB18280EFC23FE02A84EFF09FFEB745F4
:103720000020938505410947A9460946A2952285AF
:10373000EF40B0166FC07FE0B74700209387074186
:103740003E950CA18280EFC21FDDB7470020938712
:103750000741AA978CA30947A9460546BE85EF40B5
:10376000D0136FC09FDDB747002093870741AA970A
:10377000983388232207598D8280B747002093878A
:103780000741AA979833A82322074205498F882327
:10379000498FA8336205598D8280B74700209387EF
:1037A00007413E9508218280B74700209387074153
:1037B0003E9593D785000CA11CB193D70501E181FB
:1037C0003CA12CB18280EFC21FD52A84EFF0DFFD2F
:1037D000B7450020938505410947A9461146A295A2
:1037E0002285EF40900B6FC05FD5B74700209387CD
:1037F0000741AA979833A82322074205498F8823B7
:10380000498FA8336205598D8280EFC23FCF2A8449
:1038100039711305A003AE89328A3689EFF0BFF4FF
:1038200063678506AA841305C003EFF0DFF3B307CF
:10383000954063D90700636A95047D14058C2A942A
:10384000420441801D453305A4020947A9461D468F
:103850006C001305E50342054181EF40C0751C86ED
:10386000B8802380F9009C862304F9001C8723225A
:10387000F9009C87A304F900834721012310EA0083
:103880002301FA0021616FC0BFCA2A8465BF23806B
:103890000900CDBFEFC23FC80111AA841305C003C0
:1038A000EFF07FEC2A8468004482EF50D073480820
:1038B000EF50F0761D453305A4028347C1013886D9
:1038C000A946DC82E24778841D465C838347D101A8
:1038D0001305E5034205DC831C8709474C00418141
:1038E0005C85EF40807B13051400420541819307FE
:1038F000100363F3A70001453744002093070441F8
:10390000238EA7021305A003A38E0702EFF0BFE5E5
:10391000930710039305044163E7A7000505238D72
:10392000A502A38D05020947A94611469385A50363
:103930001305A003EF40607605616FC01FC091477B
:1039400063E0A704EFC23FBDED679387C7F10A05A7
:103950003E951C418287856593850580372501400A
:1039600013050580EF5080521375F50F6FC0FFBC33
:103970008565EDB78965DDB79165CDB7A165F9BFFF
:1039800001458280954763E5A704EFC2DFB8ED6784
:10399000938707F30A053E951C418287930500042F
:1039A0003725014013050580EF50404E6FC0FFB82A
:1039B00093050002F5B7C145E5B7A145D5B79145D7
:1039C000C5B73715014093050010130505C0E9BFC1
:1039D00001458280EFC23FB485476309F50211C5F6
:1039E0008947630AF5026FC05FB589E9A1453715BC
:1039F0000140130505C0EF50004AF5B7A145371542
:103A00000140130505C0EF50004AF1BF99E1C145DF
:103A1000F9BFC145EDB781E593050002C9BF930524
:103A20000002F1BFEFC23FAF7971A9473ED23ED04D
:103A3000B74700009387E7934C0801453ED602CC78
:103A4000EF4030134C080545EF40B0124C080945D3
:103A5000EF4030124C080D45EF40B0114C081145B5
:103A6000EF403011B74700009387479D2C00014578
:103A70003EC802C6EF4050052C000545EF40D0047B
:103A80002C000945EF40500445616FC01FABEFC2E9
:103A90009FA8011199475C84938701953EC893873D
:103AA00081953EC6B7071464D1073ECA8947230CE7
:103AB000F100B74700009387479828003ECEEF40BB
:103AC000F02105616FC07FA7EFC2FFA4EFF03FFCBC
:103AD000EF403020EF80A038EF401025EF40D00CB1
:103AE000C5BFEFC2BFA179713714014002C602C839
:103AF00002CA02CCEF50603BF14601461305048038
:103B0000C145EF506035130504C08D45EF50C032FC
:103B1000130504808D45EF502032930500033715BF
:103B20000140EF506031130504809305400CEF50C5
:103B3000A030B72401401385048093050078EF502E
:103B4000A02E13050440B165EF50002E8565371592
:103B50000140EF50602D130504408D45EF50C02CFF
:103B6000130504409305000EEF50002C130504408C
:103B70009145EF50602B130504408565EF50C02A36
:103B8000E1460146130504C0A965EF50E02C9307F8
:103B9000800411696C08130504C03ED2231E210164
:103BA000231F01002310010223110102EF209010B6
:103BB000130504C08565EF5020278569F14601464D
:103BC000938509C0130504C0EF50002991453715AE
:103BD0000140EF5060251305044093050004EF50A9
:103BE000A024370613808D65E14641061305044085
:103BF000938505A0EF504026130504C0930580036C
:103C0000EF508022938509C037150140EF50C02145
:103C1000138504809305C007EF500023130504C0EB
:103C200093050010EF504022C165138504809385F1
:103C30000580EF50602181450145EF206053130559
:103C4000044093050004EF500025130504C09305BC
:103C50000020EF50601DB7093080138629001385BE
:103C6000048091468945EF50201F13862900138553
:103C70000480E1468545EF50201EE14601461305CC
:103C8000048093050040EF50201D85451165EF200D
:103C9000B0471145A12EEFE03FE9B7B51D006546DD
:103CA000938595150945EF60803D93050002094510
:103CB000EF60800D95659D461306803E938505E275
:103CC0002145EF6060481306401F9D452145EF6088
:103CD000C0552145EF60E05D2145EF608009B717D1
:103CE0000300938707D43EC6B70700406C008546A3
:103CF00005463EC80545B70700043ECA231C2101FE
:103D0000EF5080380545EF50E036894768083ED6C9
:103D100002CE02D002D202D4EF40503AEFF09FD050
:103D20000545EF40201745616FC09F80EFC2AFFE91
:103D3000B74700202388A7441145EF60800313068E
:103D40004006FD550945EF80C07B6FC00FFF13850E
:103D500001968280EFC2AFF9371401401305044089
:103D60009145EF5040141305044093050008EF50AF
:103D70008013856537150140EF50E0122945EF802B
:103D8000000E856537150140EF50E0102945EF80A2
:103D9000000D1305044093050008EF50C00F856522
:103DA00037150140EF5020102945EF80400B856505
:103DB00037150140EF50200E2945EF80400A93054A
:103DC000000813050440EF50000E1305F003EFF058
:103DD000FFF50545EF80A008930500081305044092
:103DE000EF50600B1305F003EFF05FF40545B75992
:103DF0000020B7440020EF80800693890986374A67
:103E000000201304044093840445A14B7D5685454E
:103E10000145EF80006F03A9490313060040130515
:103E20000A46CA85EF20011E75D1CA8513060040D7
:103E300013050A46EF20611F930A0A4601499305BC
:103E400000082285EF50200613050004EFF01FEE56
:103E5000136B890B5A85EFF07FED930500082285DF
:103E6000EF50600313050004EFF05FEC5A85EFF0AC
:103E7000FFEB93070008114523A254019CC4238043
:103E80000400239604000509EF50B06E13064006A7
:103E9000FD5509451379F90FEF80A066938A0A084A
:103EA000E31F79F9A5B7EFC20FE7B71401402A84E1
:103EB00013850440EF40B07E935524409317E400EF
:103EC0008D89DD8D9167F1177D8DC98DC205C18109
:103ED00013850440EF40707CB724014013850480B3
:103EE000EF40F07B0E041375F58713740478498C4A
:103EF00093150401C18113850480EF40107A6FC0CF
:103F0000CFE3EFC24FE183C7419641113744002010
:103F100002C69384419613040445A5EB371901406A
:103F20009305000213050940EF40F0771C208565DA
:103F30001305094085C7EF4010770820EFF0BFF662
:103F40002314040037150140914513050540EF4047
:103F5000907485479CA041016FC02FDEEF40B07385
:103F60005A249307F003930500081305094063EBF7
:103F7000E700EF4050723A245C40BA978823EFF094
:103F80009FF2C9B7EF403072FDB737150140914538
:103F900013050540EF4030715E241307F0078507D5
:103FA000C207C1836361F7045EA43E241A24850717
:103FB000C207C1833EA463E5E7021145EF60200517
:103FC00003A501967C0001478D4605468945EF8093
:103FD0003007B24791C7B7E700E0116723A0E72099
:103FE000238004008DBF23160400C1B7EFC2AFD2F7
:103FF000B7460000B7B50A0085470147938626F00B
:104000000546938505E6EF60800B37150140930563
:10401000000213050540EF40106937540020ED659C
:10402000814601461305048693850598EFC08FEEFF
:10403000E5659385057013050486EFC05FD1130510
:104040000486EFC0EFEA6FC04FCFEFC2CFCC094577
:10405000EF20606CEF102077EF801052EF10D0311E
:10406000EF10902EEF103012EFD00FF7EFF07FA788
:10407000716513050520EF80505937B50100130510
:1040800085F4EF20F167EF70501A01A003D5E181AC
:104090008280391542054181B14763E3A70CEFC225
:1040A0008FC7ED67938787F50A053E951C41828788
:1040B000B757002083A5C7910145EF40E00FD30714
:1040C00005F02946539517C0420541813306C502C4
:1040D000854515A0B757002083A507920545EF40F9
:1040E000A00DD30705F029468945539517C0420511
:1040F00041813306C5022145EF6020132145EF6061
:10410000401B0DA8B757002083A547920945EF40F3
:10411000A00AD30705F029469145539517C04205DB
:1041200041813306C502C1BFB757002003D787912D
:10413000239FE1806FC06FC0B757002003D6A791BF
:1041400041BFB757002003D5E792EFE0FF8EDDB700
:10415000B757002083D507930145EF206001D9BFF1
:10416000828089C5B295AD4763DCB7000545828082
:104170007D162300050042060905A30F05FE4182B6
:1041800065FA01458280638E050EEFC22FB7B387B3
:10419000C500130790022A892E84B2890545634120
:1041A000F70CB1CA05470145639CE60AB7540020E5
:1041B0001385F5FF139715009384448F42051394DC
:1041C0000701BA944181418093091500C20993D92E
:1041D0000901890463858908834709000909A20741
:1041E000239EF4FE0347F9FFD98F239EF4FEEFF0E0
:1041F0005FEA4E85D1BFB7540020938A448F014AAD
:104200009384448F254B5285EFE01FB4B7B701006C
:10421000D30705F007A747F9050A910AD3F7E71076
:10422000539507C0D37705D0D3F7E71827AEFAFE2A
:10423000E31B6AFD2545EFE03FB1D30705F083D7C7
:10424000E181539517C00604DEB0D37705D02694DC
:10425000DCF8EFE0BF81AABC0904639509000145C1
:104260006FC00FAD8357C4FFFD190909A183230F48
:10427000F9FE8357C4FFC20993D90901A30FF9FEC0
:10428000E1BF05458280EFC28FA69389F5FFC20981
:1042900093D909013387C9008D4763C7E70C935A47
:1042A000360013D939003284AA84138A1A0093F98C
:1042B000790095CE854701456396F608375A002068
:1042C000268B338C2A01930C4A8F631F8907137640
:1042D0007400D69401CA942013054A8FCE854A955E
:1042E000EFE0CF9713054A8FEF40200199A8B75B05
:1042F000002013854B8FEF406003268B938B4B8FF1
:104300003309994033052B01420541812146CE8571
:104310005E957D1AEFE0EF9B050B420AA30FABFE03
:10432000135A0A01E3100AFE1D882146018E1374F8
:10433000F50F3314C4001374F40FD6943354C440EF
:1043400080A001456FC02F9E930B190083460B0080
:10435000C20B33852C0193DB0B012146CE85EFE0A8
:10436000EF8F050B5E8995B70545E9BFFD15C205C1
:10437000C1813387C500954763CCE706EFC22F970D
:10438000375B00202A84935A360093DB35001305EF
:104390004B8FB28493F9750013891A00EF40C00C5B
:1043A000228A130B4B8FB38B8B4033057A01420566
:1043B00041812146CE855A957D19EFE08F91050AFE
:1043C0004209A30FAAFE13590901E31009FEA147F0
:1043D0009D88B38497409377F50FB397970093F731
:1043E000F70F5694B3D797401CA001456FC0AF9309
:1043F00005458280EFC28F905545EFF09FC95D451E
:10440000EFF03FC965451564EFF0BFC8814437B987
:104410000100130404B00545EFF02FB8AA89054543
:10442000EF70F0238547639FF9000547A2860D468C
:1044300085450145EFE06F8D19EDEFE0AF9D11CDA2
:104440008544D1BF0145EFE00F9711E51305C9F889
:10445000EF20112BDDB7E1D0CDB7EFE0CF9DC5B791
:10446000EFC26F8BED67375500209387870E1307D8
:10447000A003930600080146814513050586EFC099
:104480008F9E6FC08F8BEFC20F89EF4020041841C1
:1044900023A8E1986FC06F8A370700201307070F22
:1044A0008147BD4610236309A600850793F7F70FE0
:1044B0005107E399D7FE85473E8582809387019710
:1044C0002382070023A0070003C7E1985146B707DE
:1044D00000203307C7029387070F01469386019791
:1044E000894505481545BA97D84381471107832860
:1044F00007006397B80011EA3386F6000CA2054660
:1045000085074107E395A7FE8280B388F6002380E4
:104510000801FDB7EFB29FFEB7070020914603C721
:10452000E1989387070F1384E19863EDA606ED6683
:10453000938686F90A05369514418286D14633075B
:10454000D702BA97A62B8DC493F704F0C207216750
:10455000C183930607106385D70863EBF60463886D
:10456000E70693F7F40F89C73E85EFF0FFF208A046
:104570006FB01FFCD1463307D702BA97862BE1B73D
:10458000D1463307D702BA97C62775BFD14633073E
:10459000D702BA97E62745BFD1463307D702BA9765
:1045A000A62755B7D1463307D702BA97862761BFEA
:1045B000930607306389D70213070740E393E7FAAE
:1045C0009387C198982351DF7D1798A359BFEFF0C7
:1045D000FFEE0947A386E1980547A382E19651B70C
:1045E00023860198BDBF1389C1988349090013052B
:1045F000A0038509EFF02F97E3D5A9F683470900BB
:1046000085072300F900B1BF01479386019709454B
:1046100095453386E600034806009377F70F631647
:10462000A802054718A2154791450545850793F748
:10463000F70F63F3F50081473386F6000348060061
:10464000631AA80089471CA282800507E313B7FC00
:104650009547D1BF7D171377F70F69FB828001471C
:1046600093860197094595453386E6000348060081
:104670009377F70F6312A802054718A215478545DF
:104680008DC3FD1793F7F70F3386F6000822631CDE
:10469000B50089471CA282800507E317B7FC954740
:1046A000F1BF9147D5B77D171377F70F71FB828064
:1046B0002A887D1619456367C50CEFB2DFE52E85A4
:1046C000ED650A069385C5FA2E9610420286631C94
:1046D0000800EFF08F8C42054181239BA196A385B2
:1046E00001966FB09FE5EFF00F88C5BF83D5619746
:1046F0006317080093F5F50FEFF0EF84DDB7EFF0E7
:104700006F81C5B71387B1961C23850793F7F70F01
:1047100063F4D7001CA3F1B723000700D9B7938730
:10472000B196982319E394A36DBF7D1798A355BF45
:1047300083C6B1969387619793952600B7060020AC
:104740009386860CAE9692239442B2966364D70009
:1047500096A341BF9AA371B783C6B1961387619799
:1047600093952600B70600209386860CAE961223FA
:104770009442B305F64063E5D500158E12A395B7B4
:104780001EA385B78280D38707F0FD15994763E3A1
:10479000B712EFB25FD8ED67938787FC8A05BE95A5
:1047A0009C41411136848287EFF02F8423ACA1967F
:1047B0000504A385819641016FB03FD883A58197F9
:1047C000EFF06F80CDBF03C7B19636969387B19651
:1047D00005071377F70F6359C70098A39823E31CC5
:1047E00087FC050480A3C1BF23800700C5BF83C722
:1047F000B19605061387B19699C31386F7FF137612
:10480000F60F6304C40010A37DB77D1400A365B741
:1048100083C7B196530707F063F5F600FD1793F7CA
:10482000F70F370400208A071304840D3E940840D4
:104830003AE6EF10E14D2A8637B50100AE86130542
:104840004554EF20E159938781971C609463326748
:10485000D3F7D7005387E7A019C39CE3A9BF98E318
:1048600099BF03C7B19663F5E6007D171377F70F7D
:10487000370400200A071304840D3A9408403EE6EA
:10488000EF1001492A8637B50100AE86130545545D
:10489000EF200155138781971863B2671060D376B4
:1048A000F708D307D6A089C75377C70818E321B7FD
:1048B0001CE311B78280FD15994763E5B71EEFB27F
:1048C000FFC3ED67938747FE8A05BE959C41AA8486
:1048D000828701441389C197914933858400420539
:1048E0004181EFE09FEBB307890088A30504E3163D
:1048F00034FFA38501966FB0BFC301441389C197EC
:104900009149B3078900338584008C234205418196
:104910000504EFE05FE3E31634FFF1BF03C7B19690
:10492000B9469387B19605071377F70F63EFE60053
:1049300098A398238D461376B70F6305D600AD462E
:10494000E31BD7FA050798A37DB723800700D5B7E7
:1049500083C7B1961387B19691CF9386F7FF93F6ED
:10496000F60F93F5B60F0D466388C5002D46638597
:10497000C600B6871CA341B7F917EDBF83C7B19630
:104980003706002009479385C1971306860C636F8D
:10499000F7008A07B297B8319C43BA971307F00F14
:1049A0006364F700BCB181BFFD57EDBF1947636178
:1049B000F702F11793962700B296B8219C42BA9756
:1049C0001307F00F6364F700BCA135B7FD57EDBFC7
:1049D00029476362F702E1178A07B29798319C432F
:1049E000BA971307F00F6364F7009CB129B77D579E
:1049F000A38EE19609B7138747FF8D473367F70208
:104A000094210A0732971C431307F00FB69763648B
:104A1000F7009CA1CDB57D57238EE196E9BD83C7F4
:104A2000B1963706002009479385C1971306860C77
:104A3000636EF7008A07B297B8319C436365F7004D
:104A40001D8FB8B14DBDA381050075B519476360D1
:104A5000F702F11793962700B296B8219C4263653E
:104A6000F7001D8FB8A141BD2381050069B5294715
:104A7000636CF700E1178A07B29798319C43E368AB
:104A8000F7F61D8F98B185BD138747FF8D473367B4
:104A9000F70294210A0732971C43E3EEF6F69D8E47
:104AA00094A191BD82806D1593170501C1831307F1
:104AB00050026368F7006D651305050C3E950821EB
:104AC000828001458280EFB27FA30111AA892E84E2
:104AD000B28481C683C7B1969CA219C385471CA323
:104AE0004E853AC2EFF03FFC9387F9FFC207C183BE
:104AF000930690022A8963EBF644ED668A07938653
:104B00000600B6979C431247828793874198B82343
:104B100094339023B7B50100938505572285EF2084
:104B2000E13E05616FB0DFA0B7570020938747943F
:104B30009837D4439027F9BF83C70198139727006C
:104B4000B70700209387C709BA9759AE83C7019862
:104B500005476383E70289CB0947638BE702B7B553
:104B600001009385855B29A0B7B5010093850558A1
:104B70002285EF20013E75B71145EFE01FC2B7B5A2
:104B800001002A86938505592285EF20213851BFDF
:104B90001945EFE09FC0B7B501002A869385455AB5
:104BA000E5B79384C19890201305A003050632C28F
:104BB000EFE07FBB1246B7B50100AA869385055E7C
:104BC0002285EF20A1348820B75600209386469492
:104BD0001386419893850198EFE03FC399B795C03C
:104BE000A147638EF402B7B7010037B7010083A76E
:104BF00087540327C75489461146A685EFF0BFB8EE
:104C00000DB7EFE09FBEEF10A110AE86B7B5010063
:104C10002A869385C55E2285EF20412F19B703A50B
:104C20008197D5B7638B0416A147638CF400814745
:104C30001307703E89462686CA850545EFF05FA7B3
:104C4000CDB503D66197B7B501009385455F2DBFFC
:104C5000EFE08F8FD30705F0B7B501009385C55FEF
:104C6000539607C015B791C8A1476380F40209673E
:104C700081471307F7708D467DBFEFE0DFAE2A86D0
:104C8000B7B501009385456001B703D66197CDBFE5
:104C9000EF00F071B7B501002A869385C560EDB5C8
:104CA000EF007072C5BFB7B501009385C561C9B586
:104CB0000545EF30207A11C5B7B5010093854562EF
:104CC00045BDB7B50100938585625DB54808EF2005
:104CD00020378348910103488101834771010347CD
:104CE00061018346510103464101B7B50100938537
:104CF000C5622285EF2081212DB5EF00F06A89473A
:104D0000630AF500B7B50100938505562285EF20AB
:104D1000E11F01BDB7B5010093850555C5BF81C829
:104D2000A1476389F404A685EFF0FFB8DDBBEFE08F
:104D3000DFA62AC61305190042054181EFE0FFA551
:104D40002AC41305290042054181EFE01FA52AC2AC
:104D50001305390042054181EFE03FA41247A24606
:104D60003246AA87B7B501009385C5632285EF2037
:104D7000E11945BB1386C1973C3238221432102208
:104D8000D5B799C8A147E38EF4EA81471307703E6F
:104D90008D462686E14555B56145EFE0DF9C2A86C4
:104DA0005DB52545EFD05FFAD30705F0B7B5010033
:104DB00093850565539617C042064182F1B34808B2
:104DC000EF407022034761018346510103464101D0
:104DD00091B34808EF40B0240347D101E2460346AF
:104DE000C1010DBB85C8A147E38DF4E4B14715456A
:104DF0006386F900B5476392F9021D45EFE0FF991C
:104E00001317050141839307400689462686CA8504
:104E100001452DB5EFE07F9859B71545EFE0FF97B5
:104E200093170501C1831307F00FC5B71305A0033E
:104E3000EFE07F932A86B7B5010093858565A9B316
:104E40008D47638BF40263E6970099CCA3860198A3
:104E5000C9B999476382F402A147E399F4FEB7B553
:104E600001009385056C29B383C75196EDDBB7B577
:104E7000010093850566EDB981451305C003EFE098
:104E80007F8981451305A003EFE0DF88A3860198A1
:104E9000A382019679B181C8A1476389F40085474F
:104EA000130740069DB7EFE05F8F69B703D66197A0
:104EB00059B72300070089CCA1476395F40283D733
:104EC000619713972700B707002093870709ADB9AB
:104ED000EFE0BF8CB70700200A0593870709AA9760
:104EE0008C4379B1938799FFB337F0000947814626
:104EF00031BFEF00407A2AC2EF0000791246B7B501
:104F00000100AA86938585682285EF20210011B9CA
:104F10002300070091C8A1476381F4028147194724
:104F200081462686DD45EDB55D45EFE01F87B70775
:104F300000200A059387C70A5DB783D76197139747
:104F40002700B70700209387C70AFDBEE30B04BC08
:104F5000B7B501009385C56A21B9814713870197C9
:104F600089451546B306F70088226311B504EFB2F0
:104F70008FDA0D4798A283C6E19851463707002083
:104F8000B386C6021307070F92070D468145369771
:104F900058438146BA97CA2701472396A196EFF056
:104FA0009FB20547A382E1966FB02FD98507E39B97
:104FB000C7FA0547A382E19682808147138701974C
:104FC0008D451546B306F70003C80600631FB802F7
:104FD000EFB26FD4094798A283C6E198D14537074D
:104FE0000020B386B6021307070F92072A86814571
:104FF000369758438146BA97CA270147EFF0BFACAE
:105000000947A386E1986FB04FD38507E39CC7FAA1
:105010000947A386E1988280EFB2EFCC138901990A
:10502000032509005D71B7040020EF60004513847B
:10503000E1989384040F29CD032509009389819673
:10504000014693858196EF60E02C85472A8A63119B
:10505000F5041389D19803C609008345090037B5C3
:1050600001001305056BEF10B15703C71900930733
:105070000008631FF7000347090089476308F70624
:105080008D47630AF70E09E703C50900EFF08FC8E3
:105090001C205147B387E70213890197854A130BF8
:1050A0000008BE94C040B754002013850486EFB0BA
:1050B0002FE4930B04055C40638E57116384071043
:1050C00009476389E7141C2089E741040509E39433
:1050D0008BFE1387A1961C23A946850793F7F70F2C
:1050E00063EAF6241CA361616FB0AFC383C70900F4
:1050F0006381470581CF638CE7040D47E39AE7F8A6
:1051000083C75196B5C3EFF08FD559B793875196A2
:10511000982301C723800700A5BF1C205147230007
:105120000900B387E702A697A82BEFF0EFB608A017
:1051300085B713875196142389E61CA3EFF00FB8A7
:1051400081BF8D472300F900EFF03FE191B783C79E
:10515000519681C7EFF04FCB25BF1C205147B38735
:10516000E702A697C827D1B71C205147B387E702AB
:10517000A697E8275DBF83C709001547E36AF7F0E4
:105180006D678A071307870ABA979C43828715457C
:10519000EFF0BFE2F5BD1945E5BF01478146054681
:1051A00003D5C1968145EFF01F92DDB501478146D9
:1051B0000946FDB7014781461146DDB701478146E3
:1051C0001D46F9BF144430200C3013850486EFB01F
:1051D000BFB0D5BD8349240014440C304E861385DE
:1051E0000486EFB07FAF4A249306A101014613075E
:1051F000B1016C08EFF03F8D6C0813850486EFB0A9
:10520000FFB69375F50FB305BB40C20574084E8613
:10521000C18165BF034A240014440C3052861385B3
:105220000486EFB07FAB034709008D474A2421462F
:105230006303F70001461307B1019306A1016C084F
:10524000EFF07F886C0813850486EFB03FB283C708
:10525000D1989379F50FD5C70347090063F3EA0A9C
:1052600093970901C183B30DFB40C20D894693DDBD
:105270000D016311D70403C7519641C783C6A19698
:1052800015476360D70813066AFF4206BE862D479E
:105290004182EE85138504863EC6EFB08FC18145FD
:1052A00013850486EFB0DFBD854513850486EFB016
:1052B000DF93B247834609000D476394E604034732
:1052C000B10113066AFF4206418263115707834505
:1052D000A101E9572D478505B385F50299469385C8
:1052E0000508C205C18113850486EFB08FBC8945CE
:1052F00013850486EFB0DFB8854513850486EFB0CB
:10530000DF8EB3053B41C20574085286C181138507
:105310000486EFB07F9C138504868545EFB05FB6A9
:10532000814513850486EFB05F8C71BB2D47BE8627
:10533000EE8555BF230007007DB3EFB22F9C7C455F
:10534000032A0507832A450703A9070083A9470005
:105350003C45232C2505232E35059843DC432A8420
:1053600038D17CD15286D6864A85CE85EFF050154D
:105370006357A000232C4405232E540529A8032A93
:105380008406832AC4064A855286D686CE85EFF0E7
:10539000101EE34105FE6FB0AF99EFB2CF971384B3
:1053A000F5FF8547AA84133414006396F5005C4129
:1053B00099E3EFF09FF8C0C06FB02F98EFB22F9332
:1053C000B2892A842E89368A36862E85BA86CE857B
:1053D000BA8AEFF0F00E635B05085C4023242407D3
:1053E0002326340723284407232A5407C1C36444CF
:1053F0005285D68503AB040083AB44005A86DE8613
:10540000EFF0F016635B050223A0440123A25401D0
:10541000032A8405832AC405032904078329440732
:1054200052854A86CE86D685EFF090096354A00255
:10543000232C2405232E340515A85A86DE864A859A
:10544000CE85EFF0F007E355A0FC23A0240123A2B2
:1054500034017DBF032984068329C40652854A8608
:10546000CE86D685EFF0B010E34405FC6FB0AF8B6D
:10547000EFB2EF87B2892A842E89368B2E850146BA
:105480008146CE85BA8B3E8AC28AC684EFF0300E42
:105490006344050C014681465A85DE85EFF0300DE8
:1054A000634C050A014681465285D685EFF0300CE3
:1054B0006344050A04C44848FD1493B4140023202F
:1054C000640323227403232444032326540304C0C7
:1054D000232C2401232E3401EF00A164B7C701005F
:1054E00003A607FE83A647FEEFF040222A86AE867B
:1054F0002A8CAE8C5A85DE8523282403232A340384
:10550000EFF0501208DC4CDC2A8BAE8B5285D6852E
:105510006286E686EFF0801F584428C06CC085473D
:105520002A8AAE8A631AF7024A86CE8601458145E9
:10553000EFF0D05A08D84CD85A86DE86014581450E
:10554000EFF0D05908DC4CDC5286D6860145814507
:10555000EFF0D05828C06CC06FA0FFFCEFA2BFFBDB
:105560005C412A84AE8485CF5C45638AB7021059BA
:10557000545981450145EFF07056105C545C08D8D1
:105580004CD801458145EFF070553040744008DC3F
:105590004CDC01458145EFF0705428C06CC044C418
:1055A0006FA0BFF9EFA29FF5BE89B7C701003A8986
:1055B00003A787FD83A7C7FD2CC5B2557CD99307E8
:1055C000400670C534C938D95CC92322050023249C
:1055D0000506232605062A84428AC68AEFF01FF8AC
:1055E0008257A25812585687D286CA854E8622857F
:1055F000EFF01FE85848D147998F1CC86FA05FF3A0
:105600006359B004EFA29FEF2A842E85AE84EF0089
:10561000414A2A894848AE89EF00A1502A86AE86C1
:105620004A85CE85EFF0800E2A89AE892A86AE861D
:10563000085C4C5CEFF0007F08DC4CDC28406C40E0
:105640004A86CE86EFF0800C28C06CC044C86FA09C
:105650003FEE8280EFA23FEC0145EF2050501DC18C
:10566000138781991C239306B003850793F7F70FDF
:105670001CA363F9F6009387419994432300070024
:10568000850694C36FA07FEB03A541999307C003E0
:105690003375F502828003A541999307C003335502
:1056A000F5028280EFA23FE72A8413056003EFE052
:1056B000CF8CB755000023AAA1988D460546938547
:1056C00045652285EF3030776FA03FE7B71702407E
:1056D0009843B706FFF841111367170098C3D843E2
:1056E00037060200758FD8C39843B706F7FEFD163C
:1056F000758F98C39843B706FCFFFD16758F98C346
:10570000D843B70681FFFD16758FD8C39843B706F7
:1057100000ECFD16758F98C33707FF0098C723A6C6
:10572000070202C402C69843C166558F98C3B716D4
:10573000024005679C42F18F3EC6A24785073EC4E2
:10574000B24781E7A247E397E7FEB71702409C43C1
:105750001397E7006357070685473EC632478547DC
:10576000631FF704B7170240D843B706C1FFFD1601
:10577000D8C3D843D8C3D84313670740D8C3D84346
:10578000758FD8C3D843B7061D00558FD8C398432B
:10579000B7060001558F98C3984393166700E3DD61
:1057A00006FED843B7160240719BD8C3D84313678F
:1057B0002700D8C32147DC42B18BE39EE7FE4101BD
:1057C000828002C661BF371602405C429146B18BAF
:1057D000138701826385D700A1466388D702B71774
:1057E0007A00938707201CC3B7170240DC439183DC
:1057F00093F6F700B70700209387C721B697942345
:105800001C43B3D7D7001CC3828054425042C167A7
:10581000C982BD8A7D8E9387260085CABD4663896D
:10582000D702C1466389D702C54581466393B70055
:10583000C1470DE63746024003260680418A15C659
:1058400037167A00130606202DA08146C947D5B722
:105850008546B547F9BF8146BD47E1BF37160240CF
:1058600050429315E600E3DD05FC37163D001306B4
:105870000690B387C7021CC3A5DA1C438583A5B76E
:10588000EFA27FC9EFE03FC0EFE09FBDEFE02FCC7C
:10589000084101478D4605468145EF60F05FEFD036
:1058A000FFD913351500EFF0FFDF0565130585BB44
:1058B000EF60E05AFD240841EF60000D0545EFD090
:1058C000DFED01E50D45EFD05FED85471384C1990C
:1058D000631AF502EFB05FD50841EF60E00A0840B7
:1058E000EF60800AEFF04FF3EFE06FC60841014729
:1058F0008D4605468145EF60305A13054006EF603E
:105900000056CDB703A5019AC9BFEFA2DFC0EF20B3
:105910008010EF80B01919C1EFC0AF890545EF6065
:105920000054F5B7B78700209387074B1CC1B78792
:105930000020938707CB9CC1930700101CC2828074
:10594000B7870020938707591CC1B787002093872A
:10595000070B9CC1930700101CC28280EFA2BFBB43
:1059600003A5019AEF60605E03A5C199EF60E05D59
:10597000EFB09FCB0841EF60405D25240841EF6008
:10598000C05C6FA09FBBEFA21FB9EFD02F8F2A84FE
:1059900037580020B7570020B7C501003735000041
:1059A0001308081B938707DB114785461306001071
:1059B000938585FE1305451FEF50B07208C0EFB008
:1059C000BFC62A8437780020B7770020B7C501000A
:1059D00037150000130808D1938707B1154785468E
:1059E000130600089385C5FE1305E572EF50706F2E
:1059F00008C0EFE0CFB52A8437680020B7570020F1
:105A0000B7C5010037450000130808F6938707471C
:105A10001D47854613060020938545FF130545D590
:105A2000EF50306C08C0EFD00F852A843758002023
:105A3000B7570020B7C5010037350000130808D557
:105A4000938707951947854613060010938585FFB0
:105A5000130545E8EF50F06808C03778002037C4D8
:105A60000100B7670020374500009305C4FF130805
:105A700008AB154785461306C02B938707FC130513
:105A8000453FEF50106623AEA198212AAA843778AB
:105A90000020B7770020B7C5010037650000130864
:105AA00008F7938707D7154785461306000893859F
:105AB0004500130545C5EF50D06288C037780020F7
:105AC000B7770020376500009305C4FF1308087DF1
:105AD000938707FD15478546130600201305A590FB
