:100000006F30704613000000130000001300000062
:100010001300000013000000130000001300000094
:100020001300000013000000130000001300000084
:08003000130000007300100032
:100038000000000000000000B4260000B826000000
:1000480000000000AC3B00000000000000000000C1
:10005800AE3B0000B03B00000000000000000000C4
:100068009076000000000000000200000000000080
:10007800B63B0000B83B0000BA3B00002264000019
:10008800BE3B0000C03B0000C23B0000C43B000078
:10009800C63B0000C83B0000CA3B00009A5700005E
:1000A80068580000D03B000036590000045A000090
:1000B800D63B0000D83B0000CC530000DC3B0000DE
:1000C800DE3B0000E03B0000E23B00003E27000072
:1000D800E63B0000E83B0000EA3B0000EC3B000088
:1000E8009E280000F03B0000D46A00007E5F0000FC
:1000F8004C60000018610000E66100000267000023
:10010800FA670000AE7100007C7200004A730000BC
:10011800063C0000083C00000A3C00000C3C0000C3
:10012800A26B0000103C0000123C0000143C0000D0
:10013800163C0000183C0000706C0000FA680000D3
:1001480018740000203C0000223C0000243C000001
:10015800263C0000283C00002A3C00002C3C000003
:100168002E3C000012280000323C0000343C000005
:10017800363C0000383C00003A3C00003C3C0000A3
:100188003E3C0000403C0000423C0000443C000073
:10019800463C0000483C00004A3C00004C3C000043
:1001A8004E3C0000503C0000523C0000543C000013
:1001B800563C0000583C00005A3C00005C3C0000E3
:1001C8005E3C0000603C0000623C0000643C0000B3
:1001D8000000000000000000000000000000000017
:1001E8000000000000000000000000000000000007
:0801F8000000000000000000FF
:10020000130181F806C216C41AC61EC822CA26CC1B
:100210002ACE2ED032D236D43AD63ED842DA46DC76
:100220004ADECEC0D2C2D6C4DAC6DEC8E2CAE6CC46
:10023000EACEEED0F2D2F6D4FAD6FED8F3220030CF
:1002400096DA83A2C19823A02200F32510342EC091
:100250009305000273A0458003A14187EF80E07BF6
:1002600003A3C19803210300824273901234D65233
:10027000739002309240A2423243C2435244E2445D
:10028000724582551256A2563257C2575258E258FA
:1002900072598649164AA64A364BC64B564CE64C0E
:1002A000764D865D165EA65E365FC65F13018107DA
:1002B0007300203013000000130000001300000042
:1002C00013000000130000001300000013000000E2
:1002D00013000000130000001300000013000000D2
:1002E00013000000130000001300000013000000C2
:1002F00013000000130000001300000013000000B2
:1003000083A24187938202E07390023403A1C198D3
:10031000024182403243C2435244E2447245825514
:100320001256A2563257C2575258E258725986494D
:10033000164AA64A364BC64B564CE64C764D865D61
:10034000165EA65E365FC65FD652A102739002307B
:10035000A2421301810782801300000013000000F5
:100360001300000013000000130000001300000041
:100370001300000013000000130000001300000031
:100380001300000013000000130000001300000021
:100390001300000013000000130000001300000011
:1003A0001300000013000000130000001300000001
:1003B00013000000130000001300000013000000F1
:1003C00013000000130000001300000013000000E1
:1003D00013000000130000001300000013000000D1
:1003E00013000000130000001300000013000000C1
:1003F00013000000130000001300000013000000B1
:10040000F322003093F272FF130380781203B3E2F9
:100410006200711523205500130585FA10C12115BE
:10042000232005009302000063870200711523203A
:100430000500FD12D5BF71150CC1828000000000BF
:1004400000000000000000000000000000000000AC
:10045000000000000000000000000000000000009C
:10046000000000000000000000000000000000008C
:10047000000000000000000000000000000000007C
:10048000000000000000000000000000000000006C
:10049000000000000000000000000000000000005C
:1004A000000000000000000000000000000000004C
:1004B000000000000000000000000000000000003C
:1004C000000000000000000000000000000000002C
:1004D000000000000000000000000000000000001C
:1004E000000000000000397101436EC619A0397187
:1004F00041536AC866CA62CC5ECE19A039710153F5
:100500005AD056D252D44ED64AD826DA22DC06DE4B
:1005100033016140828241114AC026C222C406C60C
:100520008282B24D4101024D924C224CB24B4101AC
:10053000024B924A224AB249410102499244224462
:10054000B240410182803D432A876373C30293779F
:10055000F700BDEFADE5937606FF3D8ABA960CC372
:100560004CC30CC74CC74107E36BD7FE11E2828036
:10057000B306C3408A069702000096966780A600DD
:100580002307B700A306B7002306B700A305B700EB
:100590002305B700A304B7002304B700A303B700E3
:1005A0002303B700A302B7002302B700A301B700DB
:1005B0002301B700A300B7002300B700828093F5A2
:1005C000F50F93968500D58D93960501D58D61B76E
:1005D000939627009702000096968682E78086FA17
:1005E0009680C1171D8F3E96E374C3F8A5B7EFF24E
:1005F0009FF21C418145902B834785034859330660
:10060000F6020E06893715BFA1471CA11385419E2E
:100610008280EFF25FF03687AE84B286B7150000B5
:10062000371600004111130606129385451F2A84D0
:10063000EF00705C1305F100C13F9087B716000012
:10064000AA852687938606DD2285EF00B012410138
:10065000EDB5AA959C218831A2073E9542054181BE
:10066000828001458280EFF21FEB9C21AE842A84B8
:100670001CA19C311CB1BC213CA1BC313CB1DC2192
:100680005CA1DC315CB1FC217CA1FC317CB19C25FE
:100690001CA59C351CB5BC253CA5BC353CB5DC2552
:1006A0005CA5DC355CB5FC257CA5FC357CB59C29BE
:1006B000C5451CA92685713F2AA8CD452685513FF1
:1006C0004AA8D545268571376AA885BD10410348DB
:1006D000C5001C223307B8001377F70FB3D60741C4
:1006E0009D4763ECE70093F7F60F58A57D5533154A
:1006F000B5001345F5FF7D8D8280930716001CC160
:100700001C32214633060641B397C700D58F6117C7
:1007100093F7F70F1377F70FC9BFEFF2DFDF2CD195
:1007200083458507930405062A8423060506268546
:10073000713F834594072305A4062685413F8347DF
:100740002409A305A4062307F40693B71700A307FB
:10075000F406E5B3EFF23FDC2E848D3F7D14854730
:10076000B39787001D8D62056185C1BB8547638C8A
:10077000F60091C68947638AF6000D8D11A0329567
:100780004205418182802E95E5BF118DD5BF8547F9
:10079000638CF60091C68947638AF600329511A0F2
:1007A0002E95420541818280118DE5BF0D8DD5BF0B
:1007B000EFF27FD3834485060349950641112A84CD
:1007C000AE89328B834BA40693FAF90F338A9B4090
:1007D000137AFA0F63743A01937AFA0F0347040706
:1007E000939C8401131C89010355440693DC8C41BE
:1007F000135C8C41BA866286E6853AC6493F324729
:10080000835D64066286BA862A8DE6856E85B93F69
:100810002A86324763080B028347E4062309F4085B
:10082000D686EA8522859D21CE9493F4F40F63E168
:100830004903B3847441050993F9F40F1379F90F4F
:10084000814449B78347D406E5F38347F406F9B7F3
:1008500023049406A30484074101E1B1EFF23FC9E8
:100860002A84130A0506553D8345A407528583094A
:10087000B406CD358345B4072A8C5285E13D8345C6
:10088000C4072A8B5285F9358304A406AA8A635DBE
:1008900090084E9B834B0407330B6041035544067D
:1008A000620B135B8B41DE865A86E285CD352312BF
:1008B000A4062A89035564065A86DE86E2857D35BC
:1008C0002313A40685472A86638CFB0663800B06E8
:1008D00089476387FB088D47638BFB0A2A87CA8693
:1008E000CA852285C92129C12314040683456407CA
:1008F0005285E93B834574072A895285C13BAA8406
:100900000146CA8522856D35A685228505464D3569
:1009100085455285653B6DF583079406E3C837FD31
:100920008347E4062309F4085685F5BECA949396D6
:100930000401B304350113970401C18241834DB70B
:10094000B3073941AA9405099316090113970401C5
:100950008507C1824183139907011359090149B7DA
:100960000547B3049740B307990033073741930411
:10097000190093960401B305E5009304150013973D
:10098000040113960501C18241834182E9B7B30492
:10099000954013061500B3063901850413170601A7
:1009A000C20613960401C1824183418215BF3C4DAA
:1009B0001307F00FDD076368B70213070006637DB6
:1009C000B70003578508BA97983335C39423E39C3F
:1009D000B6FE13852700828013070004E376B7FE76
:1009E00003576508CDB7EFF21FB30354A508AE84D3
:1009F0003E94228981454A85A9392A9489454A85A8
:100A000089391109E36895FE1C301820A207D98F97
:100A100013978700A183D98FC207C18399CB6395B0
:100A2000F4001305340011BE3C203E94F1BF014593
:100A300082800145CDBFEFF21FAE2A848D3F0DC5E8
:100A4000AA852285D9398345A407930404062685FF
:100A500011338345B4072308A4082685E539834567
:100A6000C4072685C539D1BC0145F5BFEFF23FA8C3
:100A700023050506AA84AE8AD92BC167130900FC99
:100A8000014A0144138BF7FF9389E7FF930B00FCA6
:100A900083C50A00DC4026858297AA856303650327
:100AA000850AE30735FF26857937131A0501135A9E
:100AB0000A016314790103890409529442044180B4
:100AC000C1BF8387A40691CF03870409BA973E94D8
:100AD0003304444142044180635520014A94420456
:100AE0004180228589B4A306B5068280EFF21FA15A
:100AF0008347050705472A842E89B284B689638E09
:100B0000E70295C709476382E7040D476383E7045B
:100B1000CE8523122407231394062285493DAA85F6
:100B2000014589C522851D3B4205418111B47C4D9B
:100B30008297AA94C204C180E1BF7C4D8297330999
:100B4000A940420913590901E1B77C4D8297898C6C
:100B5000D5B77C4D82972A99EDB7EFF25F9941693D
:100B6000AA8C2E84B284B689130AF9FFCD21014CD8
:100B70007919854A094B8D4B83A74C0083C5090021
:100B800066858297AA86630345058509E30625FFE6
:100B90002686A2856685993F83C70C076380570325
:100BA00091CB63816703638177032A9C420C135CBA
:100BB0000C01D9B72A9442044180C5BFAA94C2044B
:100BC000C180E5B7098CC5BF898CD5BF6285A1BA44
:100BD000EFF27F94B7170000938747FB5CC1B53FE6
:100BE0006FF0BF953C4DA9CB030615088306250879
:100BF0008347D5082307C508A307D50895CF054720
:100C0000639FE700830735086354F6002307F50860
:100C10008307450863D2D702A307F50882808307BC
:100C2000E50703070508BA976354F6002307F5089C
:100C30006354D700A307E5088280B70700009387B5
:100C400027667CCD8280384D630DB700EFF2BF8CF4
:100C50002A842CCC130545073934228561376FF07F
:100C6000DF8D8280EFF23F8BB7170000938747FB41
:100C70005CC1ED3B6FF07F8CEFF2FF897E3D1D8EF6
:100C80005C554206418282976FF03F8B8347C508CF
:100C9000C1CBD9C6854763F9D70089476317F706E3
:100CA0008505958DC205C181058B25EF8357C50448
:100CB0006368F6068357E5046374F606AE96C206CB
:100CC000C182835785040358A50463F9B60463F60B
:100CD00005059306F8FFC206C18263F3D704BE88F8
:100CE00063F3B700AE8893950801C181C28763F3AF
:100CF0000601B687B386B740C206C182EFF2BF8154
:100D00001C599C4782976FF05F838D47E31EF7F86D
:100D10000506158E4206418241BFBE85E3EF05FB05
:100D2000828083578504E3EDF5FE8357A504E3F93C
:100D3000F5FEB296C206C1828357C5040358E50486
:100D400063F9C602637606039306F8FFC206C18202
:100D5000E3F8D7FCBE8863F3C700B2881396080196
:100D60004182C28763F30601B687B386C74069B77D
:100D70003E86E36F06FD6DB7894763E5B70023093B
:100D8000B508828085472309F50882806379B6001B
:100D900085476364D500B3B7C6003E858280E36CA7
:100DA000D5FE8147DDBFEFF20FF72A84AE8483556D
:100DB000E5040355C5043689BA86C93F01C9835580
:100DC000A40403558404CA862686C9376FF0EFF65B
:100DD00003432509937876008547339817011378E4
:100DE000F80F014E63E56700428E6309F3040323A5
:100DF0000500619A5C59034303013306660242060B
:100E00004182B295BE950DCF05479C218508FD1600
:100E1000B367FE00B347F800C2069CA193F87800C0
:100E2000C18263900804323D83472509B29563650A
:100E3000F700054E638EE70205481DA8014845BF2F
:100E4000AE96C206C1829C218505B367FE00B347FA
:100E5000F800A38FF5FE93970501C183E395D7FEB4
:100E6000828093171E00060813FEF70F1378F80F01
:100E7000C9FE8280834585031441834895031397F7
:100E800005014183931737005EBD9C2A1398080122
:100E9000135808018E073EBD931738007EBD903A67
:100EA000C6956356B60033070641420741830E07D5
:100EB0002310F504BA972311F504DE2A2312F50452
:100EC000FE2A2313F5048280EFF2EFE465376FF01A
:100ED000CFE6EFF24FE44D336FF02FE6EFF2AFE3E2
:100EE00003576505835625050356450583550505B6
:100EF0002A84553D09E5230604086FF00FE4854771
:100F00002306F40803578404835704056374F70029
:100F10002314F404835724050357A40463F4E7005F
:100F20002315F404835744050357C4046374F7007E
:100F30002316F404835764050357E404E3FFE7FA38
:100F40002317F4045DBFEFF20FDD035745042314AC
:100F500005042315E504384178C549376FF0EFDD06
:100F6000EFF26FDB1C59417738C9DC4378C98297AF
:100F70006FF0AFDCEFF22FDA93071010230CC502ED
:100F8000A30C0502A3060506A3060508A308050889
:100F90002319F5081C4354D54CD918D9232C050422
:100FA0002A84829722856D3F2285413923080406D1
:100FB0006FF0AFD8D1C9A9476388F5080347650228
:100FC0002DE79307B00F63FAB70095472303F502A7
:100FD00085890EB1C165F915B9A09307700F63F744
:100FE000B70091472303F5028D89E5B79307F00E0B
:100FF00063F7B7008D472303F5029D89D9BF930797
:10100000F00D63F7B70089472303F502BD89D1B717
:101010009307F00B63F7B70085472303F502FD89BB
:101020004DBFC205C1812E8582801E3193F5F50327
:101030007D179A07DD8DC2051377F70FC181230352
:10104000E5020EB16DD379B7C165FD15E9BF230384
:1010500005028280EFF22FCC1C492E868146930533
:10106000000282976FF06FCDEFF2EFCA1C49B28693
:101070002E86DD4582976FF04FCCEFF2CFC941113C
:10108000CC871306F1008545C53741016FF0EFCAE3
:10109000EFF26FC85C452E868146D54582976FF08A
:1010A000CFC9EFF24FC75C45B2862E86DD458297E9
:1010B0006FF0AFC8EFF28FC44111AA842E845D494E
:1010C000E549130AE00FD54A0C20638C25036367BA
:1010D000B90063F0550341016FF08FC563FBB9029E
:1010E000E39B45FF1030930590022685D087E924C5
:1010F00039A01030DC448146D087268582970904C8
:10110000E1B71C301306F10085452685DC87513F89
:10111000FDB7DC44814601462685050482976DB7FC
:101120009387C5FE93F7F70F15476362F704EFF255
:101130008FBE35678A0713070732BA979C43411160
:101140003289AE842A84828781452937CA852285DF
:101150002D37054541016FF04FBE854536C6DD3D53
:10116000B2461C484A86A68522858297E5B7014586
:101170008280EFF2AFB82E84CC212A89B2898E0505
:1011800093F5F50393E50504213783C569004A8586
:1011900093E5850BF53D7C20A1CF542058309387F3
:1011A000860093F7870F958F93F7F70F9375F70FD7
:1011B00063F4E70093F5F70FAE960D8F10408E05A0
:1011C00093F4F50FA68554A058B04A85D93D0C403C
:1011D0005C30AE9404C091EB83A709001CC083C7A8
:1011E00049005CB07C20FD177CA05C209D8BC5F77E
:1011F0006FF00FB4EFF22FB2A94741112A84638C2C
:10120000F50863EAB700A5476381F50881442685A0
:1012100041016FF08FB2AD476381F50CBD47E39795
:10122000F5FE9C423689D4323EC48357490050872C
:1012300013978700A183D98F7C869D4763E1D702EE
:101240005C4581460546E14582974A862C00228509
:101250000D375C4481460146E54522858297188614
:10126000BD478544E3E5E7FA5C4481460946E1452C
:10127000228582974A862C002285E53D5C44814682
:101280000146E5452285829759B7B5659385853333
:1012900065208544ADBF75205C4481460546E14527
:1012A0002285829793858183228529355C448146F6
:1012B0000146E545228582975C44E1458146094621
:1012C00022858297938581832285ED335C44814614
:1012D0000146E545228582976DBF5C4581461DE646
:1012E0000546E14582979385C1832285E1335C44BD
:1012F00081460146E545228582975C44E145814669
:101300000946228582979385C1837DBF0546E145C5
:101310008297938501842285713B5C448146014616
:10132000E545228582975C44E14581460946228550
:1013300082979385018449BF0CC1BC292301F50222
:101340008280EFF24F9D5C49814601469305800201
:101350002A8482975C4481460146D1452285829742
:10136000228505469305B00481281C4022859305FB
:101370009002D0239120228501469305B0042D28A8
:101380001C40228593059002D0233D2022850546EE
:101390009305B00415201C40930590022285D0339C
:1013A00021286FF08F99EFF20F971C458146014677
:1013B000A54582976FF06F98EFF2EF955C498146F3
:1013C00082976FF08F9701458280B717000093874F
:1013D000673C1CC55CC51CC95CC9FD5723200500C2
:1013E000A301050223030502232C05002302F502B5
:1013F0002304F5028280EFF20F9241112A842EC657
:1014000032C436C23AC0D137B2452246924602476C
:101410000CC450C414C858C82285713741016FF0FC
:10142000CF913705002013058529828005458280EC
:10143000EFF26F8E854741112A8663F5A7008D472D
:1014400063E6A702B707002083A587293785000038
:101450007400130585A402C6EF80402901C9B24774
:1014600091C7B7E700E0116723A0E72005454101D8
:101470006FF0AF8CEFF22F8AB70700202A8403A504
:1014800087297D57814605468D45EF60C0398547E0
:10149000630FF50011C98947630BF5008D47630899
:1014A000F50005456FF06F8923200400DDBF08C0FB
:1014B000CDBFEFF24F86B707002083A5872A4111E1
:1014C0003785000074000546130585A402C6EF8029
:1014D000E02101C9B24791C7B7E700E0116723A037
:1014E000E72041016FF06F85EFF2EF82B705002032
:1014F00003C7552AB70700209385552A2382E72A78
:10150000B707002003A5C729EF50F03DB70700201B
:1015100083A7872D82976FF04F8237050020130530
:10152000852A8280370500201305052A8280EFE294
:101530009FFE894763ECD700939716001387418479
:101540009386C1843E97BE9612239A2237040020C8
:101550001304C429B286014608C0EF50302A08405F
:1015600037160000B71500000D4785461306264BB9
:101570009385854EEF5010310840EF50302F0545D0
:101580006FE0BFFBEFE23FF937040020AE841304A5
:10159000C42915C90840B70500209385552AEF5086
:1015A00090343715014093050020130505C0EF4026
:1015B0000065B707002003A5872A95C08545EF6021
:1015C000203C6FE09FF7371501409305002013057D
:1015D00005C0EF4080620840EF50B032D9BF0147EC
:1015E000814605468545EF600024E1BFEFE2BFF28A
:1015F0002A843715014093050020130505C0EF40EC
:10160000C05FB707002003A5C7299375F40FEF50FB
:10161000F02B05456FE07FF2B707002083C7472A0C
:101620001CA105458280EFE21FEFB70400203704BC
:10163000002003A5842A7D57814605468545EF6035
:10164000801E8547E317F5FE8327C42D8297D5B703
:10165000EFE27FECB707002083A7072E82976FE0A9
:10166000DFEDEFE25FEBB716000095652A86954740
:10167000054793860665938575C90D45EF5020771C
:1016800005456FE09FEBEFE21FE90D45EF5060412C
:101690006FE0BFEAEFE23FE80D45EF50406A6FE0D0
:1016A000DFE9AA95C205356635681307F00F930682
:1016B000F00FC1811306063513080845931705017D
:1016C000C1836396F50013958600598D82800505C8
:1016D0008347F5FFB98F3307F6001823C297358F7C
:1016E0009423E9BFEFE23FE3B2842E852146A6852D
:1016F0003D3D8547631EF5029567938707B0130448
:10170000300263E8970037141602130404EC3354D4
:10171000940237D50000A2851305055AEF90700694
:10172000131504014181353F054781476303E500F7
:101730008D473E856FE07FE0EFE2FFDDB7070020D9
:101740008145054523A6072A353D353F6FE0FFDE7D
:10175000EFE27FDC8145014535352D3F6FE0FFDD50
:10176000EFE2DFD9370400201304842B1E20130777
:10177000F00F41116371F702B7D60000356637D517
:1017800000009386865A130606559305D009130563
:10179000055DEF9040011E200D476366F70015457B
:1017A00041016FE0FFD82E890E20AA89938441DE83
:1017B000138541DE32C6F5357DF19C203246850425
:1017C0002380F9001E20F5171EA223209900C9BF0F
:1017D000EFE27FD4B707002083A4C72A8547639C24
:1017E000F406370400201304A42B06A0AA87A38FB5
:1017F000F5FE1E201385F5FF370700203E964206B2
:10180000418212A00E20232AA72A613D1A20937636
:10181000F50F21814207418393071700C207C18357
:101820001EA0938741DE3E9714A31A201375F50F6F
:1018300085454207418393061700C206C18216A060
:10184000BA9788A3B7070020014523A8972A1D3B14
:1018500001456FE09FCE1545EDBFEFE2DFCBB70747
:10186000002083A7072B411185C3B7D6000035663A
:1018700037D500009386865E130606569305B00E94
:101880001305055DEF8030721305F1007133B70762
:1018900000209387C72A98438546630ED70019C74F
:1018A00089466301D7048D476313F700E93B01457F
:1018B00041016FE09FC8B70600209386862B2390D6
:1018C00006009A22131607014182130716004207E9
:1018D00041839AA29487138741DE329714A3094764
:1018E00098C3E9B7370700201307872B1623130681
:1018F000F00F6361D6021E2393960701C18293877E
:101900001600C207C1831EA39887938741DEB6974E
:1019100098A369BF0D47E9B7EFE2FFBFB707002003
:1019200083A7C72A05476381E702B7D6000035665B
:1019300037D50000938686661306465793058012B6
:101940001305055DEF803066B70400209384042BF7
:10195000984019C7630BF700014422856FE0FFBD73
:1019600081450545EFF01FC2C5BF370400201304B1
:10197000A42B1E20C207C1839DC3B70400209384FB
:10198000442B9C408823620561858D319C408507EE
:101990009CC01E20FD17C207C1831EA075BF0D4548
:1019A000EFF01FA92A8481450545EFF0BFBD23A0B4
:1019B000040065B7EFE23FB6B70700201387C72AD8
:1019C0001443094641111384C72A638FC6028D4709
:1019D0006387F604014595CA1443B1C2144363807A
:1019E000C604184301456304F702B7D60000356604
:1019F00037D5000093864660130686589305201657
:101A00001305055DEF80305A0545EFF07FA22AC629
:101A10005131324585471CC041016FE01FB201457D
:101A2000FDB7962115476398E60858213031930693
:101A3000E07C2207518F131687002183598E4206BE
:101A400041821307F6FF42074183AA870D4563E6EB
:101A5000E606EFE25FACB82394332390050022073B
:101A6000558F854694A396219354360093F4F40F32
:101A7000850696A19376760081C6850493F4F40FCB
:101A800084B396212E8413852700850696A193158D
:101A9000870021834D8F93051700C2058146C181C0
:101AA000EF10900A01C5092B6FE03FA91E200145E8
:101AB000BE9406A0D5BF0D45828082809A219547AD
:101AC0006311F70658218D4731EF38311306D00FD7
:101AD0009306F7FF93F6F60F6376D604EFE2BFA303
:101AE0003C210C314111A207CD8F93958700A18332
:101AF000CD8F93851700130717F0C2051337170012
:101B000085460546C1816800A30601005886EF108E
:101B1000B003814719C14D21AA873E8541016FE07D
:101B2000DFA18D473E85828096211547637FD706CA
:101B300058213031AA872207518F1316870021833D
:101B4000598E4206418213573600937676001377FA
:101B5000F70F81C605071377F70F9306F6FFC20646
:101B6000C1821308F07A0D456363D804D4336390BF
:101B7000E604EFE25F9AB8232E848C3322071385A4
:101B800067004D8F931687002183558F05079315A6
:101B900007018546C181EF10207B01C531296FE027
:101BA000DF9995471EA00145DDBF0D4582808280EB
:101BB000962115476397E608582130319306E07C5B
:101BC0002207518F131687002183598E42064182C6
:101BD0001307F6FF42074183AA870D4563E5E60632
:101BE000EFE27F93B8239433239005002207558FAB
:101BF000894694A396219354360093F4F40F8506F6
:101C000096A19376760081C6850493F4F40F84B38D
:101C100096212E8413852700850696A193158700AB
:101C200021834D8F93051700C205C181EF1030004D
:101C300001C559266FE07F901E200145BE9406A085
:101C4000D5BF0D45828082809A219547631CF7029B
:101C5000EFE27F8C3C210C318546A207CD8F939516
:101C60008700A183CD8F93851700C2050546C181EA
:101C70000D05EF10605D814719C13D2EAA873E8595
:101C80006FE0BF8B8D473E858280EFE2DF889A212F
:101C9000954463F7E4065821303193067007220714
:101CA000518F131687002183518F1316070141822C
:101CB0001307F6FF42074183AA870D4563EDE6024D
:101CC000D433131716001377F70F6396E602B82381
:101CD0002E848C332207138567004D8F931687005F
:101CE0002183558F0507931507018546C181EF10A4
:101CF000A05501C5D1246FE05F8406A00145E5BF72
:101D00000D45D5BF96211547639AE606EFE2BF80E1
:101D100054211306C007AA8793940601C180138734
:101D2000F4FF420741830D456362E6042E84B82325
:101D30008C332310040088A3122086062207050690
:101D400012A04D8F94B393158700162021834D8FD9
:101D5000930517008506C20516A026868146C18117
:101D600013852700EF10404E01C5B9246FE0EFFC4A
:101D70001E2086040145BE9406A0CDBF0D4582807D
:101D80009A21A54763F2E70EEFE24FF75C21383165
:101D90002A84A207D98F93998700A183B3E7F9001A
:101DA0009399070193D909019387F9FFC207C1836A
:101DB0001307C0070D456367F70A1C24703013072B
:101DC0008007A207D18F13968700A183D18F139626
:101DD000070141829307F6FFC207C1836364F708D6
:101DE000183493171600639FE70624202E890C30C1
:101DF000A2047C20CD8C4C30A2078546CD8F9395D4
:101E00008700A183CD8F93851700C205C18113057B
:101E1000A400EF10604339E923100900DD471CA03E
:101E200083570900139A190093958400850723109E
:101E3000F900A300440183570900A180CD8C93854C
:101E400014008507C2052310F90081464E86C18122
:101E500013052400EF10403F11E9835709003E9A13
:101E6000231049016FE0CFEC01458280B122DDBF34
:101E7000962115476390E608582130319306B00744
:101E80002207518F131687002183518F13160701E4
:101E900041821307F6FF42074183AA870D4563ED90
:101EA000E604EFE24FE72E843E858C331147BC23D6
:101EB0002310040018A11A20A20793141600050786
:101EC0001AA004B1CD8F939587001A20A183CD8FDE
:101ED000938517000507C2051AA0C1810905EF10F7
:101EE000603401C5D1286FE04FE51E200145BE9446
:101EF00006A0D5BF0D4582808280EFE2CFE1B70713
:101F0000002003D4C72BAE842286938541EE0505BD
:101F1000EF80700F050482A001456FE00FE2A1473A
:101F200063F3C702EFE22FDFB7D60000356637D57F
:101F300000009386466913064668930580031305DF
:101F4000456AEF80500613D7350093071700330812
:101F5000E5003E958547B397C700FD17C2070E07FA
:101F60003387E540C183B397E70018210346080093
:101F700093C7F7FF2207518F9D89F98FB396B6005B
:101F8000DD8EC206C1862300D800C206C182A182AE
:101F900014A1828093D735003E951C3108219D897C
:101FA000A207C98F05453315C500B3D7B7407D15C6
:101FB0007D8D1375F50F82809D4763E7A70093879A
:101FC0004185AA978823828011458280EFE2AFD4B1
:101FD0009388F5FF93F8F80F9307600F63F61701E6
:101FE000094422856FE06FD52382B1802E886DF978
:101FF000B687B7160000B285938686733706002031
:102000002328D62CB71600003706002093860675C5
:10201000232AD62CB7160000370600209386067DAB
:102020002324D62CB71600003706002093860676A8
:102030002322D62CB706002023A6062CB7260000A4
:10204000370600209386A685232CD62CB7260000C1
:102050003706002093868691232ED62CB7260000C3
:10206000370600209386469B2320D62E4285BA86CB
:102070003E86EFF02FE72A842DF5EFF02FBB19C530
:10208000B7070020054723ACE720A1BF0D4491BF4F
:10209000EFE26FC8370400201304842118408547FD
:1020A0001945631AF700B707002083A7072D829709
:1020B0000145232004006FE04FC8EFE2CFC5B7070A
:1020C000002083A7872141111944639B070E6800F4
:1020D000EFF04FBA0547AA876304E5000144CDA09D
:1020E00032476301A70A8946E31AD7FE3704002066
:1020F0000325842EB7060020B70400200C213707E3
:10210000002023A0F42C130607002382B62E81475B
:102110001304842E1389462E9384042C130707007E
:102120004148142281CE6391D50A8E07BA97DC43C9
:10213000B70500209385E52E829788C0B707002059
:1021400083C7C72EC1DF9440B70700209387E72ECF
:1021500085C203470900104085458EA3136707F821
:1021600018A292231840930516008EA3329714A349
:102170009223370700200327872C0C4003C541809A
:102180000297A9BFB707002083A7472C3705002077
:1021900037060020B70500209304C52E1306E62E4F
:1021A0009385852E1305C52E82972A8405F99C20D8
:1021B00003C741806303F70095F30945EFF04FA78C
:1021C000228541016FE06FB785072106E39B07F584
:1021D000B5B7EFE24FB40545EF30201E37040020BD
:1021E0001304A42F931505010420C1850545EF3084
:1021F000602DB727002086049387C708A6978AA377
:102200001C209546850793F7F70F1CA01387818044
:1022100063F8F6040C23373501408546054613055F
:10222000058023000400EF107036370500200325D9
:10223000C52FB70700201384873001479387873065
:1022400085460946814523200400EF6010791C4033
:1022500091C7B7E700E0116723A0E7206FE0EFAD7B
:10226000BA978C2337340140130504808546054610
:10227000EF10D031854513050480EF10B02FF9BF62
:10228000EFE26FA90945EF40902BB707002083A626
:102290000717416779179C42370500200325C52F92
:1022A000F98F9CC2B70700201384473001479387FA
:1022B000473085461146814523200400EF60F071C8
:1022C0001C4091C7B7E700E0116723A0E7206FE04B
:1022D000CFA61307E5FF4207B727002041839306E7
:1022E000603E9387870E63E3E600CAA38AAB8280D1
:1022F000B727002003D5C70E8280411106C622C42D
:102300004AC24EC0EF806021B7D7000003A6076F16
:1023100083A6476F37D40000EF70702CB7D700004A
:1023200003A6876F83A6C76F2A89AE89EF70C05452
:10233000B7D700006348050203A6077083A647705D
:102340004A85CE85EF70B029032684708326C47039
:10235000EF70605DEF802027B2402244124982492D
:102360004101828003A5077083A547704A86CE8607
:10237000EF70F026032684708326C470EF70A05A95
:10238000EF806024D30705F0D397F720538507E04B
:10239000E1B7EFE24F985D71EF20B036A9450145F6
:1023A000EF205037370400202946930504080145E3
:1023B000EF207044A9450545EF20D0352946930507
:1023C00004080545EF203043A9450945EF20903426
:1023D0009305040829460945EF20F04193070010B2
:1023E000B70608007010894501452316F102EF3049
:1023F000801093070002BEC0B72701409387C744EF
:10240000BEC2B71700209387C791BEC485473EDE82
:102410008567938787BB2316F1040C18856713061D
:1024200000020A853EDC02D802DAEF80C03DB72602
:1024300000000A859386062801468545EF3000276F
:10244000B707002003A70717814605461C43B705B9
:102450000E00054593E717001CC33727000013073C
:10246000271DEF30601383C58180373501409D46BD
:10247000054613050580EF1070110545EF10901CFF
:10248000372500201309C5151306007D8145130566
:10249000C515EFE04F8B372400201304840E9304FE
:1024A000803E373500202320240146A01309C59221
:1024B000231404001306007D81451305C592EFE047
:1024C0008F88372700201307870958D08D47372773
:1024D00000205EAC1307C70AB707002018D89387FF
:1024E000472F372700201CCC1307070CA9471EB421
:1024F0005EB82310F40458DC2316F404231CF404FF
:1025000037270020B72700201307470D938787142C
:1025100006A8231A040023262401231004022316EC
:102520000402231C0402231204042318040438C4E4
:10253000231E04047CC861616FE02F8052211E2598
:1025400081469305F6FFC205C18101476317D60096
:102550003345C70242054185828091E3AE87FD176E
:10256000C20703280500C1839398170046980318F3
:1025700008008506C2064297C182C9BFA54763EA23
:10258000A712EFD25FF9B5679387476C0A053E95AE
:102590001C418287372500201305850E4537D377E8
:1025A00005D0DDA8372500201305450F413FD3771F
:1025B00005D0538507E0EF705076B7D7000003A62B
:1025C000877183A6C771EF700036EF70D07FEFF090
:1025D000DFD26FD09FF63725002013050510B93FD5
:1025E000D37705D0538507E0EF703073B7D700007D
:1025F00003A6877183A6C771EF70E032B7D70000DA
:1026000003A6077283A64772EF70E031EF70B07BCC
:10261000C9B7372500201305C5100D37D37705D06E
:10262000538507E0EF70706FB7D7000003A687717E
:1026300083A6C771EF70202FB7D7000003A687725B
:1026400083A6C772D1B73725002013058511F1B7CE
:102650003725002013054512C9B73725002013057B
:102660000513E93DD37705D0538507E0EF70F06A95
:10267000B7D7000003A6877183A6C77171B7372546
:1026800000201305C5135D3DB7D70000D37705D0F3
:1026900007A70771D3F7E710538507E01DBFB707FA
:1026A000002003950730E5BDB707002003A5072FDD
:1026B0000DB782807300203037D5000019711305E3
:1026C000057382FE86FC8AFA8EF892F696F49AF2E8
:1026D0009EF0A2EEA6ECAAEAAEE8B2E6B6E4BAE252
:1026E000BEE042FE46FC4AFA4EF852F656F45AF262
:1026F0005EF062EE66EC6AEA6EE872E676E47AE232
:102700007EE0EF80B019EF70400FAA8537D500004A
:1027100013054574EF80F006EF70800EAA8537D55B
:10272000000013054575EF80D005EF70C00DAA8538
:1027300037D5000013054576EF80B00401A0317154
:1027400006DF16DD1ADB1ED92AD72ED532D336D1B5
:102750003ACF3ECD42CB46C972C776C57AC37EC159
:1027600082FE86FC8AFA8EF892F696F49AF29EF031
:10277000A2EEA6ECAAEAAEE8B2E6B6E4BAE2BEE0A1
:1027800042FE46FC4AFA4EF852F656F45AF25EF011
:1027900062EE66EC6AEA6EE872E676E47AE27EE081
:1027A000EF20802713050008EF105014FA50EA526A
:1027B0005A53CA533A55AA551A568A567A47EA477F
:1027C0005A48CA483A4EAA4E1A4F8A4F7670E67057
:1027D0005671C6713672A672167386737664E66495
:1027E0005665C6653666A666166786677278E278AD
:1027F0005279C279327AA27A127B827B726CE26C55
:10280000526DC26D326EA26E126F826F29617300BB
:102810002030197182FE86FC8AFA8EF892F696F4C0
:102820009AF29EF0A2EEA6ECAAEAAEE8B2E6B6E410
:10283000BAE2BEE042FE46FC4AFA4EF852F656F4C0
:102840005AF25EF062EE66EC6AEA6EE872E676E4F0
:102850007AE27EE0EF20C02C7670E6705671C67189
:102860003672A672167386737664E6645665C6651C
:102870003666A666166786677278E2785279C279FC
:10288000327AA27A127B827B726CE26C526DC26DDC
:10289000326EA26E126F826F09617300203019715F
:1028A000294582FE86FC8AFA8EF892F696F49AF210
:1028B0009EF0A2EEA6ECAAEAAEE8B2E6B6E4BAE270
:1028C000BEE042FE46FC4AFA4EF852F656F45AF280
:1028D0005EF062EE66EC6AEA6EE872E676E47AE250
:1028E0007EE0EF20A012854537050040EF10507FB5
:1028F0007670E6705671C6713672A672167386735C
:102900007664E6645665C6653666A66616678667AB
:102910007278E2785279C279327AA27A127B827B1B
:10292000726CE26C526DC26D326EA26E126F826F6B
:10293000096173002030EFD21FBE370400209304DA
:10294000C4300947930640060D469305C43001453F
:102950002390040023810400EF204043894739E19C
:102960009420130720028147638EE6029AA08947CC
:1029700009479306803E0D469305C430BCA0EF2066
:10298000204F19E537D5000013054577EF8000711A
:102990000947930640060D469305C4300145EF20D4
:1029A000E03E85473E856FD05FB98D4763E9A7005C
:1029B000B70700209387C730AA97882382800145F4
:1029C0008280914763E0A704EFD2FFB4B567938795
:1029D00047780A053E951C41828785659385058069
:1029E0003725014013050580EF3080201375F50F62
:1029F0006FD0BFB48565EDB78965DDB79165CDB79B
:102A0000A165F9BF01458280954763E5A704EFD230
:102A10009FB0B567938787790A053E951C418287E9
:102A2000930500043725014013050580EF30401C55
:102A30006FD0BFB093050002F5B7C145E5B7A1451A
:102A4000D5B79145C5B7371501409305001013055B
:102A500005C0E9BF01458280EFD2FFAB854763091E
:102A6000F50211C58947630AF5026FD01FAD89E9E8
:102A7000A14537150140130505C0EF300018F5B723
:102A8000A14537150140130505C0EF304017F1BFD0
:102A900099E1C145F9BFC145EDB781E59305000254
:102AA000C9BF93050002F1BFEFD2FFA67971A94714
:102AB0003ED23ED0B73700009387279C4C08014593
:102AC0003ED602CCEF20A0624C080545EF202062E4
:102AD0004C080945EF20A0614C080D45EF2020610E
:102AE0004C081145EF20A060B7370000938787A5F9
:102AF0002C0001453EC802C6EF2060572C0005455A
:102B0000EF20E0562C000945EF20605645616FD05C
:102B1000DFA2EFD25FA0011199475C84B7070020C4
:102B2000938707313EC8938701903EC6B707146468
:102B3000D1073ECA8947230CF100B73700009387BD
:102B400087A028003ECEEF20A06F05616FD0FF9ECA
:102B5000EFD27F9C7D3FEF20006EEF50F065EF20BD
:102B6000E072EF20E05BC5BFEFD25F997971371457
:102B7000014002C602C802CA02CCEF308008F1460A
:102B8000014613050480C145EF304003130504C01E
:102B90008D45EF30A000130504808D45EF30000017
:102BA0009305000337150140EF20507F1305048083
:102BB0009305400CEF20907EB724014013850480DC
:102BC00093050078EF20907C13050440B165EF2059
:102BD000F07B856537150140EF20507B13050440DD
:102BE0008D45EF20B07A130504409305000EEF20C9
:102BF000F079130504409145EF2050791305044006
:102C00008565EF20B0788569938509C0130504C0F8
:102C1000F1460146EF20907AE1460146130504C0D3
:102C2000A965EF20B0799307800411696C0813053A
:102C300004C03ED2231E2101231F010023100102E4
:102C400023110102EF10204B130504C08565EF200E
:102C5000F073914537150140EF2050731305044080
:102C600093050004EF209072370613808D65E146CE
:102C7000410613050440938505A0EF203074130529
:102C800004C093058003EF207070938509C0371549
:102C90000140EF20B06F138504809305C007EF203B
:102CA000F070130504C093050010EF203070C1656B
:102CB0001385048093850580EF20506F8145014581
:102CC000EF10402F1305044093050004EF20F0722D
:102CD000130504C093050020EF20506BB709308026
:102CE000138629001385048091468945EF20106DD5
:102CF0001386290013850480E1468545EF20106C7A
:102D0000E14601461305048093050040EF20106B57
:102D100085451165EF1020780524EFF08FE7B7B5F2
:102D20001D006546938595150945EF4040089305BC
:102D300000020945EF30505895659D461306803EC8
:102D4000938505E22145EF4020131306401F9D4562
:102D50002145EF4080202145EF40A0282145EF305C
:102D60005054B79704009387073E3EC6B70700400C
:102D70006C00854605463EC80545B70700043ECAB7
:102D8000231C2101EF30A0090545EF3000088947D9
:102D900068083ED602CE02D002D202D4EF205008FC
:102DA000EFF09FD00545EF10506C45616FD04FF8A4
:102DB000138581908280EFD20FF6B71401402A84E8
:102DC00013850440EF10203F935524409317E400EF
:102DD0008D89DD8D9167F1177D8DC98DC205C1810A
:102DE00013850440EF10A03DB724014013850480F3
:102DF000EF10603C0E041375F58713740478498C4A
:102E000093150401C18113850480EF10403B6FD0FE
:102E1000CFF2EFD2AFEE83C70191411102C6054751
:102E2000138401916388E70895C30947638CE70819
:102E30000D476381E70A1C200D47850793F7F70FBD
:102E40006369F70E1CA041016FD08FEE3719014066
:102E50009305000213050940B7340020EF20305AD3
:102E60009389C40F83C709009384C40F8565130534
:102E7000094091CBEF20B05803C50900EFF0BFF334
:102E8000239409004DBFEF205057DA249307F00335
:102E9000930500081305094063EBE700EF20F055A8
:102EA000BA24DC40BA978823EFF0FFF069B7EF202F
:102EB0001055FDB737150140914513050540EF202A
:102EC000D05395BF37150140914513050540EF20BC
:102ED000105395B7B73700201387C70F5A279306AB
:102EE000F0079387C70F05074207418363E0E604B5
:102EF000DAA7BA27050742074183BAA79E27E36CE2
:102F0000F7F21145EF30B06303A581907C000147D3
:102F10008D4605468945EF60402CB247E38D07F0AA
:102F2000B7E700E0116723A0E72031B72396070039
:102F3000C9B72300040001BFEFD2EFDDB7360000B0
:102F4000B795040085470147938626E1054693859A
:102F5000053E1145EF30B069371501409305000279
:102F600013050540EF20B04937340020B565814690
:102F700001461305C45093854531EFD08FE9B16503
:102F8000938545091305C450EFD0FFCB1305C450FA
:102F9000EFD0EFE56FD06FDAEFD2EFD7B737002081
:102FA0009387C70FC8C311458EA7238007002395B9
:102FB000070023960700EF30D02EEF50306D23A688
:102FC000A1907D56FD550945EF50707B6FD0EFD62F
:102FD000EFD26FD4B7370020238EA70E1145EF3004
:102FE000502CEF50B06A23A6A1907D56FD5509459F
:102FF000EF50F0786FD06FD4EFD24FD0371401403C
:10300000130504409145EF20903F130504409305BC
:103010000008EF20D03E856537150140EF20303E97
:103020002945EF507019856537150140EF20F03CB8
:103030002945EF5070181305044093050008EF2050
:10304000D03B856537150140EF20703B2945EF5097
:10305000B016856537150140EF20303A2945EF500D
:10306000B0159305000813050440EF2050391305EF
:10307000F003EFF0FFF50545EF501014930500083D
:1030800013050440EF2070371305F003EFF05FF4F1
:10309000054537390020EF503012373A0020130928
:1030A000C95013040440214B7D5685450145EF501E
:1030B000106D83254903130600401305CA10EF70F5
:1030C00080749309CA108144930500082285EF207B
:1030D000103313050004EFF0BFEF93EA840B56851D
:1030E000EFF01FEF930500082285EF201031130544
:1030F0000004EFF0FFED5685EFF09FED85044E855F
:103100009305000893F4F40FEFF01FE99389090881
:10311000E39C64FB51BFEFD20FC00945EF1080184C
:10312000EF009000EF60E05EEF007025EF003022CE
:10313000EF00B012EFF05FA3716513050520EF609B
:10314000A05F37D500001305057BEF703075EF5099
:10315000005001A0391542054181B14763E3A70C36
:10316000EFD26FBBB5679387077C0A053E951C417C
:103170008287B737002083A5875C0145EF10305E5A
:10318000D30705F02946539517C042054181330600
:10319000C502854515A0B737002083A5C75C054546
:1031A000EF10F05BD30705F029468945539517C00A
:1031B000420541813306C5022145EF30105A2145B1
:1031C000EF3030620DA8B737002083A5075D0945B1
:1031D000EF10F058D30705F029469145539517C0D5
:1031E000420541813306C502C1BFB737002003D76E
:1031F000475C2397E1806FD04FB4B737002003D6E8
:10320000675C41BFB737002003D5A75DEFF06F8C37
:10321000DDB7B737002083D5C75D0145EF00905972
:10322000D9BF828089C5B295AD4763DCB70005453B
:1032300082807D162300050042060905A30F05FEC6
:10324000418265FA01458280638E050EEFD20FAB95
:10325000B387C500130790022A892E84B2890545D9
:103260006341F70CB1CA05470145639CE60AB734D0
:1032700000201385F5FF139715009384045A420527
:1032800013940701BA944181418093091500C20942
:1032900093D90901890463858908834709000909CD
:1032A000A207239EF4FE0347F9FFD98F239EF4FE65
:1032B000EFF05FEA4E85D1BFB7340020938A045AFD
:1032C000014A9384045A254B5285EFF02FABB7D7B0
:1032D0000000D30705F007A7477F050A910AD3F737
:1032E000E710539507C0D37705D0D3F7E71827AE7B
:1032F000FAFEE31B6AFD2545EFF04FA8D30705F062
:1033000083D7E180539517C00604DEB0D37705D08C
:103310002694DCF8EFE0DFFDAABC09046395090000
:1033200001456FD0EFA08357C4FFFD190909A183A0
:10333000230FF9FE8357C4FFC20993D90901A30FD4
:10334000F9FEE1BF05458280EFD26F9A9389F5FFC0
:10335000C20993D909013387C9008D4763C7E70CB8
:10336000935A360013D939003284AA84138A1A007A
:1033700093F9790095CE854701456396F608373A6B
:103380000020268B338C2A01930C0A5A631F89076D
:1033900013767400D69401CA942013050A5ACE8578
:1033A0004A95EFE0DFB713050A5AEF10104E99A8BF
:1033B000B73B002013850B5AEF105050268B938B90
:1033C0000B5A3309994033052B01420541812146AF
:1033D000CE855E957D1AEFE0FFBB050B420AA30F79
:1033E000ABFE135A0A01E3100AFE1D882146018E26
:1033F0001374F50F3314C4001374F40FD6943354BC
:10340000C44080A001456FD00F92930B19008346F2
:103410000B00C20B33852C0193DB0B012146CE85BB
:10342000EFE0FFAF050B5E8995B70545E9BFFD15D8
:10343000C205C1813387C500954763CCE706EFD24B
:103440000F8B373B00202A84935A360093DB3500DC
:1034500013050B5AB28493F9750013891A00EF1003
:10346000F056228A130B0B5AB38B8B4033057A012B
:10347000420541812146CE855A957D19EFE09FB1E5
:10348000050A4209A30FAAFE13590901E31009FE18
:10349000A1479D88B38497409377F50FB397970022
:1034A00093F7F70F5694B3D797401CA001456FD000
:1034B0008F8705458280EFD20F865545EFF09FC973
:1034C0005D45EFF03FC965451564EFF0BFC8814425
:1034D000130404B00545EF50204E0547A2860D4663
:1034E00085450145EFE09FAE11C1EDD4EFE05FBA35
:1034F00019C18544C5B7EFE05FBCDDBFEFD2AF8136
:10350000EF101053184123A4E1926FD00F833707B7
:1035100000201307070D814713064006142389CAAC
:103520006388A600850793F7F70F4107E398C7FE66
:103530003E858280954763E2A708EFC2DFFDB5674D
:103540009387877F0A053E951841B70700201384AB
:1035500041929387070D028718201207BA97C83740
:103560009307300663E5A702EFF07FFA08A005A0F5
:1035700018201207BA97C82793073006E3F6A7FE6C
:103580009307E00F6315F500054723A0E1926FC094
:10359000DFFA18201207BA97A827F9B718201207E0
:1035A000BA97A837D1B718201207BA9788376DBFD6
:1035B00018201207BA97882745BF8280EFC2BFF54F
:1035C000791542054181914741112E8463E2A70894
:1035D000B967938707810A053E951C418287B7E545
:1035E0000000938545822285EF7070303DA8254507
:1035F000EFE0DFF8D30705F0B7E5000093854583DA
:10360000539617C0420641822285EF70F02931A8F7
:103610004800EF205070188394821082B7E50000B4
:103620009385C5832285EF70302841016FC0FFF07C
:103630004800EF20D0719886A2461086C5B709458C
:10364000EFF0AFB6B7E500002A869385C5846DBF5D
:10365000B7E500009385458579B7EFC25FE9B734D8
:10366000002001112A841385C450EFC05FF801497E
:10367000854A130B0008094A938981915C4063874E
:10368000570389CF638F47051C2091E705099547AC
:103690004104E315F9FE05616FC0FFE814443020D2
:1036A0000C301385C450EFD0AFD2F9BF834C240047
:1036B00014440C3066861385C450EFD06FD14A2471
:1036C0006C00EFF0BFEF6C001385C450EFD08FD9C2
:1036D0009375F50FB305BB40C20574006686C181C2
:1036E000C9B7834C240014440C3066861385C4503B
:1036F000EFD00FCE83A701926351F002B387290167
:103700009C23639C470103C76191954763E7E700EA
:1037100081451385C450EFD02FE64A24034D340071
:103720006C00EFF0BFE974006686EA851385C4502B
:10373000EFD00FCA1385C4508545EFD0EFE3814524
:103740001385C450EFD02FBA81B7EFC23FDB138986
:1037500001928327090037040020854A938441920F
:103760001304040D63955707938781912382070003
:1037700023A007009C200146138781919207A297FE
:10378000DC4309450548D443954581476397A60026
:1037900015EA3306F70014A205468507E398B7FE3D
:1037A0009C2092073E944840EFF03FEB13876191D5
:1037B0001C23A946850793F7F70F63EAF6041CA3B9
:1037C0006FC01FD7B308F70023800801F9B79389AA
:1037D000819203A50900EF40B01B79D103A5090030
:1037E000138A4191014693854191EF403004E319DA
:1037F00055FB03471A0093070008E313F7FA8327E2
:103800000900D9FF03450A00EFF0DFD251BF2300C2
:1038100007007DB78280EFC21FD0B74500008D46FC
:10382000054693854581EF2010346FC01FD1B7172F
:1038300002409843B706FFF841111367170098C379
:10384000D84337060200758FD8C39843B706F7FEF2
:10385000FD16758F98C39843B706FCFFFD16758F4C
:1038600098C3D843B70681FFFD16758FD8C3984318
:10387000B70600ECFD16758F98C33707FF0098C791
:1038800023A6070202C402C69843C166558F98C397
:10389000B716024005679C42F18F3EC6A2478507D6
:1038A0003EC4B24781E7A247E397E7FEB71702405D
:1038B0009C431397E7006357070685473EC6324788
:1038C0008547631FF704B7170240D843B706C1FF07
:1038D000FD16D8C3D843D8C3D84313670740D8C30D
:1038E000D843758FD8C3D843B7061D00558FD8C3AA
:1038F0009843B7060001558F98C398439316670005
:10390000E3DD06FED843B7160240719BD8C3D84307
:1039100013672700D8C32147DC42B18BE39EE7FE43
:103920004101828002C661BF371602405C42914667
:10393000B18B138701816385D700A1466388D702C5
:10394000B7177A00938707201CC3B7170240DC43E0
:10395000918393F6F700B707002093870715B69772
:1039600094231C43B3D7D7001CC3828054425042D7
:10397000C167C982BD8A7D8E9387260085CABD46F0
:103980006389D702C1466389D702C54581466393DF
:10399000B700C1470DE63746024003260680418A3C
:1039A00015C637167A00130606202DA08146C94792
:1039B000D5B78546B547F9BF8146BD47E1BF371644
:1039C000024050429315E600E3DD05FC37163D004A
:1039D00013060690B387C7021CC3A5DA1C43858370
:1039E000A5B7EFC25FB3EFF07FB1EFE0DFF41335BF
:1039F0001500EFF05FE237E50000130545B7EF7003
:103A0000E069EFF09FD4EFF0AFBA084101478D466F
:103A100005468145EF50E06113054006EF40D0793F
:103A2000CDB7B7670020938707DD1CC1B7570020CB
:103A30009387075D9CC1930700101CC28280B76703
:103A40000020938707EB1CC1B76700209387079D71
:103A50009CC1930700101CC28280EFC2DFABEFD085
:103A60007FAC2A8437580020B7570020B7E5000004
:103A7000371500001308080F938707EF1547854691
:103A800013060008938545B813056562EF40D031F1
:103A900008C0EFF0EFB12A8437480020B747002074
:103AA000B7E5000037350000130808349387078511
:103AB00015478546130600209385C5B8130585FF75
:103AC000EF40902E08C037580020B7470020B7E5D8
:103AD000000037350000130808E99387073A1547B7
:103AE00085461306C02B938505B91305654BEF403A
:103AF000B02B37380020B7370020B7E50000373546
:103B000000001308087F9387075F15478546130653
:103B10000008938585B9130505B5EF40F02837589F
:103B20000020B7570020B7E5000037450000130814
:103B3000085593870715154785461306001093858A
:103B400045BA1305259EEF4030266FC01F9FEFC278
:103B50009F9CEFD01F8D2A8437650020130505E355
:103B6000EF30704508C0EFD05F9B2A843765002096
:103B70001305C5E4EF30304408C06FC01F9CEFC28E
:103B80009F99EF10E06AB7660020375600202A841C
:103B90000147938686E61306065B89454145EF405B
:103BA000001108C06FC07F9901A001A001A001A071
:103BB00001A001A001A001A001A001A001A001A0FD
:103BC00001A001A001A001A001A001A001A001A0ED
:103BD00001A001A001A001A001A001A001A001A0DD
:103BE00001A001A001A001A001A001A001A001A0CD
:103BF00001A001A001A001A001A001A001A001A0BD
:103C000001A001A001A001A001A001A001A001A0AC
:103C100001A001A001A001A001A001A001A001A09C
:103C200001A001A001A001A001A001A001A001A08C
:103C300001A001A001A001A001A001A001A001A07C
:103C400001A001A001A001A001A001A001A001A06C
:103C500001A001A001A001A001A001A001A001A05C
:103C600001A001A001A097D1FF1F938121DB17C103
:103C700000201301213917A500001305E53397C56E
:103C8000FF1F938525381386018863FAC5008322B8
:103C9000050023A0550011059105E3EAC5FE17C5EF
:103CA000FF1F1305A55F97350020938525A963772E
:103CB000B500232005001105E36DB5FEFD427390AC
:103CC00002BCFD4273904280B78200009382028062
:103CD00073A0023097C2FFFF9382423693E2320014
:103CE00073905230EFF0BFB497F2FFFF9382E2423D
:103CF00073901234730020305C413707F1E01307F2
:103D0000F7EF944D7D8F9C41D58FD44DD58FD44105
:103D1000A206D58FD98F5CC11C4537F7F1FF130779
:103D2000D77FD4457D8F9C49D58F94458606D58F06
:103D3000D98F1CC55C55370710FF7D177D8FDC2997
:103D4000FD1793F7F70FD207D98F5CD582805C41BE
:103D500093F5F50F01C6DD8D4CC1828093C5F5FF4B
:103D6000FD8DDDBF08450D810589828008450981EB
:103D7000058982801C4591C537075000D98F1CC525
:103D800082803707B0FF7D17F98FD5BFA54763F74E
:103D9000B7048D47138765FF3307F7020328C50073
:103DA0009D47B397E70093C7F7FFB3F70701B396B3
:103DB000E600DD8E54C5994763E3C70495477D1639
:103DC0003306F6025859FD47B397C70093C7F7FF6C
:103DD000F98F3396C5005D8E50D982800D473387A9
:103DE000E502032805019D47B397E70093C7F7FF56
:103DF000B3F70701B396E600DD8E14C96DBFB14776
:103E000063E2C702954765163306F6021859FD4767
:103E1000B397C70093C7F7FFF98F3396C5005D8E40
:103E200010D9828095474D163306F6025855FD4746
:103E3000B397C70093C7F7FFF98FB395C500DD8D22
:103E40004CD58280B727014093870740984711C51A
:103E5000B7068000558F98C78280B70680FFFD1691
:103E6000758FD5BF5841144193D78500F58F99C7F9
:103E700013F5F50F798D3335A000828001458280DE
:103E8000EFC26FE901112A8423040100A5441C84B8
:103E900063F9F40423040100A54621461C8463FF52
:103EA000F606231501002304010095461C8463F1E6
:103EB000F60E38853C8599460D46B3F7D702056561
:103EC00013050580B3D7C7023357D702BA97C20785
:103ED000C1837C853C8505611D8D420541856FC090
:103EE000CFE51C4493E787001CC42285EFF09FE7D1
:103EF0006DFD1C4493E747001CC42285EFF01FE7CB
:103F00006DFD78441C8414108607B6972396E7FE4F
:103F10001C84850793F7F70F5C8495BFA304010009
:103F20009C846378F6001C84850793F7F70F5C8404
:103F3000B5B798849C840C100607850786072E97D2
:103F4000AE970357C7FE83D7C7FE63FDE7029C8485
:103F50008607AE9783D7C7FE7C859C8498848507A7
:103F60008607AE9783D5C7FE931717001810BA9728
:103F70002396B7FE9C8438850C1085078607AE977C
:103F80002396E7FE9C84850793F7F70FDC8449BFEF
:103F90001C841010388589078607B29783D7C7FE1F
:103FA000BA97C207C1837C851C84850793F7F70FF6
:103FB0005C84EDBD4111B777004002C6938707408E
:103FC0003EC6B247A1073E952AC6B2478CC34101FF
:103FD00082809317350063DA0700B707024083A792
:103FE00007407D8D3335A00082809317250063D76D
:103FF0000700B707024083A7074DE5B7B7070240A0
:104000009C43C5B79317350063D70700B707024035
:1040100023A2A74082809317250063D70700B70724
:10402000024023AAA74C8280B7070240C8C38280FF
:10403000EFC26FCEEFF0FFF96FC02FD0EFC2AFCD60
:10404000EFF05FFC6FC06FCF411102C6B786024030
:104050009C4A41672E057D17F18B798D9A055D8D00
:1040600093F5057CC98D93E51500B70750008CCA00
:10407000F917324705073AC6984A058B01C73247F8
:10408000E3F9E7FE3247B7075000FD170145630724
:10409000F700B7870240C84B420541814101828049
:1040A000B7970240C8CB8280379702401C4FB706B3
:1040B0001000D58F1CCF8280EFC2EFC5378402403D
:1040C0001C4093E787001CC0EFF01FFE1C40896670
:1040D00093E747001CC0B7970240984F558F98CF81
:1040E000984F1367270098CF6FC02FC5B7070140BF
:1040F00023AAA74082809C4513F7070113F8F70015
:1041000001C7D8413368E8008E2113F7F50F39C392
:1041100018418146854E3D4F930F800293028004E3
:10412000214E3396DE00B3F8C50063111603939851
:10413000260033131F011343F3FF3377E300B31853
:10414000180133E7E800639FF70550C98506E39A35
:10415000C6FD18C11307F00F6375B704544121461B
:10416000854E3D4F930F800293028004414EB398D9
:10417000CE0033F715016392E802131726000117EA
:104180003313EF001343F3FFB376D3003317E80084
:10419000D98E639DF701232A15010506E319C6FD93
:1041A00054C18280E39457FA10C94DB7E39757FE84
:1041B00023281501DDB748454205418182804CC561
:1041C0008280B7070140635A0504DC4F935605010E
:1041D000131805013707300013F6F60013580801CD
:1041E000B376E50063500506639BE602930606017D
:1041F0000D46B316D60093C6F6FFF58F99C913572F
:1042000055011377F73F12073317E800D98F63572B
:104210000504370701405CCF8280DC4345BF13179C
:10422000B500635607008D46B396C600E9B713572D
:1042300055011377F73F12073317E8001347F7FFCD
:10424000F98F6DBF6390E60237060140544237078D
:1042500000F17D17F98F758F58C2D5F137070140EE
:104260005CC382801317B500635C07008D46B3966C
:10427000C60093C6F6FFFD8EB707000FD58FF1BFBE
:104280001357550112073317E8001347F7FF7D8FC7
:10429000B707000FD98FD1B793C5F5FFC205C1810C
:1042A0004EA9828023A6A1928280B7160240DC42EA
:1042B00051777D17F98F5D8DC8C28280B717024094
:1042C000238007022380070205476306E5001147A4
:1042D0006306E50082802380A70282801547238041
:1042E000E7028280371702405C439146B18B6385B9
:1042F000D700A1466382D706B7177A0093870720B5
:104300001CC1371602405C4237070020130707160E
:104310009183BD8BBA9794231C41B3D7D7005CC15E
:104320005442A1829D8ABA969422B3D6D70014C56E
:104330005442AD829D8A36971823B3D7E7005CC5F7
:104340005842398393763700138741813697182373
:10435000B3D7E7021CC982805C435843C166C98356
:10436000758FB7F6FF1F83A6C670BD8B890713969E
:10437000160163480600C54601466392D702C94745
:1043800039A88946638FD702BD46638ED702C146DE
:10439000638ED702C54601466393D700C1471DEF20
:1043A0003747024003270780418B05C737177A003C
:1043B00013070720B307F7021CC121D61C418583D0
:1043C00081B701466DBF0546B547D1BF0146BD4720
:1043D000F9B737173D0013070790E9BFB71502403B
:1043E000D8559316F700D85563DF060411833D8B2B
:1043F0009306170037177A00130707203357D702A1
:1044000018C1D455A182BD8A8DE295463307D702E3
:10441000058318C137170240585714413D8B0507D3
:1044200033D7E60218C1184171B785456394B600C9
:10443000E546E9BFBD456396B600D1463387E6023F
:10444000C9BF8906E5BF3D8B9306170037177A0071
:10445000130707203357D702F1B799C53717024022
:104460005C4B5D8D48CB8280B7170240D84B13451B
:10447000F5FF798DC8CB828099C5371702401C4F54
:104480005D8D08CF8280B7170240984F1345F5FF26
:10449000798D88CF828099C5371702405C4F5D8D3A
:1044A00048CF8280B7170240D84F1345F5FF798D6A
:1044B000C8CF82809357550005476399E700B71727
:1044C00002409C4333D5A700058982800947639643
:1044D000E700B71702409C53F5B7B7170240DC530B
:1044E000D5B7B737004003D747801367070123923A
:1044F000E78082803737004083574780C207C183F7
:10450000BD9BC207C1832312F7808280B73600406B
:1045100083D7868103D5C68103D78681C207131648
:1045200005014207C18341834182938606806386E9
:10453000E700CA2E4207598D828013950701518DDD
:104540008280EFB25FFD41112AC6EFF09FF932453C
:10455000B7370040135705013D8B42052394E78090
:1045600041812396A780EFF0FFF841016FB0FFFC77
:10457000373700408357478093F70702E5DF828093
:104580003737004083574780C207C183DD9BC2078E
:10459000C1832312F7803737004083574780A18BB0
:1045A000EDDF82801E2189C593E707041EA182806A
:1045B000C207C18393F7F7FBC207C183C5BF854715
:1045C0009181B395B7005E21C205C18101C6DD8D21
:1045D0004EA1828093C5F5FFFD8DDDBF5E211625BE
:1045E00013F7F50005453317E500C207758FC18342
:1045F00001CB91813315B5007D8D3335A0008280CC
:10460000014582801E31922103D82500C207C18353
:10461000F99BC207C1831EB11E3156211A2DC20754
:10462000C183420741831377C7F8518F9225F59BC9
:10463000C20633660601D18F37360140130806C023
:10464000C182630E050113060640630AC500375692
:104650000140130806C0630405016310C502B225BA
:10466000DD9B03D8E500D18FD221ED9B93F6F6CFE9
:10467000D18FD22533660601D18E56A11AADFA210B
:104680005AB91EB182801E3165771307F7CFC20772
:10469000C183BD9BC207C1831EB11E31562103D801
:1046A0008500C20713960601162DC18393F7F7FD07
:1046B000758F96214182A206558FB621420741830C
:1046C000B3E606019206D58FB7360140C2071388BC
:1046D00006C0C183630E050193860640630AD500B8
:1046E000B7560140138806C063040501631ED50256
:1046F000B62593F7F7F703D8C5009206D58FD621D4
:10470000C207C183920693F7F7FBD58FFD76938698
:10471000F63FF18EF225C207C183336606010A0611
:10472000D18E13960601418252A11AADFA211ABD0B
:104730001EB182801E3103D88500C207C18393F762
:10474000F7EFC207C1831EB11E3156215A2DC20791
:10475000139606014207962141831377C7F8558FB8
:10476000B621C18393F7F7DFB3E60601A206D58F22
:10477000B7360140C207138806C04182C183630E69
:10478000050193860640630AD500B7560140138899
:1047900006C063040501631FD502FD769386F67F8C
:1047A000F58FB62503D8C500A206D58FD621C2073E
:1047B000C183A20693F7F7BFD58FF576FD16F18E6C
:1047C000F225C207C183336606011206D18E139605
:1047D0000601418252A15AADFA215ABD1EB1828012
:1047E0001A31FD77FD17F98F1EB1035805025621C6
:1047F0005E2D65771396060196211307F7CF7D8FFF
:10480000F977A206FD17558FB3F70701B62103D834
:10481000850042074182B3E60601B206D58FB7365E
:104820000140C207138806C04183C183630E05019E
:1048300093860640630AD500B7560140138806C028
:1048400063040501631BD500F176FD16F18ED225B8
:104850001A06D18E13960601418252A15AADFA2151
:104860002310E5041EB182801E2DC207C183DD9B8B
:10487000DD8D0EAD82801A2DFD779387F77FF98F3E
:10488000A205CD8FC207C1831EAD82805E2DC207F7
:10489000C183DD9BDD8D4EAD82805A2DFD779387E0
:1048A000F77FF98FA205CD8FC207C1835EAD8280ED
:1048B0005E21C207C18393F7F7F8C207C1835EA1E7
:1048C0005E21DD8D4EA182801E294A25ED8F420595
:1048D000418189C76D8D3335A0008280014582807A
:1048E00093C5F5FFC205C1810EA98280EFB2BFC298
:1048F0001629F577FD17F58FF621DA257971D58F11
:104900001EA95625FD779387379FF58FD6212A84D8
:104910002EC6D58F9625D58FB625D58F5EA55E2957
:10492000C207C18393F7F7CFD98F5EA96808EFF06C
:104930007F9BB747014093870780B245631AF40411
:10494000A25756246547B387E702C206C18698413D
:1049500063D20604060752244206B3D7E7021307C0
:1049600040064186B3D6E702B3F7E70292066355E5
:1049700006028E0793872703B3D7E70213F7770062
:10498000B367D700C207C1831EA445616FB0FFBAE9
:10499000925745BF0A07C1B7920793872703B3D73A
:1049A000E702BD8BD58FF9BF91C55E250967D98F09
:1049B0005EA582805A25F977FD17F98FD5BF93F54B
:1049C000F51F4EA182800A216D8D3335A0008280B3
:1049D00013F7F50F85461583B397B6006311D70219
:1049E0005A25F98F1A2101454207418381CB05459C
:1049F000A181B315B5006D8F3335E0008280894603
:104A00006314D7001A29F1BF5A29E1BF9387C193D4
:104A100098433A9588C38280EFB2FFAF1384219404
:104A20000A20954513892194EFF00FE2AA840A2009
:104A30008545EFF06FE1937745002A8495C38DE0BB
:104A40003747024083270780ED9B2320F7800547E7
:104A50002382E19403A7C19323A4E1946FB0FFAD37
:104A60002285EF40B05A1374440293074002631A40
:104A7000F40803550900C145EFF00FDD1189B78631
:104A8000024019E5FD888547B78602406385F40634
:104A90009C42056713070780D98F9CC2B7870240E5
:104AA0009843D176FD16758F98C391462386D1948D
:104AB000D843B70600808506558FD8C303A70710D3
:104AC0001367170023A0E7103787024083270710DA
:104AD000858BEDFF05472380E19403A7C19323ACA9
:104AE000E192EFF06FDDB78702409C43AD83858B89
:104AF000238AF192A5B79C427D771307F77FF98F40
:104B000069BF3747024083270780ED9B2320F7804A
:104B100005472382E19403A7C19323A4E194E1B75D
:104B2000EFB27F9FB7970240C04B13170401635A3F
:104B30000702137704081DC303A70193C146137727
:104B4000070F6319D700F847B7060080584714C30A
:104B500023A4070013050008EFF08FD42165EFF0C0
:104B60002FD49317F40063DA07029377040489C7FC
:104B700013050004EFF0CFD29377140081C70545E9
:104B8000EFF00FD263580400EFF01FE93705008003
:104B9000EFF00FD14165EFF0AFD06FB01F9A828078
:104BA000EFB27F9737640020930404F188484111E5
:104BB000EF107033DC482547FD176365F70439674C
:104BC0008A071307C7BABA979C431375F50F1304E6
:104BD00004F1828789470E2C5CC8A1810DA00C2CA2
:104BE0000848EF103031A9475CC829A8084881451A
:104BF000EF1050308D47CDBF058905C59545084854
:104C0000EF10502F41016FB05F931E30584C81451B
:104C10003E97850708A3C2073A30C1831EB0E3E080
:104C2000E7FE0C2048407C0001478D46054602C641
:104C3000EF40A05AB247F9D7B7E700E0116723A0C9
:104C4000E720C9B7954741BF0C2C0848EF10902AC0
:104C5000994759BF1A303E30E375F7FC5C4C930618
:104C6000170016B0BA978C2359BFEFB2DF8AC1671D
:104C7000011189073ECAB7071800938707203ECC69
:104C80006C00B767002023A0A7F22A8402C602C8DE
:104C900002CEEF10D01537560000B75500000D4773
:104CA000854622851306E6B9938505BAEF10901B59
:104CB0003745004005469305000613050580EFF0D3
:104CC0001F90371501408565130505C0EF00F07290
:104CD00005616FB09F86EFB21F84376400204111D9
:104CE000A547130404F15CC80CA0B71401402AC600
:104CF000EF40C01948C08565138504C0EF003070CF
:104D000008489945EF10101F32460820FD55EF4026
:104D100000272A840545EF30304A138504C0856595
:104D2000EF00B06D854711456313F4000145410163
:104D30006FB0BF80EFB22FFE376400204111A14752
:104D4000130404F15CC80CA0B71401402AC6EF405C
:104D5000E01348C08565138504C0EF00506A084819
:104D60009545EF10301932460820FD55EF402021BF
:104D70002A848565138504C0EF0030688547114596
:104D80006313F400014541016FB02FFBEFB20FF741
:104D900037640020130404F14111B6894CCC32B0C1
:104DA00018A03AC60AAC23100402EF40200E324786
:104DB00048C04E85BA85EFF0FFF7AA840DE9371990
:104DC00001408565130509C0EF00706308488547F9
:104DD0008D455CC8EF1010120820FD554E86EF403F
:104DE000001AAA848565130509C0EF001061854784
:104DF00001456383F400114541016FB06FF3EFB2D9
:104E0000EFEF37640020130404F14111B6894CCC54
:104E100032B018A03AC60AAC23100402EF400007D3
:104E2000324748C04E85BA85EFF0DFF0AA840DE91D
:104E3000371901408565130509C0EF00505C08482B
:104E4000914789455CC8EF10F00A0820FD554E8651
:104E5000EF40E012AA848565130509C0EF00F05900
:104E6000854701456383F400114541016FB04FEC64
:104E7000EFB2EFE7BA8BA1673307C50063C1E7085C
:104E80002A893284114535CA2E8B368A8149130C02
:104E90000004B76A00209377F903B307FC40C20708
:104EA000C183BE846373F400A284C204C180B305CD
:104EB0003B01268613858AF3EF50F014DE85528578
:104EC000EFF05FE71DE989455285EFF0DFE015E57A
:104ED0000947D286268693858AF34A85EFF03FF20A
:104EE00009ED058CA69942042699C2094209418020
:104EF00093D909011359090159FC6FB0CFE211454B
:104F0000EDBF9387419523A0070023A207002398B4
:104F10000194828085476382F50406059387419555
:104F2000AA9798230DE703D7019593060005054539
:104F30002E9763C5E6021387F5FF9386E19498A345
:104F40009A22014598B37D172E979AA28280FD156B
:104F500001456305B700094582800D4582808D4774
:104F6000D38705F063E5A7029317150013854195D4
:104F70003E951C21A9C3143137670020130787F71A
:104F8000B697FD17C207C183B14563F5D700D307B4
:104F900000F015A06389F6003386B7023A961862CE
:104FA0005306F7A001CEB146B387D702BA97D463B0
:104FB0009867C3F7D770538507E08280FD17C20753
:104FC000C183E1B7530606F0D30707F0D38607F095
:104FD000538706F0D3F5D708D3F6C6105375E60805
:104FE000C7F7E7685377C708D3F5A518D3F7E718CD
:104FF0000CE19CE1828093171500138541953E9545
:105000001C21850763C3C702EFB26FCE376A002049
:105010000149AE8A9309F6FFAA84B14B130A8AF7B5
:105020006347390101456FB00FD009458280803058
:1050300093163900338BDA004A9433047403A106C3
:10504000D6969C4203270B00D44203264B00050949
:105050001379F90F9305840013054400D2955295F6
:10506000EFF05FF687274B0052941CE055BFB14725
:105070003305F502B76700209387072B3E959C45C3
:10508000230005001CC501458280B7670020102160
:105090009387072B93864702054785453375E600BE
:1050A00019C98CA306071377F70F11E30547B1075A
:1050B000E396F6FE828023800700EDB73767002075
:1050C0001307072B1306470285470C23142181CDB4
:1050D000DD8E860714A193F7F70F91E3854731071B
:1050E000E315E6FE828093C5F7FFED8EDDB7F1474D
:1050F0003305F502B767002093874722D8413E95D4
:105100009C4958C17D171CC9DC453337E00058A9BC
:105110005CC59C4D78A9232405001CCD01458280E7
:10512000EFB2CFBD37640020130444228144894983
:10513000130A4006854A15495C40638537071C4CB5
:10514000268582977828630CA7041C4485071CC415
:1051500029E718486379F7005C4068A893C7F7FF10
:10516000858BA98F5CA8850493F4F40F7104E395F3
:1051700024FD376400201304042B81440D4958405A
:105180001C440C2019E393B51500268585048297ED
:105190003104E39624FF6FB0AFB9584465BF2324B0
:1051A0000400D1B75C28850793F7F70F63844701A4
:1051B0005CA855BF1C40230A0400985B6315570187
:1051C00023A807024DB723A6070271BF3767002047
:1051D000130747221306C70885474C2B142181CD9E
:1051E000DD8E860714A193F7F70F91E385477107CA
:1051F000E315E6FE828093C5F7FFB3E6B60293F6A9
:10520000F60FC5B7EFB22FB1B767002083A7C72D40
:1052100041114886CC86AA972380070003A5C19533
:105220006C0081467D56EF20703341016FB0EFB0C6
:105230001385C1958280B767002003D5072E828031
:10524000EFB26FAD5C49376400201304442D03496D
:1052500005005CC81C4554451829AA844A863E8529
:1052600081451CC454C418A823002401EFB0AFAD7D
:10527000D8404A86814558C0EFB0EFAC03A5C19530
:105280008145EF20901601456FB02FABEFB20FA70D
:10529000B764002001449384442D05498949094A93
:1052A0009C206364F4006FB0AFA8DC48228582972D
:1052B00063112503DC40A297982301CB23800700CC
:1052C000930500042285EFF0FFF305041374F40F37
:1052D000C1BF984422971C23850793F7F70F1CA39F
:1052E000D8402297142389EA9428E3E0D7FE2300CC
:1052F000270193050008F9B7F03463E4C70063871A
:105300002601F024E3E3C7FCE39146FD23003701C7
:10531000CDB7EFB24FA005E5B7170240984F13671E
:10532000072098CFD84713670720D8C7D8471377E7
:10533000F7DFD8C73165EFE05FF76FB00FA08547A3
:10534000E31AF5FEB7170240984F1367074098CF4E
:10535000D84713670740D8C7D8471377F7BFD1BFDF
:10536000EFB26F9B131725009387C185BA978043CF
:10537000370700FC7D171C44AA8493E717001CC460
:105380005C40F98F5CC01C4493E787001CC42285F5
:10539000EFE05F9D6DFD1C4493E747001CC4228530
:1053A000EFE0DF9C6DFD2285EFE09FAD86049387E3
:1053B0008196A6978AA36FB04F980A059387C185F7
:1053C000AA979C43E84742054181828031712AD7E0
:1053D000372501402ED506DF16DD1ADB1ED932D364
:1053E00036D13ACF3ECD42CB46C972C776C57AC3D5
:1053F0007EC182FE86FC8AFA8EF892F696F49AF2C4
:105400009EF0A2EEA6ECAAEAAEE8B2E6B6E4BAE2F4
:10541000BEE0930500221305054042FE46FC4AFA11
:105420004EF852F656F45AF25EF062EE66EC6AEA14
:105430006EE872E676E47AE27EE0EFE0BFA201C5B4
:1054400083A7019682973735014093050022130503
:105450000580EFE03FA101C583A741968297FA50EE
:10546000EA525A53CA533A55AA551A568A567A4797
:10547000EA475A48CA483A4EAA4E1A4F8A4F76709F
:10548000E6705671C6713672A672167386737664AC
:10549000E6645665C6653666A666166786677278E0
:1054A000E2785279C279327AA27A127B827B726C6C
:1054B000E26C526DC26D326EA26E126F826F296104
:1054C00073002030060593878196AA97839707007B
:1054D0000145AE9763C0070291CD85661387F6FF3D
:1054E0003A8563D9D7002E856386E50013950701B9
:1054F000418182808280EFB26F800111AA842E8A5E
:10550000B28A8145130600020A85B689EFB0AF83DF
:105510002685EFF01FE085473EC21397240093874E
:10552000C185BA9780438A8502C0228502C44EC6CF
:1055300002C8230A410102CC02CE3969EFE0CFFB59
:105540008147130949BD63954703B7070E00638F71
:10555000F9021C4437071000D98F1CC41C4426854F
:1055600093E707101CC4EFF0BFDF05616FA05FFC7D
:10557000138B1700D6979C2389461376FB0FCA9787
:105580008C232285EFE09F80DA8775BF1C443707A4
:10559000F0FF7D17F98FD1B7EFA25FF67971AA847A
:1055A0002E8A3289B6893AC6EFF0BFD632471394B5
:1055B000240013860196229618C281451306000224
:1055C0000808EFA05FF885472302F1029387C185A1
:1055D000A297804352CEB7070E00630DFA021C4417
:1055E00037071000D98F1CC40C082285EFE0CFF0DC
:1055F0004E86CA8513052002EF00304F05469305FD
:1056000000222285EFE0AFF42685EFF07FD54561DB
:105610006FA01FF21C443707F0FF7D17F98FE1B729
:10562000EFA27FEF2A8437050020EF0090481C404E
:10563000814501451397270093878181BA97944349
:1056400018445C40D98F5844D98F1848D98FB397E4
:10565000D700377700402320F740032607408547CF
:10566000B397D700D18F2320F740EFE0BF946FA00E
:10567000DFECEFA25FEA1314250009454111331551
:105680008500EFE0FF9A8547631FF500B7670020AC
:105690009387C72EA2979C432AC68297324533151B
:1056A0008500EFE0BF9941016FA03FE9EFA21FE540
:1056B00004413D49994741112A84AE893319990023
:1056C00063E4970A371702405C4B93E717005CCB03
:1056D000370702405C4333E92701232227015C445A
:1056E000CDC705476386E70A856793080020938541
:1056F000078037650020139724001305C52E3A95BF
:105700003A8837070020130707174297184314C138
:10571000C1661C43F9160848F58F1CC35C4014434E
:10572000C98F0844B3E71701C98F61753D05E98E3C
:10573000D58FCD8F93E707081CC35E2CCE851385CC
:10574000B4015CC35C481CC71C4C5CC71C4393E79A
:1057500027001CC3994763F4970013851404EF00D6
:10576000D03841016FA0DFDC8545094536C632C41B
:10577000EFE0BFCEB707024003A74740B24622463C
:105780003369270123A2274199BF8148814595B7F5
:105790009308001093050040A9BF317106DF16DDA4
:1057A0001ADB1ED92AD72ED532D336D13ACF3ECDE9
:1057B00042CB46C972C776C57AC37EC182FE86FCDB
:1057C0008AFA8EF892F696F49AF29EF0A2EEA6EC81
:1057D000AAEAAEE8B2E6B6E4BAE2BEE0014542FEAD
:1057E00046FC4AFA4EF852F656F45AF25EF062EE71
:1057F00066EC6AEA6EE872E676E47AE27EE0EFF062
:105800005FE7FA50EA525A53CA533A55AA551A5604
:105810008A567A47EA475A48CA483A4EAA4E1A4F19
:105820008A4F7670E6705671C6713672A67216731C
:1058300086737664E6645665C6653666A666166740
:1058400086677278E2785279C279327AA27A127BCC
:10585000827B726CE26C526DC26D326EA26E126F00
:10586000826F296173002030317106DF16DD1ADB8B
:105870001ED92AD72ED532D336D13ACF3ECD42CB00
:1058800046C972C776C57AC37EC182FE86FC8AFA93
:105890008EF892F696F49AF29EF0A2EEA6ECAAEAA0
:1058A000AEE8B2E6B6E4BAE2BEE0054542FE46FC2A
:1058B0004AFA4EF852F656F45AF25EF062EE66EC90
:1058C0006AEA6EE872E676E47AE27EE0EFF07FDA8A
:1058D000FA50EA525A53CA533A55AA551A568A569A
:1058E0007A47EA475A48CA483A4EAA4E1A4F8A4F50
:1058F0007670E6705671C6713672A672167386732C
:105900007664E6645665C6653666A666166786677B
:105910007278E2785279C279327AA27A127B827BEB
:10592000726CE26C526DC26D326EA26E126F826F3B
:10593000296173002030317106DF16DD1ADB1ED9B4
:105940002AD72ED532D336D13ACF3ECD42CB46C917
:1059500072C776C57AC37EC182FE86FC8AFA8EF84B
:1059600092F696F49AF29EF0A2EEA6ECAAEAAEE8BF
:10597000B2E6B6E4BAE2BEE00D4542FE46FC4AFAA3
:105980004EF852F656F45AF25EF062EE66EC6AEAAF
:105990006EE872E676E47AE27EE0EFF09FCDFA50B0
:1059A000EA525A53CA533A55AA551A568A567A4752
:1059B000EA475A48CA483A4EAA4E1A4F8A4F76705A
:1059C000E6705671C6713672A67216738673766467
:1059D000E6645665C6653666A6661667866772789B
:1059E000E2785279C279327AA27A127B827B726C27
:1059F000E26C526DC26D326EA26E126F826F2961BF
:105A000073002030317106DF16DD1ADB1ED92AD76C
:105A10002ED532D336D13ACF3ECD42CB46C972C70E
:105A200076C57AC37EC182FE86FC8AFA8EF892F62B
:105A300096F49AF29EF0A2EEA6ECAAEAAEE8B2E6DE
:105A4000B6E4BAE2BEE0114542FE46FC4AFA4EF820
:105A500052F656F45AF25EF062EE66EC6AEA6EE8CE
:105A600072E676E47AE27EE0EFF0BFC0FA50EA52E6
:105A70005A53CA533A55AA551A568A567A47EA478C
:105A80005A48CA483A4EAA4E1A4F8A4F7670E67064
:105A90005671C6713672A672167386737664E664A2
:105AA0005665C6653666A666166786677278E278BA
:105AB0005279C279327AA27A127B827B726CE26C62
:105AC000526DC26D326EA26E126F826F29617300C9
:105AD000203093F7060113F8F60099C33368C80025
