:100000006F6060091300000013000000130000007F
:100010001300000013000000130000001300000094
:100020001300000013000000130000001300000084
:08003000130000007300100032
:100038000000000000000000B8330000BC330000DE
:1000480000000000DC5F000000000000000000006D
:10005800DE5F0000E05F000000000000000000001C
:10006800D4AB000000000000000200000000000007
:10007800E65F0000E85F0000EA5F000066990000A4
:10008800EE5F0000F05F0000F25F0000F45F000028
:10009800F65F0000F85F0000FA5F0000AA8C00001D
:1000A800788D000000600000468E0000148F00006C
:1000B8000660000008600000DC8800000C6000009A
:1000C8000E60000010600000126000004234000062
:1000D80016600000186000001A6000001C60000034
:1000E800A23500002060000018A00000BE940000A7
:1000F8008C9500005A96000028970000469C000046
:100108003E9D0000F2A60000C0A700008EA80000D7
:1001180036600000386000003A6000003C60000073
:10012800E6A000004060000042600000446000005B
:100138004660000048600000B4A100003E9E000038
:100148005CA900005060000052600000546000008C
:1001580056600000586000005A6000005C600000B3
:100168005E600000163500006260000064600000F8
:1001780066600000686000006A6000006C60000053
:100188006E60000070600000726000007460000023
:1001980076600000786000007A6000007C600000F3
:1001A8007E600000806000008260000084600000C3
:1001B80086600000886000008A6000008C60000093
:1001C8008E60000090600000926000009460000063
:1001D8000000000000000000000000000000000017
:1001E8000000000000000000000000000000000007
:0801F8000000000000000000FF
:10020000130181F806C216C41AC61EC822CA26CC1B
:100210002ACE2ED032D236D43AD63ED842DA46DC76
:100220004ADECEC0D2C2D6C4DAC6DEC8E2CAE6CC46
:10023000EACEEED0F2D2F6D4FAD6FED8F3220030CF
:1002400096DA83A201A323A02200F32510342EC046
:100250009305000273A0458003A14189EFB0906D22
:1002600003A301A303210300824273901234D652E8
:10027000739002309240A2423243C2435244E2445D
:10028000724582551256A2563257C2575258E258FA
:1002900072598649164AA64A364BC64B564CE64C0E
:1002A000764D865D165EA65E365FC65F13018107DA
:1002B0007300203013000000130000001300000042
:1002C00013000000130000001300000013000000E2
:1002D00013000000130000001300000013000000D2
:1002E00013000000130000001300000013000000C2
:1002F00013000000130000001300000013000000B2
:1003000083A24189938202E07390023403A101A386
:10031000024182403243C2435244E2447245825514
:100320001256A2563257C2575258E258725986494D
:10033000164AA64A364BC64B564CE64C764D865D61
:10034000165EA65E365FC65FD652A102739002307B
:10035000A2421301810782801300000013000000F5
:100360001300000013000000130000001300000041
:100370001300000013000000130000001300000031
:100380001300000013000000130000001300000021
:100390001300000013000000130000001300000011
:1003A0001300000013000000130000001300000001
:1003B00013000000130000001300000013000000F1
:1003C00013000000130000001300000013000000E1
:1003D00013000000130000001300000013000000D1
:1003E00013000000130000001300000013000000C1
:1003F00013000000130000001300000013000000B1
:10040000F322003093F272FF130380781203B3E2F9
:100410006200711523205500130585FA10C12115BE
:10042000232005009302000063870200711523203A
:100430000500FD12D5BF71150CC1828000000000BF
:1004400000000000000000000000000000000000AC
:10045000000000000000000000000000000000009C
:10046000000000000000000000000000000000008C
:10047000000000000000000000000000000000007C
:10048000000000000000000000000000000000006C
:10049000000000000000000000000000000000005C
:1004A000000000000000000000000000000000004C
:1004B000000000000000000000000000000000003C
:1004C000000000000000000000000000000000002C
:1004D000000000000000000000000000000000001C
:1004E000000000000000397101436EC619A0397187
:1004F00041536AC866CA62CC5ECE19A039710153F5
:100500005AD056D252D44ED64AD826DA22DC06DE4B
:1005100033016140828241114AC026C222C406C60C
:100520008282B24D4101024D924C224CB24B4101AC
:10053000024B924A224AB249410102499244224462
:10054000B240410182803D432A876373C30293779F
:10055000F700BDEFADE5937606FF3D8ABA960CC372
:100560004CC30CC74CC74107E36BD7FE11E2828036
:10057000B306C3408A069702000096966780A600DD
:100580002307B700A306B7002306B700A305B700EB
:100590002305B700A304B7002304B700A303B700E3
:1005A0002303B700A302B7002302B700A301B700DB
:1005B0002301B700A300B7002300B700828093F5A2
:1005C000F50F93968500D58D93960501D58D61B76E
:1005D000939627009702000096968682E78086FA17
:1005E0009680C1171D8F3E96E374C3F8A5B7EFF24E
:1005F0001FF0AE96939906013A8B1307160093D914
:10060000090142074183CE86AA842E84B28A034A16
:100610002509EF00D00901C90549933B1A006395EC
:1006200089002389440901B783470B00B377F90098
:100630008DC723894409014785465686A2852685AC
:10064000EF0040750504060942041379F90F418053
:10065000E31709FC050B0549D9B783C71409FDF356
:1006600023897409C9BFEFF27FE932971319070193
:10067000B689AE9613590901C2064A87C1822A8BF0
:10068000AE8A32843E8AEF00900201C993847900D9
:10069000C204C1808D806313890059BD2286050480
:1006A0005287CE86D6855A8542049137269A418054
:1006B000DDB7EFF2BFE4329793140701B689AE9627
:1006C000C180C2062687C1822A8A2E893284EF0021
:1006D000007E01EDB1BD228605040147CE86CA85A4
:1006E00052854204EF00006B4180E39684FEDDB743
:1006F000EFF27FE21C418145902B834785034859E7
:100700003306F6020E0681350DBDA1471CA11385E7
:1007100081B28280EFF23FE03687AE84B286B715B1
:100720000000371600004111130686229385C52F5D
:100730002A84EF00D05C1305F100C13F9087B71603
:100740000000AA852687938686ED2285EF00101388
:100750004101E5B3AA959C218831A2073E95420547
:100760004181828001458280EFF2FFDA9C21AE84D4
:100770002A841CA19C311CB1BC213CA1BC313CB1E0
:10078000DC215CA1DC315CB1FC217CA1FC317CB1C1
:100790009C251CA59C351CB5BC253CA5BC353CB591
:1007A000DC255CA5DC355CB5FC257CA5FC357CB581
:1007B0009C29C5451CA92685713F2AA8CD452685BB
:1007C000513F4AA8D545268571376AA8BDB3104167
:1007D0000348C5001C223307B8001377F70FB3D6C0
:1007E00007419D4763ECE70093F7F60F58A57D5549
:1007F0003315B5001345F5FF7D8D828093071600F4
:100800001CC11C32214633060641B397C700D58F61
:10081000611793F7F70F1377F70FC9BFEFF2BFCF49
:100820002CD183458507930405062A8423060506F3
:100830002685713F834594072305A4062685413FFD
:1008400083472409A305A4062307F40693B71700DA
:10085000A307F406DDB1EFF21FCC2E848D3F7D148B
:100860008547B39787001D8D62056185F9B185477E
:10087000638CF60091C68947638AF6000D8D11A03E
:1008800032954205418182802E95E5BF118DD5BFFD
:100890008547638CF60091C68947638AF6003295D6
:1008A00011A02E95420541818280118DE5BF0D8DED
:1008B000D5BFEFF25FC38344850603499506411116
:1008C0002A84AE89328B834BA40693FAF90F338ABC
:1008D0009B40137AFA0F63743A01937AFA0F034735
:1008E0000407939C8401131C89010355440693DC7F
:1008F0008C41135C8C41BA866286E6853AC6493FD4
:100900003247835D64066286BA862A8DE6856E85E7
:10091000B93F2A86324763080B028347E40623095E
:10092000F408D686EA852285B521CE9493F4F40F97
:1009300063E14903B3847441050993F9F40F137912
:10094000F90F814449B78347D406E5F38347F4069A
:10095000F9B723049406A30484074101D9B6EFF242
:100960001FB92A84130A0506553D8345A4075285FD
:100970008309B406CD358345B4072A8C5285E13D01
:100980008345C4072A8B5285F9358304A406AA8AB5
:10099000635D90084E9B834B0407330B6041035506
:1009A0004406620B135B8B41DE865A86E285CD35A9
:1009B0002312A4062A89035564065A86DE86E28538
:1009C0007D352313A40685472A86638CFB06638046
:1009D0000B0689476387FB088D47638BFB0A2A87D1
:1009E000CA86CA852285E12129C1231404068345CC
:1009F00064075285E93B834574072A895285C13BC8
:100A0000AA840146CA8522856D35A68522850546BC
:100A10004D3585455285653B6DF583079406E3C8E2
:100A200037FD8347E4062309F4085685EDBCCA94D4
:100A300093960401B304350113970401C1824183E5
:100A40004DB7B3073941AA940509931609011397C5
:100A500004018507C18241831399070113590901D4
:100A600049B70547B3049740B307990033073741A7
:100A70009304190093960401B305E500930415004F
:100A80001397040113960501C18241834182E9B79E
:100A9000B304954013061500B306390185041317F6
:100AA0000601C20613960401C1824183418215BF2B
:100AB0003C4D1307F00FDD076368B702130700060C
:100AC000637DB70003578508BA97983335C39423DD
:100AD000E39CB6FE13852700828013070004E376AB
:100AE000B7FE03576508CDB7EFF2FFA20354A50880
:100AF000AE843E94228981454A85A9392A94894544
:100B00004A8589391109E36895FE1C301820A2072F
:100B1000D98F13978700A183D98FC207C18399CB3F
:100B20006395F4001305340009BC3C203E94F1BFEA
:100B3000014582800145CDBFEFF2FF9D2A848D3FA4
:100B40000DC5AA852285D9398345A40793040406D7
:100B5000268511338345B4072308A4082685E53983
:100B60008345C4072685C539C9BA0145F5BFEFF2EB
:100B70001F9823050506AA84AE8AF12BC1671309C5
:100B800000FC014A0144138BF7FF9389E7FF930BA5
:100B900000FC83C50A00DC4026858297AA85630392
:100BA0006503850AE30735FF26857937131A0501A2
:100BB000135A0A0163147901038904095294420407
:100BC0004180C1BF8387A40691CF03870409BA97E8
:100BD0003E943304444142044180635520014A94C9
:100BE0004204418022856FF01F94A306B5068280DF
:100BF000EFF2DF908347050705472A842E89B284E8
:100C0000B689638FE7029DC709476383E7040D47F1
:100C10006384E704CE8523122407231394062285D8
:100C2000413DAA85014589C52285153B4205418183
:100C30006FF01F907C4D8297AA94C204C180D9BFE7
:100C40007C4D82973309A940420913590901D9B74C
:100C50007C4D8297898CD5B77C4D82972A99EDB7C8
:100C6000EFF2FF884169AA8C2E84B284B689130AF8
:100C7000F9FFD521014C7919854A094B8D4B83A782
:100C80004C0083C5090066858297AA8663034505E3
:100C90008509E30625FF2686A2856685913F83C7E1
:100CA0000C076380570391CB6381670363817703EC
:100CB0002A9C420C135C0C01D9B72A94420441804F
:100CC000C5BFAA94C204C180E5B7098CC5BF898C91
:100CD000D5BF62856FF03F85EFF2FF83B717000045
:100CE0009387C70B5CC1AD3F6FF03F853C4DA9CBEF
:100CF00003061508830625088347D5082307C5087A
:100D0000A307D50895CF0547639FE70083073508FC
:100D10006354F6002307F5088307450863D2D7021A
:100D2000A307F50882808307E50703070508BA973C
:100D30006354F6002307F5086354D700A307E508BA
:100D40008280B7070000938747767CCD8280384D3C
:100D5000630DB700EFF22FFC2A842CCC1305450756
:100D60002134228561376FF04FFD8280EFF2AFFAB8
:100D7000B71700009387C70B5CC1D53B6FF0EFFB43
:100D8000EFF26FF97E3D1D8E5C55420641828297DF
:100D90006FF0AFFA8347C508C1CBD9C6854763F961
:100DA000D70089476317F7068505958DC205C18170
:100DB000058B25EF8357C5046368F6068357E50462
:100DC0006374F606AE96C206C18283578504035843
:100DD000A50463F9B60463F605059306F8FFC20699
:100DE000C18263F3D704BE8863F3B700AE889395DE
:100DF0000801C181C28763F30601B687B386B74095
:100E0000C206C182EFF22FF11C599C4782976FF006
:100E1000CFF28D47E31EF7F80506158E4206418294
:100E200041BFBE85E3EF05FB828083578504E3ED78
:100E3000F5FE8357A504E3F9F5FEB296C206C1821A
:100E40008357C5040358E50463F9C60263760603B5
:100E50009306F8FFC206C182E3F8D7FCBE8863F3AD
:100E6000C700B288139608014182C28763F3060166
:100E7000B687B386C74069B73E86E36F06FD6DB798
:100E8000894763E5B7002309B508828085472309B0
:100E9000F50882806379B60085476364D500B3B7EF
:100EA000C6003E858280E36CD5FE8147DDBFEFF250
:100EB0008FE62A84AE848355E5040355C50436893C
:100EC000BA86C93F01C98355A40403558404CA8660
:100ED0002686C9376FF06FE60343250993787600BD
:100EE0008547339817011378F80F014E63E56700C3
:100EF000428E6309F30403230500619A5C5903439E
:100F000003013306660242064182B295BE950DCFBB
:100F100005479C218508FD16B367FE00B347F8001E
:100F2000C2069CA193F87800C18263900804323D08
:100F300083472509B2956365F700054E638EE70286
:100F400005481DA8014845BFAE96C206C1829C2136
:100F50008505B367FE00B347F800A38FF5FE9397AE
:100F60000501C183E395D7FE828093171E00060812
:100F700013FEF70F1378F80FC9FE828083458503AF
:100F80001441834895031397050141839317370054
:100F90005EBD9C2A13980801135808018E073EBDB8
:100FA000931738007EBD903AC6956356B600330756
:100FB0000641420741830E072310F504BA97231117
:100FC000F504DE2A2312F504FE2A2313F504828099
:100FD000EFF26FD465376FF04FD6EFF2CFD34D33CA
:100FE0006FF0AFD5EFF22FD3035765058356250574
:100FF00003564505835505052A84553D09E5230615
:1010000004086FF08FD385472306F4080357840440
:10101000835704056374F7002314F40483572405ED
:101020000357A40463F4E7002315F404835744052D
:101030000357C4046374F7002316F404835764054C
:101040000357E404E3FFE7FA2317F4045DBFEFF26C
:101050008FCC03574504231405042315E5043841B8
:1010600078C549376FF06FCDEFF2EFCA1C59417761
:1010700038C9DC4378C982976FF02FCCEFF2AFC943
:1010800093071010230CC502A30C0502A306050646
:10109000A3060508A30805082319F5081C4354D521
:1010A0004CD918D9232C05042A84829722856D3FB8
:1010B00022854139230804066FF02FC8D1C9A947FA
:1010C0006388F508034765022DE79307B00F63FABD
:1010D000B70095472303F50285890EB1C165F9155F
:1010E000B9A09307700F63F7B70091472303F50288
:1010F0008D89E5B79307F00E63F7B7008D4723039B
:10110000F5029D89D9BF9307F00D63F7B7008947B2
:101110002303F502BD89D1B79307F00B63F7B7003E
:1011200085472303F502FD894DBFC205C1812E8588
:1011300082801E3193F5F5037D179A07DD8DC20578
:101140001377F70FC1812303E5020EB16DD379B791
:10115000C165FD15E9BF230305028280EFF2AFBB35
:101160001C492E8681469305000282976FF0EFBCE2
:10117000EFF26FBA1C49B2862E86DD4582976FF07A
:10118000CFBBEFF24FB94111CC871306F100854573
:10119000C53741016FF06FBAEFF2EFB75C452E86AD
:1011A0008146D54582976FF04FB9EFF2CFB65C45D7
:1011B000B2862E86DD4582976FF02FB8EFF20FB41E
:1011C0004111AA842E845D49E549130AE00FD54AEE
:1011D0000C20638C25036367B90063F0550341015C
:1011E0006FF00FB563FBB902E39B45FF1030930529
:1011F00090022685D087E92439A01030DC4481464E
:10120000D087268582970904E1B71C301306F100C8
:1012100085452685DC87513FFDB7DC448146014684
:101220002685050482976DB79387C5FE93F7F70F60
:1012300015476362F704EFF20FAE6D678A07130775
:1012400007C0BA979C4341113289AE842A848287B1
:1012500081452937CA8522852D37054541016FF023
:10126000CFAD854536C6DD3DB2461C484A86A685CB
:1012700022858297E5B701458280EFF22FA82E8460
:10128000CC212A89B2898E0593F5F50393E50504EF
:10129000213783C569004A8593E5850BF53D7C20A0
:1012A000A1CF542058309387860093F7870F958FEE
:1012B00093F7F70F9375F70F63F4E70093F5F70FC4
:1012C000AE960D8F10408E0593F4F50FA68554A0B1
:1012D00058B04A85D93D0C405C30AE9404C091EBC7
:1012E00083A709001CC083C749005CB07C20FD17A0
:1012F0007CA05C209D8BC5F76FF08FA3EFF2AFA1B0
:10130000A94741112A84638CF50863EAB700A54711
:101310006381F5088144268541016FF00FA2AD4736
:101320006381F50CBD47E397F5FE9C423689D432C4
:101330003EC483574900508713978700A183D98FF4
:101340007C869D4763E1D7025C4581460546E145C1
:1013500082974A862C0022850D375C4481460146DF
:10136000E545228582971886BD478544E3E5E7FA7F
:101370005C4481460946E145228582974A862C00D5
:101380002285E53D5C4481460146E54522858297FC
:1013900059B7ED65938585C165208544ADBF75203E
:1013A0005C4481460546E145228582979385818686
:1013B000228529355C4481460146E5452285829790
:1013C0005C44E14581460946228582979385818662
:1013D0002285ED335C4481460146E54522858297AE
:1013E0006DBF5C4581461DE60546E14582979385C4
:1013F000C1862285E1335C4481460146E54522856C
:1014000082975C44E145814609462285829793850F
:10141000C1867DBF0546E145829793850187228578
:10142000713B5C4481460146E545228582975C44D8
:10143000E14581460946228582979385018749BF08
:101440000CC1BC292301F5028280EFF2CF8C5C49EC
:1014500081460146930580022A8482975C44814636
:101460000146D14522858297228505469305B00421
:1014700081281C40228593059002D023912022854B
:1014800001469305B0042D281C4022859305900247
:10149000D0233D20228505469305B00415201C402D
:1014A000930590022285D03321286FF00F89EFF247
:1014B0008F861C4581460146A54582976FF0EF87D0
:1014C000EFF26F855C49814682976FF00F87014587
:1014D0008280B71700009387E74C1CC55CC51CC908
:1014E0005CC9FD5723200500A30105022303050263
:1014F000232C05002302F5022304F5028280EFF27B
:101500008F8141112A842EC632C436C23AC0D137E7
:10151000B2452246924602470CC450C414C858C86B
:101520002285713741016FF04F8137050020130587
:101530000550828005458280EFE2FFFD854741111D
:101540002A8663F5A7008D4763E6A702B707002048
:1015500083A5075037B5000074001305C5F802C60F
:10156000EFB0702601C9B24791C7B7E700E0116735
:1015700023A0E720054541016FE03FFCEFE2BFF902
:10158000B70700202A8403A507507D5781460546EA
:101590008D45EF90807D8547630FF50011C9894720
:1015A000630BF5008D476308F50005456FE0FFF814
:1015B00023200400DDBF08C0CDBFEFE2DFF5B70791
:1015C000002083A50751411137B50000740005467E
:1015D0001305C5F802C6EFB0101F01C9B24791C785
:1015E000B7E700E0116723A0E72041016FE0FFF4B7
:1015F000EFE27FF2B705002003C7D550B707002000
:101600009385D5502386E750B707002003A54750A0
:10161000EF90A00183A7819182976FE01FF23705B9
:1016200000201305055182803705002013058550E1
:101630008280EFE25FEE85476382F6048947638329
:10164000F604014781463704002013044450014644
:1016500008C0EF80F06E084037160000B715000094
:101660000D4785461306A65B9385055FEF80D07511
:101670000840EF80F07305456FE03FEC0567930687
:101680000060D1B705679306004075BFEFE2BFE881
:1016900037040020AE841304445015C90840B70530
:1016A00000209385D550EF80507837150140930581
:1016B0000020130505C0EF705026B707002003A5D2
:1016C000075195C08545EF90E07F6FE01FE7371524
:1016D000014093050020130505C0EF70102308405A
:1016E000EF807076D9BF0147814605468545EF906A
:1016F000C067E1BFEFE23FE22A843715014093055E
:101700000020130505C0EF705020B707002003A587
:1017100047509375F40FEF80B06F05456FE0FFE120
:10172000B707002083C7C7501CA105458280EFE2A0
:101730009FDEB704002003A504517D57814605466E
:101740008545EF9080628547E317F5FE83A7C19139
:101750008297D5B7EFE23FDC08218545EFC0B07F27
:101760007D572386E1806FE05FDDEFE2DFDA411134
:101770008545054502C202C423160100EF50004012
:1017800083A7018237470F0013070724B3D7E70267
:101790004C0037050040231501007C84896793873E
:1017A000F7703EC2EF50A05A054685453705004008
:1017B000EF50500C854537050040EF50300A854505
:1017C00037050040EF50B013B7E700E0056723A2EC
:1017D000E71041016FE07FD6EFE27FD14111B709F9
:1017E000002061370144138C4180938B0944138B93
:1017F0008180914A93140401C1801385A40042059D
:101800004181EF109078B3078C0088A31385E40022
:1018100042054181EF107077B3878B0088A3138551
:10182000240142054181EF105076B3078B0088A355
:101830000504E31154FDB7060020938686511386F4
:1018400081809385094413854180EF60C076956758
:10185000938707E23EC29167938787A93EC44800F9
:10186000A5473EC6EFC02041C9311841B707002047
:1018700023A4E75241016FE01FCBEFE23FC8011103
:10188000C88793F745002E84A9C79379F50F1307EE
:10189000C0033387E902B7F70020938707D5BA97CB
:1018A000D44798473697D44B9C4F3386F6006374E1
:1018B000C700B307D740B7040020938444528E205A
:1018C0003ECE13076010AE976371F7061305F10063
:1018D0005135937784009DCB9384C18098209307E2
:1018E000F00F6315F70288878545EFC0D04B8887D6
:1018F0000566130686B6B305C502B71700209387A1
:1019000087B6BE95EFC020739C879CA09377040197
:1019100081C77D572386E1801374040401C47D5779
:101920002386E18005616FE0BFC0372900201309DD
:1019300089237008CA954E85EFC000759E207247B6
:101940003E97420741839AA09947E3F4E7F883560C
:10195000490093978600A182D58FC207C1839386E1
:101960005700E3D8E6F69907E312F7F60545EFF0DE
:10197000BFBCB704002003A584527D5785460546A9
:101980008545EF90803E37060020B72500201306DE
:101990004651938505344E85EFC05024938484527C
:1019A00001C51305F1007D3388408945EF908051D2
:1019B0000DB7EFE25FB6EFC0903A937715002A8437
:1019C00099C737B50100130505C3EF50310193776F
:1019D000240099C737B50100130545C4EF50110025
:1019E0009377440099CBEFC0703B118919C537B587
:1019F00001001305C5C5EF50617E418819CC014532
:101A0000EFC03037AA8519C10145853D0545EFC0B6
:101A10005036AA8519C105458D356FE01FB2EFE23A
:101A20009FAF39711304601F11C12A841306C003CC
:101A300081454800EFE03FB18D4722D64C0013842A
:101A4000D1801385D1803ED0EFC0203D814719E978
:101A50000820EFC0903A854711C508208945EFC09E
:101A6000904F81473E8521616FE03FADEFE2BFAA15
:101A70001385D180C5316FE05FACB7270020938715
:101A800087231CC1B7070020938747529A23054537
:101A9000239007009AA18280EFE2FFA7B7270020DA
:101AA0002E862E84AA851385073493840734EF404D
:101AB0009105B707002023AA87503704002013049C
:101AC00084520840B7070020854523A09752EF9025
:101AD000603F08407D57854605468945EF90E028E0
:101AE00005456FE09FA5EFE21FA383A701928297B0
:101AF0006FE0BFA4EFE23FA2B726000095652A86FB
:101B000095470547938666AE938575C90D45EF8069
:101B1000500205456FE07FA2EFE2FF9F0D45EF8089
:101B2000804C6FE09FA1EFE21F9F0D45EF80607535
:101B30006FE0BFA0EFE23F9EDD3501E50D456FE0B0
:101B4000DF9F0145EDBF8280EFE2FF9C05376FE02C
:101B5000DF9EEFE25F9C01112A84AE846808930542
:101B6000A10132C6193F15C9724715453C333423CC
:101B7000A207D58F93968700A183D58FC207C18313
:101B800091EBBC8532461D0798C0E5171EA2FD5794
:101B90001CA0014505616FE05F9A1545E5BFEFE2C6
:101BA0009F979307160013D787401D06238FF5FED6
:101BB0002E85A38EE5FE93150601C1816515E93DCD
:101BC000954711C181473E856FE03F97AA95C205B1
:101BD0006D666D681307F00F9306F00FC181130651
:101BE00006C7130808D793170501C1836396F5004C
:101BF00013958600598D828005058347F5FFB98FBF
:101C00003307F6001823C297358F9423E9BFEFE21C
:101C10009F9032842E852146A285EFF09FA18547B3
:101C20006316F5029567938707B01305300263E8E2
:101C3000870037151602130505EC3355850242055A
:101C400041814D3D054781476303E5008D473E8552
:101C50006FE0BF8EEFE23F8CB7070020814505455E
:101C600023A60752EFF09FA2453D6FE01F8DEFE2E4
:101C70009F8A81450145EFF07FA175356FE0FF8BAD
:101C8000EFE2DF8737040020130484531E2013077C
:101C9000F00F41116371F702B7B601006D6637B5F9
:101CA0000100938606EC130606E79305D009130599
:101CB00085EEEF40615C1E200D476366F700154519
:101CC00041016FE0FF862E890E20AA89372500206A
:101CD000930485441305854432C6CD3D6DF19C20A7
:101CE000324685042380F9001E20F5171EA223200A
:101CF0009900F9B7EFE23F82B707002083A4C752EB
:101D00008547639FF406370400201304A45306A0FC
:101D1000AA87A38FF5FE1E201385F5FF3707002045
:101D20003E964206418212A00E20232AA752793DF8
:101D30001A209376F50F21814207418393071700FC
:101D4000C207C1831EA0B7270020938787443E9710
:101D500014A31A201375F50F854542074183930696
:101D60001700C206C18216A0BA9788A3B707002041
:101D7000014523A89752EFF07F9101456FE0EFFBFB
:101D80001545EDBFEFE22FF9B707002083A70753F2
:101D9000411185C3B7B601006D6637B50100938662
:101DA00006F0130606E89305600E130585EEEF4076
:101DB000A14C1305F100EFF0BF96B7070020938701
:101DC000C75298438546630FD70019C789466304F5
:101DD000D7048D476314F700EFF01FD4014541018C
:101DE0006FE0AFF5B7060020938686532390060078
:101DF0009A221316070141821307160042074183F6
:101E00009AA294873727002013078744329714A398
:101E1000094798C3D1B73707002013078753162304
:101E20001306F00F6363D6021E2393960701C18247
:101E300093871600C207C1831EA39887B727002087
:101E400093878744B69798A341BF0D47D9B7EFE270
:101E50008FECB707002083A7C75205476381E702CD
:101E6000B7B601006D6637B50100938606F8130614
:101E700046E993053012130585EEEF40E13FB704C4
:101E8000002093840453984019C7630BF700014462
:101E900022856FE08FEA81450545EFF02FFFC5BF32
:101EA000370400201304A4531E20C207C18385C732
:101EB000B7040020938444539C40882362056185C5
:101EC000EFF05F839C4085079CC01E20FD17C20772
:101ED000C1831EA06DBF0D45EFF00FE62A8481453A
:101EE0000545EFF0AFFA23A004005DB7EFE2AFE2E3
:101EF000B70700201387C7521443094641111384C2
:101F0000C752638FC6028D476388F604014595CAA0
:101F10001443B9C214436381C604184301456304E2
:101F2000F702B7B601006D6637B501009386C6F1BA
:101F3000130686EA9305D015130585EEEF40C133ED
:101F40000545EFF06FDF2AC6EFF0FFBD324585474C
:101F50001CC041016FE06FDE0145F5B796211547C2
:101F60006398E608582130319306E07C2207518FB0
:101F7000131687002183598E420641821307F6FF0C
:101F800042074183AA870D4563E6E606EFE2AFD834
:101F9000B8239433239005002207558F854694A3D8
:101FA00096219354360093F4F40F850696A1937608
:101FB000760081C6850493F4F40F84B396212E84B1
:101FC00013852700850696A19315870021834D8FE1
:101FD00093051700C2058146C181EF20C02901C5C4
:101FE000192B6FE08FD51E200145BE9406A0D5BFEA
:101FF0000D45828082809A2195476311F70658210A
:102000008D4731EF38311306D00F9306F7FF93F663
:10201000F60F6376D604EFE20FD03C210C3141116C
:10202000A207CD8F93958700A183CD8F938517004D
:10203000130717F0C2051337170085460546C181FF
:102040006800A30601005886EF20E022814719C1ED
:102050005D21AA873E8541016FE02FCE8D473E85E9
:10206000828096211547637FD70658213031AA8791
:102070002207518F131687002183598E4206418211
:1020800013573600937676001377F70F81C605074E
:102090001377F70F9306F6FFC206C1821308F07A92
:1020A0000D456363D804D4336390E604EFE2AFC612
:1020B000B8232E848C332207138567004D8F931627
:1020C00087002183558F0507931507018546C18138
:1020D000EF20601A01C505216FE02FC695471EA0AD
:1020E0000145DDBF0D4582808280962115476397AB
:1020F000E608582130319306E07C2207518F1316F1
:1021000087002183598E420641821307F6FF42075A
:102110004183AA870D4563E5E606EFE2CFBFB8230A
:102120009433239005002207558F894694A3962166
:102130009354360093F4F40F850696A193767600B7
:1021400081C6850493F4F40F84B396212E841385FD
:102150002700850696A19315870021834D8F93054F
:102160001700C205C181EF20601F01C569266FE01D
:10217000CFBC1E200145BE9406A0D5BF0D45828070
:1021800082809A219547631CF702EFE2CFB83C2189
:102190000C318546A207CD8F93958700A183CD8F03
:1021A00093851700C2050546C1810D05EF10B07C6F
:1021B000814719C18926AA873E856FE00FB88D47F0
:1021C0003E858280EFE22FB59A21954463F7E406BD
:1021D00058213031930670072207518F131687005C
:1021E0002183518F1316070141821307F6FF42071F
:1021F0004183AA870D4563EDE602D4331317160019
:102200001377F70F6396E602B8232E848C332207E8
:10221000138567004D8F931687002183558F05071F
:10222000931507018546C181EF10F07401C5E124C3
:102230006FE0AFB006A00145E5BF0D45D5BF9621C3
:102240001547639AE606EFE20FAD54211306C00767
:10225000AA8793940601C1801387F4FF4207418344
:102260000D456362E6042E84B8238C3323100400EA
:1022700088A3122086062207050612A04D8F94B36C
:1022800093158700162021834D8F9305170085062F
:10229000C20516A026868146C18113852700EF104E
:1022A000906D01C5892C6FE04FA91E208604014561
:1022B000BE9406A0CDBF0D4582809A21A54763F24A
:1022C000E70EEFE2AFA35C2138312A84A207D98F51
:1022D00093998700A183B3E7F9009399070193D9F4
:1022E00009019387F9FFC207C1831307C0070D4592
:1022F0006367F70A1C24703013078007A207D18F89
:1023000013968700A183D18F13960701418293070B
:10231000F6FFC207C1836364F708183493171600E9
:10232000639FE70624202E890C30A2047C20CD8CEC
:102330004C30A2078546CD8F93958700A183CD8F22
:1023400093851700C205C1811305A400EF10B06288
:1023500039E923100900DD471CA083570900139AAF
:1023600019009395840085072310F900A300440108
:1023700083570900A180CD8C938514008507C20581
:102380002310F90081464E86C18113052400EF1009
:10239000905E11E9835709003E9A231049016FE0CE
:1023A0002F9901458280812ADDBF962115476390D0
:1023B000E608582130319306B0072207518F1316D3
:1023C00087002183518F1316070141821307F6FFFF
:1023D00042074183AA870D4563EDE604EFE2AF9320
:1023E0002E843E858C331147BC232310040018A192
:1023F0001A20A2079314160005071AA004B1CD8F66
:10240000939587001A20A183CD8F93851700050728
:10241000C2051AA0C1810905EF10B05301C5E1281A
:102420006FE0AF911E200145BE9406A0D5BF0D45BB
:1024300082808280EFE22F8EB707002003D4C7533B
:10244000AE84B72500202286938585540505EF309C
:10245000916B050482A001456FE02F8EA14763F3C5
:10246000C702EFE24F8BB7B601006D6637B50100CA
:102470009386C6FA1306C6F9930580031305C5FBB8
:10248000EF30915F13D73500930717003308E5004D
:102490003E958547B397C700FD17C2070E073387E0
:1024A000E540C183B397E70018210346080093C7AE
:1024B000F7FF2207518F9D89F98FB396B600DD8E05
:1024C000C206C1862300D800C206C182A18214A11F
:1024D000828093D735003E951C3108219D89A20743
:1024E000C98F05453315C500B3D7B7407D157D8D20
:1024F0001375F50F82809D4763E7A7009387418797
:10250000AA978823828011458280EFE2CF80AE8730
:102510001388F7FFB2851378F80F36869306600F9D
:1025200063FC060137B501001305C5FDEF40114BF3
:10253000094422856FE06F80238AF180094475F990
:1025400037250000130545C523A8A19037250000B5
:102550001305E5C623AAA19037250000130545CF32
:1025600023A4A19037250000130505C823A2A1903C
:102570003725000023A60190130545D823ACA19070
:10258000372500001305E5E423AEA19037250000B0
:102590001305C5EE23A0A192BA863E85EFF02FE782
:1025A0002A8441F9EFE01FF909C5054723A8E18016
:1025B00049B70D44BDBFEFD21FF6EFF0AFD72A8465
:1025C00019C5054723A8E18022856FD01FF7EFE0EA
:1025D0007FF61DCDB7270000938767B423A8F1903D
:1025E000B7270000938787B423AAF190B72700008C
:1025F000938727B523A2F190B72700009387E7B907
:1026000023A4F19023A601907D57238AE18055BF32
:102610000D445DBFEFD23FF0138401811840854720
:1026200019456318F70083A701918297014523207C
:1026300004006FD09FF0EFD21FEE83A701814111FC
:1026400019446395070C6800EFE05FF30547AA871C
:102650006304E50001445DA832476303A708894687
:10266000E31AD7FE03A581920C213707002023A08F
:10267000F190130607002382B1928147138481925F
:102680001389419293840190130707004148142253
:1026900091CA6391D5088E07BA97DC439385E1927E
:1026A000829788C083C7C192D5D794409387E1921F
:1026B00085C203470900104085458EA3136707F8BC
:1026C00018A292231840930516008EA3329714A3E4
:1026D000922303A781900C4003C5418102979DBFBF
:1026E00083A741909384C1921386E192938581924E
:1026F0001385C19282972A8431FD9C2003C74181B2
:102700006303F700A1FB0945EFE01FE322854101C8
:102710006FD0BFE285072106E39B07F761B79307F8
:1027200040063345F502A9474205418163E8A70603
:10273000ED679387C7FE0A053E951C41828723807B
:102740000500930760041CA2828089479CA193071F
:102750008002D5BF91479CA1E547F5B795479CA15D
:10276000D147D5B79D479CA1BD47F1BFA1479CA1CB
:10277000A947D1BFAD479CA1A147F1B7B1479CA1E3
:102780009D47D1B7B9479CA1994775BFBD479CA14B
:10279000954755BFC1479CA1914775B7D147E5BF44
:1027A000EFD27FD77971BD47AA842E8436859305F1
:1027B0006100130671005C83DC8395379C83034EB4
:1027C00061009308C05D93960701C182B388F84009
:1027D00013982700139716008608B30EC041139371
:1027E0002600814701458145054FD14F634A1701B6
:1027F00005476369F70A81471EA045616FD0FFD383
:1028000093161700A6960396060063DBCE04635961
:10281000C605B30607418606A6968396060063C5DD
:10282000C604B306E8008606A69683960600634DA6
:10283000D60211C19DCD81459386170010188607D9
:10284000B297135617001A974207050593F6F60F2D
:10285000239CC7FC41831375F50F63EDDF00B6873A
:1028600009074207418359B719C16384E5018545CA
:10287000E1B795463000054781472E220A22050719
:102880001377F70F898DAE97C207C1830906E366F8
:10289000D7FEFD16B3C7D702C207C1838607C2079A
:1028A000C18399BFBE86F9B7EFD2FFC6B386C50212
:1028B000AA88014701450148634FD7002E8681460B
:1028C000C285EF10615FEF30E159EFA09008EF3063
:1028D000A17C6FD09FC693171700C69783970700F8
:1028E00032974207B387F702418313DEF741AA9775
:1028F00033B3A70072983E851A987DBF856793878A
:102900000777AA971A2136211105158F231EE5FE98
:10291000E39AA7FE82800566814701478146130638
:1029200086BB139817002A9803180800939807018C
:1029300093D8080163D406014687C2868907E392CB
:10294000C7FE05839AA136858280EFD2DFBC05459C
:10295000EF50B0771384A193931505010420C1852E
:102960000545EF602007B74700208604938787CD91
:10297000A6978AA31C209546850793F7F70F1CA0FE
:102980001387818163F4F6040C23373501408546B3
:1029900005461305058023000400EF30300203A52F
:1029A000C1931384C19401479387C1948546094616
:1029B000814523200400EFA0E00F1C4091C7B7E73A
:1029C00000E0116723A0E7206FD03FB7BA978C23B0
:1029D000373401401305048085460546EF30007EFC
:1029E000854513050480EF30E07BF9BFEFD2BFB21D
:1029F0000945EF701009B707002083A6C722416779
:102A000079179C4203A5C193F98F9CC213848194CA
:102A10000147938781948546114681452320040010
:102A2000EFA040091C4091C7B7E700E0116723A061
:102A3000E7206FD09FB09D4763E8A702EFD2BFADFC
:102A4000AA852A845945EF00D04C3705002013058C
:102A5000050806042A941A20B7470020938747D315
:102A6000DAA39AAB6FD07FAD8280B747002003D541
:102A700087D382801385C1938280138501948280DD
:102A8000411106C622C44AC24EC0EF302156B7B724
:102A9000010003A6070E83A6470E37B40100EF20FE
:102AA000312BB7B7010003A6870E83A6C70E2A896C
:102AB000AE89EF202148B7B701006348050203A69D
:102AC000070F83A6470F4A85CE85EF20712803267E
:102AD000840F8326C40FEF20215CEF30E15BB2400E
:102AE0002244124982494101828003A5070F83A530
:102AF000470F4A86CE86EF20B1250326840F832612
:102B0000C40FEF206159EF302159D30705F0D39757
:102B1000F720538507E0E1B787A70193539517C0C6
:102B20001375F50F8280EFD21F9F5D71EF50500A31
:102B3000A9450145EF50F00A6D6429469305040943
:102B40000145EF503018A9450545EF509009294639
:102B5000930504090545EF50F016A9450945EF50C6
:102B600050089305040929460945EF50B01593070D
:102B70000010B70608007010894501452316F102C0
:102B8000EF50706893070002BEC0B72701409387DB
:102B9000C744BEC2B727002093878756BEC4854767
:102BA0003EDE8567938787BB2316F1040C18856783
:102BB000130600020A853EDC02D802DAEF30A17467
:102BC000B73600000A859386C69E01468545EF50BC
:102BD000F07EB707002003A7C722814605461C43A5
:102BE000B7050E00054593E717001CC337370000F3
:102BF0001307A794EF50506B83C58181373501408F
:102C00009D46054613050580EF30405B0545EF30D6
:102C1000606637450020130985DA130600328145C6
:102C2000130585DAEFD03F925945EF00D032B70453
:102C3000002093840408060526951E2137440020B1
:102C4000130444D3374500205EA02320240113063B
:102C500000321309850C8145231404001305850CEB
:102C6000EFD07F8E5945EF00102F0605AA949E20C5
:102C700037470020130747CE1EA858D08D47374747
:102C800000205EAC130787CF18D89387419337474E
:102C900000201CCC1307C7D0A9471EB45EB8231070
:102CA000F40458DC2316F404231CF40437470020F2
:102CB000B7470020130707D2938747D9231A040088
:102CC000232624012310040223160402231C0402D9
:102CD000231204042318040438C4231E04047CC8EB
:102CE00061616FD09F851A251C410607BA978EA394
:102CF0001E255A218507C207C1831EA563E4E7008C
:102D000023140500828052211E2581469305F6FF7B
:102D1000C205C18101476317D6003345C70242058A
:102D20004185828091E3AE87FD17C2070328050025
:102D3000C183939817004698031808008506C206B9
:102D40004297C182C9BFA54763ECA712EFD2AFFC7F
:102D5000ED67938787010A053E951C4182873745B9
:102D60000020130545D3EFF01FFAD37705D001A259
:102D700037450020130505D4EFF0FFF8D37705D0D1
:102D8000538507E0EF308126B7B7010003A687120D
:102D900083A6C712EF204130EF300130EFF05FCE55
:102DA0006FD0AFF9374500201305C5D4EFF0BFF55C
:102DB000D37705D0538507E0EF304123B7B7010043
:102DC00003A6871283A6C712EF20012DB7B7010013
:102DD00003A6071383A64713EF20012CEF30C12B66
:102DE000C1B737450020130585D5EFF0DFF1D37764
:102DF00005D0538507E0EF30611FB7B7010003A688
:102E0000871283A6C712EF202129B7B7010003A6B6
:102E1000871383A6C713C9B737450020130545D6C6
:102E2000E9B737450020130505D7C1B7374500205E
:102E30001305C5D7EFF03FEDD37705D0538507E0F5
:102E4000EF30C11AB7B7010003A6871283A6C712D5
:102E500061B737450020130585D8EFF0DFEAB7B733
:102E60000100D37705D007A74712D3F7E7105385A2
:102E700007E03DB703954194CDBD03A501930DB780
:102E80008280EFD24FE641119307B05D7C8323121D
:102E90000100EF80906AB7B7010003AB870883ABEE
:102EA000C708B74C00202AC69544814A014C014905
:102EB0000144370D0020372A0020938C4CD38545E0
:102EC0006800EF90601489476307F9028D4763003B
:102ED000F902631009023735014085451305058065
:102EE000EF30402C0945EF7000100D49C9BF09496A
:102EF000F9B70549E9B7014734001946814501454D
:102F0000EF90B012A247898BA1CBB74900209389DB
:102F100089CD054C31473305EC0283950900050C3A
:102F200089096695EFF03FDC9D473147E315FCFECC
:102F3000A947B377F402054C63929702FD1493F40A
:102F4000F40F91E0A5443735014085451305058010
:102F5000EF304025014C19A0E31C0CFCA247918BDB
:102F6000A1CF856A93098A56938A0A77CE9A839568
:102F7000090001458909EF50F025239FA9FEE39838
:102F80003AFF13058A56EFF07F979305210013054A
:102F90008A56EFF05F98AA860946930561001305EB
:102FA0008A56EFF0EFFF894A05041374F40FA54722
:102FB000E3F787F0014421B7E3880AFE2C83130767
:102FC000905D9387F5FFC207C1836360F7040946EC
:102FD00013058A56EFF05F8DD30705F04C009389F7
:102FE0000193539517C042054181EF50603BD37761
:102FF00015D0538507E0EF20717F5A86DE86EF20DB
:10300000A109EF30610923A0A9008327CD2205671C
:10301000130787BBD8C398430945814A1367170034
:1030200098C3EF60507C49B7EFD24FCDAE8985454C
:10303000B6842A843289EF3090089C201147636F50
:10304000F7006D678A0713070704BA979C438287C6
:10305000B70502002285EF30301019C1014541A8A3
:1030600085452285EF30300785479CA0C5BFB70551
:10307000030085052285EF30D00C8547E310F5FE6F
:1030800001469305A00D2285EF30900A8947F1BFD4
:10309000B7050700938525082285EF30900A8547FC
:1030A000E31EF5FACE852285EF30D0078D4775BF38
:1030B000B7050700938545082285EF3090088547BE
:1030C000E31EF5F8CA852285EF30D005914771BF20
:1030D000B7050700938545082285EF3090068547A0
:1030E000E31EF5F622858545EF30900005456FD04B
:1030F0002FC49C221947636CF70EEFD22FC06D6767
:103100008A0713074705BA979C43B6843289AE896C
:103110002A848287B7050200EF30100401C50145FB
:103120006FD00FC185452285EF30E07A85479CA09E
:10313000FDB7B70503008505EF30B0008547E31004
:10314000F5FE01469305A00D2285EF30607E89478C
:10315000F9BFB705070093852508EF30807E8547C6
:10316000E31FF5FACE852285EF30C07B8D47C1B7CE
:10317000B705070093854508EF30A07C8547E3102D
:10318000F5FA85452285EF30007591474DB7B705B3
:1031900003008505EF30E07A8547E312F5F8054630
:1031A0009305A00D2285EF30A078954749B7B70564
:1031B00003008905EF30E0788547E312F5F699477B
:1031C000BDB7B705001093850504EF30E07821D92D
:1031D00081452285EF3060732285EF30E074230053
:1031E000A90085452285EF30A070054515BF014532
:1031F0008280EFD2CFAF41111305803EEF80706D1A
:1032000037B50100B7440020130505106D6A93849B
:10321000843EEF30B17C81490149130A0A07138BC0
:10322000A4000509420913590901D14763FB27018D
:10323000914537150140639E0904EF50106D854993
:103240000149EF80902FAA8AA30701000544374C5B
:103250000020EF80902E33055541E54763FFA7021C
:1032600099476305F4028C8737B5010013054511B2
:10327000EF30D16437640040854513050480EF309A
:103280008065854513050480EF308066A307010043
:1032900049BFEF509068814965B79307E4FF93F702
:1032A000F70F11476366F7008A07D2979C4382871E
:1032B000376500409306F100294693050003130586
:1032C0000580EFF07FD60544E31585F8A3070100DC
:1032D000094441B7376500409306F1001306E10049
:1032E0009305000313050580EFF0BFE08547E31267
:1032F000F5F61C87A18B91E30D44A307010091BF54
:10330000376500409306F100138684009945130544
:103310000580EFF01FDE8547E31DF5F2A3070100EE
:10332000114405BF376500409306F10013869400F1
:103330009D4513050580EFF0DFDB8547E31BF5F0C6
:10334000A3070100154431B7376500409306F1002B
:103350005A86A14513050580EFF0BFD98547E31ACA
:10336000F5EE80248834B707800042042205498C9A
:10337000A824938C4194498C63F38702EF0010508A
:10338000B70700FF3E943354A40223908C0083952A
:103390000C0013054CD31944EFF0FF945DBDEF0012
:1033A000F04D3355A4022390AC00D5B70545A307D3
:1033B0000100EF80105271BD7300203037B501005D
:1033C00019711305051482FE86FC8AFA8EF892F6AE
:1033D00096F49AF29EF0A2EEA6ECAAEAAEE8B2E665
:1033E000B6E4BAE2BEE042FE46FC4AFA4EF852F6B5
:1033F00056F45AF25EF062EE66EC6AEA6EE872E645
:1034000076E47AE27EE0EF30715DEF907053AA854A
:1034100037B5010013054515EF30514AEF90B05212
:10342000AA8537B5010013054516EF303149EF90F5
:10343000F051AA8537B5010013054517EF30114843
:1034400001A0317106DF16DD1ADB1ED92AD72ED571
:1034500032D336D13ACF3ECD42CB46C972C776C5BC
:103460007AC37EC182FE86FC8AFA8EF892F696F4C2
:103470009AF29EF0A2EEA6ECAAEAAEE8B2E6B6E4B4
:10348000BAE2BEE042FE46FC4AFA4EF852F656F464
:103490005AF25EF062EE66EC6AEA6EE872E676E494
:1034A0007AE27EE0EF40004113050008EF3020276C
:1034B000FA50EA525A53CA533A55AA551A568A56DE
:1034C0007A47EA475A48CA483A4EAA4E1A4F8A4F94
:1034D0007670E6705671C6713672A6721673867370
:1034E0007664E6645665C6653666A66616678667C0
:1034F0007278E2785279C279327AA27A127B827B30
:10350000726CE26C526DC26D326EA26E126F826F7F
:10351000296173002030197182FE86FC8AFA8EF8C8
:1035200092F696F49AF29EF0A2EEA6ECAAEAAEE823
:10353000B2E6B6E4BAE2BEE042FE46FC4AFA4EF813
:1035400052F656F45AF25EF062EE66EC6AEA6EE803
:1035500072E676E47AE27EE0EF40F0147670E67090
:103560005671C6713672A672167386737664E664F7
:103570005665C6653666A666166786677278E2780F
:103580005279C279327AA27A127B827B726CE26CB7
:10359000526DC26D326EA26E126F826F096173003E
:1035A00020301971294582FE86FC8AFA8EF892F63F
:1035B00096F49AF29EF0A2EEA6ECAAEAAEE8B2E683
:1035C000B6E4BAE2BEE042FE46FC4AFA4EF852F6D3
:1035D00056F45AF25EF062EE66EC6AEA6EE872E663
:1035E00076E47AE27EE0EF30F04E85453705004024
:1035F000EF30F0307670E6705671C6713672A67292
:10360000167386737664E6645665C6653666A66686
:10361000166786677278E2785279C279327AA27A2E
:10362000127B827B726CE26C526DC26D326EA26E46
:10363000126F826F096173002030EFC2DFEDB74473
:1036400000201306D00381451385843FEFC0BFEFF0
:103650000947930640061306D0039385843F01452E
:10366000EF40B03C894751E91384843F142013078D
:10367000600681476383E6081306900281451305BF
:103680004401EFC05FECB7070401938767161CC0C5
:10369000B7C7FAF09387E77B5CC0B717C0A813875A
:1036A00027A3938717A05CC4C177938717101CC802
:1036B000FD575CA8FD779387676018C47EA809470B
:1036C00085479306803E1306D0039385843F0145CA
:1036D0001CACEF40D04319E537B501001305451880
:1036E000EF30D12F0947930640061306D003938588
:1036F000843F0145EF40703385473E856FC0FFE34F
:10370000B74700209387873F3E950CA1A1810CB15C
:103710008280EFC25FE02A84EFF09FFEB745002071
:103720009385853F0947A9460946A2952285EF4022
:10373000103E6FC09FE0EFC21FDEB74700209387A7
:10374000873FAA978CA30947A9460546BE85EF4047
:10375000103C6FC09FDEB74700209387873FAA9732
:10376000983388232207598D8280B747002093879A
:10377000873FAA979833A82322074205498F8823B9
:10378000498FA8336205598D8280B74700209387FF
:10379000873F3E9508218280B74700209387873F67
:1037A0003E9593D785000CA11CB193D70501E1810B
:1037B0003CA12CB18280EFC21FD62A84EFF0DFFD3E
:1037C000B74500209385853F0947A9461146A29534
:1037D0002285EF40D0336FC05FD6B7470020938774
:1037E000873FAA979833A82322074205498F882349
:1037F000498FA8336205598D8280EFC23FD02A8459
:10380000397113059003AE89328A3689EFF0BFF41F
:1038100063678506AA841305B003EFF0DFF3B307EF
:10382000954063D90700636A95047D14058C2A943A
:10383000420441801D453305A4020947A9461D469F
:103840006C001305D50342054181EF40101E1C8614
:10385000B8802380F9009C862304F9001C8723226A
:10386000F9009C87A304F900834721012310EA0093
:103870002301FA0021616FC0BFCB2A8465BF23807A
:103880000900CDBFEFC23FC90111AA841305B003DF
:10389000EFF07FEC2A8468004482EF60001C480847
:1038A000EF60201F1D453305A4028347C101388600
:1038B000A946DC82E24778841D465C838347D101B8
:1038C0001305D5034205DC831C8709474C00418161
:1038D0005C85EF40D0231305140042054181930716
:1038E000100363F3A7000145374400209307843F8A
:1038F000A38DA70213059003238E0702EFF0BFE507
:10390000930710039305843F63E7A7000505A38C85
:10391000A502238D05020947A94611469385950303
:1039200013059003EF40B01E05616FC01FC19147A2
:1039300063E0A704EFC23FBEED67938747190A050E
:103940003E951C418287856593850580372501401A
:1039500013050580EF50C07A1375F50F6FC0FFBDDA
:103960008565EDB78965DDB79165CDB7A165F9BF0F
:1039700001458280954763E5A704EFC2DFB9ED6793
:103980009387871A0A053E951C4182879305000498
:103990003725014013050580EF5080766FC0FFB9D1
:1039A00093050002F5B7C145E5B7A145D5B79145E7
:1039B000C5B73715014093050010130505C0E9BFD1
:1039C00001458280EFC23FB585476309F50211C505
:1039D0008947630AF5026FC05FB689E9A1453715CB
:1039E0000140130505C0EF504072F5B7A1453715EA
:1039F0000140130505C0EF504072F1BF99E1C14588
:103A0000F9BFC145EDB781E593050002C9BF930534
:103A10000002F1BFEFC23FB07971A9473ED23ED05C
:103A2000B74700009387E7924C0801453ED602CC89
:103A3000EF40703B4C080545EF40F03A4C08094513
:103A4000EF40703A4C080D45EF40F0394C081145F5
:103A5000EF407039B74700009387479C2C00014521
:103A60003EC802C6EF40902D2C000545EF40102DBA
:103A70002C000945EF40902C45616FC01FACEFC290
:103A80009FA9011199475C84938701953EC893874C
:103A900081953EC6B7071464D1073ECA8947230CF7
:103AA000F100B74700009387479728003ECEEF40CC
:103AB000304A05616FC07FA8EFC2FFA5EFF03FFC61
:103AC000EF407048EF80E060EF40504DEF40103520
:103AD000C5BFEFC2BFA279713714014002C602C848
:103AE00002CA02CCEF50A063F146014613050480E0
:103AF000C145EF50A05D130504C08D45EF50005B3C
:103B0000130504808D45EF50605A93050003371567
:103B10000140EF50A059130504809305400CEF506D
:103B2000E058B72401401385048093050078EF50D6
:103B3000E05613050440B165EF50405685653715D2
:103B40000140EF50A055130504408D45EF5000553E
:103B5000130504409305000EEF5040541305044034
:103B60009145EF50A053130504408565EF50005375
:103B7000E1460146130504C0A965EF50205593079F
:103B8000800411696C08130504C03ED2231E210174
:103B9000231F01002310010223110102EF20D0385E
:103BA000130504C08565EF50604F8569F1460146F5
:103BB000938509C0130504C0EF5040519145371556
:103BC0000140EF50A04D1305044093050004EF5051
:103BD000E04C370613808D65E1464106130504402D
:103BE000938505A0EF50804E130504C09305800314
:103BF000EF50C04A938509C037150140EF50004A85
:103C0000138504809305C007EF50404B130504C093
:103C100093050010EF50804AC16513850480938599
:103C20000580EF50A04981450145EF20A07B130599
:103C3000044093050004EF50404D130504C0930564
:103C40000020EF50A045B709308013862900138566
:103C5000048091468945EF506047138629001385FB
:103C60000480E1468545EF506046E1460146130574
:103C7000048093050040EF50604585451165EF20B5
:103C8000F06F1145A12EEFE01FEAB7B51D006546A4
:103C9000938595150945EF60C065930500020945B8
:103CA000EF60C03595659D461306803E938505E21D
:103CB0002145EF60A0701306401F9D452145EF6030
:103CC000007E2145EF6030062145EF60C031B71717
:103CD0000300938707D43EC6B70700406C008546B3
:103CE00005463EC80545B70700043ECA231C21010E
:103CF000EF50C0600545EF50205F894768083ED609
:103D000002CE02D002D202D4EF409062EFF09FD0F8
:103D10000545EF40603F45616FC09F81EFC2AFFF37
:103D2000B7470020238CA7421145EF60C02B130634
:103D30004006FD550945EF8010246FC01F80138594
:103D400001968280EFC2AFFA371401401305044098
:103D50009145EF50803C1305044093050008EF5057
:103D6000C03B856537150140EF50203B2945EF806A
:103D70004036856537150140EF5020392945EF80E1
:103D800040351305044093050008EF500038856561
:103D900037150140EF5060382945EF808033856545
:103DA00037150140EF5060362945EF80803293058A
:103DB000000813050440EF5040361305F003EFF000
:103DC000FFF50545EF80E03093050008130504403A
:103DD000EF50A0331305F003EFF05FF40545B7593A
:103DE0000020B7440020EF80C02E93898984374A91
:103DF00000201304044093848443A14B7D568545E1
:103E00000145EF80501703A949031306004013052D
:103E10008A44CA85EF20C14C75D1CA85130600407B
:103E200013058A44EF20214E930A8A4401499305E1
:103E300000082285EF50602E13050004EFF01FEEFE
:103E4000136B890B5A85EFF07FED930500082285EF
:103E5000EF50A02B13050004EFF05FEC5A85EFF054
:103E6000FFEB93070008114523A254019CC4238053
:103E70000400239604000509EF60E01613064006CF
:103E8000FD5509451379F90FEF80F00E938A0A0862
:103E9000E31F79F9A5B7EFC20FE8B71401402A84F0
:103EA00013850440EF50E026935524409317E40017
:103EB0008D89DD8D9167F1177D8DC98DC205C18119
:103EC00013850440EF50A024B724014013850480DB
:103ED000EF5020240E041375F58713740478498C71
:103EE00093150401C18113850480EF5040226FC0F7
:103EF000CFE4EFC24FE283C741964111374400201F
:103F000002C69384419613048443A5EB37190140FC
:103F10009305000213050940EF5020201C20856501
:103F20001305094085C7EF50401F0820EFF0BFF68A
:103F30002314040037150140914513050540EF5047
:103F4000C01C85479CA041016FC02FDFEF50E01BD4
:103F50005A249307F003930500081305094063EB07
:103F6000E700EF50801A3A245C40BA978823EFF0BC
:103F70009FF2C9B7EF50601AFDB737150140914560
:103F800013050540EF5060195E241307F0078507FD
:103F9000C207C1836361F7045EA43E241A24850727
:103FA000C207C1833EA463E5E7021145EF60602DBF
:103FB00003A501967C0001478D4605468945EF80A3
:103FC000702FB24791C7B7E700E0116723A0E72041
:103FD000238004008DBF23160400C1B7EFC2AFD306
:103FE000B7460000B7B50A0085470147938626EF1C
:103FF0000546938505E6EF60C0333715014093050C
:10400000000213050540EF50401137540020ED65C4
:104010008146014613058484938545BFEFC08FEF29
:10402000E9659385459713058484EFC05FD2130536
:104030008484EFC0EFEB6FC04FD0EFC2CFCD094506
:10404000EF20B014EF109011EF80507AEF10304C49
:10405000EF10F048EF10902CEFD00FF8EFF07FA7A3
:10406000716513050520EF90800137B50100130538
:10407000051CEF30A116EF70904201A003D5E1813D
:104080008280391542054181B14763E3A70CEFC235
:104090008FC8ED679387071D0A053E951C418287EF
:1040A000B757002083A547900145EF402038D3073C
:1040B00005F02946539517C0420541813306C502D4
:1040C000854515A0B757002083A587900545EF408B
:1040D000E035D30705F029468945539517C04205B9
:1040E00041813306C5022145EF60603B2145EF6009
:1040F00080430DA8B757002083A5C7900945EF401E
:10410000E032D30705F029469145539517C0420583
:1041100041813306C502C1BFB757002003D70790BE
:10412000239FE1806FC06FC1B757002003D627904F
:1041300041BFB757002003D56791EFE0DF8FDDB7B0
:10414000B757002083D587910145EF20A029D9BF1B
:10415000828089C5B295AD4763DCB7000545828092
:104160007D162300050042060905A30F05FE4182C6
:1041700065FA01458280638E050EEFC22FB8B387C2
:10418000C500130790022A892E84B2890545634130
:10419000F70CB1CA05470145639CE60AB7540020F5
:1041A0001385F5FF139715009384C48D420513946E
:1041B0000701BA944181418093091500C20993D93E
:1041C0000901890463858908834709000909A20751
:1041D000239EF4FE0347F9FFD98F239EF4FEEFF0F0
:1041E0005FEA4E85D1BFB7540020938AC48D014A3F
:1041F0009384C48D254B5285EFE0FFB4B7B701001F
:10420000D30705F007A7C720050A910AD3F7E710DF
:10421000539507C0D37705D0D3F7E71827AEFAFE3A
:10422000E31B6AFD2545EFE01FB2D30705F083D7F6
:10423000E181539517C00604DEB0D37705D02694EC
:10424000DCF8EFE09F82AABC0904639509000145F0
:104250006FC00FAE8357C4FFFD190909A183230F57
:10426000F9FE8357C4FFC20993D90901A30FF9FED0
:10427000E1BF05458280EFC28FA79389F5FFC20990
:1042800093D909013387C9008D4763C7E70C935A57
:10429000360013D939003284AA84138A1A0093F99C
:1042A000790095CE854701456396F608375A002078
:1042B000268B338C2A01930CCA8D631F89071376D2
:1042C0007400D69401CA94201305CA8DCE854A95F0
:1042D000EFE0CF981305CA8DEF40602999A8B75B2E
:1042E00000201385CB8DEF40A02B268B938BCB8D9D
:1042F0003309994033052B01420541812146CE8582
:104300005E957D1AEFE0EF9C050B420AA30FABFE12
:10431000135A0A01E3100AFE1D882146018E137408
:10432000F50F3314C4001374F40FD6943354C440FF
:1043300080A001456FC02F9F930B190083460B008F
:10434000C20B33852C0193DB0B012146CE85EFE0B8
:10435000EF90050B5E8995B70545E9BFFD15C205D0
:10436000C1813387C500954763CCE706EFC22F981C
:10437000375B00202A84935A360093DB35001305FF
:10438000CB8DB28493F9750013891A00EF40003584
:10439000228A130BCB8DB38B8B4033057A014205F8
:1043A00041812146CE855A957D19EFE08F92050A0D
:1043B0004209A30FAAFE13590901E31009FEA14700
:1043C0009D88B38497409377F50FB397970093F741
:1043D000F70F5694B3D797401CA001456FC0AF9418
:1043E00005458280EFC28F915545EFF09FC95D452D
:1043F000EFF03FC965451564EFF0BFC8814437B998
:104400000100130404B00545EFF02FB8AA89054553
:10441000EF70304C8547639FF9000547A2860D4633
:1044200085450145EFE06F8E19EDEFE0AF9E11CDB0
:104430008544D1BF0145EFE00F9811E513054920F0
:10444000EF20D159DDB7E1D0CDB7EFE0CF9EC5B7B2
:10445000EFC26F8CED673755002093874735130700
:10446000A003930600080146814513058584EFC02B
:104470008F9F6FC08F8CEFC20F8AEF40602C184166
:1044800023A8E1986FC06F8B370700201307070E32
:104490008147BD4610236309A600850793F7F70FF0
:1044A0005107E399D7FE85473E8582809387019720
:1044B0002382070023A0070003C7E1985146B707EE
:1044C00000203307C7029387070E014693860197A2
:1044D000894505481545BA97D84381471107832870
:1044E00007006397B80011EA3386F6000CA2054670
:1044F00085074107E395A7FE8280B388F6002380F5
:104500000801FDB7EFB29FFFB7070020914603C730
:10451000E1989387070E1384E19863EDA606ED6694
:10452000938606210A05369514418286D1463307C3
:10453000D702BA97A62B8DC493F704F0C207216760
:10454000C183930607106385D70863EBF60463887D
:10455000E70693F7F40F89C73E85EFF0FFF208A056
:104560006FB01FFDD1463307D702BA97862BE1B74C
:10457000D1463307D702BA97C62775BFD14633074E
:10458000D702BA97E62745BFD1463307D702BA9775
:10459000A62755B7D1463307D702BA97862761BFFA
:1045A000930607306389D70213070740E393E7FABE
:1045B0009387C198982351DF7D1798A359BFEFF0D7
:1045C000FFEE0947A386E1980547A382E19651B71C
:1045D00023860198BDBF1389C1988349090013053B
:1045E00090038509EFF02F97E3D5A9F683470900DB
:1045F00085072300F900B1BF01479386019709455C
:1046000095453386E600034806009377F70F631657
:10461000A802054718A2154791450545850793F758
:10462000F70F63F3F50081473386F6000348060071
:10463000631AA80089471CA282800507E313B7FC10
:104640009547D1BF7D171377F70F69FB828001472C
:1046500093860197094595453386E6000348060091
:104660009377F70F6312A802054718A215478545EF
:104670008DC3FD1793F7F70F3386F6000822631CEE
:10468000B50089471CA282800507E317B7FC954750
:10469000F1BF9147D5B77D171377F70F71FB828074
:1046A0002A887D1619456367C50CEFB2DFE62E85B3
:1046B000ED650A06938545222E9610420286631CFC
:1046C0000800EFF08F8C42054181239BA196A385C2
:1046D00001966FB09FE6EFF00F88C5BF83D5619755
:1046E0006317080093F5F50FEFF0EF84DDB7EFF0F7
:1046F0004F82C5B71387B1961C23850793F7F70F31
:1047000063F4D7001CA3F1B723000700D9B7938740
:10471000B196982319E394A36DBF7D1798A355BF55
:1047200083C6B1969387619793952600B7060020BC
:104730009386860BAE9692239442B2966364D7001A
:1047400096A341BF9AA371B783C6B19613876197A9
:1047500093952600B70600209386860BAE9612230B
:104760009442B305F64063E5D500158E12A395B7C4
:104770001EA385B78280D38707F0FD15994763E3B1
:10478000B712EFB25FD9ED67938707248A05BE950C
:104790009C41411136848287EFF02F8423ACA1968F
:1047A0000504A385819641016FB03FD983A5819708
:1047B000EFF06F80CDBF03C7B19636969387B19661
:1047C00005071377F70F6359C70098A39823E31CD5
:1047D00087FC050480A3C1BF23800700C5BF83C732
:1047E000B19605061387B19699C31386F7FF137622
:1047F000F60F6304C40010A37DB77D1400A365B752
:1048000083C7B196530707F063F5F600FD1793F7DA
:10481000F70F370400208A071304840C3E940840E5
:104820003AE6EF10A17C2A8637B50100AE86130563
:10483000857FEF20B108938781971C60946332676E
:10484000D3F7D7005387E7A019C39CE3A9BF98E328
:1048500099BF03C7B19663F5E6007D171377F70F8D
:10486000370400200A071304840C3A9408403EE6FB
:10487000EF10C1772A8637B50100AE861305857F14
:10488000EF20D103138781971863B2671060D37646
:10489000F708D307D6A089C75377C70818E321B70D
:1048A0001CE311B78280FD15994763E5B71EEFB28F
:1048B000FFC4ED679387C7258A05BE959C41AA84EE
:1048C000828701441389C197914933858400420549
:1048D0004181EFE09FEBB307890088A30504E3164D
:1048E00034FFA38501966FB0BFC401441389C197FB
:1048F0009149B3078900338584008C2342054181A7
:104900000504EFE05FE3E31634FFF1BF03C7B196A0
:10491000B9469387B19605071377F70F63EFE60063
:1049200098A398238D461376B70F6305D600AD463E
:10493000E31BD7FA050798A37DB723800700D5B7F7
:1049400083C7B1961387B19691CF9386F7FF93F6FD
:10495000F60F93F5B60F0D466388C5002D466385A7
:10496000C600B6871CA341B7F917EDBF83C7B19640
:104970003706002009479385C1971306860B636F9E
:10498000F7008A07B297B8319C43BA971307F00F24
:104990006364F700BCB181BFFD57EDBF1947636188
:1049A000F702F11793962700B296B8219C42BA9766
:1049B0001307F00F6364F700BCA135B7FD57EDBFD7
:1049C00029476362F702E1178A07B29798319C433F
:1049D000BA971307F00F6364F7009CB129B77D57AE
:1049E000A38EE19609B7138747FF8D473367F70218
:1049F00094210A0732971C431307F00FB69763649C
:104A0000F7009CA1CDB57D57238EE196E9BD83C704
:104A1000B1963706002009479385C1971306860B88
:104A2000636EF7008A07B297B8319C436365F7005D
:104A30001D8FB8B14DBDA381050075B519476360E1
:104A4000F702F11793962700B296B8219C4263654E
:104A5000F7001D8FB8A141BD2381050069B5294725
:104A6000636CF700E1178A07B29798319C43E368BB
:104A7000F7F61D8F98B185BD138747FF8D473367C4
:104A8000F70294210A0732971C43E3EEF6F69D8E57
:104A900094A191BD82806D1593170501C183130701
:104AA00030026368F7006D65130505333E950821F4
:104AB000828001458280EFB27FA40111AA892E84F1
:104AC000B28481C683C7B1969CA219C385471CA333
:104AD0004E853AC2EFF03FFC9387F9FFC207C183CE
:104AE000930670022A8963EFF646ED668A0793867D
:104AF0008627B6979C431247828793874198B823AD
:104B000094339023B7C50100938545822285EF2019
:104B1000A16D05616FB0DFA1B75700209387C792E1
:104B20009837D4439027F9BF83C70198054763831B
:104B3000E70289CB09476384E702B7C50100938583
:104B4000058A29A0B7C50100938545832285EF20FA
:104B5000016EC1B7B7C5010093858585C5BFB7C5CF
:104B600001009385C587DDB783C70198054763803A
:104B7000E70289CB09476388E702B7C5010093853F
:104B8000058FE9B7B7C501009385858BC1B711457E
:104B9000EFE0BFBFB7C501002A869385858C2285CB
:104BA000EF208164BDB71945EFE03FBEB7C50100F6
:104BB0002A869385C58DE5B79384C1989020130507
:104BC0009003050632C2EFE01FB91246B7C50100D7
:104BD000AA86938585912285EF2001618820B756AA
:104BE00000209386C6921386419893850198EFE042
:104BF000DFC005B795C0A147638EF402B7B70100C7
:104C000037C7010083A7C77F03270780894611465E
:104C1000A685EFF05FB6F5BDEFE03FBCEF10013DBC
:104C2000AE86B7C501002A86938545922285EF207E
:104C3000A15BC5B503A58197D5B7638B0416A147C2
:104C4000638CF40081471307703E89462686CA8527
:104C50000545EFF0FFA475BD03D66197B7C5010008
:104C60009385C5922DBFEFE00F8ED30705F0B7C532
:104C7000010093854593539607C015B791C8A14786
:104C80006380F402096781471307F7708D467DBF83
:104C9000EFE07FAC2A86B7C501009385C59301B7C5
:104CA00003D66197CDBFEF10E009B7C501002A8692
:104CB00093854594EDB5EF10600AC5BFB7C50100F7
:104CC0009385459561B50545EF30102011C5B7C5F1
:104CD00001009385C5959DBDB7C5010093850596D7
:104CE000B5B54808EF20005D834891010348810174
:104CF0008347710103476101834651010346410126
:104D0000B7C50100938545962285EF20E14D11B589
:104D1000EF10E0028947630AF500B7C501009385EB
:104D200045812285EF20414CEDB3B7C50100938545
:104D30004580C5BF81C8A1476389F404A685EFF00B
:104D40009FB6C1BBEFE07FA42AC613051900420538
:104D50004181EFE09FA32AC4130529004205418148
:104D6000EFE0BFA22AC21305390042054181EFE0FE
:104D7000DFA11247A2463246AA87B7C50100938534
:104D800045972285EF20414669B31386C1973C328F
:104D9000382214321022D5B799C8A147E38EF4EA1D
:104DA00081471307703E8D462686DD4555B55D4526
:104DB000EFE07F9A2A865DB52545EFD0DFF8D3076F
:104DC00005F0B7C5010093858598539617C0420634
:104DD0004182F1B34808EF405048034761018346E0
:104DE00051010346410139BB4808EF40904A03474F
:104DF000D101E2460346C10131B385C8A147E38D25
:104E0000F4E4B14715456386F900B5476392F902AA
:104E10001D45EFE09F971317050141839307400657
:104E200089462686CA8501452DB5EFE01F9659B7FC
:104E30001545EFE09F9593170501C1831307F00F08
:104E4000C5B713059003EFE01F912A86B7C501008F
:104E500093850599A9B38D47638BF40263E69700A8
:104E600099CCA386019875B199476382F402A14752
:104E7000E399F4FEB7C501009385859FC1B983C747
:104E80005196EDDBB7C5010093858599C1B1814588
:104E90001305B003EFE0FF87814513059003EFE0B2
:104EA0005F87A3860198A3820196A5B181C8A14717
:104EB0006389F4008547130740069DB7EFE0FF8C38
:104EC00069B703D6619759B72300070091CCA14772
:104ED0006396F40283D7619713972700B7070020E2
:104EE00093870709BA9709A8EFE03F8AB707002020
:104EF0000A0593870709AA978C4389B9938799FF75
:104F0000B337F0000947814629BFEF0030122AC2AB
:104F1000EF00F0101246B7C50100AA869385059CE4
:104F20002285EF20612CF5B62300070091C8A14728
:104F30006381F4028147194781462686D945E5B544
:104F40005945EFE09F84B70700200A059387C709FA
:104F50005DB783D7619713972700B7070020938722
:104F6000C70949B7E30704BAB7C501009385459E51
:104F7000F1BE81471387019789451546B306F700AF
:104F800088226311B504EFB20FD90D4798A283C6EA
:104F9000E198514637070020B386C6021307070E73
:104FA00092070D468145369758438146BA97CA27DE
:104FB00001472396A196EFF01FB00547A382E19623
:104FC0006FB0AFD78507E39BC7FA0547A382E19689
:104FD00082808147138701978D451546B306F700F8
:104FE00003C80600631FB802EFB2EFD2094798A2C8
:104FF00083C6E198D14537070020B386B602130770
:10500000070E92072A868145369758438146BA97FC
:10501000CA270147EFF03FAA0947A386E1986FB07E
:10502000CFD18507E39CC7FA0947A386E198828020
:10503000EFB26FCB13890199032509005D71B704A5
:105040000020EF60C06A1384E1989384040E29CD98
:105050000325090093898196014693858196EF6027
:10506000A05285472A8A6311F5041389D19803C693
:1050700009008345090037C501001305859EEF200F
:10508000E10303C7190093070008631FF7000347F4
:10509000090089476308F7068D47630AF70E09E799
:1050A00003C50900EFF00FC61C205147B387E70284
:1050B00013890197854A130B0008BE94C040B7546A
:1050C000002013858484EFB0AFE2930B04055C40AD
:1050D000638E57116384071009476389E7141C2006
:1050E00089E741040509E3948BFE1387A1961C23ED
:1050F000A946850793F7F70F63EAF6241CA36161BD
:105100006FB02FC283C709006381470581CF638CCD
:10511000E7040D47E39AE7F883C75196B5C3EFF06C
:105120000FD359B793875196982301C7238007005F
:10513000A5BF1C20514723000900B387E702A697AB
:10514000A82BEFF06FB408A085B7138751961423EE
:1051500089E61CA3EFF08FB581BF8D472300F900CE
:10516000EFF03FE191B783C7519681C7EFF0CFC809
:1051700025BF1C205147B387E702A697C827D1B7A0
:105180001C205147B387E702A697E8275DBF83C776
:1051900009001547E36AF7F06D678A07130787313F
:1051A000BA979C4382871545EFF0BFE2F5BD1945DC
:1051B000E5BF01478146054603D5C1968145EFF01D
:1051C0009F8FDDB5014781460946FDB701478146FE
:1051D0001146DDB7014781461D46F9BF1444302012
:1051E0000C3013858484EFB03FAFD5BD83492400D4
:1051F00014440C304E8613858484EFB0FFAD4A24EE
:105200009306A10101461307B1016C08EFF0BF8AB4
:105210006C0813858484EFB07FB59375F50FB305E3
:10522000BB40C20574084E86C18165BF034A240095
:1052300014440C30528613858484EFB0FFA90347D1
:1052400009008D474A2421466303F70001461307EE
:10525000B1019306A1016C08EFF0FF856C0813857E
:105260008484EFB0BFB083C7D1989379F50FD5C7C9
:105270000347090063F3EA0A93970901C183B30D59
:10528000FB40C20D894693DD0D016311D70403C7AE
:10529000519641C783C6A19615476360D708130688
:1052A0006AFF4206BE862D474182EE8513858484BF
:1052B0003EC6EFB00FC0814513858484EFB05FBC5C
:1052C000854513858484EFB05F92B2478346090019
:1052D0000D476394E6040347B10113066AFF4206D3
:1052E0004182631157078345A101E9572D47850581
:1052F000B385F502994693850508C205C1811385DA
:105300008484EFB00FBB894513858484EFB05FB709
:10531000854513858484EFB05F8DB3053B41C2059D
:1053200074085286C18113858484EFB0FF9A138577
:1053300084848545EFB0DFB4814513858484EFB064
:10534000DF8A71BB2D47BE86EE8555BF230007005F
:105350007DB3EFB2AF9A7C45032A0507832A450740
:1053600003A9070083A947003C45232C2505232ECC
:1053700035059843DC432A8438D17CD15286D686C1
:105380004A85CE85EFF0103B6357A000232C4405DF
:10539000232E540529A8032A8406832AC4064A8595
:1053A0005286D686CE85EFF0D043E34105FE6FB03E
:1053B0002F985C41638B07165449D147014763E737
:1053C000D716EFB24F9238452A8B411103290700B7
:1053D0008329470038494A86CE8608434C43EF006C
:1053E000211703260B0683264B062AC42EC64A85A0
:1053F000CE85EF00E11503268B038326CB032A8A93
:10540000AE8A2245B245EFF0304903268B0583264C
:10541000CB05EFE0F063832B0B00232CAB04232E92
:10542000BB042A84AE8463940B0203260B038326F9
:105430004B035285D685EFF030462A86AE8622850C
:10544000A685EF00E110232CAB04232EBB04032D13
:105450008B05832DCB0583240B0703244B076A851B
:105460002686A286EE85EFF0F02C635FA008232C41
:105470009B04232E8B04014C814C638C0B00032670
:105480000B0383264B032245B245EFF0F0402A8CF4
:10549000AE8C03260B0483264B045285D685EFF091
:1054A000B03F2A86AE8603258B058325CB05EF000A
:1054B000210A6286E686EFE0B059AA8A2E8A2A86F9
:1054C000AE862685A285EFF0D031634005028324A5
:1054D0008B060324CB065686D2862685A285EFF05E
:1054E00070256344A000D68452840327CB0404C3F0
:1054F00040C323202B0723223B0723280B0005470B
:105500003A8541016FB0EF81032C8B06832CCB06CB
:105510006A856286E686EE85EFF0B02CE35D05F4E1
:10552000232C8B05232E9B05B9B701473A85828032
:10553000EFA27FFE1384F5FF8547AA84133414007D
:105540006396F5005C4199E3EFF0BFE0C0C06FA047
:10555000DFFEEFA2DFF9B2892A842E89368A3686E9
:105560002E85BA86CE85BA8AEFF0D01C635B05081B
:105570005C40232424072326340723284407232AB6
:105580005407C1C364445285D68503AB040083AB82
:1055900044005A86DE86EFF0D024635B050223A028
:1055A000440123A25401032A8405832AC405032944
:1055B00004078329440752854A86CE86D685EFF0B4
:1055C00070176354A002232C2405232E340515A83C
:1055D0005A86DE864A85CE85EFF0D015E355A0FCCD
:1055E00023A0240123A234017DBF0329840683293B
:1055F000C40652854A86CE86D685EFF0901EE344D7
:1056000005FC6FA05FF2EFA29FEEB2892A842E897B
:10561000368B2E8501468146CE85BA8B3E8AC28A5C
:10562000C684EFF0101C6344050C014681465A8580
:10563000DE85EFF0101B634C050A0146814652855A
:10564000D685EFF0101A6344050A04C44848FD14D7
:1056500093B41400232064032322740323244403FB
:105660002326540304C0232C2401232E3401EF00ED
:105670000179B7C7010003A6072F83A6472FEFF0D4
:1056800020302A86AE862A8CAE8C5A85DE85232869
:105690002403232A3403EFF0302008DC4CDC2A8B6F
:1056A000AE8B5285D6856286E686EFF0602D584433
:1056B00028C06CC085472A8AAE8A631AF7024A86D8
:1056C000CE8601458145EFF0B06808D84CD85A869F
:1056D000DE8601458145EFF0B06708DC4CDC528680
:1056E000D68601458145EFF0B06628C06CC06FA03A
:1056F0009FE3EFA25FE25C412A84AE8485CF5C45E4
:10570000638AB7021059545981450145EFF050643E
:10571000105C545C08D84CD801458145EFF05063CB
:105720003040744008DC4CDC01458145EFF05062AC
:1057300028C06CC044C46FA05FE0EFA23FDCBE890C
:10574000B7C701003A8903A7872E83A7C72E2CC5A8
:10575000B2557CD99307400670C534C938D95CC9A5
:105760002322050023240506232605062A84428ACF
:10577000C68AEFF01FF88257A25812585687D28671
:10578000CA854E862285EFF01FE85848D147998F89
:105790001CC86FA0FFD96359B004EFA23FD62A847A
:1057A0002E85AE84EF00A15E2A894848AE89EF00BD
:1057B00001652A86AE864A85CE85EFF0601C2A896F
:1057C000AE892A86AE86085C4C5CEFF0F00C08DCF3
:1057D0004CDC28406C404A86CE86EFF0601A28C028
:1057E0006CC044C86FA0DFD48280EFA2DFD2014535
:1057F000EF20305E1DC1138781991C239306B003EF
:10580000850793F7F70F1CA363F9F6009387419977
:10581000944323000700850694C36FA01FD203A5FD
:1058200041999307C0033375F502828003A541991E
:105830009307C0033355F5028280EFA2DFCD2A849F
:1058400013055003EFD07FF2B755000023AAA198AB
:105850008D4605469385A57E2285EF4000056FA005
:10586000DFCDB71702409843B706FFF84111136721
:10587000170098C3D84337060200758FD8C39843E2
:10588000B706F7FEFD16758F98C39843B706FCFF61
:10589000FD16758F98C3D843B70681FFFD16758F27
:1058A000D8C39843B70600ECFD16758F98C3370729
:1058B000FF0098C723A6070202C402C69843C16628
:1058C000558F98C3B716024005679C42F18F3EC6BC
:1058D000A24785073EC4B24781E7A247E397E7FEA8
:1058E000B71702409C431397E700635707068547A5
:1058F0003EC632478547631FF704B7170240D843B7
:10590000B706C1FFFD16D8C3D843D8C3D843136721
:105910000740D8C3D843758FD8C3D843B7061D00F6
:10592000558FD8C39843B7060001558F98C3984345
:1059300093166700E3DD06FED843B7160240719B5D
:10594000D8C3D84313672700D8C32147DC42B18BA3
:10595000E39EE7FE4101828002C661BF3716024026
:105960005C429146B18B138701826385D700A146C3
:105970006388D702B7177A00938707201CC3B7172D
:105980000240DC43918393F6F700B707002093872A
:10599000C720B69794231C43B3D7D7001CC382807B
:1059A00054425042C167C982BD8A7D8E93872600CA
:1059B00085CABD466389D702C1466389D702C545FA
:1059C00081466393B700C1470DE637460240032680
:1059D0000680418A15C637167A00130606202DA0C8
:1059E0008146C947D5B78546B547F9BF8146BD470A
:1059F000E1BF3716024050429315E600E3DD05FC97
:105A000037163D0013060690B387C7021CC3A5DAFC
:105A10001C438583A5B7EFA21FB0EFE0DFA5EFE041
:105A20003FA3EFE0CFB1084101478D4605468145D0
:105A3000EF60D06DEFD07FC013351500EFF0FFDFC2
:105A40000565130585BBEF60C068FD240841EF6064
:105A5000E01A0545EFD07FD301E50D45EFD0FFD229
:105A600085471384C199631AF502EFB0FFBB084163
:105A7000EF60C0180840EF606018EFF06FDBEFE0F8
:105A80000FAC084101478D4605468145EF6010681F
:105A900013054006EF60E063CDB703A5019AC9BFC7
:105AA000EFA27FA7EF20601EEF80902719C1EFB013
:105AB0005FF00545EF60E061F5B7B7870020938799
:105AC00087491CC1B7870020938787C99CC193076A
:105AD00000101CC28280B7870020938787571CC1A3
