:100000006F60904F13000000130000001300000009
:100010001300000013000000130000001300000094
:100020001300000013000000130000001300000084
:08003000130000007300100032
:1000380000000000000000008C3400009034000034
:10004800000000003E6C00000000000000000000FE
:10005800406C0000426C000000000000000000003E
:1000680090B900000000000000020000000000003D
:10007800486C00004A6C00004C6C00000EA60000A2
:10008800506C0000526C0000546C0000566C00006C
:10009800586C00005A6C00005C6C0000AE980000C0
:1000A8007C990000626C00004A9A0000189B0000CE
:1000B800686C00006A6C0000E09400006E6C000040
:1000C800706C0000726C0000746C00001635000043
:1000D800786C00007A6C00007C6C00007E6C00007C
:1000E80076360000826C0000D4AD000066A10000E6
:1000F80034A2000002A30000D0A3000002AA00005E
:10010800FAAA0000AEB400007CB500004AB60000B0
:10011800986C00009A6C00009C6C00009E6C0000BB
:10012800A2AE0000A26C0000A46C0000A66C000047
:10013800A86C0000AA6C000070AF0000FAAB0000C9
:1001480018B70000B26C0000B46C0000B66C000078
:10015800B86C0000BA6C0000BC6C0000BE6C0000FB
:10016800C06C0000EA350000C46C0000C66C0000DA
:10017800C86C0000CA6C0000CC6C0000CE6C00009B
:10018800D06C0000D26C0000D46C0000D66C00006B
:10019800D86C0000DA6C0000DC6C0000DE6C00003B
:1001A800E06C0000E26C0000E46C0000E66C00000B
:1001B800E86C0000EA6C0000EC6C0000EE6C0000DB
:1001C800F06C0000F26C0000F46C0000F66C0000AB
:1001D8000000000000000000000000000000000017
:1001E8000000000000000000000000000000000007
:0801F8000000000000000000FF
:10020000130181F806C216C41AC61EC822CA26CC1B
:100210002ACE2ED032D236D43AD63ED842DA46DC76
:100220004ADECEC0D2C2D6C4DAC6DEC8E2CAE6CC46
:10023000EACEEED0F2D2F6D4FAD6FED8F3220030CF
:1002400096DA83A281A623A02200F32510342EC0C3
:100250009305000273A0458003A1C189EFC05049F6
:1002600003A381A603210300824273901234D65265
:10027000739002309240A2423243C2435244E2445D
:10028000724582551256A2563257C2575258E258FA
:1002900072598649164AA64A364BC64B564CE64C0E
:1002A000764D865D165EA65E365FC65F13018107DA
:1002B0007300203013000000130000001300000042
:1002C00013000000130000001300000013000000E2
:1002D00013000000130000001300000013000000D2
:1002E00013000000130000001300000013000000C2
:1002F00013000000130000001300000013000000B2
:1003000083A2C189938202E07390023403A181A683
:10031000024182403243C2435244E2447245825514
:100320001256A2563257C2575258E258725986494D
:10033000164AA64A364BC64B564CE64C764D865D61
:10034000165EA65E365FC65FD652A102739002307B
:10035000A2421301810782801300000013000000F5
:100360001300000013000000130000001300000041
:100370001300000013000000130000001300000031
:100380001300000013000000130000001300000021
:100390001300000013000000130000001300000011
:1003A0001300000013000000130000001300000001
:1003B00013000000130000001300000013000000F1
:1003C00013000000130000001300000013000000E1
:1003D00013000000130000001300000013000000D1
:1003E00013000000130000001300000013000000C1
:1003F00013000000130000001300000013000000B1
:10040000F322003093F272FF130380781203B3E2F9
:100410006200711523205500130585FA10C12115BE
:10042000232005009302000063870200711523203A
:100430000500FD12D5BF71150CC1828000000000BF
:1004400000000000000000000000000000000000AC
:10045000000000000000000000000000000000009C
:10046000000000000000000000000000000000008C
:10047000000000000000000000000000000000007C
:10048000000000000000000000000000000000006C
:10049000000000000000000000000000000000005C
:1004A000000000000000000000000000000000004C
:1004B000000000000000000000000000000000003C
:1004C000000000000000000000000000000000002C
:1004D000000000000000000000000000000000001C
:1004E000000000000000397101436EC619A0397187
:1004F00041536AC866CA62CC5ECE19A039710153F5
:100500005AD056D252D44ED64AD826DA22DC06DE4B
:1005100033016140828241114AC026C222C406C60C
:100520008282B24D4101024D924C224CB24B4101AC
:10053000024B924A224AB249410102499244224462
:10054000B240410182803D432A876373C30293779F
:10055000F700BDEFADE5937606FF3D8ABA960CC372
:100560004CC30CC74CC74107E36BD7FE11E2828036
:10057000B306C3408A069702000096966780A600DD
:100580002307B700A306B7002306B700A305B700EB
:100590002305B700A304B7002304B700A303B700E3
:1005A0002303B700A302B7002302B700A301B700DB
:1005B0002301B700A300B7002300B700828093F5A2
:1005C000F50F93968500D58D93960501D58D61B76E
:1005D000939627009702000096968682E78086FA17
:1005E0009680C1171D8F3E96E374C3F8A5B7EFF24E
:1005F0001FF0AE96939906013A8B1307160093D914
:10060000090142074183CE86AA842E84B28A034A16
:100610002509EF00D00901C90549933B1A006395EC
:1006200089002389440901B783470B00B377F90098
:100630008DC723894409014785465686A2852685AC
:10064000EF0040750504060942041379F90F418053
:10065000E31709FC050B0549D9B783C71409FDF356
:1006600023897409C9BFEFF27FE932971319070193
:10067000B689AE9613590901C2064A87C1822A8BF0
:10068000AE8A32843E8AEF00900201C993847900D9
:10069000C204C1808D806313890059BD2286050480
:1006A0005287CE86D6855A8542049137269A418054
:1006B000DDB7EFF2BFE4329793140701B689AE9627
:1006C000C180C2062687C1822A8A2E893284EF0021
:1006D000007E01EDB1BD228605040147CE86CA85A4
:1006E00052854204EF00006B4180E39684FEDDB743
:1006F000EFF27FE21C418145902B834785034859E7
:100700003306F6020E0681350DBDA1471CA11385E7
:1007100001B68280EFF23FE03687AE84B286B7152D
:100720000000371600004111130686229385C52F5D
:100730002A84EF00D05C1305F100C13F9087B71603
:100740000000AA852687938686ED2285EF00101388
:100750004101E5B3AA959C218831A2073E95420547
:100760004181828001458280EFF2FFDA9C21AE84D4
:100770002A841CA19C311CB1BC213CA1BC313CB1E0
:10078000DC215CA1DC315CB1FC217CA1FC317CB1C1
:100790009C251CA59C351CB5BC253CA5BC353CB591
:1007A000DC255CA5DC355CB5FC257CA5FC357CB581
:1007B0009C29C5451CA92685713F2AA8CD452685BB
:1007C000513F4AA8D545268571376AA8BDB3104167
:1007D0000348C5001C223307B8001377F70FB3D6C0
:1007E00007419D4763ECE70093F7F60F58A57D5549
:1007F0003315B5001345F5FF7D8D828093071600F4
:100800001CC11C32214633060641B397C700D58F61
:10081000611793F7F70F1377F70FC9BFEFF2BFCF49
:100820002CD183458507930405062A8423060506F3
:100830002685713F834594072305A4062685413FFD
:1008400083472409A305A4062307F40693B71700DA
:10085000A307F406DDB1EFF21FCC2E848D3F7D148B
:100860008547B39787001D8D62056185F9B185477E
:10087000638CF60091C68947638AF6000D8D11A03E
:1008800032954205418182802E95E5BF118DD5BFFD
:100890008547638CF60091C68947638AF6003295D6
:1008A00011A02E95420541818280118DE5BF0D8DED
:1008B000D5BFEFF25FC38344850603499506411116
:1008C0002A84AE89328B834BA40693FAF90F338ABC
:1008D0009B40137AFA0F63743A01937AFA0F034735
:1008E0000407939C8401131C89010355440693DC7F
:1008F0008C41135C8C41BA866286E6853AC6493FD4
:100900003247835D64066286BA862A8DE6856E85E7
:10091000B93F2A86324763080B028347E40623095E
:10092000F408D686EA852285B521CE9493F4F40F97
:1009300063E14903B3847441050993F9F40F137912
:10094000F90F814449B78347D406E5F38347F4069A
:10095000F9B723049406A30484074101D9B6EFF242
:100960001FB92A84130A0506553D8345A4075285FD
:100970008309B406CD358345B4072A8C5285E13D01
:100980008345C4072A8B5285F9358304A406AA8AB5
:10099000635D90084E9B834B0407330B6041035506
:1009A0004406620B135B8B41DE865A86E285CD35A9
:1009B0002312A4062A89035564065A86DE86E28538
:1009C0007D352313A40685472A86638CFB06638046
:1009D0000B0689476387FB088D47638BFB0A2A87D1
:1009E000CA86CA852285E12129C1231404068345CC
:1009F00064075285E93B834574072A895285C13BC8
:100A0000AA840146CA8522856D35A68522850546BC
:100A10004D3585455285653B6DF583079406E3C8E2
:100A200037FD8347E4062309F4085685EDBCCA94D4
:100A300093960401B304350113970401C1824183E5
:100A40004DB7B3073941AA940509931609011397C5
:100A500004018507C18241831399070113590901D4
:100A600049B70547B3049740B307990033073741A7
:100A70009304190093960401B305E500930415004F
:100A80001397040113960501C18241834182E9B79E
:100A9000B304954013061500B306390185041317F6
:100AA0000601C20613960401C1824183418215BF2B
:100AB0003C4D1307F00FDD076368B702130700060C
:100AC000637DB70003578508BA97983335C39423DD
:100AD000E39CB6FE13852700828013070004E376AB
:100AE000B7FE03576508CDB7EFF2FFA20354A50880
:100AF000AE843E94228981454A85A9392A94894544
:100B00004A8589391109E36895FE1C301820A2072F
:100B1000D98F13978700A183D98FC207C18399CB3F
:100B20006395F4001305340009BC3C203E94F1BFEA
:100B3000014582800145CDBFEFF2FF9D2A848D3FA4
:100B40000DC5AA852285D9398345A40793040406D7
:100B5000268511338345B4072308A4082685E53983
:100B60008345C4072685C539C9BA0145F5BFEFF2EB
:100B70001F9823050506AA84AE8AF12BC1671309C5
:100B800000FC014A0144138BF7FF9389E7FF930BA5
:100B900000FC83C50A00DC4026858297AA85630392
:100BA0006503850AE30735FF26857937131A0501A2
:100BB000135A0A0163147901038904095294420407
:100BC0004180C1BF8387A40691CF03870409BA97E8
:100BD0003E943304444142044180635520014A94C9
:100BE0004204418022856FF01F94A306B5068280DF
:100BF000EFF2DF908347050705472A842E89B284E8
:100C0000B689638FE7029DC709476383E7040D47F1
:100C10006384E704CE8523122407231394062285D8
:100C2000413DAA85014589C52285153B4205418183
:100C30006FF01F907C4D8297AA94C204C180D9BFE7
:100C40007C4D82973309A940420913590901D9B74C
:100C50007C4D8297898CD5B77C4D82972A99EDB7C8
:100C6000EFF2FF884169AA8C2E84B284B689130AF8
:100C7000F9FFD521014C7919854A094B8D4B83A782
:100C80004C0083C5090066858297AA8663034505E3
:100C90008509E30625FF2686A2856685913F83C7E1
:100CA0000C076380570391CB6381670363817703EC
:100CB0002A9C420C135C0C01D9B72A94420441804F
:100CC000C5BFAA94C204C180E5B7098CC5BF898C91
:100CD000D5BF62856FF03F85EFF2FF83B717000045
:100CE0009387C70B5CC1AD3F6FF03F853C4DA9CBEF
:100CF00003061508830625088347D5082307C5087A
:100D0000A307D50895CF0547639FE70083073508FC
:100D10006354F6002307F5088307450863D2D7021A
:100D2000A307F50882808307E50703070508BA973C
:100D30006354F6002307F5086354D700A307E508BA
:100D40008280B7070000938747767CCD8280384D3C
:100D5000630DB700EFF22FFC2A842CCC1305450756
:100D60002134228561376FF04FFD8280EFF2AFFAB8
:100D7000B71700009387C70B5CC1D53B6FF0EFFB43
:100D8000EFF26FF97E3D1D8E5C55420641828297DF
:100D90006FF0AFFA8347C508C1CBD9C6854763F961
:100DA000D70089476317F7068505958DC205C18170
:100DB000058B25EF8357C5046368F6068357E50462
:100DC0006374F606AE96C206C18283578504035843
:100DD000A50463F9B60463F605059306F8FFC20699
:100DE000C18263F3D704BE8863F3B700AE889395DE
:100DF0000801C181C28763F30601B687B386B74095
:100E0000C206C182EFF22FF11C599C4782976FF006
:100E1000CFF28D47E31EF7F80506158E4206418294
:100E200041BFBE85E3EF05FB828083578504E3ED78
:100E3000F5FE8357A504E3F9F5FEB296C206C1821A
:100E40008357C5040358E50463F9C60263760603B5
:100E50009306F8FFC206C182E3F8D7FCBE8863F3AD
:100E6000C700B288139608014182C28763F3060166
:100E7000B687B386C74069B73E86E36F06FD6DB798
:100E8000894763E5B7002309B508828085472309B0
:100E9000F50882806379B60085476364D500B3B7EF
:100EA000C6003E858280E36CD5FE8147DDBFEFF250
:100EB0008FE62A84AE848355E5040355C50436893C
:100EC000BA86C93F01C98355A40403558404CA8660
:100ED0002686C9376FF06FE60343250993787600BD
:100EE0008547339817011378F80F014E63E56700C3
:100EF000428E6309F30403230500619A5C5903439E
:100F000003013306660242064182B295BE950DCFBB
:100F100005479C218508FD16B367FE00B347F8001E
:100F2000C2069CA193F87800C18263900804323D08
:100F300083472509B2956365F700054E638EE70286
:100F400005481DA8014845BFAE96C206C1829C2136
:100F50008505B367FE00B347F800A38FF5FE9397AE
:100F60000501C183E395D7FE828093171E00060812
:100F700013FEF70F1378F80FC9FE828083458503AF
:100F80001441834895031397050141839317370054
:100F90005EBD9C2A13980801135808018E073EBDB8
:100FA000931738007EBD903AC6956356B600330756
:100FB0000641420741830E072310F504BA97231117
:100FC000F504DE2A2312F504FE2A2313F504828099
:100FD000EFF26FD465376FF04FD6EFF2CFD34D33CA
:100FE0006FF0AFD5EFF22FD3035765058356250574
:100FF00003564505835505052A84553D09E5230615
:1010000004086FF08FD385472306F4080357840440
:10101000835704056374F7002314F40483572405ED
:101020000357A40463F4E7002315F404835744052D
:101030000357C4046374F7002316F404835764054C
:101040000357E404E3FFE7FA2317F4045DBFEFF26C
:101050008FCC03574504231405042315E5043841B8
:1010600078C549376FF06FCDEFF2EFCA1C59417761
:1010700038C9DC4378C982976FF02FCCEFF2AFC943
:1010800093071010230CC502A30C0502A306050646
:10109000A3060508A30805082319F5081C4354D521
:1010A0004CD918D9232C05042A84829722856D3FB8
:1010B00022854139230804066FF02FC8D1C9A947FA
:1010C0006388F508034765022DE79307B00F63FABD
:1010D000B70095472303F50285890EB1C165F9155F
:1010E000B9A09307700F63F7B70091472303F50288
:1010F0008D89E5B79307F00E63F7B7008D4723039B
:10110000F5029D89D9BF9307F00D63F7B7008947B2
:101110002303F502BD89D1B79307F00B63F7B7003E
:1011200085472303F502FD894DBFC205C1812E8588
:1011300082801E3193F5F5037D179A07DD8DC20578
:101140001377F70FC1812303E5020EB16DD379B791
:10115000C165FD15E9BF230305028280EFF2AFBB35
:101160001C492E8681469305000282976FF0EFBCE2
:10117000EFF26FBA1C49B2862E86DD4582976FF07A
:10118000CFBBEFF24FB94111CC871306F100854573
:10119000C53741016FF06FBAEFF2EFB75C452E86AD
:1011A0008146D54582976FF04FB9EFF2CFB65C45D7
:1011B000B2862E86DD4582976FF02FB8EFF20FB41E
:1011C0004111AA842E845D49E549130AE00FD54AEE
:1011D0000C20638C25036367B90063F0550341015C
:1011E0006FF00FB563FBB902E39B45FF1030930529
:1011F00090022685D087E92439A01030DC4481464E
:10120000D087268582970904E1B71C301306F100C8
:1012100085452685DC87513FFDB7DC448146014684
:101220002685050482976DB79387C5FE93F7F70F60
:1012300015476362F704EFF20FAE71678A07130771
:10124000C79BBA979C4341113289AE842A84828716
:1012500081452937CA8522852D37054541016FF023
:10126000CFAD854536C6DD3DB2461C484A86A685CB
:1012700022858297E5B701458280EFF22FA82E8460
:10128000CC212A89B2898E0593F5F50393E50504EF
:10129000213783C569004A8593E5850BF53D7C20A0
:1012A000A1CF542058309387860093F7870F958FEE
:1012B00093F7F70F9375F70F63F4E70093F5F70FC4
:1012C000AE960D8F10408E0593F4F50FA68554A0B1
:1012D00058B04A85D93D0C405C30AE9404C091EBC7
:1012E00083A709001CC083C749005CB07C20FD17A0
:1012F0007CA05C209D8BC5F76FF08FA3EFF2AFA1B0
:10130000A94741112A84638CF50863EAB700A54711
:101310006381F5088144268541016FF00FA2AD4736
:101320006381F50CBD47E397F5FE9C423689D432C4
:101330003EC483574900508713978700A183D98FF4
:101340007C869D4763E1D7025C4581460546E145C1
:1013500082974A862C0022850D375C4481460146DF
:10136000E545228582971886BD478544E3E5E7FA7F
:101370005C4481460946E145228582974A862C00D5
:101380002285E53D5C4481460146E54522858297FC
:1013900059B7F1659385459D65208544ADBF75209E
:1013A0005C4481460546E145228582979385818686
:1013B000228529355C4481460146E5452285829790
:1013C0005C44E14581460946228582979385818662
:1013D0002285ED335C4481460146E54522858297AE
:1013E0006DBF5C4581461DE60546E14582979385C4
:1013F000C1862285E1335C4481460146E54522856C
:1014000082975C44E145814609462285829793850F
:10141000C1867DBF0546E145829793850187228578
:10142000713B5C4481460146E545228582975C44D8
:10143000E14581460946228582979385018749BF08
:101440000CC1BC292301F5028280EFF2CF8C5C49EC
:1014500081460146930580022A8482975C44814636
:101460000146D14522858297228505469305B00421
:1014700081281C40228593059002D023912022854B
:1014800001469305B0042D281C4022859305900247
:10149000D0233D20228505469305B00415201C402D
:1014A000930590022285D03321286FF00F89EFF247
:1014B0008F861C4581460146A54582976FF0EF87D0
:1014C000EFF26F855C49814682976FF00F87014587
:1014D0008280B71700009387E74C1CC55CC51CC908
:1014E0005CC9FD5723200500A30105022303050263
:1014F000232C05002302F5022304F5028280EFF27B
:101500008F8141112A842EC632C436C23AC0D137E7
:10151000B2452246924602470CC450C414C858C86B
:101520002285713741016FF04F8137050020130587
:10153000854B828005458280EFE2FFFD85474111A2
:101540002A8663F5A7008D4763E6A702B707002048
:1015500083A5874B37C500007400130585D402C6E8
:10156000EFC0300201C9B24791C7B7E700E0116789
:1015700023A0E720054541016FE03FFCEFE2BFF902
:10158000B70700202A8403A5874B7D57814605466F
:101590008D45EFA040598547630FF50011C9894774
:1015A000630BF5008D476308F50005456FE0FFF814
:1015B00023200400DDBF08C0CDBFEFE2DFF5B70791
:1015C000002083A5874C411137C5000074000546F3
:1015D000130585D402C6EFC0C07A01C9B24791C7CE
:1015E000B7E700E0116723A0E72041016FE0FFF4B7
:1015F000EFE27FF2B705002003C7554CB707002084
:101600009385554C2382E74CB707002003A5C74BB1
:10161000EF90705D83A7019282976FE01FF237050C
:1016200000201305854C8280370500201305054CEA
:101630008280EFE25FEE85476382F6048947638329
:10164000F60401478146370400201304C44B0146C9
:1016500008C0EF90B04A084037160000B7150000E8
:101660000D4785461306A65B9385055FEF90905165
:101670000840EF90B04F05456FE03FEC05679306DB
:101680000060D1B705679306004075BFEFE2BFE881
:1016900037040020AE841304C44B15C90840B705B5
:1016A00000209385554CEF90105437150140930559
:1016B0000020130505C0EF808066B707002003A552
:1016C000874C95C08545EFA0A05B6FE01FE73715FD
:1016D000014093050020130505C0EF8040630840DA
:1016E000EF903052D9BF0147814605468545EFA0AE
:1016F0008043E1BFEFE23FE22A84371501409305C2
:101700000020130505C0EF808060B707002003A507
:10171000C74B9375F40FEF90704B05456FE0FFE1F9
:10172000B707002083C7474C1CA105458280EFE224
:101730009FDEB704002003A5844C7D5781460546F3
:101740008545EFA0403E8547E317F5FE83A741920C
:101750008297D5B7EFE23FDC08218545EFD0705B7B
:101760007D572386E1806FE05FDDEFE2DFDA411134
:101770008545054502C202C423160100EF50907D45
:1017800083A7018237470F0013070724B3D7E70267
:101790004C0037050040231501007C84896793873E
:1017A000F7703EC2EF60E01A0546854537050040F8
:1017B000EF60804C854537050040EF60604A854505
:1017C00037050040EF60E053B7E700E0056723A26C
:1017D000E71041016FE07FD6EFE27FD14111B709F9
:1017E000002061370144138C4180938B093F138B98
:1017F0008180914A93140401C1801385B40042058D
:101800004181EF20C005B3078C0088A31385F40045
:1018100042054181EF20A004B3878B0088A3138584
:10182000340142054181EF208003B3078B0088A378
:101830000504E31154FDB70600209386064D138678
:1018400081809385093F13854180EF70003795674C
:10185000938707E23EC29167938787A93EC44800F9
:10186000A5473EC6EFD0E01CC9311841B70700209C
:1018700023A0E74E41016FE01FCBEFE23FC801110B
:10188000C88793F745002E84A9C79379F50F1307EE
:10189000C0033387E902B7F70020938787F8BA9728
:1018A000D44798473697D44B9C4F3386F6006374E1
:1018B000C700B307D740B70400209384C44D8E20DF
:1018C0003ECE13076010AE976371F7061305F10063
:1018D0005135937784009DCB9384C18098209307E2
:1018E000F00F6315F70288878545EFD0902788872A
:1018F0000566130686B6B305C502B71700209387A1
:1019000007B5BE95EFD0E04E9C879CA0937704016D
:1019100081C77D572386E1801374040401C47D5779
:101920002386E18005616FE0BFC0372900201309DD
:1019300009227008CA954E85EFD0C0509E2072478C
:101940003E97420741839AA09947E3F4E7F883560C
:10195000490093978600A182D58FC207C1839386E1
:101960005700E3D8E6F69907E312F7F60545EFF0DE
:10197000BFBCB704002003A5044E7D57854605462D
:101980008545EFA0401A37060020B7250020130632
:10199000C64C938585324E85EFD010009384044E5B
:1019A00001C51305F1007D3388408945EFA0402D26
:1019B0000DB7EFE25FB6EFD05016937715002A848B
:1019C00099C737C501001305C59EEF60E15C9377A9
:1019D000240099C737C50100130505A0EF60C15B5E
:1019E0009377440099CBEFD03017118919C537C5CB
:1019F0000100130585A1EF60215A418819CC0145EA
:101A0000EFD0F012AA8519C10145853D0545EFD0FB
:101A10001012AA8519C105458D356FE01FB2EFE29E
:101A20009FAF39711304601F11C12A841306C003CC
:101A300081454800EFE03FB18D4722D64C0013842A
:101A4000D1801385D1803ED0EFD0E018814719E9CD
:101A50000820EFD05016854711C508208945EFD0E2
:101A6000502B81473E8521616FE03FADEFE2BFAA79
:101A70001385D180C5316FE05FACB7270020938715
:101A800007221CC1B70700209387C74D9A2305453D
:101A9000239007009AA18280EFE2FFA7B7270020DA
:101AA0002E862E84AA851385873293848732EF5041
:101AB0004161B707002023A6874C37040020130498
:101AC000044E0840B7070020854523AC974CEFA093
:101AD000201B08407D57854605468945EFA0A00498
:101AE00005456FE09FA5EFE21FA383A78192829730
:101AF0006FE0BFA4EFE23FA2B726000095652A86FB
:101B000095470547938666AE938575C90D45EF9059
:101B1000005E05456FE07FA2EFE2FF9F0D45EF906D
:101B200040286FE09FA1EFE21F9F0D45EF902051ED
:101B30006FE0BFA0EFE23F9EDD3501E50D456FE0B0
:101B4000DF9F0145EDBF8280EFE2FF9C05376FE02C
:101B5000DF9EEFE25F9C01112A84AE846808930542
:101B6000A10132C6193F15C9724715453C333423CC
:101B7000A207D58F93968700A183D58FC207C18313
:101B800091EBBC8532461D0798C0E5171EA2FD5794
:101B90001CA0014505616FE05F9A1545E5BFEFE2C6
:101BA0009F979307160013D787401D06238FF5FED6
:101BB0002E85A38EE5FE93150601C1816515E93DCD
:101BC000954711C181473E856FE03F97AA95C205B1
:101BD000716671681307F00F9306F00FC181130649
:101BE000C6A21308C8B293170501C1836396F50016
:101BF00013958600598D828005058347F5FFB98FBF
:101C00003307F6001823C297358F9423E9BFEFE21C
:101C10009F9032842E852146A285EFF09FA18547B3
:101C20006316F5029567938707B01305300263E8E2
:101C3000870037151602130505EC3355850242055A
:101C400041814D3D054781476303E5008D473E8552
:101C50006FE0BF8EEFE23F8CB7070020814505455E
:101C600023A2074EEFF09FA2453D6FE01F8DEFE2EC
:101C70009F8A81450145EFF07FA175356FE0FF8BAD
:101C8000EFE2DF87138401901E201307F00F41114C
:101C90006371F702B7C60100716637C5010093860C
:101CA000C6C71306C6C29305D009130545CAEF502F
:101CB00061381E200D476366F700154541016FE04E
:101CC0003F872E890E20AA893725002093040543DB
:101CD0001305054332C6DD3D6DF19C203246850477
:101CE0002380F9001E20F5171EA223209900F9B7C2
:101CF000EFE27F82B707002083A4474E8547639DAC
:101D0000F4061384219006A0AA87A38FF5FE1E2057
:101D10001385F5FF370700203E964206418212A048
:101D20000E202326A74E5D351A209376F50F2181CC
:101D30004207418393071700C207C1831EA0B7273C
:101D40000020938707433E9714A31A201375F50FBD
:101D500085454207418393061700C206C18216A03B
:101D6000BA9788A3B7070020014523A4974EEFF048
:101D7000FF9101456FE06FFC1545EDBFEFE2AFF954
:101D8000B707002083A7874E411185C3B7C601005E
:101D9000716637C501009386C6CB1306C6C393058B
:101DA000600E130545CAEF50E1281305F100EFF06E
:101DB0003F97B70700209387474E98438546630FA8
:101DC000D70019C789466302D7048D476314F7000B
:101DD000EFF09FD4014541016FE02FF6938601900B
:101DE000239006009A22131607014182130716005A
:101DF000420741839AA2948737270020130707439D
:101E0000329714A3094798C3E1B7138701901623AB
:101E10001306F00F6363D6021E2393960701C18257
:101E200093871600C207C1831EA39887B727002097
:101E300093870743B69798A361BF0D47E9B7EFE2D1
:101E40008FEDB707002083A7474E05476381E70260
:101E5000B7C60100716637C501009386C6D3130665
:101E600006C593053012130545CAEF50A11CB704EF
:101E700000209384844E984019C7630BF7000144F7
:101E800022856FE08FEB81450545EFF03F80C5BFB0
:101E9000138421901E20C207C18385C7B704002088
:101EA0009384C44E9C40882362056185EFF09F8433
:101EB0009C4085079CC01E20FD17C207C1831EA041
:101EC0007DBF0D45EFF04FE72A8481450545EFF0D2
:101ED000EFFB23A004006DB7EFE2EFE3B7070020AC
:101EE0001387474E1443094641111384474E638FAD
:101EF000C6028D476388F604014595CA1443B9C2EA
:101F000014436381C604184301456304F702B7C64E
:101F10000100716637C50100938686CD130646C65B
:101F20009305D015130545CAEF50C1100545EFF0D4
:101F3000AFE02AC6EFF03FBF324585471CC04101E4
:101F40006FE0AFDF0145F5B7962115476398E608C6
:101F5000582130319306E07C2207518F13168700F9
:101F60002183598E420641821307F6FF42074183BF
:101F7000AA870D4563E6E606EFE2EFD9B82394336E
:101F8000239005002207558F854694A396219354EC
:101F9000360093F4F40F850696A19376760081C6F9
:101FA000850493F4F40F84B396212E8413852700BF
:101FB000850696A19315870021834D8F9305170001
:101FC000C2058146C181EF20A07F01C5092B6FE0CA
:101FD000CFD61E200145BE9406A0D5BF0D458280F8
:101FE00082809A2195476311F70658218D4731EF7A
:101FF00038311306D00F9306F7FF93F6F60F63768A
:10200000D604EFE24FD13C210C314111A207CD8F14
:1020100093958700A183CD8F93851700130717F041
:10202000C2051337170085460546C1816800A3061F
:1020300001005886EF20C078814719C14D21AA8739
:102040003E8541016FE06FCF8D473E8582809621AE
:102050001547637FD70658213031AA872207518F51
:10206000131687002183598E42064182135736008A
:10207000937676001377F70F81C605071377F70F6E
:102080009306F6FFC206C1821308F07A0D4563631A
:10209000D804D4336390E604EFE2EFC7B8232E846C
:1020A0008C332207138567004D8F93168700218399
:1020B000558F0507931507018546C181EF204070B4
:1020C00001C531296FE06FC795471EA00145DDBFEF
:1020D0000D4582808280962115476397E608582136
:1020E00030319306E07C2207518F1316870021833D
:1020F000598E420641821307F6FF42074183AA87A1
:102100000D4563E5E606EFE20FC1B8239433239053
:1021100005002207558F894694A3962193543600D3
:1021200093F4F40F850696A19376760081C6850414
:1021300093F4F40F84B396212E841385270085062B
:1021400096A19315870021834D8F93051700C20533
:10215000C181EF20607601C559266FE00FBE1E20B9
:102160000145BE9406A0D5BF0D45828082809A218C
:102170009547631CF702EFE20FBA3C210C3185460C
:10218000A207CD8F93958700A183CD8F93851700EC
:10219000C2050546C1810D05EF208057814719C151
:1021A0003D2EAA873E856FE04FB98D473E858280E0
:1021B000EFE26FB69A21954463F7E4065821303177
:1021C000930670072207518F131687002183518FC2
:1021D0001316070141821307F6FF42074183AA87BE
:1021E0000D4563EDE602D433131716001377F70F8E
:1021F0006396E602B8232E848C332207138567008A
:102200004D8F931687002183558F0507931507017E
:102210008546C181EF20C04F01C5D1246FE0EFB1E9
:1022200006A00145E5BF0D45D5BF96211547639A28
:10223000E606EFE24FAE54211306C007AA87939437
:102240000601C1801387F4FF420741830D45636295
:10225000E6042E84B8238C332310040088A31220B4
:1022600086062207050612A04D8F94B393158700AA
:10227000162021834D8F930517008506C20516A0F1
:1022800026868146C18113852700EF20604801C55D
:10229000B9246FE08FAA1E2086040145BE9406A0D3
:1022A000CDBF0D4582809A21A54763F2E70EEFE28C
:1022B000EFA45C2138312A84A207D98F9399870033
:1022C000A183B3E7F9009399070193D90901938793
:1022D000F9FFC207C1831307C0070D456367F70AFB
:1022E0001C24703013078007A207D18F1396870034
:1022F000A183D18F1396070141829307F6FFC2078E
:10230000C1836364F708183493171600639FE706C8
:1023100024202E890C30A2047C20CD8C4C30A207C6
:102320008546CD8F93958700A183CD8F9385170028
:10233000C205C1811305A400EF20803D39E92310B7
:102340000900DD471CA083570900139A19009395D3
:10235000840085072310F900A30044018357090076
:10236000A180CD8C938514008507C2052310F90048
:1023700081464E86C18113052400EF20603911E9A2
:10238000835709003E9A231049016FE06F9A014577
:102390008280B122DDBF962115476390E60858215F
:1023A00030319306B0072207518F1316870021831F
:1023B000518F1316070141821307F6FF420741832D
:1023C000AA870D4563EDE604EFE2EF942E843E8587
:1023D0008C331147BC232310040018A11A20A20734
:1023E0009314160005071AA004B1CD8F93958700AA
:1023F0001A20A183CD8F938517000507C2051AA067
:10240000C1810905EF20802101C5D1286FE0EF923D
:102410001E200145BE9406A0D5BF0D458280828056
:10242000EFE26F8F03D44190AE84B725002022865F
:10243000938505530505EF40D148050482A0014569
:102440006FE0AF8FA14763F3C702EFE2CF8CB7C64F
:102450000100716637C50100938686D6130686D5BE
:1024600093058003130585D7EF40D13C13D7350082
:10247000930717003308E5003E958547B397C700DB
:10248000FD17C2070E073387E540C183B397E70006
:1024900018210346080093C7F7FF2207518F9D8933
:1024A000F98FB396B600DD8EC206C1862300D80030
:1024B000C206C182A18214A1828093D735003E95C5
:1024C0001C3108219D89A207C98F05453315C50018
:1024D000B3D7B7407D157D8D1375F50F82809D476D
:1024E00063E7A70093874187AA97882382801145D5
:1024F0008280EFE24F82AE871388F7FFB2851378B0
:10250000F80F36869306600F63FC060137C501009D
:10251000130585D9EF505128094422856FE0EF81DA
:10252000238AF180094475F937250000130545C554
:1025300023ACA190372500001305E5C623AEA1907A
:1025400037250000130505CF23A8A19037250000EB
:10255000130505C823A6A1903725000023AA0190E2
:102560001305C5D723A0A192372500001305E5E385
:1025700023A2A19237250000130585ED23A4A19283
:10258000BA863E85EFF0AFE82A8441F9EFE09FFA82
:1025900009C5054723A8E18049B70D44BDBFEFD267
:1025A0009FF7EFF02FD92A8419C5054723A8E180AA
:1025B00022856FD09FF8EFE0FFF71DCDB727000011
:1025C000938767B423ACF190B7270000938787B453
:1025D00023AEF190B7270000938727B523A6F1908B
:1025E000B72700009387E7B923A8F19023AA0190A9
:1025F0007D57238AE18055BF0D445DBFEFD2BFF107
:10260000138401811840854719456318F70083A793
:10261000819182970145232004006FD01FF2EFD2F1
:102620009FEF83A70181411119446395070C68004E
:10263000EFE0DFF40547AA876304E50001445DA8E5
:1026400032476303A7088946E31AD7FE03A501931F
:102650000C213707002023A4F190130607002386DE
:10266000B1928147138401931389C192938481901D
:10267000130707004148142291CA6391D5088E07B9
:10268000BA97DC4393856193829788C083C741934F
:10269000D5D794409387619385C2034709001040C2
:1026A00085458EA3136707F818A292231840930557
:1026B00016008EA3329714A3922303A701910C4016
:1026C00003C5418102979DBF83A7C1909384419325
:1026D00013866193938501931385419382972A848E
:1026E00031FD9C2003C741816303F700A1FB09452D
:1026F000EFE09FE4228541016FD03FE4850721068A
:10270000E39B07F761B7930740063345F502A947F6
:102710004205418163E8A706F167938787DA0A05D6
:102720003E951C41828723800500930760041CA20C
:10273000828089479CA193078002D5BF91479CA1C5
:10274000E547F5B795479CA1D147D5B79D479CA1D3
:10275000BD47F1BFA1479CA1A947D1BFAD479CA1EF
:10276000A147F1B7B1479CA19D47D1B7B9479CA1FB
:10277000994775BFBD479CA1954755BFC1479CA1CF
:10278000914775B7D147E5BFEFD2FFD87971BD4703
:10279000AA842E84368593056100130671005C833C
:1027A000DC83EFF05FF69C83034E61009308C05D0D
:1027B00093960701C182B388F840139827001397B6
:1027C00016008608B30EC0411393260081470145C9
:1027D0008145054FD14F634A170105476369F70AE1
:1027E00081471EA045616FD05FD593161700A6964E
:1027F0000396060063DBCE046359C605B3060741A2
:102800008606A6968396060063C5C604B306E8004E
:102810008606A69683960600634DD60211C19DCD0D
:1028200081459386170010188607B2971356170034
:102830001A974207050593F6F60F239CC7FC4183C0
:102840001375F50F63EDDF00B68709074207418373
:1028500059B719C16384E5018545E1B79546300054
:10286000054781472E220A2205071377F70F898D26
:10287000AE97C207C1830906E366D7FEFD16B3C74C
:10288000D702C207C1838607C207C18399BFBE862C
:10289000F9B7EFD25FC8B386C502AA8801470145E0
:1028A0000148634FD7002E868146C285EF20813CC8
:1028B000EF400137EFB0A065EF40C1596FD0FFC7BF
:1028C00093171700C6978397070032974207B3877D
:1028D000F702418313DEF741AA9733B3A70072983A
:1028E0003E851A987DBF856793870777AA971A2137
:1028F00036211105158F231EE5FEE39AA7FE82807F
:102900000566814701478146130686BB1398170069
:102910002A98031808009398070193D8080163D4F4
:1029200006014687C2868907E392C7FE05839AA1FE
:1029300036858280EFD23FBE0545EF605039138463
:102940004194931505010420C1850545EF60D048E9
:10295000B74700208604938707CCA6978AA31C203C
:102960009546850793F7F70F1CA01387818163F4C1
:10297000F6040C23373501408546054613050580CE
:1029800023000400EF40A04903A58194138481959E
:102990000147938781958546094681452320040098
:1029A000EFA0106D1C4091C7B7E700E0116723A0AE
:1029B000E7206FD09FB8BA978C23373401401305B6
:1029C000048085460546EF40804585451305048013
:1029D000EF406043F9BFEFD21FB40945EF80206696
:1029E000B707002083A6C71D416779179C4203A53E
:1029F0008194F98F9CC21384419501479387419537
:102A000085461146814523200400EFA070661C40D6
:102A100091C7B7E700E0116723A0E7206FD0FFB1AF
:102A20009D4763E8A702EFD21FAFAA852A845D45C0
:102A3000EF00104F370500201305050806042A94FF
:102A40001A20B74700209387C7D1DAA39AAB6FD07B
:102A5000DFAE82801385819482801385C194828049
:102A600087A78193539517C01375F50F8280EFD216
:102A70009FAA5D71EF600056A9450145EF60A05621
:102A800071642946930584E80145EF60E063A94538
:102A90000545EF6040552946930584E80545EF60FC
:102AA000A062A9450945EF600054930584E82946D2
:102AB0000945EF60606193070010B70608007010C9
:102AC000894501452316F102EF6030349307000277
:102AD000BEC0B72701409387C744BEC2B7270020B6
:102AE00093870755BEC485473EDE8567938787BBBE
:102AF0002316F1040C188567130600020A853EDCD4
:102B000002D802DAEF40E15BB73600000A8593860F
:102B1000669D01468545EF60B04AB707002003A7D0
:102B2000C71D814605461C43B7050E00054593E7C2
:102B300017001CC33737000013074793EF601037A7
:102B400083C58181373501409D46054613050580C3
:102B5000EF40E02C0545EF400038374500201309D1
:102B600005DB130600328145130505DBEFD0BF9D61
:102B70005D45EF00904BB7040020938404080605E0
:102B800026951E21374400201304C4D13745002068
:102B90005EA023202401130600321309050D814590
:102BA000232404001305050DEFD0FF995D45EF00C8
:102BB000D0470605AA94374700209E201307C7CCAC
:102BC00058D037470020130707CE1EA818D88D47C6
:102BD000374700205EAC130747CF58DC9387C1937B
:102BE000374700201CCC130787D0A9471EB45EB816
:102BF0002310F4042316F40438C4231CF404231211
:102C0000F40637470020B7470020130787D893877B
:102C1000C7D923262401232A0400231004022316E3
:102C20000402231C04022312040423180404231E98
:102C3000040478C8231404063CD061616FD0FF8F70
:102C40001A251C410607BA978EA31E255A2185070F
:102C5000C207C1831EA563E4E70023140500828038
:102C600052211A2581469305F6FFC205C18181478D
:102C7000631CD6000315A5003305C502898F33C533
:102C8000C70242054185828011E32E877D174207E6
:102C9000032805004183931817004698031808007D
:102CA0008506C206C297C182E1B7EFD2DF864E2108
:102CB0001E25AA849386F5FFC206C18201470144FE
:102CC000639AE50437C50100A285130585EDEF5031
:102CD000A11A8395A400CA203305B502098C37C513
:102CE0000100130545EEEF502119CE2037C5010034
:102CF000130545EFEF50411837C50100A2851305B4
:102D000005F0EF506117CA203345A4024205418502
:102D10006FD0BF829040139517002A9603160600C5
:102D2000329491E3B687FD170507C2074207C183B6
:102D3000418379B7AD4763E2A712EFD2CFFDF167C8
:102D4000938747DD0A053E951C4182873745002061
:102D50001305C5D1EFF07FF5D37705D0B1A0374586
:102D60000020130585D2FDB737450020130545D354
:102D7000EFF01FEFD37705D0538507E0EF40C10296
:102D8000B7C7010003A607F583A647F5EF30810C0E
:102D9000B7C7010003A687F583A6C7F5EF30810BFF
:102DA000EF40410BD30705F0538507E06FD0EFF8F4
:102DB00037450020130505D4EFF09FEAD37705D0FF
:102DC000538507E0EF30517EB7C7010003A607F532
:102DD00083A647F5EF300108B7C7010003A607F641
:102DE00083A647F665BF374500201305C5D4E9B76C
:102DF00037450020130585D5C1B737450020130599
:102E000045D6EFF0FFE5D37705D0538507E0EF30E7
:102E1000B179B7C7010003A607F583A647F5BDBF83
:102E2000374500201305C5D7EFF09FE3B7C7010072
:102E3000D37705D007A787F4D3F7E710B5B7039585
:102E4000219519BF37450020130505D7F1BF03951C
:102E5000019519B787A7819381BFD30700F05385E8
:102E600007E08280EFD22FE841119307B05D7C83A9
:102E700023120100EF903048B7C7010003AB87E78A
:102E800083ABC7E7056CB74A00202AC69544014DBD
:102E900001490144372A0020930C0C77938ACAD148
:102EA00085456800EF90107289476307F9028D47E6
:102EB0006300F902631009023735014085451305A7
:102EC0000580EF3050740945EF70B06D0D49C9BFF2
:102ED0000949F9B70549E9B705473400194681455D
:102EE0000145EFA04070A247898BA1CBB7490020D4
:102EF000938909CC094DB1479D4D3305FD0283955A
:102F00002900050D89095695EFF09FD3B147E316C7
:102F1000BDFFA947B377F402054D63929702FD14F4
:102F200093F4F40F91E0A54437350140854513052E
:102F30000580EF30506D014D19A0E31C0DFCA24738
:102F4000918BC5C393090A55B38D990183950900E7
:102F500001458909EF604068239FA9FEE3983DFF82
:102F600013050A55EFF03F989305210013050A5504
:102F7000EFF01F99AA8693056100094613050A55CB
:102F8000EFF09F802C839307A05D63EEB7020946A4
:102F900013050A55EFF0FF8FD30705F04C0053954A
:102FA00017C042054181EF50F07FD37715D053858C
:102FB00007E0EF30715F5A86DE86EF20B169EF30AF
:102FC000716923ACA192B707002083A7C71D13071F
:102FD0008CBB0945D8C398431367170098C3EF709B
:102FE000505C05041374F40FA547E3FB87EA014422
:102FF00045BD9C4221476369F708EFD22FD0716726
:103000008A07130747E0BA979C43B6843289AE8992
:103010002A848287EF60B06A098919C101459DA0A1
:103020002285EF60107185479CC0CDBFEF6050686E
:1030300005896DD59305A00D2285EF60106A89473B
:10304000E5B7EF60F066098971D92285EF603067D6
:10305000CE852285EF6090678D47F9B7EF605065A8
:103060001375050845DDCA852285EF603066A147E6
:1030700065BFEF60F063137545084DD12285EF60A1
:10308000106A05456FD0CFCA014582809C4229470E
:103090006364F70CEFD28FC671678A07130787E264
:1030A000BA979C43B6843289AE892A848287EF60BE
:1030B0001061098919C1014571A82285EF60706707
:1030C00085479CC0CDBFEF60B05E05896DD5930587
:1030D000A00D2285EF6070608947E5B7EF60505D15
:1030E000098971D92285EF60905DCE852285EF60D8
:1030F000F05D9147F9B7EF60B05B1375450845DDAA
:103100002285EF601063A9476DBFEF60705A058993
:103110005DD19305A00D2285EF60505D994755B7AD
:10312000EF601059098941D92285EF6050599D47B8
:1031300049BFEF60F0571375050435DD2285EF6058
:10314000505C2285EF60B0552300A9002285EF6016
:10315000105D05456FD0CFBD014582809C411D4764
:103160006364F71AEFD28FB971678A07130747E5CF
:10317000BA979C432A84411113451500368A328937
:10318000AE898287B286930500032946EFF07FE679
:103190008547631BF50423A0A90023200900A9A0EB
:1031A000B286930500031306F100EFF03FEE85476A
:1031B000631CF5029C87A18BEDF3894723A0F900DE
:1031C000E9BFB747002093878741131634003E9626
:1031D000CA869945EFF09FEB85476317F5002320DA
:1031E00009008D4723A0F90041016FD06FB4B2866A
:1031F0000E043746002005041306864122969D459D
:10320000EFF0DFE88547E311F5FE23200900914741
:10321000D1BFB7470020931A3400938487411386A7
:103220002A00CA862696A145EFF05FE68547E31D92
:10323000F5FAB387540184238833C2042205C98C6C
:10324000A823B7078000C98C63F39704EF104004EC
:10325000B70700FFBE94B3D4A40223109A003145EF
:103260003304A40283150A00374500201305C5D195
:103270002295EFF0FF9C954723A0F90083570A00A1
:1032800023200900938747062310FA00B1BFEF10EF
:10329000200033D5A4022310AA00D1B7B2860E04B1
:1032A000374600200D04130686412296A545EFF00F
:1032B000FFDD8547E31AF5F2994709B7B7440020C7
:1032C000131A34009384844113064A00CA86269652
:1032D000A945EFF0BFDB8547E318F5F01334140080
:1032E00031451D043304A402D294AC30DC203745B0
:1032F0000020A205BE95C2051305C5D1C185229542
:10330000EFF01F949D475DBD82800547A381E19446
:10331000828003C7319441CB13862194182293866F
:1033200031942545B74700209385073F6362E50246
:1033300083D6019593171700AE9796A39307A7001E
:103340008607BE9583D72195050718A29EA1828086
:10335000EFD26F9C9387073F138647010147814552
:103360008A238907AA95AA2B2A97E31BF6FEA94769
:10337000B3C5F502374400201304C4D16945238046
:1033800006003347F7026EA8C205C1813AA4492E50
:103390002E247145712637C50100130505E8EF405D
:1033A000B13F6FD08F998280EFD24F9541111305B5
:1033B000803EEF90D02D6945374400201304C4D1DE
:1033C00002C402C69D216AA8714585212AA437C579
:1033D00001001305C5F0EF40313CEF90C0712A8920
:1033E00002C002C2E549154AEF90E070330525415D
:1033F0004205418163F3A90402469D47630DF6002F
:10340000A24537C50100130505F2EF40F126054539
:10341000EF60F03002C412469D47630DF600B245DE
:1034200037C50100130545F3EF4011250145EF6055
:10343000102F02C6EFF0FFED4DB76370AA0282476E
:1034400091E79D4705453EC0EF60702D924791E79B
:103450009D4701453EC2EF60902C93862195300038
:103460008A850145EFF09FCF9386019570004C004F
:103470000545EFF0BFCE82471D47E397E7F61247B9
:10348000E314F7F60545EF909020B9BF73002030A4
:1034900037C501001971130585F682FE86FC8AFA8C
:1034A0008EF892F696F49AF29EF0A2EEA6ECAAEAB4
:1034B000AEE8B2E6B6E4BAE2BEE042FE46FC4AFA44
:1034C0004EF852F656F45AF25EF062EE66EC6AEA94
:1034D0006EE872E676E47AE27EE0EF40F12BEFA050
:1034E000F021AA8537C501001305C5F7EF40D118B3
:1034F000EFA03021AA8537C501001305C5F8EF40BC
:10350000B117EFA07020AA8537C501001305C5F9D2
:10351000EF40911601A0317106DF16DD1ADB1ED9CE
:103520002AD72ED532D336D13ACF3ECD42CB46C95B
:1035300072C776C57AC37EC182FE86FC8AFA8EF88F
:1035400092F696F49AF29EF0A2EEA6ECAAEAAEE803
:10355000B2E6B6E4BAE2BEE042FE46FC4AFA4EF8F3
:1035600052F656F45AF25EF062EE66EC6AEA6EE8E3
:1035700072E676E47AE27EE0EF401074130500080C
:10358000EF30D062FA50EA525A53CA533A55AA550C
:103590001A568A567A47EA475A48CA483A4EAA4EB5
:1035A0001A4F8A4F7670E6705671C6713672A672DF
:1035B000167386737664E6645665C6653666A666D7
:1035C000166786677278E2785279C279327AA27A7F
:1035D000127B827B726CE26C526DC26D326EA26E97
:1035E000126F826F296173002030197182FE86FC90
:1035F0008AFA8EF892F696F49AF29EF0A2EEA6EC73
:10360000AAEAAEE8B2E6B6E4BAE2BEE042FE46FCA2
:103610004AFA4EF852F656F45AF25EF062EE66EC52
:103620006AEA6EE872E676E47AE27EE0EF50E0471E
:103630007670E6705671C6713672A672167386730E
:103640007664E6645665C6653666A666166786675E
:103650007278E2785279C279327AA27A127B827BCE
:10366000726CE26C526DC26D326EA26E126F826F1E
:103670000961730020301971294582FE86FC8AFA9F
:103680008EF892F696F49AF29EF0A2EEA6ECAAEAD2
:10369000AEE8B2E6B6E4BAE2BEE042FE46FC4AFA62
:1036A0004EF852F656F45AF25EF062EE66EC6AEAB2
:1036B0006EE872E676E47AE27EE0EF40F00185455E
:1036C00037050040EF40E0637670E6705671C671D2
:1036D0003672A672167386737664E6645665C6659E
:1036E0003666A666166786677278E2785279C2797E
:1036F000327AA27A127B827B726CE26C526DC26D5E
:10370000326EA26E126F826F096173002030B7476C
:103710000020938787423E950CA1A1810CB1828045
:10372000EFC27FDF9307E00241112A846306F500B0
:10373000930700036316F5002EC6EF209076B2457E
:103740002285EFF0DFFCB7450020938585420947CD
:10375000A9460946A2952285EF50A07B41016FC082
:10376000DFDDEFC25FDBA1472A8493F4F50F630925
:10377000F50463E1A7028547630BF5048D47014516
:10378000630EF402B7470020938787423E9404A05B
:1037900005452DA0DD47630FF500E365F5FE9307B2
:1037A00015FCC207C1830547E36EF7FCE37CB7FC59
:1037B0008544C9BF99470145E3F6B7FC6FC0FFD701
:1037C00093074006E3F0B7FC9304400665BF8D47BE
:1037D0000145E3E5B7FE91CDB745002093858542CD
:1037E000A4B10947A94605468D050D45EF50607205
:1037F00051BF814441BFB7470020938787423E9520
:103800000CA18280EFC23FD12A84EFF09FF501CD59
:10381000B7450020938585420947A9460546A295EC
:103820002285EF50006F6FC05FD1B74700209387AC
:103830008742AA97983388232207598D8280B747F9
:10384000002093878742AA979833A823220742052E
:10385000498F8823498FA8336205598D8280B747E5
:103860000020938787423E9508218280B747002039
:10387000938787423E9593D785000CA11CB193D7BF
:103880000501E1813CA12CB18280EFC2DFC8B744C1
:1038900000201306E003814513858442EFC0BFCAB0
:1038A0000947930640061306E003938584420145C9
:1038B000EF50E057894755E11384844214201307E1
:1038C00050058147638BE608130680028145130586
:1038D0006401EFC05FC7B7070401938757151CC089
:1038E000B7C7FAF09387E77B5CC0B7070AC01387B6
:1038F00027139387871A5CC4B70701FF9387871A3A
:103900001CC8FD575EA8B7C7010083A5C7FA1305F9
:10391000A00218C4EFF09FF599477CB809479307B8
:10392000601F9306803E1306E003938584420145A1
:103930001EACEF50005E19E537C50100130505FB0D
:10394000EF4081650947930640061306E00393851F
:1039500084420145EF50A04D85473E856FC0FFBDB5
:10396000EFC27FBB2A84EFF07FF0B745002093853C
:1039700085420947A9461146A2952285EF50605914
:103980006FC0BFBB1E212A21C2075D8D8280AA871E
:1039900041818AA1BEA18280B747002093878742D8
:1039A000AA979833A82322074205498F8823498F75
:1039B000A8336205598D8280EFC25FB42A843971C1
:1039C0001305A0032E89B289B684EFF01FE6636069
:1039D00085082A8A1305C003EFF03FE5B307454188
:1039E00063DA0700636345077D14330444412A9476
:1039F000420441801D453305A4020947A9461D46DE
:103A00006C001305E50342054181EF5040421886E2
:103A1000814791461376170019E68507C207C183CF
:103A20000583E399D7FE2300F9009C86B8809CA407
:103A30001C87DCC09C879CB4834721012390E9004C
:103A40002381F90021616FC0BFAE2A8465B72300CE
:103A50000900CDBFEFC23FAC0111AA841305C0031A
:103A6000EFF0BFDC2A8468004482EF609049480888
:103A7000EF60B04C1D453305A4028347C101388671
:103A8000A946DC82E24778841D465C838347D101E6
:103A90001305E5034205DC831C8709474C0041817F
:103AA0005C85EF50004713051400420541819307E0
:103AB000100363F3A70001453744002093078442B5
:103AC000238EA7021305A003A38E0702EFF0FFD5F4
:103AD000930710039305844263E7A7000505238D30
:103AE000A502A38D05020947A94611469385A503A2
:103AF0001305A003EF50E04105616FC01FA491477B
:103B000063E0A704EFC23FA1F167938707FC0A05B2
:103B10003E951C4182878565938505803725014048
:103B200013050580EF60001E1375F50F6FC0FFA031
:103B30008565EDB78965DDB79165CDB7A165F9BF3D
:103B400001458280954763E5A704EFC2DF9CF167DA
:103B5000938747FD0A053E951C4182879305000423
:103B60003725014013050580EF60C0196FC0FF9C29
:103B700093050002F5B7C145E5B7A145D5B7914515
:103B8000C5B73715014093050010130505C0E9BFFF
:103B900001458280EFC23F9885476309F50211C550
:103BA0008947630AF5026FC05F9989E9A145371516
:103BB0000140130505C0EF608015F5B7A145371525
:103BC0000140130505C0EF608015F1BF99E1C145C3
:103BD000F9BFC145EDB781E593050002C9BF930563
:103BE0000002F1BFEFC23F937971A9473ED23ED0A8
:103BF000B74700009387E7AF4C0801453ED602CC9B
:103C0000EF50A05E4C080545EF50205E4C0809457A
:103C1000EF50A05D4C080D45EF50205D4C0811455C
:103C2000EF50A05CB7470000938747B92C000145CF
:103C30003EC802C6EF50C0502C000545EF50405022
:103C40002C000945EF50C04F45616FC01F8FEFC278
:103C50009F8C011199475C849387C1953EC89387D7
:103C600041963EC6B7071464D1073ECA8947230C64
:103C7000F100B7470000938747B428003ECEEF50CD
:103C8000606D05616FC07F8BEFC2FF88EFF03FFC76
:103C9000EF50A06BEF90A01FEF508070EF50405896
:103CA000C5BFEFC2BF8579713714014002C602C893
:103CB00002CA02CCEF60E006F1460146130504801B
:103CC000C145EF60E000130504C08D45EF50507E04
:103CD000130504808D45EF50B07D93050003371523
:103CE0000140EF50F07C130504809305400CEF5029
:103CF000307CB72401401385048093050078EF5091
:103D0000307A13050440B165EF5090798565371519
:103D10000140EF50F078130504408D45EF50507886
:103D2000130504409305000EEF50907713050440EF
:103D30009145EF50F076130504408565EF505076BD
:103D4000E1460146130504C0A965EF50707893075A
:103D5000800491696C08130504C03ED2231E310112
:103D6000231F01002310010223110102EF30A06480
:103D7000130504C08565EF50B072914537150140B9
:103D8000EF5010721305044093050004EF5050717A
:103D9000370613808D65E14641061305044093857F
:103DA00005A0EF50F072130504C093058003EF5097
:103DB000306F0569930509C037150140EF50506E0B
:103DC000138504809305C007EF50906F130504C05E
:103DD00093050010EF50D06EC16513850480938564
:103DE0000580EF50F06D81450145EF3080281305C7
:103DF000044093050004EF509071130504C093052F
:103E00000020EF50F069370A308013062A0013852E
:103E1000048091468945EF50B06B13062A00138544
:103E20000480E1468545EF50B06AE146014613053E
:103E3000048093050040EF50B06985451165EF306F
:103E4000701111457526EFE09FC2B7B51D0065469C
:103E5000938595150945EF70802593050002094566
:103E6000EF60907595659D461306803E938505E24B
:103E70002145EF7060301306401F9D452145EF70CE
:103E8000C03D2145EF70E0452145EF609071B717C7
:103E90000300938707D43EC6B70700403EC86C00B6
:103EA000B70700048546054601453ECA231C31017B
:103EB000EF50106B6C00854605460545EF50506A83
:103EC000930509C0130504C0F1460146EF50506048
:103ED000F14601469305000C130504C0EF50505FF6
:103EE0000145EF50B0660545EF505066680802CEB8
:103EF00002D002D202D402D6EF50D003854501454C
:103F0000EF3060149305803E0145EF308016EFF0EE
:103F10007FCD0545EF40905F45616FC06FE1EFC217
:103F20008FDFB74700202384A7461145EF607067F5
:103F300013064006FD550945EF90A05F6FC0EFDF07
:103F40001385C1968280EFC20FDDB757002083A58D
:103F5000C78A374500201306004013058547EF3018
:103F6000E1131375F50F6FC04FDDEFC24FD8371453
:103F70000140130504409145EF50705A1305044069
:103F800093050008EF50B059856537150140EF5093
:103F900010592945EF80B06F856537150140EF5006
:103FA00010572945EF80B06E1305044093050008B3
:103FB000EF50F055856537150140EF5050562945B3
:103FC000EF80F06C856537150140EF50505429455E
:103FD000EF80F06B9305000813050440EF50305458
:103FE0001305F003EFF0BFF30545EF80506A93052A
:103FF000000813050440EF5090511305F003EFF053
:104000001FF20545B7590020B7440020EF80306803
:10401000B74A002093898987130404409384844617
:10402000A14B7D5685450145EF90A05083A54903DE
:104030001306004013858A47EF30A108138A8A4788
:104040000149930500082285EF50704D13050004C7
:10405000EFF0FFEC136B890B5A85EFF05FEC9305E3
:1040600000082285EF50B04A13050004EFF03FEB43
:104070005A85EFF0DFEA93070008114523A24401B7
:104080009CC423800400239604000509EF6070514E
:1040900013064006FD5509451379F90FEF90604965
:1040A000130A0A08E31F79F9ADBFEFC2CFC6B714F0
:1040B00001402A8413850440EF50F0459355244075
:1040C0009317E4008D89DD8D9167F1177D8DC98D82
:1040D000C205C18113850440EF50B043B7240140AD
:1040E00013850480EF5030430E041375F587137465
:1040F0000478498C93150401C18113850480EF5025
:1041000050416FC08FC3EFC20FC183C701974111E8
:104110003744002002C69384019713048446A5EB1C
:10412000371901409305000213050940EF50303F55
:104130001C2085651305094085C7EF50503E0820B7
:10414000EFF0BFF623140400371501409145130525
:104150000540EF50D03B85479CA041016FC0EFBDAB
:10416000EF50F03A5A249307F00393050008130523
:10417000094063EBE700EF5090393A245C40BA976E
:104180008823EFF09FF2C9B7EF507039FDB73715AC
:104190000140914513050540EF5070385E24130728
:1041A000F0078507C207C1836361F7045EA43E245C
:1041B0001A248507C207C1833EA463E5E7021145BF
:1041C000EF60F06703A5C1967C0001478D46054668
:1041D0008945EF90E069B24791C7B7E700E0116702
:1041E00023A0E720238004008DBF23160400C1B75D
:1041F000EFC26FB2B7460000B7B50A008547014766
:10420000938666100546938505E6EF60506E371578
:1042100001409305000213050540EF50503037541C
:104220000020F16581460146130584879385059B2F
:10423000EFC04FCEE9659385057313058487EFC002
:104240001FB113058487EFC0AFCA6FC00FAFEFC2B5
:104250008FAC0945EF30802FEF10507BEF90D034BA
:10426000EF202041EF20E03DEF208021EFD0CFD69E
:10427000EFF03FA3716513050520EF90103C37C5A3
:1042800001001305C5FEEF303151EF80007D01A024
:1042900003D5E181828003C511978280EFC2AFA769
:1042A000B75600209387869113171500BA9782237B
:1042B0009307E5FF13F7F70F9307900241119386D9
:1042C0008691814463E7E700F16793878711BA9786
:1042D00084239307B00363EDA7007167931725004C
:1042E0001307C7FFBA979C43828719C0EFF0EF818D
:1042F00041016FC08FA49375F40F2685EFF06FC650
:10430000C5BF1375F40FEF20A03ADDB70D499384B4
:104310001197637589009C209EA2D9BF37C5010003
:10432000A2851305C515EF30313580A0E31224FDB9
:10433000B707EFBE37E700E0938707083CC74DBFDC
:1043400003C711978947E315F7FA1385A605EFF020
:104350006FE32A84EF2051252A8637C50100AE86F7
:104360001305C516EF305131A2850145EF20E0411C
:1043700041B703C711978947E31CF7F61385E60594
:10438000EFF04FE0AA850545D5B703C711978947D8
:10439000E310F7F613852606EFF0CFDEAA85094570
:1043A000F1B72285EFE0CFE7A1B79E32E372F4F4D4
:1043B000A28526854DA0FE2EE3FC87F2DE32FDB7F6
:1043C0009E32E3F787F2BE32D5B7DE32E3F287F2F0
:1043D000C5B79307F5FF86073385F600EFF08FDA50
:1043E000AA852685EFF0CFD721B783C71197E38140
:1043F00007F07DBFDD47E3ED87EEBE2A48005C8213
:10440000DE2ADC82FE2A5C83EF60203DD5B593076F
:10441000B003D5B77D1442044180F947E3EA87EC45
:104420009E2E48005C86BE2E3EC4DE2EDC86EF60EB
:10443000403F7DBD7D1442044180AD47C5B7930721
:104440002006E9BF83C71197E38407EA55154205A3
:104450009375F40F4181EFF0EFBA59BD83C71197FF
:10446000E38807E8A2852685EFF08FAB51B5EFC250
:10447000EF8883C71197B7540020138484911305E4
:1044800060021EA0EFF04FD1B7C7010087A7C71485
:10449000530705F09305240037C901005377F7103F
:1044A000531507C0537705D05377F718530507E026
:1044B000EFF0EFCD13052002EFF00FCE8727C914E0
:1044C000530705F0930564005377F710531507C0A1
:1044D000537705D05377F718530507E0EFF02FCB4C
:1044E0001305A002EFF04FCB8727C914530705F03F
:1044F0009305A4005377F710531507C0537705D0E1
:10450000D377F718538507E0EFF06FC80145EF2028
:10451000C0719305A405EFF08FC70545EF20E0704B
:104520009305E405EFF0AFC60945EF200070930551
:104530002406EFF0CFC59389419713854197EF602B
:10454000401C375500201309C5901305C590EF6036
:10455000C01E0545EF40304883C70900231AA40454
:104560003EA883C719005EA883C72900DD497EA83D
:10457000834789001EAC832749003EAC83479900DE
:1045800013898491938484915EAC2D442285050423
:10459000EFF0EFAC42042316A90241800909E317AA
:1045A00034FF716A01499389C187130B9002130A82
:1045B0008A11954AB3872901802301459307E4FFB7
:1045C00093F7F70F6364FB00D29788230604EFF09C
:1045D000CFA526940AA00509E31E59FDF169716A69
:1045E000014993890915130B9002130A8A11B14AE4
:1045F000B3872901802301459307E4FF93F7F70F61
:104600006364FB00D29788230604EFF04FA526943D
:104610000AA00509E31E59FD6FB09FF16388050EDE
:10462000EFB2DFEDB387C50013079002AA8A2E8987
:10463000B2840545634CF70A716A375400208149FA
:10464000130ACA0E13040498130BC002B3073A01ED
:104650008843EFE02FEE37C70100D30705F00727A7
:10466000C714B30734019109D3F7E710539507C076
:10467000D37705D0D3F7E7189CE3E39969FD254587
:10468000EFE04FEBD30705F00609539517C0D3773A
:1046900005D0130500045CF4EFF06F9C0AB8EF102E
:1046A000F0232AB8EF10B0224AB81305E003EFF068
:1046B0000F9B6AB8EF10707F0ABC0145EF20E056EF
:1046C0009305A403EFF0AFAC0545EF20005693052A
:1046D000E403EFF0CFAB0945EF2020559305240408
:1046E000EFF0EFAA4A94090481E401456FB05FE45A
:1046F0008357C4FFFD14890AA183238FFAFE8357D1
:10470000C4FFC204C180A38FFAFEF1BF05458280B9
:10471000D5C5EFB2BFDEB387C50013074003AA8437
:1047200041110545634BF706B1CA0547014563963C
:10473000E6061397150037540020FD1513048491E5
:1047400013950501139907013A9441811359090101
:1047500093091500C20993D909010904638E29033D
:104760009C208904A207231EF4FE03C7F4FFD98FFF
:10477000231EF4FEEFF09FB24E85D9BF32C62EC481
:10478000EFF0FFCEA245B75700203246860593874B
:104790008791BE95890509E6014541016FB05FD952
:1047A00083D7C5FF7D168904A183238FF4FE83D7A9
:1047B000C5FF42064182A38FF4FEE9BF0545828012
:1047C000EFB2FFD29389F5FFC20993D9090133876C
:1047D000C9008D47054A63CEE70A935A360013D9BC
:1047E00039003284AA84138A1A0093F97900A1CA85
:1047F0008547014A639FF608375B00202A8A338C7D
:104800002A01130B8B916319890913767400D694CE
:1048100011CA37550020942013058591CE854A95FD
:10482000EFD05FC203C711978947014A6313F706A8
:104830003755002013058591EF40B01399A8B75B59
:10484000002013858B91EF40F015268B938B8B9175
:104850003309994033052B01420541812146CE851C
:104860005E957D1AEFD07FC5050B420AA30FABFE04
:10487000135A0A01E3100AFE1D882146018E1374A3
:10488000F50F3314C4001374F40FD6943354C4409A
:1048900080A052856FB03FC9930B190083460A0070
:1048A000C20B33052B0193DB0B012146CE85EFD0E4
:1048B0007FB9050A5E8981BFFD15C205C1813387B5
:1048C000C500954763CCE706EFB27FC2375B002097
:1048D0002A84935A360093DB350013058B91B284FA
:1048E00093F9750013891A00EF40901F228A130B69
:1048F0008B91B38B8B4033057A0142054181214670
:10490000CE855A957D19EFD05FBB050A4209A30FEA
:10491000AAFE13590901E31009FEA1479D88B3843B
:1049200097409377F50FB397970093F7F70F569447
:10493000B3D797401CA001456FB0FFBE05458280EC
:10494000EFB2DFBB156481440549B7C90100130408
:1049500004B00D45EFE0BFF0631225030945EFE019
:104960001FF0AA850547A2860D460145EFD07FB806
:1049700019EDEFD0BFC811CD8544E1BF0145EFD09F
:104980001FC211E513854914EF300161DDB7F1D085
:10499000CDB70545EF80A04FEFD07FC8E9BF0147F5
:1049A00093868198094895453386E600834806003A
:1049B0009377F70F63950803054718A21547114829
:1049C00085451DE18DCBFD1793F7F70F3386F60074
:1049D000834806006393B80289471CA282800507BA
:1049E000E314B7FC9547D9BF850793F7F70FE37F2B
:1049F000F8FC8147E1BF9147D1BF7D171377F70FCF
:104A000069F38280938781982382070023A007009F
:104A100003C7C1995146B70700203307C7029387E0
:104A20000709014693868198894505481545BA9737
:104A3000D84381471107832807006397B80011EA1C
:104A40003386F6000CA2054685074107E395A7FECD
:104A50008280B388F60023800801FDB7EFB2BFABB8
:104A6000F16737550020938787381307A003930613
:104A700000080146814513058587EFB0DFBE6FB0A2
:104A8000DFABEFB25FA9EF40F00B184123A0E19A32
:104A90006FB0BFAA37070020130707098147BD463B
:104AA00010236309A600850793F7F70F5107E399D1
:104AB000D7FE85473E858280EFB25FA47D1537071C
:104AC00000201375F50F114683C6C1999307070996
:104AD0001384C199636DA60671671307C7170A058A
:104AE0003A95184102875147B386E602B697A62B3E
:104AF0008DC493F704F0C2072167C18393060710A2
:104B00006385D70863EBF6046388E70693F7F40F31
:104B100089C73E85EFF01FF808A06FB07FA151470D
:104B2000B386E602B697862BE1B75147B386E60215
:104B3000B697C62775BF5147B386E602B697E627F4
:104B400045BF5147B386E602B697A62755B75147EA
:104B5000B386E602B697862761BF9306073063895E
:104B6000D70213070740E393E7FA9387A1999823A5
:104B700051DF7D1798A359BFEFF0DFE80947A38DF8
:104B8000E1980547238EE19651B7238D0198BDBF6B
:104B90001389A199834909001305A0038509EFE052
:104BA000DFC8E3D5A9F68347090085072300F9008C
:104BB000B1BF2A887D1619456365C50CEFB2BF9554
:104BC0002E85F1650A06938505192E9610420286F8
:104BD000631C0800EFE0BFC8420541812397A198FC
:104BE000A38101986FB07F95EFE03FC4C5BF83D527
:104BF000E1986317080093F5F50FEFE0BFC0DDB74C
:104C0000EFE01FB2C5B7138731981C23850793F7D0
:104C1000F70F63F4D7001CA3F1B723000700D9B73F
:104C200093873198982319E394A36DBF7D1798A3B8
:104C300055BF83C631989387E19893952600F16616
:104C400093860636AE9692239442B2966364D7005A
:104C500096A349BF9AA379B783C631981387E19881
:104C600093952600F16693860636AE9612239442FB
:104C7000B305F64063E5D500158E12A3A5B71EA3B4
:104C800095B78280D38707F0FD15994763E7B71280
:104C9000EFB27F88F1679387C71A8A05BE959C415A
:104CA000411136848287EFE03FCF23A8A198050405
:104CB000A381819841016FB05F8883A50199EFE0DE
:104CC0003FCACDBF03C73198369693873198050701
:104CD0001377F70F6359C70098A39823E31C87FC49
:104CE000050480A3C1BF23800700C5BF83C73198D7
:104CF00005061387319899C31386F7FF1376F60FCD
:104D00006304C40010A37DB77D1400A365B783C7F7
:104D10003198530707F063F5F600FD1793F7F70F87
:104D2000F166938606378A07B6979C633AE6538501
:104D300007E03EE4EF2041072A8637D50100AE8622
:104D40001305C580EF304113938701999463A267DF
:104D50003267D3F7D7005387E7A019C39CE399BF05
:104D600098E389BF03C7319863F5E6007D17137791
:104D7000F70FF166938606370A07369714633EE607
:104D8000538506E036E4EF2021022A8637D501005C
:104D9000AE861305C580EF30210E13870199186385
:104DA000B267A2665376F708D387C6A089C7537740
:104DB000D70818E301B71CE3F5BD8280FD159947BC
:104DC00063E3B71EEFB28FF3F1679387871C8A0501
:104DD000BE959C41AA8482870144138941999149D7
:104DE0003385840042054181EFE07FA7B307890046
:104DF00088A30504E31634FFA38101986FB04FF335
:104E00000144138941999149B3078900338584008E
:104E10008C23420541810504EFE0DF9EE31634FF59
:104E2000F1BF03C73198B9469387319805071377C7
:104E3000F70F63EFE60098A398238D461376B70F1C
:104E40006305D600AD46E31BD7FA050798A37DB7E7
:104E500023800700D5B783C731981387319891CF46
:104E60009386F7FF93F6F60F93F5B60F0D4663881A
:104E7000C5002D466385C600B6871CA341B7F91748
:104E8000EDBF83C731987166094793854199130631
:104E90000636636FF7008A07B297B8319C43BA971A
:104EA0001307F00F6364F700BCB189BFFD57EDBF76
:104EB00019476361F702F11793962700B296B8215C
:104EC0009C42BA971307F00F6364F700BCA13DB78B
:104ED000FD57EDBF29476362F702E1178A07B297D2
:104EE00098319C43BA971307F00F6364F7009CB1A5
:104EF00031B77D57A38AE19811B7138747FF8D47D4
:104F00003367F70294210A0732971C431307F00F07
:104F1000B6976364F7009CA1D5B57D57238AE198C5
:104F2000F1BD83C73198716609479385419913068E
:104F30000636636EF7008A07B297B8319C43636503
:104F4000F7001D8FB8B15DBDA381050045BD1947B0
:104F50006360F702F11793962700B296B8219C423E
:104F60006365F7001D8FB8A151BD2381050079B598
:104F70002947636CF700E1178A07B29798319C4381
:104F8000E369F7F61D8F98B195BD138747FF8D47ED
:104F90003367F70294210A0732971C43E3EFF6F6D2
:104FA0009D8E94A1A1BD8280EFB2EFD62E841DE12B
:104FB0001385419AEF50E0749387419AB823943354
:104FC0009023B7D50100938545982285EF20917DE8
:104FD0006FB0AFD67D159D47E3ECA7FEF1679387D1
:104FE000471E0A053E951C418287A3810198CDB7D3
:104FF0001385419AEF50607EE1BF03C731989D460B
:105000009387319805071377F70F63EDE60098A3B0
:10501000982389466305D7009546E31BD7FA050711
:1050200098A37DB723800700E5B783C7319813871E
:10503000319881CFFD1793F7F70F89466389D70021
:1050400095466386D7001CA361B79D47EDBFFD174A
:10505000DDBF83C73198716605479386419A130671
:105060000636636DF7008A07B297B8229C43BA9759
:105070001307B0036365F706BCA299BF1147636EBF
:10508000F700F5178A07B29798329C43BA9713072F
:10509000B0036366F7069CB225BF1387A7FF894755
:1050A0003367F7028C220A0732971C435D47AE979D
:1050B0006364F7009CA229BF98A219BF83C73198E7
:1050C000716605479386419A13060636636EF700AC
:1050D0008A07B297B8229C436365F7001D8FB8A278
:1050E000C5BD23810600EDB51147636FF700F517C5
:1050F0008A07B29798329C436365F7001D8F98B278
:10510000C1BDA3800600E9B51387A7FF89473367B0
:10511000F7028C220A0732971C4363E5F5009D8D48
:105120008CA27DB52380060065B56D15931705012A
:10513000C183130750026368F70071651305052FDB
:105140003E950821828001458280EFB22FBB01117C
:10515000AA892E89328481C683C731989CA219C33B
:1051600085471CA34E853AC2EFF03FFC9387F9FFB9
:10517000C207C1839306C002AA8463E6F66AF16699
:105180008A0793864620B6979C4312478287938767
:10519000419AB82394339023B7D50100938545985D
:1051A0004A85EF20316005616FB08FB883C7819960
:1051B00013972700F16793874732BA9701AD83C7EA
:1051C00081990947638EE7000D476387E70295EFF2
:1051D000B7D50100938585844A85EF201161E1B739
:1051E0001145EFE0CFE7B7D501002A869385858585
:1051F0004A85EF20315B45BF1945EFE04FE6B7D553
:1052000001002A869385C586E5B7B7D50100938549
:105210000588D9B71384A19910201305A0030506AA
:1052200032C2EFE08FE01246B7D50100AA8693851F
:10523000858A4A85EF2011570820B75600209386AB
:10524000069D1386419A93858199EFE0EFF6A1BF01
:10525000EF10A045A14701461377150001C70506C9
:105260001376F60FFD17058193F7F70F1375F50FFA
:10527000E5F7B7D501009385458B9DBFEF10E04260
:1052800011E5B7C50100938545A1B9B783C621983B
:1052900083C791991387919989C6B356F540858A3A
:1052A00095E295468D45850793F7F70F63F3F50073
:1052B00081473356F540058A09E6FD1693F6F60F49
:1052C000FDF21CA31C2313972700F1679387073572
:1052D000EDB515C0A147630EF402B7D7010037D76B
:1052E000010083A707810327478189461146A285CC
:1052F000EFF05F994DBDEFE02FEAEF10F12AAE8697
:10530000B7D501002A869385C58B4A85EF20914940
:1053100059BD03A50199D5B7630F0416A147630CC6
:10532000F40081471307703E89462286A68505450D
:10533000EFF03F888DBD03D6E198B7D50100938586
:10534000458C7DB5EFD01F9FD30705F0B7D5010081
:105350009385C58C539607C061BD11C8A1476300F2
:10536000F402096781471307F7708D467DBFEFE0B0
:10537000CFCB2A86B7D501009385458D95BD03D641
:10538000E198CDBFEF102034B7D501002A86938570
:10539000C58DB9BDEF100035C5BFEF104038B7D58A
:1053A00001002A869385C58EA1B513050004EFE0A0
:1053B0000FCB11C5B7D501009385458F31BDB7D54A
:1053C00001009385858F09BD2808EF20F02E8348C2
:1053D000D1010348C1018347B1010347A1018346BD
:1053E000910103468101B7D501009385C58F4A8598
:1053F000EF20513B4DBBEF10802E8947630AF5002B
:10540000B7D50100938585824A85EF20B13961BB0C
:10541000B7D5010093858581C5BF01C8A147630940
:10542000F404A285EFF09F99BDBBEFE04FC32AC6FD
:105430001385140042054181EFE06FC22AC4138531
:10544000240042054181EFE08FC12AC21385340058
:1054500042054181EFE0AFC01247A2463246AA871B
:10546000B7D501009385C5904A85EF20B13325BBA0
:10547000138641993C32382214321022D5B719C80C
:10548000A147E30AF4EA81471307703E8D4622865E
:10549000E14571BD6145EFE04FB92A8679BD2545EB
:1054A000EFD05F89D30705F0B7D50100938505924A
:1054B000539617C04206418225BBCA852285EFF06C
:1054C000BFAED5B11DE0375500201305059DEF5047
:1054D000C026B75700209387079DB7D5010098379E
:1054E000D44390279385858365B97D149D47E3EC6C
:1054F00087CAF1679387872B0A043E941C408287F2
:10550000A38101984DB1375500201305059DEF503B
:10551000403151B903C731989D46938731980507AB
:105520001377F70F63EDE60098A398238946630588
:10553000D7009546E319D7C6050798A3ADB12380D8
:105540000700E5B783C731981387319891CBFD17D2
:1055500093F7F70F89466387D70095466384D70092
:105560001CA391B1FD17EDBF83C73198B75600203A
:10557000716605479386069D13060636636DF70030
:105580008A07B29798369C43BA971307300663662A
:10559000F7069CB609B91147636DF700F5178A073E
:1055A000B297D8429C43BA9731476367F706DCC28B
:1055B000DDBE1387A7FF89473367F7028C260A07EA
:1055C00032971C437D47AE976364F7009CA6E1BE0B
:1055D00098A6D1BE83C73198B7560020716685451D
:1055E0009386069D1306063663EDF5008A07B2978B
:1055F00098369C4363F5E7001D8F98B66DB68CB660
:105600005DB61147636EF700F5178A07B297D84267
:105610009C4363F5E7001D8FD8C271B6CCC261B65A
:105620001387A7FF89473367F70288260A0732974F
:105630001C4363F5A7001D8D88A6B5B68CA6A5B63C
:105640000DC4A147E309F4CEB1476393F9021545B0
:10565000EFE0EFA07D151317050141839307400686
:1056600089462286A6850145E1B1EFE04F9F35B519
:10567000B5476393F9021D45EFE06F9E7D15131743
:105680000501418311453AC2EFE06F9D050593176F
:105690000501C1831247E9B7BD476393F902154578
:1056A000EFE0EF9B050593170501C18319453EC245
:1056B000EFE0EF9A7D1513170501418392474DB72F
:1056C0001D45EFE0CF99050593170501C183130729
:1056D000F00F79B71305A003EFE02F952A8651BE8E
:1056E0008D476308F40263E6870019C8A38D01980B
:1056F0005DBC9947630FF400A147E304F4B8FDB71C
:1057000083C7C197E38F07B6B7D50100938585920C
:10571000E1B4EFD09FBFA38D0198238E019661B4B1
:105720008D476301F40263EC870069F083C7C1977A
:10573000E38907B4B7D501009385459371BC9947B8
:10574000E31CF4FA81451305C003EFD07FFD8145CA
:105750001305A003EFD0DFFC7DBF01C8A14763099B
:10576000F400854713074006E5BDEFE04F8FBDB756
:1057700003D6E198FDBC2300070029C0A147631AA6
:10578000F40083D7E19813972700F1679387873157
:105790002DB4814709478146E9B52300070019CC9C
:1057A000A147E300F4FE0D45EFE06F8BE31D059E7E
:1057B0008547094781462286A6859DBE2685EFE05E
:1057C0000F8AF1670A0593878731AA978C4329B41A
:1057D000EF00D0102AC2EF00900F1246B7D501009B
:1057E000AA869385C5954A85EF20C17B6DBA2300B3
:1057F000070011C8A1476300F40281471947814699
:105800002286DD458DB55D45EFE06F85F1670A05C0
:10581000938747335DBF83D7E19813972700F167DC
:105820009387473359BAE3000998B7D501009385A8
:1058300005985DB281471387819889451546B3065F
:10584000F70088226311B504EFA2FFCC0D4798A2A0
:1058500083C6C199514637070020B386C602130795
:10586000070992070D468145369758438146BA97F6
:10587000CA2701472392A198EFF03F8D0547238E59
:10588000E1966FA09FCB8507E39BC7FA0547238E60
:10589000E19682808147138781988D451546B3062E
:1058A000F70003C80600631FB802EFA2DFC609476E
:1058B00098A283C6C199D14537070020B386B602A6
:1058C0001307070992072A86814536975843814670
:1058D000BA97CA270147EFF05F870947A38DE19880
:1058E0006FA0BFC58507E39CC7FA0947A38DE19860
:1058F0008280EFA25FBF9389019A03A509005D71C1
:10590000B7040020EF60703A1384C19993840409AE
:1059100029C103A5090013890198014693850198BF
:10592000EF60502285476316F5020347190093077D
:1059300000086310F7029387B1999423094763889D
:10594000E6068D47638CF60E89E603450900EFF005
:10595000AF961C205147B387E70213898198854A87
:10596000130B0008BE94C040B754002013858487F1
:10597000EFA01FD8930B04055C4063805713638628
:1059800007100947638BE7141C2089E741040509C8
:10599000E3948BFE138721981C23A946850793F770
:1059A000F70F63ECF6241CA361616FA09FB7034758
:1059B00009000D466300C7066369E600E31BD7F8DC
:1059C00083C7C197ADC7014589A891466308D7022F
:1059D0009546E310D7F81387C197142381C6230097
:1059E000070085BF182023800700D147B307F702BF
:1059F000A697A82BEFF00F8A08A0A1BF1387C19725
:105A0000142389E608A3EFE0FFFFA1B790A3EFF00E
:105A10007FE281B783C7C19781C7EFE05FF815BF09
:105A20001C205147B387E702A697C827E1B71C207F
:105A30005147B387E702A697E8276DBF8347090060
:105A40001547E368F7F071678A071307872DBA9740
:105A50009C4382871545EFF0FFE3E5BD1945E5BF9F
:105A600001478146094603D541988145EFF0EFEDA6
:105A7000CDB5014781460546FDB7014781461D4624
:105A8000DDB7014781461146F9BF144430200C3080
:105A900013858487EFB04FA4C5BD83492400144407
:105AA0000C304E8613858487EFB00FA34A249306EB
:105AB000A10101461307B1016C08EFF00FE96C0872
:105AC00013858487EFB08FAA9375F50FB305BB409C
:105AD000C20574084E86C18165BF034A2400144480
