:100000006F201025130000001300000013000000F3
:100010001300000013000000130000001300000094
:100020001300000013000000130000001300000084
:08003000130000007300100032
:1000380000000000000000005A1B00005E1B0000CA
:1000480000000000962900000000000000000000E9
:10005800982900009A290000000000000000000014
:10006800DC5C00000000000000020000000000004E
:10007800A0290000A2290000A4290000A629000048
:10008800A8290000AA290000AC290000AE29000018
:10009800B0290000B2290000B429000078520000FD
:1000A80046530000BA29000014540000E25400002E
:1000B800C0290000C2290000D84E0000C62900004F
:1000C800C8290000CA290000CC290000E41B000050
:1000D800D0290000D2290000D4290000D629000028
:1000E800441D0000DA290000DC290000DE29000098
:1000F800E0290000E2290000E4290000E6290000C8
:10010800E8290000EA290000EC290000EE29000097
:10011800F0290000F2290000F4290000F629000067
:100128000E580000FA290000FC290000FE290000F2
:10013800002A0000022A0000042A0000062A000003
:10014800082A00000A2A00000C2A00000E2A0000D3
:10015800102A0000122A0000142A0000162A0000A3
:10016800182A0000B81C00001C2A00001E2A0000E3
:10017800202A0000222A0000242A0000262A000043
:10018800282A00002A2A00002C2A00002E2A000013
:10019800302A0000322A0000342A0000362A0000E3
:1001A800382A00003A2A00003C2A00003E2A0000B3
:1001B800402A0000422A0000442A0000462A000083
:1001C800482A00004A2A00004C2A00004E2A000053
:1001D8000000000000000000000000000000000017
:1001E8000000000000000000000000000000000007
:0801F8000000000000000000FF
:10020000130181F806C216C41AC61EC822CA26CC1B
:100210002ACE2ED032D236D43AD63ED842DA46DC76
:100220004ADECEC0D2C2D6C4DAC6DEC8E2CAE6CC46
:10023000EACEEED0F2D2F6D4FAD6FED8F3220030CF
:1002400096DA83A2019923A02200F32510342EC050
:100250009305000273A0458003A1C187EF60F048B9
:1002600003A3019903210300824273901234D652F2
:10027000739002309240A2423243C2435244E2445D
:10028000724582551256A2563257C2575258E258FA
:1002900072598649164AA64A364BC64B564CE64C0E
:1002A000764D865D165EA65E365FC65F13018107DA
:1002B0007300203013000000130000001300000042
:1002C00013000000130000001300000013000000E2
:1002D00013000000130000001300000013000000D2
:1002E00013000000130000001300000013000000C2
:1002F00013000000130000001300000013000000B2
:1003000083A2C187938202E07390023403A1019912
:10031000024182403243C2435244E2447245825514
:100320001256A2563257C2575258E258725986494D
:10033000164AA64A364BC64B564CE64C764D865D61
:10034000165EA65E365FC65FD652A102739002307B
:10035000A2421301810782801300000013000000F5
:100360001300000013000000130000001300000041
:100370001300000013000000130000001300000031
:100380001300000013000000130000001300000021
:100390001300000013000000130000001300000011
:1003A0001300000013000000130000001300000001
:1003B00013000000130000001300000013000000F1
:1003C00013000000130000001300000013000000E1
:1003D00013000000130000001300000013000000D1
:1003E00013000000130000001300000013000000C1
:1003F00013000000130000001300000013000000B1
:10040000F322003093F272FF130380781203B3E2F9
:100410006200711523205500130585FA10C12115BE
:10042000232005009302000063870200711523203A
:100430000500FD12D5BF71150CC1828000000000BF
:1004400000000000000000000000000000000000AC
:10045000000000000000000000000000000000009C
:10046000000000000000000000000000000000008C
:10047000000000000000000000000000000000007C
:10048000000000000000000000000000000000006C
:10049000000000000000000000000000000000005C
:1004A000000000000000000000000000000000004C
:1004B000000000000000000000000000000000003C
:1004C000000000000000000000000000000000002C
:1004D000000000000000000000000000000000001C
:1004E000000000000000397101436EC619A0397187
:1004F00041536AC866CA62CC5ECE19A039710153F5
:100500005AD056D252D44ED64AD826DA22DC06DE4B
:1005100033016140828241114AC026C222C406C60C
:100520008282B24D4101024D924C224CB24B4101AC
:10053000024B924A224AB249410102499244224462
:10054000B240410182803D432A876373C30293779F
:10055000F700BDEFADE5937606FF3D8ABA960CC372
:100560004CC30CC74CC74107E36BD7FE11E2828036
:10057000B306C3408A069702000096966780A600DD
:100580002307B700A306B7002306B700A305B700EB
:100590002305B700A304B7002304B700A303B700E3
:1005A0002303B700A302B7002302B700A301B700DB
:1005B0002301B700A300B7002300B700828093F5A2
:1005C000F50F93968500D58D93960501D58D61B76E
:1005D000939627009702000096968682E78086FA17
:1005E0009680C1171D8F3E96E374C3F8A5B7B70771
:1005F00000202382072405458280B7070020054795
:100600002382E724B707002023A0A7240545828082
:10061000B7070020938747240387070009CB3707D4
:100620000020032707242380070018C105473A85C7
:100630008280EFF25FEE08218545EF80F0317D5733
:100640002386E180DDBDEFF21FED411185450545B3
:1006500002C202C423160100EF20D07983A7C18211
:1006600037470F0013070724B3D7E7024C003705BD
:100670000040231501007C8489679387F7703EC290
:10068000EF30C00A0546854537050040EF30603C35
:10069000854537050040EF30403A85453705004035
:1006A000EF30C043B7E700E0056723A2E710410140
:1006B00069B5EFF2BFE43704002041111305C424EB
:1006C000EF3060593725010013050504EF00F13ABA
:1006D0008144130AC424B72901001949B3079A00B9
:1006E0008C231385C9048504EF003139E39824FF76
:1006F0002945EF00913C813FB70500209306C424B3
:10070000138681809385851913854180EF40C0242D
:100710002A84EF10101919E4372501001305050587
:10072000EF00F1499567938707E23EC2916793878F
:1007300087A93EC44800A5473EC6EF70F073EF108E
:10074000F0151841B707002023AEE7244101CDB3CF
:10075000EFF2DFDA0111C88793F745002E84A9C7AD
:100760009379F50F1307C0033387E902B7C7002059
:10077000938787F0BA97D44798473697D44B9C4FC6
:100780003386F6006374C700B307D740B704002070
:10079000938484258E203ECE13076010AE97637934
:1007A000F7081305F100713593778400A1CB93848A
:1007B000C18098209307F00F6312F704888785455E
:1007C000EF80807E88870566130686B6B305C5026E
:1007D000B707002093870742BE95EF80E0259C87EE
:1007E00037250100130585FF9CA0EF00513D8C20AB
:1007F0003725010013050501EF0031289377040127
:1008000091CB372501007D57130505022386E18032
:10081000EF00F13A1374040411C8372501007D5725
:10082000130505032386E180EF007139056109B3E3
:1008300037290020130909AF7008CA954E85EF804B
:10084000C0249E2072473E97420741839AA0994751
:10085000E3FCE7F48356490093978600A182D58F85
:10086000C207C18393865700E3D0E6F49907E31AE1
:10087000F7F205455933B704002003A5C4257D5779
:10088000854605468545EF50C05E37060020B725F2
:10089000002013068624938585BF4E85EF80205463
:1008A0002A899384C425EF10C07F630809004A8514
:1008B000EF10207F1305F100AD3B88408945EF50D4
:1008C000E070DDB5EFF23FC5EF80806993771500EA
:1008D0002A8499C737250100130585FBEF00312EC7
:1008E0009377240099C7372501001305C5FCEF0055
:1008F000112D9377440099CBEF80606A118919C557
:1009000037250100130545FEEF00712B418819CCF6
:100910000145EF802066AA8519C10145153D0545B1
:10092000EF804065AA8519C105451D3539B1EFF243
:100930009FBE39711304601F11C12A841306C003BE
:1009400081454800093122D68D471384D1804C005F
:100950001385D1803ED0EF70706C814409ED082082
:10096000EF80C0692A89EF10C0736309090008206D
:100970008945EF80607E26852161C1B6372501005B
:1009800013058506EF00710F0C20372501001305B4
:100990000501EF00910E8544F9BFEFF2DFB7138533
:1009A000D180413959BEB7270020938707AF1CC1BA
:1009B000B7070020938787259A23054523900700D2
:1009C0009AA18280EFF23FB5B72700202E862E84B1
:1009D000AA85138587BF938487BFEF004112B707AD
:1009E000002023A48724370400201304C4250840D2
:1009F000B7070020854523AA9724EF50205D0840C3
:100A00007D57854605468945EF50A046054535B6D4
:100A1000EFF27FB0293F19E10D4505B60145F5BF5D
:100A20008280EFF25FAF953F09BEEFF2DFAE0111BA
:100A30002A84AE8468089305A10132C6AD370DC97A
:100A4000724715453C333423A207D58F9396870010
:100A5000A183D58FC207C18391EBBC8532461D07A8
:100A600098C0E5171EA2FD571CA001450561F1B411
:100A70001545EDBFEFF23FAA9307160013D7874045
:100A80001D06238FF5FE2E85A38EE5FE9315060128
:100A9000C1816515053F954711C181473E8571BCF0
:100AA000962115476397E608582130319306E07C7C
:100AB0002207518F131687002183598E42064182E7
:100AC0001307F6FF42074183AA870D4563E5E60653
:100AD000EFF27FA4B8239433239005002207558FAB
:100AE000854694A396219354360093F4F40F85061B
:100AF00096A19376760081C6850493F4F40F84B3AF
:100B000096212E8413852700850696A193158700CC
:100B100021834D8F93051700C2058146C181EF10D7
:100B2000A07C19C1112B11BC1E200145BE9406A04A
:100B3000DDBF0D45828082809A2195476311F706BB
:100B400058218D4731EF38311306D00F9306F7FF48
:100B500093F6F60F6376D604EFF2FF9B3C210C313F
:100B60004111A207CD8F93958700A183CD8F9385E7
:100B70001700130717F0C2051337170085460546FF
:100B8000C1816800A30601005886EF10E075814717
:100B900019C15D21AA873E8541016FF01F9A8D47DB
:100BA0003E85828096211547637FD70658213031D4
:100BB000AA872207518F131687002183598E420678
:100BC000418213573600937676001377F70F81C66C
:100BD00005071377F70F9306F6FFC206C1821308C5
:100BE000F07A0D456363D804D4336390E604EFF2E2
:100BF0009F92B8232E848C332207138567004D8F74
:100C0000931687002183558F0507931507018546A5
:100C1000C181EF10606D01C505216FF01F929547EE
:100C20001EA00145DDBF0D458280828096211547BB
:100C30006397E608582130319306E07C2207518FF4
:100C4000131687002183598E420641821307F6FF4F
:100C500042074183AA870D4563E5E606EFF2BF8BA5
:100C6000B8239433239005002207558F894694A317
:100C700096219354360093F4F40F850696A193764B
:100C8000760081C6850493F4F40F84B396212E84F4
:100C900013852700850696A19315870021834D8F24
:100CA00093051700C205C181EF10607201C5692666
:100CB0006FF0BF881E200145BE9406A0D5BF0D452C
:100CC000828082809A219547631CF702EFF2BF84ED
:100CD0003C210C318546A207CD8F93958700A183D7
:100CE000CD8F93851700C2050546C1810D05EF1014
:100CF000204F814719C18926AA873E856FF0FF835F
:100D00008D473E858280EFF21F819A21954463F7DB
:100D1000E40658213031930670072207518F1316CD
:100D200087002183518F1316070141821307F6FFB5
:100D300042074183AA870D4563EDE602D4331317BA
:100D400016001377F70F6396E602B8232E848C33D0
:100D50002207138567004D8F931687002183558FD7
:100D60000507931507018546C181EF10604701C54E
:100D7000E1246FF08FFC06A00145E5BF0D45D5BF0E
:100D800096211547639AE606EFF2EFF85421130611
:100D9000C007AA8793940601C1801387F4FF420716
:100DA00041830D456362E6042E84B8238C332310FF
:100DB000040088A3122086062207050612A04D8F84
:100DC00094B393158700162021834D8F9305170048
:100DD0008506C20516A026868146C1811385270097
:100DE000EF10004001C5892C6FF02FF51E208604FE
:100DF0000145BE9406A0CDBF0D4582809A21A5472E
:100E000063F2E70EEFF28FEF5C2138312A84A207FC
:100E1000D98F93998700A183B3E7F90093990701CC
:100E200093D909019387F9FFC207C1831307C0074C
:100E30000D456367F70A1C24703013078007A2076B
:100E4000D18F13968700A183D18F1396070141821A
:100E50009307F6FFC207C1836364F708183493173A
:100E60001600639FE70624202E890C30A2047C2004
:100E7000CD8C4C30A2078546CD8F93958700A183FA
:100E8000CD8F93851700C205C1811305A400EF1013
:100E9000203539E923100900DD471CA083570900DC
:100EA000139A19009395840085072310F900A30075
:100EB000440183570900A180CD8C938514008507D8
:100EC000C2052310F90081464E86C1811305240016
:100ED000EF10003111E9835709003E9A23104901B0
:100EE0006FF00FE501458280812ADDBF962115470D
:100EF0006390E608582130319306B0072207518FDE
:100F0000131687002183518F13160701418213079F
:100F1000F6FF42074183AA870D4563EDE604EFF231
:100F20008FDF2E843E858C331147BC2323100400B1
:100F300018A11A20A2079314160005071AA004B1DD
:100F4000CD8F939587001A20A183CD8F93851700AD
:100F50000507C2051AA0C1810905EF10202601C5A9
:100F6000E1286FF08FDD1E200145BE9406A0D5BF9D
:100F70000D4582808280EFF20FDAB707002003D49C
:100F80000726AE84B72500202286938505D0050567
:100F9000EFF0F036050482A001456FF00FDAA147AB
:100FA00063F3C702EFF22FD7B72601004966372552
:100FB00001009386060913060608930580031305AE
:100FC000050AEFF0502D13D73500930717003308AB
:100FD000E5003E958547B397C700FD17C2070E078A
:100FE0003387E540C183B397E70018210346080023
:100FF00093C7F7FF2207518F9D89F98FB396B600EB
:10100000DD8EC206C1862300D800C206C182A1823D
:1010100014A1828093D735003E951C3108219D890B
:10102000A207C98F05453315C500B3D7B7407D1555
:101030007D8D1375F50F82809D4763E7A700938729
:101040004186AA978823828011458280EFF2AFCC37
:10105000EFF01F9C2A8419C5054723A8E18022854B
:101060006FF0AFCDEFF0AFD829C9B7170000370741
:101070000020938707A2232AF726B7170000370717
:101080000020938727A2232CF726B71700003707E5
:1010900000209387A7A22324F726B717000037075D
:1010A0000020938747A72326F726B707002023A809
:1010B00007267D57238AE18045B70D444DB7EFF2EF
:1010C0008FC513840181184085471945631AF700BD
:1010D000B707002083A747278297014523200400F4
:1010E0006FF0AFC5EFF22FC383A7018141111944FF
:1010F000639B070E6800EFF0AFD10547AA87630432
:10110000E5000144CDA032476301A70A8946E31AEE
:10111000D7FE3704002003250428B7060020B704B3
:1011200000200C213707002023A2F4261306070015
:10113000238EB6268147130404281389C627938477
:101140004426130707004148142281CE6391D50A33
:101150008E07BA97DC43B7050020938565288297F0
:1011600088C0B707002083C74728C1DF9440B7076E
:1011700000209387672885C20347090010408545F2
:101180008EA3136707F818A2922318409305160040
:101190008EA3329714A39223370700200327C72674
:1011A0000C4003C541810297A9BFB707002083A760
:1011B00087263705002037060020B7050020930456
:1011C0004528130666289385052813054528829728
:1011D0002A8405F99C2003C741816303F70095F336
:1011E0000945EFF08FC1228541016FF00FB58507EA
:1011F0002106E39B07F5B5B7930740063345F50293
:10120000A9474205418163E8A706C9679387070C90
:101210000A053E951C4182872380050093076004E0
:101220001CA2828089479CA193078002D5BF914769
:101230009CA1E547F5B795479CA1D147D5B79D47F8
:101240009CA1BD47F1BFA1479CA1A947D1BFAD4714
:101250009CA1A147F1B7B1479CA19D47D1B7B94720
:101260009CA1994775BFBD479CA1954755BFC147F4
:101270009CA1914775B7D147E5BFEFF2CFA979712E
:10128000BD47AA842E84368593056100130671003C
:101290005C83DC8395379C83034E61009308C05DBB
:1012A00093960701C182B388F840139827001397DB
:1012B00016008608B30EC0411393260081470145EE
:1012C0008145054FD14F634A170105476369F70A06
:1012D00081471EA045616FF04FA693161700A69692
:1012E0000396060063DBCE046359C605B3060741C7
:1012F0008606A6968396060063C5C604B306E80074
:101300008606A69683960600634DD60211C19DCD32
:1013100081459386170010188607B2971356170059
:101320001A974207050593F6F60F239CC7FC4183E5
:101330001375F50F63EDDF00B68709074207418398
:1013400059B719C16384E5018545E1B79546300079
:10135000054781472E220A2205071377F70F898D4B
:10136000AE97C207C1830906E366D7FEFD16B3C771
:10137000D702C207C1838607C207C18399BFBE8651
:10138000F9B7EFF24F99B386C502AA880147014524
:101390000148634FD7002E868146C285EFD0E051C9
:1013A000EFF0202EEF60007BEFF0E0506FF0EF9851
:1013B00093171700C6978397070032974207B387A2
:1013C000F702418313DEF741AA9733B3A70072985F
:1013D0003E851A987DBF856793870777AA971A215C
:1013E00036211105158F231EE5FEE39AA7FE8280A4
:1013F0000566814701478146130686BB139817008F
:101400002A98031808009398070193D8080163D419
:1014100006014687C2868907E392C7FE05839AA123
:1014200036858280EFF28F8D370900201309D92885
:10143000034409009D47B70400203304F402938954
:10144000C42883C7090005453E94EF30D027931583
:101450000501C1850545EF30303A1374F40FB737F5
:101460000020060493870749834609003E940AA09A
:101470000947637FD7023705002003250529138418
:1014800001900147938701908546094681452300D5
:1014900009002380090023200400EF60C0061C40DF
:1014A00091C7B7E700E0116723A0E7206FF04F88EE
:1014B0009387C4289823194605071377F70F6366A7
:1014C000E60298A3982393878181BA978C233734B7
:1014D00001401305048085460546EF10C069854527
:1014E00013050480EF10A067D1B78506238007009D
:1014F0002300D900C1BFEFF20F820945EF40204021
:10150000B707002083A6C70F416779179C423705AC
:10151000002003250529F98F9CC2B70700201384FA
:10152000472901479387472985461146814523204E
:101530000400EF50507D1C4091C7B7E700E01167F1
:1015400023A0E7206FE07FFF370500201305052962
:101550008280A54763EDA712EFE2FFFBC96793877F
:10156000C70E0A053E951C418287B737002003A5A8
:10157000C74BEFF08029B727010003A6071383A606
:10158000471315A8B737002003A5074CDDB7B737B9
:10159000002003A5474CEFF04027B727010003A622
:1015A000071383A64713EFE06044B727010003A6A3
:1015B000871383A6C713EFE06043EFF0C02F6FE0FF
:1015C000DFF7B737002003A5874CEFF00024B727DB
:1015D000010003A6071383A64713EFE02041B727B6
:1015E000010003A6071483A64714F1B7B7370020FC
:1015F00003A5C74CD9BFB737002003A5074DF1B7E6
:10160000B737002003A5474DADB737370020130784
:10161000874D5C27343737240100A207D58F1397F5
:101620008700A183D98F1395070113970701418183
:1016300063540700E1773E95EFE0507E0326841463
:101640008326C4148DBFB73700209387874D80272A
:101650008837B704800042042205498CA827498CAA
:10166000B377940089CFEF00F029058C537715D01C
:10167000D37704D0D3F7E718538507E089B7EF0095
:101680007028EDB7B707002003A587280DBF82801B
:10169000EFE27FE81D71EF308037A9450145EF305B
:1016A0002038370400202946930504080145EF300F
:1016B0004045A9450545EF30A03629469305040865
:1016C0000545EF300044A9450945EF30603529460E
:1016D000930504080945EF30C042854537054000B1
:1016E000EF105071854537052000EF10B07085452B
:1016F00037054000EF10F071814537054000EF10CD
:101700005071854537052000EF10B07081453705D1
:101710002000EF101070F567B75400409387074C16
:101720001307004002DA02DC02DE3ED80C18916793
:1017300013850440231DE102231BF102231EF10245
:1017400037640040EF1090320C1813050480EF103E
:10175000F031138504408545EF1070401305048077
:101760008545EF10D03FB7B51D00654693859515AB
:101770000945EF40C01F930500020945EF4060078F
:1017800093070010B706080070108945014523161D
:10179000F102EF30900993070002BEC8B72701405D
:1017A0009387C744BECAB7270020938707D2BECC11
:1017B0008547BEC68567938787BB231EF1048C00CF
:1017C0008567130600020A85BEC482C082C2EFF09C
:1017D0000033B71600000A859386664F014685459B
:1017E000EF30D01AB707002003A7C70F8146054680
:1017F0001C43B7050E00054593E717001CC33717B8
:10180000000013074742EF30700C83C581813735E4
:1018100001409D46054613050580EF10C03505457E
:10182000EF10E04025616FE05FD1EFE23FCD2A8409
:10183000AE893289B70502002285EF10F03B7DF9B1
:1018400037650040854513050580B7040300EF1098
:1018500090328504A6852285EF10B03865DD0146FB
:101860009305A00D2285B7040700EF10703693840E
:101870002408A6852285EF10D03665DDCE85228529
:10188000B7040700EF10103493844408A68522851E
:10189000EF10303565DDB70500109385050822850A
:1018A000EF10903509C5CA852285EF10B031B70415
:1018B000070093844408A6852285EF10903265DDE9
:1018C00085452285EF10D02C6FE09FC6EFE2BFC4A4
:1018D0002A842E89B70502002285EF10F0317DF9A8
:1018E00085452285B7040300EF10F0288504A685FE
:1018F0002285EF10102F65DD01469305A00D22858E
:10190000B7040700EF10D02C93842408A685228505
:10191000EF10302D65DDCA852285B7040700EF1072
:10192000702A93844408A6852285EF10902B65DDEC
:1019300085452285B7040300EF10F0238504A685B2
:101940002285EF10102A65DD05469305A00D22853E
:10195000B7040300EF10D0278904A6852285EF1075
:10196000502865DDB704001093840404A685228501
:10197000EF10902801CD2285EF101025AA8485450F
:101980002285EF10F02026856FE03FBB8145228540
:10199000EF10B021E1BFEFE29FB541119307B05DB9
:1019A0007C85B727010003A4871183A4C7112314E2
:1019B00001000149B73A0020373B0020138A018219
:1019C000B7290020894B0D4C2945EF50E04B6302AD
:1019D000790563028903631E090037350140854597
:1019E00013050580EF10A0170945EF30305F0D4952
:1019F000D1BF0549D1BF1305803EEF50E0483765A0
:101A000000406D469305000313050580393D0949E3
:101A100055BF7D577400194681450145EF50D022CE
:101A2000B247918BDDCF37250100056C13050512F8
:101A3000938B09D2130C0C77EFF070185E9C839592
:101A40000B000145890BEF30205B239FABFEE318B1
:101A50007CFF138509D2EFF01F9893056100138571
:101A600009D2EFF0FF98AA869305A10009461385D5
:101A700009D2EFF09F802C851307905D9387F5FFC7
:101A8000C207C1836360F7040946138509D2EFF0EA
:101A90005F8FD30705F02C00B70B0020539517C0BC
:101AA00042054181EF20B073D37715D0538507E00D
:101AB000EFE0B0552286A686EFD05073EFE0B05F1E
:101AC00023A4AB28B707002083A7C70F0567130718
:101AD00087BBD8C3984309451367170098C3EF30F5
:101AE000F04FB247898BE38F07EC13870A499306BF
:101AF000CB4B1306E7008D456A271E230907910685
:101B0000AA972A2FAA97B3D7B702C207C183D3F7E0
:101B100017D027AEF6FEE311E6FEB73B0020B76C08
:101B20000040938B8B4D014C938C0C80214DB3075F
:101B30008A018C236685050C513B2384AB00054547
:101B4000EF508034850BE314ACFF373501408545F9
:101B500013050580EF10A000B5B5730020303725C0
:101B6000010019711305051582FE86FC8AFA8EF8AC
:101B700092F696F49AF29EF0A2EEA6ECAAEAAEE8ED
:101B8000B2E6B6E4BAE2BEE042FE46FC4AFA4EF8DD
:101B900052F656F45AF25EF062EE66EC6AEA6EE8CD
:101BA00072E676E47AE27EE0EFF07001EF50707951
:101BB000AA853725010013054516EFF0006CEF509C
:101BC000B078AA853725010013054517EFF0E06AC4
:101BD000EF50F077AA853725010013054518EFF07F
:101BE000C06901A0317106DF16DD1ADB1ED92AD7C4
:101BF0002ED532D336D13ACF3ECD42CB46C972C76D
:101C000076C57AC37EC182FE86FC8AFA8EF892F689
:101C100096F49AF29EF0A2EEA6ECAAEAAEE8B2E63C
:101C2000B6E4BAE2BEE042FE46FC4AFA4EF852F68C
:101C300056F45AF25EF062EE66EC6AEA6EE872E61C
:101C400076E47AE27EE0EF20006113050008EF10F1
:101C50004047FA50EA525A53CA533A55AA551A56AF
:101C60008A567A47EA475A48CA483A4EAA4E1A4F05
:101C70008A4F7670E6705671C6713672A672167308
:101C800086737664E6645665C6653666A66616672C
:101C900086677278E2785279C279327AA27A127BB8
:101CA000827B726CE26C526DC26D326EA26E126FEC
:101CB000826F296173002030197182FE86FC8AFAD6
:101CC0008EF892F696F49AF29EF0A2EEA6ECAAEAAC
:101CD000AEE8B2E6B6E4BAE2BEE042FE46FC4AFA3C
:101CE0004EF852F656F45AF25EF062EE66EC6AEA8C
:101CF0006EE872E676E47AE27EE0EF20F034767009
:101D0000E6705671C6713672A67216738673766463
:101D1000E6645665C6653666A66616678667727897
:101D2000E2785279C279327AA27A127B827B726C23
:101D3000E26C526DC26D326EA26E126F826F0961DB
:101D4000730020301971294582FE86FC8AFA8EF8CC
:101D500092F696F49AF29EF0A2EEA6ECAAEAAEE80B
:101D6000B2E6B6E4BAE2BEE042FE46FC4AFA4EF8FB
:101D700052F656F45AF25EF062EE66EC6AEA6EE8EB
:101D800072E676E47AE27EE0EF10F06E8545370584
:101D90000040EF10B0547670E6705671C67136721E
:101DA000A672167386737664E6645665C6653666F3
:101DB000A666166786677278E2785279C279327AB7
:101DC000A27A127B827B726CE26C526DC26D326EB3
:101DD000A26E126F826F096173002030914763E039
:101DE000A704EFE24FF3C967938747190A053E95A9
:101DF0001C41828785659385058037250140130541
:101E00000580EF30D00C1375F50F6FE00FF385658B
:101E1000EDB78965DDB79165CDB7A165F9BF01451E
:101E20008280954763E5A704EFE2EFEEC9679387E9
:101E3000871A0A053E951C41828737150140930594
:101E40000010130505C0EF3090086FE00FEF9145CB
:101E50003725014013050580FDB7A145D5BFC14514
:101E6000C5BF93050002EDB793050004D5B7014542
:101E70008280EFE24FEA85476309F50211C5894781
:101E8000630AF5026FE06FEB89E9A1453715014060
:101E9000130505C0EF305004F5B7A14537150140D3
:101EA000130505C0EF309003F1BF99E1C145F9BFBB
:101EB000C145EDB781E593050002C9BF9305000256
:101EC000F1BFEFE24FE57971A9473ED23ED0B72787
:101ED00000009387C7DD4C0801453ED602CCEF20B9
:101EE000D0514C080545EF2050514C080945EF20D2
:101EF000D0504C080D45EF2050504C081145EF20B4
:101F0000D04FB7270000938727E72C0001453EC834
:101F100002C6EF2090462C000545EF2010462C000D
:101F20000945EF20904545616FE02FE1EFE2AFDE1C
:101F3000011199475C84938741903EC89387C19073
:101F40003EC6B7070203D1073ECA8547230CF100FE
:101F5000B7270000938727E228003ECEEF20105FCE
:101F600005616FE08FDDEFE20FDBC937EF20705DB9
:101F7000EF409071EF205062EF20504BC5BFEFE271
:101F80008FD9411137140140EF308075130504C01B
:101F90008D45EF30806E130504808D45EF30E06D88
:101FA0009305000337150140EF30206D13050480C1
:101FB0009305400CEF30606C130504C0F1460146F8
:101FC0009305000CEF30606D8564938504C01305A4
:101FD00004C0F1460146EF30406CE146014613056E
:101FE00004C0A965EF30606B91677C824C00930759
:101FF0008004130504C03EC623130100231401000E
:1020000023150100EF10800C130504C08565EF3027
:10201000C065370613808D65E1464106130504400F
:10202000938505A0EF306067130504C09305800316
:10203000EF30A063938504C037150140EF30E062B4
:1020400037240140130504809305C010EF30E0638E
:10205000C1651305048093850580EF3000638545D5
:102060001165EF102059EFF0AFE295659D4613061C
:10207000803E938505E22145EF3070131306401F23
:102080009D452145EF30D0202145EF30F0282145F6
:10209000EF30C0743D3541016FE02FCA1385419187
:1020A000828001CDEFE22FC7AA85372501001305F5
:1020B000051CEFF0801C6FE04FC88280EFE2AFC5D7
:1020C0000945EF108036E921EF5070127165130554
:1020D0000520EF50F01A83A5C182372501001305B2
:1020E000051DEFF080196D2D37240100612D7D2332
:1020F000EFE02FDC6935EF4090221305041EEFF06E
:10210000002CE5BF03D581828280391542054181CB
:102110009D4763E4A70AEFE20FC0C9679387871F53
:102120000A053E951C418287B737002083A50751D9
:102130000145EF209013D30705F02946539517C0AA
:10214000420541813306C502854515A0B7370020F9
:1021500083A547510545EF205011D30705F02946C7
:102160008945539517C0420541813306C502214573
:10217000EF3010122145EF30301A0DA8B73700208C
:1021800083A587510945EF20500ED30705F0294656
:102190009145539517C0420541813306C502C1BF21
:1021A000B737002003D7C7502394E1826FE0EFB820
:1021B000B737002003D6E75041BF828089C5B2956A
:1021C000AD4763DCB700054582807D16230005001E
:1021D00042060905A30F05FE418265FA014582808A
:1021E00063820510EFE28FB1B387C5001307900239
:1021F0002A892E84B28905456345F70CA9CA05478B
:1022000001456390E60CB73400201385F5FF139762
:1022100015009384844E420513940701BA944181BA
:10222000418093091500C20993D909018904638982
:102230008908834709000909A207239EF4FE034782
:10224000F9FFD98F239EF4FEC9354E85D9BFB73427
:102250000020938A844E014A9384844E254B5285F4
:10226000EFF02FAFB7270100D30705F087A687232C
:10227000050A910A53F7D710531517C0537715D095
:102280005377D71827AEEAFEE31B6AFD2545EFF02A
:102290004FACB7270100D30705F087A6872383D764
:1022A000818253F7D7100604DEB02694531517C069
:1022B000D37715D0D3F7D718DCF809046395090054
:1022C00001456FE0EFA68357C4FFFD190909A183FB
:1022D000230FF9FE8357C4FFC20993D90901A30F45
:1022E000F9FEE1BF05458280EFE26FA09389F5FF1B
:1022F000C20993D909013387C9008D4763C7E70C29
:10230000935A360013D939003284AA84138A1A00EA
:1023100093F9790095CE854701456396F608373ADB
:102320000020268B338C2A01930C8A4E631F890769
:1023300013767400D69401CA942013058A4ECE8574
:102340004A95EFE0DFC513058A4EEF20D00499A827
:10235000B73B002013858B4EEF201007268B938B05
:102360008B4E3309994033052B01420541812146AB
:10237000CE855E957D1AEFE0FFC9050B420AA30FDB
:10238000ABFE135A0A01E3100AFE1D882146018E96
:102390001374F50F3314C4001374F40FD69433542C
:1023A000C44080A001456FE00F98930B190083464D
:1023B0000B00C20B33852C0193DB0B012146CE852C
:1023C000EFE0FFBD050B5E8995B70545E9BFFD153B
:1023D000C205C1813387C500954763CCE706EFE2AC
:1023E0000F91373B00202A84935A360093DB350047
:1023F00013058B4EB28493F9750013891A00EF20F0
:10240000B00D228A130B8B4EB38B8B4033057A01B0
:10241000420541812146CE855A957D19EFE09FBF47
:10242000050A4209A30FAAFE13590901E31009FE88
:10243000A1479D88B38497409377F50FB397970092
:1024400093F7F70F5694B3D797401CA001456FE060
:102450008F8D05458280EFE20F8C5545EFF0FFCA66
:102460005D45EFF09FCA6545EFF03FCA3724010094
:102470000545EF4070210145EFE05FBD11C5130533
:102480008421EFE0D073EDB7EFE07FC375F1EFE0AB
:102490007FC5EDBFB71702409843B706FFF841115B
:1024A0001367170098C3D84337060200758FD8C347
:1024B0009843B706F7FEFD16758F98C39843B70685
:1024C000FCFFFD16758F98C3D843B70681FFFD1634
:1024D000758FD8C39843B70600ECFD16758F98C367
:1024E0003707FF0098C723A6070202C402C6984315
:1024F000C166558F98C3B716024005679C42F18F9D
:102500003EC6A24785073EC4B24781E7A247E3978C
:10251000E7FEB71702409C431397E700635807068E
:1025200085473EC6324785476310F706B717024016
:10253000D843B706C1FFFD1613670708D8C3D843B1
:10254000D8C3D84313670740D8C3D843758FD8C3BF
:10255000D843C166558FD8C39843B7060001558F3D
:1025600098C3984393166700E3DD06FED843B71679
:102570000240719BD8C3D84313672700D8C32147B3
:10258000DC42B18BE39EE7FE4101828002C659BF67
:10259000371602405C429146B18B1387C182638536
:1025A000D700A1466388D702B7177A009387072020
:1025B0001CC3B7170240DC43918393F6F700B707BB
:1025C00000209387070DB69794231C43B3D7D700F9
:1025D0001CC3828054425042C167C982BD8A7D8E2D
:1025E0009387260085CABD466389D702C1466389A1
:1025F000D702C54581466393B700C1470DE637460C
:10260000024003260680418A15C637167A00130653
:1026100006202DA08146C947D5B78546B547F9BFE5
:102620008146BD47E1BF3716024050429315E60090
:10263000E3DD05FC37163D0013060690B387C7029D
:102640001CC3A5DA1C438583A5B7EFD2DFECEF10DE
:10265000F07DEF60100D19C1EFE0CFA60545EF400A
:10266000B002F5B7B75700209387C76F1CC1B757A3
:1026700000209387C7EF9CC1930700101CC2828083
:10268000B75700209387477B1CC1B757002093871B
:10269000C72F9CC1930700101CC28280EFD2BFE7F6
:1026A000EFE09FEA2A8437480020B7370020B7259B
:1026B0000100372500001308889393878753154737
:1026C0008546130600109385C52313056599EF40D1
:1026D000A03A08C03748002037240100B74700203F
:1026E00037250000930504241308083E938707BE8E
:1026F000154785461306002013056545EF40C03792
:1027000037580020B74700203725000093050424E0
:10271000130848C39387474315478546130600208F
:102720001305A564EF40403537480020B747002027
:10273000B7250100372500001308C8B89387C7984C
:10274000154785461306000893858524130565F60D
:10275000EF40803237580020B7570020B7250100DE
:1027600037350000130888E8938787C815478546E2
:1027700013060008938545251305658AEF40C02F91
:102780006FD0BFDBEFD23FD9EFF05F912A8437558E
:10279000002013050575EF30C06608C06FD0FFD963
:1027A000EFD27FD7EF208059B75600203756002050
:1027B0002A8401479386C6761306C6ED89454145AE
:1027C000EF30F03208C06FD05FD7EFD2DFD437449C
:1027D0000040AA841309048089454A85EF0070747B
:1027E00065DDA6851305048037440040EF00F072D4
:1027F0009304048085452685EF00B07265DD1305DE
:102800000480EF00D0711375F50F6FD01FD3EFD296
:102810009FD03715014001468565130505C0EF00BF
:10282000F016054537440040EF400066130404806D
:1028300089452285EF00F06E65DD95452285EF0024
:10284000D06D85452285EF00D06D65DD2285EF00D6
:10285000106D9374F50F93F71400F9FB37150140D1
:1028600005468565130505C0EF00501226856FD01B
:10287000DFCCEFD25FCA37140140014685651305EE
:1028800004C0EF00B0100545EF4000601945353F2A
:102890000545EF40605F05468565130504C0EF0000
:1028A000F00E6FD09FC9EFD21FC7011102C6930768
:1028B00040103744004002CA7C879307002013056C
:1028C000048002CCFC836C0093070003FC8402C8E4
:1028D000231E0100EF00F05E1305048085453714C8
:1028E0000140B7040020EF00B061130404C09384DA
:1028F000040E313F098911C1AD3F0545EF40C05875
:102900003937014685652285EF0050080545EF40BF
:10291000A0570945EFF07FEB0145EFF01FEB0545B0
:10292000EFF0BFEA13055005EFF03FEA1305A00AE8
:10293000EFF0BFE90545EF40205505468565228546
:10294000EF00D0041545EF402054014685652285EF
:10295000EF00D0030545EF4020530D45EFF0FFE6B3
:102960000145EFF09FE60545EFF03FE61305F00F58
:10297000EFF0BFE588A01305F00FEFF01FE588B07A
:102980000545EF406050054685652285EF00100043
:102990008DB701A001A001A001A001A001A001A08C
:1029A00001A001A001A001A001A001A001A001A01F
:1029B00001A001A001A001A001A001A001A001A00F
:1029C00001A001A001A001A001A001A001A001A0FF
:1029D00001A001A001A001A001A001A001A001A0EF
:1029E00001A001A001A001A001A001A001A001A0DF
:1029F00001A001A001A001A001A001A001A001A0CF
:102A000001A001A001A001A001A001A001A001A0BE
:102A100001A001A001A001A001A001A001A001A0AE
:102A200001A001A001A001A001A001A001A001A09E
:102A300001A001A001A001A001A001A001A001A08E
:102A400001A001A001A001A001A001A001A001A07E
:102A500097E1FF1F938181F417D100201301815A60
:102A6000170501001305C5C597D5FF1F9385855927
:102A70001386818A63FAC5008322050023A05500CE
:102A800011059105E3EAC5FE17D5FF1F1305857BE8
:102A900097A50020938545D36377B50023200500D3
:102AA0001105E36DB5FEFD42739002BCFD427390CB
:102AB0004280B78200009382028073A0023097D2D6
:102AC000FFFF9382A25793E2320073905230EFF0EF
:102AD0007F9C97F2FFFF9382A25E73901234730083
:102AE00020305C413707F1E01307F7EF944D7D8FFD
:102AF0009C41D58FD44DD58FD441A206D58FD98F87
:102B00005CC11C4537F7F1FF1307D77FD4457D8F94
:102B10009C49D58F94458606D58FD98F1CC55C55A9
:102B2000370710FF7D177D8FDC29FD1793F7F70F0F
:102B3000D207D98F5CD582805C4193F5F50F01C631
:102B4000DD8D4CC1828093C5F5FFFD8DDDBF08454D
:102B50000D810589828008450981058982801C458F
:102B600091C537075000D98F1CC582803707B0FF49
:102B70007D17F98FD5BFA54763F7B7048D47138736
:102B800065FF3307F7020328C5009D47B397E700A9
:102B900093C7F7FFB3F70701B396E600DD8E54C580
:102BA000994763E3C70495477D163306F6025859E3
:102BB000FD47B397C70093C7F7FFF98F3396C5005A
:102BC0005D8E50D982800D473387E50203280501C9
:102BD0009D47B397E70093C7F7FFB3F70701B39695
:102BE000E600DD8E14C96DBFB14763E2C7029547A9
:102BF00065163306F6021859FD47B397C70093C709
:102C0000F7FFF98F3396C5005D8E10D98280954706
:102C10004D163306F6025855FD47B397C70093C7C4
:102C2000F7FFF98FB395C500DD8D4CD58280B727AE
:102C3000014093870740984711C5B7068000558F1C
:102C400098C78280B70680FFFD16758FD5BF5841A3
:102C5000144193D78500F58F99C713F5F50F798D3A
:102C60003335A000828001458280A18193C5F5FFA4
:102C70000CC18280EFD23F8A01112A842304010013
:102C8000A5441C8463F9F40423040100A5462146ED
:102C90001C8463FFF60623150100230401009546FA
:102CA0001C8463F1F60E38853C8599460D46B3F7D2
:102CB000D702056513050580B3D7C7023357D7027E
:102CC000BA97C207C1837C853C8505611D8D42058D
:102CD00041856FD09F861C4493E787001CC42285E2
:102CE000EFF0FFE66DFD1C4493E747001CC422850E
:102CF000EFF07FE66DFD78441C8414108607B697CC
:102D00002396E7FE1C84850793F7F70F5C8495BF35
:102D1000A30401009C846378F6001C84850793F764
:102D2000F70F5C84B5B798849C840C100607850760
:102D300086072E97AE970357C7FE83D7C7FE63FD5E
:102D4000E7029C848607AE9783D7C7FE7C859C8468
:102D5000988485078607AE9783D5C7FE931717001B
:102D60001810BA972396B7FE9C8438850C108507F7
:102D70008607AE972396E7FE9C84850793F7F70FA7
:102D8000DC8449BF1C841010388589078607B297F8
:102D900083D7C7FEBA97C207C1837C851C84850789
:102DA00093F7F70F5C84EDBDB7F7FF1F03A54770DE
:102DB00082809317350063DA0700B707024083A7C4
:102DC00007407D8D3335A00082809317250063D79F
:102DD0000700B707024083A7074DE5B7B7070240D2
:102DE0009C43C5B79317350063D70700B707024068
:102DF00023A2A74082809317250063D70700B70757
:102E0000024023AAA74C8280B7070240C8C3828031
:102E1000EFD26FF0793F6FD04FF2EFD2CFEFD937CB
:102E20006FD0AFF1EFD22FEF85451165EF0090071E
:102E300081451165EF0010076FD02FF09307000454
:102E40003CC1930700027CC1930700087CD123207A
:102E50000500B707000423220500232405002326CC
:102E6000050023280500232A0500232C0500232E16
:102E70000500232005022322050223240502232620
:102E8000050223280502232A0502232C0502232EEE
:102E90000502232405042326050423280504232AE8
:102EA0000504232C0504232E0504232005062324D2
:102EB00005062326050623280506232A0506232CB6
:102EC0000506232E05062320F508B7070002232256
:102ED000F5082322F50AB70702003707200023264A
:102EE000F50A93070010232405082326E508232864
:102EF0000508232A0508232C0508232E050823206E
:102F0000050A2324050A2328F50A232A050A232C67
:102F1000050A8280411102C6B78602409C4A416779
:102F20002E057D17F18B798D9A055D8D93F5057CC6
:102F3000C98D93E51500B70750008CCAF9173247C1
:102F400005073AC6984A058B01C73247E3F9E7FE01
:102F50003247B7075000FD1701456307F700B787F1
:102F60000240C84B42054181410182804111B7872F
:102F7000024002C6984BC166FD162E05758D718BF9
:102F80009A05598D93F5057CC98DD0CB93E5350015
:102F90008CCBB7070500B7860240F9173247050703
:102FA0003AC6984A058B01C73247E3F9E7FE324536
:102FB000B7070500FD173335F5004101828023AEC8
:102FC000A1902A878147B708104013030060130EB1
:102FD000F6FF6396C700B797024088CB8280B3861E
:102FE0006702232017012A88AE9614C793060701AB
:102FF00063F3C70136882326070185073687D1BFCB
:10300000916623ACA1900147AA873703008093867D
:103010000660130E0060930EF6FF6316C700B797A5
:103020000240C8C782803308C70323A06700D4C307
:10303000AA882E9823A40701138807016373D70178
:10304000C28823A617010507C287C1BF3797024070
:103050001C4393E717001CC38280B7970240C8CB7C
:103060008280379702401C4FB7061000D58F1CCFC7
:103070008280EFD24FCA378402401C4093E787001A
:103080001CC0C5371C40896693E747001CC0B79732
:103090000240984F558F98CF984F1367270098CFCD
:1030A0006FD0AFC999C5379702405C4F5D8D48CF4F
:1030B0008280B7970240D84F1345F5FF798DC8CF6E
:1030C0008280B707014023AAA74082809C4513F75E
:1030D000070113F8F70001C7D8413368E8008E21D3
:1030E00013F7F50F39C318418146854E3D4F930FB5
:1030F000800293028004214E3396DE00B3F8C500AF
:10310000631116039398260033131F011343F3FF33
:103110003377E300B318180133E7E800639FF7053E
:1031200050C98506E39AC6FD18C11307F00F6375F1
:10313000B70454412146854E3D4F930F80029302C0
:103140008004414EB398CE0033F715016392E80234
:103150001317260001173313EF001343F3FFB37661
:10316000D3003317E800D98E639DF701232A150198
:103170000506E319C6FD54C18280E39457FA10C9CD
:103180004DB7E39757FE23281501DDB719C20CC9C7
:1031900082804CC98280B7070140635A0504DC4F26
:1031A00093560501131805013707300013F6F60092
:1031B00013580801B376E50063500506639BE602E9
:1031C000930606010D46B316D60093C6F6FFF58F9B
:1031D00099C9135755011377F73F12073317E800C2
:1031E000D98F63570504370701405CCF8280DC43E9
:1031F00045BF1317B500635607008D46B396C6004A
:10320000E9B7135755011377F73F12073317E80053
:103210001347F7FFF98F6DBF6390E6023706014051
:103220005442370700F17D17F98F758F58C2D5F1D9
:10323000370701405CC382801317B500635C070049
:103240008D46B396C60093C6F6FFFD8EB707000FF6
:10325000D58FF1BF1357550112073317E8001347F5
:10326000F7FF7D8FB707000FD98FD1B7EFD2AFAA85
:1032700079712A84462168082EC6E1229257374781
:103280000F001307072433D7E702C204C18093F469
:1032900004FCC204C180B24561651305056A1316BA
:1032A00007014182D18C46A01620C206C182F99A3C
:1032B000C206C18216A094416369D5048606B3D7BD
:1032C000D7029146139707014183BA876373D700EA
:1032D000914705064206C2074182C18312B05EAC27
:1032E0001E20DA21B62593E717001EA01E20558F59
:1032F000C207C18393F757BFD98F1EA09A25DE2539
:10330000D98F1EA445616FD04FA3EA2131667D1687
:10331000631DC5020D46B386C602B3D7D702C207E6
:10332000C1839396470199E293E71700A166D58F71
:103330009306C0123307D7029306803E3347D70265
:103340000507420741831AB059BF6546B386C602D6
:10335000B3D7D7029166C207C183D58FD9B71E21D3
:1033600089C593E717001EA18280C207C183F99B1C
:10337000C207C183CDBF1E2189C593E707101EA1D7
:103380008280C207C18393F7F7EFC207C183C5BF2D
:103390001E2189C593E707201EA18280C207C18331
:1033A00093F7F7DFC207C183C5BF1E2189C593E725
:1033B00007401EA18280C207C18393F7F7BFC207EF
:1033C000C183C5BF0EA982800A291375F50F8280BB
:1033D00093F7E50F19C293E71500C207C1831EA931
:1033E00082805E290A2D42055D8D6D8D2205218129
:1033F0000D8D133515008280411102C402C693D78A
:10340000C5012AC63EC4A247A205A18199CBB247F5
:10341000D1073EC6B247884341016D8D3335A000C8
:103420008280B247C181E107EDB723A0A1928280DB
:10343000B7160240DC4251777D17F98F5D8DC8C207
:103440008280371702405C439146B18B6385D70079
:10345000A1466382D706B7177A00938707201CC15D
:10346000371602405C42370700201307C70E9183CE
:10347000BD8BBA9794231C41B3D7D7005CC154428B
:10348000A1829D8ABA969422B3D6D70014C554421D
:10349000AD829D8A36971823B3D7E7005CC55842A2
:1034A0003983937637001387018336971823B3D770
:1034B000E7021CC982805C435843C166C983758F8B
:1034C000B7F6FF1F83A6C670BD8B8907139616013A
:1034D00063480600C54601466392D702C94739A82A
:1034E0008946638FD702BD46638ED702C146638E7D
:1034F000D702C54601466393D700C1471DEF374742
:10350000024003270780418B05C737177A0013074E
:103510000720B307F7021CC121D61C41858381B760
:1035200001466DBF0546B547D1BF0146BD47F9B756
:1035300037173D0013070790E9BFB7150240D8556C
:103540009316F700D85563DF060411833D8B93066D
:10355000170037177A00130707203357D70218C10F
:10356000D455A182BD8A8DE295463307D7020583E3
:1035700018C137170240585714413D8B050733D700
:10358000E60218C1184171B785456394B600E54657
:10359000E9BFBD456396B600D1463387E602C9BF91
:1035A0008906E5BF3D8B9306170037177A0013078E
:1035B00007203357D702F1B799C5371702405C4B44
:1035C0005D8D48CB8280B7170240D84B1345F5FF7D
:1035D000798DC8CB828099C5371702401C4F5D8D0D
:1035E00008CF8280B7170240984F1345F5FF798DB9
:1035F00088CF828099C5371702405C4F5D8D48CFD8
:103600008280B7170240D84F1345F5FF798DC8CF98
:10361000828099C5371702405C475D8D48C782801C
:10362000B7170240D8471345F5FF798DC8C7828088
:103630009357550005476399E700B71702409C432D
:1036400033D5A7000589828009476396E700B7173D
:1036500002409C53F5B7B7170240DC53D5B7371774
:1036600002405C5793F7F7F05D8D48D78280B7161C
:103670000240DC5645777D17F98F5D8DC8D6828074
:1036800009C9371702401C43B7060010D58F1CC369
:103690008280B71602409C42370700F07D17F98FF1
:1036A0009CC2828099C5371702401C575D8D08D790
:1036B0008280B717024098571345F5FF798D88D758
:1036C00082801A218D6793870704B6217D8F9E2102
:1036D000D58FD621D58FF621D58F9625D58FB625B6
:1036E000D58FD625D58FF625D58FD98F1EA15A2DEA
:1036F000FD779387F77FF98F5EAD9E291EA98280A3
:103700001E2189C593E707041EA18280C207C183D9
:1037100093F7F7FBC207C183C5BF4EA582804A2538
:1037200082800A256D8D3335A00082801E213737B7
:103730000140930607C0C207C1836300D504B706E2
:103740000040630CD502938606406308D502B71685
:103750000040138606806302C502938606C0630E8E
:10376000D50013070740630AE50037570140930669
:1037700007C06304D5006316E500BA2193F7F7F894
:10378000D98F37170040630CE50013070740630823
:10379000E50093F7F7CFFA21C207C183D98F1EA1A5
:1037A000DE215EB59E211EB5B7370140138707C0E5
:1037B000630EE50093870740630AF500B7570140A1
:1037C000138707C06304E5006314F5009C251EB948
:1037D00085475EA982801E31922103D82500C20749
:1037E000C183F99BC207C1831EB11E3156211A2D18
:1037F000C207C183420741831377C7F8518F9225CF
:10380000F59BC20633660601D18F37360140130897
:1038100006C0C182630E050113060640630AC50097
:1038200037560140130806C0630405016310C50242
:10383000B225DD9B03D8E500D18FD221ED9B93F615
:10384000F6CFD18FD22533660601D18E56A11AAD9F
:10385000FA215AB91EB182801E3165771307F7CF5E
:10386000C207C183BD9BC207C1831EB11E31562151
:1038700003D88500C20713960601162DC18393F75E
:10388000F7FD758F96214182A206558FB62142071A
:103890004183B3E606019206D58FB7360140C207D1
:1038A000138806C0C183630E050193860640630A30
:1038B000D500B7560140138806C063040501631E96
:1038C000D502B62593F7F7F703D8C5009206D58F32
:1038D000D621C207C183920693F7F7FBD58FFD76F9
:1038E0009386F63FF18EF225C207C1833366060147
:1038F0000A06D18E13960601418252A11AADFA2111
:103900001ABD1EB182801E3103D88500C207C18353
:1039100093F7F7EFC207C1831EB11E3156215A2D0E
:10392000C207139606014207962141831377C7F811
:10393000558FB621C18393F7F7DFB3E60601A206E0
:10394000D58FB7360140C207138806C04182C183B4
:10395000630E050193860640630AD500B756014001
:10396000138806C063040501631FD502FD769386A4
:10397000F67FF58FB62503D8C500A206D58FD621D0
:10398000C207C183A20693F7F7BFD58FF576FD1660
:10399000F18EF225C207C183336606011206D18E6D
:1039A00013960601418252A15AADFA215ABD1EB1A9
:1039B00082801A31FD77FD17F98F1EB10358050279
:1039C00056215E2D65771396060196211307F7CFD2
:1039D0007D8FF977A206FD17558FB3F70701B62142
:1039E00003D8850042074182B3E60601B206D58FAF
:1039F000B7360140C207138806C04183C183630EF6
:103A0000050193860640630AD500B7560140138826
:103A100006C063040501631BD500F176FD16F18E27
:103A2000D2251A06D18E13960601418252A15AADB3
:103A3000FA212310E5041EB182801E2189C593E777
:103A400017001EA18280C207C183F99BC207C183F0
:103A5000CDBF5E2501C6DD8D4EA5828093C5F5FFE5
:103A6000FD8DDDBF1E2DC207C183DD9BDD8D0EAD3B
:103A700082801A2DFD779387F77FF98FA205CD8F6E
:103A8000C207C1831EAD82805E2DC207C183DD9B4C
:103A9000DD8D4EAD82805A2DFD779387F77FF98FAC
:103AA000A205CD8FC207C1835EAD82805E21C207B1
:103AB000C18393F7F7F8C207C1835EA15E21DD8D54
:103AC0004EA182801E294A25ED8F4205418189C77A
:103AD0006D8D3335A00082800145828093C5F5FF4E
:103AE000C205C1810EA98280EFC2FFA21629F57717
:103AF000FD17F58FF621DA257971D58F1EA9562588
:103B0000FD779387379FF58FD6212A842EC6D58FD0
:103B10009625D58FB625D58F5EA55E29C207C183B0
:103B200093F7F7CFD98F5EA96808EFF09F91B74759
:103B3000014093870780B245631AF404A2575624C4
:103B40006547B387E702C206C186984163D206047F
:103B5000060752244206B3D7E70213074006418600
:103B6000B3D6E702B3F7E7029206635506028E0763
:103B700093872703B3D7E70213F77700B367D7001C
:103B8000C207C1831EA445616FC03F9B925745BFCA
:103B90000A07C1B7920793872703B3D7E702BD8B04
:103BA000D58FF9BF91C55E250967D98F5EA5828043
:103BB0005A25F977FD17F98FD5BF93F5F51F4EA15B
:103BC00082800A216D8D3335A000828083A7C19148
:103BD0009843634B07029843370600304E05518FD8
:103BE00098C39843370600804D81518F98C3C8C34E
:103BF0008CC737970240114650CB23220700DC4781
:103C0000054523AEF190828001458280EFC2BF90CE
:103C100085658547938505806318F5003715014054
:103C2000EF10902B6FC07F9137150140EF10102BD4
:103C3000D5BFEFC25F8E8547930500406318F5003E
:103C400037150140EF1050296FC03F8F37150140E5
:103C5000EF10D028D5BF37F7FF1F81471307D77E56
:103C600099463306F7400C223306F50085070CA26F
:103C7000E399D7FE82809387019398433A9588C34E
:103C8000828003A7019323A6E192B787024003A78E
:103C9000471C25EF03A74719894763F8E706EFC2DA
:103CA0009F8703D50194F94513840194EFF08FA603
:103CB00093572500858BA9C74D99131605010A2036
:103CC0004182F945EFF08FAA37870240832707101A
:103CD00093E717002320F71083270710858BEDFF4C
:103CE000B787024003A7471C11CB238A0192D84310
:103CF000B706008093C6E6FF758FD8C36FC0FF83F9
:103D000013654500420541814DBFB787024003A7B7
:103D1000471C19CB238A0192D843B706008093C66B
:103D2000E6FF758FD8C382808280EFC22FFD938417
:103D300001948A20954513840194EFF0AF9D2A8960
:103D40008A208545EFF00F9D9377F9011389E19360
:103D5000638A071483470900C1E30A208547F945B0
:103D60002300F900A38EF192EFF0CF9A1376C5FFEE
:103D70004206937715004182A9CF136626000A20D8
:103D8000F945EFF0AF9E0A208145EFF0AF9813762A
:103D9000E5FF42060A204182136606208145EFF0C6
:103DA000EF9C0A208145EFF0EF96136635200A203C
:103DB000420641828145EFF06F9B83A781931307F1
:103DC0004006B3F7E70293872703238AF1826FC087
:103DD0002FF61366160065B705476397E700894716
:103DE0002300F900A38E01929387E19403870700D3
:103DF000634607069384518394202147639AE6041F
:103E00000A20F945EFF00F911376350F0A20F94596
:103E100090A0EFF0AF95238004000A208145EFF0D9
:103E20006F8F1376E5FF42060A2041821366062053
:103E30008145EFF0AF930A208145EFF0AF8D136617
:103E400035200A20420641828145EFF02F9221A0C1
:103E5000130700F898A32386019495BF9387519583
:103E600098239306170094A39546E316D7FE13757F
:103E7000050275F193845183238007009C2011492A
:103E80000A20F945E38027F9EFF0CF881376350F44
:103E90000A2013664600F94590A0EFF02F8D23808D
:103EA0002401A5BF0347090085476312F70813875C
:103EB000D1931C23A1468A20850793F7F70F1CA3F3
:103EC000639BD70023000700230009002146F94522
:103ED000EFF0CF89EDBDF945EFF0CF831376C5FF45
:103EE0004206937715004182A1C3136626000A207B
:103EF000F945EFF0AF870A208145EFF0AF811376E7
:103F0000E5FF42060A204182136606208145EFF054
:103F1000EF850A208145EFE0FFFF1366352042065A
:103F2000418281450A206DB713661600C9B7138414
:103F3000C194834A0400138AE19483460A0093875C
:103F40001A001307000893F7F70F6394E6063D473E
:103F50006384EA001CA0A5BD8A202300040023007E
:103F600009001384518321492146F945A38A01940C
:103F700023000A0023002401EFE05FFF2300240157
:103F80008A208145EFE01FF91376E5FF42068A207B
:103F90004182136606208145EFE05FFD8A2081455E
:103FA000EFE05FF7136635204206418281458A20A3
:103FB00005B79389518303C709001DE71147E39BA8
:103FC000EAF88A20F94523000400EFE0BFF41376F5
:103FD000350F8A2013664600F9452380C900EFE0BB
:103FE000FFF82380590169BF91466318D7023D4706
:103FF000E392EAF68A202300040021442146F94591
:10400000A38A01942300090023000A002380890069
:10401000EFE0DFF523808900A5B71CA093074006D9
:10402000E397FADA8A2021668145EFE03FF4238A9C
:104030000194A38A0194238A0192A14723000400DA
:104040002300090023000A002380F9002146F945D6
:10405000B9BFEFC24FCC9387D19498231377F70F52
:104060002DC303A7019383A60195158F9306301FD7
:1040700063F7E60437470240238007008327078061
:10408000138401940A2093E747002320F7802166D8
:104090008145EFE0BFED238A0194A38A0194238632
:1040A0000194238F01920A20238A0192238701948D
:1040B00021472146F945A38AE182EFE03FEB6FC03B
:1040C000CFC713894195834709001384C193C1EB7E
:1040D00083C6E19305471389E19393844183636B1E
:1040E000D70003D501949545EFE0DFE27D8919C142
:1040F0002380040093870193904393860195944213
:104100008C20158E93860193138701956361B60405
:104110000346090085476311F604138681931C4208
:10412000B745030093851540B387B702B7A52600AE
:10413000938595ECAE971CC213064006B3F7C702F1
:10414000938727039CA09C421CC3EFF01FBE1C203A
:10415000BDD723000400A5B793072003E5B71C20B3
:1041600093844193A5C383A7019303A70195998FD6
:104170001307900F6378F70423000400138401945D
:104180000A208545EFE01FD99377450085EFEF3092
:1041900030620A2021668145EFE05FDDA38A019449
:1041A000238601940A20238F0192238701942147BB
:1041B0002146F9452300090023800400A38AE182F7
:1041C000EFE0DFDA9C20E38C07EE03A7C19283A720
:1041D0000193998F13073006E373F7EEEFF07FAA90
:1041E000F9BDEFC24FB341118545414502C202C43A
:1041F00002C6EFF04FBE8D477C82C1473EC64C00E1
:104200008D47371501403EC4EFE05FEC856593852F
:10421000058037150140EF10204C930500403715FD
:104220000140EF10604B41016FC02FB1EFC2AFAE44
:104230000145EFF0EFC44145EFF06FC23565EFF097
:104240000FC30545EFF0CFC31305D003EFF04FBE0A
:1042500065DD6FC08FAEEFC20FAC138401940A20EE
:10426000954513890194EFE0FFCAAA840A20854589
:10427000EFE05FCA937745002A8495C38DE0374706
:10428000024083270780ED9B2320F7800547A38604
:10429000E19403A7019323A8E1946FC00FAA22859C
:1042A000EF3010511374440293074002631AF4086C
:1042B00003550900C145EFE0FFC51189B7860240EB
:1042C00019E5FD888547B78602406385F4069C4260
:1042D000056713070780D98F9CC2B78702409843B0
:1042E000D176FD16758F98C39146238AD194D84311
:1042F000B70600808506558FD8C303A7071013673C
:10430000170023A0E7103787024083270710858B0B
:10431000EDFF0547238AE19203A7019323A6E192CB
:10432000EFE03FD5B78702409C43AD83858B238464
:10433000F192A5B79C427D771307F77FF98F69BF8C
:104340003747024083270780ED9B2320F7800547EE
:10435000A386E19403A7019323A8E194E1B7EFC2F8
:10436000EF99317137960240B70670003707600049
:104370005C4AF58FE39EE7FE83C7419593844195A0
:1043800095C703D50194F94513840194EFE09FB8D4
:104390001376C5FF42069377150041826388072292
:1043A000136626000A20F945EFE05FBC0964EFE0E0
:1043B000FFC913040471379902407D144204294552
:1043C0004180EF30206509C483270900858BF5F70C
:1043D0004800EFE0BFA685473EC2930700203ED6C7
:1043E000B70700023EC58566930700083ECD370734
:1043F00020001389068093070004378402403AC9DD
:104400004AD202CC02D002D802DE82C482C882CA5A
:1044100082CC02C33ECF02D31C48938616A03785B8
:1044200001808D9B1CC8B245A24710401305150C96
:10443000CD8FB78520FF9385F5106D8ED18F4246C5
:10444000B7950240D18F5246D18F7246D18F2256F6
:10445000D18F5256D18F6256D18FD58F1CC01C4040
:10446000B7061000D58F1CC086479646D58FB64636
:10447000D58F5CC0F6471CC486575CC43656A65719
:10448000144CD18F4656D18F5656D18F6656D18F48
:104490004166130616F4F18ED58F9656C206D58F57
:1044A0001CCC8A46F657D58F5CCC5A46BA47944DF9
:1044B000D18F3746DEF8130636F2F18ED58F8A5645
:1044C00037060020D58FB70620029386060CD58FBD
:1044D0009CCD9306C624DC32CC22A207CD8F3CC0F3
:1044E0008346D6248347C6248545A206DD8E8347AE
:1044F000E624C207DD8E8347F624E207D58F7CC011
:10450000B70702002328E410938707022326F4103C
:10451000EFE05FB937650020B785002093098587F4
:1045200009469385852913058587EFE05FA93765DF
:104530000020B7650020130A85801D469385858974
:1045400013058580EFE0DFAB23A2419523A43195CD
:104550001C407D771307F77FF98F1CC083C78192BA
:1045600091C71C4033E9270123202401B78602406C
:104570009C4251777D17F98F9CC2EFE09FAF9C2042
:1045800013840194B9E70A2021668145EFE01F9E5C
:10459000A38A019423860194238F01920A20238AFF
:1045A00001922387019421472146F9452380040085
:1045B000A38AE182EFE09F9B0547238EE19203A748
:1045C000019323A8E19429616FB09FF6136616004A
:1045D000D1BB0A20F945EFE0FF931376C5FF4206F1
:1045E00093771500418291CB136626000A20F94586
:1045F000EFE0DF979C20E9F379B713661600FDB76B
:1046000083A741921307000293F7070F639FE70008
:10461000B79702409C533707FE1FF98F99C7EFB237
:104620009FEFEFF0DFD36FB05FF18280EFB2BFEEAC
:10463000EF30D016EF30007BEFF0BFA1EFF05FFC62
:104640006FB0BFEFEFB23FED378702401C4B2E84B7
:1046500081458D9B1CCB50411C411443D18F378623
:1046600020FF1306F610F18ED58F1445D58F5445D3
:10467000D58F1449D58F5449D58F144DD58F544DAE
:10468000D58F1451D58F5451D58F1455D58F54557E
:10469000D58F1459D58F5459D58F1CC31C43B706D9
:1046A0001000D58F1CC3545D1C5DD58F3441D58F50
:1046B0007441D58F3445D58F7445D58F3449D58F06
:1046C0007449D58F5CC33C4D1CC77C4D5CC73055CD
:1046D0007C51144FD18F4166130616F4F18ED58F9D
:1046E000745537960240D58F3459D58F7459D58F6C
:1046F0003451C206D58F1CCF745D3C5DD58F5CCF25
:104700008326450883270508184ED58FB746DEF85F
:10471000938636F2758FD98F03278508D98F0327A3
:10472000C508D98F03270509D98F03274509D98FD4
:1047300003278509D98F0327C509D98F0327050AC0
:104740002285D98F1CCE2166EFE05F822146F94594
:104750002285EFE0BF8105456FB03FDEEFB21FDA83
:1047600031718545AA847165EFE01FE58547239087
:10477000F194EFF0BFAB374702408327078009640D
:104780001304047193E747002320F780EFE08FE9DB
:1047900013890194EFE09F8BB79902407D14420486
:1047A00029454180EF30002709C483A70900858B84
:1047B000F5F74800EFE08FE88567938707803ED2E2
:1047C00085473EC2930700203ED683550900B707B0
:1047D00000023EC593070008370420003ECD480084
:1047E0009307000422C93ECF02CC02D002D802DED9
:1047F00082C882C482CA82CC02C302D3EFF09FE493
:10480000DC30D820B7860240A207D98FBCC29830CE
:104810009C203785018022075D8FBC2085451305CC
:10482000150CC2075D8FBC30E207D98FFCC2B707F9
:10483000020023A886109387070223A6F610EFE054
:104840007F8629616FB0DFCEEFB2FFCCB797024011
:10485000C04B13170401635A0702137704081DC3E2
:1048600003A74192C1461377070F6319D700F84792
:10487000B7060080584714C323A407001305000897
:10488000EFE0AFFD2165EFE04FFD9317F40063DA31
:1048900007029377040489C713050004EFE0EFFBD8
:1048A0009377140081C70545EFE02FFB63580400A0
:1048B000EFF07F9A37050080EFE02FFA4165EFE0D7
:1048C000CFF96FB09FC7EFB21FC52A84130540060A
:1048D000EF30A017EFE04FCD23A2A192EFF07F9031
:1048E0003C3058202285B98F5830B98F37470300A4
:1048F00013071740B387E70237A72600130797EC83
:10490000BA9723ACF192EFF07FE537650020B785C9
:10491000002013048587094693858529130585871B
:10492000EFE0EFE937650020B7650020930485804C
:104930001D469385858913058580EFE06FEC23A2E2
:10494000919423A481940967B7E700E023A4E710BA
:10495000A38607446FB07FBEEFB2FFBB39719307E8
:1049600000603ECA9307405B3ECC8567938747272C
:104970003ECE930720033ED0930730103ED2B72798
:10498000554089073ED4B7470000938727C33ED6DA
:10499000B74700009387C7C03ED8B747000093874A
:1049A000C7BC3EDAB7573412938787672A8948080D
:1049B0002EC632C4B68402DC3EDEEF30504D2A846F
:1049C00019E92246B245A6864A85EF3030402A844E
:1049D0002685EFF05FEF228521616FB01FB69E2123
:1049E00041112AC43EC6B24722479306800CB387C2
:1049F000D702930680033307D702BA97A183C20771
:104A0000C1837C833C8328839EA14101828093875C
:104A1000C19523A0070023A20700239C0194828054
:104A200085476382F50406059387C195AA97982365
:104A30000DE703D781959306000505452E9763C5BD
:104A4000E6021387F5FF9386619598A39A220145A4
:104A500098B37D172E979AA28280FD1501456305B4
:104A6000B700094582800D4582808D47D38705F0C8
:104A700063E5A702931715001385C1953E951C2188
:104A8000A9C3143137C70020130707F8B697FD17DD
:104A9000C207C183B14563F5D700D30700F015A065
:104AA0006389F6003386B7023A9618625306F7A078
:104AB00001CEB146B387D702BA97D4639867C3F7DC
:104AC000D770538507E08280FD17C207C183E1B725
:104AD000530606F0D30707F0D38607F0538706F096
:104AE000D3F5D708D3F6C6105375E608C7F7E768BD
:104AF0005377C708D3F5A518D3F7E7180CE19CE165
:104B00008280931715001385C1953E951C2185075A
:104B100063C3C702EFB2BF9D37CA00200149AE8A06
:104B20009309F6FFAA84B14B130A0AF863473901C7
:104B300001456FB05F9F0945828080309316390030
:104B4000338BDA004A9433047403A106D6969C4250
:104B500003270B00D44203264B0005091379F90FF4
:104B60009305840013054400D2955295EFF05FF64B
:104B700087274B0052941CE055BFB1473305F5021F
:104B8000B7C700209387872B3E959C4523000500DF
:104B90001CC501458280B7C7002010219387872B51
:104BA00093864702054785453375E60019C98CA3EE
:104BB00006071377F70F11E30547B107E396F6FEF3
:104BC000828023800700EDB737C700201307872BAB
:104BD0001306470285470C23142181CDDD8E8607FD
:104BE00014A193F7F70F91E385473107E315E6FE2C
:104BF000828093C5F7FFED8EDDB7F1473305F502EF
:104C0000B7C700209387C722D8413E959C4958C119
:104C10007D171CC9DC453337E00058A95CC59C4DA5
:104C200078A9232405001CCD01458280EFB21F8D99
:104C300037C400201304C42281448949130A400662
:104C4000854A15495C40638537071C4C2685829749
:104C50007828630CA7041C4485071CC429E718485E
:104C60006379F7005C4068A893C7F7FF858BA98F2D
:104C70005CA8850493F4F40F7104E39524FD37C414
:104C800000201304842B81440D4958401C440C20FF
:104C900019E393B515002685850482973104E396C0
:104CA00024FF6FB0FF88584465BF23240400D1B7A8
:104CB0005C28850793F7F70F638447015CA855BF0D
:104CC0001C40230A0400985B6315570123A80702C0
:104CD0004DB723A6070271BF37C700201307C722AD
:104CE0001306C70885474C2B142181CDDD8E86071E
:104CF00014A193F7F70F91E385477107E315E6FEDB
:104D0000828093C5F7FFB3E6B60293F6F60FC5B7F8
:104D1000EFB27F80B7C7002083A7472E4111488696
:104D2000CC86AA972380070003A541966C00814694
:104D30007D56EF10A06641016FB03F80138541960C
:104D40008280B7C7002003D5872E8280EFB2AFFCE8
:104D50005C4937C400201304C42D034905005CC816
:104D60001C4554451829AA844A863E8581451CC4A1
:104D700054C418A823002401EFB0EFFCD8404A86A1
:104D8000814558C0EFB02FFC03A541968145EF1037
:104D9000C04901456FB06FFAEFB24FF6B7C40020BB
:104DA00001449384C42D05498949094A9C206364C0
:104DB000F4006FB0EFF7DC4822858297631125037A
:104DC000DC40A297982301CB2380070093050004C1
:104DD0002285EFF0FFF305041374F40FC1BF98446C
:104DE00022971C23850793F7F70F1CA3D84022971F
:104DF000142389EA9428E3E0D7FE230027019305D2
:104E00000008F9B7F03463E4C70063872601F02493
:104E1000E3E3C7FCE39146FD23003701CDB7EFB2D2
:104E20008FEF05E5B7170240984F1367072098CF1B
:104E3000D84713670720D8C7D8471377F7DFD8C7F5
:104E40003165EFE0EFDE6FB04FEF8547E31AF5FE17
:104E5000B7170240984F1367074098CFD84713679A
:104E60000740D8C7D8471377F7BFD1BFEFB2AFEA33
:104E7000131725009387C186BA978043370700FC34
:104E80007D171C44AA8493E717001CC45C40F98F6B
:104E90005CC01C4493E787001CC42285EFD03FCB45
:104EA0006DFD1C4493E747001CC42285EFD0BFCAA8
:104EB0006DFD2285EFD01FDC860493870197A697AE
:104EC0008AA36FB08FE70A059387C186AA979C4390
:104ED000E84742054181828055712ADD372501402E
:104EE0002EDB86C796C59AC39EC122DF32D936D73C
:104EF0003AD53ED342D146CF72CD76CB7AC97EC762
:104F000082FE86FC8AFA8EF892F696F49AF29EF069
:104F1000A2EEA6ECAAEAAEE8B2E6B6E4BAE29305DF
:104F2000002213050540BEE042FE46FC4AFA4EF858
:104F300052F656F45AF25EF062EE66EC6AEA6EE8F9
:104F400072E676E47AE27EE0EFD07FD001C583A7F7
:104F5000819682973735014093050022130505801D
:104F6000EFD0FFCE01C583A7C196829737240140B9
:104F70009305001413050440EFD07FCD11C99305AC
:104F8000001413050440EFD05FCE83A741978297AA
:104F90007A54BE40AE421E438E436A55DA554A5695
:104FA000BA562A579A570A58FA486A4EDA4E4A4F62
:104FB000BA4F7670E6705671C6713672A672167365
:104FC00086737664E6645665C6653666A6661667B9
:104FD00086677278E2785279C279327AA27A127B45
:104FE000827B726CE26C526DC26D326EA26E126F79
:104FF000826F696173002030060593870197AA9735
:10500000839707000145AE9763C0070291CD85667F
:105010001387F6FF3A8563D9D7002E856386E500AE
:1050200013950701418182808280EFB22FCD01115B
:10503000AA842E8AB28A8145130600020A85B6899F
:10504000EFB06FD02685EFF09FDD85473EC2139706
:1050500024009387C186BA9780438A8502C022853F
:1050600002C44EC602C8230A410102CC02CE4969DD
:10507000EFD03FA781471309C92763954703B707B7
:105080000E00638FF9021C4437071000D98F1CC42F
:105090001C44268593E707101CC4EFF03FDD056133
:1050A0006FB00FC9138B1700D6979C2389461376D0
:1050B000FB0FCA978C232285EFD0FFABDA8775BF31
:1050C0001C443707F0FF7D17F98FD1B7EFB20FC33C
:1050D0007971AA842E8A3289B6893AC6EFF03FD414
:1050E00032471394240013868196229618C2814574
:1050F000130600020808EFB00FC585472302F1022E
:105100009387C186A297804352CEB7070E00630CE7
:10511000FA021C4437071000D98F1CC40C082285E2
:10512000EFD03F9C4E86CA8513052002C52B05464D
:10513000930500222285EFD03FA02685EFF01FD3F4
:1051400045616FB0EFBE1C443707F0FF7D17F98F44
:10515000E9B7EFB24FBC13142500094541113315CF
:105160008500EFD0FFCA8547631FF500B7C7002051
:105170009387472FA2979C432AC6829732453315BF
:105180008500EFD09FC941016FB02FBBEFB20FB7C1
:1051900004413D49994741112A84AE893319990048
:1051A00063E3970A371702405C4B93E717005CCB29
:1051B000370702405C4333E92701232227015C447F
:1051C000C5C705476385E70A85679308002093856F
:1051D000078037C50020139724001305452F3A9503
:1051E0003A88370700201307C70F4297184314C1A6
:1051F000C1661C43F9160848F58F1CC35C40144374
:10520000C98F0844B3E71701C98F61753D05E98E61
:10521000D58FCD8F93E707081CC35E2CCE851385F1
:10522000B4015CC35C481CC71C4C5CC71C4393E7BF
:1052300027001CC3994763F4970013851404F929C8
:1052400041016FB0EFAE8545094536C632C4EFE087
:10525000AFB6B707024003A74740B24622463369BC
:10526000270123A22741A1BF814881459DB793080B
:10527000001093050040B1BF317106DF16DD1ADB67
:105280001ED92AD72ED532D336D13ACF3ECD42CBF6
:1052900046C972C776C57AC37EC182FE86FC8AFA89
:1052A0008EF892F696F49AF29EF0A2EEA6ECAAEA96
:1052B000AEE8B2E6B6E4BAE2BEE0014542FE46FC24
:1052C0004AFA4EF852F656F45AF25EF062EE66EC86
:1052D0006AEA6EE872E676E47AE27EE0EFF07FE773
:1052E000FA50EA525A53CA533A55AA551A568A5690
:1052F0007A47EA475A48CA483A4EAA4E1A4F8A4F46
:105300007670E6705671C6713672A6721673867321
:105310007664E6645665C6653666A6661667866771
:105320007278E2785279C279327AA27A127B827BE1
:10533000726CE26C526DC26D326EA26E126F826F31
:10534000296173002030317106DF16DD1ADB1ED9AA
:105350002AD72ED532D336D13ACF3ECD42CB46C90D
:1053600072C776C57AC37EC182FE86FC8AFA8EF841
:1053700092F696F49AF29EF0A2EEA6ECAAEAAEE8B5
:10538000B2E6B6E4BAE2BEE0054542FE46FC4AFAA1
:105390004EF852F656F45AF25EF062EE66EC6AEAA5
:1053A0006EE872E676E47AE27EE0EFF09FDAFA5099
:1053B000EA525A53CA533A55AA551A568A567A4748
:1053C000EA475A48CA483A4EAA4E1A4F8A4F767050
:1053D000E6705671C6713672A6721673867376645D
:1053E000E6645665C6653666A66616678667727891
:1053F000E2785279C279327AA27A127B827B726C1D
:10540000E26C526DC26D326EA26E126F826F2961B4
:1054100073002030317106DF16DD1ADB1ED92AD762
:105420002ED532D336D13ACF3ECD42CB46C972C704
:1054300076C57AC37EC182FE86FC8AFA8EF892F621
:1054400096F49AF29EF0A2EEA6ECAAEAAEE8B2E6D4
:10545000B6E4BAE2BEE00D4542FE46FC4AFA4EF81A
:1054600052F656F45AF25EF062EE66EC6AEA6EE8C4
:1054700072E676E47AE27EE0EFF0BFCDFA50EA52CF
:105480005A53CA533A55AA551A568A567A47EA4782
:105490005A48CA483A4EAA4E1A4F8A4F7670E6705A
:1054A0005671C6713672A672167386737664E66498
:1054B0005665C6653666A666166786677278E278B0
:1054C0005279C279327AA27A127B827B726CE26C58
:1054D000526DC26D326EA26E126F826F29617300BF
:1054E0002030317106DF16DD1ADB1ED92AD72ED502
:1054F00032D336D13ACF3ECD42CB46C972C776C5FC
:105500007AC37EC182FE86FC8AFA8EF892F696F401
:105510009AF29EF0A2EEA6ECAAEAAEE8B2E6B6E4F3
:10552000BAE2BEE0114542FE46FC4AFA4EF852F697
:1055300056F45AF25EF062EE66EC6AEA6EE872E6E3
:1055400076E47AE27EE0EFF0DFC0FA50EA525A5396
:10555000CA533A55AA551A568A567A47EA475A48BC
:10556000CA483A4EAA4E1A4F8A4F7670E670567164
:10557000C6713672A672167386737664E6645665D3
:10558000C6653666A666166786677278E2785279CF
:10559000C279327AA27A127B827B726CE26C526D93
:1055A000C26D326EA26E126F826F2961730020305D
:1055B00093F7060113F8F60099C33368C80093F710
:1055C000F50FB9C31C410147854E3D4F930F800233
:1055D00093028004214E3396EE00B3F8C5006311A8
:1055E00016039318270033131F011343F3FFB377F8
:1055F000F300B3181801B3E7F800639FF60550C92C
:105600000507E31AC7FD1CC19307F00F63F5B70444
:1056100058412146854E3D4F930F800293028004EE
:10562000414EB398CE00B3F715016392F802931779
:10563000260081173313FF001343F3FF3377E30092
:10564000B317F8005D8F639DF601232A1501050647
:10565000E319C6FD58C18280E39456FA10C94DB7CC
:10566000E39756FE23281501DDB7EFA2DFEAC14616
:105670000946EFF0FFF36FA05FECEFA2DFE9814690
:105680000D46EFF0FFF26FA05FEBEFA2DFE891466F
:105690000D46EFF0FFF16FA05FEAEFA2DFE74111E7
:1056A0002A84AE8409CE371702401C4F36C6854582
:1056B00093E717001CCF3285EFD0FFADB2460D4601
:1056C000A6852285EFF0DFEE41016FA01FE70845B8
:1056D0006D8D3335A00082800CC982804CC98280D8
:1056E000EFA27FE3114529282145192841450928C2
:1056F0001305000231201305000419206FA0FFE3F9
:10570000B7170240984F498F98CFD847498FD8C7CD
:10571000D8471345F5FF798DC8C78280854763E96F
:10572000B7028A052E961206B7E700E01376F60F49
:10573000AA972380C74093575500054793870704CE
:105740003315A7008A0737E700E0BA9788C382803D
:105750009387E5038A07B29793F7F70F920793E7CA
:1057600007F837E700E093F7F70F2A972300F74091
:10577000D9B79306F5FF954763FCD702A1473707D2
:10578000100063E9A7009317250049651305052953
:105790003E951841B7170240D447D98ED4C7D04799
:1057A0009346F7FFF18ED4C7944F558F98CF8280E0
:1057B000130700026386F60093874187B697982304
:1057C000B7170240944BD98E94CB904B9346F7FF7A
:1057D000F18E94CBD44F558FD8CF8280C9670A05FC
:1057E0009387472BAA9798431E2393E717001EA37E
:1057F0008280EFA25FD2C9670A059387472BAA97D9
:105800008843C205C181EFE06FAA6FA01FD3557115
:1058100022DF373401403ED386C796C59AC39EC166
:105820002ADD2EDB32D936D73AD542D146CF72CDDA
:1058300076CB7AC97EC782FE86FC8AFA8EF892F60B
:1058400096F49AF29EF0A2EEA6ECAAEAAEE8B2E6D0
:10585000B6E4BAE2854513050440BEE042FE46FCCC
:105860004AFA4EF852F656F45AF25EF062EE66ECE0
:105870006AEA6EE872E676E47AE27EE0EFE08FA410
:105880008547631AF500B7C7002083A7473C829776
:10589000F9572318F4407A54BE40AE421E438E435B
:1058A0006A55DA554A56BA562A579A570A58FA4844
:1058B0006A4EDA4E4A4FBA4F7670E6705671C6712C
:1058C0003672A672167386737664E6645665C6658C
:1058D0003666A666166786677278E2785279C2796C
:1058E000327AA27A127B827B726CE26C526DC26D4C
:1058F000326EA26E126F826F696173002030C967C9
:105900000A059387472BAA9798431E23C207C18392
:10591000F99BC207C1831EA38280C96713172500A4
:105920009387472BBA979C439A2742074183619BF1
:10593000420741839AA751473306E502962337C7AA
:1059400000201307C732C206C18293F6F6C8329709
:105950005223D18E96A316233A23D6B79AB709E5D8
:1059600037370140231807C20547DAAB8280EFA220
:105970009FBA41112A842EC632C4EFF09FDFB24590
:1059800037A74A04130707203357B702D1472246E7
:105990002285B306F402B7C700209387C732B697B3
:1059A00092A3BAA3EFF07FF741016FA01FB9EFA256
:1059B0009FB601112A84B6842EC632C402C802CA18
:1059C00002CC02CEEFF0FFDA2246B245D1471319DE
:1059D0000601B305B60237A64A041306062013597A
:1059E000090122853356B6023307F402B7C70020F7
:1059F0009387C7320A04BA9723902701B2A3239250
:105A00000700EFF09FF1C16749659387070713050A
:105A1000452B3EC82295231B2101231C010093F72F
:105A20001400004189CB0C082285EFD0DFDA8145D4
:105A30002285EFE02F8393F7240089CB0C08228581
:105A4000EFD09FE181452285EFE0AF8293F74400DC
:105A500089CB0C082285EFD01FEB81452285EFE032
:105A6000AF82A18889C80C082285EFD09FF48145B8
:105A70002285EFE04F821E20216793E707081EA0D2
:105A800083574404D98F2312F40405616FA0FFAA41
:105A9000EFA27FA8C9670A059387472BAA9780437F
:105AA000A167FD1703574404411102C27D8F2312E1
:105AB000E4040357440402C402C6F98F2312F40419
:105AC000C167938707073EC089477C84708393F73B
:105AD0001500AE8489C78A852285EFD0DFCF93F782
