:100000006F50105613000000130000001300000092
:100010001300000013000000130000001300000094
:100020001300000013000000130000001300000084
:08003000130000007300100032
:1000380000000000000000002A3300002E330000FA
:1000480000000000A65C00000000000000000000A6
:10005800A85C0000AA5C000000000000000000008E
:100068009AA8000000000000000200000000000044
:10007800B05C0000B25C0000B45C00002C9600008C
:10008800B85C0000BA5C0000BC5C0000BE5C00000C
:10009800C05C0000C25C0000C45C00007089000005
:1000A8003E8A0000CA5C00000C8B0000DA8B00005E
:1000B800D05C0000D25C0000A2850000D65C000085
:1000C800D85C0000DA5C0000DC5C0000B43300009F
:1000D800E05C0000E25C0000E45C0000E65C00001C
:1000E80014350000EA5C0000DE9C000084910000EA
:1000F8005292000020930000EE9300000C9900003B
:10010800049A0000B8A3000086A4000054A50000CB
:10011800005D0000025D0000045D0000065D000057
:10012800AC9D00000A5D00000C5D00000E5D000043
:10013800105D0000125D00007A9E0000049B000024
:1001480022A600001A5D00001C5D00001E5D000074
:10015800205D0000225D0000245D0000265D000097
:10016800285D0000883400002C5D00002E5D000032
:10017800305D0000325D0000345D0000365D000037
:10018800385D00003A5D00003C5D00003E5D000007
:10019800405D0000425D0000445D0000465D0000D7
:1001A800485D00004A5D00004C5D00004E5D0000A7
:1001B800505D0000525D0000545D0000565D000077
:1001C800585D00005A5D00005C5D00005E5D000047
:1001D8000000000000000000000000000000000017
:1001E8000000000000000000000000000000000007
:0801F8000000000000000000FF
:10020000130181F806C216C41AC61EC822CA26CC1B
:100210002ACE2ED032D236D43AD63ED842DA46DC76
:100220004ADECEC0D2C2D6C4DAC6DEC8E2CAE6CC46
:10023000EACEEED0F2D2F6D4FAD6FED8F3220030CF
:1002400096DA83A281A223A02200F32510342EC0C7
:100250009305000273A0458003A14189EFB0F039F6
:1002600003A381A203210300824273901234D65269
:10027000739002309240A2423243C2435244E2445D
:10028000724582551256A2563257C2575258E258FA
:1002900072598649164AA64A364BC64B564CE64C0E
:1002A000764D865D165EA65E365FC65F13018107DA
:1002B0007300203013000000130000001300000042
:1002C00013000000130000001300000013000000E2
:1002D00013000000130000001300000013000000D2
:1002E00013000000130000001300000013000000C2
:1002F00013000000130000001300000013000000B2
:1003000083A24189938202E07390023403A181A207
:10031000024182403243C2435244E2447245825514
:100320001256A2563257C2575258E258725986494D
:10033000164AA64A364BC64B564CE64C764D865D61
:10034000165EA65E365FC65FD652A102739002307B
:10035000A2421301810782801300000013000000F5
:100360001300000013000000130000001300000041
:100370001300000013000000130000001300000031
:100380001300000013000000130000001300000021
:100390001300000013000000130000001300000011
:1003A0001300000013000000130000001300000001
:1003B00013000000130000001300000013000000F1
:1003C00013000000130000001300000013000000E1
:1003D00013000000130000001300000013000000D1
:1003E00013000000130000001300000013000000C1
:1003F00013000000130000001300000013000000B1
:10040000F322003093F272FF130380781203B3E2F9
:100410006200711523205500130585FA10C12115BE
:10042000232005009302000063870200711523203A
:100430000500FD12D5BF71150CC1828000000000BF
:1004400000000000000000000000000000000000AC
:10045000000000000000000000000000000000009C
:10046000000000000000000000000000000000008C
:10047000000000000000000000000000000000007C
:10048000000000000000000000000000000000006C
:10049000000000000000000000000000000000005C
:1004A000000000000000000000000000000000004C
:1004B000000000000000000000000000000000003C
:1004C000000000000000000000000000000000002C
:1004D000000000000000000000000000000000001C
:1004E000000000000000397101436EC619A0397187
:1004F00041536AC866CA62CC5ECE19A039710153F5
:100500005AD056D252D44ED64AD826DA22DC06DE4B
:1005100033016140828241114AC026C222C406C60C
:100520008282B24D4101024D924C224CB24B4101AC
:10053000024B924A224AB249410102499244224462
:10054000B240410182803D432A876373C30293779F
:10055000F700BDEFADE5937606FF3D8ABA960CC372
:100560004CC30CC74CC74107E36BD7FE11E2828036
:10057000B306C3408A069702000096966780A600DD
:100580002307B700A306B7002306B700A305B700EB
:100590002305B700A304B7002304B700A303B700E3
:1005A0002303B700A302B7002302B700A301B700DB
:1005B0002301B700A300B7002300B700828093F5A2
:1005C000F50F93968500D58D93960501D58D61B76E
:1005D000939627009702000096968682E78086FA17
:1005E0009680C1171D8F3E96E374C3F8A5B7EFF24E
:1005F0001FF0AE96939906013A8B1307160093D914
:10060000090142074183CE86AA842E84B28A034A16
:100610002509EF00D00901C90549933B1A006395EC
:1006200089002389440901B783470B00B377F90098
:100630008DC723894409014785465686A2852685AC
:10064000EF0040750504060942041379F90F418053
:10065000E31709FC050B0549D9B783C71409FDF356
:1006600023897409C9BFEFF27FE932971319070193
:10067000B689AE9613590901C2064A87C1822A8BF0
:10068000AE8A32843E8AEF00900201C993847900D9
:10069000C204C1808D806313890059BD2286050480
:1006A0005287CE86D6855A8542049137269A418054
:1006B000DDB7EFF2BFE4329793140701B689AE9627
:1006C000C180C2062687C1822A8A2E893284EF0021
:1006D000007E01EDB1BD228605040147CE86CA85A4
:1006E00052854204EF00006B4180E39684FEDDB743
:1006F000EFF27FE21C418145902B834785034859E7
:100700003306F6020E0681350DBDA1471CA11385E7
:1007100001B28280EFF23FE03687AE84B286B71531
:100720000000371600004111130686229385C52F5D
:100730002A84EF00D05C1305F100C13F9087B71603
:100740000000AA852687938686ED2285EF00101388
:100750004101E5B3AA959C218831A2073E95420547
:100760004181828001458280EFF2FFDA9C21AE84D4
:100770002A841CA19C311CB1BC213CA1BC313CB1E0
:10078000DC215CA1DC315CB1FC217CA1FC317CB1C1
:100790009C251CA59C351CB5BC253CA5BC353CB591
:1007A000DC255CA5DC355CB5FC257CA5FC357CB581
:1007B0009C29C5451CA92685713F2AA8CD452685BB
:1007C000513F4AA8D545268571376AA8BDB3104167
:1007D0000348C5001C223307B8001377F70FB3D6C0
:1007E00007419D4763ECE70093F7F60F58A57D5549
:1007F0003315B5001345F5FF7D8D828093071600F4
:100800001CC11C32214633060641B397C700D58F61
:10081000611793F7F70F1377F70FC9BFEFF2BFCF49
:100820002CD183458507930405062A8423060506F3
:100830002685713F834594072305A4062685413FFD
:1008400083472409A305A4062307F40693B71700DA
:10085000A307F406DDB1EFF21FCC2E848D3F7D148B
:100860008547B39787001D8D62056185F9B185477E
:10087000638CF60091C68947638AF6000D8D11A03E
:1008800032954205418182802E95E5BF118DD5BFFD
:100890008547638CF60091C68947638AF6003295D6
:1008A00011A02E95420541818280118DE5BF0D8DED
:1008B000D5BFEFF25FC38344850603499506411116
:1008C0002A84AE89328B834BA40693FAF90F338ABC
:1008D0009B40137AFA0F63743A01937AFA0F034735
:1008E0000407939C8401131C89010355440693DC7F
:1008F0008C41135C8C41BA866286E6853AC6493FD4
:100900003247835D64066286BA862A8DE6856E85E7
:10091000B93F2A86324763080B028347E40623095E
:10092000F408D686EA852285B521CE9493F4F40F97
:1009300063E14903B3847441050993F9F40F137912
:10094000F90F814449B78347D406E5F38347F4069A
:10095000F9B723049406A30484074101D9B6EFF242
:100960001FB92A84130A0506553D8345A4075285FD
:100970008309B406CD358345B4072A8C5285E13D01
:100980008345C4072A8B5285F9358304A406AA8AB5
:10099000635D90084E9B834B0407330B6041035506
:1009A0004406620B135B8B41DE865A86E285CD35A9
:1009B0002312A4062A89035564065A86DE86E28538
:1009C0007D352313A40685472A86638CFB06638046
:1009D0000B0689476387FB088D47638BFB0A2A87D1
:1009E000CA86CA852285E12129C1231404068345CC
:1009F00064075285E93B834574072A895285C13BC8
:100A0000AA840146CA8522856D35A68522850546BC
:100A10004D3585455285653B6DF583079406E3C8E2
:100A200037FD8347E4062309F4085685EDBCCA94D4
:100A300093960401B304350113970401C1824183E5
:100A40004DB7B3073941AA940509931609011397C5
:100A500004018507C18241831399070113590901D4
:100A600049B70547B3049740B307990033073741A7
:100A70009304190093960401B305E500930415004F
:100A80001397040113960501C18241834182E9B79E
:100A9000B304954013061500B306390185041317F6
:100AA0000601C20613960401C1824183418215BF2B
:100AB0003C4D1307F00FDD076368B702130700060C
:100AC000637DB70003578508BA97983335C39423DD
:100AD000E39CB6FE13852700828013070004E376AB
:100AE000B7FE03576508CDB7EFF2FFA20354A50880
:100AF000AE843E94228981454A85A9392A94894544
:100B00004A8589391109E36895FE1C301820A2072F
:100B1000D98F13978700A183D98FC207C18399CB3F
:100B20006395F4001305340009BC3C203E94F1BFEA
:100B3000014582800145CDBFEFF2FF9D2A848D3FA4
:100B40000DC5AA852285D9398345A40793040406D7
:100B5000268511338345B4072308A4082685E53983
:100B60008345C4072685C539C9BA0145F5BFEFF2EB
:100B70001F9823050506AA84AE8AF12BC1671309C5
:100B800000FC014A0144138BF7FF9389E7FF930BA5
:100B900000FC83C50A00DC4026858297AA85630392
:100BA0006503850AE30735FF26857937131A0501A2
:100BB000135A0A0163147901038904095294420407
:100BC0004180C1BF8387A40691CF03870409BA97E8
:100BD0003E943304444142044180635520014A94C9
:100BE0004204418022856FF01F94A306B5068280DF
:100BF000EFF2DF908347050705472A842E89B284E8
:100C0000B689638FE7029DC709476383E7040D47F1
:100C10006384E704CE8523122407231394062285D8
:100C2000413DAA85014589C52285153B4205418183
:100C30006FF01F907C4D8297AA94C204C180D9BFE7
:100C40007C4D82973309A940420913590901D9B74C
:100C50007C4D8297898CD5B77C4D82972A99EDB7C8
:100C6000EFF2FF884169AA8C2E84B284B689130AF8
:100C7000F9FFD521014C7919854A094B8D4B83A782
:100C80004C0083C5090066858297AA8663034505E3
:100C90008509E30625FF2686A2856685913F83C7E1
:100CA0000C076380570391CB6381670363817703EC
:100CB0002A9C420C135C0C01D9B72A94420441804F
:100CC000C5BFAA94C204C180E5B7098CC5BF898C91
:100CD000D5BF62856FF03F85EFF2FF83B717000045
:100CE0009387C70B5CC1AD3F6FF03F853C4DA9CBEF
:100CF00003061508830625088347D5082307C5087A
:100D0000A307D50895CF0547639FE70083073508FC
:100D10006354F6002307F5088307450863D2D7021A
:100D2000A307F50882808307E50703070508BA973C
:100D30006354F6002307F5086354D700A307E508BA
:100D40008280B7070000938747767CCD8280384D3C
:100D5000630DB700EFF22FFC2A842CCC1305450756
:100D60002134228561376FF04FFD8280EFF2AFFAB8
:100D7000B71700009387C70B5CC1D53B6FF0EFFB43
:100D8000EFF26FF97E3D1D8E5C55420641828297DF
:100D90006FF0AFFA8347C508C1CBD9C6854763F961
:100DA000D70089476317F7068505958DC205C18170
:100DB000058B25EF8357C5046368F6068357E50462
:100DC0006374F606AE96C206C18283578504035843
:100DD000A50463F9B60463F605059306F8FFC20699
:100DE000C18263F3D704BE8863F3B700AE889395DE
:100DF0000801C181C28763F30601B687B386B74095
:100E0000C206C182EFF22FF11C599C4782976FF006
:100E1000CFF28D47E31EF7F80506158E4206418294
:100E200041BFBE85E3EF05FB828083578504E3ED78
:100E3000F5FE8357A504E3F9F5FEB296C206C1821A
:100E40008357C5040358E50463F9C60263760603B5
:100E50009306F8FFC206C182E3F8D7FCBE8863F3AD
:100E6000C700B288139608014182C28763F3060166
:100E7000B687B386C74069B73E86E36F06FD6DB798
:100E8000894763E5B7002309B508828085472309B0
:100E9000F50882806379B60085476364D500B3B7EF
:100EA000C6003E858280E36CD5FE8147DDBFEFF250
:100EB0008FE62A84AE848355E5040355C50436893C
:100EC000BA86C93F01C98355A40403558404CA8660
:100ED0002686C9376FF06FE60343250993787600BD
:100EE0008547339817011378F80F014E63E56700C3
:100EF000428E6309F30403230500619A5C5903439E
:100F000003013306660242064182B295BE950DCFBB
:100F100005479C218508FD16B367FE00B347F8001E
:100F2000C2069CA193F87800C18263900804323D08
:100F300083472509B2956365F700054E638EE70286
:100F400005481DA8014845BFAE96C206C1829C2136
:100F50008505B367FE00B347F800A38FF5FE9397AE
:100F60000501C183E395D7FE828093171E00060812
:100F700013FEF70F1378F80FC9FE828083458503AF
:100F80001441834895031397050141839317370054
:100F90005EBD9C2A13980801135808018E073EBDB8
:100FA000931738007EBD903AC6956356B600330756
:100FB0000641420741830E072310F504BA97231117
:100FC000F504DE2A2312F504FE2A2313F504828099
:100FD000EFF26FD465376FF04FD6EFF2CFD34D33CA
:100FE0006FF0AFD5EFF22FD3035765058356250574
:100FF00003564505835505052A84553D09E5230615
:1010000004086FF08FD385472306F4080357840440
:10101000835704056374F7002314F40483572405ED
:101020000357A40463F4E7002315F404835744052D
:101030000357C4046374F7002316F404835764054C
:101040000357E404E3FFE7FA2317F4045DBFEFF26C
:101050008FCC03574504231405042315E5043841B8
:1010600078C549376FF06FCDEFF2EFCA1C59417761
:1010700038C9DC4378C982976FF02FCCEFF2AFC943
:1010800093071010230CC502A30C0502A306050646
:10109000A3060508A30805082319F5081C4354D521
:1010A0004CD918D9232C05042A84829722856D3FB8
:1010B00022854139230804066FF02FC8D1C9A947FA
:1010C0006388F508034765022DE79307B00F63FABD
:1010D000B70095472303F50285890EB1C165F9155F
:1010E000B9A09307700F63F7B70091472303F50288
:1010F0008D89E5B79307F00E63F7B7008D4723039B
:10110000F5029D89D9BF9307F00D63F7B7008947B2
:101110002303F502BD89D1B79307F00B63F7B7003E
:1011200085472303F502FD894DBFC205C1812E8588
:1011300082801E3193F5F5037D179A07DD8DC20578
:101140001377F70FC1812303E5020EB16DD379B791
:10115000C165FD15E9BF230305028280EFF2AFBB35
:101160001C492E8681469305000282976FF0EFBCE2
:10117000EFF26FBA1C49B2862E86DD4582976FF07A
:10118000CFBBEFF24FB94111CC871306F100854573
:10119000C53741016FF06FBAEFF2EFB75C452E86AD
:1011A0008146D54582976FF04FB9EFF2CFB65C45D7
:1011B000B2862E86DD4582976FF02FB8EFF20FB41E
:1011C0004111AA842E845D49E549130AE00FD54AEE
:1011D0000C20638C25036367B90063F0550341015C
:1011E0006FF00FB563FBB902E39B45FF1030930529
:1011F00090022685D087E92439A01030DC4481464E
:10120000D087268582970904E1B71C301306F100C8
:1012100085452685DC87513FFDB7DC448146014684
:101220002685050482976DB79387C5FE93F7F70F60
:1012300015476362F704EFF20FAE6D678A07130775
:10124000878CBA979C4341113289AE842A84828765
:1012500081452937CA8522852D37054541016FF023
:10126000CFAD854536C6DD3DB2461C484A86A685CB
:1012700022858297E5B701458280EFF22FA82E8460
:10128000CC212A89B2898E0593F5F50393E50504EF
:10129000213783C569004A8593E5850BF53D7C20A0
:1012A000A1CF542058309387860093F7870F958FEE
:1012B00093F7F70F9375F70F63F4E70093F5F70FC4
:1012C000AE960D8F10408E0593F4F50FA68554A0B1
:1012D00058B04A85D93D0C405C30AE9404C091EBC7
:1012E00083A709001CC083C749005CB07C20FD17A0
:1012F0007CA05C209D8BC5F76FF08FA3EFF2AFA1B0
:10130000A94741112A84638CF50863EAB700A54711
:101310006381F5088144268541016FF00FA2AD4736
:101320006381F50CBD47E397F5FE9C423689D432C4
:101330003EC483574900508713978700A183D98FF4
:101340007C869D4763E1D7025C4581460546E145C1
:1013500082974A862C0022850D375C4481460146DF
:10136000E545228582971886BD478544E3E5E7FA7F
:101370005C4481460946E145228582974A862C00D5
:101380002285E53D5C4481460146E54522858297FC
:1013900059B7ED659385058E65208544ADBF7520F1
:1013A0005C4481460546E145228582979385818686
:1013B000228529355C4481460146E5452285829790
:1013C0005C44E14581460946228582979385818662
:1013D0002285ED335C4481460146E54522858297AE
:1013E0006DBF5C4581461DE60546E14582979385C4
:1013F000C1862285E1335C4481460146E54522856C
:1014000082975C44E145814609462285829793850F
:10141000C1867DBF0546E145829793850187228578
:10142000713B5C4481460146E545228582975C44D8
:10143000E14581460946228582979385018749BF08
:101440000CC1BC292301F5028280EFF2CF8C5C49EC
:1014500081460146930580022A8482975C44814636
:101460000146D14522858297228505469305B00421
:1014700081281C40228593059002D023912022854B
:1014800001469305B0042D281C4022859305900247
:10149000D0233D20228505469305B00415201C402D
:1014A000930590022285D03321286FF00F89EFF247
:1014B0008F861C4581460146A54582976FF0EF87D0
:1014C000EFF26F855C49814682976FF00F87014587
:1014D0008280B71700009387E74C1CC55CC51CC908
:1014E0005CC9FD5723200500A30105022303050263
:1014F000232C05002302F5022304F5028280EFF27B
:101500008F8141112A842EC632C436C23AC0D137E7
:10151000B2452246924602470CC450C414C858C86B
:101520002285713741016FF04F8137050020130587
:10153000854B828005458280EFE2FFFD85474111A2
:101540002A8663F5A7008D4763E6A702B707002048
:1015500083A5874B37B500007400130525C502C667
:10156000EFB0C07201C9B24791C7B7E700E0116799
:1015700023A0E720054541016FE03FFCEFE2BFF902
:10158000B70700202A8403A5874B7D57814605466F
:101590008D45EF90E0498547630FF50011C98947F4
:1015A000630BF5008D476308F50005456FE0FFF814
:1015B00023200400DDBF08C0CDBFEFE2DFF5B70791
:1015C000002083A5874C411137B500007400054603
:1015D000130525C502C6EFB0606B01C9B24791C7BC
:1015E000B7E700E0116723A0E72041016FE0FFF4B7
:1015F000EFE27FF2B705002003C7554CB707002084
:101600009385554C2382E74CB707002003A5C74BB1
:10161000EF80104E83A7819182976FE01FF237050C
:1016200000201305854C8280370500201305054CEA
:101630008280EFE25FEE85476382F6048947638329
:10164000F60401478146370400201304C44B0146C9
:1016500008C0EF80503B084037160000B715000067
:101660000D4785461306A65B9385055FEF803042E4
:101670000840EF80504005456FE03FEC056793065A
:101680000060D1B705679306004075BFEFE2BFE881
:1016900037040020AE841304C44B15C90840B705B5
:1016A00000209385554CEF80B044371501409305D9
:1016B0000020130505C0EF70A072B707002003A536
:1016C000874C95C08545EF90404C6FE01FE737157C
:1016D000014093050020130505C0EF70606F0840BE
:1016E000EF80D042D9BF0147814605468545EF903E
:1016F0002034E1BFEFE23FE22A8437150140930531
:101700000020130505C0EF70A06CB707002003A5EB
:10171000C74B9375F40FEF80103C05456FE0FFE178
:10172000B707002083C7474C1CA105458280EFE224
:101730009FDEB704002003A5844C7D5781460546F3
:101740008545EF90E02E8547E317F5FE83A7C1910D
:101750008297D5B7EFE23FDC08218545EFC0104CFA
:101760007D572386E1806FE05FDDEFE2DFDA411134
:101770008545054502C202C423160100EF50A00CA6
:1017800083A7018237470F0013070724B3D7E70267
:101790004C0037050040231501007C84896793873E
:1017A000F7703EC2EF50402705468545370500409B
:1017B000EF50E058854537050040EF50C05685454D
:1017C00037050040EF504060B7E700E0056723A20F
:1017D000E71041016FE07FD6EFE27FD14111B709F9
:1017E000002061370144138C4180938B893F138B18
:1017F0008180914A93140401C180138584004205BD
:101800004181EF10306FB3078C0088A31385C400AB
:1018100042054181EF10106EB3878B0088A31385BA
:10182000040142054181EF10F06CB3078B0088A3DF
:101830000504E31154FDB70600209386064D138678
:1018400081809385893F13854180EF606043956770
:10185000938707E23EC29167938787A93EC44800F9
:10186000A5473EC6EFC0800DC9311841B70700201B
:1018700023A0E74E41016FE01FCBEFE23FC801110B
:10188000C88793F745002E84A9C79379F50F1307EE
:10189000C0033387E902B7F7002093870765BA973B
:1018A000D44798473697D44B9C4F3386F6006374E1
:1018B000C700B307D740B70400209384C44D8E20DF
:1018C0003ECE13076010AE976371F7061305F10063
:1018D0005135937784009DCB9384C18098209307E2
:1018E000F00F6315F70288878545EFC030188887A9
:1018F0000566130686B6B305C502B71700209387A1
:1019000087B1BE95EFC0803F9C879CA09377040170
:1019100081C77D572386E1801374040401C47D5779
:101920002386E18005616FE0BFC0372900201309DD
:10193000891E7008CA954E85EFC060419E2072478F
:101940003E97420741839AA09947E3F4E7F883560C
:10195000490093978600A182D58FC207C1839386E1
:101960005700E3D8E6F69907E312F7F60545EFF0DE
:10197000BFBCB704002003A5044E7D57854605462D
:101980008545EF90E00A37060020B72500201306B2
:10199000C64C9385052F4E85EFC0A0709384044EEE
:1019A00001C51305F1007D3388408945EF90E01DA6
:1019B0000DB7EFE25FB6EFC0F006937715002A840B
:1019C00099C737B501001305858FEF50814D937787
:1019D000240099C737B501001305C590EF50614C3D
:1019E0009377440099CBEFC0D007118919C537B55B
:1019F000010013054592EF50C14A418819CC0145B9
:101A0000EFC09003AA8519C10145853D0545EFC08A
:101A1000B002AA8519C105458D356FE01FB2EFE20E
:101A20009FAF39711304601F11C12A841306C003CC
:101A300081454800EFE03FB18D4722D64C0013842A
:101A4000D1801385D1803ED0EFC08009814719E94C
:101A50000820EFC0F006854711C508208945EFC072
:101A6000F01B81473E8521616FE03FADEFE2BFAAE9
:101A70001385D180C5316FE05FACB7270020938715
:101A8000871E1CC1B70700209387C74D9A230545C1
:101A9000239007009AA18280EFE2FFA7B7270020DA
:101AA0002E862E84AA851385072F9384072FEF4057
:101AB000E151B707002023A6874C37040020130408
:101AC000044E0840B7070020854523AC974CEF90A3
:101AD000C00B08407D57854605468945EF80507507
:101AE00005456FE09FA5EFE21FA383A701928297B0
:101AF0006FE0BFA4EFE23FA2B726000095652A86FB
:101B000095470547938666AE938575C90D45EF8069
:101B1000A04E05456FE07FA2EFE2FF9F0D45EF80ED
:101B2000E0186FE09FA1EFE21F9F0D45EF80C041DD
:101B30006FE0BFA0EFE23F9EDD3501E50D456FE0B0
:101B4000DF9F0145EDBF8280EFE2FF9C05376FE02C
:101B5000DF9EEFE25F9C01112A84AE846808930542
:101B6000A10132C6193F15C9724715453C333423CC
:101B7000A207D58F93968700A183D58FC207C18313
:101B800091EBBC8532461D0798C0E5171EA2FD5794
:101B90001CA0014505616FE05F9A1545E5BFEFE2C6
:101BA0009F979307160013D787401D06238FF5FED6
:101BB0002E85A38EE5FE93150601C1816515E93DCD
:101BC000954711C181473E856FE03F97AA95C205B1
:101BD0006D666D681307F00F9306F00FC181130651
:101BE0008693130888A393170501C1836396F500B4
:101BF00013958600598D828005058347F5FFB98FBF
:101C00003307F6001823C297358F9423E9BFEFE21C
:101C10009F9032842E852146A285EFF09FA18547B3
:101C20006316F5029567938707B01305300263E8E2
:101C3000870037151602130505EC3355850242055A
:101C400041814D3D054781476303E5008D473E8552
:101C50006FE0BF8EEFE23F8CB7070020814505455E
:101C600023A2074EEFF09FA2453D6FE01F8DEFE2EC
:101C70009F8A81450145EFF07FA175356FE0FF8BAD
:101C8000EFE2DF87370400201304044F1E20130700
:101C9000F00F41116371F702B7B601006D6637B5F9
:101CA0000100938686B8130686B39305D009130501
:101CB00005BBEF40C1281E200D476366F7001545A0
:101CC00041016FE0FF862E890E20AA89372500206A
:101CD0009304853F1305853F32C6CD3D6DF19C20B1
:101CE000324685042380F9001E20F5171EA223200A
:101CF0009900F9B7EFE23F82B707002083A4474E6F
:101D00008547639FF406370400201304244F06A080
:101D1000AA87A38FF5FE1E201385F5FF3707002045
:101D20003E964206418212A00E202326A74E793D00
:101D30001A209376F50F21814207418393071700FC
:101D4000C207C1831EA0B72700209387873F3E9715
:101D500014A31A201375F50F854542074183930696
:101D60001700C206C18216A0BA9788A3B707002041
:101D7000014523A4974EEFF07F9101456FE0EFFB03
:101D80001545EDBFEFE22FF9B707002083A7874E77
:101D9000411185C3B7B601006D6637B50100938662
:101DA00086BC130686B49305600E130505BBEF4091
:101DB00001191305F100EFF0BF96B70700209387D4
:101DC000474E98438546630FD70019C78946630479
:101DD000D7048D476314F700EFF01FD4014541018C
:101DE0006FE0AFF5B70600209386064F23900600FC
:101DF0009A221316070141821307160042074183F6
:101E00009AA29487372700201307873F329714A39D
:101E1000094798C3D1B7370700201307074F162388
:101E20001306F00F6363D6021E2393960701C18247
:101E300093871600C207C1831EA39887B727002087
:101E40009387873FB69798A341BF0D47D9B7EFE275
:101E50008FECB707002083A7474E05476381E70251
:101E6000B7B601006D6637B50100938686C41306C8
:101E7000C6B593053012130505BBEF40410CB704FE
:101E800000209384844E984019C7630BF7000144E7
:101E900022856FE08FEA81450545EFF02FFFC5BF32
:101EA000370400201304244F1E20C207C18385C7B6
:101EB000B70400209384C44E9C408823620561854A
:101EC000EFF05F839C4085079CC01E20FD17C20772
:101ED000C1831EA06DBF0D45EFF00FE62A8481453A
:101EE0000545EFF0AFFA23A004005DB7EFE2AFE2E3
:101EF000B70700201387474E144309464111138446
:101F0000474E638FC6028D476388F604014595CA24
:101F10001443B9C214436381C604184301456304E2
:101F2000F702B7B601006D6637B50100938646BE6D
:101F3000130606B79305D015130505BBEF40210026
:101F40000545EFF06FDF2AC6EFF0FFBD324585474C
:101F50001CC041016FE06FDE0145F5B796211547C2
:101F60006398E608582130319306E07C2207518FB0
:101F7000131687002183598E420641821307F6FF0C
:101F800042074183AA870D4563E6E606EFE2AFD834
:101F9000B8239433239005002207558F854694A3D8
:101FA00096219354360093F4F40F850696A1937608
:101FB000760081C6850493F4F40F84B396212E84B1
:101FC00013852700850696A19315870021834D8FE1
:101FD00093051700C2058146C181EF20A01501C5F8
:101FE000192B6FE08FD51E200145BE9406A0D5BFEA
:101FF0000D45828082809A2195476311F70658210A
:102000008D4731EF38311306D00F9306F7FF93F663
:10201000F60F6376D604EFE20FD03C210C3141116C
:10202000A207CD8F93958700A183CD8F938517004D
:10203000130717F0C2051337170085460546C181FF
:102040006800A30601005886EF20C00E814719C121
:102050005D21AA873E8541016FE02FCE8D473E85E9
:10206000828096211547637FD70658213031AA8791
:102070002207518F131687002183598E4206418211
:1020800013573600937676001377F70F81C605074E
:102090001377F70F9306F6FFC206C1821308F07A92
:1020A0000D456363D804D4336390E604EFE2AFC612
:1020B000B8232E848C332207138567004D8F931627
:1020C00087002183558F0507931507018546C18138
:1020D000EF20400601C505216FE02FC695471EA0E1
:1020E0000145DDBF0D4582808280962115476397AB
:1020F000E608582130319306E07C2207518F1316F1
:1021000087002183598E420641821307F6FF42075A
:102110004183AA870D4563E5E606EFE2CFBFB8230A
:102120009433239005002207558F894694A3962166
:102130009354360093F4F40F850696A193767600B7
:1021400081C6850493F4F40F84B396212E841385FD
:102150002700850696A19315870021834D8F93054F
:102160001700C205C181EF20400B01C569266FE051
:10217000CFBC1E200145BE9406A0D5BF0D45828070
:1021800082809A219547631CF702EFE2CFB83C2189
:102190000C318546A207CD8F93958700A183CD8F03
:1021A00093851700C2050546C1810D05EF109068A3
:1021B000814719C18926AA873E856FE00FB88D47F0
:1021C0003E858280EFE22FB59A21954463F7E406BD
:1021D00058213031930670072207518F131687005C
:1021E0002183518F1316070141821307F6FF42071F
:1021F0004183AA870D4563EDE602D4331317160019
:102200001377F70F6396E602B8232E848C332207E8
:10221000138567004D8F931687002183558F05071F
:10222000931507018546C181EF10D06001C5E124F7
:102230006FE0AFB006A00145E5BF0D45D5BF9621C3
:102240001547639AE606EFE20FAD54211306C00767
:10225000AA8793940601C1801387F4FF4207418344
:102260000D456362E6042E84B8238C3323100400EA
:1022700088A3122086062207050612A04D8F94B36C
:1022800093158700162021834D8F9305170085062F
:10229000C20516A026868146C18113852700EF104E
:1022A000705901C5892C6FE04FA91E208604014595
:1022B000BE9406A0CDBF0D4582809A21A54763F24A
:1022C000E70EEFE2AFA35C2138312A84A207D98F51
:1022D00093998700A183B3E7F9009399070193D9F4
:1022E00009019387F9FFC207C1831307C0070D4592
:1022F0006367F70A1C24703013078007A207D18F89
:1023000013968700A183D18F13960701418293070B
:10231000F6FFC207C1836364F708183493171600E9
:10232000639FE70624202E890C30A2047C20CD8CEC
:102330004C30A2078546CD8F93958700A183CD8F22
:1023400093851700C205C1811305A400EF10904EBC
:1023500039E923100900DD471CA083570900139AAF
:1023600019009395840085072310F900A300440108
:1023700083570900A180CD8C938514008507C20581
:102380002310F90081464E86C18113052400EF1009
:10239000704A11E9835709003E9A231049016FE002
:1023A0002F9901458280812ADDBF962115476390D0
:1023B000E608582130319306B0072207518F1316D3
:1023C00087002183518F1316070141821307F6FFFF
:1023D00042074183AA870D4563EDE604EFE2AF9320
:1023E0002E843E858C331147BC232310040018A192
:1023F0001A20A2079314160005071AA004B1CD8F66
:10240000939587001A20A183CD8F93851700050728
:10241000C2051AA0C1810905EF10903F01C5E1284E
:102420006FE0AF911E200145BE9406A0D5BF0D45BB
:1024300082808280EFE22F8EB707002003D4474FBF
:10244000AE84B725002022869385854F0505EF30A1
:10245000F137050482A001456FE02F8EA14763F399
:10246000C702EFE24F8BB7B601006D6637B50100CA
:10247000938646C7130646C693058003130545C8D1
:10248000EF30F12B13D73500930717003308E50021
:102490003E958547B397C700FD17C2070E073387E0
:1024A000E540C183B397E70018210346080093C7AE
:1024B000F7FF2207518F9D89F98FB396B600DD8E05
:1024C000C206C1862300D800C206C182A18214A11F
:1024D000828093D735003E951C3108219D89A20743
:1024E000C98F05453315C500B3D7B7407D157D8D20
:1024F0001375F50F82809D4763E7A7009387418797
:10250000AA978823828011458280EFE2CF8093884A
:10251000F5FF93F8F80F9307600F63F6170109446E
:1025200022856FE08F81238AB1802E886DF9B6876E
:10253000B7260000B285938646C523A8D190B7265A
:1025400000009386E6C623AAD190B72600009386A2
:1025500046CF23A4D190B7260000938606C823A2B5
:10256000D19023A60190B7260000938646D823ACCD
:10257000D190B72600009386E6E423AED190B7262B
:1025800000009386C6EE23A0D1924285BA863E868D
:10259000EFF0EFE72A8449F5EFE0DFF909C50547D9
:1025A00023A8E180B5BF0D44A5BFEFD2DFF6EFF061
:1025B0006FD82A8419C5054723A8E18022856FD0EA
:1025C000DFF7EFE03FF71DCDB7270000938767B433
:1025D00023A8F190B7270000938787B423AAF1902E
:1025E000B7270000938727B523A2F190B7270000F3
:1025F0009387E7B923A4F19023A601907D57238AFE
:10260000E18055BF0D445DBFEFD2FFF0138401811F
:102610001840854719456318F70083A701918297F1
:102620000145232004006FD05FF1EFD2DFEE83A7D6
:102630000181411119446395070C6800EFE01FF414
:102640000547AA876304E50001445DA83247630398
:10265000A7088946E31AD7FE03A581920C21370704
:10266000002023A0F190130607002382B192814736
:102670001384819213894192938401901307070078
:102680004148142291CA6391D5088E07BA97DC435A
:102690009385E192829788C083C7C192D5D7944031
:1026A0009387E19285C203470900104085458EA3B8
:1026B000136707F818A292231840930516008EA3FB
:1026C000329714A3922303A781900C4003C5418144
:1026D00002979DBF83A741909384C1921386E19294
:1026E000938581921385C19282972A8431FD9C2023
:1026F00003C741816303F700A1FB0945EFE0DFE376
:10270000228541016FD07FE385072106E39B07F710
:1027100061B7930740063345F502A9474205418159
:1027200063E8A706ED67938747CA0A053E951C41F3
:10273000828723800500930760041CA2828089475A
:102740009CA193078002D5BF91479CA1E547F5B7AF
:1027500095479CA1D147D5B79D479CA1BD47F1BFE7
:10276000A1479CA1A947D1BFAD479CA1A147F1B703
:10277000B1479CA19D47D1B7B9479CA1994775BF67
:10278000BD479CA1954755BFC1479CA1914775B7CF
:10279000D147E5BFEFD23FD87971BD47AA842E84D7
:1027A000368593056100130671005C83DC83EFF0CE
:1027B0005FF69C83034E61009308C05D939607010A
:1027C000C182B388F8401398270013971600860833
:1027D000B30EC04113932600814701458145054F43
:1027E000D14F634A170105476369F70A81471EA065
:1027F00045616FD09FD493161700A69603960600E6
:1028000063DBCE046359C605B30607418606A69668
:102810008396060063C5C604B306E8008606A6963E
:1028200083960600634DD60211C19DCD81459386E6
:10283000170010188607B297135617001A97420709
:10284000050593F6F60F239CC7FC41831375F50F1E
:1028500063EDDF00B68709074207418359B719C105
:102860006384E5018545E1B795463000054781471A
:102870002E220A2205071377F70F898DAE97C2071C
:10288000C1830906E366D7FEFD16B3C7D702C207A8
:10289000C1838607C207C18399BFBE86F9B7EFD24D
:1028A0009FC7B386C502AA88014701450148634F07
:1028B000D7002E868146C285EF10612CEF30E126CD
:1028C000EFA08055EF30A1496FD03FC79317170095
:1028D000C6978397070032974207B387F702418371
:1028E00013DEF741AA9733B3A70072983E851A9872
:1028F0007DBF856793870777AA971A21362111052F
:10290000158F231EE5FEE39AA7FE828005668147A8
:1029100001478146130686BB139817002A980318AF
:1029200008009398070193D8080163D406014687ED
:10293000C2868907E392C7FE05839AA13685828005
:10294000EFD27FBD0545EF50B0441384A19393159A
:1029500005010420C1850545EF503054B7470020DC
:102960008604938787C8A6978AA31C209546850767
:1029700093F7F70F1CA01387818163F4F6040C23EF
:1029800037350140854605461305058023000400C0
:10299000EF30604F03A5C1931384C194014793871F
:1029A000C19485460946814523200400EF90F05CE0
:1029B0001C4091C7B7E700E0116723A0E7206FD064
:1029C000DFB7BA978C23373401401305048085465E
:1029D0000546EF30404B854513050480EF30204914
:1029E000F9BFEFD25FB30945EF700056B70700207B
:1029F00083A6071E416779179C4203A5C193F98FEF
:102A00009CC2138481940147938781948546114623
:102A1000814523200400EF9050561C4091C7B7E732
:102A200000E0116723A0E7206FD03FB11307E5FF57
:102A30004207B747002041839306603E938747CE05
:102A400063E3E600CAA38AAB8280B747002003D5C0
:102A500087CE82801385C193828013850194828002
:102A6000411106C622C44AC24EC0EF308124B7B716
:102A7000010003A607D883A647D837B40100EF208A
:102A80008179B7B7010003A687D883A6C7D82A895A
:102A9000AE89EF208116B7B701006348050203A68F
:102AA00007D983A647D94A85CE85EF20C17603266C
:102AB00084D98326C4D9EF20812AEF30412AB2403D
:102AC0002244124982494101828003A507D983A586
:102AD00047D94A86CE86EF200174032684D98326FF
:102AE000C4D9EF20C127EF308127D30705F0D39752
:102AF000F720538507E0E1B787A70193539517C0E7
:102B00001375F50F8280EFD21FA15D71EF50E05871
:102B1000A9450145EF5080596D642946930504D3BA
:102B20000145EF50C066A9450545EF50205829469C
:102B3000930504D30545EF508065A9450945EF503D
:102B4000E056930504D329460945EF5040649307A6
:102B50000010B70608007010894501452316F102E0
:102B6000EF50D03693070002BEC0B72701409387CD
:102B7000C744BEC2B727002093878751BEC485478C
:102B80003EDE8567938787BB2316F1040C188567A3
:102B9000130600020A853EDC02D802DAEF30014358
:102BA000B73600000A859386269E01468545EF507C
:102BB000504DB707002003A7071E814605461C435A
:102BC000B7050E00054593E717001CC33737000013
:102BD00013070794EF50B03983C581813735014021
:102BE0009D46054613050580EF30E0290545EF3089
:102BF000003537450020130985D51306007D814532
:102C0000130585D5EFD03F9437440020130444CEFC
:102C10009304803E374500202320240146A0130959
:102C20008552231404001306007D81451305855247
:102C3000EFD07F9137470020130747C958D08D4701
:102C4000374700205EAC130787CA18D89387419393
:102C5000374700201CCC1307C7CBA9471EB45EB86A
:102C60002310F40458DC2316F404231CF40437471F
:102C70000020B7470020130707CD938747D406A845
:102C8000231A04002326240123100402231604021D
:102C9000231C0402231204042318040438C4231E32
:102CA00004047CC861616FD05F891A251C41060746
:102CB000BA978EA31E255A218507C207C1831EA578
:102CC00063E4E70023140500828052211E2581461B
:102CD0009305F6FFC205C18101476317D60033454E
:102CE000C70242054185828091E3AE87FD17C20786
:102CF00003280500C183939817004698031808001D
:102D00008506C2064297C182C9BFA54763ECA712D8
:102D1000EFD27F80ED67938707CD0A053E951C4172
:102D2000828737450020130545CEEFF01FFAD37791
:102D300005D001A237450020130505CFEFF0FFF8BD
:102D4000D37705D0538507E0EF20B176B7B7010000
:102D500003A687DC83A6C7DCEF206100EF302100EB
:102D6000EFF01FD06FD06FFD374500201305C5CFA2
:102D7000EFF0BFF5D37705D0538507E0EF207173EF
:102D8000B7B7010003A687DC83A6C7DCEF10317D4F
:102D9000B7B7010003A607DD83A647DDEF10317C3E
:102DA000EF20F17BC1B737450020130585D0EFF048
:102DB000DFF1D37705D0538507E0EF20916FB7B7E8
:102DC000010003A687DC83A6C7DCEF105179B7B7F3
:102DD000010003A687DD83A6C7DDC9B737450020FC
:102DE000130545D1E9B737450020130505D2C1B712
:102DF000374500201305C5D2EFF03FEDD37705D05E
:102E0000538507E0EF20F16AB7B7010003A687DC1E
:102E100083A6C7DC61B737450020130585D3EFF0E3
:102E2000DFEAB7B70100D37705D007A707DCD3F7F0
:102E3000E710538507E03DB703954194CDBD03A549
:102E400001930DB78280EFD20FEA41119307B05D75
:102E50007C8323120100EF80B03AB7B7010003ABC7
:102E600087D283ABC7D2B74C00202AC69544814A8B
:102E7000014C01490144370D0020372A0020938C72
:102E80004CCE85456800EF80906489476307F9025E
:102E90008D476300F902631009023735014085450B
:102EA00013050580EF20B07C0945EF6030600D49C7
:102EB000C9BF0949F9B70549E9B7014734001946BF
:102EC00081450145EF90C062A247898BA1CBB749EC
:102ED0000020938989C8054C31473305EC0283955E
:102EE0000900050C89096695EFF03FDC9D473147E5
:102EF000E315FCFEA947B377F402054C63929702F1
:102F0000FD1493F4F40F91E0A54437350140854555
:102F100013050580EF20B075014C19A0E31C0CFCD3
:102F2000A247918BA1CF856A93098A51938A0A7728
:102F3000CE9A8395090001458909EF500076239FB9
:102F4000A9FEE3983AFF13058A51EFF09F9A930583
:102F5000210013058A51EFF07F9BAA86094693054D
:102F6000610013058A51EFF0FF82894A050413744A
:102F7000F40FA547E3F787F0014421B7E3880AFE81
:102F80002C831307905D9387F5FFC207C1836360AD
:102F9000F704094613058A51EFF07F90D30705F037
:102FA0004C0093890193539517C042054181EF501E
:102FB000C00BD37715D0538507E0EF20914F5A8689
:102FC000DE86EF10D159EF20915923A0A900832765
:102FD0000D1E0567130787BBD8C398430945814A6F
:102FE0001367170098C3EF60704C49B7EFD20FD149
:102FF000AE8985452A843289EF300059B705020031
:103000002285EF3000627DF985452285B7040300F3
:10301000EF3000598504054AA6852285EF30005F10
:10302000E31C45FF01469305A00D2285B704070068
:10303000EF30A05C93842408054AA6852285EF30F2
:10304000E05CE31C45FFCE852285B7040700EF3026
:10305000005A938444088549A6852285EF30005B99
:10306000E31C35FFCA852285B7040700EF302058DE
:10307000938444080549A6852285EF302059E31C36
:1030800025FF85452285EF3040536FD06FCAEFD2C0
:103090000FC6ED6937090010370A0300B70A0700A9
:1030A0002A84AE8B328BB684194C938989CF13094D
:1030B0000904930C2A00138D4A089C206360FC00CD
:1030C0008A07CE979C438287B70502002285EF309E
:1030D000405565F585452285EF30804C85479CA09D
:1030E000E9BF93051A002285EF3040528547E31669
:1030F000F5FC01469305A00D2285EF30005089476D
:10310000F9BF93852A082285EF3040508547E316A2
:10311000F5FADE852285EF30804D8D47C9B7EA8507
:103120002285EF30A04E8547E319F5F885452285C5
:10313000EF300047914765B793051A002285EF30BD
:10314000E04C8547E31BF5F605469305A00D228567
:10315000EF30A04A954761B7E6852285EF30004BF6
:103160008547E31CF5F499479DBFCA852285EF305A
:10317000404B21D581452285EF30C0452285EF3077
:1031800040472300AB0085452285EF3000430545CD
:103190006FD06FB9EFD2AFB541111305803EEF800C
:1031A000B03F37B50100B7540020130505DA6D6A4A
:1031B000938484CFEF30F14E81490149130A4AD1FB
:1031C000138BA4000509420913590901E54763FB64
:1031D0002701914537150140639D0902EF50503F8B
:1031E00085490149EF80D001AA8A0544374C002067
:1031F000EF80100133055541D14763F0A70299478D
:10320000E302F4FC37B50100130545DBEF307149EB
:1032100055BFEF50F03C8149E9B79307E4FF93F7BE
:10322000F70F11476366F7008A07D2979C4382879E
:103230003765004029469305000313050580EFF02C
:10324000FFDA0944A307010065B73765004093061C
:10325000F1001306E1009305000313050580EFF06C
:103260001FE38547E316F5F81C87A18B91E30D4416
:10327000A3070100B5BF376500409306F100138630
:103280008400994513050580EFF07FE08547E31141
:10329000F5F6A30701001144A1BF3765004093066E
:1032A000F100138694009D4513050580EFF03FDE85
:1032B0008547E31FF5F2A3070100154415BF3765E5
:1032C00000409306F1005A86A14513050580EFF0F2
:1032D0001FDC8547E31EF5F080248834B7078000A3
:1032E00042042205498CA824938C4194498C63F3B1
:1032F0008702EF009044B70700FF3E943354A402C6
:1033000023908C0083950C0013054CCE1944EFF0EC
:10331000DF99F9BDEF0070423355A4022390AC0051
:10332000D5B70545EF805027E1B57300203037B59C
:1033300001001971130505DE82FE86FC8AFA8EF8FB
:1033400092F696F49AF29EF0A2EEA6ECAAEAAEE805
:10335000B2E6B6E4BAE2BEE042FE46FC4AFA4EF8F5
:1033600052F656F45AF25EF062EE66EC6AEA6EE8E5
:1033700072E676E47AE27EE0EF30B132EF90B02888
:10338000AA8537B50100130545DFEF30911FEF9097
:10339000F027AA8537B50100130545E0EF30711E0F
:1033A000EF903027AA8537B50100130545E1EF30CE
:1033B000511D01A0317106DF16DD1ADB1ED92AD797
:1033C0002ED532D336D13ACF3ECD42CB46C972C785
:1033D00076C57AC37EC182FE86FC8AFA8EF892F6A2
:1033E00096F49AF29EF0A2EEA6ECAAEAAEE8B2E655
:1033F000B6E4BAE2BEE042FE46FC4AFA4EF852F6A5
:1034000056F45AF25EF062EE66EC6AEA6EE872E634
:1034100076E47AE27EE0EF40801613050008EF20A4
:10342000B07CFA50EA525A53CA533A55AA551A5622
:103430008A567A47EA475A48CA483A4EAA4E1A4F1D
:103440008A4F7670E6705671C6713672A672167320
:1034500086737664E6645665C6653666A666166744
:1034600086677278E2785279C279327AA27A127BD0
:10347000827B726CE26C526DC26D326EA26E126F04
:10348000826F296173002030197182FE86FC8AFAEE
:103490008EF892F696F49AF29EF0A2EEA6ECAAEAC4
:1034A000AEE8B2E6B6E4BAE2BEE042FE46FC4AFA54
:1034B0004EF852F656F45AF25EF062EE66EC6AEAA4
:1034C0006EE872E676E47AE27EE0EF40606A76705B
:1034D000E6705671C6713672A6721673867376647C
:1034E000E6645665C6653666A666166786677278B0
:1034F000E2785279C279327AA27A127B827B726C3C
:10350000E26C526DC26D326EA26E126F826F0961F3
:10351000730020301971294582FE86FC8AFA8EF8E4
:1035200092F696F49AF29EF0A2EEA6ECAAEAAEE823
:10353000B2E6B6E4BAE2BEE042FE46FC4AFA4EF813
:1035400052F656F45AF25EF062EE66EC6AEA6EE803
:1035500072E676E47AE27EE0EF3070248545370546
:103560000040EF3070067670E6705671C6713672A4
:10357000A672167386737664E6645665C66536660B
:10358000A666166786677278E2785279C279327ACF
:10359000A27A127B827B726CE26C526DC26D326ECB
:1035A000A26E126F826F096173002030EFC2BFF606
:1035B000B75400201306A0038145138584D0EFC0C3
:1035C0009FF80947930640061306A003938584D00D
:1035D0000145EF403012894751E5138484D014200F
:1035E000130730038147638FE60613068002814587
:1035F00013052401EFC03FF5B70704019387371384
:103600001CC0B7C7FAF09387E77B5CC0B7B7010A65
:103610009387078C1CC4B7B701019387078C5CC4E0
:10362000FD571EA83CA809479307601F9306803EDC
:103630001306A003938584D001455EA8EF40D019FE
:1036400019E537B50100130545E2EF30910509474B
:10365000930640061306A003938584D00145EF40EE
:10366000700985473E856FC05FEDB757002093878F
:1036700087D03E950CA1A1810CB18280EFC2BFE939
:103680002A84EFF09FFEB7550020938585D0094727
:10369000A9460946A2952285EF4010146FC0FFE9A4
:1036A000EFC27FE7B7570020938787D0AA978CA3F4
:1036B0000947A9460546BE85EF4010126FC0FFE7D7
:1036C000B7570020938787D0AA979833882322077B
:1036D000598D8280B7570020938787D0AA97983357
:1036E000A82322074205498F8823498FA833620502
:1036F000598D8280B7570020938787D03E95082147
:103700008280B7570020938787D03E9593D7850056
:103710000CA11CB193D70501E1813CA12CB18280A1
:10372000EFC27FDF2A84EFF0DFFDB75500209385DD
:1037300085D00947A9461146A2952285EF40D009B8
:103740006FC0BFDFB7B7010003A547E38280EFC2B8
:103750009FDC0111AA8413058003EFF07FF62A8411
:1037600068004482EF50D07B4808EF50F07E1D4542
:103770003305A4028347C1013886A946DC82E247AB
:1037800078841D465C838347D1011305A503420558
:10379000DC831C8709474C0041815C85EF40D003E6
:1037A00013051400420541819307B01263F3A7008B
:1037B000014537540020930784D08ABF1305600366
:1037C000EFF01FF09307B012930584D063E4A700D5
:1037D0000505EAB90947A94611469385650313050E
:1037E0006003EF40607F05616FC03FD5914763E0A4
:1037F000A704EFC25FD2ED67938787E30A053E9582
:103800001C41828785659385058037250140130516
:103810000580EF50405B1375F50F6FC01FD28565B3
:10382000EDB78965DDB79165CDB7A165F9BF0145F4
:103830008280954763E5A704EFC2FFCDED679387CC
:10384000C7E40A053E951C4182879305000437258D
:10385000014013050580EF5000576FC01FCE930540
:103860000002F5B7C145E5B7A145D5B79145C5B744
:103870003715014093050010130505C0E9BF014548
:103880008280EFC25FC985476309F50211C5894788
:10389000630AF5026FC07FCA89E9A1453715014067
:1038A000130505C0EF50C052F5B7A14537150140CB
:1038B000130505C0EF50C052F1BF99E1C145F9BFF2
:1038C000C145EDB781E593050002C9BF930500022C
:1038D000F1BFEFC25FC47971A9473ED23ED0B7377E
:1038E00000009387C77E4C0801453ED602CCEF40CE
:1038F000301C4C080545EF40B01B4C080945EF4013
:10390000301B4C080D45EF40B01A4C081145EF40F4
:10391000301AB7470000938727882C0001453EC81E
:1039200002C6EF40500E2C000545EF40D00D2C0094
:103930000945EF40500D45616FC03FC0EFC2BFBDAC
:10394000011199475C84938701953EC893878195BF
:103950003EC6B7071464D1073ECA8947230CF1005D
:10396000B74700009387278328003ECEEF40B02A58
:1039700005616FC09FBCEFC21FBAEFF03FFCEF4084
:10398000F028EF806041EF40D02DEF409015C5BF8B
:10399000EFC2DFB679713714014002C602C802CA0D
:1039A00002CCEF502044F146014613050480C14586
:1039B000EF50203E130504C08D45EF50803B1305AA
:1039C00004808D45EF50E03A930500033715014020
:1039D000EF50203A130504809305400CEF506039F6
:1039E000B72401401385048093050078EF506037B9
:1039F00013050440B165EF50C036856537150140A9
:103A0000EF502036130504408D45EF5080351305E7
:103A100004409305000EEF50C03413050440914557
:103A2000EF502034130504408565EF508033E146A4
:103A30000146130504C0A965EF50A0359307800423
:103A400011696C08130504C03ED2231E2101231FF7
:103A500001002310010223110102EF209019130528
:103A600004C08565EF50E02F8569F14601469385D6
:103A700009C0130504C0EF50C0319145371501400E
:103A8000EF50202E1305044093050004EF50602DE5
:103A9000370613808D65E146410613050440938582
:103AA00005A0EF50002F130504C093058003EF50CD
:103AB000402B938509C037150140EF50802A1385AC
:103AC00004809305C007EF50C02B130504C0930575
:103AD0000010EF50002BC16513850480938505808D
:103AE000EF50202A81450145EF20605C130504401A
:103AF00093050004EF50C02D130504C0930500206A
:103B0000EF502026B70930801386290013850480E2
:103B100091468945EF50E0271386290013850480DC
:103B2000E1468545EF50E026E14601461305048055
:103B300093050040EF50E02585451165EF20B0501A
:103B40001145A12EEFE03FFCB7B51D0065469385FA
:103B500095150945EF604046930500020945EF6061
:103B6000401695659D461306803E938505E22145E6
:103B7000EF6020511306401F9D452145EF60805E98
:103B80002145EF60A0662145EF604012B757050060
:103B9000938707733EC6B70700406C00854605460D
:103BA0003EC80545B70700043ECA231C2101EF505B
:103BB00040410545EF50A03F894768083ED602CEF8
:103BC00002D002D202D4EF401043EFF09FD005455F
:103BD000EF40202045616FC0BF95EFC2DF93B7571C
:103BE00000202382A7D41145EF60400C1306400645
:103BF000FD550945EF8090046FC03F9413850196F1
:103C00008280EFC2DF8E37140140130504409145D6
:103C1000EF50001D1305044093050008EF50401CB1
:103C2000856537150140EF50A01B2945EF80C01670
:103C3000856537150140EF50A0192945EF80C01563
:103C40001305044093050008EF508018856537156B
:103C50000140EF50E0182945EF80001485653715C5
:103C60000140EF50E0162945EF800013930500084E
:103C700013050440EF50C0161305F003EFF0FFF5F5
:103C80000545EF8060119305000813050440EF50CF
:103C900020141305F003EFF05FF40545B759002039
:103CA000B7540020EF80400F93894915375A002000
:103CB00013040440938444D4A14B7D5685450145AB
:103CC000EF80C07703A949031306004013054AD5C6
:103CD000CA85EF20412D75D1CA8513060040130512
:103CE0004AD5EF20A12E930A4AD501499305000831
:103CF0002285EF50E00E13050004EFF01FEE136B6A
:103D0000890B5A85EFF07FED930500082285EF506F
:103D1000200C13050004EFF05FEC5A85EFF0FFEB89
:103D200093070008114523A254019CC4238004007A
:103D3000239604000509EF50707713064006FD55E1
:103D400009451379F90FEF80606F938A0A08E31F22
:103D500079F9A5B7EFC22FFCB71401402A84138567
:103D60000440EF506007935524409317E4008D8979
:103D7000DD8D9167F1177D8DC98DC205C1811385D8
:103D80000440EF502005B724014013850480EF5014
:103D9000A0040E041375F58713740478498C9315E9
:103DA0000401C18113850480EF50C0026FC0EFF899
:103DB000EFC26FF683C7419641113754002002C607
:103DC00093844196130444D4A5EB3719014093051D
:103DD000000213050940EF50A0001C208565130563
:103DE000094085C7EF40D07F0820EFF0BFF62314CD
:103DF000040037150140914513050540EF40507D03
:103E000085479CA041016FC04FF3EF40707C5A245E
:103E10009307F003930500081305094063EBE700DF
:103E2000EF40107B3A245C40BA978823EFF09FF272
:103E3000C9B7EF40F07AFDB737150140914513053A
:103E40000540EF40F0795E241307F0078507C207AD
:103E5000C1836361F7045EA43E241A248507C20768
:103E6000C1833EA463E5E7021145EF60E00D03A5C1
:103E700001967C0001478D4605468945EF80F00F8D
:103E8000B24791C7B7E700E0116723A0E72023807E
:103E900004008DBF23160400C1B7EFC2CFE7B746B9
:103EA0000000B7B50A0085470147938606DB054643
:103EB000938505E6EF604014371501409305000235
:103EC00013050540EF40D07137540020ED65814661
:103ED0000146130544159385C58BEFC0BF83E56587
:103EE0009385C56313054415EFC07FE6130544159C
:103EF000EFC01F806FC06FE4EFC2EFE10945EF2014
:103F00006075EF106070EF80D05AEF10102AEF103C
:103F1000D026EF10700AEFD03F8CEFF07FA77165CD
:103F200013050520EF80106237B50100130545E643
:103F3000EF203177EF70102301A003D5E18182805B
:103F4000391542054181B14763E3A70CEFC2AFDCED
:103F5000ED67938747E70A053E951C418287B7576F
:103F6000002083A507210145EF40E018D30705F0A5
:103F70002946539517C0420541813306C502854540
:103F800015A0B757002083A547210545EF40A0168F
:103F9000D30705F029468945539517C0420541814D
:103FA0003306C5022145EF60E01B2145EF60002488
:103FB0000DA8B757002083A587210945EF40A0131E
:103FC000D30705F029469145539517C04205418115
:103FD0003306C502C1BFB757002003D7C720239FB0
:103FE000E1806FC08FD5B757002003D6E72041BFCF
:103FF000B757002003D52722EFE05FA3DDB7B757FF
:10400000002083D547220145EF20600AD9BF828076
:1040100089C5B295AD4763DCB700054582807D1642
:104020002300050042060905A30F05FE418265FA3B
:1040300001458280638E050EEFC24FCCB387C50069
:10404000130790022A892E84B28905456341F70C33
:10405000B1CA05470145639CE60AB75400201385A1
:10406000F5FF139715009384841E420513940701EE
:10407000BA944181418093091500C20993D909017D
:10408000890463858908834709000909A207239EDB
:10409000F4FE0347F9FFD98F239EF4FEEFF05FEAA9
:1040A0004E85D1BFB7540020938A841E014A938461
:1040B000841E254B5285EFE05FC5B7B70100D307DB
:1040C00005F007A787EA050A910AD3F7E710539589
:1040D00007C0D37705D0D3F7E71827AEFAFEE31B66
:1040E0006AFD2545EFE07FC2D30705F083D7E18164
:1040F000539517C00604DEB0D37705D02694DCF8BC
:10410000EFE0BF94AABC09046395090001456FC0A4
:104110002FC28357C4FFFD190909A183230FF9FE9C
:104120008357C4FFC20993D90901A30FF9FEE1BF68
:1041300005458280EFC2AFBB9389F5FFC20993D9D1
:1041400009013387C9008D4763C7E70C935A3600CE
:1041500013D939003284AA84138A1A0093F979009A
:1041600095CE854701456396F608375A0020268B81
:10417000338C2A01930C8A1E631F890713767400FF
:10418000D69401CA942013058A1ECE854A95EFE085
:10419000EFAC13058A1EEF40200A99A8B75B0020F8
:1041A00013858B1EEF40600C268B938B8B1E33097F
:1041B000994033052B01420541812146CE855E950C
:1041C0007D1AEFE00FB1050B420AA30FABFE135AA5
:1041D0000A01E3100AFE1D882146018E1374F50FB3
:1041E0003314C4001374F40FD6943354C44080A025
:1041F00001456FC04FB3930B190083460B00C20BF0
:1042000033852C0193DB0B012146CE85EFE00FA512
:10421000050B5E8995B70545E9BFFD15C205C1814E
:104220003387C500954763CCE706EFC24FAC375BD9
:1042300000202A84935A360093DB350013058B1E29
:10424000B28493F9750013891A00EF408015228A11
:10425000130B8B1EB38B8B4033057A0142054181D2
:104260002146CE855A957D19EFE0AFA6050A420991
:10427000A30FAAFE13590901E31009FEA1479D8867
:10428000B38497409377F50FB397970093F7F70FA1
:104290005694B3D797401CA001456FC0CFA80545E1
:1042A0008280EFC24FA75545EFF09FC95D45EFF003
:1042B0003FC965451564EFF0BFC88144130404B0DD
:1042C0000545EFF02FC32A890545EF70F02C85478F
:1042D0006310F9020547A2860D4685450545EFE0C6
:1042E000CFA211C1F1DCEFE02FB219C58544C9BFDF
:1042F0000145EFE08FABF5B7EFE02FB3FDB7EFC2AD
:104300008FA1ED6737550020938707FD1307A003A2
:10431000930600080146814513054515EFC0AFB46B
:104320006FC0AFA1EFC22F9FEF40E00D184123A255
:10433000E1986FC08FA0370700201307C70B814794
:10434000B54610236309A600850793F7F70F5107B9
:10435000E399D7FE85473E858280954763E0A708AD
:10436000EFC26F9BED679387C7EA0A053E95184138
:10437000B7070020138411989387C70B0287182072
:10438000D1463307D702BA97A82B01C5EFF0BFFA81
:1043900008A06FC08F9A1820D1463307D702BA976A
:1043A000882BE5B71820D1463307D702BA97C8271C
:1043B000E9BF1820D1463307D702BA97E827F1B7EB
:1043C0001820D1463307D702BA97A8277DBF1820F7
:1043D000D1463307D702BA97882745BF8280938793
:1043E00001972382070023A0070003C711985146B5
:1043F000B70700203307C7029387C70B0146938690
:104400000197894505481545BA97D8438147110753
:10441000832807006397B80011EA3386F6000CA2E0
:10442000054685074107E395A7FE8280B388F6001D
:1044300023800801FDB701479386019709459545FB
:104440003386E600034806009377F70F6316A80249
:10445000054718A2154791450545850793F7F70FBE
:1044600063F3F50081473386F60003480600631ABC
:10447000A80089471CA282800507E313B7FC954773
:10448000D1BF7D171377F70F69FB828001479386B1
:104490000197094595453386E60003480600937762
:1044A000F70F6312A802054718A2154785458DC36B
:1044B000FD1793F7F70F3386F6000822631CB5004B
:1044C00089471CA282800507E317B7FC9547F1BF17
:1044D0009547D5B77D171377F70F71FB82802A8830
:1044E0007D1619456367C50CEFC2EF822E85ED6519
:1044F0000A06938545EC2E9610420286631C08003E
:10450000EFF04F9F42054181239BA196A385019621
:104510006FC0AF82EFF0CF9AC5BF83D561976317A5
:10452000080093F5F50FEFF0AF97DDB7EFF00F95BB
:10453000C5B71387B1961C23850793F7F70F63F46C
:10454000D7001CA3F1B723000700D9B79387B19612
:10455000982319E394A36DBF7D1798A355BF83C615
:10456000B1969387619793952600B70600209386AE
:10457000C608AE9692239442B2966364D70096A37F
:1045800041BF9AA371B783C6B1961387619793957C
:104590002600B70600209386C608AE9612239442E2
:1045A000B305F64063E5D500158E12A395B71EA39B
:1045B00085B78280D38607F0FD15994763E4B70E6F
:1045C000EFB27FF5ED67938707EE8A05BE959C41B4
:1045D000B68432848287EFF0EF9623ACA1962694BE
:1045E000A38581966FB07FF583A58197EFF04F93F8
:1045F000D5BF1387B1961C23850793F7F70F63F494
:10460000C7001CA3C5B723000700E9BF9387B19675
:10461000982363E4E60090A3F1B77D1798A3D9B778
:1046200083C7B196B7060020530707F09386C608E4
:1046300013972700BA969C4293868197D3F717D099
:104640009462D3F7D700D387E7A099CF83D7619738
:10465000D3F707D0B70700209387C709BA979863A5
:10466000D3F7E7009CE2BDBF98E2ADBF03C7B196A8
:1046700093172700370700201307C7093E971063D9
:104680001387819718635377D708D306E6A089CAA2
:1046900083D76197D3F707D0D3F7C7081CE399B73F
:1046A00014E389B78280FD15994763E5B71EEFB221
:1046B000FFE4ED679387C7EF8A05BE959C41AA8406
:1046C000828701441389C19791493385840042054B
:1046D0004181EFF02F82B307890088A30504E31618
:1046E00034FFA38501966FB0BFE401441389C197DD
:1046F0009149B3078900338584008C2342054181A9
:104700000504EFE0FFF9E31634FFF1BF03C7B196EC
:10471000B9469387B19605071377F70F63EFE60065
:1047200098A398238D461376B70F6305D600AD4640
:10473000E31BD7FA050798A37DB723800700D5B7F9
:1047400083C7B1961387B19691CF9386F7FF93F6FF
:10475000F60F93F5B60F0D466388C5002D466385A9
:10476000C600B6871CA341B7F917EDBF83C7B19642
:104770003706002009479385C1971306C608636F63
:10478000F7008A07B297B8319C43BA971307F00F26
:104790006364F700BCB181BFFD57EDBF194763618A
:1047A000F702F11793962700B296B8219C42BA9768
:1047B0001307F00F6364F700BCA135B7FD57EDBFD9
:1047C00029476362F702E1178A07B29798319C4341
:1047D000BA971307F00F6364F7009CB129B77D57B0
:1047E000A38EE19609B7138747FF8D473367F7021A
:1047F00094210A0732971C431307F00FB69763649E
:10480000F7009CA1CDB57D57238EE196E9BD83C706
:10481000B1963706002009479385C1971306C6084D
:10482000636EF7008A07B297B8319C436365F7005F
:104830001D8FB8B14DBDA381050075B519476360E3
:10484000F702F11793962700B296B8219C42636550
:10485000F7001D8FB8A141BD2381050069B5294727
:10486000636CF700E1178A07B29798319C43E368BD
:10487000F7F61D8F98B185BD138747FF8D473367C6
:10488000F70294210A0732971C43E3EEF6F69D8E59
:1048900094A191BD82806D1593170501C18369476D
:1048A0006368F7006D65130545FB3E95082182801E
:1048B00001458280EFB29FC40111AA892E84B2847F
:1048C00081C683C7B1969CA219C385471CA34E8598
:1048D0003AC2EFF05FFC9387F9FFC207C1839306EA
:1048E00000022A8963EBF630ED668A07938686F12B
:1048F000B6979C431247828795C0A1476380F40412
:10490000B7B7010037B7010083A787380327C73837
:1049100089461146A685EFF0FFC931A8EFE09FE276
:10492000EF102139AE86B7B501002A869385053B85
:104930002285EF20C15705616FB09FBF03D66197F5
:10494000B7B501009385053B2285EF204156E5B7B9
:1049500063850416A147638CF40081471307703EFA
:1049600089462686CA850545EFF07FB7E9B703D6A5
:104970006197B9A2EFE06FB9D30705F0B7B50100B1
:104980009385453C539607C0C1B791C8A147638C36
:10499000F400096781471307F7708D46D9B7EFE038
:1049A0003FD22A8619A003D66197B7B50100938537
:1049B000C53C59BFEF10C002EDB7EF10E003D5B70B
:1049C000B7B501009385C53D2285EF20A152A5B75B
:1049D0000545EF30D01B11C5B7B501009385453EA5
:1049E000E5B7B7B501009385853EF9BF4808EF20CC
:1049F00000598348910103488101834771010347AE
:104A000061018346510103464101B7B50100938519
:104A1000C53E2285EF20A14939BFEF00107C8947B0
:104A2000630AF500B7B501009385053A2285EF20AA
:104A3000014811B7B7B5010093850539C5BF81C8D5
:104A4000A1476389F404A685EFF0FFC5EDB5EFE05B
:104A50007FCA2AC61305190042054181EFE09FC9AC
:104A60002AC41305290042054181EFE0BFC82AC2CC
:104A70001305390042054181EFE0DFC71247A24626
:104A80003246AA87B7B501009385C53F2285EF203E
:104A9000014255B51386C1973C3238221432102298
:104AA000D5B799C8A147E384F4EC81471307703E5A
:104AB0008D462686D14545BD5145EFE07FC02A860B
:104AC000B7B501009385C53B41B52545EFE0EFA3A0
:104AD000D30705F0B7B5010093850541539617C07C
:104AE0004206418295B54808EF4090430347610173
:104AF0008346510103464101B7B5010093858541C5
:104B00002285EF20C13A05BD4808EF40F044034735
:104B1000D101E2460346C101C5B79DC4A147E38860
:104B2000F4E4B14715456386F900B5476391F9028E
:104B30001D45EFE03FBC1317050141839307400675
:104B400089462686CA8589A0EFE0DFBA8DBF154564
:104B5000EFE05FBA93170501C1831307F00FCDB7DC
:104B600013056003EFE0DFB52A86B7B50100938532
:104B70008542D9BB81CCA147638EF40085471307DA
:104B800040068946268689450145F9BB0945EFE07F
:104B90007FB6D9BF03D66197C9BF2300070099CC60
:104BA000A1476396F40283D7619713972700B7074D
:104BB000002093870708BA978C4339B5EFE09FB37D
:104BC000B70700200A0593870708AA97F5B79387C8
:104BD00099FFB337F00009478146A5B7EF00D00F22
:104BE0002AC2EF00900E1246B7B50100AA8693853F
:104BF00005432285EF20A12B3DBBE30E04D2B7B5C0
:104C0000010093854545C9B38147138701978945BD
:104C10001546B306F70088226311B504EFB2BF8FC3
:104C20000D4798A283C61198514637070020B386D6
:104C3000C6021307C70B92070D46814536975843A6
:104C40008146BA97CA2701472396A196EFF09FC6DF
:104C50000547A382E1966FB05F8E8507E39BC7FA95
:104C60000547A382E19682808147138701978D458E
:104C70001546B306F70003C80600631FB802EFB27B
:104C80009F89094798A283C61198D145370700200C
:104C9000B386B6021307C70B92072A86814536975B
:104CA00058438146BA97CA270147EFF0BFC009476A
:104CB0002380E1986FB07F888507E39CC7FA094796
:104CC0002380E1988280EFB21F82138941980325E7
:104CD00009007971B7040020EF60C06D138411984A
:104CE0009384C40B29CD032509009389819601463D
:104CF00093858196EF60A0558547AA8A6311F504D4
:104D00001389019803C609008345090037B50100DE
:104D100013058545EF20E10603C719009307000836
:104D2000631FF7008347090009476388E7060D47BB
:104D30006385E71089E703C50900EFF00FE21C2047
:104D40005147B387E70213890197854A130B00087F
:104D5000BE94C040B754002013854415EFB05F994E
:104D6000930B04055C4063895713638F0710094751
:104D70006384E7161C2089E741040509E3948BFE50
:104D80001387A1961C23A946850793F7F70F63E5C0
:104D9000F6261CA345616FB0CFF803CA0900630271
:104DA0005A05630D0A006306FA068D47E319FAF8FF
:104DB00083C75196A5CFEFF06FED51B7938751960A
:104DC000982301C7238007009DBF1C205147230063
:104DD0000900B387E702A697A82BEFF0CFD508A06C
:104DE000B9BF9389519683C5090037B501001305F2
:104DF000C546EF10117983C7090099C78D47230075
:104E0000F900EFF07FE025BF23804901EFF02FDDAF
:104E10003DB783C7519681C7EFF0EFE10DB71C2076
:104E20005147B387E702A697C82745BF1C205147C3
:104E3000B387E702A697E8274DB783C70900154750
:104E4000E36FF7EE6D678A071307C7F9BA979C43BC
:104E500082871545EFF05FE1DDB51945E5BF0147F4
:104E60008146054603D5C1968145EFF0BFA4C1BD7B
:104E7000014781460946FDB7014781461146DDB726
:104E8000014781461D46F9BF144430200C3013857C
:104E90004415EFB07FE4F9BD8349240014440C307D
:104EA0004E8613854415EFB03FE34A249306A101D3
:104EB00001461307B1016C08EFF0DF9F6C08138502
:104EC0004415EFB0BFEA9375F50FB305BB40C205BB
:104ED00074084E86C18165BF034A240014440C3017
:104EE000528613854415EFB03FDF034709008D4715
:104EF0004A2421466303F70001461307B1019306D4
:104F0000A1016C08EFF01F9B6C0813854415EFB0EE
:104F1000FFE583C701989379F50FD5C703470900CB
:104F200063F3EA0A93970901C183B30DFB40C20DF5
:104F3000894693DD0D016311D70403C7519641C71C
:104F400083C6A19615476360D70813066AFF420619
:104F5000BE862D474182EE85138544153EC6EFB0CF
:104F60004FF5814513854415EFB09FF185451385B5
:104F70004415EFB09FC7B247834609000D476394BD
:104F8000E6040347B10113066AFF4206418263113A
:104F900057078345A101E9572D478505B385F502DC
:104FA000994693850508C205C18113854415EFB064
:104FB0004FF0894513854415EFB09FEC8545138567
:104FC0004415EFB09FC2B3053B41C2057408528639
:104FD000C18113854415EFB03FD013854415854535
:104FE000EFB01FEA814513854415EFB01FC059B3D8
:104FF0002D47BE86EE8555BF2300070061BBEFB28B
:10500000EFCF7C45032A0507832A450703A907003C
:1050100083A947003C45232C2505232E35059843BD
:10502000DC432A8438D17CD15286D6864A85CE8507
:10503000EFF0B03C6357A000232C4405232E540509
:1050400029A8032A8406832AC4064A855286D6865E
:10505000CE85EFF07045E34105FE6FB06FCD5C414A
:10506000638B07165449D147014763E7D716EFB260
:105070008FC738452A8B4111032907008329470030
:1050800038494A86CE8608434C43EF00C1180326B0
:105090000B0683264B062AC42EC64A85CE85EF0012
:1050A000811703268B038326CB032A8AAE8A2245E7
:1050B000B245EFF0D04A03268B058326CB05EFE0FF
:1050C0009065832B0B00232CAB04232EBB042A8476
:1050D000AE8463940B0203260B0383264B03528595
:1050E000D685EFF0D0472A86AE862285A685EF00CA
:1050F0008112232CAB04232EBB04032D8B05832D9F
:10510000CB0583240B0703244B076A852686A286DA
:10511000EE85EFF0902E635FA008232C9B04232ED6
:105120008B04014C814C638C0B0003260B038326FC
:105130004B032245B245EFF090422A8CAE8C0326F9
:105140000B0483264B045285D685EFF050412A8606
:10515000AE8603258B058325CB05EF00C10B628648
:10516000E686EFE0505BAA8A2E8A2A86AE862685DE
:10517000A285EFF070336340050283248B0603247D
:10518000CB065686D2862685A285EFF0102763448B
:10519000A000D68452840327CB0404C340C3232039
:1051A0002B0723223B0723280B0005473A854101A3
:1051B0006FB02FB7032C8B06832CCB066A856286D3
:1051C000E686EE85EFF0502EE35D05F4232C8B058B
:1051D000232E9B05B9B701473A858280EFB2AFB362
:1051E0001384F5FF8547AA84133414006396F500F1
:1051F0005C4199E3EFF0BFE0C0C06FB00FB4EFB215
:105200000FAFB2892A842E89368A36862E85BA86D1
:10521000CE85BA8AEFF0701E635B05085C402324DC
:1052200024072326340723284407232A5407C1C30D
:1052300064445285D68503AB040083AB44005A8690
:10524000DE86EFF07026635B050223A0440123A2F3
:105250005401032A8405832AC405032904078329EA
:10526000440752854A86CE86D685EFF010196354DE
:10527000A002232C2405232E340515A85A86DE8689
:105280004A85CE85EFF07017E355A0FC23A02401DA
:1052900023A234017DBF032984068329C4065285D5
:1052A0004A86CE86D685EFF03020E34405FC6FB009
:1052B0008FA7EFB2CFA3B2892A842E89368B2E8591
:1052C00001468146CE85BA8B3E8AC28AC684EFF0FB
:1052D000B01D6344050C014681465A85DE85EFF01A
:1052E000B01C634C050A014681465285D685EFF015
:1052F000B01B6344050A04C44848FD1493B4140069
:105300002320640323227403232444032326540309
:1053100004C0232C2401232E3401EF00A17AB7C747
:10532000010003A687BA83A6C7BAEFF0C0312A8668
:10533000AE862A8CAE8C5A85DE8523282403232A48
:105340003403EFF0D02108DC4CDC2A8BAE8B528585
:10535000D6856286E686EFF0002F584428C06CC0E0
:1053600085472A8AAE8A631AF7024A86CE860145A5
:105370008145EFF0506A08D84CD85A86DE86014540
:105380008145EFF0506908DC4CDC5286D686014539
:105390008145EFF0506828C06CC06FB0CF98EFB275
:1053A0008F975C412A84AE8485CF5C45638AB702BF
:1053B0001059545981450145EFF0F065105C545C7B
:1053C00008D84CD801458145EFF0F0643040744076
:1053D00008DC4CDC01458145EFF0F06328C06CC06F
:1053E00044C46FB08F95EFB26F91BE89B7C701000B
:1053F0003A8903A707BA83A747BA2CC5B2557CD907
:105400009307400670C534C938D95CC9232205000A
:1054100023240506232605062A84428AC68AEFF03D
:105420001FF88257A25812585687D286CA854E86D0
:105430002285EFF01FE85848D147998F1CC86FB0FC
:105440002F8F6359B004EFB26F8B2A842E85AE8400
:10545000EF0041602A894848AE89EF00A1662A869C
:10546000AE864A85CE85EFF0001E2A89AE892A864F
:10547000AE86085C4C5CEFF0900E08DC4CDC2840FB
:105480006C404A86CE86EFF0001C28C06CC044C831
:105490006FB00F8A8280EFB20F880145EF20106055
:1054A0001DC11387C1981C239306B003850793F78A
:1054B000F70F1CA363F9F6009387819894432300A8
:1054C0000700850694C36FB04F8703A581989307A3
:1054D000C0033375F502828003A581989307C0034A
:1054E0003355F5028280EFB20F832A84130520031F
:1054F000EFE04F9EB755000023A4A1988D460546C6
:10550000938565492285EF40A0066FB00F83B717DA
:1055100002409843B706FFF841111367170098C37C
:10552000D84337060200758FD8C39843B706F7FEF5
:10553000FD16758F98C39843B706FCFFFD16758F4F
:1055400098C3D843B70681FFFD16758FD8C398431B
:10555000B70600ECFD16758F98C33707FF0098C794
:1055600023A6070202C402C69843C166558F98C39A
:10557000B716024005679C42F18F3EC6A2478507D9
:105580003EC4B24781E7A247E397E7FEB717024060
:105590009C431397E7006357070685473EC632478B
:1055A0008547631FF704B7170240D843B706C1FF0A
:1055B000FD16D8C3D843D8C3D84313670740D8C310
:1055C000D843758FD8C3D843B7061D00558FD8C3AD
:1055D0009843B7060001558F98C398439316670008
:1055E000E3DD06FED843B7160240719BD8C3D8430B
:1055F00013672700D8C32147DC42B18BE39EE7FE47
:105600004101828002C661BF371602405C4291466A
:10561000B18B138701826385D700A1466388D702C7
:10562000B7177A00938707201CC3B7170240DC43E3
:10563000918393F6F700B70700209387071CB6976E
:1056400094231C43B3D7D7001CC3828054425042DA
:10565000C167C982BD8A7D8E9387260085CABD46F3
:105660006389D702C1466389D702C54581466393E2
:10567000B700C1470DE63746024003260680418A3F
:1056800015C637167A00130606202DA08146C94795
:10569000D5B78546B547F9BF8146BD47E1BF371647
:1056A000024050429315E600E3DD05FC37163D004D
:1056B00013060690B387C7021CC3A5DA1C43858373
:1056C000A5B7EFA25FE5EFE0FFC5EFE05FC3EFE056
:1056D000EFD2084101478D4605468145EF60706F66
:1056E000EFD0DFEC13351500EFF0FFDF0565130594
:1056F00085BBEF60606A0545EFD0DFFF01E50D4532
:10570000EFD05FFF854713840199631AF502EFB06C
:10571000BFF10841EF60E01A0840EF60801AEFF037
:105720008FDAEFE0AFCD084101478D460546814550
:10573000EF60306A13054006EF600066CDB703A541
:105740004199C9BFEFA23FDDEF20C020EF80B02913
:1057500019C1EFC00FA60545EF600064F5B7B79714
:105760000020938787D91CC1B7870020938787596A
:105770009CC1930700101CC28280B79700209387BA
:1057800087E71CC1B7970020938787999CC193072F
:1057900000101CC28280EFA21FD803A54199EF60C0
:1057A000606E03A50199EF60E06DEFB0FFE708417F
:1057B000EF60406D6FA07FD8EFA2FFD5EFD0EFA9CB
:1057C0002A8437680020B7570020B7C50100373555
:1057D0000000130888A99387876911478546130637
:1057E0000010938505BB13054519EF60200308C021
:1057F000EFB09FE32A8437780020B7770020B7C541
:105800000100371500001308885F9387873F15470D
:10581000854613060008938545BB1305E572EF50D6
:10582000F07F08C0EFE08FBD2A8437780020B7678B
:105830000020B7C50100374500001308888493870E
:1058400087D51D478546130600209385C5BB1305E4
:1058500025C0EF50B07C08C0EFD0CF9F2A843758C6
:105860000020B7570020B7C50100373500001308E6
:10587000886393878723194785461306001093850D
:1058800005BC130565E4EF50707908C03778002037
:1058900037C40100B777002037450000930544BCAA
:1058A00013088839154785461306C02B9387878AC6
:1058B0001305252AEF50907623A8A198212AAA84BF
:1058C00037880020B7770020B7C501003765000092
:1058D0001308888593878765154785461306000852
:1058E0009385C5BC130565A2EF50507388C03788F7
:1058F0000020B787002037550000930544BC1308EB
:10590000880B9387878B1547854613060020130560
:105910004574EF50B07023AAA19837680020B7678C
:105920000020B7C5010037450000130888CF9387D2
:1059300087AF1547854613060008938545BD1305B7
:105940006597EF50B06D37880020B7870020B7C546
:1059500001003755000013088851938787111547B8
:10596000854613060010938505BE1305256CEF5080
:10597000F06AEFF05FE26FA05FBCEFA2DFB9EFB0BB
:10598000DFBA2A8437950020130585DFEF504003E6
:1059900008C0EFB0DFC82A8437950020130545E121
:1059A000EF50000208C06FA05FB9EFA2DFB6EF2092
:1059B0009025B7960020378600202A8401479386D9
:1059C00006E31306865789454145EF50605008C0ED
:1059D0006FA0BFB61385C199828003A5819A82808A
:1059E000EFA27FB303A5019A83A5419AEF00C100FE
:1059F000420541816FA07FB4EFA2FFB141111305B1
:105A00006002EFD03FD42AC60145EFD00FB0B26795
:105A1000530705F04101D3F7E710539517C042052E
:105A200041816FA09FB1EFA21FAC39711305200215
:105A300023A4019AEFD01FD1AA847945EFD09FD03B
:105A4000EF0021272AC826852ECAEF00812642486A
:105A5000D248B794002085472A879386019A301848
:105A60003EC4138584EDAE8702C60C1802C002C284
:105A7000EFF07F978545138584EDEFF02FF6B7C7DC
:105A8000010083A687BE03A7C7BE814501461385D3
:105A900084EDEFF0CFF6D145138584EDEFF07F9ADA
:105AA000B7C7010003A847BF83A707BF1D6B42D23A
:105AB0003ED0B7C7010003A8C7BF83A787BF56CE94
:105AC000014A814901491384819A26C8930BFB52EC
:105AD0003ED442D6EFD04F822A8C1945EFD09FC1D9
