:100000006F30604713000000130000001300000071
:100010001300000013000000130000001300000094
:100020001300000013000000130000001300000084
:08003000130000007300100032
:100038000000000000000000A0230000A42300002E
:1000480000000000BC3300000000000000000000B9
:10005800BE330000C03300000000000000000000B4
:10006800FC6D00000000000000020000000000001D
:10007800C6330000C8330000CA330000CC33000088
:10008800CE330000D0330000D2330000D433000058
:10009800D6330000D8330000DA330000EC5C0000EF
:1000A800BA5D0000E0330000885E0000565F000083
:1000B800E6330000E8330000F6580000EC33000097
:1000C800EE330000F0330000F23300002A24000071
:1000D800F6330000F8330000FA330000FC33000068
:1000E8008A2500000034000002340000D0640000BB
:1000F8009E6500006A660000386700000C34000046
:100108000E340000103400001234000014340000D3
:1001180016340000183400001A3400001C340000A3
:100128002E6900002034000022340000243400002E
:1001380026340000283400002A3400002C34000043
:100148002E34000030340000323400003434000013
:1001580036340000383400003A3400003C340000E3
:100168003E340000FE240000423400004434000005
:1001780046340000483400004A3400004C34000083
:100188004E34000050340000523400005434000053
:1001980056340000583400005A3400005C34000023
:1001A8005E340000603400006234000064340000F3
:1001B80066340000683400006A3400006C340000C3
:1001C8006E34000070340000723400007434000093
:1001D8000000000000000000000000000000000017
:1001E8000000000000000000000000000000000007
:0801F8000000000000000000FF
:10020000130181F806C216C41AC61EC822CA26CC1B
:100210002ACE2ED032D236D43AD63ED842DA46DC76
:100220004ADECEC0D2C2D6C4DAC6DEC8E2CAE6CC46
:10023000EACEEED0F2D2F6D4FAD6FED8F3220030CF
:1002400096DA83A2419B23A02200F32510342EC00E
:100250009305000273A0458003A18189EF70D067E8
:1002600003A3419B03210300824273901234D652B0
:10027000739002309240A2423243C2435244E2445D
:10028000724582551256A2563257C2575258E258FA
:1002900072598649164AA64A364BC64B564CE64C0E
:1002A000764D865D165EA65E365FC65F13018107DA
:1002B0007300203013000000130000001300000042
:1002C00013000000130000001300000013000000E2
:1002D00013000000130000001300000013000000D2
:1002E00013000000130000001300000013000000C2
:1002F00013000000130000001300000013000000B2
:1003000083A28189938202E07390023403A1419B0E
:10031000024182403243C2435244E2447245825514
:100320001256A2563257C2575258E258725986494D
:10033000164AA64A364BC64B564CE64C764D865D61
:10034000165EA65E365FC65FD652A102739002307B
:10035000A2421301810782801300000013000000F5
:100360001300000013000000130000001300000041
:100370001300000013000000130000001300000031
:100380001300000013000000130000001300000021
:100390001300000013000000130000001300000011
:1003A0001300000013000000130000001300000001
:1003B00013000000130000001300000013000000F1
:1003C00013000000130000001300000013000000E1
:1003D00013000000130000001300000013000000D1
:1003E00013000000130000001300000013000000C1
:1003F00013000000130000001300000013000000B1
:10040000F322003093F272FF130380781203B3E2F9
:100410006200711523205500130585FA10C12115BE
:10042000232005009302000063870200711523203A
:100430000500FD12D5BF71150CC1828000000000BF
:1004400000000000000000000000000000000000AC
:10045000000000000000000000000000000000009C
:10046000000000000000000000000000000000008C
:10047000000000000000000000000000000000007C
:10048000000000000000000000000000000000006C
:10049000000000000000000000000000000000005C
:1004A000000000000000000000000000000000004C
:1004B000000000000000000000000000000000003C
:1004C000000000000000000000000000000000002C
:1004D000000000000000000000000000000000001C
:1004E000000000000000397101436EC619A0397187
:1004F00041536AC866CA62CC5ECE19A039710153F5
:100500005AD056D252D44ED64AD826DA22DC06DE4B
:1005100033016140828241114AC026C222C406C60C
:100520008282B24D4101024D924C224CB24B4101AC
:10053000024B924A224AB249410102499244224462
:10054000B240410182803D432A876373C30293779F
:10055000F700BDEFADE5937606FF3D8ABA960CC372
:100560004CC30CC74CC74107E36BD7FE11E2828036
:10057000B306C3408A069702000096966780A600DD
:100580002307B700A306B7002306B700A305B700EB
:100590002305B700A304B7002304B700A303B700E3
:1005A0002303B700A302B7002302B700A301B700DB
:1005B0002301B700A300B7002300B700828093F5A2
:1005C000F50F93968500D58D93960501D58D61B76E
:1005D000939627009702000096968682E78086FA17
:1005E0009680C1171D8F3E96E374C3F8A5B7A14747
:1005F0001CA11385C1AA8280EFF2FFF13687AE8479
:10060000B286B71500003716000041111306069395
:10061000938505A02A84E5231305F100C93F90873F
:10062000B7060000AA85268793868669228511244D
:10063000410121B701458280B707000093874763D6
:100640007CCD8280EFF23FED7E3D1D8E5C554206F3
:1006500041828297DDB56379B60085476364D50032
:10066000B3B7C6003E858280E36CD5FE8147DDBF0F
:10067000EFF27FEA2A84AE848355E5040355C5046E
:100680003689BA86C93F01C98355A4040355840439
:10069000CA862686C93755B503432509937876005F
:1006A0008547339817011378F80F014E63E567000B
:1006B000428E6309F30403230500619A5C590343E6
:1006C00003013306660242064182B295BE950DCF04
:1006D00005479C218508FD16B367FE00B347F80067
:1006E000C2069CA193F87800C18263900804323D51
:1006F00083472509B2956365F700054E638EE702CF
:1007000005481DA8014845BFAE96C206C1829C217E
:100710008505B367FE00B347F800A38FF5FE9397F6
:100720000501C183E395D7FE828093171E0006085A
:1007300013FEF70F1378F80FC9FE828083458503F7
:10074000144183489503139705014183931737009C
:100750005EBD9C2A13980801135808018E073EBD00
:10076000931738007EBD903AC6956356B60033079E
:100770000641420741830E072310F504BA9723115F
:10078000F504DE2A2312F504FE2A2313F5048280E1
:10079000EFF27FD8653755B3EFF2FFD7653571BB00
:1007A000EFF27FD7035765058356250503564505A8
:1007B000835505052A846D3D01E523060408B5BB74
:1007C00085472306F408035784048357040563749C
:1007D000F7002314F404835724050357A40463F497
:1007E000E7002315F404835744050357C4046374D6
:1007F000F7002316F404835764050357E404E3F079
:10080000E7FC2317F40465BFEFF2FFD0035745045C
:10081000231405042315E504384178C5513731BB4D
:10082000EFF27FCF1C59417738C9DC4378C98297F2
:1008300029B3EFF25FCE93071010230CC502A30C6F
:100840000502A3060506A3060508A3080508231943
:10085000F5081C4354D54CD918D9232C05042A84F7
:1008600082972285753F2285C13B23080406F1B19A
:10087000EFF27FCA1C492E868146930500028297BB
:100880006DB9EFF25FC91C49B2862E86DD458297AD
:100890006DB1EFF25FC84111CC871306F1008545B9
:1008A000CD37410159B9EFF21FC75C452E8681460D
:1008B000D545829759B1EFF21FC65C45B2862E86A8
:1008C000DD4582979DB9EFF27FC34111AA842E8442
:1008D0005D49E549130AE00FD54A0C20638B2503D7
:1008E0006366B90063FF5501410199B163FBB90229
:1008F000E39C45FF1030930590022685D087C924DC
:1009000039A01030DC448146D087268582970904BF
:10091000E9B71C301306F10085452685DC87613F69
:10092000FDB7DC448146014626850504829775B7EC
:100930009387C5FE93F7F70F15476361F704EFF24E
:100940009FBD4D678A0713078724BA979C434111BF
:100950003289AE842A8482878145193FCA852285DF
:100960000D3F05454101D1BE854536C61137B2461A
:100970001C484A86A68522858297EDB7014582806C
:10098000EFF2DFB72E84CC212A89B2898E0593F548
:10099000F50393E50504013F83C569004A8593E5A6
:1009A000850B11377C20A1CF5420583093878600C7
:1009B00093F7870F958F93F7F70F9375F70F63F4FE
:1009C000E70093F5F70FAE960D8F10408E0593F468
:1009D000F50FA68554A058B04A85F13D0C405C3017
:1009E000AE9404C091EB83A709001CC083C74900E3
:1009F0005CB07C20FD177CA05C209D8BC5F70DBEF4
:100A0000EFF27FB1A94741112A84638BF50863E9AE
:100A1000B700A5476380F50881442685410131BEB2
:100A2000AD476381F50CBD47E398F5FE9C423689DE
:100A3000D4323EC483574900508713978700A1835F
:100A4000D98F7C869D4763E1D7025C458146054688
:100A5000E14582974A862C0022851D375C448146F9
:100A60000146E545228582971886BD478544E3E621
:100A7000E7FA5C4481460946E145228582974A8629
:100A80002C002285F53D5C4481460146E5452285E2
:100A9000829761B7CD659385052665208544B5BFEE
:100AA00075205C4481460546E14522858297938501
:100AB000C1862285093D5C4481460146E545228583
:100AC00082975C44E1458146094622858297938559
:100AD000C1862285CD3B5C4481460146E5452285A1
:100AE00082976DBF5C4581461DE60546E1458297CC
:100AF000938501872285C13B5C4481460146E545DB
:100B0000228582975C44E145814609462285829789
:100B1000938501877DBF0546E1458297938541878F
:100B2000228555335C4481460146E54522858297FE
:100B30005C44E14581460946228582979385418739
:100B400049BF0CC1BC292301F5028280EFF2BF9C92
:100B50005C4981460146930580022A8482975C4461
:100B600081460146D1452285829722850546930517
:100B7000B004B9201C40228593059002D02389201F
:100B8000228501469305B00425281C402285930543
:100B90009002D0233520228505469305B0040D2010
:100BA0001C40930590022285D033192879B2EFF2C8
:100BB0009F961C4581460146A54582976FF0FF9799
:100BC000EFF27F955C49814682976FF01F97014550
:100BD0008280B71700009387E7BC1CC55CC51CC9A1
:100BE0005CC9FD5723200500A3010502230305026C
:100BF000232C05002302F5022304F5028280EFF284
:100C00009F9141112A842EC632C436C23AC0D137D0
:100C1000B2452246924602470CC450C414C858C874
:100C20002285713741016FF05F91B7070020238E55
:100C3000072405458280B70700200547238EE72457
:100C4000B707002023ACA72405458280B707002002
:100C50009387C7250387070009CB370700200327A1
:100C600087252380070018C105473A858280EFF267
:100C70009F8A08218545EF90E0717D572386E180AA
:100C80006FF0BF8BEFF23F8941118545054502C2E8
:100C900002C423160100EF30A03983A7C182374771
:100CA0000F0013070724B3D7E7024C0037050040B5
:100CB000231501007C8489679387F7703EC2EF306B
:100CC000C0480546854537050040EF30607A8545C8
:100CD00037050040EF304078854537050040EF305C
:100CE000D001B7E700E0056723A2E71041016FF0EC
:100CF000DF84EFF2BF803704002041111305442642
:100D0000EF3050173735010013050530EF10217F04
:100D10008144130A4426B73901001949B3079A00E0
:100D20008C231385C9308504EF10617DE39824FF7F
:100D30002945EF10D100B937B705002093064426A6
:100D4000138681809385851913854180EF40A062C9
:100D50009567938707E23EC29167938787A93EC450
:100D60004800A5473EC6EF80F034EF10F05118411F
:100D7000B707002023AAE72641016FF06FFBEFF2CF
:100D8000EFF70111C88793F745002E84A9C793791F
:100D9000F50F1307C0033387E902B7E700209387F5
:100DA000C709BA97D44798473697D44B9C4F338698
:100DB000F6006374C700B307D740B70400209384DC
:100DC00004278E203ECE13076010AE97637AF70893
:100DD0001305F100693D93778400A1CB9384C18012
:100DE00098209307F00F6312F70488878545EF90EA
:100DF000603F88870566130686B6B305C502B71738
:100E0000002093874784BE95EF80D0669C87373556
:100E100001001305852B9CA0EF10B1028C20373503
:100E200001001305052DEF10816D9377040191CB1F
:100E3000373501007D571305052E2386E180EF101D
:100E400051001374040411C8373501007D57130590
:100E5000052F2386E180EF10C17E05616FF04FED15
:100E600037290020130949F17008CA954E85EF8093
:100E700090659E2072473E97420741839AA099470A
:100E8000E3FBE7F48356490093978600A182D58F50
:100E9000C207C18393865700E3DFE6F29907E3199F
:100EA000F7F20545493BB704002003A544277D57C9
:100EB000854605468545EF60C00D37060020B725FD
:100EC0000020130606269385C5014E85EF90E01499
:100ED0009384442701C51305F100513B884089459F
:100EE000EF60C020CDBDEFF20FE3EF90202B9377A2
:100EF00015002A8499C73735010013058527EF109F
:100F000041749377240099C7373501001305C5282C
:100F1000EF1021739377440099CBEF90002C118947
:100F200019C5373501001305452AEF108171418835
:100F300019CC0145EF90C027AA8519C1014581351B
:100F40000545EF90E026AA8519C105450D3D6FF0D6
:100F5000CFDEEFF24FDC39711304601F11C12A8418
:100F60001306C00381454800EFF0EFDD8D4722D620
:100F70004C001384D1801385D1803ED0EF80D02DDA
:100F8000814719E90820EF90202B854711C50820DB
:100F90008945EF90204081473E8521616FF0EFD970
:100FA000EFF26FD71385D180D9316FF00FD9B72702
:100FB0000020938747F11CC1B707002093870727BC
:100FC0009A230545239007009AA18280EFF2AFD4BF
:100FD000B72700202E862E84AA851385C701938407
:100FE000C701EF00115AB707002023A08726370456
:100FF0000020130444270840B7070020854523A696
:101000009726EF60A00E08407D5785460546894526
:10101000EF50307805456FF04FD2EFF2CFCF153F4C
:1010200001E50D456FF06FD10145EDBF8280EFF214
:101030008FCEBD376FF06FD0EFF2EFCD01112A8464
:10104000AE8468089305A10132C6953715C9724769
:1010500015453C333423A207D58F93968700A1838F
:10106000D58FC207C18391EBBC8532461D0798C05E
:10107000E5171EA2FD571CA0014505616FF0EFCBDF
:101080001545E5BFEFF22FC99307160013D7874028
:101090001D06238FF5FE2E85A38EE5FE9315060112
:1010A000C18165152537954711C181473E856FF090
:1010B000CFC8962115476398E6085821303193062A
:1010C000E07C2207518F131687002183598E420638
:1010D00041821307F6FF42074183AA870D4563E665
:1010E000E606EFF24FC3B82394332390050022079E
:1010F000558F854694A396219354360093F4F40FAC
:10110000850696A19376760081C6850493F4F40F44
:1011100084B396212E8413852700850696A1931506
:10112000870021834D8F93051700C2058146C18139
:10113000EF10503A01C5192B6FF02FC01E2001454A
:10114000BE9406A0D5BF0D45828082809A21954726
:101150006311F70658218D4731EF38311306D00F50
:101160009306F7FF93F6F60F6376D604EFF2AFBA65
:101170003C210C314111A207CD8F93958700A183AB
:10118000CD8F93851700130717F0C205133717008B
:1011900085460546C1816800A30601005886EF1008
:1011A0007033814719C15D21AA873E8541016FF0E7
:1011B000CFB88D473E85828096211547637FD7063D
:1011C00058213031AA872207518F131687002183B7
:1011D000598E420641821357360093767600137774
:1011E000F70F81C605071377F70F9306F6FFC206C0
:1011F000C1821308F07A0D456363D804D433639039
:10120000E604EFF24FB1B8232E848C332207138506
:1012100067004D8F931687002183558F050793151F
:1012200007018546C181EF10F02A01C505216FF045
:10123000CFB095471EA00145DDBF0D45828082805D
:10124000962115476397E608582130319306E07CD4
:101250002207518F131687002183598E420641823F
:101260001307F6FF42074183AA870D4563E5E606AB
:10127000EFF26FAAB8239433239005002207558F0D
:10128000894694A396219354360093F4F40F85066F
:1012900096A19376760081C6850493F4F40F84B307
:1012A00096212E8413852700850696A19315870025
:1012B00021834D8F93051700C205C181EF10F02FD8
:1012C00001C569266FF06FA71E200145BE9406A0D8
:1012D000D5BF0D45828082809A219547631CF70215
:1012E000EFF26FA33C210C318546A207CD8F939579
:1012F0008700A183CD8F93851700C2050546C18164
:101300000D05EF10300D814719C18926AA873E854A
:101310006FF0AFA28D473E858280EFF2CF9F9A217A
:10132000954463F7E406582130319306700722078D
:10133000518F131687002183518F131607014182A5
:101340001307F6FF42074183AA870D4563EDE602C6
:10135000D433131716001377F70F6396E602B823FA
:101360002E848C332207138567004D8F93168700D8
:101370002183558F0507931507018546C181EF101D
:10138000700501C5E1246FF04F9B06A00145E5BF44
:101390000D45D5BF96211547639AE606EFF2AF9744
:1013A00054211306C007AA8793940601C1801387AE
:1013B000F4FF420741830D456362E6042E84B8239F
:1013C0008C332310040088A312208606220705060A
:1013D00012A04D8F94B393158700162021834D8F53
:1013E000930517008506C20516A026868146C18191
:1013F00013852700EF10007E01C5892C6FF0EF9355
:101400001E2086040145BE9406A0CDBF0D458280F6
:101410009A21A54763F2E70EEFF24F8E5C21383137
:101420002A84A207D98F93998700A183B3E7F90093
:101430009399070193D909019387F9FFC207C183E3
:101440001307C0070D456367F70A1C2470301307A4
:101450008007A207D18F13968700A183D18F13969F
:10146000070141829307F6FFC207C1836364F7084F
:10147000183493171600639FE70624202E890C303A
:10148000A2047C20CD8C4C30A2078546CD8F93954D
:101490008700A183CD8F93851700C205C1811305F5
:1014A000A400EF10207339E923100900DD471CA0C8
:1014B00083570900139A1900939584008507231018
:1014C000F900A300440183570900A180CD8C9385C6
:1014D00014008507C2052310F90081464E86C1819C
:1014E00013052400EF10006F11E9835709003E9A9D
:1014F000231049016FF0CF8301458280812ADDBF2F
:10150000962115476390E608582130319306B007BD
:101510002207518F131687002183518F131607015D
:1015200041821307F6FF42074183AA870D4563ED09
:10153000E604EFE25FFE2E843E858C331147BC2328
:101540002310040018A11A20A207931416000507FF
:101550001AA004B1CD8F939587001A20A183CD8F57
:10156000938517000507C2051AA0C1810905EF1070
:10157000206401C5E1286FE05FFC1E200145BE9498
:1015800006A0D5BF0D4582808280EFE2DFF8B70765
:10159000002003D48727AE84B725002022869385B8
:1015A00045120505EF00E17D050482A001456FE0CD
:1015B000DFF8A14763F3C702EFE2FFF5B73601009A
:1015C0004D663735010093860632130606319305C2
:1015D000800313050533EF00417413D735009307DB
:1015E00017003308E5003E958547B397C700FD1700
:1015F000C2070E073387E540C183B397E700182180
:101600000346080093C7F7FF2207518F9D89F98F82
:10161000B396B600DD8EC206C1862300D800C2068E
:10162000C182A18214A1828093D735003E951C31DE
:1016300008219D89A207C98F05453315C500B3D779
:10164000B7407D157D8D1375F50F82809D4763E74B
:10165000A70093878187AA9788238280114582807B
:10166000EFE27FEBEFF07F9B2A8419C5054723A8A3
:10167000E18022856FE07FECEFF02FDB29C9B717FF
:101680000000370700209387C7022326F728B717E3
:101690000000370700209387E7022328F728B717B1
:1016A000000037070020938787032320F728B71708
:1016B000000037070020938747082322F728B70741
:1016C000002023A407287D57238AE18045B70D44D5
:1016D0004DB7EFE25FE41384018118408547194557
:1016E000631AF700B707002083A7C7288297014530
:1016F000232004006FE07FE4EFE2FFE183A7018194
:1017000041111944639D070C6800EFF02FD4054781
:10171000AA876304E5000144D9A032476309A708FA
:101720008946E31AD7FE03A50190B7060020B70447
:1017300000200C213707002023AEF42613060700F3
:10174000238AB628814713840190138946299384FC
:10175000C427130707004148142291CA6395D5088E
:101760008E07BA97DC4393856190829788C083C7C0
:101770004190D5D394409387619085C20347090077
:10178000104085458EA3136707F818A292231840CE
:10179000930516008EA3329714A3922337070020D7
:1017A000032747280C4003C541810297ADB7B7070F
:1017B000002083A707289384419013866190938526
:1017C00001901385419082972A8431F59C2003C7AC
:1017D00041816303F700A1F30945EFF0CFC52285EE
:1017E00041016FE09FD585072106E39707F741B7D1
:1017F000930740063345F502A9474205418163E856
:10180000A706CD67938707350A053E951C41828759
:1018100023800500930760041CA2828089479CA155
:1018200093078002D5BF91479CA1E547F5B795473F
:101830009CA1D147D5B79D479CA1BD47F1BFA1470A
:101840009CA1A947D1BFAD479CA1A147F1B7B14722
:101850009CA19D47D1B7B9479CA1994775BFBD478A
:101860009CA1954755BFC1479CA1914775B7D147EA
:10187000E5BFEFE25FCA7971BD47AA842E84368541
:1018800093056100130671005C83DC8395379C83AC
:10189000034E61009308C05D93960701C182B3882F
:1018A000F84013982700139716008608B30EC0411E
:1018B00013932600814701458145054FD14F634A67
:1018C000170105476369F70A81471EA045616FE06C
:1018D000DFC693161700A6960396060063DBCE04B8
:1018E0006359C605B30607418606A6968396060089
:1018F00063C5C604B306E8008606A696839606006E
:10190000634DD60211C19DCD8145938617001018F5
:101910008607B297135617001A974207050593F6E4
:10192000F60F239CC7FC41831375F50F63EDDF00B1
:10193000B68709074207418359B719C16384E50196
:101940008545E1B795463000054781472E220A229A
:1019500005071377F70F898DAE97C207C183090674
:10196000E366D7FEFD16B3C7D702C207C183860759
:10197000C207C18399BFBE86F9B7EFE2DFB9B3866C
:10198000C502AA88014701450148634FD7002E864A
:101990008146C285EFE02016EFF0F076EF70403F11
:1019A000EF00A1196FE07FB993171700C6978397CF
:1019B000070032974207B387F702418313DEF741EE
:1019C000AA9733B3A70072983E851A987DBF8567A2
:1019D00093870777AA971A2136211105158F231EA1
:1019E000E5FEE39AA7FE82800566814701478146AE
:1019F000130686BB139817002A98031808009398BB
:101A0000070193D8080163D406014687C286890777
:101A1000E392C7FE05839AA136858280EFE2BFAFCD
:101A20000545EF30306C1384219193150501042096
:101A3000C1850545EF30307EB74700208604938787
:101A4000478BA6978AA31C209546850793F7F70F27
:101A50001CA01387818163F4F6040C233735014001
:101A6000854605461305058023000400EF1010335A
:101A700003A5419113840192014793870192854602
:101A80000946814523200400EF6010491C4091C79E
:101A9000B7E700E0116723A0E7206FE01FAABA971D
:101AA0008C23373401401305048085460546EF102A
:101AB000F02E854513050480EF10D02CF9BFEFE21E
:101AC0009FA50945EF40B075B707002083A6C70F53
:101AD000416779179C4203A54191F98F9CC21384F9
:101AE000C19101479387C1918546114681452320C5
:101AF0000400EF6070421C4091C7B7E700E0116737
:101B000023A0E7206FE07FA31307E5FF4207B74755
:101B1000002041839306603E9387079163E3E600CC
:101B2000CAA38AAB8280B747002003D54791828041
:101B3000138541918280411106C622C44AC24EC01B
:101B4000EFF0F074B737010003A6873D83A6C73DC9
:101B500037340100EFF0A063B737010003A6073E5A
:101B600083A6473E2A89AE89EFF0A000B73701006F
:101B70006348050203A6873E83A6C73E4A85CE85F5
:101B8000EFF0E0600326043F8326443FEFF0A0140B
:101B9000EFF0B07AB240224412498249410182807A
:101BA00003A5873E83A5C73E4A86CE86EFF0205E1A
:101BB0000326043F8326443FEFF0E011EFF0F07777
:101BC000D30705F0D397F720538507E0E1B7EFE29D
:101BD0009F945D71EF309005A9450145EF303006C7
:101BE000370400202946930504080145EF305013BF
:101BF000A9450545EF30B00429469305040805457D
:101C0000EF301012A9450945EF3070039305040821
:101C100029460945EF30D01093070010B706080099
:101C20007010894501452316F102EF30F0619307EA
:101C30000002BEC0B72701409387C744BEC2B72782
:101C4000002093874714BEC485473EDE856793878F
:101C500087BB2316F1040C188567130600020A855A
:101C60003EDC02D802DAEF00C111B72600000A8577
:101C70009386E6AB01468545EF307078B7070020C4
:101C800003A7C70F814605461C43B7050E0005454F
:101C900093E717001CC3372700001307C7A1EF30D5
:101CA000D06483C58181373501409D4605461305C3
:101CB0000580EF10B00E0545EF10D0193745002014
:101CC000130945981306007D814513054598EFE0FB
:101CD0009F8737440020130404919304803E3745C6
:101CE00000202320240146A01309451523140400D5
:101CF0001306007D814513054515EFE0DF84374766
:101D000000201307078C58D08D47374700205EAC62
:101D10001307478D18D89387C190374700201CCCF4
:101D20001307878EA9471EB45EB82310F40458DC4D
:101D30002316F404231CF40437470020B74700207F
:101D40001307C78F9387079706A8231A0400232633
:101D500024012310040223160402231C040223126C
:101D600004042318040438C4231E04047CC86161DD
:101D70006FE0AFFC1A251C410607BA978EA31E25FB
:101D80005A218507C207C1831EA563E4E700231417
:101D90000500828052211E2581469305F6FFC2056B
:101DA000C18101476317D6003345C702420541850B
:101DB000828091E3AE87FD17C20703280500C18327
:101DC000939817004698031808008506C2064297A4
:101DD000C182C9BFA54763E6A712EFE2CFF3CD6783
:101DE0009387C7370A053E951C41828737450020F7
:101DF000130505914537D37705D0DDA83745002079
:101E00001305C591413FD37705D0538507E0EFF027
:101E10001048B737010003A6074083A64740EFE00C
:101E2000906BEFF09051EFF01FD16FE00FF137455D
:101E3000002013058592B93FD37705D0538507E07D
:101E4000EFF0F044B737010003A6074083A64740F0
:101E5000EFE07068B737010003A6874083A6C7404C
:101E6000EFE07067EFF0704DC9B7374500201305FC
:101E700045930D37D37705D0538507E0EFF0304118
:101E8000B737010003A6074083A64740EFE0B064E0
:101E9000B737010003A6074183A64741D1B73745AD
:101EA000002013050594F1B7374500201305C594AC
:101EB000C9B73745002013058595E93DD37705D08F
:101EC000538507E0EFF0B03CB737010003A60740A9
:101ED00083A6474071B737450020130545965D3D01
:101EE000B7370100D37705D007A7873FD3F7E710AF
:101EF000538507E01DBF03958191F5BD03A5819032
:101F00002DB78280EFE28FDF2A84AE893289B70550
:101F100002002285EF1050717DF93765004085453C
:101F200013050580B7040300EF10F0678504A6854C
:101F30002285EF10106E65DD01469305A00D228508
:101F4000B7040700EF10D06B93842408A685228580
:101F5000EF10306C65DDCE852285B7040700EF10E9
:101F6000706993844408A6852285EF10906A65DD28
:101F7000B7050010938505082285EF10F06A09C5A2
:101F8000CA852285EF101067B704070093844408C0
:101F9000A6852285EF10F06765DD85452285EF1067
:101FA00030626FE0EFD8EFE20FD72E8985452A84A3
:101FB000EF10F05DB70502002285EF10F0667DF9A5
:101FC00085452285B7040300EF10F05D8504A685E2
:101FD0002285EF10106465DD01469305A00D228572
:101FE000B7040700EF10D06193842408A6852285EA
:101FF000EF10306265DDCA852285B7040700EF1057
:10200000705F93844408A6852285EF10906065DD9B
:1020100085452285B7040300EF10F0588504A68596
:102020002285EF10105F65DD05469305A00D228522
:10203000B7040300EF10D05C8904A6852285EF1059
:10204000505D65DDB704001093840404A6852285E5
:10205000EF10905D01CD2285EF10105AAA848545BE
:102060002285EF10F05526856FE02FCD8145228522
:10207000EF10B056E1BFEFE20FC779719307B05D83
:102080002313F10223120102EF507045CD679387AD
:10209000473A3EC6B737010003A8473D83A7073D2F
:1020A000374C0020130C0C912AD6154A8144814AE2
:1020B0008149014D01490144930D4C053EC842CA76
:1020C00005094209135909019307401F63FB2701C2
:1020D00091453715014063100D04EF402007054D71
:1020E000014985456810EF50706C8947638FF9028C
:1020F0008D476386F902639E0900373501408545A7
:1021000013050580EF1000480945EF40207F8D49F9
:1021100045BF854975B7EF40A003014DD1B7130501
:10212000803EEF505075894961BF01473410194610
:1021300081450145EF602050A25C93F74C0091C3AC
:10214000854AA54793FC2C0063E187023247931729
:102150002400BA979C43828737650040294693053F
:10216000000313050580EFF0FFD905041374F40F85
:10217000A54763F38700014463104403130AF4FF87
:10218000137AFA0F63130A00154A37350140854563
:1021900013050580EF10003F63870C02B74700204E
:1021A0009387478B854CB1463385DC0283950700C6
:1021B0003ECC850C6295EFF0FFBBE2471D47B14670
:1021C0008907E393ECFE8504C204C180856763E35D
:1021D000F4008144A6850145EF10605FD5B58547C1
:1021E000E395FAF8B72A00200567938B4A14130782
:1021F0000777338BEB0083950B000145890BEF309C
:102200009001239FABFEE3986BFF13854A14EFF018
:102210000FFC9305210213854A14EFF0EFFCAA8608
:10222000094613854A1493056102EFF08FE4894A49
:102230002DBF8947E39BFAF2835561021307905D36
:102240009387F5FFC207C1836360F7043725002039
:10225000094613054514EFF04FF2D30705F04C1073
:10226000539517C042054181EF304019D37715D0FF
:10227000538507E0EFF0B0014246D246EFE0B025CB
:10228000EFF0B00B23A4A190B707002083A7C70FDE
:102290000567130787BBD8C398430945814A13676D
:1022A000170098C3EF408065C9B583471102A18B21
:1022B000E38D07EA376500409305000313050580A9
:1022C000EFF07FCEA300A1024DB583471102A18B91
:1022D000E39D07E837570020376600409306479292
:1022E000130B479213880182130606808D4BB305AA
:1022F000F8008C21328536CE3ECCEFF0DFCAF246B4
:10230000E2473767004088A61306078085078506E1
:1023100013880182E39D77FD83478B0003459B0073
:10232000C2072205C98F0345AB00B7068000138B97
:102330008191B3EBA70063F27603EF00007AB70652
:1023400000FFB387DB00B3D7A7022310FB00831580
:102350000B006285EFF01FA209BDEF00007833D5B6
:10236000AB022310AB00E5B783471102A18BE39EBC
:1023700007DEB7670040A94513850780EFF0BFC2AD
:10238000B76700402ACCA54513850780EFF0BFC191
:102390006247931585006E85BA95C205C1855DBFFC
:1023A000730020303735010019711305854182FE15
:1023B00086FC8AFA8EF892F696F49AF29EF0A2EED5
:1023C000A6ECAAEAAEE8B2E6B6E4BAE2BEE042FEA5
:1023D00046FC4AFA4EF852F656F45AF25EF062EEB5
:1023E00066EC6AEA6EE872E676E47AE27EE0EF0096
:1023F0004125EF60D018AA85373501001305C54285
:10240000EF00E10FEF601018AA85373501001305C2
:10241000C543EF00C10EEF605017AA8537350100A4
:102420001305C544EF00A10D01A0317106DF16DDD3
:102430001ADB1ED92AD72ED532D336D13ACF3ECD8C
:1024400042CB46C972C776C57AC37EC182FE86FC7E
:102450008AFA8EF892F696F49AF29EF0A2EEA6EC24
:10246000AAEAAEE8B2E6B6E4BAE2BEE042FE46FC54
:102470004AFA4EF852F656F45AF25EF062EE66EC04
:102480006AEA6EE872E676E47AE27EE0EF20807E29
:1024900013050008EF108067FA50EA525A53CA53E6
:1024A0003A55AA551A568A567A47EA475A48CA48A8
:1024B0003A4EAA4E1A4F8A4F7670E6705671C67120
:1024C0003672A672167386737664E6645665C665C0
:1024D0003666A666166786677278E2785279C279A0
:1024E000327AA27A127B827B726CE26C526DC26D80
:1024F000326EA26E126F826F2961730020301971E3
:1025000082FE86FC8AFA8EF892F696F49AF29EF093
:10251000A2EEA6ECAAEAAEE8B2E6B6E4BAE2BEE003
:1025200042FE46FC4AFA4EF852F656F45AF25EF073
:1025300062EE66EC6AEA6EE872E676E47AE27EE0E3
:10254000EF2070527670E6705671C6713672A672C0
:10255000167386737664E6645665C6653666A66647
:10256000166786677278E2785279C279327AA27AEF
:10257000127B827B726CE26C526DC26D326EA26E07
:10258000126F826F0961730020301971294582FE34
:1025900086FC8AFA8EF892F696F49AF29EF0A2EEF3
:1025A000A6ECAAEAAEE8B2E6B6E4BAE2BEE042FEC3
:1025B00046FC4AFA4EF852F656F45AF25EF062EED3
:1025C00066EC6AEA6EE872E676E47AE27EE0EF2094
:1025D000600C854537050040EF1030727670E6706C
:1025E0005671C6713672A672167386737664E66487
:1025F0005665C6653666A666166786677278E2789F
:102600005279C279327AA27A127B827B726CE26C46
:10261000526DC26D326EA26E126F826F09617300CD
:102620002030914763E0A704EFD2FFEECD67938798
:10263000C7450A053E951C418287856593850580BF
:102640003725014013050580EF30B02F1375F50FC6
:102650006FD0BFEE8565EDB78965DDB79165CDB704
:10266000A165F9BF01458280954763E5A704EFD2D4
:102670009FEACD67938707470A053E951C418287ED
:102680003715014093050010130505C0EF30702B7E
:102690006FD0BFEA9305000237250140130505807E
:1026A000F5B7C145D5BFA145C5BF9145F5B7930560
:1026B0000010DDB701458280EFD2FFE58547630951
:1026C000F50211C58947630AF5026FD01FE789E952
:1026D000A14537150140130505C0EF303027F5B788
:1026E000A14537150140130505C0EF307026F1BF35
:1026F00099E1C145F9BFC145EDB781E593050002F8
:10270000C9BF93050002F1BFEFD2FFE07971A9477D
:102710003ED23ED0B7270000938727624C08014580
:102720003ED602CCEF20506F4C080545EF20D06E0E
:102730004C080945EF20506E4C080D45EF20D06D38
:102740004C081145EF20506DB72700009387876B29
:102750002C0001453EC802C6EF2010642C00054540
:10276000EF2090632C000945EF20106345616FD086
:10277000DFDCEFD25FDA011199475C8493874192E5
:102780003EC89387C1923EC6B7070203D1073ECA2F
:102790008547230CF100B727000093878766280040
:1027A0003ECEEF20907C05616FD03FD9EFD2BFD6EF
:1027B000C937EF20F07AEF50100CEF20D07FEF20D8
:1027C000D068C5BFEFD29FD379713714014002C6DC
:1027D00002C802CA02CCEF30F01713050480C145CD
:1027E000EF30F010130504C08D45EF305010130585
:1027F00004808D45EF30B00F93050003371501407D
:10280000EF30F00E130504809305400CEF30300ECE
:10281000B724014013850480E14601469305007802
:10282000EF30F00EE146014613050440B565EF3088
:10283000100E856537150140EF30700A130504400E
:10284000E14601469305300EEF30700C130504C0CD
:10285000E146014693050008EF30700B85699385CA
:1028600009C0130504C0F1460146EF30500AE146A5
:102870000146130504C0A965EF3070099307800471
:1028800011696C08130504C03ED2231E2101231FC9
:1028900001002310010223110102EF10403513053E
:1028A00004C09165EF30B005130504C08565EF30B5
:1028B0001003914537150140EF30700213050440B5
:1028C00093050004EF30B001370613808D65E146B3
:1028D000410613050440938505A0EF30500313050E
:1028E00004C093058003EF30807F938509C03715BE
:1028F0000140EF30C07E1385048093050007EF3060
:102900001000C1651385048093850580EF30207F1A
:10291000930550050145EF00906B130504409305A6
:102920000004EF30B00285451165EF1060704D284E
:10293000EFF0EFA9B7B51D006546938595150945DC
:10294000EF40E014930500020945EF30907C956557
:102950009D461306803E938505E22145EF402017F2
:102960001306401F9D452145EF4080242145EF403F
:10297000A02C2145EF309078B79704009387073E4D
:102980003EC6B70700406C00854605463EC8054573
:10299000B70700043ECA231C2101EF30701D054516
:1029A000EF30D01B894768083ED602CE02D002D253
:1029B00002D4EF30001CEFF03FD545616FD05FB718
:1029C000138541938280EFD21FB5370402607914DA
:1029D0009304000406A013054006EF50C069DDBF54
:1029E000EFD27FB31971854513050010EF10806099
:1029F0000564854513050480EF10C05F930700044C
:102A00003EC63ECA3ED43ED89167BED87C0037074A
:102A10000030BEDCC8003C103AD2BAC0BEDEA2D440
:102A200002C802CC02D602DA02DC02DE82C282C412
:102A300082C682C882CA82CE82CC82D082D282D61C
:102A400082DAEF10400D85450145EF10601885656D
:102A500037150140EF30806FCD6537550020814636
:102A600001469385C523130545D3EFD0FFB83755ED
:102A70000020130600409305F00F13054593EFD097
:102A80009FAC09616FD07FAB138581938280EFD2B9
:102A90009FA80945EF10203DCD21EF600019716519
:102AA00013050520EF60802183A5C1823735010021
:102AB00013058548EFF0B024EF0060703734010053
:102AC000CD25D123EFE0EFA2EFF0DFCFEF5060177D
:102AD00013058449EFF0F036E5BF03D5818282808B
:102AE000391542054181B14763E3A70CEFD2BFA27C
:102AF000CD679387074B0A053E951C418287B757E0
:102B0000002083A507DF0145EF201018D30705F04B
:102B10002946539517C0420541813306C5028545B4
:102B200015A0B757002083A547DF0545EF20D01536
:102B3000D30705F029468945539517C042054181C1
:102B40003306C5022145EF40A0062145EF40C00EE7
:102B50000DA8B757002083A587DF0945EF20D012C5
:102B6000D30705F029469145539517C04205418189
:102B70003306C502C1BFB757002003D7C7DE239471
:102B8000E1826FD09F9BB757002003D6E7DE41BF9D
:102B9000B757002003D527E0EFE01FF7DDB7B757A1
:102BA000002083D547E00145EF007042D9BF828005
:102BB00089C5B295AD4763DCB700054582807D16B7
:102BC0002300050042060905A30F05FE418265FAB0
:102BD00001458280638E050EEFD25F92B387C500F8
:102BE000130790022A892E84B28905456341F70CA8
:102BF000B1CA05470145639CE60AB7540020138516
:102C0000F5FF13971500938484DC420513940701A4
:102C1000BA944181418093091500C20993D90901F1
:102C2000890463858908834709000909A207239E4F
:102C3000F4FE0347F9FFD98F239EF4FEEFF05FEA1D
:102C40004E85D1BFB7540020938A84DC014A938417
:102C500084DC254B5285EFF0EF97B7370100D3079F
:102C600005F007A74750050A910AD3F7E7105395D7
:102C700007C0D37705D0D3F7E71827AEFAFEE31BDA
:102C80006AFD2545EFF00F95D30705F083D78182C4
:102C9000539517C00604DEB0D37705D02694DCF830
:102CA000EFE07FE8AABC09046395090001456FD0F5
:102CB0003F888357C4FFFD190909A183230FF9FE3B
:102CC0008357C4FFC20993D90901A30FF9FEE1BFDD
:102CD00005458280EFD2BF819389F5FFC20993D960
:102CE00009013387C9008D4763C7E70C935A360043
:102CF00013D939003284AA84138A1A0093F979000F
:102D000095CE854701456396F608375A0020268BF5
:102D1000338C2A01930C8ADC631F890713767400B5
:102D2000D69401CA942013058ADCCE854A95EFE03B
:102D30005F8813058ADCEF20F00799A8B75B0020B5
:102D400013858BDCEF20300A268B938B8BDC3309C9
:102D5000994033052B01420541812146CE855E9580
:102D60007D1AEFE07F8C050B420AA30FABFE135ACE
:102D70000A01E3100AFE1D882146018E1374F50F27
:102D80003314C4001374F40FD6943354C44080A099
:102D900001456FD04FF9930B190083460B00C20B0E
:102DA00033852C0193DB0B012146CE85EFE07F803C
:102DB000050B5E8995B70545E9BFFD15C205C181C3
:102DC0003387C500954763CCE706EFD24FF2375BF8
:102DD00000202A84935A360093DB350013058BDCE0
:102DE000B28493F9750013891A00EF20D010228A5B
:102DF000130B8BDCB38B8B4033057A014205418189
:102E00002146CE855A957D19EFE01F82050A4209B9
:102E1000A30FAAFE13590901E31009FEA1479D88DB
:102E2000B38497409377F50FB397970093F7F70F15
:102E30005694B3D797401CA001456FD0CFEE0545FF
:102E40008280EFD24FED5545EFF09FC95D45EFF021
:102E50003FC96545EFF0DFC8373401000545EF5045
:102E600080210145EFE0CFFF11C51305444EEFF07F
:102E7000407DEDB7EFE0FF8575F1EFE0FF87EDBF37
:102E8000B71702409843B706FFF8411113671700C0
:102E900098C3D84337060200758FD8C39843B70646
:102EA000F7FEFD16758F98C39843B706FCFFFD1615
:102EB000758F98C3D843B70681FFFD16758FD8C3A9
:102EC0009843B70600ECFD16758F98C33707FF00CF
:102ED00098C723A6070202C402C69843C166558F4D
:102EE00098C3B716024005679C42F18F3EC6A247C1
:102EF00085073EC4B24781E7A247E397E7FEB717CD
:102F000002409C431397E7006357070685473EC678
:102F100032478547631FF704B7170240D843B70607
:102F2000C1FFFD16D8C3D843D8C3D84313670740A1
:102F3000D8C3D843758FD8C3D843B7061D00558F63
:102F4000D8C39843B7060001558F98C3984393168A
:102F50006700E3DD06FED843B7160240719BD8C375
:102F6000D84313672700D8C32147DC42B18BE39EC7
:102F7000E7FE4101828002C661BF371602405C4213
:102F80009146B18B1387C1826385D700A1466388C0
:102F9000D702B7177A00938707201CC3B7170240E0
:102FA000DC43918393F6F700B70700209387070D62
:102FB000B69794231C43B3D7D7001CC382805442D6
:102FC0005042C167C982BD8A7D8E9387260085CA1B
:102FD000BD466389D702C1466389D702C54581468C
:102FE0006393B700C1470DE63746024003260680CB
:102FF000418A15C637167A00130606202DA0814691
:10300000C947D5B78546B547F9BF8146BD47E1BF3A
:103010003716024050429315E600E3DD05FC3716F3
:103020003D0013060690B387C7021CC3A5DA1C43F4
:103030008583A5B7EFD22FCEEF202001EF702012AD
:1030400019C1EFD05FEA0545EF50E002F5B7B78749
:103050000020938787871CC1B77700209387870755
:103060009CC1930700101CC28280B7870020938701
:10307000C7931CC1B7770020938787479CC19307EC
:1030800000101CC28280EFD20FC9EFF07F932A8418
:1030900037680020B7570020B735010037350000EA
:1030A000130888CD9387874D15478546130600087A
:1030B000938585501305659CEF40502E08C0EFE0C6
:1030C0003FA72A8437580020B7570020B7350100A2
:1030D0003725000013088821938787E11947854623
:1030E000130600109385C55013056507EF40102B9C
:1030F00008C03768002037340100B7670020373533
:1031000000009305045113088853938787D315470C
:10311000854613060020130525E4EF403028377854
:103120000020B767002037350000930504511308CD
:1031300088D99387875915478546130600201305BC
:103140004503EF40B02537580020B7570020B7356A
:103150000100372500001308884793878727154704
:10316000854613060008938585511305C57AEF40FF
:10317000F02237780020B7770020B73501003735C7
:103180000000130888FF938787DF154785461306DD
:103190000008938545521305652CEF4030206FD011
:1031A000CFB9EFD24FB7EFF03F8E2A84378500209A
:1031B0001305858DEF30F05608C06FD00FB8EFD2F1
:1031C0008FB5EF208059B7860020377600202A84FB
:1031D00001479386468F1306860589454145EF4092
:1031E000002308C06FD06FB5EFD2EFB23744004074
:1031F000AA841309048089454A85EF00707465DD4F
:10320000A6851305048037440040EF00F072930454
:10321000048085452685EF00B07265DD13050480C6
:10322000EF00D0711375F50F6FD02FB1EFD2AFAEA5
:103230003715014001468565130505C0EF003027AD
:10324000054537440040EF4010631304048089456E
:103250002285EF00F06E65DD95452285EF00D06D8B
:1032600085452285EF00D06D65DD2285EF00106D6C
:103270009374F50F93F71400F9FB371501400546D9
:103280008565130505C0EF00902226856FD0EFAA53
:10329000EFD26FA83714014001468565130504C0BD
:1032A000EF00F0200545EF40105D1945EFF0DFF32A
:1032B0000545EF40505C05468565130504C0EF00E9
:1032C000101F6FD08FA7EFD20FA5011102C6930771
:1032D00040103744004002CA7C8793070020130542
:1032E000048002CCFC836C0093070003FC8402C8BA
:1032F000231E0100EF00D05E1305048085453714BE
:103300000140B7040020EF009061130404C09384CF
:10331000040EEFF0BFF1098919C1EFF07FF7054501
:10332000EF407055EFF09FF0014685652285EF0074
:1033300010180545EF4030540945EFF0FFEA01450C
:10334000EFF09FEA0545EFF03FEA13055005EFF077
:10335000BFE91305A00AEFF03FE90545EF40B05182
:10336000054685652285EF0090141545EF40B05065
:10337000014685652285EF0090130545EF40B04F6B
:103380000D45EFF07FE60145EFF01FE60545EFF054
:10339000BFE51305F00FEFF03FE588A01305F00F30
:1033A000EFF09FE488B00545EF40F04C0546856599
:1033B0002285EF00D00FB1BF01A001A001A001A0A4
:1033C00001A001A001A001A001A001A001A001A0F5
:1033D00001A001A001A001A001A001A001A001A0E5
:1033E00001A001A001A001A001A001A001A001A0D5
:1033F00001A001A001A001A001A001A001A001A0C5
:1034000001A001A001A001A001A001A001A001A0B4
:1034100001A001A001A001A001A001A001A001A0A4
:1034200001A001A001A001A001A001A001A001A094
:1034300001A001A001A001A001A001A001A001A084
:1034400001A001A001A001A001A001A001A001A074
:1034500001A001A001A001A001A001A001A001A064
:1034600001A001A001A001A001A001A001A001A054
:1034700001A001A001A097D1FF1F9381215217D174
:103480000020130121B8170501001305E55297D557
:10349000FF1F938525B71386018C63FAC50083222D
:1034A000050023A0550011059105E3EAC5FE17D5D7
:1034B000FF1F1305A5DA97B500209385A54D637707
:1034C000B500232005001105E36DB5FEFD427390A4
:1034D00002BCFD4273904280B7820000938202805A
:1034E00073A0023097D2FFFF938242B593E232007D
:1034F00073905230EFF0DF9897F2FFFF938262599A
:1035000073901234730020305C413707F1E01307E9
:10351000F7EF944D7D8F9C41D58FD44DD58FD441FD
:10352000A206D58FD98F5CC11C4537F7F1FF130771
:10353000D77FD4457D8F9C49D58F94458606D58FFE
:10354000D98F1CC55C55370710FF7D177D8FDC298F
:10355000FD1793F7F70FD207D98F5CD582805C41B6
:1035600093F5F50F01C6DD8D4CC1828093C5F5FF43
:10357000FD8DDDBF08450D810589828008450981E3
:10358000058982801C4591C537075000D98F1CC51D
:1035900082803707B0FF7D17F98FD5BFA54763F746
:1035A000B7048D47138765FF3307F7020328C5006B
:1035B0009D47B397E70093C7F7FFB3F70701B396AB
:1035C000E600DD8E54C5994763E3C70495477D1631
:1035D0003306F6025859FD47B397C70093C7F7FF64
:1035E000F98F3396C5005D8E50D982800D473387A1
:1035F000E502032805019D47B397E70093C7F7FF4E
:10360000B3F70701B396E600DD8E14C96DBFB1476D
:1036100063E2C702954765163306F6021859FD475F
:10362000B397C70093C7F7FFF98F3396C5005D8E38
:1036300010D9828095474D163306F6025855FD473E
:10364000B397C70093C7F7FFF98FB395C500DD8D1A
:103650004CD58280B727014093870740984711C512
:10366000B7068000558F98C78280B70680FFFD1689
:10367000758FD5BF5841144193D78500F58F99C7F1
:1036800013F5F50F798D3335A000828001458280D6
:10369000A18193C5F5FF0CC18280EFC2DFE7011164
:1036A0002A8423040100A5441C8463F9F404230440
:1036B0000100A54621461C8463FFF6062315010080
:1036C0002304010095461C8463F1F60E38853C8581
:1036D00099460D46B3F7D702056513050580B3D7A4
:1036E000C7023357D702BA97C207C1837C853C858E
:1036F00005611D8D420541856FC03FE41C4493E781
:1037000087001CC42285EFF0FFE66DFD1C4493E7A3
:1037100047001CC42285EFF07FE66DFD78441C84D1
:1037200014108607B6972396E7FE1C84850793F747
:10373000F70F5C8495BFA30401009C846378F600B6
:103740001C84850793F7F70F5C84B5B798849C8435
:103750000C100607850786072E97AE970357C7FEFE
:1037600083D7C7FE63FDE7029C848607AE9783D7A5
:10377000C7FE7C859C84988485078607AE9783D591
:10378000C7FE931717001810BA972396B7FE9C84AC
:1037900038850C1085078607AE972396E7FE9C8434
:1037A000850793F7F70FDC8449BF1C841010388518
:1037B00089078607B29783D7C7FEBA97C207C18326
:1037C0007C851C84850793F7F70F5C84EDBD411160
:1037D000B777004002C6938707403EC6B247A107AD
:1037E0003E952AC6B2478CC341018280B7F7FF1FBE
:1037F00003A5477082809317350063DA0700B70787
:10380000024083A707407D8D3335A0008280931747
:10381000250063D70700B707024083A7074DE5B728
:10382000B70702409C43C5B79317350063D707001D
:10383000B707024023A2A74082809317250063D7D1
:103840000700B707024023AAA74C8280B7070240AF
:10385000C8C38280EFC23FCCEFF0FFF96FC0FFCD4D
:10386000EFC27FCBEFF05FFC6FC03FCDEFC2BFCAAE
:1038700085451165EF00F00481451165EF00700486
:103880006FC0BFCB930700043CC1930700027CC10B
:10389000930700087CD123200500B70700042322EA
:1038A0000500232405002326050023280500232ADC
:1038B0000500232C0500232E0500232005022322CA
:1038C0000502232405022326050223280502232AB4
:1038D0000502232C0502232E05022324050423269A
:1038E000050423280504232A0504232C0504232E7C
:1038F0000504232005062324050623260506232880
:103900000506232A0506232C0506232E050623205B
:10391000F508B70700022322F5082322F50AB707A6
:103920000200370720002326F50A930700102324FE
:1039300005082326E50823280508232A0508232C43
:103940000508232E05082320050A2324050A232819
:10395000F50A232A050A232C050A8280411102C692
:10396000B78602409C4A41672E057D17F18B798D01
:103970009A055D8D93F5057CC98D93E51500B70714
:1039800050008CCAF917324705073AC6984A058B8A
:1039900001C73247E3F9E7FE3247B7075000FD178A
:1039A00001456307F700B7870240C84B42054181D4
:1039B000410182804111B787024002C6984BC1661F
:1039C000FD162E05758D718B9A05598D93F5057C25
:1039D000C98DD0CB93E535008CCBB7070500B786F2
:1039E0000240F917324705073AC6984A058B01C7C6
:1039F0003247E3F9E7FE3245B7070500FD173335D7
:103A0000F5004101828023A0A1942A878147B7084D
:103A1000104013030060130EF6FF6396C700B797BC
:103A2000024088CB8280B3866702232017012A8850
:103A3000AE9614C79306070163F3C70136882326A1
:103A4000070185073687D1BF916623AEA192014752
:103A5000AA873703008093860660130E0060930EDA
:103A6000F6FF6316C700B7970240C8C782803308C5
:103A7000C70323A06700D4C3AA882E9823A40701F4
:103A8000138807016373D701C28823A617010507AE
:103A9000C287C1BF379702401C4393E717001CC37E
:103AA0008280B7970240C8CB8280379702401C4F74
:103AB000B7061000D58F1CCF8280EFC2DFA53784F8
:103AC00002401C4093E787001CC0EFF01FFE1C4023
:103AD000896693E747001CC0B7970240984F558FFF
:103AE00098CF984F1367270098CF6FC01FA599C52F
:103AF000379702405C4F5D8D48CF8280B797024078
:103B0000D84F1345F5FF798DC8CF8280B7070140A4
:103B100023AAA740828014455C4158450328C5026A
:103B2000D58FD98F1849370600A0D98F5849D98F1A
:103B3000184DD98F584DD98F1851D98F5851D98FC9
:103B40001855D98F1859B3E70701D98F18410A07BB
:103B50003A961CC2A1476396F6001C4293E70704FD
:103B60001CC254598C4E9C42CD8FCC429205CD8FB5
:103B70008C46A205CD8FCC46C205CD8F8C4AD44A47
:103B8000D205CD8FE206D58F5CC291676319F8022A
:103B9000145D904E9C42D18FD0421206D18F904638
:103BA0002206D18F904AD44A5206E206D18FD58F91
:103BB000B70600A09386461036971CC38280B707CD
:103BC00000A0938747103E97B7070010FD17F5B781
:103BD000B70700A00A053E951C4189C593E7170069
:103BE0001CC18280370710007917F98FD5BF9C451B
:103BF00013F7070113F8F70001C7D8413368E8004D
:103C00008E2113F7F50F39C318418146854E3D4F7C
:103C1000930F800293028004214E3396DE00B3F8A6
:103C2000C500631116039398260033131F01134335
:103C3000F3FF3377E300B318180133E7E800639F1D
:103C4000F70550C98506E39AC6FD18C11307F00FA2
:103C50006375B70454412146854E3D4F930F800252
:103C600093028004414EB398CE0033F7150163925E
:103C7000E8021317260001173313EF001343F3FF75
:103C8000B376D3003317E800D98E639DF701232A5A
:103C900015010506E319C6FD54C18280E39457FA65
:103CA00010C94DB7E39757FE23281501DDB719C298
:103CB0000CC982804CC98280B7070140635A050451
:103CC000DC4F93560501131805013707300013F632
:103CD000F60013580801B376E50063500506639BB0
:103CE000E602930606010D46B316D60093C6F6FF0C
:103CF000F58F99C9135755011377F73F12073317FB
:103D0000E800D98F63570504370701405CCF8280F4
:103D1000DC4345BF1317B500635607008D46B396C5
:103D2000C600E9B7135755011377F73F120733174A
:103D3000E8001347F7FFF98F6DBF6390E60237067F
:103D400001405442370700F17D17F98F758F58C233
:103D5000D5F1370701405CC382801317B500635C5F
:103D600007008D46B396C60093C6F6FFFD8EB707D3
:103D7000000FD58FF1BF1357550112073317E80015
:103D80001347F7FF7D8FB707000FD98FD1B71E21DB
:103D900089C593E717001EA18280C207C183F99BE2
:103DA000C207C183CDBF1E2189C593E707101EA19D
:103DB0008280C207C18393F7F7EFC207C183C5BFF3
:103DC0001E2189C593E707201EA18280C207C183F7
:103DD00093F7F7DFC207C183C5BF1E2189C593E7EB
:103DE00007401EA18280C207C18393F7F7BFC207B5
:103DF000C183C5BF0EA982800A291375F50F828081
:103E000093F7E50F19C293E71500C207C1831EA9F6
:103E100082805E290A2D42055D8D6D8D22052181EE
:103E20000D8D133515008280411102C402C693D74F
:103E3000C5012AC63EC4A247A205A18199CBB247BB
:103E4000D1073EC6B247884341016D8D3335A0008E
:103E50008280B247C181E107EDB793C5F5FFC20586
:103E6000C1814EA9828023A2A1948280B71602400C
:103E7000DC4251777D17F98F5D8DC8C2828037177C
:103E800002405C439146B18B6385D700A1466382B3
:103E9000D706B7177A00938707201CC13716024050
:103EA0005C42370700201307C70E9183BD8BBA977A
:103EB00094231C41B3D7D7005CC15442A1829D8A90
:103EC000BA969422B3D6D70014C55442AD829D8AC7
:103ED00036971823B3D7E7005CC5584239839376E9
:103EE00037001387018336971823B3D7E7021CC91D
:103EF00082805C435843C166C983758FB7F6FF1F44
:103F000083A6C670BD8B8907139616016348060009
:103F1000C54601466392D702C94739A88946638FCF
:103F2000D702BD46638ED702C146638ED702C5460F
:103F300001466393D700C1471DEF3747024003276F
:103F40000780418B05C737177A0013070720B3078F
:103F5000F7021CC121D61C41858381B701466DBF84
:103F60000546B547D1BF0146BD47F9B737173D00F4
:103F700013070790E9BFB7150240D8559316F7000D
:103F8000D85563DF060411833D8B9306170037175E
:103F90007A00130707203357D70218C1D455A182DE
:103FA000BD8A8DE295463307D702058318C13717BE
:103FB0000240585714413D8B050733D7E60218C11C
:103FC000184171B785456394B600E546E9BFBD4524
:103FD0006396B600D1463387E602C9BF8906E5BFBE
:103FE0003D8B9306170037177A00130707203357C6
:103FF000D702F1B799C5371702405C4B5D8D48CBAE
:104000008280B7170240D84B1345F5FF798DC8CB96
:10401000828099C5371702401C4F5D8D08CF828082
:10402000B7170240984F1345F5FF798D88CF8280EE
:1040300099C5371702405C4F5D8D48CF8280B71716
:104040000240D84F1345F5FF798DC8CF8280935732
:10405000550005476399E700B71702409C4333D5E5
:10406000A7000589828009476396E700B7170240D9
:104070009C53F5B7B7170240DC53D5B7371702404A
:104080005C5793F7F7F05D8D48D78280B7160240F2
:10409000DC5645777D17F98F5D8DC8D6828009C9BA
:1040A000371702401C43B7060010D58F1CC382800F
:1040B000B71602409C42370700F07D17F98F9CC26B
:1040C000828099C5371702401C575D8D08D78280C2
:1040D000B717024098571345F5FF798D88D782802E
:1040E0001A218D6793870704B6217D8F9E21D58F76
:1040F000D621D58FF621D58F9625D58FB625D58F8C
:10410000D625D58FF625D58FD98F1EA15A2DFD77AF
:104110009387F77FF98F5EAD9E291EA982801E21AD
:1041200089C593E707041EA18280C207C18393F764
:10413000F7FBC207C183C5BF4EA582804A25828096
:104140000A256D8D3335A00082801E21373701404E
:10415000930607C0C207C1836300D504B7060040B9
:10416000630CD502938606406308D502B71600405B
:10417000138606806302C502938606C0630ED500CF
:1041800013070740630AE50037570140930607C04D
:104190006304D5006316E500BA2193F7F7F8D98FC9
:1041A00037170040630CE500130707406308E5007C
:1041B00093F7F7CFFA21C207C183D98F1EA1DE2161
:1041C0005EB59E211EB5B7370140138707C0630E49
:1041D000E50093870740630AF500B757014013874E
:1041E00007C06304E5006314F5009C251EB98547EC
:1041F0005EA982801E31922103D82500C207C183A7
:10420000F99BC207C1831EB11E3156211A2DC20768
:10421000C183420741831377C7F8518F9225F59BDD
:10422000C20633660601D18F37360140130806C037
:10423000C182630E050113060640630AC5003756A6
:104240000140130806C0630405016310C502B225CE
:10425000DD9B03D8E500D18FD221ED9B93F6F6CFFD
:10426000D18FD22533660601D18E56A11AADFA211F
:104270005AB91EB182801E3165771307F7CFC20786
:10428000C183BD9BC207C1831EB11E31562103D815
:104290008500C20713960601162DC18393F7F7FD1B
:1042A000758F96214182A206558FB6214207418320
:1042B000B3E606019206D58FB7360140C2071388D0
:1042C00006C0C183630E050193860640630AD500CC
:1042D000B7560140138806C063040501631ED5026A
:1042E000B62593F7F7F703D8C5009206D58FD621E8
:1042F000C207C183920693F7F7FBD58FFD769386AD
:10430000F63FF18EF225C207C183336606010A0625
:10431000D18E13960601418252A11AADFA211ABD1F
:104320001EB182801E3103D88500C207C18393F776
:10433000F7EFC207C1831EB11E3156215A2DC207A5
:10434000139606014207962141831377C7F8558FCC
:10435000B621C18393F7F7DFB3E60601A206D58F36
:10436000B7360140C207138806C04182C183630E7D
:10437000050193860640630AD500B75601401388AD
:1043800006C063040501631FD502FD769386F67FA0
:10439000F58FB62503D8C500A206D58FD621C20752
:1043A000C183A20693F7F7BFD58FF576FD16F18E80
:1043B000F225C207C183336606011206D18E139619
:1043C0000601418252A15AADFA215ABD1EB1828026
:1043D0001A31FD77FD17F98F1EB1035805025621DA
:1043E0005E2D65771396060196211307F7CF7D8F13
:1043F000F977A206FD17558FB3F70701B62103D849
:10440000850042074182B3E60601B206D58FB73672
:104410000140C207138806C04183C183630E0501B2
:1044200093860640630AD500B7560140138806C03C
:1044300063040501631BD500F176FD16F18ED225CC
:104440001A06D18E13960601418252A15AADFA2165
:104450002310E5041EB182801E2189C593E7170051
:104460001EA18280C207C183F99BC207C183CDBF51
:104470005E2501C6DD8D4EA5828093C5F5FFFD8DBD
:10448000DDBF1E2DC207C183DD9BDD8D0EAD828099
:104490001A2DFD779387F77FF98FA205CD8FC2077D
:1044A000C1831EAD82805E2DC207C183DD9BDD8D81
:1044B0004EAD82805A2DFD779387F77FF98FA20545
:1044C000CD8FC207C1835EAD82805E21C207C183EA
:1044D00093F7F7F8C207C1835EA15E21DD8D4EA17F
:1044E00082801E294A25ED8F4205418189C76D8D45
:1044F0003335A00082800145828093C5F5FFC20557
:10450000C1810EA98280EFC20F811629F577FD17B0
:10451000F58FF621DA257971D58F1EA95625FD77FD
:104520009387379FF58FD6212A842EC6D58F96255F
:10453000D58FB625D58F5EA55E29C207C18393F7B7
:10454000F7CFD98F5EA96808EFF07F93B747014096
:1045500093870780B245631AF404A257562465472F
:10456000B387E702C206C186984163D206040607F4
:1045700052244206B3D7E702130740064186B3D65A
:10458000E702B3F7E7029206635506028E079387A8
:104590002703B3D7E70213F77700B367D700C20743
:1045A000C1831EA445616FB05FF9925745BF0A07EA
:1045B000C1B7920793872703B3D7E702BD8BD58F87
:1045C000F9BF91C55E250967D98F5EA582805A25FE
:1045D000F977FD17F98FD5BF93F5F51F4EA18280AE
:1045E0000A216D8D3335A000828083A70194984302
:1045F000634B07029843370600304E05518F98C32E
:104600009843370600804D81518F98C3C8C38CC72B
:1046100037970240114650CB23220700DC4705455F
:1046200023A0F194828001458280EFB2DFEE8565A0
:104630008547938505806318F50037150140EF1015
:10464000F0306FB09FEF37150140EF107030D5BFDD
:10465000EFB27FEC8547930500406318F5003715EE
:104660000140EF10B02E6FB05FED37150140EF1035
:10467000302ED5BF37F7FF1F81471307D77E9946E6
:104680003306F7400C223306F50085070CA2E399A8
:10469000D7FE82809387419598433A9588C382805C
:1046A00003A7419523A8E194B787024003A7471CBD
:1046B00025EF03A74719894763F8E706EFB2BFE57F
:1046C00003D54196F94513844196EFF02FA99357EE
:1046D0002500858BA9C74D99131605010A20418233
:1046E000F945EFF02FAD378702408327071093E796
:1046F00017002320F71083270710858BEDFFB7875E
:10470000024003A7471C11CB238C0194D843B70662
:10471000008093C6E6FF758FD8C36FB01FE21365A4
:104720004500420541814DBFB787024003A7471CA2
:1047300019CB238C0194D843B706008093C6E6FFBB
:10474000758FD8C382808280EFB25FDB93844196FD
:104750008A20954513844196EFF04FA02A898A203C
:104760008545EFF0AF9F9377F90113892196638A0E
:10477000071483470900C1E30A208547F945230050
:10478000F900A380F196EFF06F9D1376C5FF420606
:10479000937715004182A9CF136626000A20F945B8
:1047A000EFF04FA10A208145EFF04F9B1376E5FF14
:1047B00042060A204182136606208145EFF08F9F52
:1047C0000A208145EFF08F99136635200A204206B2
:1047D00041828145EFF00F9E83A7C19513074006E4
:1047E000B3F7E70293872703238AF1826FB05FD480
:1047F0001366160065B705476397E70089472300EE
:10480000F900A380019693872197038707006346E9
:1048100007069384518394202147639AE6040A2073
:10482000F945EFF0AF931376350F0A20F94590A0C4
:10483000EFF04F98238004000A208145EFF00F929B
:104840001376E5FF42060A20418213660620814561
:10485000EFF04F960A208145EFF04F901366352018
:104860000A20420641828145EFF0CF9421A0130730
:1048700000F898A32388019695BF93879197982372
:104880009306170094A39546E316D7FE1375050209
:1048900075F193845183238007009C2011490A20DD
:1048A000F945E38027F9EFF06F8B1376350F0A2077
:1048B00013664600F94590A0EFF0CF8F23802401C6
:1048C000A5BF0347090085476312F70813871196B0
:1048D0001C23A1468A20850793F7F70F1CA3639B2F
:1048E000D70023000700230009002146F945EFF017
:1048F0006F8CEDBDF945EFF06F861376C5FF42066C
:10490000937715004182A1C3136626000A20F9455A
:10491000EFF04F8A0A208145EFF04F841376E5FFD0
:1049200042060A204182136606208145EFF08F88F7
:104930000A208145EFF08F821366352042064182BE
:1049400081450A206DB713661600C9B71384019715
:10495000834A0400138A219783460A0093871A002A
:104960001307000893F7F70F6394E6063D47638447
:10497000EA001CA0A5BD8A20230004002300090032
:104980001384518321492146F945A38C01962300C4
:104990000A0023002401EFF0EF81230024018A2084
:1049A0008145EFE0BFFB1376E5FF42068A20418296
:1049B000136606208145EFE0FFFF8A208145EFE086
:1049C000FFF9136635204206418281458A2005B7EA
:1049D0009389518303C709001DE71147E39BEAF858
:1049E0008A20F94523000400EFE05FF71376350FC6
:1049F0008A2013664600F9452380C900EFE09FFB3B
:104A00002380590169BF91466318D7023D47E3925D
:104A1000EAF68A202300040021442146F945A38CAC
:104A200001962300090023000A0023808900EFE09B
:104A30007FF823808900A5B71CA093074006E39761
:104A4000FADA8A2021668145EFE0DFF6238C0196B1
:104A5000A38C0196238C0194A1472300040023001A
:104A6000090023000A002380F9002146F945B9BF57
:104A7000EFB27FAA9387119798231377F70F2DC36F
:104A800003A7419583A64197158F9306301F63F7BF
:104A9000E6043747024023800700832707801384FA
:104AA00041960A2093E747002320F780216681453D
:104AB000EFE05FF0238C0196A38C0196238801968A
:104AC000238101960A20238C019423890196214792
:104AD0002146F945A38AE182EFE0DFED6FB0FFA543
:104AE000138981978347090013840196C1EB83C61C
:104AF000219605471389219693844183636BD700E0
:104B000003D541969545EFE07FE57D8919C1238066
:104B100004009387419590439386419794428C205B
:104B2000158E93864195138741976361B6040346BA
:104B3000090085476311F6041386C1951C42B745E9
:104B4000030093851540B387B702B7A52600938568
:104B500095ECAE971CC213064006B3F7C7029387C5
:104B600027039CA09C421CC3EFF01FBE1C20BDD796
:104B700023000400A5B793072003E5B71C20938406
:104B80008195A5C383A7419503A74197998F1307E3
:104B9000900F6378F70423000400138441960A20E1
:104BA0008545EFE0BFDB9377450085EFEF4000647C
:104BB0000A2021668145EFE0FFDFA38C0196238860
:104BC00001960A20238101962389019621472146D7
:104BD000F9452300090023800400A38AE182EFE065
:104BE0007FDD9C20E38C07EE03A7019583A7419509
:104BF000998F13073006E373F7EEEFF07FAAF9BD44
:104C0000EFB27F9141118545414502C202C402C6FF
:104C1000EFF02FC08D477C82C1473EC64C008D47C8
:104C2000371501403EC4EFE09FFC85659385058004
:104C300037150140EF1080519305004037150140B2
:104C4000EF10C05041016FB05F8FEFB2DF8C0145B4
:104C5000EFF0EFC44145EFF06FC23565EFF00FC3E1
:104C60000545EFF0CFC31305D003EFF04FBE65DD70
:104C70006FB0BF8CEFB23F8A138441960A209545EE
:104C800013894196EFE09FCDAA840A208545EFE085
:104C9000FFCC937745002A8495C38DE037470240C7
:104CA00083270780ED9B2320F7800547A388E196A3
:104CB00003A7419523AAE1966FB03F882285EF4074
:104CC000E0521374440293074002631AF408035538
:104CD0000900C145EFE09FC81189B786024019E578
:104CE000FD888547B78602406385F4069C420567C8
:104CF00013070780D98F9CC2B78702409843D176AB
:104D0000FD16758F98C39146238CD196D843B7066C
:104D100000808506558FD8C303A7071013671700B7
:104D200023A0E7103787024083270710858BEDFF0C
:104D30000547238CE19403A7419523A8E194EFE074
:104D4000DFD7B78702409C43AD83858B2386F194E0
:104D5000A5B79C427D771307F77FF98F69BF374767
:104D6000024083270780ED9B2320F7800547A38817
:104D7000E19603A7419523AAE196E1B7EFB20FF8B8
:104D8000317137960240B7067000370760005C4A01
:104D9000F58FE39EE7FE83C781979384819795C73C
:104DA00003D54196F94513844196EFE03FBB137656
:104DB000C5FF420693771500418263880722136678
:104DC00026000A20F945EFE0FFBE0964EFE09FCC22
:104DD00013040471379902407D144204294541802F
:104DE000EF30106709C483270900858BF5F7480069
:104DF000EFE05FA985473EC2930700203ED6B70784
:104E000000023EC58566930700083ECD37072000A7
:104E10001389068093070004378402403AC94AD2B6
:104E200002CC02D002D802DE82C482C882CA82CCFE
:104E300002C33ECF02D31C48938616A0378501805B
:104E40008D9B1CC8B245A24710401305150CCD8F91
:104E5000B78520FF9385F5106D8ED18F4246B795AB
:104E60000240D18F5246D18F7246D18F2256D18FB8
:104E70005256D18F6256D18FD58F1CC01C40B706B9
:104E80001000D58F1CC086479646D58FB646D58F65
:104E90005CC0F6471CC486575CC43656A657144CF3
:104EA000D18F4656D18F5656D18F6656D18F4166D7
:104EB000130616F4F18ED58F9656C206D58F1CCCEC
:104EC0008A46F657D58F5CCC5A46BA47944DD18F57
:104ED0003746DEF8130636F2F18ED58F8A5637063E
:104EE0000020D58FB70620029386060CD58F9CCD67
:104EF00093064626DC32CC22A207CD8F3CC08346E7
:104F00005626834746268545A206DD8E83476626BC
:104F1000C207DD8E83477626E207D58F7CC0B707B0
:104F200002002328E410938707022326F410EFE001
:104F30001FBC37850020B7A500209309C5A00946EE
:104F40009385C5421305C5A0EFE0FFAB3785002070
:104F5000B7850020130AC5991D469385C5A2130580
:104F6000C599EFE07FAE23A4419723A631971C405B
:104F70007D771307F77FF98F1CC083C7C19491C752
:104F80001C4033E9270123202401B78602409C42BC
:104F900051777D17F98F9CC2EFE03FB29C201384BC
:104FA0004196B9E70A2021668145EFE0BFA0A38CB6
:104FB000019623880196238101960A20238C01946F
:104FC0002389019621472146F94523800400A38ABD
:104FD000E182EFE03F9E05472380E19603A74195DC
:104FE00023AAE19629616FB0AFD413661600D1BB36
:104FF0000A20F945EFE09F961376C5FF42069377A6
:105000001500418291CB136626000A20F945EFE096
:105010007F9A9C20E9F379B713661600FDB783A742
:1050200081941307000293F7070F639FE700B79778
:1050300002409C533707FE1FF98F99C7EFB2AFCDDF
:10504000EFF0DFD36FB06FCF8280EFB2CFCCEF4005
:10505000A018EF30F07CEFF0BFA1EFF05FFC6FB075
:10506000CFCDEFB24FCB378702401C4B2E8481450A
:105070008D9B1CCB50411C411443D18F378620FFA0
:105080001306F610F18ED58F1445D58F5445D58F64
:105090001449D58F5449D58F144DD58F544DD58F84
:1050A0001451D58F5451D58F1455D58F5455D58F54
:1050B0001459D58F5459D58F1CC31C43B706100003
:1050C000D58F1CC3545D1C5DD58F3441D58F744181
:1050D000D58F3445D58F7445D58F3449D58F7449D4
:1050E000D58F5CC33C4D1CC77C4D5CC730557C5193
:1050F000144FD18F4166130616F4F18ED58F745577
:1051000037960240D58F3459D58F7459D58F345185
:10511000C206D58F1CCF745D3C5DD58F5CCF8326D6
:10512000450883270508184ED58FB746DEF89386C5
:1051300036F2758FD98F03278508D98F0327C508C5
:10514000D98F03270509D98F03274509D98F03274D
:105150008509D98F0327C509D98F0327050A228519
:10516000D98F1CCE2166EFE0FF842146F9452285C8
:10517000EFE05F8405456FB04FBCEFB22FB83171DF
:105180008545AA847165EFE0FFE685472392F19695
:10519000EFF0BFAB37470240832707800964130451
:1051A000047193E747002320F780EFE02FEC138989
:1051B0004196EFE03F8EB79902407D1442042945A5
:1051C0004180EF30F02809C483A70900858BF5F7EB
:1051D0004800EFE02FEB8567938707803ED2854735
:1051E0003EC2930700203ED683550900B707000250
:1051F0003EC593070008370420003ECD48009307C2
:10520000000422C93ECF02CC02D002D802DE82C8FE
:1052100082C482CA82CC02C302D3EFF09FE4DC30A6
:10522000D820B7860240A207D98FBCC298309C20F4
:105230003785018022075D8FBC2085451305150C3D
:10524000C2075D8FBC30E207D98FFCC2B7070200EE
:1052500023A886109387070223A6F610EFE03F8964
:1052600029616FB0EFACEFB20FABB7970240C04B04
:1052700013170401635A0702137704081DC303A719
:105280008194C1461377070F6319D700F847B70613
:105290000080584714C323A4070013050008EFE05B
:1052A0005F802165EFE0EFFF9317F40063DA0702F8
:1052B0009377040489C713050004EFE08FFE93770A
:1052C000140081C70545EFE0CFFD63580400EFF0FF
:1052D0007F9A37050080EFE0CFFC4165EFE06FFC7F
:1052E0006FB0AFA5EFB22FA32A8413054006EF30AD
:1052F0009019EFE0AFCF23A4A194EFF07F903C3062
:1053000058202285B98F5830B98F374703001307CB
:105310001740B387E70237A72600130797ECBA9721
:1053200023AEF194EFF07FE537850020B7A500208C
:105330001304C5A009469385C5421305C5A0EFE037
:105340008FEC37850020B78500209304C5991D4652
:105350009385C5A21305C599EFE00FEF23A491969D
:1053600023A681960967B7E700E023A4E710A38688
:1053700007446FB08F9CEFB20F9A397193070060AA
:105380003ECA9307405B3ECC8567938747273ECE56
:10539000930720033ED0930730103ED2B7275540E5
:1053A00089073ED4B7470000938707653ED6B747C5
:1053B00000009387A7623ED8B74700009387A75E97
:1053C0003EDAB7573412938787672A8948082EC672
:1053D00032C4B68402DC3EDEEF40204F2A8419E955
:1053E0002246B245A6864A85EF4000422A84268599
:1053F000EFF05FEF228521616FB02F949E21411164
:105400002AC43EC6B24722479306800CB387D70210
:10541000930680033307D702BA97A183C207C183DB
:105420007C833C8328839EA14101828093870198DD
:1054300023A0070023A20700239E019682808547B0
:105440006382F504060593870198AA9798230DE7D0
:1054500003D7C1979306000505452E9763C5E6025D
:105460001387F5FF9386A19798A39A22014598B3D5
:105470007D172E979AA28280FD1501456305B7001E
:10548000094582800D4582808D47D38705F063E50D
:10549000A70293171500138501983E951C21A9C3F7
:1054A000143137E7002013074711B697FD17C207DD
:1054B000C183B14563F5D700D30700F015A0638918
:1054C000F6003386B7023A9618625306F7A001CE6B
:1054D000B146B387D702BA97D4639867C3F7D7703A
:1054E000538507E08280FD17C207C183E1B75306E9
:1054F00006F0D30707F0D38607F0538706F0D3F5FD
:10550000D708D3F6C6105375E608C7F7E768537790
:10551000C708D3F5A518D3F7E7180CE19CE1828002
:1055200093171500138501983E951C21850763C3C9
:10553000C702EFA2DFFB37EA00200149AE8A9309D8
:10554000F6FFAA84B14B130A4A116347390101459A
:105550006FA07FFD09458280803093163900338B20
:10556000DA004A9433047403A106D6969C420327BA
:105570000B00D44203264B0005091379F90F93055C
:10558000840013054400D2955295EFF05FF687270B
:105590004B0052941CE055BFB1473305F502B7E705
:1055A00000209387C7443E959C45230005001CC5F9
:1055B00001458280B7E7002010219387C744938676
:1055C0004702054785453375E60019C98CA30607D0
:1055D0001377F70F11E30547B107E396F6FE8280D4
:1055E00023800700EDB737E700201307C7441306F1
:1055F000470285470C23142181CDDD8E860714A137
:1056000093F7F70F91E385473107E315E6FE8280B4
:1056100093C5F7FFED8EDDB7F1473305F502B7E728
:1056200000209387073CD8413E959C4958C17D177F
:105630001CC9DC453337E00058A95CC59C4D78A9EE
:10564000232405001CCD01458280EFA23FEB37E407
:1056500000201304043C81448949130A4006854A0A
:1056600015495C40638537071C4C2685829778284E
:10567000630CA7041C4485071CC429E718486379F8
:10568000F7005C4068A893C7F7FF858BA98F5CA8DB
:10569000850493F4F40F7104E39524FD37E40020AE
:1056A0001304C44481440D4958401C440C2019E3A0
:1056B00093B515002685850482973104E39624FF6F
:1056C0006FA01FE7584465BF23240400D1B75C28AE
:1056D000850793F7F70F638447015CA855BF1C400B
:1056E000230A0400985B6315570123A807024DB7EE
:1056F00023A6070271BF37E700201307073C1306F4
:10570000C70885474C2B142181CDDD8E860714A157
:1057100093F7F70F91E385477107E315E6FE828063
:1057200093C5F7FFB3E6B60293F6F60FC5B7EFA23F
:105730009FDEB7E7002083A7874741114886CC86C4
:10574000AA972380070003A581986C0081467D56A7
:10575000EF10D05641016FA05FDE138581988280E3
:10576000B7E7002003D5C7478280EFA2DFDA5C49A4
:1057700037E4002013040447034905005CC81C45B6
:1057800054451829AA844A863E8581451CC454C4C0
:1057900018A823002401EFA01FDBD8404A868145CA
:1057A00058C0EFA05FDA03A581988145EF10F0396A
:1057B00001456FA09FD8EFA27FD4B7E40020014439
:1057C0009384044705498949094A9C206364F4008D
:1057D0006FA01FD6DC482285829763112503DC4029
:1057E000A297982301CB238007009305000422850C
:1057F000EFF0FFF305041374F40FC1BF9844229730
:105800001C23850793F7F70F1CA3D8402297142376
:1058100089EA9428E3E0D7FE2300270193050008D6
:10582000F9B7F03463E4C70063872601F024E3E3AB
:10583000C7FCE39146FD23003701CDB7EFA2BFCDF2
:1058400005E5B7170240984F1367072098CFD84750
:1058500013670720D8C7D8471377F7DFD8C7316554
:10586000EFE0CFE06FA07FCD8547E31AF5FEB717D5
:105870000240984F1367074098CFD84713670740F7
:10588000D8C7D8471377F7BFD1BFEFA2DFC8131728
:10589000250093870188BA978043370700FC7D175E
:1058A0001C44AA8493E717001CC45C40F98F5CC0B9
:1058B0001C4493E787001CC42285EFD0BFCB6DFD4D
:1058C0001C4493E747001CC42285EFD03FCB6DFDFD
:1058D0002285EFD09FDC860493874199A6978AA3FF
:1058E0006FA0BFC50A0593870188AA979C43E84724
:1058F00042054181828055712ADD372501402EDB2A
:1059000086C796C59AC39EC122DF32D936D73AD50B
:105910003ED342D146CF72CD76CB7AC97EC782FEC6
:1059200086FC8AFA8EF892F696F49AF29EF0A2EE2F
:10593000A6ECAAEAAEE8B2E6B6E4BAE29305002223
:1059400013050540BEE042FE46FC4AFA4EF852F608
:1059500056F45AF25EF062EE66EC6AEA6EE872E6BF
:1059600076E47AE27EE0EFD0FFD001C583A7C1984C
:105970008297373501409305002213050580EFD04B
:105980007FCF01C583A701998297372401409305F2
:10599000001413050440EFD0FFCD11C99305001486
:1059A00013050440EFD0DFCE83A7819982977A5404
:1059B000BE40AE421E438E436A55DA554A56BA5629
:1059C0002A579A570A58FA486A4EDA4E4A4FBA4F3F
:1059D0007670E6705671C6713672A672167386734B
:1059E0007664E6645665C6653666A666166786679B
:1059F0007278E2785279C279327AA27A127B827B0B
:105A0000726CE26C526DC26D326EA26E126F826F5A
:105A1000696173002030060593874199AA9783979F
:105A200007000145AE9763C0070291CD85661387D5
:105A3000F6FF3A8563D9D7002E856386E500139576
:105A40000701418182808280EFA25FAB0111AA84AD
:105A50002E8AB28A8145130600020A85B689EFA014
:105A60009FAE2685EFF09FDD85473EC21397240049
:105A700093870188BA9780438A8502C0228502C431
:105A80004EC602C8230A410102CC02CE4D69EFD0B6
:105A9000BFA781471309C95463954703B7070E0091
:105AA000638FF9021C4437071000D98F1CC41C44B3
:105AB000268593E707101CC4EFF03FDD05616FA05A
:105AC0003FA7138B1700D6979C2389461376FB0FAD
:105AD000CA978C232285EFD07FACDA8775BF1C4430
