:100000006F60D02D130000001300000013000000EB
:100010001300000013000000130000001300000094
:100020001300000013000000130000001300000084
:08003000130000007300100032
:100038000000000000000000D0330000D4330000AE
:1000480000000000226A000000000000000000001C
:10005800246A0000266A000000000000000000007A
:1000680074B700000000000000020000000000005B
:100078002C6A00002E6A0000306A0000F2A300001B
:10008800346A0000366A0000386A00003A6A0000E4
:100098003C6A00003E6A0000406A00009296000038
:1000A80060970000466A00002E980000FC98000047
:1000B8004C6A00004E6A0000C4920000526A0000B8
:1000C800546A0000566A0000586A00005A3400005A
:1000D8005C6A00005E6A0000606A0000626A0000F4
:1000E800BA350000666A0000B8AB00004A9F0000FD
:1000F80018A00000E6A00000B4A10000E6A70000D8
:10010800DEA8000092B2000060B300002EB4000028
:100118007C6A00007E6A0000806A0000826A000033
:1001280086AC0000866A0000886A00008A6A0000BF
:100138008C6A00008E6A000054AD0000DEA9000041
:10014800FCB40000966A0000986A00009A6A0000F1
:100158009C6A00009E6A0000A06A0000A26A000073
:10016800A46A00002E350000A86A0000AA6A0000F0
:10017800AC6A0000AE6A0000B06A0000B26A000013
:10018800B46A0000B66A0000B86A0000BA6A0000E3
:10019800BC6A0000BE6A0000C06A0000C26A0000B3
:1001A800C46A0000C66A0000C86A0000CA6A000083
:1001B800CC6A0000CE6A0000D06A0000D26A000053
:1001C800D46A0000D66A0000D86A0000DA6A000023
:1001D8000000000000000000000000000000000017
:1001E8000000000000000000000000000000000007
:0801F8000000000000000000FF
:10020000130181F806C216C41AC61EC822CA26CC1B
:100210002ACE2ED032D236D43AD63ED842DA46DC76
:100220004ADECEC0D2C2D6C4DAC6DEC8E2CAE6CC46
:10023000EACEEED0F2D2F6D4FAD6FED8F3220030CF
:1002400096DA83A281A623A02200F32510342EC0C3
:100250009305000273A0458003A1C189EFC09027D8
:1002600003A381A603210300824273901234D65265
:10027000739002309240A2423243C2435244E2445D
:10028000724582551256A2563257C2575258E258FA
:1002900072598649164AA64A364BC64B564CE64C0E
:1002A000764D865D165EA65E365FC65F13018107DA
:1002B0007300203013000000130000001300000042
:1002C00013000000130000001300000013000000E2
:1002D00013000000130000001300000013000000D2
:1002E00013000000130000001300000013000000C2
:1002F00013000000130000001300000013000000B2
:1003000083A2C189938202E07390023403A181A683
:10031000024182403243C2435244E2447245825514
:100320001256A2563257C2575258E258725986494D
:10033000164AA64A364BC64B564CE64C764D865D61
:10034000165EA65E365FC65FD652A102739002307B
:10035000A2421301810782801300000013000000F5
:100360001300000013000000130000001300000041
:100370001300000013000000130000001300000031
:100380001300000013000000130000001300000021
:100390001300000013000000130000001300000011
:1003A0001300000013000000130000001300000001
:1003B00013000000130000001300000013000000F1
:1003C00013000000130000001300000013000000E1
:1003D00013000000130000001300000013000000D1
:1003E00013000000130000001300000013000000C1
:1003F00013000000130000001300000013000000B1
:10040000F322003093F272FF130380781203B3E2F9
:100410006200711523205500130585FA10C12115BE
:10042000232005009302000063870200711523203A
:100430000500FD12D5BF71150CC1828000000000BF
:1004400000000000000000000000000000000000AC
:10045000000000000000000000000000000000009C
:10046000000000000000000000000000000000008C
:10047000000000000000000000000000000000007C
:10048000000000000000000000000000000000006C
:10049000000000000000000000000000000000005C
:1004A000000000000000000000000000000000004C
:1004B000000000000000000000000000000000003C
:1004C000000000000000000000000000000000002C
:1004D000000000000000000000000000000000001C
:1004E000000000000000397101436EC619A0397187
:1004F00041536AC866CA62CC5ECE19A039710153F5
:100500005AD056D252D44ED64AD826DA22DC06DE4B
:1005100033016140828241114AC026C222C406C60C
:100520008282B24D4101024D924C224CB24B4101AC
:10053000024B924A224AB249410102499244224462
:10054000B240410182803D432A876373C30293779F
:10055000F700BDEFADE5937606FF3D8ABA960CC372
:100560004CC30CC74CC74107E36BD7FE11E2828036
:10057000B306C3408A069702000096966780A600DD
:100580002307B700A306B7002306B700A305B700EB
:100590002305B700A304B7002304B700A303B700E3
:1005A0002303B700A302B7002302B700A301B700DB
:1005B0002301B700A300B7002300B700828093F5A2
:1005C000F50F93968500D58D93960501D58D61B76E
:1005D000939627009702000096968682E78086FA17
:1005E0009680C1171D8F3E96E374C3F8A5B7EFF24E
:1005F0001FF0AE96939906013A8B1307160093D914
:10060000090142074183CE86AA842E84B28A034A16
:100610002509EF00D00901C90549933B1A006395EC
:1006200089002389440901B783470B00B377F90098
:100630008DC723894409014785465686A2852685AC
:10064000EF0040750504060942041379F90F418053
:10065000E31709FC050B0549D9B783C71409FDF356
:1006600023897409C9BFEFF27FE932971319070193
:10067000B689AE9613590901C2064A87C1822A8BF0
:10068000AE8A32843E8AEF00900201C993847900D9
:10069000C204C1808D806313890059BD2286050480
:1006A0005287CE86D6855A8542049137269A418054
:1006B000DDB7EFF2BFE4329793140701B689AE9627
:1006C000C180C2062687C1822A8A2E893284EF0021
:1006D000007E01EDB1BD228605040147CE86CA85A4
:1006E00052854204EF00006B4180E39684FEDDB743
:1006F000EFF27FE21C418145902B834785034859E7
:100700003306F6020E0681350DBDA1471CA11385E7
:1007100001B68280EFF23FE03687AE84B286B7152D
:100720000000371600004111130686229385C52F5D
:100730002A84EF00D05C1305F100C13F9087B71603
:100740000000AA852687938686ED2285EF00101388
:100750004101E5B3AA959C218831A2073E95420547
:100760004181828001458280EFF2FFDA9C21AE84D4
:100770002A841CA19C311CB1BC213CA1BC313CB1E0
:10078000DC215CA1DC315CB1FC217CA1FC317CB1C1
:100790009C251CA59C351CB5BC253CA5BC353CB591
:1007A000DC255CA5DC355CB5FC257CA5FC357CB581
:1007B0009C29C5451CA92685713F2AA8CD452685BB
:1007C000513F4AA8D545268571376AA8BDB3104167
:1007D0000348C5001C223307B8001377F70FB3D6C0
:1007E00007419D4763ECE70093F7F60F58A57D5549
:1007F0003315B5001345F5FF7D8D828093071600F4
:100800001CC11C32214633060641B397C700D58F61
:10081000611793F7F70F1377F70FC9BFEFF2BFCF49
:100820002CD183458507930405062A8423060506F3
:100830002685713F834594072305A4062685413FFD
:1008400083472409A305A4062307F40693B71700DA
:10085000A307F406DDB1EFF21FCC2E848D3F7D148B
:100860008547B39787001D8D62056185F9B185477E
:10087000638CF60091C68947638AF6000D8D11A03E
:1008800032954205418182802E95E5BF118DD5BFFD
:100890008547638CF60091C68947638AF6003295D6
:1008A00011A02E95420541818280118DE5BF0D8DED
:1008B000D5BFEFF25FC38344850603499506411116
:1008C0002A84AE89328B834BA40693FAF90F338ABC
:1008D0009B40137AFA0F63743A01937AFA0F034735
:1008E0000407939C8401131C89010355440693DC7F
:1008F0008C41135C8C41BA866286E6853AC6493FD4
:100900003247835D64066286BA862A8DE6856E85E7
:10091000B93F2A86324763080B028347E40623095E
:10092000F408D686EA852285B521CE9493F4F40F97
:1009300063E14903B3847441050993F9F40F137912
:10094000F90F814449B78347D406E5F38347F4069A
:10095000F9B723049406A30484074101D9B6EFF242
:100960001FB92A84130A0506553D8345A4075285FD
:100970008309B406CD358345B4072A8C5285E13D01
:100980008345C4072A8B5285F9358304A406AA8AB5
:10099000635D90084E9B834B0407330B6041035506
:1009A0004406620B135B8B41DE865A86E285CD35A9
:1009B0002312A4062A89035564065A86DE86E28538
:1009C0007D352313A40685472A86638CFB06638046
:1009D0000B0689476387FB088D47638BFB0A2A87D1
:1009E000CA86CA852285E12129C1231404068345CC
:1009F00064075285E93B834574072A895285C13BC8
:100A0000AA840146CA8522856D35A68522850546BC
:100A10004D3585455285653B6DF583079406E3C8E2
:100A200037FD8347E4062309F4085685EDBCCA94D4
:100A300093960401B304350113970401C1824183E5
:100A40004DB7B3073941AA940509931609011397C5
:100A500004018507C18241831399070113590901D4
:100A600049B70547B3049740B307990033073741A7
:100A70009304190093960401B305E500930415004F
:100A80001397040113960501C18241834182E9B79E
:100A9000B304954013061500B306390185041317F6
:100AA0000601C20613960401C1824183418215BF2B
:100AB0003C4D1307F00FDD076368B702130700060C
:100AC000637DB70003578508BA97983335C39423DD
:100AD000E39CB6FE13852700828013070004E376AB
:100AE000B7FE03576508CDB7EFF2FFA20354A50880
:100AF000AE843E94228981454A85A9392A94894544
:100B00004A8589391109E36895FE1C301820A2072F
:100B1000D98F13978700A183D98FC207C18399CB3F
:100B20006395F4001305340009BC3C203E94F1BFEA
:100B3000014582800145CDBFEFF2FF9D2A848D3FA4
:100B40000DC5AA852285D9398345A40793040406D7
:100B5000268511338345B4072308A4082685E53983
:100B60008345C4072685C539C9BA0145F5BFEFF2EB
:100B70001F9823050506AA84AE8AF12BC1671309C5
:100B800000FC014A0144138BF7FF9389E7FF930BA5
:100B900000FC83C50A00DC4026858297AA85630392
:100BA0006503850AE30735FF26857937131A0501A2
:100BB000135A0A0163147901038904095294420407
:100BC0004180C1BF8387A40691CF03870409BA97E8
:100BD0003E943304444142044180635520014A94C9
:100BE0004204418022856FF01F94A306B5068280DF
:100BF000EFF2DF908347050705472A842E89B284E8
:100C0000B689638FE7029DC709476383E7040D47F1
:100C10006384E704CE8523122407231394062285D8
:100C2000413DAA85014589C52285153B4205418183
:100C30006FF01F907C4D8297AA94C204C180D9BFE7
:100C40007C4D82973309A940420913590901D9B74C
:100C50007C4D8297898CD5B77C4D82972A99EDB7C8
:100C6000EFF2FF884169AA8C2E84B284B689130AF8
:100C7000F9FFD521014C7919854A094B8D4B83A782
:100C80004C0083C5090066858297AA8663034505E3
:100C90008509E30625FF2686A2856685913F83C7E1
:100CA0000C076380570391CB6381670363817703EC
:100CB0002A9C420C135C0C01D9B72A94420441804F
:100CC000C5BFAA94C204C180E5B7098CC5BF898C91
:100CD000D5BF62856FF03F85EFF2FF83B717000045
:100CE0009387C70B5CC1AD3F6FF03F853C4DA9CBEF
:100CF00003061508830625088347D5082307C5087A
:100D0000A307D50895CF0547639FE70083073508FC
:100D10006354F6002307F5088307450863D2D7021A
:100D2000A307F50882808307E50703070508BA973C
:100D30006354F6002307F5086354D700A307E508BA
:100D40008280B7070000938747767CCD8280384D3C
:100D5000630DB700EFF22FFC2A842CCC1305450756
:100D60002134228561376FF04FFD8280EFF2AFFAB8
:100D7000B71700009387C70B5CC1D53B6FF0EFFB43
:100D8000EFF26FF97E3D1D8E5C55420641828297DF
:100D90006FF0AFFA8347C508C1CBD9C6854763F961
:100DA000D70089476317F7068505958DC205C18170
:100DB000058B25EF8357C5046368F6068357E50462
:100DC0006374F606AE96C206C18283578504035843
:100DD000A50463F9B60463F605059306F8FFC20699
:100DE000C18263F3D704BE8863F3B700AE889395DE
:100DF0000801C181C28763F30601B687B386B74095
:100E0000C206C182EFF22FF11C599C4782976FF006
:100E1000CFF28D47E31EF7F80506158E4206418294
:100E200041BFBE85E3EF05FB828083578504E3ED78
:100E3000F5FE8357A504E3F9F5FEB296C206C1821A
:100E40008357C5040358E50463F9C60263760603B5
:100E50009306F8FFC206C182E3F8D7FCBE8863F3AD
:100E6000C700B288139608014182C28763F3060166
:100E7000B687B386C74069B73E86E36F06FD6DB798
:100E8000894763E5B7002309B508828085472309B0
:100E9000F50882806379B60085476364D500B3B7EF
:100EA000C6003E858280E36CD5FE8147DDBFEFF250
:100EB0008FE62A84AE848355E5040355C50436893C
:100EC000BA86C93F01C98355A40403558404CA8660
:100ED0002686C9376FF06FE60343250993787600BD
:100EE0008547339817011378F80F014E63E56700C3
:100EF000428E6309F30403230500619A5C5903439E
:100F000003013306660242064182B295BE950DCFBB
:100F100005479C218508FD16B367FE00B347F8001E
:100F2000C2069CA193F87800C18263900804323D08
:100F300083472509B2956365F700054E638EE70286
:100F400005481DA8014845BFAE96C206C1829C2136
:100F50008505B367FE00B347F800A38FF5FE9397AE
:100F60000501C183E395D7FE828093171E00060812
:100F700013FEF70F1378F80FC9FE828083458503AF
:100F80001441834895031397050141839317370054
:100F90005EBD9C2A13980801135808018E073EBDB8
:100FA000931738007EBD903AC6956356B600330756
:100FB0000641420741830E072310F504BA97231117
:100FC000F504DE2A2312F504FE2A2313F504828099
:100FD000EFF26FD465376FF04FD6EFF2CFD34D33CA
:100FE0006FF0AFD5EFF22FD3035765058356250574
:100FF00003564505835505052A84553D09E5230615
:1010000004086FF08FD385472306F4080357840440
:10101000835704056374F7002314F40483572405ED
:101020000357A40463F4E7002315F404835744052D
:101030000357C4046374F7002316F404835764054C
:101040000357E404E3FFE7FA2317F4045DBFEFF26C
:101050008FCC03574504231405042315E5043841B8
:1010600078C549376FF06FCDEFF2EFCA1C59417761
:1010700038C9DC4378C982976FF02FCCEFF2AFC943
:1010800093071010230CC502A30C0502A306050646
:10109000A3060508A30805082319F5081C4354D521
:1010A0004CD918D9232C05042A84829722856D3FB8
:1010B00022854139230804066FF02FC8D1C9A947FA
:1010C0006388F508034765022DE79307B00F63FABD
:1010D000B70095472303F50285890EB1C165F9155F
:1010E000B9A09307700F63F7B70091472303F50288
:1010F0008D89E5B79307F00E63F7B7008D4723039B
:10110000F5029D89D9BF9307F00D63F7B7008947B2
:101110002303F502BD89D1B79307F00B63F7B7003E
:1011200085472303F502FD894DBFC205C1812E8588
:1011300082801E3193F5F5037D179A07DD8DC20578
:101140001377F70FC1812303E5020EB16DD379B791
:10115000C165FD15E9BF230305028280EFF2AFBB35
:101160001C492E8681469305000282976FF0EFBCE2
:10117000EFF26FBA1C49B2862E86DD4582976FF07A
:10118000CFBBEFF24FB94111CC871306F100854573
:10119000C53741016FF06FBAEFF2EFB75C452E86AD
:1011A0008146D54582976FF04FB9EFF2CFB65C45D7
:1011B000B2862E86DD4582976FF02FB8EFF20FB41E
:1011C0004111AA842E845D49E549130AE00FD54AEE
:1011D0000C20638C25036367B90063F0550341015C
:1011E0006FF00FB563FBB902E39B45FF1030930529
:1011F00090022685D087E92439A01030DC4481464E
:10120000D087268582970904E1B71C301306F100C8
:1012100085452685DC87513FFDB7DC448146014684
:101220002685050482976DB79387C5FE93F7F70F60
:1012300015476362F704EFF20FAE6D678A07130775
:10124000077ABA979C4341113289AE842A848287F7
:1012500081452937CA8522852D37054541016FF023
:10126000CFAD854536C6DD3DB2461C484A86A685CB
:1012700022858297E5B701458280EFF22FA82E8460
:10128000CC212A89B2898E0593F5F50393E50504EF
:10129000213783C569004A8593E5850BF53D7C20A0
:1012A000A1CF542058309387860093F7870F958FEE
:1012B00093F7F70F9375F70F63F4E70093F5F70FC4
:1012C000AE960D8F10408E0593F4F50FA68554A0B1
:1012D00058B04A85D93D0C405C30AE9404C091EBC7
:1012E00083A709001CC083C749005CB07C20FD17A0
:1012F0007CA05C209D8BC5F76FF08FA3EFF2AFA1B0
:10130000A94741112A84638CF50863EAB700A54711
:101310006381F5088144268541016FF00FA2AD4736
:101320006381F50CBD47E397F5FE9C423689D432C4
:101330003EC483574900508713978700A183D98FF4
:101340007C869D4763E1D7025C4581460546E145C1
:1013500082974A862C0022850D375C4481460146DF
:10136000E545228582971886BD478544E3E5E7FA7F
:101370005C4481460946E145228582974A862C00D5
:101380002285E53D5C4481460146E54522858297FC
:1013900059B7ED659385857B65208544ADBF752084
:1013A0005C4481460546E145228582979385818686
:1013B000228529355C4481460146E5452285829790
:1013C0005C44E14581460946228582979385818662
:1013D0002285ED335C4481460146E54522858297AE
:1013E0006DBF5C4581461DE60546E14582979385C4
:1013F000C1862285E1335C4481460146E54522856C
:1014000082975C44E145814609462285829793850F
:10141000C1867DBF0546E145829793850187228578
:10142000713B5C4481460146E545228582975C44D8
:10143000E14581460946228582979385018749BF08
:101440000CC1BC292301F5028280EFF2CF8C5C49EC
:1014500081460146930580022A8482975C44814636
:101460000146D14522858297228505469305B00421
:1014700081281C40228593059002D023912022854B
:1014800001469305B0042D281C4022859305900247
:10149000D0233D20228505469305B00415201C402D
:1014A000930590022285D03321286FF00F89EFF247
:1014B0008F861C4581460146A54582976FF0EF87D0
:1014C000EFF26F855C49814682976FF00F87014587
:1014D0008280B71700009387E74C1CC55CC51CC908
:1014E0005CC9FD5723200500A30105022303050263
:1014F000232C05002302F5022304F5028280EFF27B
:101500008F8141112A842EC632C436C23AC0D137E7
:10151000B2452246924602470CC450C414C858C86B
:101520002285713741016FF04F8137050020130587
:10153000854B828005458280EFE2FFFD85474111A2
:101540002A8663F5A7008D4763E6A702B707002048
:1015500083A5874B37C5000074001305C5B202C6CA
:10156000EFC0606001C9B24791C7B7E700E01167FB
:1015700023A0E720054541016FE03FFCEFE2BFF902
:10158000B70700202A8403A5874B7D57814605466F
:101590008D45EFA080378547630FF50011C9894756
:1015A000630BF5008D476308F50005456FE0FFF814
:1015B00023200400DDBF08C0CDBFEFE2DFF5B70791
:1015C000002083A5874C411137C5000074000546F3
:1015D0001305C5B202C6EFC0005901C9B24791C791
:1015E000B7E700E0116723A0E72041016FE0FFF4B7
:1015F000EFE27FF2B705002003C7554CB707002084
:101600009385554C2382E74CB707002003A5C74BB1
:10161000EF90B03B83A7019282976FE01FF23705EE
:1016200000201305854C8280370500201305054CEA
:101630008280EFE25FEE85476382F6048947638329
:10164000F60401478146370400201304C44B0146C9
:1016500008C0EF90F028084037160000B7150000CA
:101660000D4785461306A65B9385055FEF90D02F47
:101670000840EF90F02D05456FE03FEC05679306BD
:101680000060D1B705679306004075BFEFE2BFE881
:1016900037040020AE841304C44B15C90840B705B5
:1016A00000209385554CEF9050323715014093053B
:1016B0000020130505C0EF80C044B707002003A534
:1016C000874C95C08545EFA0E0396FE01FE73715DF
:1016D000014093050020130505C0EF8080410840BC
:1016E000EF907030D9BF0147814605468545EFA090
:1016F000C021E1BFEFE23FE22A84371501409305A4
:101700000020130505C0EF80C03EB707002003A5E9
:10171000C74B9375F40FEF90B02905456FE0FFE1DB
:10172000B707002083C7474C1CA105458280EFE224
:101730009FDEB704002003A5844C7D5781460546F3
:101740008545EFA0801C8547E317F5FE83A74192EE
:101750008297D5B7EFE23FDC08218545EFD0B0395D
:101760007D572386E1806FE05FDDEFE2DFDA411134
:101770008545054502C202C423160100EF50D05B27
:1017800083A7018237470F0013070724B3D7E70267
:101790004C0037050040231501007C84896793873E
:1017A000F7703EC2EF503079054685453705004059
:1017B000EF60C02A854537050040EF60A0288545C9
:1017C00037050040EF602032B7E700E0056723A24D
:1017D000E71041016FE07FD6EFE27FD14111B709F9
:1017E000002061370144138C4180938B093F138B98
:1017F0008180914A93140401C1801385B40042058D
:101800004181EF10107AB3078C0088A31385F40090
:1018100042054181EF10F078B3878B0088A31385D0
:10182000340142054181EF10D077B3078B0088A3C4
:101830000504E31154FDB70600209386064D138678
:1018400081809385093F13854180EF70401595672E
:10185000938707E23EC29167938787A93EC44800F9
:10186000A5473EC6EFC0307BC9311841B7070020FD
:1018700023A0E74E41016FE01FCBEFE23FC801110B
:10188000C88793F745002E84A9C79379F50F1307EE
:10189000C0033387E902B7F70020938787F7BA9729
:1018A000D44798473697D44B9C4F3386F6006374E1
:1018B000C700B307D740B70400209384C44D8E20DF
:1018C0003ECE13076010AE976371F7061305F10063
:1018D0005135937784009DCB9384C18098209307E2
:1018E000F00F6315F70288878545EFD0D00588870C
:1018F0000566130686B6B305C502B71700209387A1
:1019000007B5BE95EFD0202D9C879CA0937704014E
:1019100081C77D572386E1801374040401C47D5779
:101920002386E18005616FE0BFC0372900201309DD
:1019300009227008CA954E85EFD0002F9E2072476D
:101940003E97420741839AA09947E3F4E7F883560C
:10195000490093978600A182D58FC207C1839386E1
:101960005700E3D8E6F69907E312F7F60545EFF0DE
:10197000BFBCB704002003A5044E7D57854605462D
:101980008545EF90907837060020B7250020130694
:10199000C64C938585324E85EFD0405E9384044ECD
:1019A00001C51305F1007D3388408945EFA0800B08
:1019B0000DB7EFE25FB6EFD08074937715002A84FD
:1019C00099C737B501001305057DEF60213B93777B
:1019D000240099C737B501001305457EEF60013A31
:1019E0009377440099CBEFD06075118919C537B54D
:1019F00001001305C57FEF606138418819CC0145AE
:101A0000EFD02071AA8519C10145853D0545EFD06C
:101A10004070AA8519C105458D356FE01FB2EFE210
:101A20009FAF39711304601F11C12A841306C003CC
:101A300081454800EFE03FB18D4722D64C0013842A
:101A4000D1801385D1803ED0EFC03077814719E92E
:101A50000820EFD08074854711C508208945EFD054
:101A6000900981473E8521616FE03FADEFE2BFAA5B
:101A70001385D180C5316FE05FACB7270020938715
:101A800007221CC1B70700209387C74D9A2305453D
:101A9000239007009AA18280EFE2FFA7B7270020DA
:101AA0002E862E84AA851385873293848732EF5041
:101AB000813FB707002023A6874C3704002013047A
:101AC000044E0840B7070020854523AC974CEF90A3
:101AD000707908407D57854605468945EF90F0624C
:101AE00005456FE09FA5EFE21FA383A78192829730
:101AF0006FE0BFA4EFE23FA2B726000095652A86FB
:101B000095470547938666AE938575C90D45EF9059
:101B1000403C05456FE07FA2EFE2FF9F0D45EF904F
:101B200080066FE09FA1EFE21F9F0D45EF90602FB1
:101B30006FE0BFA0EFE23F9EDD3501E50D456FE0B0
:101B4000DF9F0145EDBF8280EFE2FF9C05376FE02C
:101B5000DF9EEFE25F9C01112A84AE846808930542
:101B6000A10132C6193F15C9724715453C333423CC
:101B7000A207D58F93968700A183D58FC207C18313
:101B800091EBBC8532461D0798C0E5171EA2FD5794
:101B90001CA0014505616FE05F9A1545E5BFEFE2C6
:101BA0009F979307160013D787401D06238FF5FED6
:101BB0002E85A38EE5FE93150601C1816515E93DCD
:101BC000954711C181473E856FE03F97AA95C205B1
:101BD000716671681307F00F9306F00FC181130649
:101BE00006811308089193170501C1836396F500D8
:101BF00013958600598D828005058347F5FFB98FBF
:101C00003307F6001823C297358F9423E9BFEFE21C
:101C10009F9032842E852146A285EFF09FA18547B3
:101C20006316F5029567938707B01305300263E8E2
:101C3000870037151602130505EC3355850242055A
:101C400041814D3D054781476303E5008D473E8552
:101C50006FE0BF8EEFE23F8CB7070020814505455E
:101C600023A2074EEFF09FA2453D6FE01F8DEFE2EC
:101C70009F8A81450145EFF07FA175356FE0FF8BAD
:101C8000EFE2DF87138401901E201307F00F41114C
:101C90006371F702B7C60100716637C5010093860C
:101CA00006A6130606A19305D009130585A8EF50D3
:101CB000A1161E200D476366F700154541016FE030
:101CC0003F872E890E20AA893725002093040543DB
:101CD0001305054332C6DD3D6DF19C203246850477
:101CE0002380F9001E20F5171EA223209900F9B7C2
:101CF000EFE27F82B707002083A4474E8547639DAC
:101D0000F4061384219006A0AA87A38FF5FE1E2057
:101D10001385F5FF370700203E964206418212A048
:101D20000E202326A74E5D351A209376F50F2181CC
:101D30004207418393071700C207C1831EA0B7273C
:101D40000020938707433E9714A31A201375F50FBD
:101D500085454207418393061700C206C18216A03B
:101D6000BA9788A3B7070020014523A4974EEFF048
:101D7000FF9101456FE06FFC1545EDBFEFE2AFF954
:101D8000B707002083A7874E411185C3B7C601005E
:101D9000716637C50100938606AA130606A293054D
:101DA000600E130585A8EF5021071305F100EFF031
:101DB0003F97B70700209387474E98438546630FA8
:101DC000D70019C789466302D7048D476314F7000B
:101DD000EFF09FD4014541016FE02FF6938601900B
:101DE000239006009A22131607014182130716005A
:101DF000420741839AA2948737270020130707439D
:101E0000329714A3094798C3E1B7138701901623AB
:101E10001306F00F6363D6021E2393960701C18257
:101E200093871600C207C1831EA39887B727002097
:101E300093870743B69798A361BF0D47E9B7EFE2D1
:101E40008FEDB707002083A7474E05476381E70260
:101E5000B7C60100716637C50100938606B2130646
:101E600046A393053012130585A8EF40F17AB70415
:101E700000209384844E984019C7630BF7000144F7
:101E800022856FE08FEB81450545EFF03F80C5BFB0
:101E9000138421901E20C207C18385C7B704002088
:101EA0009384C44E9C40882362056185EFF09F8433
:101EB0009C4085079CC01E20FD17C207C1831EA041
:101EC0007DBF0D45EFF04FE72A8481450545EFF0D2
:101ED000EFFB23A004006DB7EFE2EFE3B7070020AC
:101EE0001387474E1443094641111384474E638FAD
:101EF000C6028D476388F604014595CA1443B9C2EA
:101F000014436381C604184301456304F702B7C64E
:101F10000100716637C501009386C6AB130686A41F
:101F20009305D015130585A8EF40116F0545EFF017
:101F3000AFE02AC6EFF03FBF324585471CC04101E4
:101F40006FE0AFDF0145F5B7962115476398E608C6
:101F5000582130319306E07C2207518F13168700F9
:101F60002183598E420641821307F6FF42074183BF
:101F7000AA870D4563E6E606EFE2EFD9B82394336E
:101F8000239005002207558F854694A396219354EC
:101F9000360093F4F40F850696A19376760081C6F9
:101FA000850493F4F40F84B396212E8413852700BF
:101FB000850696A19315870021834D8F9305170001
:101FC000C2058146C181EF20006C01C5092B6FE07D
:101FD000CFD61E200145BE9406A0D5BF0D458280F8
:101FE00082809A2195476311F70658218D4731EF7A
:101FF00038311306D00F9306F7FF93F6F60F63768A
:10200000D604EFE24FD13C210C314111A207CD8F14
:1020100093958700A183CD8F93851700130717F041
:10202000C2051337170085460546C1816800A3061F
:1020300001005886EF202065814719C14D21AA87EC
:102040003E8541016FE06FCF8D473E8582809621AE
:102050001547637FD70658213031AA872207518F51
:10206000131687002183598E42064182135736008A
:10207000937676001377F70F81C605071377F70F6E
:102080009306F6FFC206C1821308F07A0D4563631A
:10209000D804D4336390E604EFE2EFC7B8232E846C
:1020A0008C332207138567004D8F93168700218399
:1020B000558F0507931507018546C181EF20A05C68
:1020C00001C531296FE06FC795471EA00145DDBFEF
:1020D0000D4582808280962115476397E608582136
:1020E00030319306E07C2207518F1316870021833D
:1020F000598E420641821307F6FF42074183AA87A1
:102100000D4563E5E606EFE20FC1B8239433239053
:1021100005002207558F894694A3962193543600D3
:1021200093F4F40F850696A19376760081C6850414
:1021300093F4F40F84B396212E841385270085062B
:1021400096A19315870021834D8F93051700C20533
:10215000C181EF20A06101C559266FE00FBE1E208E
:102160000145BE9406A0D5BF0D45828082809A218C
:102170009547631CF702EFE20FBA3C210C3185460C
:10218000A207CD8F93958700A183CD8F93851700EC
:10219000C2050546C1810D05EF20E043814719C105
:1021A0003D2EAA873E856FE04FB98D473E858280E0
:1021B000EFE26FB69A21954463F7E4065821303177
:1021C000930670072207518F131687002183518FC2
:1021D0001316070141821307F6FF42074183AA87BE
:1021E0000D4563EDE602D433131716001377F70F8E
:1021F0006396E602B8232E848C332207138567008A
:102200004D8F931687002183558F0507931507017E
:102210008546C181EF20203C01C5D1246FE0EFB19C
:1022200006A00145E5BF0D45D5BF96211547639A28
:10223000E606EFE24FAE54211306C007AA87939437
:102240000601C1801387F4FF420741830D45636295
:10225000E6042E84B8238C332310040088A31220B4
:1022600086062207050612A04D8F94B393158700AA
:10227000162021834D8F930517008506C20516A0F1
:1022800026868146C18113852700EF20C03401C511
:10229000B9246FE08FAA1E2086040145BE9406A0D3
:1022A000CDBF0D4582809A21A54763F2E70EEFE28C
:1022B000EFA45C2138312A84A207D98F9399870033
:1022C000A183B3E7F9009399070193D90901938793
:1022D000F9FFC207C1831307C0070D456367F70AFB
:1022E0001C24703013078007A207D18F1396870034
:1022F000A183D18F1396070141829307F6FFC2078E
:10230000C1836364F708183493171600639FE706C8
:1023100024202E890C30A2047C20CD8C4C30A207C6
:102320008546CD8F93958700A183CD8F9385170028
:10233000C205C1811305A400EF20E02939E923106B
:102340000900DD471CA083570900139A19009395D3
:10235000840085072310F900A30044018357090076
:10236000A180CD8C938514008507C2052310F90048
:1023700081464E86C18113052400EF20C02511E956
:10238000835709003E9A231049016FE06F9A014577
:102390008280B122DDBF962115476390E60858215F
:1023A00030319306B0072207518F1316870021831F
:1023B000518F1316070141821307F6FF420741832D
:1023C000AA870D4563EDE604EFE2EF942E843E8587
:1023D0008C331147BC232310040018A11A20A20734
:1023E0009314160005071AA004B1CD8F93958700AA
:1023F0001A20A183CD8F938517000507C2051AA067
:10240000C1810905EF20A01001C5D1286FE0EF922E
:102410001E200145BE9406A0D5BF0D458280828056
:10242000EFE26F8F03D44190AE84B725002022865F
:10243000938505530505EF401127050482A001454A
:102440006FE0AF8FA14763F3C702EFE2CF8CB7C64F
:102450000100716637C501009386C6B41306C6B382
:10246000930580031305C5B5EF40111B13D7350045
:10247000930717003308E5003E958547B397C700DB
:10248000FD17C2070E073387E540C183B397E70006
:1024900018210346080093C7F7FF2207518F9D8933
:1024A000F98FB396B600DD8EC206C1862300D80030
:1024B000C206C182A18214A1828093D735003E95C5
:1024C0001C3108219D89A207C98F05453315C50018
:1024D000B3D7B7407D157D8D1375F50F82809D476D
:1024E00063E7A70093874187AA97882382801145D5
:1024F0008280EFE24F82AE871388F7FFB2851378B0
:10250000F80F36869306600F63FC060137C501009D
:102510001305C5B7EF509106094422856FE0EF819E
:10252000238AF180094475F937250000130545C554
:1025300023ACA190372500001305E5C623AEA1907A
:1025400037250000130505CF23A8A19037250000EB
:10255000130505C823A6A1903725000023AA0190E2
:102560001305C5D723A0A192372500001305E5E385
:1025700023A2A19237250000130585ED23A4A19283
:10258000BA863E85EFF0AFE82A8441F9EFE09FFA82
:1025900009C5054723A8E18049B70D44BDBFEFD267
:1025A0009FF7EFF02FD92A8419C5054723A8E180AA
:1025B00022856FD09FF8EFE0FFF71DCDB727000011
:1025C000938767B423ACF190B7270000938787B453
:1025D00023AEF190B7270000938727B523A6F1908B
:1025E000B72700009387E7B923A8F19023AA0190A9
:1025F0007D57238AE18055BF0D445DBFEFD2BFF107
:10260000138401811840854719456318F70083A793
:10261000819182970145232004006FD01FF2EFD2F1
:102620009FEF83A70181411119446395070C68004E
:10263000EFE0DFF40547AA876304E50001445DA8E5
:1026400032476303A7088946E31AD7FE03A501931F
:102650000C213707002023A4F190130607002386DE
:10266000B1928147138401931389C192938481901D
:10267000130707004148142291CA6391D5088E07B9
:10268000BA97DC4393856193829788C083C741934F
:10269000D5D794409387619385C2034709001040C2
:1026A00085458EA3136707F818A292231840930557
:1026B00016008EA3329714A3922303A701910C4016
:1026C00003C5418102979DBF83A7C1909384419325
:1026D00013866193938501931385419382972A848E
:1026E00031FD9C2003C741816303F700A1FB09452D
:1026F000EFE09FE4228541016FD03FE4850721068A
:10270000E39B07F761B7930740063345F502A947F6
:102710004205418163E8A706F1679387C7B80A05B8
:102720003E951C41828723800500930760041CA20C
:10273000828089479CA193078002D5BF91479CA1C5
:10274000E547F5B795479CA1D147D5B79D479CA1D3
:10275000BD47F1BFA1479CA1A947D1BFAD479CA1EF
:10276000A147F1B7B1479CA19D47D1B7B9479CA1FB
:10277000994775BFBD479CA1954755BFC1479CA1CF
:10278000914775B7D147E5BFEFD2FFD87971BD4703
:10279000AA842E84368593056100130671005C833C
:1027A000DC83EFF05FF69C83034E61009308C05D0D
:1027B00093960701C182B388F840139827001397B6
:1027C00016008608B30EC0411393260081470145C9
:1027D0008145054FD14F634A170105476369F70AE1
:1027E00081471EA045616FD05FD593161700A6964E
:1027F0000396060063DBCE046359C605B3060741A2
:102800008606A6968396060063C5C604B306E8004E
:102810008606A69683960600634DD60211C19DCD0D
:1028200081459386170010188607B2971356170034
:102830001A974207050593F6F60F239CC7FC4183C0
:102840001375F50F63EDDF00B68709074207418373
:1028500059B719C16384E5018545E1B79546300054
:10286000054781472E220A2205071377F70F898D26
:10287000AE97C207C1830906E366D7FEFD16B3C74C
:10288000D702C207C1838607C207C18399BFBE862C
:10289000F9B7EFD25FC8B386C502AA8801470145E0
:1028A0000148634FD7002E868146C285EF20C11AAA
:1028B000EF404115EFB0E043EF4001386FD0FFC764
:1028C00093171700C6978397070032974207B3877D
:1028D000F702418313DEF741AA9733B3A70072983A
:1028E0003E851A987DBF856793870777AA971A2137
:1028F00036211105158F231EE5FEE39AA7FE82807F
:102900000566814701478146130686BB1398170069
:102910002A98031808009398070193D8080163D4F4
:1029200006014687C2868907E392C7FE05839AA1FE
:1029300036858280EFD23FBE0545EF609017138445
:102940004194931505010420C1850545EF601027CA
:10295000B74700208604938707CCA6978AA31C203C
:102960009546850793F7F70F1CA01387818163F4C1
:10297000F6040C23373501408546054613050580CE
:1029800023000400EF40E02703A581941384819580
:102990000147938781958546094681452320040098
:1029A000EFA0504B1C4091C7B7E700E0116723A090
:1029B000E7206FD09FB8BA978C23373401401305B6
:1029C000048085460546EF40C023854513050480F5
:1029D000EF40A021F9BFEFD21FB40945EF8060445A
:1029E000B707002083A6C71D416779179C4203A53E
:1029F0008194F98F9CC21384419501479387419537
:102A000085461146814523200400EFA0B0441C40B8
:102A100091C7B7E700E0116723A0E7206FD0FFB1AF
:102A20009D4763E8A702EFD21FAFAA852A845D45C0
:102A3000EF005043370500201305050806042A94CB
:102A40001A20B74700209387C7D1DAA39AAB6FD07B
:102A5000DFAE82801385819482801385C194828049
:102A600087A78193539517C01375F50F8280EFD216
:102A70009FAA5D71EF604034A9450145EF60E034E5
:102A800071642946930504C60145EF602042A945BB
:102A90000545EF6080332946930504C60545EF6080
:102AA000E040A9450945EF604032930504C6294638
:102AB0000945EF60A03F93070010B70608007010AB
:102AC000894501452316F102EF6070129307000259
:102AD000BEC0B72701409387C744BEC2B7270020B6
:102AE00093870755BEC485473EDE8567938787BBBE
:102AF0002316F1040C188567130600020A853EDCD4
:102B000002D802DAEF40213AB73600000A859386F0
:102B1000669D01468545EF60F028B707002003A7B2
:102B2000C71D814605461C43B7050E00054593E7C2
:102B300017001CC33737000013074793EF60501589
:102B400083C58181373501409D46054613050580C3
:102B5000EF40200B0545EF40401637450020130994
:102B600005DB130600328145130505DBEFD0BF9D61
:102B70005D45EF00D03FB7040020938404080605AC
:102B800026951E21374400201304C4D13745002068
:102B90005EA023202401130600321309050D814590
:102BA000232404001305050DEFD0FF995D45EF00C8
:102BB000103C0605AA94374700209E201307C7CC77
:102BC00058D037470020130707CE1EA818D88D47C6
:102BD000374700205EAC130747CF58DC9387C1937B
:102BE000374700201CCC130787D0A9471EB45EB816
:102BF0002310F4042316F40438C4231CF404231211
:102C0000F40637470020B7470020130787D893877B
:102C1000C7D923262401232A0400231004022316E3
:102C20000402231C04022312040423180404231E98
:102C3000040478C8231404063CD061616FD0FF8F70
:102C40001A251C410607BA978EA31E255A2185070F
:102C5000C207C1831EA563E4E70023140500828038
:102C600052211A2581469305F6FFC205C18181478D
:102C7000631CD6000315A5003305C502898F33C533
:102C8000C70242054185828011E32E877D174207E6
:102C9000032805004183931817004698031808007D
:102CA0008506C206C297C182E1B7AD4763E2A712AB
:102CB000EFD27F86F167938787BB0A053E951C415B
:102CC0008287374500201305C5D1EFF07FF9D37710
:102CD00005D0B1A037450020130585D2FDB7374593
:102CE0000020130545D3EFF0BFF7D37705D0538508
:102CF00007E0EF30B169B7C7010003A607D183A68B
:102D000047D1EF207173B7C7010003A687D183A60F
:102D1000C7D1EF207172EF303172D30705F05385C0
:102D200007E06FD09F8137450020130505D4EFF0F1
:102D30003FF3D37705D0538507E0EF303165B7C750
:102D4000010003A607D183A647D1EF20F16EB7C7D4
:102D5000010003A607D283A647D265BF37450020EE
:102D60001305C5D4E9B737450020130585D5C1B78C
:102D700037450020130545D6EFF09FEED37705D0F9
:102D8000538507E0EF309160B7C7010003A607D174
:102D900083A647D1BDBF374500201305C5D7EFF047
:102DA0003FECB7C70100D37705D007A7C7D0D3F74B
:102DB000E710B5B70395219519BF374500201305D6
:102DC00005D7F1BF0395019519B787A7819381BFF7
:102DD000D30700F0538507E08280EFD2CFF0411196
:102DE0009307B05D7C8323120100EF90102FB7C7CB
:102DF000010003AB87C583ABC7C5056CB74A00208C
:102E00002AC69544014D01490144372A0020930CFC
:102E10000C77938ACAD185456800EF90F0588947AE
:102E20006307F9028D476300F90263100902373521
:102E30000140854513050580EF30305B0945EF7093
:102E400090540D49C9BF0949F9B70549E9B7054784
:102E50003400194681450145EFA02057A247898BD0
:102E6000A1CBB7490020938909CC094DB1479D4DAD
:102E70003305FD0283952900050D89095695EFF06C
:102E80003FDCB147E316BDFFA947B377F402054D18
:102E900063929702FD1493F4F40F91E0A544373543
:102EA0000140854513050580EF303054014D19A0D0
:102EB000E31C0DFCA247918BC5C393090A55B38D42
:102EC00099018395090001458909EF60204F239FEF
:102ED000A9FEE3983DFF13050A55EFF0DFA0930527
:102EE000210013050A55EFF0BFA1AA8693056100E2
:102EF000094613050A55EFF03F892C839307A05D1F
:102F000063EEB702094613050A55EFF09F98D30701
:102F100005F04C00539517C042054181EF50D06633
:102F2000D37715D0538507E0EF3051465A86DE86B9
:102F3000EF209150EF30515023ACA192B707002001
:102F400083A7C71D13078CBB0945D8C398431367D4
:102F5000170098C3EF70304305041374F40FA547AE
:102F6000E3FB87EA014445BD9C4221476369F708BA
:102F7000EFD2CFD871678A07130787BEBA979C43F1
:102F8000B6843289AE892A848287EF60905109899C
:102F900019C101459DA02285EF60F05785479CC06F
:102FA000CDBFEF60304F05896DD59305A00D22850B
:102FB000EF60F0508947E5B7EF60D04D098971D9CE
:102FC0002285EF60104ECE852285EF60704E8D47D2
:102FD000F9B7EF60304C1375050845DDCA852285C9
:102FE000EF60104DA14765BFEF60D04A13754508EB
:102FF0004DD12285EF60F05005456FD06FD301456C
:1030000082809C4229476364F70CEFD22FCF71670F
:103010008A071307C7C0BA979C43B6843289AE8922
:103020002A848287EF60F047098919C1014571A898
:103030002285EF60504E85479CC0CDBFEF60904524
:1030400005896DD59305A00D2285EF60504789470E
:10305000E5B7EF603044098971D92285EF6070448B
:10306000CE852285EF60D0449147F9B7EF6090425A
:103070001375450845DD2285EF60F049A9476DBF0E
:10308000EF60504105895DD19305A00D2285EF6069
:103090003044994755B7EF60F03F098941D92285FF
:1030A000EF6030409D4749BFEF60D03E1375050487
:1030B00035DD2285EF6030432285EF60903C2300B0
:1030C000A9002285EF60F04305456FD06FC601452A
:1030D00082809C411D47636AF718EFD22FC2716747
:1030E0008A07130787C3BA979C432A844111134563
:1030F0001500368A3289AE898287B286930500032D
:103100002946EFF07FE68547631BF50423A0A9005D
:1031100023200900A9A0B286930500031306F1003D
:10312000EFF03FEE8547631CF5029C87A18BEDF322
:10313000894723A0F900E9BFB7470020938787415B
:10314000131634003E96CA869945EFF09FEB8547EB
:103150006317F500232009008D4723A0F9004101E2
:103160006FD00FBDB2860E0437460020050413064B
:10317000864122969D45EFF0DFE88547E311F5FE95
:10318000232009009147D1BFB7470020931A34008C
:103190009384874113862A00CA862696A145EFF0BC
:1031A0005FE68547E31DF5FAB3875401842388332E
:1031B000C2042205C98CA823B7078000C98C63F913
:1031C0009702EF100000B70700FFBE94B3D4A4022B
:1031D00023109A0031453304A40283150A003745B1
:1031E00000201305C5D12295EFF09FA5954791B713
:1031F000EF00307D33D5A4022310AA00E1BFB286D0
:103200000E04374600200D04130686412296A5457C
:10321000EFF03FDF8547E314F5F4994719BFB74452
:103220000020131A34009384844113064A00CA868E
:103230002696A945EFF0FFDC8547E312F5F213343B
:10324000140031451D043304A402D294AC30DC20B8
:1032500037450020A205BE95C2051305C5D1C1851D
:103260002295EFF0FF9D9D47E9B582800547A38138
:10327000E194828003C73194138631942DC79386DD
:1032800021949822B747002025459385073F636224
:10329000E50203D6019593171700AE9792A3930703
:1032A000A7008607BE9583D72195050798A29EA102
:1032B00082809387073F93854701014781468A2390
:1032C0008907AA96AA2B2A97E39BF5FEA945B3C6C0
:1032D000B602B74700209387C7D1230006003347C3
:1032E000B702F6ABBAA78280EFD24FA14111130506
:1032F000803EEF90101837C50100130505CB02C4BE
:1033000002C637C40100EF407127B7C40100EF9037
:10331000C05C2A8A02C002C2EF90205C330545419E
:1033200042054181E54763F3A70402469D47630DCB
:10333000F600A24537C50100130545CCEF40111238
:103340000545EF60101C02C412469D47630DF60050
:10335000B24537C50100130585CDEF403110014559
:10336000EF60301A02C6EFF0FFF055B7954763F8EB
:10337000A702824791EB1385C4CEEF4031209D47D1
:1033800005453EC0EF60F017924791EB1305C4CF9F
:10339000EF40D11E9D4701453EC2EF6090169386D7
:1033A000219530008A850145EFF0BFD293860195C3
:1033B00070004C000545EFF0DFD182471D47E39DCB
:1033C000E7F41247E31AF7F40545EF90900AA9B71E
:1033D0007300203037C501001971130585D282FEB4
:1033E00086FC8AFA8EF892F696F49AF29EF0A2EE95
:1033F000A6ECAAEAAEE8B2E6B6E4BAE2BEE042FE65
:1034000046FC4AFA4EF852F656F45AF25EF062EE74
:1034100066EC6AEA6EE872E676E47AE27EE0EF4015
:10342000F115EFA0F00BAA8537C501001305C5D330
:10343000EF40D102EFA0300BAA8537C5010013057C
:10344000C5D4EF40B101EFA0700AAA8537C50100CD
:103450001305C5D5EF40910001A0317106DF16DDDF
:103460001ADB1ED92AD72ED532D336D13ACF3ECD4C
:1034700042CB46C972C776C57AC37EC182FE86FC3E
:103480008AFA8EF892F696F49AF29EF0A2EEA6ECE4
:10349000AAEAAEE8B2E6B6E4BAE2BEE042FE46FC14
:1034A0004AFA4EF852F656F45AF25EF062EE66ECC4
:1034B0006AEA6EE872E676E47AE27EE0EF40105E59
:1034C00013050008EF30D04CFA50EA525A53CA5351
:1034D0003A55AA551A568A567A47EA475A48CA4868
:1034E0003A4EAA4E1A4F8A4F7670E6705671C671E0
:1034F0003672A672167386737664E6645665C66580
:103500003666A666166786677278E2785279C2795F
:10351000327AA27A127B827B726CE26C526DC26D3F
:10352000326EA26E126F826F2961730020301971A2
:1035300082FE86FC8AFA8EF892F696F49AF29EF053
:10354000A2EEA6ECAAEAAEE8B2E6B6E4BAE2BEE0C3
:1035500042FE46FC4AFA4EF852F656F45AF25EF033
:1035600062EE66EC6AEA6EE872E676E47AE27EE0A3
:10357000EF50E0317670E6705671C6713672A67201
:10358000167386737664E6645665C6653666A66607
:10359000166786677278E2785279C279327AA27AAF
:1035A000127B827B726CE26C526DC26D326EA26EC7
:1035B000126F826F0961730020301971294582FEF4
:1035C00086FC8AFA8EF892F696F49AF29EF0A2EEB3
:1035D000A6ECAAEAAEE8B2E6B6E4BAE2BEE042FE83
:1035E00046FC4AFA4EF852F656F45AF25EF062EE93
:1035F00066EC6AEA6EE872E676E47AE27EE0EF4034
:10360000E06B854537050040EF40E04D7670E67091
:103610005671C6713672A672167386737664E66446
:103620005665C6653666A666166786677278E2785E
:103630005279C279327AA27A127B827B726CE26C06
:10364000526DC26D326EA26E126F826F096173008D
:103650002030B7470020938787423E950CA1A18177
:103660000CB18280EFC23FEB9307E00241112A8444
:103670006306F500930700036316F5002EC6EF20DE
:10368000106CB2452285EFF0DFFCB7450020938532
:1036900085420947A9460946A2952285EF50A065B3
:1036A00041016FC09FE9EFC21FE7A1472A8493F44D
:1036B000F50F6309F50463E1A7028547630BF50481
:1036C0008D4701456309F402B7470020938787427D
:1036D0003E9404A0054505A093070004630FF50080
:1036E00093072004630BF500DD47E31FF5FC9947C2
:1036F0000145E3FBB7FC6FC05FE48547E3F6B7FC29
:103700008544D9B793074006E3F0B7FC930440061D
:1037100065BF8D470145E3E0B7FE91CDB745002079
:1037200093858542A4B10947A94605468D050D45F7
:10373000EF50605C51BF814441BFB7470020938781
:1037400087423E950CA18280EFC2FFDC2A84EFF015
:103750009FF501CDB7450020938585420947A946CD
:103760000546A2952285EF5000596FC01FDDB7476F
:10377000002093878742AA97983388232207598D80
:103780008280B747002093878742AA979833A8235F
:1037900022074205498F8823498FA8336205598D36
:1037A0008280B7470020938787423E950821828018
:1037B000B7470020938787423E9593D785000CA199
:1037C0001CB193D70501E1813CA12CB18280EFC2ED
:1037D0009FD4B74400201306E0038145138584423B
:1037E000EFC07FD60947930640061306E003938592
:1037F00084420145EF50E041894755E113848442FA
:103800001420130780098147638BE60813068002A2
:10381000814513056401EFC01FD3B70704019387E7
:1038200087191CC0B7C7FAF09387E77B5CC0B7075E
:103830000AC0138727139387871A5CC4B70701FF51
:103840009387871A1CC8FD575EA8B7C7010083A5D8
:10385000C7D61305A00218C4EFF09FF599477CB8AE
:1038600009479307601F9306803E1306E003938584
:10387000844201451EACEF50004819E537C50100F0
:10388000130505D7EF40814F0947930640061306FD
:10389000E003938584420145EF50A03785473E857C
:1038A0006FC0BFC9EFC23FC72A84EFF07FF0B745B2
:1038B0000020938585420947A9461146A295228595
:1038C000EF5060436FC07FC71E212A21C2075D8D64
:1038D0008280AA8741818AA1BEA18280B747002049
:1038E00093878742AA979833A82322074205498FD6
:1038F0008823498FA8336205598D8280EFC21FC08B
:103900002A8439711305A003AE89328A3689EFF013
:103910001FE663678506AA841305C003EFF03FE541
:10392000B307954063D90700636A95047D14058C3D
:103930002A94420441801D453305A4020947A94643
:103940001D466C001305E50342054181EF50602CD4
:103950001C86B8802380F9009C862304F9001C870C
:103960002322F9009C87A304F90083472101231037
:10397000EA002301FA0021616FC09FBB2A8465BF62
:1039800023800900CDBFEFC21FB90111AA8413051E
:10399000C003EFF0DFDD2A8468004482EF60B034BA
:1039A0004808EF60D0371D453305A4028347C101A5
:1039B0003886A946DC82E24778841D465C838347CB
:1039C000D1011305E5034205DC831C8709474C0040
:1039D00041815C85EF50203213051400420541817E
:1039E0009307100363F3A7000145374400209307B2
:1039F0008442238EA7021305A003A38E0702EFF0D3
:103A00001FD7930710039305844263E7A7000505BA
:103A1000238DA502A38D05020947A946114693856A
:103A2000A5031305A003EF50002D05616FC0FFB083
:103A3000914763E0A704EFC21FAEF167938707D8F1
:103A40000A053E951C41828785659385058037254B
:103A5000014013050580EF6020091375F50F6FC055
:103A6000DFAD8565EDB78965DDB79165CDB7A1653A
:103A7000F9BF01458280954763E5A704EFC2BFA95E
:103A8000F167938747D90A053E951C4182879305C4
:103A900000043725014013050580EF60E0046FC086
:103AA000DFA993050002F5B7C145E5B7A145D5B734
:103AB0009145C5B73715014093050010130505C0A2
:103AC000E9BF01458280EFC21FA585476309F50262
:103AD00011C58947630AF5026FC03FA689E9A14570
:103AE00037150140130505C0EF60A000F5B7A145EB
:103AF00037150140130505C0EF60A000F1BF99E143
:103B0000C145F9BFC145EDB781E593050002C9BFC5
:103B100093050002F1BFEFC21FA07971A9473ED201
:103B20003ED0B7470000938707A34C0801453ED617
:103B300002CCEF50C0494C080545EF5040494C08B5
:103B40000945EF50C0484C080D45EF5040484C081F
:103B50001145EF50C047B7470000938767AC2C0072
:103B600001453EC802C6EF50E03B2C000545EF5032
:103B7000603B2C000945EF50E03A45616FC0FF9B68
:103B8000EFC27F99011199475C849387C1953EC824
:103B9000938741963EC6B7071464D1073ECA89474A
:103BA000230CF100B7470000938767A728003ECE9B
:103BB000EF50805805616FC05F98EFC2DF95EFF05E
:103BC0003FFCEF50C056EF90C00AEF50A05BEF50A3
:103BD0006043C5BFEFC29F9279713714014002C69E
:103BE00002C802CA02CCEF501072F146014613051A
:103BF0000480C145EF50106C130504C08D45EF5093
:103C00007069130504808D45EF50D068930500035B
:103C100037150140EF501068130504809305400CE0
:103C2000EF505067B7240140138504809305007856
:103C3000EF50506513050440B165EF50B0648565E1
:103C400037150140EF501064130504408D45EF50C7
:103C50007063130504409305000EEF50B062130526
:103C600004409145EF501062130504408565EF5004
:103C70007061E1460146130504C0A965EF509063E9
:103C80009307800491696C08130504C03ED2231E7B
:103C90003101231F01002310010223110102EF3023
:103CA000C04F130504C08565EF50D05D91453715B1
:103CB0000140EF50305D1305044093050004EF50C0
:103CC000705C370613808D65E1464106130504409C
:103CD000938505A0EF50105E130504C09305800383
:103CE000EF50505A0569930509C037150140EF5050
:103CF0007059138504809305C007EF50B05A13051F
:103D000004C093050010EF50F059C165138504807D
:103D100093850580EF50105981450145EF30A01380
:103D20001305044093050004EF50B05C130504C074
:103D300093050020EF501055370A308013062A00F3
:103D40001385048091468945EF50D05613062A000A
:103D500013850480E1468545EF50D055E146014684
:103D60001305048093050040EF50D054854511653C
:103D7000EF30807C11457526EFE07FCFB7B51D0091
:103D80006546938595150945EF70A01093050002CF
:103D90000945EF60B06095659D461306803E9385AA
:103DA00005E22145EF70801B1306401F9D4521450C
:103DB000EF70E0282145EF7000312145EF60B05CE5
:103DC000B7170300938707D43EC6B70700403EC825
:103DD0006C00B70700048546054601453ECA231C12
:103DE0003101EF5030566C00854605460545EF50D1
:103DF0007055930509C0130504C0F1460146EF5004
:103E0000704BF14601469305000C130504C0EF50BA
:103E1000704A0145EF50D0510545EF507051680888
:103E200002CE02D002D202D402D6EF50E06E854517
:103E30000145EF20907F9305803E0145EF30A001C2
:103E4000EFF07FCD0545EF40B04A45616FC04FEEC2
:103E5000EFC26FECB74700202384A7461145EF60FF
:103E6000905213064006FD550945EF90C04A6FC0B9
:103E7000CFEC1385C1968280EFC2EFE9B7570020DF
:103E800083A5C78A374500201306004013058547E0
:103E9000EF20117F1375F50F6FC02FEAEFC22FE5EA
:103EA00037140140130504409145EF509045130528
:103EB000044093050008EF50D04485653715014054
:103EC000EF5030442945EF80D05A856537150140C1
:103ED000EF5030422945EF80D05913050440930537
:103EE0000008EF501041856537150140EF507041D3
:103EF0002945EF801058856537150140EF50703F18
:103F00002945EF8010579305000813050440EF5032
:103F1000503F1305F003EFF0BFF30545EF807055F8
:103F20009305000813050440EF50B03C1305F0035F
:103F3000EFF01FF20545B7590020B7440020EF808D
:103F40005053B74A0020938989871304044093840F
:103F50008446A14B7D5685450145EF90C03B83A526
:103F600049031306004013858A47EF20D173138A53
:103F70008A470149930500082285EF5090381305C0
:103F80000004EFF0FFEC136B890B5A85EFF05FEC48
:103F9000930500082285EF50D03513050004EFF09B
:103FA0003FEB5A85EFF0DFEA93070008114523A2A3
:103FB00044019CC423800400239604000509EF609B
:103FC000903C13064006FD5509451379F90FEF9013
:103FD0008034130A0A08E31F79F9ADBFEFC2AFD3EB
:103FE000B71401402A8413850440EF5010319355D3
:103FF00024409317E4008D89DD8D9167F1177D8D45
:10400000C98DC205C18113850440EF50D02EB7245D
:10401000014013850480EF50502E0E041375F58770
:1040200013740478498C93150401C18113850480AD
:10403000EF50702C6FC06FD0EFC2EFCD83C70197E8
:1040400041113744002002C693840197130484462B
:10405000A5EB371901409305000213050940EF5005
:10406000502A1C2085651305094085C7EF5070292B
:104070000820EFF0BFF623140400371501409145E6
:1040800013050540EF50F02685479CA041016FC005
:10409000CFCAEF5010265A249307F0039305000867
:1040A0001305094063EBE700EF50B0243A245C406D
:1040B000BA978823EFF09FF2C9B7EF509024FDB76D
:1040C00037150140914513050540EF5090235E24BC
:1040D0001307F0078507C207C1836361F7045EA475
:1040E0003E241A248507C207C1833EA463E5E70284
:1040F0001145EF60105303A5C1967C0001478D4622
:1041000005468945EF900055B24791C7B7E700E0F3
:10411000116723A0E720238004008DBF231604002D
:10412000C1B7EFC24FBFB7460000B7B50A00854719
:104130000147938686030546938505E6EF6070592F
:10414000371501409305000213050540EF50701B21
:1041500037540020ED658146014613058487938519
:104160004579EFC02FDBE9659385455113058487B9
:10417000EFC0FFBD13058487EFC08FD76FC0EFBBC3
:10418000EFC26FB90945EF30A01AEF10F071EF9050
:10419000F01FEF20C037EF208034EF202018EFD041
:1041A000AFE3EFF03FA3716513050520EF903027D3
:1041B00037C501001305C5DAEF30513CEF802068A8
:1041C00001A003D5E1818280EFC2EFB4B756002091
:1041D0009387869113171500BA978E239307E5FFEF
:1041E00013F7F70F930790024111938686910144CC
:1041F00063E7E700F167938787EDBA97802393071A
:10420000B00363EDA7007167931725001307C7DBA1
:10421000BA979C43828799C1EFF04F8541016FC0E7
:10422000CFB193F5F50F2285EFF0EFC7C5BF13F5BA
:10423000F50FEF20A031DDB70D4793871197637518
:10424000B7009C239EA2D9BF8CA3C9BF83D7C60643
:1042500083D5A6060145C207DD8DEF40B03BD307ED
:1042600005F029468545539517C04205418133061F
:10427000C5022145EF60B05C2145EF60D06479BF95
:1042800083D7060783D5E6060545C207DD8DEF40D7
:104290007038D30705F029468945539517C0420564
:1042A00041813306C502F1B783D7460783D5260778
:1042B0000945C207DD8DEF40F035D30705F02946EB
:1042C0009145539517C0420541813306C50255B744
:1042D0002E85EFE0EFF499B79E32E3F1F5F42285F5
:1042E00079A8FE2EE3FCB7F2DE32C5BF9E32E3F7BB
:1042F000B7F2BE32DDB7DE32E3F2B7F2CDB77D15ED
:1043000006053695EFF04FDCAA852285EFF04FCAFF
:1043100031B783C71197E38307F0D1B7DD47E3EFE8
:10432000B7EEBE2A48005C82DE2ADC82FE2A5C836D
:10433000EF60E028E5B59307B003D5B7FD15C205DA
:10434000C181F947E3ECB7EC9E2E48005C86BE2E97
:104350003EC4DE2EDC86EF60002BC9B5FD15C2051C
:10436000C181AD47C5B793072006E9BF83C7119741
:10437000E38607EA5515420593F5F50F4181EFF005
:10438000AFBC69BD83C71197E38A07E82285EFF0C8
:104390006FAD69B5EFC28F9683C71197B7540020F0
:1043A00013848491130560021EA0EFF02FD3B7C7CA
:1043B000010087A7C7F0530705F09305240037C90C
:1043C00001005377F710531507C0537705D0537783
:1043D000F718530507E0EFF0CFCF13052002EFF0F9
:1043E000EFCF8727C9F0530705F093056400537793
:1043F000F710531507C0537705D05377F7185305B7
:1044000007E0EFF00FCD1305A002EFF02FCD8727C7
:10441000C9F0530705F09305A4005377F71053151F
:1044200007C0537705D0D377F718538507E0EFF02F
:104430004FCA9389419713854197EF60C00A37555A
:1044400000201309C5901305C590EF60400D83C788
:1044500009003EA883C719005EA883C72900DD496B
:104460007EA8834789001EAC832749003EAC834762
:10447000990013898491938484915EAC2D442285A4
:104480000504EFF00FB242042316A9024180090986
:10449000E31734FF716A01499389C187130B9002B6
:1044A000130A8AED954AB3872901802301459307B2
:1044B000E4FF93F7F70F6364FB00D29788230604A9
:1044C000EFF0EFAA26940AA00509E31E59FDF16951
:1044D000716A0149938909F1130B9002130A8AED5D
:1044E000B14AB3872901802301459307E4FF93F77D
:1044F000F70F6364FB00D29788230604EFF06FAADE
:1045000026940AA00509E31E59FD6FC06F82F1C110
:10451000EFB2DFFEB387C50013079002AA8A2E8987
:10452000B28405456347F708716A37540020814912
:10453000130ACAEA1304C497130BC002B3073A0163
:104540008843EFE08FF637C70100D30705F0072750
:10455000C7F0B30734019109D3F7E710539507C0AB
:10456000D37705D0D3F7E7189CE3E39969FD254598
:10457000EFE0AFF3D30705F00609539517C0D377E3
:1045800005D0130520045CF4EFF0AFA10AB8EF10DA
:10459000B01E2AB8EF10701D4AB81305E003EFF003
:1045A0004FA06AB8EF10307A0ABC4A94090481E43B
:1045B00001456FB0FFF78357C4FFFD14890AA1833B
:1045C000238FFAFE8357C4FFC204C180A38FFAFE73
:1045D000F1BF05458280D5C5EFB25FF2B387C50054
:1045E00013073003AA8441110545634BF706B1CA8E
:1045F000054701456396E6061397150037540020DA
:10460000FD151304849113950501139907013A943C
:1046100041811359090193091500C20993D9090170
:104620000904638E29039C208904A207231EF4FE3B
:1046300003C7F4FFD98F231EF4FEEFF0FFB84E85B9
:10464000D9BF32C62EC4EFF0FFD4A245B757002021
:104650003246860593878791BE95890509E601450F
:1046600041016FB0FFEC83D7C5FF7D168904A1839C
:10467000238FF4FE83D7C5FF42064182A38FF4FE49
:10468000E9BF05458280EFB29FE69389F5FFC20935
:1046900093D909013387C9008D4763C7E70C935A43
:1046A000360013D939003284AA84138A1A0093F988
:1046B000790095CE854701456396F608375A002064
:1046C000268B338C2A01930C8A91631F89071376FA
:1046D0007400D69401CA942013058A91CE854A9518
:1046E000EFD05FD613058A91EF40F00699A8B75B2B
:1046F000002013858B91EF403009268B938B8B9193
:104700003309994033052B01420541812146CE856D
:104710005E957D1AEFD07FDA050B420AA30FABFE40
:10472000135A0A01E3100AFE1D882146018E1374F4
:10473000F50F3314C4001374F40FD6943354C440EB
:1047400080A001456FB03FDE930B190083460B003C
:10475000C20B33852C0193DB0B012146CE85EFD0B4
:104760007FCE050B5E8995B70545E9BFFD15C205EE
:10477000C1813387C500954763CCE706EFB23FD7C9
:10478000375B00202A84935A360093DB35001305EB
:104790008B91B28493F9750013891A00EF4090123F
:1047A000228A130B8B91B38B8B4033057A01420520
:1047B00041812146CE855A957D19EFD01FD0050A3B
:1047C0004209A30FAAFE13590901E31009FEA147EC
:1047D0009D88B38497409377F50FB397970093F72D
:1047E000F70F5694B3D797401CA001456FB0BFD3C5
:1047F00005458280EFB29FD013056003EFF0DF9C88
:1048000013058003EFF05F9C1305A0031564EFF020
:10481000BF9B81440549B7C90100130404B00D458D
:10482000EFE03FF8631F25010547A2860D46854549
:104830000145EFD01FCC19EDEFD05FDC11CD8544E1
:10484000F9BF0145EFD0BFD511E5138549F0EF3031
:10485000E152DDB7E9D4CDB70545EF808041EFD017
:104860001FDCE9BF01479386819809489545338647
:10487000E600834806009377F70F63950803054722
:1048800018A21547114885451DE18DCBFD1793F7FB
:10489000F70F3386F600834806006393B802894712
:1048A0001CA282800507E314B7FC9547D9BF850792
:1048B00093F7F70FE37FF8FC8147E1BF9147D1BF42
:1048C0007D171377F70F69F382809387819823828E
:1048D000070023A0070003C7C1995146B70700206E
:1048E0003307C70293870709014693868198894554
:1048F00005481545BA97D843814711078328070013
:104900006397B80011EA3386F6000CA205468507C6
:104910004107E395A7FE8280B388F6002380080153
:10492000FDB7EFB25FBFF16737550020938747129D
:104930001307A003930600080146814513058587E8
:10494000EFB07FD26FB07FBFEFB2FFBCEF40C07D52
:10495000184123A0E19A6FB05FBE3707002013070C
:1049600007098147BD4610236309A600850793F711
:10497000F70F5107E399D7FE85473E858280EFB256
:10498000FFB77D15370700201375F50F114683C655
:10499000C199930707091384C199636DA6067167CE
:1049A0001307C7F10A053A95184102875147B386A4
:1049B000E602B697A62B8DC493F704F0C2072167D1
:1049C000C183930607106385D70863EBF6046388F9
:1049D000E70693F7F40F89C73E85EFF01FF808A0AC
:1049E0006FB01FB55147B386E602B697862BE1B785
:1049F0005147B386E602B697C62775BF5147B386BF
:104A0000E602B697E62745BF5147B386E602B6975A
:104A1000A62755B75147B386E602B697862761BFEA
:104A2000930607306389D70213070740E393E7FA39
:104A30009387A199982351DF7D1798A359BFEFF071
:104A4000DFE80947A38DE1980547238EE19651B72A
:104A5000238D0198BDBF1389A199834909001305CE
:104A6000A0038509EFE0BFD0E3D5A9F6834709008D
:104A700085072300F900B1BF2A887D1619456365B3
:104A8000C50CEFB25FA92E85F1650A06938505F383
:104A90002E9610420286631C0800EFE09FD042056C
:104AA00041812397A198A38101986FB01FA9EFE0DE
:104AB0001FCCC5BF83D5E1986317080093F5F50FA8
:104AC000EFE09FC8DDB7EFE0FFB9C5B713873198B6
:104AD0001C23850793F7F70F63F4D7001CA3F1B7E6
:104AE00023000700D9B793873198982319E394A33B
:104AF0006DBF7D1798A355BF83C631989387E19802
:104B000093952600F1669386C60FAE969223944243
:104B1000B2966364D70096A349BF9AA379B783C6B8
:104B200031981387E19893952600F1669386C60F16
:104B3000AE9612239442B305F64063E5D500158E78
:104B400012A3A5B71EA395B78280D38707F0FD15E2
:104B5000994763E7B712EFB21F9CF1679387C7F4D9
:104B60008A05BE959C41411136848287EFE01FD7AC
:104B700023A8A1980504A381819841016FB0FF9BF0
:104B800083A50199EFE01FD2CDBF03C731983696B8
:104B90009387319805071377F70F6359C70098A3D8
:104BA0009823E31C87FC050480A3C1BF2380070072
:104BB000C5BF83C7319805061387319899C31386FB
:104BC000F7FF1376F60F6304C40010A37DB77D14BE
:104BD00000A365B783C73198530707F063F5F60064
:104BE000FD1793F7F70FF1669386C6108A07B697FD
:104BF0009C633AE6538507E03EE4EF1031792A865C
:104C000037C50100AE861305855AEF30210593871D
:104C100001999463A2673267D3F7D7005387E7A05F
:104C200019C39CE399BF98E389BF03C7319863F523
:104C3000E6007D171377F70FF1669386C6100A0713
:104C4000369714633EE6538506E036E4EF101174A0
:104C50002A8637C50100AE861305855AEF3001005C
:104C6000138701991863B267A2665376F708D38752
:104C7000C6A089C75377D70818E301B71CE3F5BD71
:104C80008280FD15994763E3B71EEFB23F87F16756
:104C9000938787F68A05BE959C41AA848287014442
:104CA0001389419991493385840042054181EFE0A0
:104CB0005FAFB307890088A30504E31634FFA3811F
:104CC00001986FB0FF860144138941999149B30758
:104CD0008900338584008C23420541810504EFE07F
:104CE000BFA6E31634FFF1BF03C73198B9469387D7
:104CF000319805071377F70F63EFE60098A3982321
:104D00008D461376B70F6305D600AD46E31BD7FA81
:104D1000050798A37DB723800700D5B783C73198CF
:104D20001387319891CF9386F7FF93F6F60F93F59B
:104D3000B60F0D466388C5002D466385C600B6874D
:104D40001CA341B7F917EDBF83C7319871660947B6
:104D5000938541991306C60F636FF7008A07B297D0
:104D6000B8319C43BA971307F00F6364F700BCB1E6
:104D700089BFFD57EDBF19476361F702F11793969D
:104D80002700B296B8219C42BA971307F00F6364CC
:104D9000F700BCA13DB7FD57EDBF29476362F7029D
:104DA000E1178A07B29798319C43BA971307F00F1F
:104DB0006364F7009CB131B77D57A38AE19811B7BE
:104DC000138747FF8D473367F70294210A0732970D
:104DD0001C431307F00FB6976364F7009CA1D5B589
:104DE0007D57238AE198F1BD83C7319871660947E1
:104DF000938541991306C60F636EF7008A07B29731
:104E0000B8319C436365F7001D8FB8B15DBDA381C8
:104E1000050045BD19476360F702F1179396270017
:104E2000B296B8219C426365F7001D8FB8A151BDB1
:104E30002381050079B52947636CF700E1178A07DC
:104E4000B29798319C43E369F7F61D8F98B195BDF1
:104E5000138747FF8D473367F70294210A0732977C
:104E60001C43E3EFF6F69D8E94A1A1BD8280EFB2C4
:104E70008FEA2E841DE11385419AEF50C066938717
:104E8000419AB82394339023B7C5010093854571A7
:104E90002285EF20716F6FB04FEA7D159D47E3ECDF
:104EA000A7FEF167938747F80A053E951C41828764
:104EB000A3810198CDB71385419AEF504070E1BFAF
:104EC00003C731989D469387319805071377F70FED
:104ED00063EDE60098A3982389466305D7009546BD
:104EE000E31BD7FA050798A37DB723800700E5B732
:104EF00083C731981387319881CFFD1793F7F70F48
:104F000089466389D70095466386D7001CA361B79D
:104F10009D47EDBFFD17DDBF83C73198716605471B
:104F20009386419A1306C60F636DF7008A07B297FE
:104F3000B8229C43BA971307B0036365F706BCA277
:104F400099BF1147636EF700F5178A07B297983239
:104F50009C43BA971307B0036366F7069CB225BF5C
:104F60001387A7FF89473367F7028C220A07329716
:104F70001C435D47AE976364F7009CA229BF98A2CB
:104F800019BF83C73198716605479386419A130606
:104F9000C60F636EF7008A07B297B8229C43636519
:104FA000F7001D8FB8A2C5BD23810600EDB51147DE
:104FB000636FF700F5178A07B29798329C436365D1
:104FC000F7001D8F98B2C1BDA3800600E9B5138715
:104FD000A7FF89473367F7028C220A0732971C43E1
:104FE00063E5F5009D8D8CA27DB52380060065B537
:104FF0006D1593170501C183130750026368F7000D
:1050000071651305C5083E9508218280014582809F
:10501000EFB2CFCE0111AA892E84B28481C683C794
:1050200031989CA219C385471CA34E853AC2EFF064
:105030003FFC9387F9FFC207C1839306B0022A8918
:1050400063E1F668F1668A07938646FAB6979C4351
:10505000124782879387419AB82394339023B7C528
:105060000100938545712285EF20115205616FB0D3
:105070002FCC83C7819913972700F1679387070C7B
:10508000BA97DDA383C7819905476383E70289CB7C
:105090000947638BE702B7C501009385C56129A065
:1050A000B7C501009385455E2285EF2051527DBF33
:1050B0001145EFE00FEFB7C501002A869385455FE4
:1050C0002285EF20714C5DB71945EFE08FEDB7C534
:1050D00001002A8693858560E5B79384A199902085
:1050E0001305A003050632C2EFE06FE81246B7C50C
:1050F0000100AA86938545642285EF20F148882027
:10510000B75600209386C69C1386419A9385819951
:10511000EFE0CFFEA1BFEF100043A1470146137798
:10512000150001C705061376F60FFD17058193F7E5
:10513000F70F1375F50FE5F7B7C501009385056502
:1051400041B7EF10404011E5B7B501009385857F69
:10515000A1BF83C6219883C791991387919989C666
:10516000B356F540858A95E295468D45850793F7B8
:10517000F70F63F3F50081473356F540058A09E6DA
:10518000FD1693F6F60FFDF21CA31C2313972700C0
:10519000F1679387C70EEDB595C0A147638EF40202
:1051A000B7C7010037C7010083A7C75A0327075BAA
:1051B00089461146A685EFF05F994DBDEFE00FF2ED
:1051C000EF10D11CAE86B7C501002A869385856590
:1051D0002285EF20713B59BD03A50199D5B7638F97
:1051E0000416A147638CF40081471307703E89467B
:1051F0002686CA850545EFF03F888DBD03D6E19828
:10520000B7C501009385056665BDEFD01FAAD3071A
:1052100005F0B7C5010093858566539607C04DB567
:1052200091C8A1476380F402096781471307F770AB
:105230008D467DBFEFE0AFD32A86B7C501009385C9
:105240000567BDBD03D6E198CDBFEF108031B7C56E
:1052500001002A8693858567A5B5EF106032C5BF2A
:10526000EF10A035B7C501002A869385856889BDF2
:1052700013052004EFE0EFD211C5B7C501009385F7
:1052800005691DB5B7C501009385456931BD28087D
:10529000EF20D0208348D1010348C1018347B101E9
:1052A0000347A1018346910103468101B7C501006F
:1052B000938585692285EF20312D4DBBEF10E02BC2
:1052C0008947630AF500B7C501009385455C2285CF
:1052D000EF20912B61BBB7C501009385455BC5BF2E
:1052E00081C8A1476389F404A685EFF09F99BDBBEF
:1052F000EFE02FCB2AC61305190042054181EFE0EC
:105300004FCA2AC41305290042054181EFE06FC945
:105310002AC21305390042054181EFE08FC81247C8
:10532000A2463246AA87B7C501009385856A2285C1
:10533000EF20912525BB138641993C323822143247
:105340001022D5B799C8A147E38AF4EA8147130729
:10535000703E8D462686E14571BD6145EFE02FC167
:105360002A8679BD2545EFD05F94D30705F0B7C5F0
:1053700001009385C56B539617C04206418289B3DD
:10538000A2852685EFF0BFAED5B19DE03755002050
:105390001305C59CEF50A018B75700209387C79CF2
:1053A000B7C501009837D44390279385455D65B90B
:1053B000FD149D47E3EC97CAF167938747058A047C
:1053C000BE949C408287A38101984DB1375500203F
:1053D0001305C59CEF50202351B903C731989D4652
:1053E0009387319805071377F70F63EDE60098A3CD
:1053F000982389466305D7009546E319D7C6050764
:1054000098A3ADB123800700E5B783C73198138710
:10541000319891CBFD1793F7F70F89466387D70033
:1054200095466384D7001CA391B1FD17EDBF83C7D8
:105430003198B7560020716605479386C69C1306BF
:10544000C60F636DF7008A07B29798369C43BA97E8
:10545000130730066366F7069CB609B91147636DFA
:10546000F700F5178A07B297D8429C43BA9731479D
:105470006367F706DCC2DDBE1387A7FF8947336782
:10548000F7028C260A0732971C437D47AE97636468
:10549000F7009CA6E1BE98A6D1BE83C73198B75647
:1054A0000020716685459386C69C1306C60F63ED82
:1054B000F5008A07B29798369C4363F5E7001D8F85
:1054C00098B66DB68CB65DB61147636EF700F517EA
:1054D0008A07B297D8429C4363F5E7001D8FD8C274
:1054E00071B6CCC261B61387A7FF89473367F7024D
:1054F00088260A0732971C4363F5A7001D8D88A6EE
:10550000B5B68CA6A5B68DC4A147E389F4CEB14744
:105510006393F9021545EFE0CFA87D151317050138
:1055200041839307400689462686CA850145E1B135
:10553000EFE02FA735B5B5476393F9021D45EFE0BE
:105540004FA67D1513170501418311453AC2EFE0BF
:105550004FA5050593170501C1831247E9B7BD475C
:105560006393F9021545EFE0CFA3050593170501F5
:10557000C18319453EC2EFE0CFA27D151317050187
:10558000418392474DB71D45EFE0AFA10505931745
:105590000501C1831307F00F79B71305A003EFE0EE
:1055A0000F9D2A8651BE8D476388F40263E69700FB
:1055B00099C8A38D01985DBC9947638FF400A147FA
:1055C000E384F4B8FDB783C7C197E38F07B6B7C5C7
:1055D00001009385456CC9BC81451305C003EFE00C
:1055E0006F8881451305A003EFE0CF87A38D019855
:1055F000238E0196A5BC81C8A1476389F400854725
:10560000130740060DB7EFE0CF9961BF03D6E198CD
:1056100025B623000700A9C0A147639AF40083D7E9
:10562000E19813972700F1679387470B91BC814757
:1056300009478146D5BD2300070099CCA147E380E7
:10564000F4FE0D45EFE0EF95E31205A2854709470B
:1056500081462686CA8545B64A85EFE08F94F16774
:105660000A059387470BAA978C433DBCEF00D010E7
:105670002AC2EF00900F1246B7C50100AA86938593
:10568000C56E2285EF204170D5B22300070091C876
:10569000A1476380F4028147194781462686DD458C
:1056A00071B55D45EFE0EF8FF1670A059387070D50
:1056B0005DBF83D7E19813972700F1679387070DA4
:1056C000C1B2E305049AB7C5010093850571E9BA33
:1056D00081471387819889451546B306F7008822CC
:1056E0006311B504EFA23FE30D4798A283C6C199A9
:1056F000514637070020B386C602130707099207F1
:105700000D468145369758438146BA97CA270147C7
:105710002392A198EFF0DF8F0547238EE1966FA0CB
:10572000DFE18507E39BC7FA0547238EE196828078
:105730008147138781988D451546B306F70003C846
:105740000600631FB802EFA21FDD094798A283C6B7
:10575000C199D14537070020B386B6021307070960
:1057600092072A868145369758438146BA97CA27B9
:105770000147EFF0FF890947A38DE1986FA0FFDB98
:105780008507E39CC7FA0947A38DE1988280EFA2C1
:105790009FD59389019A03A509005D71B704002084
:1057A000EF60F02E1384C1999384040929C103A5E5
:1057B000090013890198014693850198EF60D0167E
:1057C00085476316F5020347190093070008631025
:1057D000F7029387B199942309476388E6068D47BA
:1057E000638CF60E89E603450900EFF04F991C2003
:1057F0005147B387E70213898198854A130B000844
:10580000BE94C040B754002013858487EFA05FEE9C
:10581000930B04055C4063805713638607100947A8
:10582000638BE7141C2089E741040509E3948BFE90
:10583000138721981C23A946850793F7F70F63EC7C
:10584000F6241CA361616FA0DFCD034709000D465C
:105850006300C7066369E600E31BD7F883C7C197F7
:10586000ADC7014589A891466308D7029546E31064
:10587000D7F81387C197142381C62300070085BF7B
:10588000182023800700D147B307F702A697A82B5B
:10589000EFF0AF8C08A0A1BF1387C197142389E64E
:1058A00008A3EFF08F82A1B790A3EFF07FE281B75A
:1058B00083C7C19781C7EFE0FFFA15BF1C2051478E
:1058C000B387E702A697C827E1B71C205147B387E3
:1058D000E702A697E8276DBF834709001547E368ED
:1058E000F7F071678A0713074707BA979C438287C7
:1058F0001545EFF0FFE3E5BD1945E5BF01478146DA
:10590000094603D541988145EFF08FF0CDB50147A9
:1059100081460546FDB7014781461D46DDB7014773
:1059200081461146F9BF144430200C30138584871A
:10593000EFB08FBAC5BD8349240014440C304E86A5
:1059400013858487EFB04FB94A249306A10101461D
:105950001307B1016C08EFF0AFEB6C081385848777
:10596000EFB0CFC09375F50FB305BB40C205740807
:105970004E86C18165BF034A240014440C30528610
:1059800013858487EFB04FB5034709008D474A243C
:1059900021466303F70001461307B1019306A101F5
:1059A0006C08EFF0EFE66C0813858487EFB00FBC4E
:1059B00083C7B1999379F50FD5C70347090063F3FE
:1059C000EA0A93970901C183B30DFB40C20D8946D2
:1059D00093DD0D016311D70403C7C19741C783C687
:1059E000219815476360D70813066AFF4206BE86F2
:1059F0002D474182EE85138584873EC6EFA07FCB7D
:105A0000814513858487EFB0AFC7854513858487AB
:105A1000EFB0AF9DB247834609000D476394E6049B
:105A20000347B10113066AFF42064182631157071B
:105A30008345A101E9572D478505B385F5029946B0
:105A400093850508C205C18113858487EFA07FC6B1
:105A5000894513858487EFB0AFC285451385848758
:105A6000EFB0AF98B3053B41C20574085286C181BF
:105A700013858487EFB04FA6138584878545EFB0E3
:105A80002FC0814513858487EFB02F9661BB2D47CA
:105A9000BE86EE8555BF230007006DB3EFA21FA69B
:105AA0007C45032A0507832A450703A9070083A924
:105AB00047003C45232C2505232E35059843DC4320
:105AC0002A8438D17CD15286D6864A85CE85EF008D
:105AD00061006357A000232C4405232E540529A8F8
