:100000006F60204413000000130000001300000084
:100010001300000013000000130000001300000094
:100020001300000013000000130000001300000084
:08003000130000007300100032
:1000380000000000000000009A3300009E3300001A
:1000480000000000886300000000000000000000BD
:100058008A6300008C6300000000000000000000BC
:100068009CB000000000000000020000000000003A
:100078009263000094630000966300001A9D0000DC
:100088009A6300009C6300009E630000A063000068
:10009800A2630000A4630000A66300008090000033
:1000A8004E910000AC6300001C920000EA92000030
:1000B800B2630000B4630000B28C0000B8630000B3
:1000C800BA630000BC630000BE6300002434000073
:1000D800C2630000C4630000C6630000C863000078
:1000E80084350000CC630000E0A400007298000092
:1000F800409900000E9A0000DC9A00000EA1000052
:1001080006A20000BAAB000088AC000056AD0000A3
:10011800E2630000E4630000E6630000E8630000B7
:10012800AEA50000EC630000EE630000F063000081
:10013800F2630000F46300007CA6000006A3000040
:1001480024AE0000FC630000FE63000000640000B1
:1001580002640000046400000664000008640000F3
:100168000A640000F83400000E6400001064000007
:100178001264000014640000166400001864000093
:100188001A6400001C6400001E6400002064000063
:100198002264000024640000266400002864000033
:1001A8002A6400002C6400002E6400003064000003
:1001B80032640000346400003664000038640000D3
:1001C8003A6400003C6400003E64000040640000A3
:1001D8000000000000000000000000000000000017
:1001E8000000000000000000000000000000000007
:0801F8000000000000000000FF
:10020000130181F806C216C41AC61EC822CA26CC1B
:100210002ACE2ED032D236D43AD63ED842DA46DC76
:100220004ADECEC0D2C2D6C4DAC6DEC8E2CAE6CC46
:10023000EACEEED0F2D2F6D4FAD6FED8F3220030CF
:1002400096DA83A241A323A02200F32510342EC006
:100250009305000273A0458003A14189EFC0003AD5
:1002600003A341A303210300824273901234D652A8
:10027000739002309240A2423243C2435244E2445D
:10028000724582551256A2563257C2575258E258FA
:1002900072598649164AA64A364BC64B564CE64C0E
:1002A000764D865D165EA65E365FC65F13018107DA
:1002B0007300203013000000130000001300000042
:1002C00013000000130000001300000013000000E2
:1002D00013000000130000001300000013000000D2
:1002E00013000000130000001300000013000000C2
:1002F00013000000130000001300000013000000B2
:1003000083A24189938202E07390023403A141A346
:10031000024182403243C2435244E2447245825514
:100320001256A2563257C2575258E258725986494D
:10033000164AA64A364BC64B564CE64C764D865D61
:10034000165EA65E365FC65FD652A102739002307B
:10035000A2421301810782801300000013000000F5
:100360001300000013000000130000001300000041
:100370001300000013000000130000001300000031
:100380001300000013000000130000001300000021
:100390001300000013000000130000001300000011
:1003A0001300000013000000130000001300000001
:1003B00013000000130000001300000013000000F1
:1003C00013000000130000001300000013000000E1
:1003D00013000000130000001300000013000000D1
:1003E00013000000130000001300000013000000C1
:1003F00013000000130000001300000013000000B1
:10040000F322003093F272FF130380781203B3E2F9
:100410006200711523205500130585FA10C12115BE
:10042000232005009302000063870200711523203A
:100430000500FD12D5BF71150CC1828000000000BF
:1004400000000000000000000000000000000000AC
:10045000000000000000000000000000000000009C
:10046000000000000000000000000000000000008C
:10047000000000000000000000000000000000007C
:10048000000000000000000000000000000000006C
:10049000000000000000000000000000000000005C
:1004A000000000000000000000000000000000004C
:1004B000000000000000000000000000000000003C
:1004C000000000000000000000000000000000002C
:1004D000000000000000000000000000000000001C
:1004E000000000000000397101436EC619A0397187
:1004F00041536AC866CA62CC5ECE19A039710153F5
:100500005AD056D252D44ED64AD826DA22DC06DE4B
:1005100033016140828241114AC026C222C406C60C
:100520008282B24D4101024D924C224CB24B4101AC
:10053000024B924A224AB249410102499244224462
:10054000B240410182803D432A876373C30293779F
:10055000F700BDEFADE5937606FF3D8ABA960CC372
:100560004CC30CC74CC74107E36BD7FE11E2828036
:10057000B306C3408A069702000096966780A600DD
:100580002307B700A306B7002306B700A305B700EB
:100590002305B700A304B7002304B700A303B700E3
:1005A0002303B700A302B7002302B700A301B700DB
:1005B0002301B700A300B7002300B700828093F5A2
:1005C000F50F93968500D58D93960501D58D61B76E
:1005D000939627009702000096968682E78086FA17
:1005E0009680C1171D8F3E96E374C3F8A5B7EFF24E
:1005F0001FF0AE96939906013A8B1307160093D914
:10060000090142074183CE86AA842E84B28A034A16
:100610002509EF00D00901C90549933B1A006395EC
:1006200089002389440901B783470B00B377F90098
:100630008DC723894409014785465686A2852685AC
:10064000EF0040750504060942041379F90F418053
:10065000E31709FC050B0549D9B783C71409FDF356
:1006600023897409C9BFEFF27FE932971319070193
:10067000B689AE9613590901C2064A87C1822A8BF0
:10068000AE8A32843E8AEF00900201C993847900D9
:10069000C204C1808D806313890059BD2286050480
:1006A0005287CE86D6855A8542049137269A418054
:1006B000DDB7EFF2BFE4329793140701B689AE9627
:1006C000C180C2062687C1822A8A2E893284EF0021
:1006D000007E01EDB1BD228605040147CE86CA85A4
:1006E00052854204EF00006B4180E39684FEDDB743
:1006F000EFF27FE21C418145902B834785034859E7
:100700003306F6020E0681350DBDA1471CA11385E7
:10071000C1B28280EFF23FE03687AE84B286B71571
:100720000000371600004111130686229385C52F5D
:100730002A84EF00D05C1305F100C13F9087B71603
:100740000000AA852687938686ED2285EF00101388
:100750004101E5B3AA959C218831A2073E95420547
:100760004181828001458280EFF2FFDA9C21AE84D4
:100770002A841CA19C311CB1BC213CA1BC313CB1E0
:10078000DC215CA1DC315CB1FC217CA1FC317CB1C1
:100790009C251CA59C351CB5BC253CA5BC353CB591
:1007A000DC255CA5DC355CB5FC257CA5FC357CB581
:1007B0009C29C5451CA92685713F2AA8CD452685BB
:1007C000513F4AA8D545268571376AA8BDB3104167
:1007D0000348C5001C223307B8001377F70FB3D6C0
:1007E00007419D4763ECE70093F7F60F58A57D5549
:1007F0003315B5001345F5FF7D8D828093071600F4
:100800001CC11C32214633060641B397C700D58F61
:10081000611793F7F70F1377F70FC9BFEFF2BFCF49
:100820002CD183458507930405062A8423060506F3
:100830002685713F834594072305A4062685413FFD
:1008400083472409A305A4062307F40693B71700DA
:10085000A307F406DDB1EFF21FCC2E848D3F7D148B
:100860008547B39787001D8D62056185F9B185477E
:10087000638CF60091C68947638AF6000D8D11A03E
:1008800032954205418182802E95E5BF118DD5BFFD
:100890008547638CF60091C68947638AF6003295D6
:1008A00011A02E95420541818280118DE5BF0D8DED
:1008B000D5BFEFF25FC38344850603499506411116
:1008C0002A84AE89328B834BA40693FAF90F338ABC
:1008D0009B40137AFA0F63743A01937AFA0F034735
:1008E0000407939C8401131C89010355440693DC7F
:1008F0008C41135C8C41BA866286E6853AC6493FD4
:100900003247835D64066286BA862A8DE6856E85E7
:10091000B93F2A86324763080B028347E40623095E
:10092000F408D686EA852285B521CE9493F4F40F97
:1009300063E14903B3847441050993F9F40F137912
:10094000F90F814449B78347D406E5F38347F4069A
:10095000F9B723049406A30484074101D9B6EFF242
:100960001FB92A84130A0506553D8345A4075285FD
:100970008309B406CD358345B4072A8C5285E13D01
:100980008345C4072A8B5285F9358304A406AA8AB5
:10099000635D90084E9B834B0407330B6041035506
:1009A0004406620B135B8B41DE865A86E285CD35A9
:1009B0002312A4062A89035564065A86DE86E28538
:1009C0007D352313A40685472A86638CFB06638046
:1009D0000B0689476387FB088D47638BFB0A2A87D1
:1009E000CA86CA852285E12129C1231404068345CC
:1009F00064075285E93B834574072A895285C13BC8
:100A0000AA840146CA8522856D35A68522850546BC
:100A10004D3585455285653B6DF583079406E3C8E2
:100A200037FD8347E4062309F4085685EDBCCA94D4
:100A300093960401B304350113970401C1824183E5
:100A40004DB7B3073941AA940509931609011397C5
:100A500004018507C18241831399070113590901D4
:100A600049B70547B3049740B307990033073741A7
:100A70009304190093960401B305E500930415004F
:100A80001397040113960501C18241834182E9B79E
:100A9000B304954013061500B306390185041317F6
:100AA0000601C20613960401C1824183418215BF2B
:100AB0003C4D1307F00FDD076368B702130700060C
:100AC000637DB70003578508BA97983335C39423DD
:100AD000E39CB6FE13852700828013070004E376AB
:100AE000B7FE03576508CDB7EFF2FFA20354A50880
:100AF000AE843E94228981454A85A9392A94894544
:100B00004A8589391109E36895FE1C301820A2072F
:100B1000D98F13978700A183D98FC207C18399CB3F
:100B20006395F4001305340009BC3C203E94F1BFEA
:100B3000014582800145CDBFEFF2FF9D2A848D3FA4
:100B40000DC5AA852285D9398345A40793040406D7
:100B5000268511338345B4072308A4082685E53983
:100B60008345C4072685C539C9BA0145F5BFEFF2EB
:100B70001F9823050506AA84AE8AF12BC1671309C5
:100B800000FC014A0144138BF7FF9389E7FF930BA5
:100B900000FC83C50A00DC4026858297AA85630392
:100BA0006503850AE30735FF26857937131A0501A2
:100BB000135A0A0163147901038904095294420407
:100BC0004180C1BF8387A40691CF03870409BA97E8
:100BD0003E943304444142044180635520014A94C9
:100BE0004204418022856FF01F94A306B5068280DF
:100BF000EFF2DF908347050705472A842E89B284E8
:100C0000B689638FE7029DC709476383E7040D47F1
:100C10006384E704CE8523122407231394062285D8
:100C2000413DAA85014589C52285153B4205418183
:100C30006FF01F907C4D8297AA94C204C180D9BFE7
:100C40007C4D82973309A940420913590901D9B74C
:100C50007C4D8297898CD5B77C4D82972A99EDB7C8
:100C6000EFF2FF884169AA8C2E84B284B689130AF8
:100C7000F9FFD521014C7919854A094B8D4B83A782
:100C80004C0083C5090066858297AA8663034505E3
:100C90008509E30625FF2686A2856685913F83C7E1
:100CA0000C076380570391CB6381670363817703EC
:100CB0002A9C420C135C0C01D9B72A94420441804F
:100CC000C5BFAA94C204C180E5B7098CC5BF898C91
:100CD000D5BF62856FF03F85EFF2FF83B717000045
:100CE0009387C70B5CC1AD3F6FF03F853C4DA9CBEF
:100CF00003061508830625088347D5082307C5087A
:100D0000A307D50895CF0547639FE70083073508FC
:100D10006354F6002307F5088307450863D2D7021A
:100D2000A307F50882808307E50703070508BA973C
:100D30006354F6002307F5086354D700A307E508BA
:100D40008280B7070000938747767CCD8280384D3C
:100D5000630DB700EFF22FFC2A842CCC1305450756
:100D60002134228561376FF04FFD8280EFF2AFFAB8
:100D7000B71700009387C70B5CC1D53B6FF0EFFB43
:100D8000EFF26FF97E3D1D8E5C55420641828297DF
:100D90006FF0AFFA8347C508C1CBD9C6854763F961
:100DA000D70089476317F7068505958DC205C18170
:100DB000058B25EF8357C5046368F6068357E50462
:100DC0006374F606AE96C206C18283578504035843
:100DD000A50463F9B60463F605059306F8FFC20699
:100DE000C18263F3D704BE8863F3B700AE889395DE
:100DF0000801C181C28763F30601B687B386B74095
:100E0000C206C182EFF22FF11C599C4782976FF006
:100E1000CFF28D47E31EF7F80506158E4206418294
:100E200041BFBE85E3EF05FB828083578504E3ED78
:100E3000F5FE8357A504E3F9F5FEB296C206C1821A
:100E40008357C5040358E50463F9C60263760603B5
:100E50009306F8FFC206C182E3F8D7FCBE8863F3AD
:100E6000C700B288139608014182C28763F3060166
:100E7000B687B386C74069B73E86E36F06FD6DB798
:100E8000894763E5B7002309B508828085472309B0
:100E9000F50882806379B60085476364D500B3B7EF
:100EA000C6003E858280E36CD5FE8147DDBFEFF250
:100EB0008FE62A84AE848355E5040355C50436893C
:100EC000BA86C93F01C98355A40403558404CA8660
:100ED0002686C9376FF06FE60343250993787600BD
:100EE0008547339817011378F80F014E63E56700C3
:100EF000428E6309F30403230500619A5C5903439E
:100F000003013306660242064182B295BE950DCFBB
:100F100005479C218508FD16B367FE00B347F8001E
:100F2000C2069CA193F87800C18263900804323D08
:100F300083472509B2956365F700054E638EE70286
:100F400005481DA8014845BFAE96C206C1829C2136
:100F50008505B367FE00B347F800A38FF5FE9397AE
:100F60000501C183E395D7FE828093171E00060812
:100F700013FEF70F1378F80FC9FE828083458503AF
:100F80001441834895031397050141839317370054
:100F90005EBD9C2A13980801135808018E073EBDB8
:100FA000931738007EBD903AC6956356B600330756
:100FB0000641420741830E072310F504BA97231117
:100FC000F504DE2A2312F504FE2A2313F504828099
:100FD000EFF26FD465376FF04FD6EFF2CFD34D33CA
:100FE0006FF0AFD5EFF22FD3035765058356250574
:100FF00003564505835505052A84553D09E5230615
:1010000004086FF08FD385472306F4080357840440
:10101000835704056374F7002314F40483572405ED
:101020000357A40463F4E7002315F404835744052D
:101030000357C4046374F7002316F404835764054C
:101040000357E404E3FFE7FA2317F4045DBFEFF26C
:101050008FCC03574504231405042315E5043841B8
:1010600078C549376FF06FCDEFF2EFCA1C59417761
:1010700038C9DC4378C982976FF02FCCEFF2AFC943
:1010800093071010230CC502A30C0502A306050646
:10109000A3060508A30805082319F5081C4354D521
:1010A0004CD918D9232C05042A84829722856D3FB8
:1010B00022854139230804066FF02FC8D1C9A947FA
:1010C0006388F508034765022DE79307B00F63FABD
:1010D000B70095472303F50285890EB1C165F9155F
:1010E000B9A09307700F63F7B70091472303F50288
:1010F0008D89E5B79307F00E63F7B7008D4723039B
:10110000F5029D89D9BF9307F00D63F7B7008947B2
:101110002303F502BD89D1B79307F00B63F7B7003E
:1011200085472303F502FD894DBFC205C1812E8588
:1011300082801E3193F5F5037D179A07DD8DC20578
:101140001377F70FC1812303E5020EB16DD379B791
:10115000C165FD15E9BF230305028280EFF2AFBB35
:101160001C492E8681469305000282976FF0EFBCE2
:10117000EFF26FBA1C49B2862E86DD4582976FF07A
:10118000CFBBEFF24FB94111CC871306F100854573
:10119000C53741016FF06FBAEFF2EFB75C452E86AD
:1011A0008146D54582976FF04FB9EFF2CFB65C45D7
:1011B000B2862E86DD4582976FF02FB8EFF20FB41E
:1011C0004111AA842E845D49E549130AE00FD54AEE
:1011D0000C20638C25036367B90063F0550341015C
:1011E0006FF00FB563FBB902E39B45FF1030930529
:1011F00090022685D087E92439A01030DC4481464E
:10120000D087268582970904E1B71C301306F100C8
:1012100085452685DC87513FFDB7DC448146014684
:101220002685050482976DB79387C5FE93F7F70F60
:1012300015476362F704EFF20FAE6D678A07130775
:10124000870CBA979C4341113289AE842A848287E5
:1012500081452937CA8522852D37054541016FF023
:10126000CFAD854536C6DD3DB2461C484A86A685CB
:1012700022858297E5B701458280EFF22FA82E8460
:10128000CC212A89B2898E0593F5F50393E50504EF
:10129000213783C569004A8593E5850BF53D7C20A0
:1012A000A1CF542058309387860093F7870F958FEE
:1012B00093F7F70F9375F70F63F4E70093F5F70FC4
:1012C000AE960D8F10408E0593F4F50FA68554A0B1
:1012D00058B04A85D93D0C405C30AE9404C091EBC7
:1012E00083A709001CC083C749005CB07C20FD17A0
:1012F0007CA05C209D8BC5F76FF08FA3EFF2AFA1B0
:10130000A94741112A84638CF50863EAB700A54711
:101310006381F5088144268541016FF00FA2AD4736
:101320006381F50CBD47E397F5FE9C423689D432C4
:101330003EC483574900508713978700A183D98FF4
:101340007C869D4763E1D7025C4581460546E145C1
:1013500082974A862C0022850D375C4481460146DF
:10136000E545228582971886BD478544E3E5E7FA7F
:101370005C4481460946E145228582974A862C00D5
:101380002285E53D5C4481460146E54522858297FC
:1013900059B7ED659385050E65208544ADBF752071
:1013A0005C4481460546E145228582979385818686
:1013B000228529355C4481460146E5452285829790
:1013C0005C44E14581460946228582979385818662
:1013D0002285ED335C4481460146E54522858297AE
:1013E0006DBF5C4581461DE60546E14582979385C4
:1013F000C1862285E1335C4481460146E54522856C
:1014000082975C44E145814609462285829793850F
:10141000C1867DBF0546E145829793850187228578
:10142000713B5C4481460146E545228582975C44D8
:10143000E14581460946228582979385018749BF08
:101440000CC1BC292301F5028280EFF2CF8C5C49EC
:1014500081460146930580022A8482975C44814636
:101460000146D14522858297228505469305B00421
:1014700081281C40228593059002D023912022854B
:1014800001469305B0042D281C4022859305900247
:10149000D0233D20228505469305B00415201C402D
:1014A000930590022285D03321286FF00F89EFF247
:1014B0008F861C4581460146A54582976FF0EF87D0
:1014C000EFF26F855C49814682976FF00F87014587
:1014D0008280B71700009387E74C1CC55CC51CC908
:1014E0005CC9FD5723200500A30105022303050263
:1014F000232C05002302F5022304F5028280EFF27B
:101500008F8141112A842EC632C436C23AC0D137E7
:10151000B2452246924602470CC450C414C858C86B
:101520002285713741016FF04F8137050020130587
:10153000054B828005458280EFE2FFFD8547411122
:101540002A8663F5A7008D4763E6A702B707002048
:1015500083A5074B37B5000074001305454502C647
:10156000EFB0F07201C9B24791C7B7E700E0116769
:1015700023A0E720054541016FE03FFCEFE2BFF902
:10158000B70700202A8403A5074B7D5781460546EF
:101590008D45EF90104A8547630FF50011C98947C3
:1015A000630BF5008D476308F50005456FE0FFF814
:1015B00023200400DDBF08C0CDBFEFE2DFF5B70791
:1015C000002083A5074C411137B500007400054683
:1015D0001305454502C6EFB0906B01C9B24791C7EC
:1015E000B7E700E0116723A0E72041016FE0FFF4B7
:1015F000EFE27FF2B705002003C7D54BB707002005
:101600009385D54B238EE74AB707002003A5474BA8
:10161000EF90204E83A7819182976FE01FF23705EC
:1016200000201305054C8280370500201305854BEB
:101630008280EFE25FEE85476382F6048947638329
:10164000F60401478146370400201304444B014649
:1016500008C0EF90603B084037160000B715000047
:101660000D4785461306A65B9385055FEF904042C4
:101670000840EF90604005456FE03FEC056793063A
:101680000060D1B705679306004075BFEFE2BFE881
:1016900037040020AE841304444B15C90840B70535
:1016A00000209385D54BEF90C0443715014093053A
:1016B0000020130505C0EF70B063B707002003A535
:1016C000074C95C08545EF90704C6FE01FE73715CC
:1016D000014093050020130505C0EF7070600840BD
:1016E000EF90E042D9BF0147814605468545EF901E
:1016F0005034E1BFEFE23FE22A8437150140930501
:101700000020130505C0EF70B05DB707002003A5EA
:10171000474B9375F40FEF90203C05456FE0FFE1D8
:10172000B707002083C7C74B1CA105458280EFE2A5
:101730009FDEB704002003A5044C7D578146054673
:101740008545EF90102F8547E317F5FE83A7C191DC
:101750008297D5B7EFE23FDC08218545EFD0204CDA
:101760007D572386E1806FE05FDDEFE2DFDA411134
:101770008545054502C202C423160100EF50A07A38
:1017800083A7018237470F0013070724B3D7E70267
:101790004C0037050040231501007C84896793873E
:1017A000F7703EC2EF5010180546854537050040DA
:1017B000EF50B049854537050040EF5090478545CB
:1017C00037050040EF501051B7E700E0056723A24E
:1017D000E71041016FE07FD6EFE27FD14111B709F9
:1017E000002061370144138C4180938B093F138B98
:1017F0008180914A93140401C1801385B40042058D
:101800004181EF10506AB3078C0088A31385F40060
:1018100042054181EF103069B3878B0088A313859F
:10182000340142054181EF101068B3078B0088A393
:101830000504E31154FDB70600209386864C1386F9
:1018400081809385093F13854180EF60303495672F
:10185000938707E23EC29167938787A93EC44800F9
:10186000A5473EC6EFC0B00DC9311841B7070020EB
:1018700023ACE74C41016FE01FCBEFE23FC8011101
:10188000C88793F745002E84A9C79379F50F1307EE
:10189000C0033387E902B7F70020938707F6BA97AA
:1018A000D44798473697D44B9C4F3386F6006374E1
:1018B000C700B307D740B70400209384444D8E205F
:1018C0003ECE13076010AE976371F7061305F10063
:1018D0005135937784009DCB9384C18098209307E2
:1018E000F00F6315F70288878545EFD04018888789
:1018F0000566130686B6B305C502B71700209387A1
:10190000C7B1BE95EFC0B03F9C879CA09377040100
:1019100081C77D572386E1801374040401C47D5779
:101920002386E18005616FE0BFC0372900201309DD
:10193000C91E7008CA954E85EFC090419E2072471F
:101940003E97420741839AA09947E3F4E7F883560C
:10195000490093978600A182D58FC207C1839386E1
:101960005700E3D8E6F69907E312F7F60545EFF0DE
:10197000BFBCB704002003A5844D7D5785460546AE
:101980008545EF90100B37060020B7250020130681
:10199000464C9385452F4E85EFC0D0709384844D7F
:1019A00001C51305F1007D3388408945EF90101E75
:1019B0000DB7EFE25FB6EFD00007937715002A84EA
:1019C00099C737B501001305850FEF50B14D9377D7
:1019D000240099C737B501001305C510EF50914C8D
:1019E0009377440099CBEFD0E007118919C537B53B
:1019F000010013054512EF50F14A418819CC014509
:101A0000EFD0A003AA8519C10145853D0545EFD05A
:101A1000C002AA8519C105458D356FE01FB2EFE2FE
:101A20009FAF39711304601F11C12A841306C003CC
:101A300081454800EFE03FB18D4722D64C0013842A
:101A4000D1801385D1803ED0EFC0B009814719E91C
:101A50000820EFD00007854711C508208945EFD041
:101A6000001C81473E8521616FE03FADEFE2BFAAD8
:101A70001385D180C5316FE05FACB7270020938715
:101A8000C71E1CC1B70700209387474D9A23054501
:101A9000239007009AA18280EFE2FFA7B7270020DA
:101AA0002E862E84AA851385472F9384472FEF40D7
:101AB0001152B707002023A2874C370400201304DB
:101AC000844D0840B7070020854523A8974CEF9028
:101AD000F00B08407D57854605468945EF906075B7
:101AE00005456FE09FA5EFE21FA383A701928297B0
:101AF0006FE0BFA4EFE23FA2B726000095652A86FB
:101B000095470547938666AE938575C90D45EF8069
:101B1000D04E05456FE07FA2EFE2FF9F0D45EF80BD
:101B200010196FE09FA1EFE21F9F0D45EF80F0417C
:101B30006FE0BFA0EFE23F9EDD3501E50D456FE0B0
:101B4000DF9F0145EDBF8280EFE2FF9C05376FE02C
:101B5000DF9EEFE25F9C01112A84AE846808930542
:101B6000A10132C6193F15C9724715453C333423CC
:101B7000A207D58F93968700A183D58FC207C18313
:101B800091EBBC8532461D0798C0E5171EA2FD5794
:101B90001CA0014505616FE05F9A1545E5BFEFE2C6
:101BA0009F979307160013D787401D06238FF5FED6
:101BB0002E85A38EE5FE93150601C1816515E93DCD
:101BC000954711C181473E856FE03F97AA95C205B1
:101BD0006D666D681307F00F9306F00FC181130651
:101BE00086131308882393170501C1836396F500B4
:101BF00013958600598D828005058347F5FFB98FBF
:101C00003307F6001823C297358F9423E9BFEFE21C
:101C10009F9032842E852146A285EFF09FA18547B3
:101C20006316F5029567938707B01305300263E8E2
:101C3000870037151602130505EC3355850242055A
:101C400041814D3D054781476303E5008D473E8552
:101C50006FE0BF8EEFE23F8CB7070020814505455E
:101C600023AE074CEFF09FA2453D6FE01F8DEFE2E2
:101C70009F8A81450145EFF07FA175356FE0FF8BAD
:101C8000EFE2DF87370400201304844E1E20130781
:101C9000F00F41116371F702B7B601006D6637B5F9
:101CA000010093868638130686339305D009130501
:101CB000053BEF40F1281E200D476366F7001545F0
:101CC00041016FE0FF862E890E20AA89372500206A
:101CD0009304C53F1305C53F32C6CD3D6DF19C2031
:101CE000324685042380F9001E20F5171EA223200A
:101CF0009900F9B7EFE23F82B707002083A4C74DF0
:101D00008547639FF406370400201304A44E06A001
:101D1000AA87A38FF5FE1E201385F5FF3707002045
:101D20003E964206418212A00E202322A74E793D04
:101D30001A209376F50F21814207418393071700FC
:101D4000C207C1831EA0B72700209387C73F3E97D5
:101D500014A31A201375F50F854542074183930696
:101D60001700C206C18216A0BA9788A3B707002041
:101D7000014523A0974EEFF07F9101456FE0EFFB07
:101D80001545EDBFEFE22FF9B707002083A7074EF7
:101D9000411185C3B7B601006D6637B50100938662
:101DA000863C130686349305600E1305053BEF4011
:101DB00031191305F100EFF0BF96B70700209387A4
:101DC000C74D98438546630FD70019C789466304FA
:101DD000D7048D476314F700EFF01FD4014541018C
:101DE0006FE0AFF5B70600209386864E239006007D
:101DF0009A221316070141821307160042074183F6
:101E00009AA29487372700201307C73F329714A35D
:101E1000094798C3D1B7370700201307874E162309
:101E20001306F00F6363D6021E2393960701C18247
:101E300093871600C207C1831EA39887B727002087
:101E40009387C73FB69798A341BF0D47D9B7EFE235
:101E50008FECB707002083A7C74D05476381E702D2
:101E6000B7B601006D6637B5010093868644130648
:101E7000C635930530121305053BEF40710CB704CE
:101E800000209384044E984019C7630BF700014467
:101E900022856FE08FEA81450545EFF02FFFC5BF32
:101EA000370400201304A44E1E20C207C18385C737
:101EB000B70400209384444E9C40882362056185CA
:101EC000EFF05F839C4085079CC01E20FD17C20772
:101ED000C1831EA06DBF0D45EFF00FE62A8481453A
:101EE0000545EFF0AFFA23A004005DB7EFE2AFE2E3
:101EF000B70700201387C74D1443094641111384C7
:101F0000C74D638FC6028D476388F604014595CAA5
:101F10001443B9C214436381C604184301456304E2
:101F2000F702B7B601006D6637B501009386463EED
:101F3000130606379305D0151305053BEF405100F6
:101F40000545EFF06FDF2AC6EFF0FFBD324585474C
:101F50001CC041016FE06FDE0145F5B796211547C2
:101F60006398E608582130319306E07C2207518FB0
:101F7000131687002183598E420641821307F6FF0C
:101F800042074183AA870D4563E6E606EFE2AFD834
:101F9000B8239433239005002207558F854694A3D8
:101FA00096219354360093F4F40F850696A1937608
:101FB000760081C6850493F4F40F84B396212E84B1
:101FC00013852700850696A19315870021834D8FE1
:101FD00093051700C2058146C181EF20E03301C59A
:101FE000192B6FE08FD51E200145BE9406A0D5BFEA
:101FF0000D45828082809A2195476311F70658210A
:102000008D4731EF38311306D00F9306F7FF93F663
:10201000F60F6376D604EFE20FD03C210C3141116C
:10202000A207CD8F93958700A183CD8F938517004D
:10203000130717F0C2051337170085460546C181FF
:102040006800A30601005886EF20002D814719C1C2
:102050005D21AA873E8541016FE02FCE8D473E85E9
:10206000828096211547637FD70658213031AA8791
:102070002207518F131687002183598E4206418211
:1020800013573600937676001377F70F81C605074E
:102090001377F70F9306F6FFC206C1821308F07A92
:1020A0000D456363D804D4336390E604EFE2AFC612
:1020B000B8232E848C332207138567004D8F931627
:1020C00087002183558F0507931507018546C18138
:1020D000EF20802401C505216FE02FC695471EA083
:1020E0000145DDBF0D4582808280962115476397AB
:1020F000E608582130319306E07C2207518F1316F1
:1021000087002183598E420641821307F6FF42075A
:102110004183AA870D4563E5E606EFE2CFBFB8230A
:102120009433239005002207558F894694A3962166
:102130009354360093F4F40F850696A193767600B7
:1021400081C6850493F4F40F84B396212E841385FD
:102150002700850696A19315870021834D8F93054F
:102160001700C205C181EF20802901C569266FE0F3
:10217000CFBC1E200145BE9406A0D5BF0D45828070
:1021800082809A219547631CF702EFE2CFB83C2189
:102190000C318546A207CD8F93958700A183CD8F03
:1021A00093851700C2050546C1810D05EF20C006C5
:1021B000814719C18926AA873E856FE00FB88D47F0
:1021C0003E858280EFE22FB59A21954463F7E406BD
:1021D00058213031930670072207518F131687005C
:1021E0002183518F1316070141821307F6FF42071F
:1021F0004183AA870D4563EDE602D4331317160019
:102200001377F70F6396E602B8232E848C332207E8
:10221000138567004D8F931687002183558F05071F
:10222000931507018546C181EF10107F01C5E12498
:102230006FE0AFB006A00145E5BF0D45D5BF9621C3
:102240001547639AE606EFE20FAD54211306C00767
:10225000AA8793940601C1801387F4FF4207418344
:102260000D456362E6042E84B8238C3323100400EA
:1022700088A3122086062207050612A04D8F94B36C
:1022800093158700162021834D8F9305170085062F
:10229000C20516A026868146C18113852700EF104E
:1022A000B07701C5892C6FE04FA91E208604014537
:1022B000BE9406A0CDBF0D4582809A21A54763F24A
:1022C000E70EEFE2AFA35C2138312A84A207D98F51
:1022D00093998700A183B3E7F9009399070193D9F4
:1022E00009019387F9FFC207C1831307C0070D4592
:1022F0006367F70A1C24703013078007A207D18F89
:1023000013968700A183D18F13960701418293070B
:10231000F6FFC207C1836364F708183493171600E9
:10232000639FE70624202E890C30A2047C20CD8CEC
:102330004C30A2078546CD8F93958700A183CD8F22
:1023400093851700C205C1811305A400EF10D06C5E
:1023500039E923100900DD471CA083570900139AAF
:1023600019009395840085072310F900A300440108
:1023700083570900A180CD8C938514008507C20581
:102380002310F90081464E86C18113052400EF1009
:10239000B06811E9835709003E9A231049016FE0A4
:1023A0002F9901458280812ADDBF962115476390D0
:1023B000E608582130319306B0072207518F1316D3
:1023C00087002183518F1316070141821307F6FFFF
:1023D00042074183AA870D4563EDE604EFE2AF9320
:1023E0002E843E858C331147BC232310040018A192
:1023F0001A20A2079314160005071AA004B1CD8F66
:10240000939587001A20A183CD8F93851700050728
:10241000C2051AA0C1810905EF10F05501C5E128D8
:102420006FE0AF911E200145BE9406A0D5BF0D45BB
:1024300082808280EFE22F8EB707002003D4C74E40
:10244000AE84B725002022869385C54F0505EF4051
:102450000138050482A001456FE02F8EA14763F388
:10246000C702EFE24F8BB7B601006D6637B50100CA
:102470009386464713064646930580031305454851
:10248000EF40012C13D73500930717003308E50000
:102490003E958547B397C700FD17C2070E073387E0
:1024A000E540C183B397E70018210346080093C7AE
:1024B000F7FF2207518F9D89F98FB396B600DD8E05
:1024C000C206C1862300D800C206C182A18214A11F
:1024D000828093D735003E951C3108219D89A20743
:1024E000C98F05453315C500B3D7B7407D157D8D20
:1024F0001375F50F82809D4763E7A7009387418797
:10250000AA978823828011458280EFE2CF80AE8730
:102510001388F7FFB2851378F80F36869306600F9D
:1025200063FC060137B501001305454AEF508117DA
:10253000094422856FE06F80238AF180094475F990
:1025400037250000130545C523A8A19037250000B5
:102550001305E5C623AAA19037250000130545CF32
:1025600023A4A19037250000130505C823A2A1903C
:102570003725000023A60190130545D823ACA19070
:10258000372500001305E5E423AEA19037250000B0
:102590001305C5EE23A0A192BA863E85EFF02FE782
:1025A0002A8441F9EFE01FF909C5054723A8E18016
:1025B00049B70D44BDBFEFD21FF6EFF0AFD72A8465
:1025C00019C5054723A8E18022856FD01FF7EFE0EA
:1025D0007FF61DCDB7270000938767B423A8F1903D
:1025E000B7270000938787B423AAF190B72700008C
:1025F000938727B523A2F190B72700009387E7B907
:1026000023A4F19023A601907D57238AE18055BF32
:102610000D445DBFEFD23FF0138401811840854720
:1026200019456318F70083A701918297014523207C
:1026300004006FD09FF0EFD21FEE83A701814111FC
:1026400019446395070C6800EFE05FF30547AA871C
:102650006304E50001445DA832476303A708894687
:10266000E31AD7FE03A581920C213707002023A08F
:10267000F190130607002382B1928147138481925F
:102680001389419293840190130707004148142253
:1026900091CA6391D5088E07BA97DC439385E1927E
:1026A000829788C083C7C192D5D794409387E1921F
:1026B00085C203470900104085458EA3136707F8BC
:1026C00018A292231840930516008EA3329714A3E4
:1026D000922303A781900C4003C5418102979DBFBF
:1026E00083A741909384C1921386E192938581924E
:1026F0001385C19282972A8431FD9C2003C74181B2
:102700006303F700A1FB0945EFE01FE322854101C8
:102710006FD0BFE285072106E39B07F761B79307F8
:1027200040063345F502A9474205418163E8A70603
:10273000ED679387474B0A053E951C4182872380AE
:102740000500930760041CA2828089479CA193071F
:102750008002D5BF91479CA1E547F5B795479CA15D
:10276000D147D5B79D479CA1BD47F1BFA1479CA1CB
:10277000A947D1BFAD479CA1A147F1B7B1479CA1E3
:102780009D47D1B7B9479CA1994775BFBD479CA14B
:10279000954755BFC1479CA1914775B7D147E5BF44
:1027A000EFD27FD77971BD47AA842E8436859305F1
:1027B0006100130671005C83DC8395379C83034EB4
:1027C00061009308C05D93960701C182B388F84009
:1027D00013982700139716008608B30EC041139371
:1027E0002600814701458145054FD14F634A1701B6
:1027F00005476369F70A81471EA045616FD0FFD383
:1028000093161700A6960396060063DBCE04635961
:10281000C605B30607418606A6968396060063C5DD
:10282000C604B306E8008606A69683960600634DA6
:10283000D60211C19DCD81459386170010188607D9
:10284000B297135617001A974207050593F6F60F2D
:10285000239CC7FC41831375F50F63EDDF00B6873A
:1028600009074207418359B719C16384E5018545CA
:10287000E1B795463000054781472E220A22050719
:102880001377F70F898DAE97C207C1830906E366F8
:10289000D7FEFD16B3C7D702C207C1838607C2079A
:1028A000C18399BFBE86F9B7EFD2FFC6B386C50212
:1028B000AA88014701450148634FD7002E8681460B
:1028C000C285EF10F12BEF307126EFA01055EF30DD
:1028D00031496FD09FC693171700C697839707009B
:1028E00032974207B387F702418313DEF741AA9775
:1028F00033B3A70072983E851A987DBF856793878A
:102900000777AA971A2136211105158F231EE5FE98
:10291000E39AA7FE82800566814701478146130638
:1029200086BB139817002A9803180800939807018C
:1029300093D8080163D406014687C2868907E392CB
:10294000C7FE05839AA136858280EFD2DFBC05459C
:10295000EF6000351384A193931505010420C18510
:102960000545EF608044B747002086049387C7C8B9
:10297000A6978AA31C209546850793F7F70F1CA0FE
:102980001387818163F4F6040C23373501408546B3
:1029900005461305058023000400EF30F03C03A535
:1029A000C1931384C19401479387C1948546094616
:1029B000814523200400EFA0605C1C4091C7B7E76D
:1029C00000E0116723A0E7206FD03FB7BA978C23B0
:1029D000373401401305048085460546EF30D03872
:1029E000854513050480EF30B036F9BFEFD2BFB292
:1029F0000945EF709055B707002083A6C71D4167B2
:102A000079179C4203A5C193F98F9CC213848194CA
:102A10000147938781948546114681452320040010
:102A2000EFA0C0551C4091C7B7E700E0116723A095
:102A3000E7206FD09FB09D4763E8A702EFD2BFADFC
:102A4000AA852A845D45EF00903E370500201305D6
:102A5000050806042A941A20B7470020938787CEDA
:102A6000DAA39AAB6FD07FAD8280B747002003D541
:102A7000C7CE82801385C1938280138501948280A2
:102A800087A70193539517C01375F50F8280EFD276
:102A90009FA85D71EF503051A9450145EF50D051CD
:102AA0006D642946930584570145EF50105FA94591
:102AB0000545EF5070502946930584570545EF5062
:102AC000D05DA9450945EF50304F930584572946FD
:102AD0000945EF50905C93070010B706080070108E
:102AE000894501452316F102EF60402F930700024C
:102AF000BEC0B72701409387C744BEC2B727002096
:102B00009387C751BEC485473EDE8567938787BBE1
:102B10002316F1040C188567130600020A853EDCB3
:102B200002D802DAEF30B14AB73600000A85938640
:102B3000C69E01468545EF60C045B707002003A744
:102B4000C71D814605461C43B7050E00054593E7A2
:102B500017001CC3373700001307A794EF6020321B
:102B600083C58181373501409D46054613050580A3
:102B7000EF30901F0545EF30B02A3745002013098C
:102B800085D6130600328145130585D6EFD0BF9B4D
:102B90005D45EF00102EB70400209384040806055D
:102BA00026951E2137440020130484CE374500208B
:102BB0005EA02320240113060032130985088145F5
:102BC0002314040013058508EFD0FF975D45EF003F
:102BD000502A374700200605130787C958D0AA9402
:102BE000374700209E201307C7CA18D83747002050
:102BF000130707CC1EA858DC8D47374700205EAC72
:102C0000130747CD38C493874193374700201CCC26
:102C1000130747D5A947231A0400232624012310AC
:102C200004021EB4231604025EB8231C04022310FF
:102C3000F404231204042316F40423180404231CAC
:102C4000F404231E040478C82312F4062314040693
:102C500038D061616FD07F8E1A251C410607BA9764
:102C60008EA31E255A218507C207C1831EA563E4D2
:102C7000E70023140500828052211E25814693051A
:102C8000F6FFC205C18101476317D6003345C7026D
:102C900042054185828091E3AE87FD17C207032874
:102CA0000500C1839398170046980318080085060D
:102CB000C2064297C182C9BFA54763E8A710EFD2F9
:102CC0009F85ED679387074E0A053E951C418287D5
:102CD00037450020130585CEEFF01FFAD37705D0D6
:102CE000E1A837450020130545CFFDB73745002043
:102CF000130505D0EFF05FF8D37705D0538507E0D3
:102D0000EF30417BB7B7010003A6876083A6C76099
:102D1000EF201105B7B7010003A6076183A647613D
:102D2000EF201104EF30D1036FD03F8137450020F1
:102D30001305C5D0EFF05FF4D37705D0538507E0D6
:102D4000EF304177B7B7010003A6876083A6C7605D
:102D5000EF201101B7B7010003A6876183A6C76101
:102D6000C1B737450020130585D1E9B737450020A5
:102D7000130545D2C1B737450020130505D3EFF041
:102D8000BFEFD37705D0538507E0EF30A172B7B717
:102D9000010003A6876083A6C76059B737450020A6
:102DA0001305C5D3EFF05FEDB7B70100D37705D0BA
:102DB00007A74760D3F7E710538507E0B5B703953A
:102DC000419429BF03A5019385B78280EFD2AFF16B
:102DD00041119307B05D7C8323120100EF906042A4
:102DE000B7B7010003AB075783AB4757056CB74A2A
:102DF00000202AC69544014D01490144372A00208C
:102E0000930C0C77938A8ACE85456800EF90406CCE
:102E100089476307F9028D476300F90263100902CD
:102E200037350140854513050580EF30607209454F
:102E3000EF70E0670D49C9BF0949F9B70549E9B71E
:102E400005473400194681450145EF90906AA24735
:102E5000898BA1CBB74900209389C9C8054DB147DB
:102E60009D4D3305FD0283950900050D8909569591
:102E7000EFF09FDEB147E316BDFFA947B377F40239
:102E8000054D63929702FD1493F4F40F91E0A5446D
:102E900037350140854513050580EF30606B014DE6
:102EA00019A0E31C0DFCA247918BC5C39309CA511D
:102EB000B38D99018395090001458909EF50F06EA2
:102EC000239FA9FEE3983DFF1305CA51EFF01FA30E
:102ED000930521001305CA51EFF0FFA3AA869305BD
:102EE000610009461305CA51EFF09F8B2C839307AD
:102EF000A05D63EEB70209461305CA51EFF0DF9AF1
:102F0000D30705F04C00539517C042054181EF509F
:102F10009006D37715D0538507E0EF30A1595A8634
:102F2000DE86EF20E163EF30A16323A8A192B7070B
:102F3000002083A7C71D13078CBB0945D8C398433E
:102F40001367170098C3EF70805605041374F40FCD
:102F5000A547E3FB87EA014445BD9C422147636BDB
:102F6000F70AEFD2AFD96D678A0713078750BA9770
:102F70009C43B6843289AE892A848287B7050200D1
:102F8000EF30D05619C1014561A085452285EF304B
:102F9000D04D85479CC0C5BFB70503008505EF3000
:102FA00090538547E311F5FE01469305A00D228558
:102FB000EF3050518947F9BFB705070093852508C1
:102FC000EF3070518547E310F5FCCE852285EF3058
:102FD000B04E8D47C1B7B705070093854508EF3060
:102FE000904F8547E311F5FACA852285EF30D04C22
:102FF000A1474DB7B705070093854508EF30B04DA1
:103000008547E312F5F822858545EF30B047054541
:103010006FD00FD2014582809C421D47636CF70E32
:10302000EFD2CFCD6D678A071307C752BA979C437B
:10303000B6843289AE892A848287B7050200EF30D0
:10304000F04A19C10145E9A085452285EF30F041DC
:1030500085479CC0C5BFB70503008505EF30B04765
:103060008547E311F5FE01469305A00D2285EF305B
:1030700070458947F9BFB705070093852508EF30EC
:1030800090458547E310F5FCCE852285EF30D04290
:103090009147C1B7B705070093854508EF30B043A6
:1030A0008547E311F5FA85452285EF30103C9547B9
:1030B0004DB7B70503008505EF30F0418547E313B1
:1030C000F5F805469305A00D2285EF30B03F9947EE
:1030D00049B7B70503008905EF30F03F8547E31393
:1030E000F5F69D47BDB7B705001093850504EF3091
:1030F000F03F29D981452285EF30703A2285EF30A3
:10310000F03B2300A90085452285EF30B037054507
:103110006FD00FC201458280EFD24FBE2A8405E5F1
:1031200037550040130505409C411D486363F8086E
:103130003A8A6D678A071307C754BA979C43B684C7
:103140003289AE8982873765004013050580E9BF63
:10315000B286930500032946EFF03FE08547631AE6
:10316000F50423A0A90023200900A1A0B28693059D
:1031700000032686EFF05FEA8547631CF5029C207A
:10318000A18BF5F3894723A0F900F1BFB7470020D1
:103190009387873A131634003E96CA869945EFF016
:1031A000BFE785476317F500232009008D4723A05B
:1031B000F9006FD0EFB7B2860E0437460020050441
:1031C0001306863A22969D45EFF01FE58547E312E8
:1031D000F5FE232009009147D9BFB7470020931A75
:1031E00034009384873A13862A00CA862696A1451E
:1031F000EFF09FE28547E31EF5FAB387540184237D
:103200008833C2042205C98CA823B7078000C98C63
:1032100063F99702EF00D068B70700FFBE94B3D4FC
:10322000A40223109A0031453304A40283150A0036
:1032300037450020130585CE2295EFF0FFA1954775
:1032400099B7EF00F06533D5A4022310AA00E1BFBF
:10325000B2860E04374600200D041306863A2296E5
:10326000A545EFF07FDB8547E315F5F4994721BFCE
:10327000B7440020131634009384843A1106CA869A
:103280002696A945EFF05FD98547E314F5F213348C
:10329000140031451D043304A402AC34DC2437454A
:1032A0000020A205BE95C205130585CEC1852295D5
:1032B000EFF09F9A9D47C1BDEFD24FA401111305B6
:1032C000803EEF90802D37B501001305855CEF40FF
:1032D000613D014901449D44050442044180D147B8
:1032E00063FB870091453715014063180906EF60BD
:1032F000201F05490144EF80D070AA8902C802CA84
:1033000002CCEF80107033053541E54763FBA7041D
:10331000424663019602E24537B501001305C55DDB
:10332000EF40412637650040854513050580EF30A5
:10333000701502CC5246E30196FAF24537B501000A
:103340001305055FEF4001243755004085451305FF
:103350000540EF30301302CE41B7EF6060190149EC
:1033600051BF138741949306E10030080C080145D2
:10337000EFF09FDA138761949306F10070084C0810
:103380000545EFF07FD9C247E39D97F6D247E39A10
:1033900097F60545EF906020ADB77300203037B544
:1033A000010019711305056282FE86FC8AFA8EF807
:1033B00092F696F49AF29EF0A2EEA6ECAAEAAEE895
:1033C000B2E6B6E4BAE2BEE042FE46FC4AFA4EF885
:1033D00052F656F45AF25EF062EE66EC6AEA6EE875
:1033E00072E676E47AE27EE0EF40C12BEFA0C021E6
:1033F000AA8537B5010013054563EF40A118EFA07A
:103400000021AA8537B5010013054564EF408117F7
:10341000EFA04020AA8537B5010013054565EF40B0
:10342000611601A0317106DF16DD1ADB1ED92AD71D
:103430002ED532D336D13ACF3ECD42CB46C972C714
:1034400076C57AC37EC182FE86FC8AFA8EF892F631
:1034500096F49AF29EF0A2EEA6ECAAEAAEE8B2E6E4
:10346000B6E4BAE2BEE042FE46FC4AFA4EF852F634
:1034700056F45AF25EF062EE66EC6AEA6EE872E6C4
:1034800076E47AE27EE0EF40500013050008EF306A
:10349000C063FA50EA525A53CA533A55AA551A56BB
:1034A0008A567A47EA475A48CA483A4EAA4E1A4FAD
:1034B0008A4F7670E6705671C6713672A6721673B0
:1034C00086737664E6645665C6653666A6661667D4
:1034D00086677278E2785279C279327AA27A127B60
:1034E000827B726CE26C526DC26D326EA26E126F94
:1034F000826F296173002030197182FE86FC8AFA7E
:103500008EF892F696F49AF29EF0A2EEA6ECAAEA53
:10351000AEE8B2E6B6E4BAE2BEE042FE46FC4AFAE3
:103520004EF852F656F45AF25EF062EE66EC6AEA33
:103530006EE872E676E47AE27EE0EF403054767030
:10354000E6705671C6713672A6721673867376640B
:10355000E6645665C6653666A6661667866772783F
:10356000E2785279C279327AA27A127B827B726CCB
:10357000E26C526DC26D326EA26E126F826F096183
:10358000730020301971294582FE86FC8AFA8EF874
:1035900092F696F49AF29EF0A2EEA6ECAAEAAEE8B3
:1035A000B2E6B6E4BAE2BEE042FE46FC4AFA4EF8A3
:1035B00052F656F45AF25EF062EE66EC6AEA6EE893
:1035C00072E676E47AE27EE0EF40200E854537052C
:1035D0000040EF3030707670E6705671C67136720A
:1035E000A672167386737664E6645665C66536669B
:1035F000A666166786677278E2785279C279327A5F
:10360000A27A127B827B726CE26C526DC26D326E5A
:10361000A26E126F826F096173002030B7470020DD
:103620009387873B3E950CA1A1810CB18280EFC2AC
:103630009FEE2A84EFF09FFEB74500209385853BDF
:103640000947A9460946A2952285EF50A0096FC0F7
:10365000DFEEEFC25FECB74700209387873BAA9766
:103660008CA30947A9460546BE85EF50A0076FC049
:10367000DFECB74700209387873BAA9798338823CE
:103680002207598D8280B74700209387873BAA97EE
:103690009833A82322074205498F8823498FA833EE
:1036A0006205598D8280B74700209387873B3E95FE
:1036B00008218280B74700209387873B3E9593D7A8
:1036C00085000CA11CB193D70501E1813CA12CB16F
:1036D0008280EFC25FE4B74400201306E003814517
:1036E0001385843BEFC03FE6094793064006130667
:1036F000E0039385843B0145EF40907089474DE19D
:103700001384843B142045478147638BE6081306E6
:103710008002814513056401EFC0FFE2B707040191
:10372000938717111CC0B7C7FAF09387E77B5CC07B
:10373000B7070AC0138727139387871A5CC4B70794
:1037400001FF9387871A1CC8FD575EA8B7B7010011
:1037500083A547661305A00218C4EFF0BFF599478B
:103760007CB809479307601F9306803E1306E00369
:103770009385843B01451EACEF40D07619E537B503
:10378000010013058566EF30F17109479306400685
:103790001306E0039385843B0145EF40706685473F
:1037A0003E856FC09FD9EFC21FD72A84EFF09FF0EC
:1037B000B74500209385853B0947A9461146A29548
:1037C0002285EF4030726FC05FD7B74700209387E4
:1037D000873BAA979833A82322074205498F88235D
:1037E000498FA8336205598D8280EFC23FD12A8468
:1037F00039711305A003AE89328A3689EFF07FE76D
:1038000063678506AA841305C003EFF09FE6B3073C
:10381000954063D90700636A95047D14058C2A944A
:10382000420441801D453305A4020947A9461D46AF
:103830006C001305E50342054181EF40705C1C8676
:10384000B8802380F9009C862304F9001C8723227A
:10385000F9009C87A304F900834721012310EA00A3
:103860002301FA0021616FC0BFCC2A8465BF238089
:103870000900CDBFEFC23FCA0111AA841305C003DE
:10388000EFF03FDF2A8468004482EF604058480828
:10389000EF60605B1D453305A4028347C101388694
:1038A000A946DC82E24778841D465C838347D101C8
:1038B0001305E5034205DC831C8709474C00418161
:1038C0005C85EF4030621305140042054181930787
:1038D000100363F3A7000145374400209307843B9E
:1038E000238EA7021305A003A38E0702EFF07FD853
:1038F000930710039305843B63E7A7000505238D19
:10390000A502A38D05020947A94611469385A50383
:103910001305A003EF40105D05616FC01FC2914702
:1039200063E0A704EFC23FBFED67938787670A058F
:103930003E951C418287856593850580372501402A
:1039400013050580EF5030391375F50F6FC0FFBEBA
:103950008565EDB78965DDB79165CDB7A165F9BF1F
:1039600001458280954763E5A704EFC2DFBAED67A2
:103970009387C7680A053E951C418287930500041A
:103980003725014013050580EF50F0346FC0FFBAB2
:1039900093050002F5B7C145E5B7A145D5B79145F7
:1039A000C5B73715014093050010130505C0E9BFE1
:1039B00001458280EFC23FB685476309F50211C514
:1039C0008947630AF5026FC05FB789E9A1453715DA
:1039D0000140130505C0EF50B030F5B7A1453715CC
:1039E0000140130505C0EF50B030F1BF99E1C1456A
:1039F000F9BFC145EDB781E593050002C9BF930545
:103A00000002F1BFEFC23FB17971A9473ED23ED06B
:103A1000B74700009387E7914C0801453ED602CC9A
:103A2000EF40D0794C080545EF4050794C080945E6
:103A3000EF40D0784C080D45EF4050784C081145C8
:103A4000EF40D077B74700009387479B2C00014594
:103A50003EC802C6EF40F06B2C000545EF40706B8E
:103A60002C000945EF40F06A45616FC01FADEFC201
:103A70009FAA011199475C84938701953EC893875B
:103A800081953EC6B7071464D1073ECA8947230C07
:103A9000F100B74700009387479628003ECEEF50CD
:103AA000800805616FC07FA9EFC2FFA6EFF03FFC61
:103AB000EF50C006EF80702EEF50A00BEF407073F8
:103AC000C5BFEFC2BFA379713714014002C602C857
:103AD00002CA02CCEF501022F146014613050480C1
:103AE000C145EF50101C130504C08D45EF507019EF
:103AF000130504808D45EF50D0189305000337154A
:103B00000140EF501018130504809305400CEF504E
:103B10005017B72401401385048093050078EF50B7
:103B2000501513050440B165EF50B0148565371585
:103B30000140EF501014130504408D45EF507013F1
:103B4000130504409305000EEF50B0121305044016
:103B50009145EF501012130504408565EF50701128
:103B6000E1460146130504C0A965EF509013930781
:103B7000800491696C08130504C03ED2231E3101F4
:103B8000231F01002310010223110102EF20907472
:103B9000130504C08565EF50D00D914537150140E0
:103BA000EF50300D1305044093050004EF50700CE6
:103BB000370613808D65E146410613050440938561
:103BC00005A0EF50100E130504C093058003EF50BD
:103BD000500A0569930509C037150140EF50700977
:103BE000138504809305C007EF50B00A130504C085
:103BF00093050010EF50F009C1651385048093858B
:103C00000580EF50100981450145EF2070381305FC
:103C1000044093050004EF50B00C130504C0930555
:103C20000020EF501005370A308013062A00138554
:103C3000048091468945EF50D00613062A0013856B
:103C40000480E1468545EF50D005E1460146130565
:103C5000048093050040EF50D00485451165EF3096
:103C6000802C1145712EEFE09FE2B7B51D0065462F
:103C7000938595150945EF60503493050002094579
:103C8000EF60500495659D461306803E938505E2DE
:103C90002145EF60303F1306401F9D452145EF60F1
:103CA000904C2145EF60B0542145EF605000B717AC
:103CB0000300938707D43EC6B70700403EC86C0098
:103CC000B70700048546054601453ECA231C31015D
:103CD000EF5030206C00854605460545EF50701FBB
:103CE000130504C0F14601469305000CEF50607BBC
:103CF000F1460146930509C0130504C0EF50607AF0
:103D00000145EF50D01B0545EF50701B89476808EF
:103D10003ED602CE02D002D202D4EF50C01EEFF047
:103D20007FCE0545EF40A07B45616FC07F80EFC22D
:103D30008FFEB7470020238CA73E1145EF60207708
:103D400013064006FD550945EF80706F6FC0EFFE0A
:103D5000138501968280EFC20FFCB757002083A520
:103D6000C783374500201306004013058540EF2028
:103D7000B1231375F50F6FC04FFCEFC24FF7371427
:103D80000140130504409145EF508076130504402F
:103D900093050008EF50C075856537150140EF5059
:103DA00020752945EF80607F856537150140EF500C
:103DB00020732945EF80607E1305044093050008B9
:103DC000EF500072856537150140EF50607229454C
:103DD000EF80A07C856537150140EF506070294564
:103DE000EF80A07B9305000813050440EF5040705E
:103DF0001305F003EFF0BFF30545EF80007A93055C
:103E0000000813050440EF50A06D1305F003EFF018
:103E10001FF20545B7590020B7440020EF80E07736
:103E2000B74A002093898980130404409384843F17
:103E3000A14B7D5685450145EF80706083A5490300
:103E40001306004013858A40EF207118138A8A40B8
:103E50000149930500082285EF508069130500048D
:103E6000EFF0FFEC136B890B5A85EFF05FEC9305D5
:103E700000082285EF50C06613050004EFF03FEB09
:103E80005A85EFF0DFEA93070008114523A24401A9
:103E90009CC423800400239604000509EF60206180
:103EA00013064006FD5509451379F90FEF80305987
:103EB000130A0A08E31F79F9ADBFEFC2CFE5B714C3
:103EC00001402A8413850440EF500062935524403A
:103ED0009317E4008D89DD8D9167F1177D8DC98D74
:103EE000C205C18113850440EF50C05FB724014073
:103EF00013850480EF50405F0E041375F58713742B
:103F00000478498C93150401C18113850480EF5016
:103F1000605D6FC08FE2EFC20FE083C74196411131
:103F20003744002002C6938441961304843FA5EBD6
:103F3000371901409305000213050940EF50405B1B
:103F40001C2085651305094085C7EF50605A08207D
:103F5000EFF0BFF623140400371501409145130517
:103F60000540EF50E05785479CA041016FC0EFDC52
:103F7000EF5000575A249307F003930500081305E8
:103F8000094063EBE700EF50A0553A245C40BA9734
:103F90008823EFF09FF2C9B7EF508055FDB7371572
:103FA0000140914513050540EF5080545E241307EE
:103FB000F0078507C207C1836361F7045EA43E244E
:103FC0001A248507C207C1833EA463E5E7021145B1
:103FD000EF60A07703A501967C0001478D4605465A
:103FE0008945EF80B079B24791C7B7E700E0116724
:103FF00023A0E720238004008DBF23160400C1B74F
:10400000EFC26FD1B7460000B7B50A008547014738
:10401000938666F10546938505E6EF60007E3715C9
:1040200001409305000213050540EF50604C3754E2
:104030000020ED6581460146130584809385C50BFC
:10404000EFC04FEDE9659385C5E313058480EFC0AC
:104050001FD013058480EFC0AFE96FC00FCEEFC251
:104060008FCB0945EF20B04BEF105042EF908044CA
:10407000EF202002EF10F07EEF109062EFD0CFF52E
:10408000EFF03FA4716513050520EF90C04B37B5E5
:1040900001001305456AEF30E160EF80C00C01A01C
:1040A00003D5E1818280391542054181B14763E33F
:1040B000A70CEFC24FC6ED679387476B0A053E9585
:1040C0001C418287B757002083A5478C0145EF40EC
:1040D0004073D30705F02946539517C04205418127
:1040E0003306C502854515A0B757002083A5878CE8
:1040F0000545EF400071D30705F0294689455395E2
:1041000017C0420541813306C5022145EF60B00565
:104110002145EF60D00D0DA8B757002083A5C78CAF
:104120000945EF40006ED30705F0294691455395A8
:1041300017C0420541813306C502C1BFB7570020F1
:1041400003D7078C239FE1806FC02FBFB757002094
:1041500003D6278C41BFB757002003D5678DEFE00A
:104160009F8DDDB7B757002083D5878D0145EF20A0
:104170002062D9BF8280D1CD3307B600930690026A
:10418000854763C9E608EFC26FB7375A0020138925
:10419000F5FF9304CA8E254B2DCA3284AA89130ACF
:1041A000CA8E814A5685EFE03FB1B7B7010007A735
:1041B000076FD30705F0850A110AD3F7E710D397E5
:1041C00007C0D3F707D0D3F7E718272EFAFEE39BF3
:1041D0006AFD2545EFE05FAED30705F093151900A2
:1041E000A695539517C02286D37705D04E85DCF867
:1041F0009E217D160905A183230FF5FE9E2142060F
:104200004182A30FF5FE890565F681473E856FC0A3
:104210002FB285473E858280638E050EEFC20FAEBA
:10422000B387C500130790022A892E84B2890545F9
:104230006341F70CB1CA05470145639CE60AB754D0
:1042400000201385F5FF139715009384C489420558
:1042500013940701BA944181418093091500C20962
:1042600093D90901890463858908834709000909ED
:10427000A207239EF4FE0347F9FFD98F239EF4FE85
:10428000EFF07FE24E85D1BFB7540020938AC489F6
:10429000014A9384C489254B5285EFE0FFA1B7B74B
:1042A0000100D30705F007A7076F050A910AD3F7A6
:1042B000E710539507C0D37705D0D3F7E71827AE9B
:1042C000FAFEE31B6AFD2545EFE01F9FD30705F0CB
:1042D00083D7E181539517C00604DEB0D37705D0AC
:1042E0002694DCF8EFE06FF8AABC09046395090096
:1042F00001456FC0EFA38357C4FFFD190909A183CE
:10430000230FF9FE8357C4FFC20993D90901A30FF4
:10431000F9FEE1BF05458280EFC26F9D9389F5FFED
:10432000C20993D909013387C9008D4763C7E70CD8
:10433000935A360013D939003284AA84138A1A009A
:1043400093F9790095CE854701456396F608375A6B
:104350000020268B338C2A01930CCA89631F89079E
:1043600013767400D69401CA94201305CA89CE85A9
:104370004A95EFE0AF8E1305CA89EF40A05C99A87B
:10438000B75B00201385CB89EF40E05E268B938BD3
:10439000CB893309994033052B01420541812146E0
:1043A000CE855E957D1AEFE0CF92050B420AA30FF2
:1043B000ABFE135A0A01E3100AFE1D882146018E46
:1043C0001374F50F3314C4001374F40FD6943354DC
:1043D000C44080A001456FC00F95930B1900834620
:1043E0000B00C20B33852C0193DB0B012146CE85DC
:1043F000EFE0CF86050B5E8995B70545E9BFFD1552
:10440000C205C1813387C500954763CCE706EFC27B
:104410000F8E375B00202A84935A360093DB3500D9
:104420001305CB89B28493F9750013891A00EF4004
:104430004068228A130BCB89B38B8B4033057A01FA
:10444000420541812146CE855A957D19EFE06F885E
:10445000050A4209A30FAAFE13590901E31009FE38
:10446000A1479D88B38497409377F50FB397970042
:1044700093F7F70F5694B3D797401CA001456FC030
:104480008F8A05458280EFC20F895545EFF0BFC185
:104490005D45EFF05FC165451564EFF0DFC0814415
:1044A00037B90100130404B00545EFF0CF9F8547ED
:1044B000631FF5000547A2860D4685450145EFE0DF
:1044C000CF8419EDEFE00F9511CD8544F1BF014583
:1044D000EFE06F8E11E51305896EEF30A11CDDB79B
:1044E000E1D4CDB70545EF80400BEFE0CF94E9BFB5
:1044F000014793860197094895453386E60083482E
:1045000006009377F70F63950803054718A2154730
:10451000114885451DE18DCBFD1793F7F70F3386C5
:10452000F600834806006393B80289471CA2828084
:104530000507E314B7FC9547D9BF850793F7F70F35
:10454000E37FF8FC8147E1BF9147D1BF7D17137727
:10455000F70F69F38280938701972382070023A0D6
:10456000070003C731985146B70700203307C70239
:1045700093870709014693860197894505481545A4
:10458000BA97D84381471107832807006397B8007B
:1045900011EA3386F6000CA2054685074107E3952C
:1045A000A7FE8280B388F60023800801FDB7EFB232
:1045B0009FF6F167375500209387478E1307A003B6
:1045C000930600080146814513058580EFC0AF8939
:1045D0006FB0BFF6EFB23FF4EF40E053184123A2B3
:1045E000E1986FB09FF5370700201307070981474F
:1045F000BD4610236309A600850793F7F70F5107FF
:10460000E399D7FE85473E858280EFB23FEFB7073B
:104610000020914603C73198938707091384319886
:1046200063EDA606ED669386466F0A05369514413E
:104630008286D1463307D702BA97A62B8DC493F74B
:1046400004F0C2072167C183930607106385D7086A
:1046500063EBF6046388E70693F7F40F89C73E859A
:10466000EFF07FF808A06FB0BFECD1463307D70258
:10467000BA97862BE1B7D1463307D702BA97C62738
:1046800075BFD1463307D702BA97E62745BFD14653
:104690003307D702BA97A62755B7D1463307D702B3
:1046A000BA97862761BF930607306389D70213073D
:1046B0000740E393E7FA93871198982351DF7D171A
:1046C00098A359BFEFF03FE909472381E1980547D7
:1046D000A382E19651B7A3800198BDBF13891198B9
:1046E000834909001305A0038509EFE09FF8E3D58E
:1046F000A9F68347090085072300F900B1BF2A887E
:104700007D1619456365C50CEFB2FFE02E85ED659A
:104710000A06938585702E9610420286631C080057
:10472000EFE07FF842054181239BA196A385019686
:104730006FB0BFE0EFE0FFF3C5BF83D561976317AC
:10474000080093F5F50FEFE0DFF0DDB7EFE03FEEA7
:10475000C5B71387B1961C23850793F7F70F63F44A
:10476000D7001CA3F1B723000700D9B79387B196F0
:10477000982319E394A36DBF7D1798A355BF83C6F3
:10478000B1969387619793952600F1669386C68BC1
:10479000AE9692239442B2966364D70096A349BF23
:1047A0009AA379B783C6B19613876197939526002C
:1047B000F1669386C68BAE9612239442B305F640FB
:1047C00063E5D500158E12A3A5B71EA395B7828009
:1047D000D38707F0FD15994763E7B712EFB2BFD350
:1047E000ED67938747728A05BE959C4141113684D7
:1047F0008287EFE09FFD23ACA1960504A3858196F7
:1048000041016FB09FD383A58197EFE0DFF9CDBF62
:1048100003C7B19636969387B19605071377F70FBE
:104820006359C70098A39823E31C87FC050480A361
:10483000C1BF23800700C5BF83C7B1960506138794
:10484000B19699C31386F7FF1376F60F6304C4007D
:1048500010A37DB77D1400A365B783C7B196530736
:1048600007F063F5F600FD1793F7F70FF1669386EF
:10487000C68C8A07B6979C633AE6538507E03EE408
:10488000EF1051432A8637C50100AE86130505D4C3
:10489000EF20514F938781979463A2673267D3F7D4
:1048A000D7005387E7A019C39CE399BF98E389BF5A
:1048B00003C7B19663F5E6007D171377F70FF1662E
:1048C0009386C68C0A07369714633EE6538506E046
:1048D00036E4EF10313E2A8637C50100AE86130557
:1048E00005D4EF20314A138781971863B267A26617
:1048F0005376F708D387C6A089C75377D70818E33C
:1049000001B71CE3F5BD8280FD15994763E3B71E2F
:10491000EFB2DFBEED67938707748A05BE959C41B1
:10492000AA84828701441389C19791493385840001
:1049300042054181EFE03FD7B307890088A3050412
:10494000E31634FFA38501966FB09FBE014413891F
:10495000C1979149B3078900338584008C234205B0
:1049600041810504EFE0FFCEE31634FFF1BF03C73A
:10497000B196B9469387B19605071377F70F63EFA2
:10498000E60098A398238D461376B70F6305D600EB
:10499000AD46E31BD7FA050798A37DB72380070030
:1049A000D5B783C7B1961387B19691CF9386F7FF9A
:1049B00093F6F60F93F5B60F0D466388C5002D46A6
:1049C0006385C600B6871CA341B7F917EDBF83C73F
:1049D000B196716609479385C1971306C68B636FBD
:1049E000F7008A07B297B8319C43BA971307F00FC4
:1049F0006364F700BCB189BFFD57EDBF1947636120
:104A0000F702F11793962700B296B8219C42BA9705
:104A10001307F00F6364F700BCA13DB7FD57EDBF6E
:104A200029476362F702E1178A07B29798319C43DE
:104A3000BA971307F00F6364F7009CB131B77D5745
:104A4000A38EE19611B7138747FF8D473367F702AF
:104A500094210A0732971C431307F00FB69763643B
:104A6000F7009CA1D5B57D57238EE196F1BD83C794
:104A7000B196716609479385C1971306C68B636E1D
:104A8000F7008A07B297B8319C436365F7001D8F22
:104A9000B8B15DBDA381050045BD19476360F7024C
:104AA000F11793962700B296B8219C426365F700F0
:104AB0001D8FB8A151BD2381050079B52947636CCD
:104AC000F700E1178A07B29798319C43E369F7F63C
:104AD0001D8F98B195BD138747FF8D473367F70248
:104AE00094210A0732971C43E3EFF6F69D8E94A1BA
:104AF000A1BD8280EFB23FA22E841DE11385819873
:104B0000EF50E03093878198B82394339023B7C552
:104B100001009385C5EA2285EF2091396FB0FFA18E
:104B20007D159D47E3ECA7FEED679387C7750A05E2
:104B30003E951C418287A3850196CDB71385819848
:104B4000EF50603AE1BF03C7B1969D469387B19697
:104B500005071377F70F63EDE60098A398238946BE
:104B60006305D7009546E31BD7FA050798A37DB7E1
:104B700023800700E5B783C7B1961387B19681CF2D
:104B8000FD1793F7F70F89466389D700954663862B
:104B9000D7001CA361B79D47EDBFFD17DDBF83C7DD
:104BA000B19671660547938681981306C68B636D2F
:104BB000F7008A07B297B8229C43BA971307B0034D
:104BC0006365F706BCA299BF1147636EF700F5173E
:104BD0008A07B29798329C43BA971307B00363666B
:104BE000F7069CB225BF1387A7FF89473367F702F3
:104BF0008C220A0732971C435D47AE976364F70027
:104C00009CA229BF98A219BF83C7B19671660547B8
:104C1000938681981306C68B636EF7008A07B29756
:104C2000B8229C436365F7001D8FB8A2C5BD2381E0
:104C30000600EDB51147636FF700F5178A07B297C5
:104C400098329C436365F7001D8F98B2C1BDA38065
:104C50000600E9B51387A7FF89473367F7028C225F
:104C60000A0732971C4363E5F5009D8D8CA27DB544
:104C70002380060065B56D1593170501C1831307E1
:104C800050026368F70071651305C5853E950821DC
:104C9000828001458280EFB27F860111AA892E842D
:104CA000B28481C683C7B1969CA219C385471CA351
:104CB0004E853AC2EFF03FFC9387F9FFC207C183EC
:104CC000930690022A8963E4F65EED668A0793866E
:104CD000C677B6979C431247828793878198B823FB
:104CE00094339023B7C501009385C5EA2285EF2050
:104CF000311C05616FB0DF8383C7019813972700CC
:104D0000F16793870789BA973DAB83C70198054739
:104D10006383E70289CB0947638BE702B7C50100CC
:104D2000938545DB29A0B7C501009385C5D72285AA
:104D3000EF20711C7DBF1145EFE0FF96B7C5010064
:104D40002A869385C5D82285EF2091165DB719452F
:104D5000EFE07F95B7C501002A86938505DAE5B7B0
:104D60009384119890201305A003050632C2EFE04A
:104D70005F901246B7C50100AA869385C5DD2285DE
:104D8000EF2011138820B75600209386C693138610
:104D9000819893850198EFE05FA5A1BF95C0A147D9
:104DA000638EF402B7C7010037C7010083A747D459
:104DB000032787D489461146A685EFF07FA115BF4A
:104DC000EFE0BFA0EF10016FAE86B7C501002A86E5
:104DD000938585DE2285EF20B10D21BF03A5819744
:104DE000D5B7638B0416A147638CF4008147130782
:104DF000703E89462686CA850545EFF05F90D5BD91
:104E000003D66197B7C50100938505DF2DBFEFD0AD
:104E1000BFEAD30705F0B7C50100938585DF539638
:104E200007C015B791C8A1476380F402096781479D
:104E30001307F7708D467DBFEFE0BF832A86B7C5A5
:104E40000100938505E001B703D66197CDBFEF1050
:104E5000A027B7C501002A86938585E0EDB5EF1040
:104E60002028C5BFB7C50100938585E1C9B50545B3
:104E7000EF30F04211C5B7C50100938505E245BD8D
:104E8000B7C50100938545E25DB52808EF20E07FB6
:104E90008348D1010348C1018347B1010347A10100
:104EA0008346910103468101B7C50100938585E2E0
:104EB0002285EF20E17F35BDEF10A0208947630AEE
:104EC000F500B7C501009385C5D52285EF20417E49
:104ED0000DB5B7C501009385C5D4C5BF81C8A1472D
:104EE0006389F404A685EFF03FA221B5EFE0AFFBA4
:104EF0002AC61305190042054181EFE0CFFA2AC402
:104F00001305290042054181EFE0EFF92AC213059C
:104F1000390042054181EFE00FF91247A2463246BF
:104F2000AA87B7C50100938585E32285EF204178E4
:104F3000C9B31386C1973C32382214321022D5B738
:104F400099C8A147E38EF4EA81471307703E8D4666
:104F50002686E14555B56145EFE0AFF12A865DB59E
:104F60002545EFD07FD5D30705F0B7C50100938560
:104F7000C5E4539617C042064182F1B3A285268547
:104F8000EFF05FB7BDB39DE0375500201305C59323
:104F9000EF40706BB75700209387C793B7C50100E8
:104FA0009837D44390279385C5D689B3FD149D4780
:104FB000E3E197D4F167938747828A04BE949C40CB
:104FC0008287A385019635B3375500201305C59315
:104FD000EF40F07539BB03C7B1969D469387B196F4
:104FE00005071377F70F63EDE60098A3982389462A
:104FF0006305D7009546E31ED7CE050798A3D5B91C
:1050000023800700E5B783C7B1961387B19691CB8C
:10501000FD1793F7F70F89466387D700954663849A
:10502000D7001CA3F9B1FD17EDBF83C7B196B756E2
:105030000020716605479386C6931306C68B636D81
:10504000F7008A07B29798369C43BA971307300641
:105050006366F7069CB671B91147636DF700F517E3
:105060008A07B297D8429C43BA9731476367F706DD
:10507000DCC241B11387A7FF89473367F7028C264B
:105080000A0732971C437D47AE976364F7009CA6DE
:105090008DB198A6B9B983C7B196B756002071668D
:1050A00085459386C6931306C68B63EDF5008A0784
:1050B000B29798369C4363F5E7001D8F98B615B9F3
:1050C0008CB605B91147636EF700F5178A07B297DA
:1050D000D8429C4363F5E7001D8FD8C219B9CCC2F2
:1050E00009B91387A7FF89473367F70288260A079C
:1050F00032971C4363F5A7001D8D88A6DDBE8CA6E4
:10510000CDBE8DC4A147E38DF4CEB1476393F902C0
:105110001545EFE04FD97D1513170501418393071E
:10512000400689462686CA850145C1B9EFE0AFD75A
:1051300035B5B5476393F9021D45EFE0CFD67D1530
:1051400013170501418311453AC2EFE0CFD505059C
:1051500093170501C1831247E9B7BD476393F9026D
:105160001545EFE04FD4050593170501C183194597
:105170003EC2EFE04FD37D151317050141839247DF
:105180004DB71D45EFE02FD2050593170501C183EB
:105190001307F00F79B71305A003EFE08FCD2A8630
:1051A000B7C50100938545E579BE8D47638BF40251
:1051B00063E6970099CC2381019825BE99476382C5
:1051C000F402A147E399F4FEB7B5010093850512F7
:1051D000B9BE83C75196EDDBB7C501009385C5E520
:1051E000B9B681451305C003EFE06FC481451305CF
:1051F000A003EFE0CFC323810198A3820196D5BC21
:1052000081C8A1476389F40085471307400611BF91
:10521000EFE06FC969B703D6619759B7230007005C
:1052200081CCA1476393F40283D76197139727003A
:10523000F16793874788C1BCEFE0EFC6F1670A05C5
:1052400093874788AA978C43DDB4938799FFB33738
:10525000F00009478146F9B5EF0050102AC2EF006F
:10526000100F1246B7C50100AA86938545E822852E
:10527000EF200144BDBC2300070091C8A147638013
:10528000F4028147194781462686DD4571BD5D459B
:10529000EFE06FC1F1670A059387078A65B783D787
:1052A000619713972700F1679387078AA9BCE302E8
:1052B00004A4B7C50100938585EA95BC814713878F
:1052C000019789451546B306F70088226311B50496
:1052D000EFB26FA40D4798A283C6319851463707A5
:1052E0000020B386C6021307070992070D468145C1
:1052F000369758438146BA97CA2701472396A19605
:10530000EFF07F990547A382E1966FB00FA3850761
:10531000E39BC7FA0547A382E19682808147138702
:1053200001978D451546B306F70003C80600631FB5
:10533000B802EFB24F9E094798A283C63198D14573
:1053400037070020B386B6021307070992072A869B
:105350008145369758438146BA97CA270147EFF0EF
:105360009F9309472381E1986FB02F9D8507E39CA8
:10537000C7FA09472381E1988280EFB2CF969389DB
:10538000419803A509005D71B7040020EF60B002E9
:10539000138431989384040929C103A50900138952
:1053A0008196014693858196EF60806A85476316F2
:1053B000F50203471900930700086310F70293876B
:1053C0002198942309476388E6068D476388F60E83
:1053D00089E603450900EFF04FA31C205147B3872E
:1053E000E70213890197854A130B0008BE94C04059
:1053F000B754002013858480EFB08FAF930B040562
:105400005C40638C57116382071009476387E71478
:105410001C2089E741040509E3948BFE1387A196BC
:105420001C23A946850793F7F70F63E8F6241CA30E
:1054300061616FB00F8F034709006300A70419CBA8
:10544000630AD7048D47E31AF7F883C75196A5C3BB
:105450000145A1A013875196142381C6230007009C
:10546000ADBF182023800700D147B307F702A697E6
:10547000A82BEFF04F9708A08DB7938651969022F6
:1054800009E698A2EFF02F8D89BF0D4798A3EFF0A2
:10549000FFE2A1B783C7519681C7EFF06F8535BF93
:1054A0001C205147B387E702A697C827D9B71C200D
:1054B0005147B387E702A697E82765BF83470900EE
:1054C0001547E36CF7F071678A0713074784BA97AB
:1054D0009C4382871545EFF07FE401B71945E5BF8E
:1054E00001478146094603D5C1968145EFF0AFFAE1
:1054F000EDB5014781460546FDB7014781461D468A
:10550000DDB7014781461146F9BF144430200C3005
:1055100013858480EFB04FFCE5BD8349240014441B
:105520000C304E8613858480EFB00FFB4A2493061F
:10553000A10101461307B1016C08EFF0CFF56C082B
:1055400013858480EFB09F829375F50FB305BB4040
:10555000C20574084E86C18165BF034A2400144405
:105560000C30528613858480EFB00FF70347090093
:105570008D474A2421466303F70001461307B10112
:105580009306A1016C08EFF00FF16C08138584807D
:10559000EFB0CFFD83C721989379F50FD5C70347A7
:1055A000090063F3EA0A93970901C183B30DFB4035
:1055B000C20D894693DD0D016311D70403C75196CF
:1055C00041C783C6A19615476360D70813066AFFD3
:1055D0004206BE862D474182EE85138584803EC6F5
:1055E000EFB02F8D814513858480EFB07F8985458D
:1055F00013858480EFB06FDFB247834609000D4703
:105600006394E6040347B10113066AFF4206418230
:10561000631157078345A101E9572D478505B385D8
:10562000F502994693850508C205C18113858480DA
:10563000EFB02F88894513858480EFB07F8485453E
:1056400013858480EFB06FDAB3053B41C20574085F
:105650005286C18113858480EFB00FE81385848062
:105660008545EFB0FF81814513858480EFB0EFD78A
:1056700045B32D47BE86EE8555BF230007004DBBC1
:10568000EFA2DFE77C45032A0507832A450703A924
:10569000070083A947003C45232C2505232E35050B
:1056A0009843DC432A8438D17CD15286D6864A85F9
:1056B000CE85EFF0B0546357A000232C4405232E71
:1056C000540529A8032A8406832AC4064A855286DB
:1056D000D686CE85EFF0705DE34105FE6FA05FE5F5
:1056E0005C41638C0716544993074006014763E702
:1056F000D716EFA25FDF38452A8B41110329070037
:105700008329470038494A86CE8608434C43EF0038
:10571000A13003260B0683264B062AC42EC64A85D3
:10572000CE85EF00612F03268B038326CB032A8AC5
:10573000AE8A2245B245EFF0B06203268B05832680
:10574000CB05EFE0707D832B0B00232CAB04232EC5
:10575000BB042A84AE8463940B0203260B038326C6
:105760004B035285D685EFF0B05F2A86AE86228540
:10577000A685EF00612A232CAB04232EBB04032D46
:105780008B05832DCB0583240B0703244B076A85E8
:105790002686A286EE85EFF07046635FA008232C74
:1057A0009B04232E8B04014C814C638C0B0003263D
:1057B0000B0383264B032245B245EFF0705A2A8C27
:1057C000AE8C03260B0483264B045285D685EFF05E
:1057D00030592A86AE8603258B058325CB05EF003D
:1057E000A1236286E686EFE03073AA8A2E8A2A8693
:1057F000AE862685A285EFF0504B634005028324D8
:105800008B060324CB065686D2862685A285EFF02A
:10581000F03E6344A000D68452840327CB0404C323
:1058200040C323202B0723223B0723280B000547D7
:105830003A8541016FA0FFCE032C8B06832CCB064B
:105840006A856286E686EE85EFF03046E35D05F414
:10585000232C8B05232E9B05B9B701473A858280FF
:10586000EFA27FCB1384F5FF8547AA84133414007D
:105870006396F5005C4199E3EFF09FE0C0C06FA034
:10588000DFCBEFA2DFC6B2892A842E89368A36861C
:105890002E85BA86CE85BA8AEFF05036635B05084E
:1058A0005C40232424072326340723284407232A83
:1058B0005407C1C364445285D68503AB040083AB4F
:1058C00044005A86DE86EFF0503E635B050223A05B
:1058D000440123A25401032A8405832AC405032911
:1058E00004078329440752854A86CE86D685EFF081
:1058F000F0306354A002232C2405232E340515A870
:105900005A86DE864A85CE85EFF0502FE355A0FCFF
:1059100023A0240123A234017DBF03298406832907
:10592000C40652854A86CE86D685EFF01038E34409
:1059300005FC6FA05FBFEFA29FBBB2892A842E89AE
:10594000368B2E8501468146CE85BA8B3E8AC28A29
:10595000C684EFF090356344050C014681465A85B4
:10596000DE85EFF09034634C050A0146814652858E
:10597000D685EFF090336344050A04C44848FD140B
:1059800093B41400232064032322740323244403C8
:105990002326540304C0232C2401232E3401EF00BA
:1059A0009112B7C7010003A6877F83A6C77FEFF0D8
:1059B000A0492A86AE862A8CAE8C5A85DE8523289D
:1059C0002403232A3403EFF0B03908DC4CDC2A8BA3
:1059D000AE8B5285D6856286E686EFF0E046584467
:1059E00028C06CC085472A8AAE8A631AF7024A86A5
:1059F000CE8601458145EF00210208D84CD85A8651
:105A0000DE8601458145EF00210108DC4CDC528631
:105A1000D68601458145EF00210028C06CC06FA0EB
:105A20009FB0EFA25FAF5C412A84AE8485CF5C4516
:105A3000638AB7021059545981450145EFF0D07D72
:105A4000105C545C08D84CD801458145EFF0D07CFF
:105A50003040744008DC4CDC01458145EFF0D07BE0
:105A600028C06CC044C46FA05FADEFA23FA9BE893F
:105A7000B7C701003A8903A7077F83A7477F2CC5D3
:105A8000B2557CD99307400670C534C938D95CC972
:105A90002322050023240506232605062A84428A9C
:105AA000C68AEFF01FF88257A25812585687D2863E
:105AB000CA854E862285EFF01FE85848D147998F56
:105AC0001CC86FA0FFA66359B004EFA23FA32A84AD
:105AD0002E85AE84EF0021782A894848AE89EF00F0
