:100000006F10607713000000130000001300000061
:100010001300000013000000130000001300000094
:100020001300000013000000130000001300000084
:08003000130000007300100032
:100038000000000000000000A4110000A81100004A
:1000480000000000BC1600000000000000000000D6
:10005800BE160000C01600000000000000000000EE
:100068002E32000000000000000200000000000026
:10007800C6160000C8160000CA160000CC160000FC
:10008800CE160000D0160000D2160000D4160000CC
:10009800D6160000D8160000DA160000E82F000077
:1000A80034300000E0160000E2160000E4160000FC
:1000B800E6160000E8160000262F0000EC160000E7
:1000C800EE160000F0160000F2160000EC11000019
:1000D800F6160000F8160000FA160000FC160000DC
:1000E8004812000000170000021700000417000063
:1000F80006170000081700000A1700000C17000078
:100108000E17000010170000121700001417000047
:1001180016170000181700001A1700001C17000017
:100128001E170000201700002217000024170000E7
:1001380026170000281700002A1700002C170000B7
:100148002E17000030170000321700003417000087
:1001580036170000381700003A1700003C17000057
:100168003E1700004012000042170000441700002C
:1001780046170000481700004A1700004C170000F7
:100188004E170000501700005217000054170000C7
:1001980056170000581700005A1700005C17000097
:1001A8005E17000060170000621700006417000067
:1001B80066170000681700006A1700006C17000037
:1001C8006E17000070170000721700007417000007
:1001D8000000000000000000000000000000000017
:1001E8000000000000000000000000000000000007
:0801F8000000000000000000FF
:10020000130181F806C216C41AC61EC822CA26CC1B
:100210002ACE2ED032D236D43AD63ED842DA46DC76
:100220004ADECEC0D2C2D6C4DAC6DEC8E2CAE6CC46
:10023000EACEEED0F2D2F6D4FAD6FED8F3220030CF
:1002400096DA83A2019323A02200F32510342EC056
:100250009305000273A0458003A14185EF30107320
:1002600003A3019303210300824273901234D652F8
:10027000739002309240A2423243C2435244E2445D
:10028000724582551256A2563257C2575258E258FA
:1002900072598649164AA64A364BC64B564CE64C0E
:1002A000764D865D165EA65E365FC65F13018107DA
:1002B0007300203013000000130000001300000042
:1002C00013000000130000001300000013000000E2
:1002D00013000000130000001300000013000000D2
:1002E00013000000130000001300000013000000C2
:1002F00013000000130000001300000013000000B2
:1003000083A24185938202E07390023403A101939A
:10031000024182403243C2435244E2447245825514
:100320001256A2563257C2575258E258725986494D
:10033000164AA64A364BC64B564CE64C764D865D61
:10034000165EA65E365FC65FD652A102739002307B
:10035000A2421301810782801300000013000000F5
:100360001300000013000000130000001300000041
:100370001300000013000000130000001300000031
:100380001300000013000000130000001300000021
:100390001300000013000000130000001300000011
:1003A0001300000013000000130000001300000001
:1003B00013000000130000001300000013000000F1
:1003C00013000000130000001300000013000000E1
:1003D00013000000130000001300000013000000D1
:1003E00013000000130000001300000013000000C1
:1003F00013000000130000001300000013000000B1
:10040000F322003093F272FF130380781203B3E2F9
:100410006200711523205500130585FA10C12115BE
:10042000232005009302000063870200711523203A
:100430000500FD12D5BF71150CC1828000000000BF
:1004400000000000000000000000000000000000AC
:10045000000000000000000000000000000000009C
:10046000000000000000000000000000000000008C
:10047000000000000000000000000000000000007C
:10048000000000000000000000000000000000006C
:10049000000000000000000000000000000000005C
:1004A000000000000000000000000000000000004C
:1004B000000000000000000000000000000000003C
:1004C000000000000000000000000000000000002C
:1004D000000000000000000000000000000000001C
:1004E000000000000000397101436EC619A0397187
:1004F00041536AC866CA62CC5ECE19A039710153F5
:100500005AD056D252D44ED64AD826DA22DC06DE4B
:1005100033016140828241114AC026C222C406C60C
:100520008282B24D4101024D924C224CB24B4101AC
:10053000024B924A224AB249410102499244224462
:10054000B240410182803D432A876373C30293779F
:10055000F700BDEFADE5937606FF3D8ABA960CC372
:100560004CC30CC74CC74107E36BD7FE11E2828036
:10057000B306C3408A069702000096966780A600DD
:100580002307B700A306B7002306B700A305B700EB
:100590002305B700A304B7002304B700A303B700E3
:1005A0002303B700A302B7002302B700A301B700DB
:1005B0002301B700A300B7002300B700828093F5A2
:1005C000F50F93968500D58D93960501D58D61B76E
:1005D000939627009702000096968682E78086FA17
:1005E0009680C1171D8F3E96E374C3F8A5B7B70771
:1005F00000202382071805458280B70700200547A1
:100600002382E718B707002023A0A718054582809A
:10061000B7070020938747180387070009CB3707E0
:100620000020032707182380070018C105473A85D3
:100630008280EFF25FEE08218545EF5070017D5713
:100640002386E180DDBDEFF21FED411185450545B3
:1006500002C202C423160100EF10A07783A7818194
:1006600037470F0013070724B3D7E7024C003705BD
:100670000040231501007C8489679387F7703EC290
:10068000EF1030000546854537050040EF10900B10
:10069000854537050040EF10700985453705004056
:1006A000EF10700BB7E700E0056723A2E7104101E8
:1006B00069B5EFF2BFE43704002041111305C418F7
:1006C000EF10302137D500001305C5A2EFB020662A
:1006D0008144130AC418B7D900001949B3079A0016
:1006E0008C23138589A38504EFB06064E39824FF0D
:1006F0002945EFB0C067813FB70500209306C418B5
:10070000138681809385051013854180EF20007941
:100710002A84EF00D03B19E437D500001305C5A3A8
:10072000EFB0C0749567938707E23EC291679387E5
:1007300087A93EC44800A5473EC6EF407043EF007E
:10074000F031B707002023AEA7184101D5B3EFF26F
:10075000FFDA0111C88793F745002E84A9C7937962
:10076000F50F1307C0033387E902B7A7002093876B
:1007700047F6BA97D44798473697D44B9C4F338661
:10078000F6006374C700B307D740B7040020938412
:1007900084198E203ECE13076010AE976379F70858
:1007A0001305F100793593778400A1CB9384C18040
:1007B00098209307F00F6312F70488878545EF5060
:1007C000204E88870566130686B6B305C502B707AF
:1007D000002093878732BE95EF4090759C8737D570
:1007E00000001305459E9CA0EFB040688C2037D5D3
:1007F00000001305C59FEFB080539377040191CBA0
:1008000037D500007D571305C5A02386E180EFB0E2
:10081000E0651374040411C837D500007D57130533
:10082000C5A12386E180EFB06064056111B337296B
:1008300000201309899F7008CA954E85EF40707497
:100840009E2072473E97420741839AA09947E3FC56
:10085000E7F48356490093978600A182D58FC2079B
:10086000C18393865700E3D0E6F49907E31AF7F2C1
:1008700005456133B704002003A5C4197D5785469B
:1008800005468545EF20B02A37060020B725002011
:1008900013068618938505B04E85EF50C0232A892C
:1008A0009384C419EF00B022630809004A85EF0061
:1008B00010221305F100B53B88408945EF20D03C5C
:1008C000DDB5EFF25FC5EF502039937715002A842C
:1008D00099C737D500001305459AEFB02059937793
:1008E000240099C737D500001305859BEFB0005849
:1008F0009377440099CBEF50003A118919C537D549
:1009000000001305059DEFB06056418819CC0145E4
:10091000EF50C035AA8519C10145153D0545EF5079
:10092000E034AA8519C105451D3501B9EFF21FBD97
:1009300037D4000037D90000B7D9000037DA0000FB
:100940000545EF30807E0145EF00006B11C51305B2
:100950008A94EFB0A051EDB7EF00207119C983A7B9
:1009600081841306899693854997C847EFA0504420
:10097000C1BF13058499EFB0803BEF00607175DD56
:10098000C1B7EFF25FB939711304601F11C12A8436
:100990001306C003814548007D3622D68D47138457
:1009A000D1804C001385D1803ED0EF40B0368144D9
:1009B00009ED0820EF5000342A89EF005011630937
:1009C000090008208945EF50A04826852161B5B669
:1009D00037D50000130545A5EFB060350C2037D59D
:1009E00000001305C59FEFB080348544F9BFEFF2D6
:1009F0009FB21385D180353989B6B72700209387F8
:100A0000879F1CC1B7070020938787199A23054544
:100A1000239007009AA18280EFF2FFAFB727002052
:100A20002E862E84AA85138507B0938407B0EFA085
:100A3000903AB707002023A4871837040020130436
:100A4000C4190840B7070020854523AA9718EF204E
:100A5000B02308407D57854605468945EF20300D77
:100A60000545E1BCEFF23FAB293F19E10D45F1B47B
:100A70000145F5BF8280EFF21FAA953F7DBCEFF2E2
:100A80009FA901112A84AE8468089305A10132C68A
:100A9000AD370DC9724715453C333423A207D58FB6
:100AA00093968700A183D58FC207C18391EBBC8544
:100AB00032461D0798C0E5171EA2FD571CA0014530
:100AC0000561A5BC1545EDBFEFF2FFA49307160025
:100AD00013D787401D06238FF5FE2E85A38EE5FED6
:100AE00093150601C1816515053F954711C18147E1
:100AF0003E85A1B4962115476397E6085821303109
:100B00009306E07C2207518F131687002183598EAC
:100B1000420641821307F6FF42074183AA870D452B
:100B200063E5E606EFF23F9FB82394332390050078
:100B30002207558F854694A396219354360093F44B
:100B4000F40F850696A19376760081C6850493F40A
:100B5000F40F84B396212E8413852700850696A171
:100B60009315870021834D8F93051700C205814699
:100B7000C181EF00500119C1B521C1B21E2001454C
:100B8000BE9406A0DDBF0D45828082809A219547E4
:100B90006311F70658218D4731EF38311306D00F16
:100BA0009306F7FF93F6F60F6376D604EFF2BF963F
:100BB0003C210C314111A207CD8F93958700A18371
:100BC000CD8F93851700130717F0C2051337170051
:100BD00085460546C1816800A30601005886EF00DE
:100BE000807A814719C1FD2EAA873E8541016FF0A9
:100BF000DF948D473E85828096211547637FD70617
:100C000058213031AA872207518F1316870021837C
:100C1000598E420641821357360093767600137739
:100C2000F70F81C605071377F70F9306F6FFC20685
:100C3000C1821308F07A0D456363D804D4336390FE
:100C4000E604EFF25F8DB8232E848C3322071385E0
:100C500067004D8F931687002183558F05079315E5
:100C600007018546C181EF00007201C5A52E6FF016
:100C7000DF8C95471EA00145DDBF0D458280828037
:100C8000962115476396E608582130319306E07C9B
:100C90002207518F131687002183598E4206418205
:100CA0001307F6FF42074183AA870D4563E4E60672
:100CB000EFF27F86B8239433239005002207558FE7
:100CC000894694A396219354360093F4F40F850635
:100CD00096A19376760081C6850493F4F40F84B3CD
:100CE00096212E8413852700850696A193158700EB
:100CF00021834D8F93051700C205C181792501C558
:100D0000D5246FF09F831E200145BE9406A0D5BF59
:100D10000D45828082809A219547631BF702EFF28E
:100D20008FFF3C210C318546A207CD8F939587001C
:100D3000A183CD8F93851700C2050546C1810D059E
:100D4000F123814719C1792CAA873E856FF0EFFE08
:100D50008D473E858280EFF20FFC9A21954463F621
:100D6000E40658213031930670072207518F13167D
:100D700087002183518F1316070141821307F6FF65
:100D800042074183AA870D4563ECE602D43313176B
:100D900016001377F70F6395E602B8232E848C3381
:100DA0002207138567004D8F931687002183558F87
:100DB0000507931507018546C181892B01C51D24AF
:100DC0006FF0AFF706A00145E5BF0D45D5BF9621F1
:100DD00015476399E606EFF20FF454211306C00796
:100DE000AA8793940601C1801387F4FF42074183C9
:100DF0000D456361E6042E84B8238C332310040070
:100E000088A3122086062207050612A04D8F94B3F0
:100E100093158700162021834D8F930517008506B3
:100E2000C20516A026868146C18113852700F929AF
:100E300001C54D2A6FF06FF01E2086040145BE9457
:100E400006A0CDBF0D4582809A21A54763F0E70E2D
:100E5000EFF2CFEA5C2138312A84A207D98F939927
:100E60008700A183B3E7F9009399070193D909019A
:100E70009387F9FFC207C1831307C0070D45636558
:100E8000F70A1C24703013078007A207D18F13962E
:100E90008700A183D18F1396070141829307F6FF44
:100EA000C207C1836362F708183493171600639D65
:100EB000E70624202E890C30A2047C20CD8C4C30F7
:100EC000A2078546CD8F93958700A183CD8F93850B
:100ED0001700C205C1811305A4000D2931E92310B3
:100EE0000900DD471CA083570900139A1900939548
:100EF000840085072310F900A300440183570900EB
:100F0000A180CD8C938514008507C2052310F900BC
:100F100081464E86C18113052400CD2E11E98357E9
:100F200009003E9A231049016FF08FE0014582804D
:100F30005528DDBF96211547639FE60658213031BD
:100F40009306B0072207518F131687002183518F14
:100F50001316070141821307F6FF42074183AA8750
:100F60000D4563ECE604EFF20FDB2E843E858C33F7
:100F70001147BC232310040018A11A20A2079314C0
:100F8000160005071AA004B1CD8F939587001A208B
:100F9000A183CD8F938517000507C2051AA0C181D3
:100FA0000905992601C53D286FF02FD91E2001455E
:100FB000BE9406A0D5BF0D4582808280EFF2AFD5EA
:100FC000B707002003D4071AAE84B7250020228675
:100FD000938585C00505EFA00060050482A001454A
:100FE0006FF0AFD59D4763E7A7009387C184AA97A9
:100FF0008823828011458280EFF2EFD1EFF09FA627
:101000002A8419C5054723A8E18022856FF0EFD215
:10101000EFF0EFDD29C9B7170000370700209387ED
:1010200047A7232AF71AB71700003707002093872E
:1010300067A7232CF71AB7170000370700209387FC
:10104000E7A72324F71AB717000037070020938774
:1010500087AC2326F71AB707002023A8071A7D5765
:10106000238AE18045B70D444DB7EFF2CFCA138410
:101070000181184085471945631AF700B70700201A
:1010800083A7471B82970145232004006FF0EFCA16
:10109000EFF26FC883A7018141111944639B070ECA
:1010A0006800EFF0EFD60547AA876304E500014426
:1010B000CDA032476301A70A8946E31AD7FE370459
:1010C00000200325041CB7060020B70400200C21D3
:1010D0003707002023A2F41A13060700238EB61A3E
:1010E00081471304041C1389C61B9384441A1307F5
:1010F00007004148142281CE6391D50A8E07BA9722
:10110000DC43B70500209385651C829788C0B7072C
:10111000002083C7471CC1DF9440B7070020938796
:10112000671C85C203470900104085458EA31367DD
:1011300007F818A292231840930516008EA3329741
:1011400014A39223370700200327C71A0C4003C5B6
:1011500041810297A9BFB707002083A7871A3705E7
:10116000002037060020B70500209304451C130615
:10117000661C9385051C1305451C82972A8405F976
:101180009C2003C741816303F70095F30945EFF005
:10119000CFC6228541016FF04FBA85072106E39B38
:1011A00007F5B5B77300203037D500001305C5A685
:1011B000EFA0D04BEF30B00FAA8537D50000130554
:1011C00005A8EFA0D036EF30F00EAA8537D5000085
:1011D000130505A9EFA0B035EF30300EAA8537D53D
:1011E0000000130505AAEFA0903401A0397106DEB6
:1011F00016DC1ADA1ED82AD62ED432D236D03ACEFF
:101200003ECC42CA46C872C676C47AC27EC0EF10CF
:10121000405313050008EF007013F250E25252538E
:10122000C2533255A255125682567247E24752486F
:10123000C248324EA24E124F824F216173002030BD
:10124000EF109033730020302945EF00906A8545F8
:1012500037050040EF003050730020303705002084
:101260001305851C8280EFF20FAB411185451145B6
:101270003714014002C202C402C6EF00B0338D47EA
:1012800041498D444C00130504807C824AC626C423
:10129000EF00700C85452145EF00D03189674C0087
:1012A000130504C07C824AC626C4EF00D00A8545D7
:1012B0004145EF00303085474C00130504C07C8267
:1012C0004AC626C4EF00300941016FF00FA701CDD7
:1012D000EFF26FA4AA8537D50000130505ABEFA088
:1012E00010256FF08FA5828089C5B295AD4763DC6C
:1012F000B700054582807D162300050042060905DA
:10130000A30F05FE418265FA01458280AA87B5C90F
:101310003387C5002D4805456346E80685CE054759
:1013200001456391E606372700208605130787C22B
:10133000BA95890505CA983394237D162207558FDF
:10134000931687002183558F42068907239EE5FE69
:101350004182C5B7372700208605130787C2BA9593
:10136000890519E20145828003D7C5FF7D168907EB
:1013700093568700238FD7FE4206A38FE7FE418254
:10138000C5B7054582800545828005458280EFF21C
:101390008F980945EF0030082D2AEF30005C716509
:1013A00013050520EF30806483A5818137D50000C7
:1013B000130505ACEFA0B0177D3537D40000EFF072
:1013C0004FAFF124452C1D24EF20901F130504ADD1
:1013D000EFA0D029E5BFB71702409843B706FFF842
:1013E00041111367170098C3D84337060200758F61
:1013F000D8C39843B706F7FEFD16758F98C3984378
:10140000B706FCFFFD16758F98C3D843B70681FF5A
:10141000FD16758FD8C39843B70600ECFD16758F7F
:1014200098C33707FF0098C723A6070202C402C665
:101430009843C166558F98C3B716024005679C4212
:10144000F18F3EC6A24785073EC4B24781E7A24757
:10145000E397E7FEB71702409C431397E7006358F2
:10146000070685473EC6324785476310F706B7171C
:101470000240D8438966D8C3D843558FD8C3D843D0
:10148000B706C1FFFD1613670740D8C3D843758F51
:10149000D8C3D843C166558FD8C39843B706000157
:1014A000558F98C3984393166700E3DD06FED84333
:1014B000B7160240719BD8C3D84313672700D8C31F
:1014C0002147DC42B18BE39EE7FE4101828002C6E8
:1014D00059BF371602405C429146B18B1387818118
:1014E0006385D700A1466388D702B7177A00938730
:1014F00007201CC3B7170240DC43918393F6F70023
:10150000B707002093870708B69794231C43B3D7E7
:10151000D7001CC3828054425042C167C982BD8A31
:101520007D8E9387260085CABD466389D702C14652
:101530006389D702C54581466393B700C1470DE66D
:101540003746024003260680418A15C637167A00C0
:10155000130606202DA08146C947D5B78546B54755
:10156000F9BF8146BD47E1BF37160240504293158F
:10157000E600E3DD05FC37163D0013060690B38751
:10158000C7021CC3A5DA1C438583A5B7EFE2BFF8E9
:1015900013054006EF207039E5BFEFE2DFF7EF10EB
:1015A000E05BEF40806719C1EFF0AFB10545EF2078
:1015B000D037F5B7B7370020938787751CC1B73789
:1015C0000020938787F59CC1930700101CC282807E
:1015D000B7470020938707811CC1B7370020938746
:1015E00087359CC1930700101CC28280EFE2BFF2D6
:1015F00037D4000037280020B72700203715000017
:10160000930584AE1308C8439387C7C3154785461F
:10161000130600201305C592EF20207037380020F4
:10162000B727002037150000930584AE130808C9BA
:101630009387074915478546130600201305A559CA
:10164000EF20A06D37380020B7370020B7D5000055
:1016500037150000130848EE938747CE1547854697
:1016600013060008938505AF1305C558EF20E06AFF
:101670006FE0BFECEFE23FEAD5362A843735002031
:101680001305C57AEF10B04308C06FE01FEBEFE21F
:101690009FE8EF10F008B7360020373600202A8484
:1016A00001479386867C130686F389454145EF20E2
:1016B000A00808C06FE07FE801A001A001A001A080
:1016C00001A001A001A001A001A001A001A001A012
:1016D00001A001A001A001A001A001A001A001A002
:1016E00001A001A001A001A001A001A001A001A0F2
:1016F00001A001A001A001A001A001A001A001A0E2
:1017000001A001A001A001A001A001A001A001A0D1
:1017100001A001A001A001A001A001A001A001A0C1
:1017200001A001A001A001A001A001A001A001A0B1
:1017300001A001A001A001A001A001A001A001A0A1
:1017400001A001A001A001A001A001A001A001A091
:1017500001A001A001A001A001A001A001A001A081
:1017600001A001A001A001A001A001A001A001A071
:1017700001A001A001A097F1FF1F9381A11817F10B
:1017800000201301218817B500001305A55997F50E
:10179000FF1F938525871386018863FAC50083227E
:1017A000050023A0550011059105E3EAC5FE17F5D4
:1017B000FF1F1305259D97950020938525C463770A
:1017C000B500232005001105E36DB5FEFD427390C1
:1017D00002BCFD4273904280B78200009382028077
:1017E00073A0023097F2FFFF9382428593E23200AA
:1017F00073905230EFF03FBE97020000938262B9BF
:1018000073901234730020305841144193D78500EF
:10181000F58F99C713F5F50F798D3335A0008280C8
:1018200001458280A18193C5F5FF0CC18280B7F785
:10183000FF1F03A5477082809317350063DA070006
:10184000B707024083A707407D8D3335A000828013
:101850009317250063D70700B707024083A7074DFA
:10186000E5B7B70702409C43C5B79317350063D768
:101870000700B707024023A2A740828093172500E4
:1018800063D70700B707024023AAA74C8280B70797
:101890000240C8C38280EFE21FC8793F6FE0FFC9F2
:1018A000EFE27FC7D9376FE05FC9EFE2DFC685455A
:1018B00011654D2B8145116575236FE01FC8930796
:1018C00000043CC1930700027CC1930700087CD14F
:1018D00023200500B7070004232205002324050068
:1018E0002326050023280500232A0500232C0500B4
:1018F000232E0500232005022322050223240502AE
:101900002326050223280502232A0502232C05028B
:10191000232E050223240504232605042328050479
:10192000232A0504232C0504232E05042320050661
:10193000232405062326050623280506232A050653
:10194000232C0506232E05062320F508B7070002E1
:101950002322F5082322F50AB707020037072000E3
:101960002326F50A93070010232405082326E508FB
:1019700023280508232A0508232C0508232E0508FB
:101980002320050A2324050A2328F50A232A050A09
:10199000232C050A8280411102C6B78602409C4A68
:1019A00041672E057D17F18B798D9A055D8D93F535
:1019B000057CC98D93E51500B70750008CCAF9174F
:1019C000324705073AC6984A058B01C73247E3F903
:1019D000E7FE3247B7075000FD1701456307F700E0
:1019E000B7870240C84B42054181410182804111C5
:1019F000B787024002C6984BC166FD162E05758D4D
:101A0000718B9A05598D93F5057CC98DD0CB93E5E3
:101A100035008CCBB7070500B7860240F91732476F
:101A200005073AC6984A058B01C73247E3F9E7FE36
:101A30003245B7070500FD173335F50041018280B7
:101A4000B707002023A8A71C2A878147B7081040A2
:101A500013030060130EF6FF6396C700B7970240AA
:101A600088CB8280B3866702232017012A88AE962E
:101A700014C79306070163F3C701368823260701BD
:101A800085073687D1BFB7070020916623A6A71C1C
:101A90000147AA873703008093860660130E006013
:101AA000930EF6FF6316C700B7970240C8C782803F
:101AB0003308C70323A06700D4C3AA882E9823A4A1
:101AC0000701138807016373D701C28823A6170192
:101AD0000507C287C1BF379702401C4393E7170031
:101AE0001CC38280B7970240C8CB828037970240E0
:101AF0001C4FB7061000D58F1CCF8280EFE2BFA12C
:101B0000378402401C4093E787001CC0C5371C4047
:101B1000896693E747001CC0B7970240984F558FDE
:101B200098CF984F1367270098CF6FE01FA199C5F2
:101B3000379702405C4F5D8D48CF8280B797024057
:101B4000D84F1345F5FF798DC8CF8280B707014084
:101B500023AAA74082809C4513F7070113F8F700DA
:101B600001C7D8413368E8008E2113F7F50F39C358
:101B700018418146854E3D4F930F800293028004A9
:101B8000214E3396DE00B3F8C50063111603939817
:101B9000260033131F011343F3FF3377E300B31819
:101BA000180133E7E800639FF70550C98506E39AFB
:101BB000C6FD18C11307F00F6375B70454412146E1
:101BC000854E3D4F930F800293028004414EB3989F
:101BD000CE0033F715016392E802131726000117B0
:101BE0003313EF001343F3FFB376D3003317E8004A
:101BF000D98E639DF701232A15010506E319C6FD59
:101C000054C18280E39457FA10C94DB7E39757FE49
:101C100023281501DDB7B707002023AAA71C82805F
:101C2000371702405C439146B18B6385D700A146CC
:101C30006382D706B7177A00938707201CC137162F
:101C400002405C4237070020130707099183BD8BD0
:101C5000BA9794231C41B3D7D7005CC15442A182E8
:101C60009D8ABA969422B3D6D70014C55442AD8249
:101C70009D8A36971823B3D7E7005CC5584239834D
:101C8000937637001387C18136971823B3D7E702BD
:101C90001CC982805C435843C166C983758FB7F6FF
:101CA000FF1F83A6C670BD8B890713961601634874
:101CB0000600C54601466392D702C94739A889463E
:101CC000638FD702BD46638ED702C146638ED702AB
:101CD000C54601466393D700C1471DEF3747024011
:101CE00003270780418B05C737177A0013070720A2
:101CF000B307F7021CC121D61C41858381B7014679
:101D00006DBF0546B547D1BF0146BD47F9B7371787
:101D10003D0013070790E9BFB7150240D855931649
:101D2000F700D85563DF060411833D8B9306170037
:101D300037177A00130707203357D70218C1D45535
:101D4000A182BD8A8DE295463307D702058318C16B
:101D500037170240585714413D8B050733D7E60229
:101D600018C1184171B785456394B600E546E9BFCF
:101D7000BD456396B600D1463387E602C9BF8906E2
:101D8000E5BF3D8B9306170037177A00130707202E
:101D90003357D702F1B799C5371702405C4B5D8DB9
:101DA00048CB8280B7170240D84B1345F5FF798D99
:101DB000C8CB828099C5371702401C4F5D8D08CF74
:101DC0008280B7170240984F1345F5FF798D88CF71
:101DD000828099C5371702405C4F5D8D48CF828065
:101DE000B7170240D84F1345F5FF798DC8CF8280D1
:101DF0009357550005476399E700B71702409C4386
:101E000033D5A7000589828009476396E700B71795
:101E100002409C53F5B7B7170240DC53D5B73717CC
:101E200002405C5793F7F7F05D8D48D78280B71674
:101E30000240DC5645777D17F98F5D8DC8D68280CC
:101E400009C9371702401C43B7060010D58F1CC3C1
:101E50008280B71602409C42370700F07D17F98F49
:101E60009CC2828099C5371702401C575D8D08D7E8
:101E70008280B717024098571345F5FF798D88D7B0
:101E800082801E2137370140930607C0C207C183F5
:101E90006300D504B7060040630CD5029386064064
:101EA0006308D502B7160040138606806302C50298
:101EB000938606C0630ED50013070740630AE5004A
:101EC00037570140930607C06304D5006316E50049
:101ED000BA2193F7F7F8D98F37170040630CE50064
:101EE000130707406308E50093F7F7CFFA21C2070D
:101EF000C183D98F1EA1DE215EB59E211EB5B737E5
:101F00000140138707C0630EE50093870740630A0B
:101F1000F500B7570140138707C06304E500631459
:101F2000F5009C251EB985475EA982801E2189C5C2
:101F300093E717001EA18280C207C183F99BC207E5
:101F4000C183CDBF5E2501C6DD8D4EA5828093C5C0
:101F5000F5FFFD8DDDBF93C5F5FFC205C1810EA95B
:101F60008280EFE24FDB1629F577FD17F58FF6211A
:101F7000DA257971D58F1EA95625FD779387379F6E
:101F8000F58FD6212A842EC6D58F9625D58FB625D6
:101F9000D58F5EA55E29C207C18393F7F7CFD98F8E
:101FA0005EA96808B539B747014093870780B245F5
:101FB000631AF404A25756246547B387E702C206A2
:101FC000C186984163D20604060752244206B3D75D
:101FD000E702130740064186B3D6E702B3F7E702EC
:101FE0009206635506028E0793872703B3D7E7024D
:101FF00013F77700B367D700C207C1831EA44561FA
:102000006FE0AFD3925745BF0A07C1B792079387D6
:102010002703B3D7E702BD8BD58FF9BF91C55E25E6
:102020000967D98F5EA582805A25F977FD17F98F48
:10203000D5BF93F5F51F4EA182800A216D8D3335F2
:10204000A0008280B706002083A7061D9843634B3B
:1020500007029843370600304E05518F98C39843C6
:10206000370600804D81518F98C3C8C38CC73797FE
:102070000240114650CB23220700DC47054523A828
:10208000F61C828001458280EFE2EFC885658547B6
:10209000938505806318F50037150140EF00507EE9
:1020A0006FE0AFC937150140EF00D07DD5BFEFE23B
:1020B0008FC68547930500406318F500371501402A
:1020C000EF00107C6FE06FC737150140EF00907B89
:1020D000D5BF37F7FF1F81471307D77E99463306D1
:1020E000F7400C223306F50085070CA2E399D7FED2
:1020F0008280B70700209387471E98433A9588C38C
:102100008280B707002003A7471EB707002023A03F
:10211000E71EB787024003A7471C41E303A74719FF
:10212000894763FCE706EFE20FBF37040020035541
:10213000441FF9451304441FEFF0FF859357250012
:10214000858BB9C74D99131605010A204182F945BF
:10215000EFF0FF89378702408327071093E71700C6
:102160002320F71083270710858BEDFFB7870240E8
:1021700003A7471C01CF370700202304071ED843BD
:10218000B706008093C6E6FF758FD8C36FE0EFBA3D
:1021900013654500420541817DB7B787024003A71B
:1021A000471C09CF370700202304071ED843B70672
:1021B000008093C6E6FF758FD8C382808280EFE2ED
:1021C000EFB3370400209304441F8A20954513047D
:1021D000441FEFF04FFC2A898A208545EFF0AFFBC2
:1021E0009377F901370900201309291F6380071627
:1021F00083470900C1E70A20854737070020F945D2
:102200002300F900A308F71EEFF0EFF81376C5FFDF
:102210004206937715004182B9CF136626000A2043
:10222000F945EFF0CFFC0A208145EFF0CFF61376A9
:10223000E5FF42060A204182136606208145EFF041
:102240000FFB0A208145EFF00FF5136635200A20B9
:10225000420641828145EFF08FF9B707002083A73E
:10226000C71E13074006B3F7E702938727032380AF
:10227000F1826FE0EFAB1366160055B7054763991F
:10228000E70089472300F900B7070020A388071E4D
:102290009387219003870700634607069384118282
:1022A00094202147639AE6040A20F945EFF0AFEE47
:1022B0001376350F0A20F94590A0EFF04FF32380F5
:1022C00004000A208145EFF00FED1376E5FF42068A
:1022D0000A204182136606208145EFF04FF10A2063
:1022E0008145EFF04FEB136635200A20420641820C
:1022F0008145EFF0CFEF21A0130700F898A32380CA
:10230000019085BF9387919098239306170094A31B
:102310009546E316D7FE1375050275F19384118275
:10232000238007009C2011490A20F945E38027F902
:10233000EFF06FE61376350F0A2013664600F94575
:1023400090A0EFF0CFEA23802401A5BF0347090046
:1023500085476314F708370700201307171F1C234E
:10236000A1468A20850793F7F70F1CA3639BD7002C
:1023700023000700230009002146F945EFF02FE76D
:10238000CDBDF945EFF02FE11376C5FF42069377F7
:1023900015004182A1C3136626000A20F945EFF01B
:1023A0000FE50A208145EFF00FDF1376E5FF4206C7
:1023B0000A204182136606208145EFF04FE30A2090
:1023C0008145EFF04FDD136635204206418281459D
:1023D0000A206DB713661600C9B713840190834AAB
:1023E0000400138A219083460A0093871A0013077A
:1023F000000893F7F70F6394E6063D476384EA000D
:102400001CA085BD8A20230004002300090013843A
:10241000118221492146F945A384019023000A0035
:1024200023002401EFF0AFDC230024018A20814542
:10243000EFF06FD61376E5FF42068A2041821366DD
:1024400006208145EFF0AFDA8A208145EFF0AFD466
:10245000136635204206418281458A2005B793895B
:10246000118203C709001DE71147E39BEAF88A20A0
:10247000F94523000400EFF00FD21376350F8A20C0
:1024800013664600F9452380C900EFF04FD623803C
:10249000590169BF91466318D7023D47E392EAF6B6
:1024A0008A202300040021442146F945A384019099
:1024B0002300090023000A0023808900EFF02FD3B6
:1024C00023808900A5B71CA093074006E393FADA9E
:1024D0008A2021668145EFF08FD123840190A38467
:1024E0000190B70700202384071EA14723000400A2
:1024F0002300090023000A002380F9002146F94542
:10250000A9BFEFE24F819387119098231377F70FBC
:102510002DCB370700200327471E83A64190158F38
:102520009306301F63FDE60437470240238007000F
:1025300083270780370400201304441F0A2093E7F1
:1025400047002320F78021668145EFF04FCA23849E
:102550000190A384019023800190B7070020238974
:10256000071E0A20B70700202384071E238101903D
:1025700021472146F945A380E182EFF04FC76FD094
:10258000DFFB13898190834709003704002013047F
:10259000041FC5E3B707002083C6271F054713891B
:1025A000271F93840182636DD700B707002003D5EE
:1025B000471F9545EFF02FBE7D8919C12380040088
:1025C000370700209307471E90439386419094421B
:1025D0008C20158E9306471E138741906363B604C3
:1025E0000346090085476313F604370600201306E7
:1025F000C61E1C42B745030093851540B387B7023A
:10260000B7A52600938595ECAE971CC2130640062D
:10261000B3F7C702938727039CA09C421CC3EFF02B
:102620001FBA1C20A9DF2300040091BF93072003D9
:10263000E5B71C20B70400209384841EB5C7B707F4
:10264000002083A7471E03A74190998F1307900F7F
:10265000637CF70423000400370400201304441FA4
:102660000A208545EFF02FB39377450095EFEF20D3
:1026700020620A2021668145EFF06FB7A3840190A4
:10268000238001900A20B70700202389071E238199
:10269000019021472146F9452300090023800400C9
:1026A000A380E182EFF0AFB49C20E38A07ECB70788
:1026B0000020370700200327071E83A7471E998F96
:1026C00013073006E37DF7EAEFF0BFA34DBDEFD26D
:1026D0009FE441118545414502C202C402C6EFF0A4
:1026E0006FED8D477C82C1473EC64C008D47371544
:1026F00001403EC4EFF02FC68565938505803715F0
:102700000140EF00F0179305004037150140EF003E
:10271000301741016FD07FE2EFD2FFDF0145EFF0CC
:102720002FF24145EFF0AFEF3565EFF04FF0054583
:10273000EFF00FF11305D003EFF08FEB65DD6FD0F5
:10274000DFDFEFD25FDD370900201304491F0A20C5
:1027500095451309491FEFF00FA4AA840A20854567
:10276000EFF06FA3937745002A8485C79DE0374734
:10277000024083270780ED9B2320F7800547A38035
:10278000E190B707002003A7471E23A2E1906FD076
:10279000DFDA2285EF20C04F137444029307400212
:1027A0006312F40A03550900C145EFF0CF9E118969
:1027B000B786024019E5FD888547B7860240638DDC
:1027C000F4069C42056713070780D98F9CC2B78720
:1027D00002409843D176FD16758F98C391462384A5
:1027E000D190D843B70600808506558FD8C303A77C
:1027F00007101367170023A0E710378702408327CD
:102800000710858BEDFFB707002005472384E71EDF
:10281000B707002003A7471EB707002023A0E71E25
:10282000EFF0CFADB78702409C4337070020AD8360
:10283000858B230EF71CA1BF9C427D771307F77F82
:10284000F98F69B73747024083270780ED9B232024
:10285000F7800547A380E190B707002003A7471E34
:1028600023A2E190C1B7EFD27FC931713796024000
:10287000B7067000370760005C4AF58FE39EE7FEFD
:1028800083C781909384819085CB370400200355C2
:10289000441FF9451304441FEFF0EF8F1376C5FF73
:1028A0004206937715004182638807241366260049
:1028B0000A20F945EFF0AF930964EFF0CFA11304BC
:1028C0000471379902407D14420429454180EF206C
:1028D000200B09C483270900858BF5F74800EFE03A
:1028E0001FFE85473EC2930700203ED6B707000271
:1028F0003EC58566930700083ECD37072000138943
:10290000068093070004378402403AC94AD202CCB9
:1029100002D002D802DE82C482C882CA82CC02C33C
:102920003ECF02D31C48938616A0378501808D9B2D
:102930001CC8B245A24710401305150CCD8FB785B2
:1029400020FF9385F5106D8ED18F4246B7950240DA
:10295000D18F5246D18F7246D18F2256D18F525687
:10296000D18F6256D18FD58F1CC01C40B706100086
:10297000D58F1CC086479646D58FB646D58F5CC08E
:10298000F6471CC486575CC43656A657144CD18FE4
:102990004656D18F5656D18F6656D18F4166130653
:1029A00016F4F18ED58F9656C206D58F1CCC8A466A
:1029B000F657D58F5CCC5A46BA47944DD18F3746DF
:1029C000DEF8130636F2F18ED58F8A5637060020D0
:1029D000D58FB70620029386060CD58F9CCD930623
:1029E000C618DC32CC22A207CD8F3CC08346D61855
:1029F0008347C6188545A206DD8E8347E618C207C1
:102A0000DD8E8347F618E207D58F7CC0B70702003A
:102A10002328E410938707022326F410EFF02F9168
:102A200037450020B76500209309458D09469385F9
:102A3000452F1305458DEFF0AF8037450020B74592
:102A40000020130A45861D469385458F130545864C
:102A5000EFF06F83B707002023AC471FB7070020B4
:102A600023AE371F1C407D771307F77FF98F1CC0FB
:102A7000B707002083C7C71D91C71C4033E9270152
:102A800023202401B78602409C4251777D17F98F9D
:102A90009CC2EFF0AF869C20370400201304441F33
:102AA000B9EF0A2021668145EFE07FF4A38401900D
:102AB00023800190B70700202389071E0A20B7074B
:102AC00000202384071E2381019021472146F945D8
:102AD00023800400A380E182EFE07FF1B7070020AC
:102AE00005472388E71EB707002003A7471E23A238
:102AF000E19029616FD0DFA31366160055BB0A2051
:102B0000F945EFE05FE91376C5FF420693771500BC
:102B1000418291CB136626000A20F945EFE03FED94
:102B20009C20CDFFBDBF13661600FDB7B707002080
:102B300083A7871D1307000293F7070F639FE70022
:102B4000B79702409C533707FE1FF98F99C7EFD202
:102B50009F9CEFF05FD16FD05F9E8280EFD2BF9BD2
:102B6000EF20C011EF10D075EFF0BF99C1376FD0D3
:102B7000DF9CEFD25F9A378702401C4B2E84814541
:102B80008D9B1CCB50411C411443D18F378620FFB5
:102B90001306F610F18ED58F1445D58F5445D58F79
:102BA0001449D58F5449D58F144DD58F544DD58F99
:102BB0001451D58F5451D58F1455D58F5455D58F69
:102BC0001459D58F5459D58F1CC31C43B706100018
:102BD000D58F1CC3545D1C5DD58F3441D58F744196
:102BE000D58F3445D58F7445D58F3449D58F7449E9
:102BF000D58F5CC33C4D1CC77C4D5CC730557C51A8
:102C0000144FD18F4166130616F4F18ED58F74558B
:102C100037960240D58F3459D58F7459D58F34519A
:102C2000C206D58F1CCF745D3C5DD58F5CCF8326EB
:102C3000450883270508184ED58FB746DEF89386DA
:102C400036F2758FD98F03278508D98F0327C508DA
:102C5000D98F03270509D98F03274509D98F032762
:102C60008509D98F0327C509D98F0327050A22852E
:102C7000D98F1CCE2166EFE09FD72146F9452285EA
:102C8000EFE0FFD605456FD05F8BEFD23F87317104
:102C90008545AA847165EFF00F90854737090020BC
:102CA000231AF91EEFF05FA73747024083270780FA
:102CB00009641304047193E747002320F780EFE0D1
:102CC000DFBE1309491FEFE01FE1B79902407D14F1
:102CD000420429454180EF10B04A09C483A7090086
:102CE000858BF5F74800EFE09FBD856793870780E8
:102CF0003ED285473EC2930700203ED68355090049
:102D0000B70700023EC593070008370420003ECDF8
:102D100048009307000422C93ECF02CC02D002D85B
:102D200002DE82C882C482CA82CC02C302D3913539
:102D3000DC30D820B7860240A207D98FBCC29830B9
:102D40009C203785018022075D8FBC2085451305B7
:102D5000150CC2075D8FBC30E207D98FFCC2B707E4
:102D6000020023A886109387070223A6F610EFE03F
:102D70001FDC29616FD0CFFBEFD2EFF9B79702408C
:102D8000C04B13170401635C0702137704080DC7D7
:102D9000370700200327871DC1461377070F6319E4
:102DA000D700F847B7060080584714C323A407008C
:102DB00013050008EFE01FD32165EFE0BFD29317A2
:102DC000F40063DA07029377040489C7130500044B
:102DD000EFE05FD19377140081C70545EFE09FD006
:102DE00063580400EFF0FF9537050080EFE09FCFB8
:102DF0004165EFE03FCF6FD04FF4EFD2CFF12A849F
:102E000013054006EF10303BEFE07FA2B70700202C
:102E100023ACA71CEFF0BF8B3C3058202285B98F24
:102E20005830B98F3747030013071740B387E702BD
:102E300037A72600130797ECBA97370700202326F9
:102E4000F71EEFF09FE437450020B765002013041C
:102E5000458D09469385452F1305458DEFE05FBEEF
:102E600037450020B7450020930445861D469385CD
:102E7000458F13054586EFE01FC1B707002023AC3F
:102E8000971EB707002023AE871E0967B7E700E04B
:102E900023A4E710A38607446FD02FEAEFD2AFE751
:102EA0003971930700603ECA9307405B3ECC85674B
:102EB000938747273ECE930720033ED093073010D9
:102EC0003ED2B727554089073ED4B72700009387E5
:102ED000E70A3ED6B7270000938787083ED8B72772
:102EE0000000938747043EDAB75734129387876709
:102EF0002A8948082EC632C4B68402DC3EDEEF20A2
:102F000080482A8411E92246B245A6864A85EF20E8
:102F1000603B2A842685D535228521616FD0EFE17B
:102F20001385C19082805D712ADC373501402EDA2D
:102F3000130505809305002286C696C49AC29EC0DA
:102F400022DE32D836D63AD43ED242D046CE72CCE9
:102F500076CA7AC87EC6EFE03F8B01C583A7419150
:102F60008297372401409305001413050440EFE0D5
:102F7000BF8911C99305001413050440EFE09F8A2F
:102F800083A7419182977254B640A6421643864366
:102F90006255D2554256B256225792570258F248BD
:102FA000624ED24E424FB24F616173002030EFD279
:102FB0008FD6131425000945411133158500EFE024
:102FC0009F8D8547631FF500B7A700209387C7FD36
:102FD000A2979C432AC68297324533158500EFE0BD
:102FE0003F8C41016FD06FD539712AD6014506DE7D
:102FF00016DC1ADA1ED82ED432D236D03ACE3ECCD7
:1030000042CA46C872C676C47AC27EC04D37F250F4
:10301000E2525253C2533255A2551256825672474B
:10302000E2475248C248324EA24E124F824F2161AF
:103030007300203039712AD6054506DE16DC1ADA0F
:103040001ED82ED432D236D03ACE3ECC42CA46C852
:1030500072C676C47AC27EC0993FF250E252525391
:10306000C2533255A255125682567247E247524811
:10307000C248324EA24E124F824F2161730020305F
:103080000CC982804CC98280938781929843636D7A
:10309000A702D043B386C7006316D50054413E85CE
:1030A000B296D4C35041B306C500631AD70083A6B5
:1030B00081916306D70054431843B29654C118C196
:1030C0006303F50088C38280BA87C9B741CDEFD2C8
:1030D0008FC4032745FF83A7C1912A84B376F700E5
:1030E0009DE2A167938707807390073037D6000071
:1030F00037D50000130686B193054012130505B4B9
:10310000EF80F04201A0832605FF9DC2A16793874F
:1031100007807390073037D6000037D500001306BC
:1031200086B193055012130505B4EF80504001A0FD
:1031300093C7F7FFF98F232AF5FEEF0070519387AD
:1031400001929443032744FF130504FF369798C365
:10315000253F938741929843050798C3EF00706815
:103160006FD0AFBD8280B7E700E041572387E740CB
:103170002386E740B7F700E023A0070023A207005B
:10318000814694C70147D8C783A581811307401F93
:10319000814633D6E5023D4790CBD4CB98C382809D
:1031A000EFD26FB7411102C6F32750303EC6B24787
:1031B0000D478D8B6384E702A16793870780739027
:1031C000073037D6000037D50000130646B6930502
:1031D000600B130505B4EF80903501A0B7070120FF
:1031E00093870700BD8B9DC3A1679387078073906A
:1031F000073037D6000037D50000130646B69305D2
:10320000B00B130505B4EF80903201A0A93FB7E7DA
:1032100000E0056723A0E710116723A0E71023A2B1
:103220000182EFD0EF8D014541016FD00FB17311D5
:103230000134A1679387078073900730B7F700E0E8
:1032400023A20700EF00F04111C5B7E700E01167C6
:1032500023A0E720A16793878788739007307311B5
:10326000013473002030A167938707807390073083
:10327000938741829843050798C3828013874182D0
:103280001C438DE7EFD22FA9A16793870780739026
:10329000073037D6000037D50000130646B6930531
:1032A0002010130505B4EF80902801A0FD171CC362
:1032B00091E7A16793878788739007308280EFD268
:1032C0008FA541111DE1A167938707807390073097
:1032D00037D6000037D500001306C6B89305500650
:1032E000130505B4EF80B02401A0F1473EC6324774
:1032F0006304F702A167938707807390073037D67E
:10330000000037D500001306C6B89305D006130594
:1033100005B4EF80D02101A02A84232005001105E7
:10332000052C85471CAC228541016FD00FA1EFD23F
:10333000EF9C1DE1A167938707807390073037D614
:10334000000037D500001306C6B89305A014130576
:1033500005B4EF80D01D01A0B70900FFB3F9350116
:10336000AE8463840902A167938707807390073056
:1033700037D6000037D500001306C6B89305B01441
:10338000130505B4EF80B01A01A09DE1A1679387F2
:1033900007807390073037D6000037D5000013063A
:1033A000C6B89305C014130505B4EF80501801A0EA
:1033B0002A89B28A368B3A8AEF1060240DE56304BD
:1033C0000A02A167938707807390073037D6000001
:1033D00037D500001306C6B89305F014130505B4DD
:1033E000EF80F01401A0EF00B02603240900B3F72A
:1033F000840063170B029DE78149630C0A02B33511
:103400005001E20563050B00B7070004DD8D52860D
:10341000C58D13054900EF005064D289014411A8FD
:10342000E39CF4FC63870A0093C7F4FFE18F232039
:10343000F900EF00103B638C090211E5B7E700E0EB
:10344000116723A0E720EF10C01C931765002A84A2
:1034500063CD0700EFF03FE103240900B3F78400D8
:10346000631A0B0091EBEFF07FE1220421802285AB
:103470006FD00F8CE399F4FEE3870AFE93C4F4FF48
:10348000E18C23209900C5B7EFD24F8741111DE190
:10349000A167938707807390073037D6000037D530
:1034A00000001306C6B893051022130505B4EF807B
:1034B000100801A0370700FF6D8F1DC3A167938718
:1034C00007807390073037D6000037D50000130609
:1034D000C6B893052022130505B4EF80500501A05E
:1034E0002A842EC69309C500EF0090161C40B245F1
:1034F000084837090001CD8F1CC081447D19370A67
:1035000000020C40639CA90093C4F4FFED8C04C03E
:10351000EF00302D084041016FD08F811841832A80
:103520004500B377270113165700B3F6B70063457C
:10353000060089E65685F1B7E39ED7FE931677001D
:1035400063D30600DD8CB3E54501EF00706FDDB796
:10355000930785007D575CC118C55CC51CC9232035
:10356000050082802328050082809841FD5693073C
:103570008500631ED7001C49D843D8C10CC79CC521
:10358000CCC31C4188C985071CC18280B687D4433F
:103590009042E37DC7FECDB7544118451C4998C6FB
:1035A00054C3D4436393A600D8C39843232805008B
:1035B0007D1798C388438280EFC2FFF541112AC668
:1035C000EFF07FCA3245005DEFF05FCB133514009A
:1035D00041016FC09FF6304115C2EFC2DFF358457D
:1035E0001445AA87329758C56364D700184158C557
:1035F0002E85CC47EF70307E6FC03FF48280EFC2E3
:103600009FF12A84EFF03FC6834454041309440217
:10361000E204E18463489002FD57A302F404EFF052
:10362000FFC5EFF05FC48344440413090401E204BE
:10363000E18463459002FD572302F404EFF01FC4B8
:103640006FC0BFEF5C50E9DB4A85EF00B05119C194
:10365000EF00707AFD14E204E1846DBF1C48E1DFE5
:103660004A85EF00305019C1EF00F078FD14E204F4
:10367000E184C1B7EFC23FEA41111DE1A167938721
:1036800007807390073037D6000037D50000130647
:1036900086BA93050011130505B4EF80406901A0B7
:1036A0005C5D2EC62A84BDC73841B3B7E702BDE3CF
:1036B000EFF07FBB3040585C1440232C0402B3076A
:1036C000E602B24554C03387F600918FB6975CC4CA
:1036D000FD572302F40418C4A302F4049DE11C481E
:1036E00099CB13050401EF00F04711C5B7E700E0DF
:1036F000116723A0E720EFF07FB8054541016FC0B7
:10370000DFE313050401EFF0BFE413054402EFF01B
:103710003FE4D5B7A167938707807390073037D60A
:10372000000037D50000130686BA93055014130520
:1037300005B4EF80C05F01A0EFC2FFDD01119DE283
:10374000A167938707807390073037D6000037D57D
:103750000000130686BA93059015130505B4EF8093
:10376000005D01A019C105C685E5A16793870780A3
:103770007390073037D6000037D50000130686BA9D
:1037800093052018130505B4EF80605A01A0F1FDE0
:10379000930780043ECE72476304F702A1679387C4
:1037A00007807390073037D6000037D50000130626
:1037B00086BA9305B016130505B4EF80405701A0F3
:1037C000F24785472383F60491E1368690C2C8DE2E
:1037D000ACC23685854536C6EFF0DFE9B2460561F5
:1037E00036856FC09FD5EFC29FD0011132C61DE153
:1037F000A167938707807390073037D6000037D5CD
:103800000000130686BA93051055130505B4EF8022
:10381000005201A02A84AE898DE53C419DC3A16779
:10382000938707807390073037D6000037D50000A4
:10383000130686BA93055055130505B4EF80204F43
:1038400001A0EF00D05B15E5B247014985C7A1672C
:10385000938707807390073037D6000037D5000074
:10386000130686BA9305A055130505B4EF80204CC6
:1038700001A001497D5A930A440237EB00E0916BA5
:103880008DA8B24789E7EFF07F9F014561A86315D6
:1038900009002808EF007049EFF05F9E552BEFF00C
:1038A0009F9C83474404E207E18763944701230216
:1038B000040483475404E207E18763944701A302A9
:1038C0000404EFF0BF9B6C002808EF00F04625E5EC
:1038D0002285EFF07FCE31C9B2455685EF00B01397
:1038E0002285EFF0DFD1EF00C06F19E123207B21AB
:1038F0000549EFF05F97045CC9D4CE852285FD149D
:10390000EFF07FCD04DC1C4899CB13050401EF00D8
:10391000702511C5B7E700E0116723A0E720EFF09D
:10392000FF95054505616FC01FC02285EFF03FCDB3
:10393000EF00206B75BF2285EFF07FCCEF00606A4F
:103940002285EFF07FC74DD589B715E5EFC2BFBC23
:10395000A167938707807390073037D6000085658D
:1039600037D50000130686BA938585AC130505B4D8
:10397000EF80E03B01A09DCD37A6002093064601D5
:103980008147014713064601214883A846006398F2
:10399000A80093173700B2978CC3C8C321A891E73A
:1039A00083A8060063930800B6870507A106E31EF7
:1039B00007FDFDF38280EFC21FB641112A842EC697
:1039C00032C4EFF05F8A834744047D572246E20702
:1039D000E187B2456394E70023020404834754045B
:1039E0007D57E207E1876394E700A302040432C62F
:1039F0002EC4EFF0BF881C5CA245324689E7130550
:103A00004402EF00100F2285EFF07FBF41016FC02D
:103A1000DFB2EFC2BFAE2A84EFF0FF849387C19379
:103A20009843B7A90020050798C31387019318434B
:103A3000938401931389490561E780C098438547C2
:103A40006312F70693894905130AC9124E85D109F5
:103A5000EFF01FB0E31C3AFF37A50020130A05184A
:103A600013050518EFF0DFAE37A5002093094519BF
:103A700013054519EFF0DFAD37A500201305851AB2
:103A8000EFF01FAD37A500201305051DEFF05FAC6B
:103A900037A500201305C51BEFF09FAB23AA419368
:103AA00023AC3193938781949843050798C3138778
:103AB000C1945C54144363F3F6001CC35147B387AD
:103AC000E702CA97D843144718C454C41047930652
:103AD000440054C214C798435CC8050798C3EFF06C
:103AE000EFF983A7C19599CB9C40D8575C54637775
:103AF000F700B7E700E0116723A0E7206FC05FA3DE
:103B000083A7C195C5F39C40D8575C54E3ECE7F814
:103B100080C049BF138741931C4394439387019509
:103B200081E67D5798C38280184358471843DDBF0C
:103B3000EFC2DF9C4111AA89B284428403290803A1
:103B4000B1C5014841463385050103050500B308A9
:103B50000401238AA80201C50508E316C8FEA301D3
:103B6000040439466377E602A16793870780739060
:103B7000073037D6000037D500001306C6BB9305C3
:103B80007039130505B4EF80801A01A0230A0802DA
:103B9000C9BF58D478C013054400232404043EC68A
:103BA00036C43AC2EFF01F9C13058401EFF09F9BCF
:103BB0001247A24613952400BD4571153387E54091
:103BC0004A9500C818CC40D023060404A306040478
:103BD00023070404A307040423080404230904049A
:103BE0003686CE854199EFC0BF81B24708C091C3E8
:103BF00080C341016FC0DF93EFC2FF91834715057A
:103C000091EB2A840859EFF06FCC2285EFF00FCCAE
:103C10006FC0BF920547E38BE7FE0947E38AE7FEE3
:103C2000A167938707807390073037D600008565BA
:103C300037D500001306C6BB9385C5F9130505B437
:103C4000EF80E00E01A0EFC27F8B37A400201304A9
:103C5000041D938401949C40EDDFEFF0CFE05C44C1
:103C600003A9C70013054900EFF01F931387C19301
:103C70001C43FD171CC39C40FD179CC0EFF00FE0D8
:103C80004A85EFF07FF7F1B7EFC25F879384019326
:103C900083A901962A849C40884041112389070406
:103CA00011052EC6EFF05F8F7D5793870193B245C4
:103CB000631CE40295C9B7A700209387C71B9440F3
:103CC000D84398C610479440D0C6944010479106F8
:103CD00054C29440910614C798405CCB98430507A2
:103CE00098C341016FC0DF8498434E9440C3637909
:103CF000340103A581938C439105EFF01F87D5B75D
:103D000003A541938C439105EFF03F86938701957E
:103D10009843E378E4FC80C3E9B7EFC2CFFF4111D9
:103D20009DE3A167938707807390073037D6000023
:103D300037D500001306C6BB9305A024130505B4B0
:103D4000EF70F07E01A0428463140802A16793879C
:103D500007807390073037D6000037D50000130670
:103D6000C6BB9305B024130505B4EF70507C01A0C9
:103D70009308400546C6324363041303A167938743
:103D800007807390073037D6000037D50000130640
:103D9000C6BB93053025130505B4EF70507901A01B
:103DA000B2482328F8028947A308F8043C00EFF042
:103DB0003FD82285EFF0FFC5224541016FC0EFF7E4
:103DC000EFC26FF5411170002C00480002C202C41E
:103DD000EFD04FFE1248A2473246B7D50000374514
:103DE000000001478146938505BD130565C4EFF0CA
:103DF000DFF205C5EF00902F85476315F502A16737
:103E000093870780739007307D5723A8E19423AEF2
:103E1000A19423A00196EFF0AFB883A7818241015E
:103E20006FC0AFF1FD57E31AF5FEA16793870780D6
:103E30007390073037D60000856537D5000013062C
:103E4000C6BB93850584130505B4EF70506E01A0C1
:103E5000938741949843050798C3828003A50196F0
:103E6000828083A7419463970716EFC2CFEA9387B6
:103E700001968043050480C331E4938741939843BE
:103E8000184305C7A167938707807390073037D61B
:103E90000000856537D500001306C6BB938575AC59
:103EA000130505B4EF70B06801A0138781939443A4
:103EB000104390C314C3938741959843050798C353
:103EC000EFF05FC5938701959C4337A700201386C9
:103ED0000195130747059385019301456373F40228
:103EE0009C41D146DC57B387D7023E97184385479C
:103EF00063F3E700054583A7419691C305456FC06D
:103F0000CFE3514F938741939443944281E6FD5709
:103F10001CC2F9B79C43DC47DC47D4436374D4002C
:103F200014C27DBF83A8870003A8C700D44B1383A6
:103F3000470023A408012322180183A846006394A4
:103F4000680023A2060103A8060023AA07007D1823
:103F500023A00601945795CA03A8C70183A80702A6
:103F600083AF46002324180183A8070223A2080177
:103F70001388870163940F0123A2160103A806008A
:103F800023A407027D1823A006019386C19403A8E9
:103F9000C70283A8060063F4080123A00601B30644
:103FA000E803BA9683A8460083AF880023A41701CC
:103FB00023A6F70183AF880023A26F0023A4680023
:103FC000D4CB9C4285079CC29C41DC57E36CF8F241
:103FD00005450DBF9387819598430145050798C313
:103FE0008280EFC2AFD1138441941C40411185E718
:103FF000A167938707807390073037D600008565E7
:1040000037D500001306C6BB9385358B130505B461
:10401000EF70F05101A0EFF00FA51C40FD171CC080
:104020001C4089CB01452AC6EFF04FA5324541011E
:104030006FC00FD083A7C193F5D7B7A6002037A5CF
:10404000002081479386861A13054505D148854E81
:1040500059A8DC46DC47CC4F9053985790C503A82D
:1040600007022322B80003284700938587016313C2
:10407000B80050C3104323A407027D1610C38C4719
:10408000D047D84B1388470090C54CC24C4363932C
:10409000050150C3104323AA07007D1610C31387E0
:1040A000C194D0570C4363F3C50010C33307160304
:1040B0002A974C4383AF85008CC723A6F70183AFB3
:1040C000850023A20F0123A405010C43D8CB85054D
:1040D0000CC313870193184358576366E600138790
:1040E00041962320D70198422DF799C3EFF09FA264
:1040F0001387819504431384819589CC8549EFF01A
:104100005FD609C59387419623A03701FD14E5F8D2
:104110002320040083A74196E38607F0B7E700E079
:10412000116723A0E7200545FDBD19E5B7E700E0CD
:10413000116723A0E7208280EFC2EFBD83A74194DF
:1041400041119DC3A167938707807390073037D6CD
:10415000000037D500001306C6BB93059054130525
:1041600005B4EF70D03C01A02AC6EFF07FCE3245F7
:104170008145EFF07FB1EFF0DFE611E5B7E700E052
:10418000116723A0E72041016FC02FBB03A7419413
:104190009387419601C7054798C3828023A00700F3
:1041A0001387C19418431386C194B7A7002093873F
:1041B00047055148B3060703B385D700884105C5B5
:1041C000C841A106BE964841C8C16314D5005441F8
:1041D000D4C1D146B306D702B697DC43D44723A84F
:1041E000D19218C2828015E7EFC2EFB2A167938720
:1041F00007807390073037D60000856537D50000FB
:104200001306C6BB938525C0130505B4EF70303285
:1042100001A07D1745B7EFC20FB005E5A1679387F1
:1042200007807390073037D60000856537D50000CA
:104230001306C6BB9385C5C1130505B4EF70302FB7
:1042400001A02E8483A50193E105EFF00FB285450F
:104250002285EFF07FA36FC04FAEEFC2CFAB05E575
:10426000A167938707807390073037D60000856574
:1042700037D500001306C6BB938565C3130505B487
:10428000EF70F02A01A083A7419485E7A167938787
:1042900007807390073037D60000856537D500005A
:1042A0001306C6BB9385A5C3130505B4EF7030286C
:1042B00001A09387019394432A8737050080C98D15
:1042C0008CCE54438C438846D4CD8C4388D18C43C8
:1042D0008846E1054CC18C439C433285E1058CC680
:1042E00098D71C43854585071CC3EFF0FF996FC025
:1042F000CFA4EFC24FA22A8705E5A1679387078065
:104300007390073037D60000856537D50000130657
:10431000C6BB938525C5130505B4EF70502101A0D8
:104320009387019354432E858C4303A88600D4CDF4
:104330008C4323A0050303A807008C46610823A231
:10434000050103A807009C43610823A4060198D730
:104350001C4385071CC311C27D55B285EFF0DF9267
:104360006FC0AF9D5C45DC4795E7EFC2CF9AA16770
:10437000938707807390073037D60000856537D55F
:1043800000001306C6BB938525C8130505B4EF705E
:10439000101A01A0D04F945398579385870114C6E3
:1043A000D0C250436313B60054C3144323A407027E
:1043B000FD1614C303A74194D45735E78C47D04763
:1043C000D84B90C5D04748434CC2938547006313F0
:1043D000B50050C3104323AA07007D1610C31387EE
:1043E000C19410436373D60014C351473386E60269
:1043F00037A700201307470532975043084690C758
:10440000C8C708464CC10CC6D8CB1C43014585071C
:104410001CC383A70193DC5763F6D700054723A28B
:10442000E1960545828037A700201307871A50437D
:104430000846D0CF88D308464CC10CC698D7F1B7F0
:10444000EFC26F8D83A7419485E7A16793870780AB
:104450007390073037D60000856537D50000130606
:10446000C6BB9385A5CB130505B4EF70500C01A016
:10447000B7070080DD8D5C450CC185E7A167938798
:1044800007807390073037D60000856537D5000068
:104490001306C6BB938525CC130505B4EF70300910
:1044A00001A050411445184914C61445D0C25043C8
:1044B0006313A60054C31443232805009047FD1638
:1044C00014C3D447D84B9385470014C6D447D0C2F1
:1044D00050436313B60054C3144323AA0700FD16C8
:1044E00014C31387C194D45710436373D60014C305
:1044F00051473386E60237A7002013074705329756
:104500005043084690C7C8C708464CC10CC6D8CB14
:104510001C4385071CC383A70193DC5763F5D700B1
:10452000054723A2E1966FC04F8183A741951CC127
:1045300083A701965CC18280EFB2FFFD411105E5C2
:10454000A167938707807390073037D60000856591
:1045500037D500001306C6BB9385D5CF130505B428
:10456000EF70E07C01A085E5A167938707807390D9
:10457000073037D60000856537D500001306C6BB67
:104580009385E5CF130505B4EF70607A01A02EC6C0
:104590002AC4EFE05FCD1387019383A601961C43E5
:1045A0002245B24583C7270599CB1C4323890704BD
:1045B0000544EFE0BFCC228541016FB01FF89C415C
:1045C0007D570144E387E7FE03A6419503280500D4
:1045D00058416307C80063E5E60023A00500C9BF92
:1045E0003386E640E37BF6FE958FBA979CC1EFF0E9
:1045F000DFF301447DBF054723A2E196828083A7B4
:10460000C195054591C703A54194133515000605CD
:1046100082809387019398439443084FD4569843DC
:10462000BD47958F1CCF8280EFB2FFEEEFE0BFC396
:10463000138441971C40B1EB37A500201309452294
:1046400013054522EFE0DFF037A500209304852312
:1046500013058523EFE0DFEFB7A6002037A6002083
:1046600023A4219701479386C6241306461EC145FD
:10467000114523A69196EFF02F8C08C019C5B7D528
:1046800000009385C5BFEFF04FACEFE03FBF6FB0C8
:10469000DFEAEFB25FE84CC108C9AA876360B602DF
:1046A000184D158E05456379E6009385470003A5EF
:1046B000C196EFE09FEB01456FB03FE86375D60010
:1046C0000545E3FBD5FE9385470003A58196D5B745
:1046D000EFB27FE42A84AE8432890C4CA6864A86E7
:1046E000A6952285EFF0FFFA19E16FB01FE51C4C8B
:1046F0002285BE941C508297CDB7EFB2DFE183A72D
:1047000081964111AA84DC472EC6C0471305440098
:10471000EFE09FE883474402324613F7470019CB86
:10472000A6852285EFF0DFFA1C5022858297410191
:104730006FB0BFE0F99B2302F402FDB7EFB2BFDD1B
:104740009386819698421C4381EB9387C196904350
:1047500098C390C26FB07FDE5C47FD558843EFF091
:10476000DFF9F9BFEFB2BFD835694111130989BD2F
:1047700083A78196984329CBDC47814C03AC070083
:10478000EFF00FEDEFF08FED83A701972A8493846C
:104790000197138A4197636CF50288C063800C040B
:1047A00083A7C19690431336160003250A00B3056C
:1047B0008C40EFF04FA0EFF0DF8219EDB7E700E09B
:1047C000116723A0E72009A8854C014C55BFEFF0E5
:1047D000FFF680C0EFF0FF80214C0DA00146E3669C
:1047E00085FDEFF01F80A2856285EFF01FF1EDB728
:1047F0009247B2458297824763DD070003250A008E
:1048000001468A85EFE03FFE25D582472245E3C178
:1048100007FE22445C489DE3EFF04FE49C40AA8CE5
:104820006374F500EFF09FF1824723A09401FD1718
:10483000E366FCFC8A07CA979C4382871305440001
:10484000EFE09FD5D1BF834744020C4C924693E7DB
:1048500017002302F4026686B6952285EFF07FE307
:1048600051DD8347440213F7470001CF1C4C9245AA
:1048700066862285BE95EFF0BFE51C5022858297A3
:10488000B5BFF99B2302F402CDBF83474402F99BD5
:104890002302F402A5B783474402924593E7170029
:1048A0002302F4020CCC9DE1A167938707807390EB
:1048B000073037D6000037D50000130646C09305F1
:1048C0009035130505B4EF70804601A0E686668634
:1048D000E6952285EFF0FFDB15B78347440213F717
:1048E000270055F72285EFE06FFE09BFEFB2BFC288
:1048F0004111EFF07FD383A7419795CB70002C0037
:10490000480002C202C4EFC0BFCCA24712483246E0
:10491000B7D5000037450000394781469385C5C1AA
:1049200013054576EFF06FBF23ACA1961DE1A1679B
:10493000938707807390073037D6000037D5000083
:10494000130646C093059011130505B4EF70203E81
:1049500001A0054541016FB05FBE83A78181371774
:104960007A0013070720B3D7E70293F7F70F238FD7
:10497000F1961307803EB387E702239EF19682806B
:10498000B7F700E0D8438146799BD8C303C7E197C6
:104990003306A70290CBD4CB98431367070198C383
:1049A00098431367170298C3D843058B75DF984364
:1049B000799B98C38280B7F700E0D8438146799B02
:1049C000D8C303D7C1973306A70290CBD4CB984363
:1049D0001367070198C398431367170298C3D84316
:1049E000058B75DF9843799B98C38280EFB2BFB285
:1049F0002A841165011185451105EFD0AFBB9307DE
:104A000000207C82371501408D473EC44C00E147B1
:104A1000130505803EC6EFD00F9422C837440140ED
:104A2000B70708000C08130504803ECC02CA231EF9
:104A30000100EFD00FD3854513050480EFD00FDEC2
:104A400005616FB09FAFEFB27FABB7440140AE8955
:104A50003289014493840480634524014A856FB000
:104A60003FAD930500042685EFD02FDD7DD9B387B8
:104A700089008385070026850504C205C181EFD022
:104A80004FDBD9BF1387C1821C43B7A60020938692
:104A9000863F3E95636BD500B7060120938606805E
:104AA00063E5A60008C33E858280FD57EDBF7325F0
:104AB00010348280732520348280732530348280C4
:104AC000EFB27FA5370400208327441E41113EC664
:104AD000EF10601C11896300051493878199984336
:104AE000B246998E37A700200327473305836376A4
:104AF000D700324798C3EF30D055EF40200183A74D
:104B0000819A91C7EF30105719E123A4019A938439
:104B100041999840B247998F1307703E6376F7002A
:104B2000EF206021B2479CC0938701989843B2461A
:104B3000998E0567130777386376D700324798C395
:104B4000EF10405DB7A700209387872FD84711CF7C
:104B5000138701991043B246918E1306703E637617
:104B6000D600B246DC4314C38297B7A4002083A7C3
:104B7000042AA9CB1387C1981C43B2461306A00F81
:104B80009D8EB7A7002083A70737ED83B387C702A1
:104B900063E9F600B2471CC39387042A9C4B91C378
:104BA0008297938781989843B246998E3D67130701
:104BB000F7A56379D70032479384042A98C3DC4869
:104BC00091C3829732459384419865249C40324733
:104BD0001D8FBD679387F7A563F5E700B92CB24732
:104BE0009CC003C7519ABE841377F70F0DC703C744
:104BF000519A1377070C1DE3B7A7002083A78737C7
:104C000099C3054582970327441E23A0E19A930781
:104C10000004A382F19A41016FB03F9203C7519AF9
:104C20001377070415CB83A6019A0327441E138923
:104C3000019A158F93064006E3FFE6FCB7A7002014
:104C400083A7873799C3014582978327441E232072
:104C5000F900930700F875BF03C7519A620761878F
:104C6000E35B07FA83A6019A0327441E158F930678
:104C70004006E3F2E6FAA382019A71BFEFB2BF8960
:104C800037A5002013058538EF10D02B6FB0FF8AB1
:104C9000EFB27F88B7A7002093878731D85737A412
:104CA000002088D313674700D8D711899307C435EC
:104CB0009C4F1304C43501CD99C3014582975C4CC8
:104CC00099C3014582970545812A6FB01F8799C313
:104CD000054582975C4CF5DB05458297FDB73707A4
:104CE00000208327871F232005009DCB944363DB8F
:104CF0000600D4479042634506029C4363D40700F4
:104D0000232CD71E8327871F91650146FD15354843
:104D1000B7080080944363D7060019C2232CF71EFE
:104D20000145828094431393060163420304944334
:104D300093F606108DCE944393F606208DCA9443C5
:104D4000C182ED8EF11614C16371D802944393F6BB
:104D5000060281EA19C2232CF71E9C475CC1054557
:104D60008280944393F61608F5D62320050023A0ED
:104D700017010546DC4779BFB707002003A7871F47
:104D8000B706008014C3584723ACE71E8280EFB2F9
:104D90008FF883C7519A93F7F70F81E78547A3826E
:104DA000F19AB707002003A7471E9387C19909CB43
:104DB00098C3B7A7002083A7C73782976FB0EFF7D4
:104DC0000547FDB7B7A7002083A7C7370145A1C393
:104DD000B707002003A7071D1DCB1443084793877F
:104DE000C19963D406028C43A16689063708002066
:104DF000930830060326481E0D8E63E4C800FD1696
:104E000081EA14438606858214C323A007008280AA
:104E10001043E34106FED5BF370700200327471E96
:104E2000B7A700209387472988A3239107002392DF
:104E3000070098C7A38007008280EFB2CFEDB7A428
:104E40000020138484385C4041116C001385843841
:104E50003EC623220400EF10E04CB2476C001385DD
:104E600084385CC05C443EC6EF10C04B41016FB05B
:104E7000CFECB7A7002093874729982319E388C769
:104E8000828098479306703E3307E54063F3E6025D
:104E9000EFB26FE8BA2388C7914663F7E600014591
:104EA000EFF09FF76FB06FE90507BAA3EFF0FFF8D7
:104EB000D5BF8280EFB22FE62A840145EFF0DFF5FF
:104EC000B7A700209387472911C8054798B3B7A70C
:104ED0000020094723A2E7346FB02FE6A380070024
:104EE000E5BF828003288503630B0802EFB2AFE2BF
:104EF000FC5D014791C70507420741839C43DDBF25
:104F000083A7050891C70507420741839C43DDBF7E
:104F1000814601468145029801456FB00FE2014587
:104F2000828001458280EFB28FDC5C42032A8500DB
:104F30000329C5000049AA8488239C33B289A207AB
:104F40005D8DEF10700F9355650093F5C503B305A4
:104F5000B0404E85EF20504449E5DC44984C03DBDB
:104F60008900998F63F867014E85EF20D049054588
:104F70006FB06FDB4A9A4E890356A900B30A8A4084
:104F8000832B490063F4CA045686DE852285EF60D0
:104F900080648357A9009844330444413E94228698
:104FA000B3855B013A85EF6000632A940329090009
:104FB000E31409FC4E85EF2010459C4C80C8DA971D
:104FC0009CCC9C4093E747009CC055B72285DE856A
:104FD000EF6060608357A9003E94E39957FD8044D9
:104FE000F1B7014571B771CAEFB26FD0832BC5001D
:104FF0001C4D035B8600BA8AB387FB40368A328930
:105000002A8463F767013285EF20F03F6FB0AFD19C
:105010001C450449B289BE9B03D6A900338C9B4032
:1050200083AC49006377CC066286E6852685EF600F
:10503000805A83D7A9001844B3847441BE9426864D
:10504000B3858C013A85EF600059AA9483A90900C1
:10505000E39409FC4A85EF20103B03288403630591
:10506000080483451A0083470A001448A205DD8D11
:1050700083472A005A875686C207CD8F83453A0058
:105080002285E205DD8D02981C44232C04001CC8F7
:10509000B5BF2685E685EF60005483D7A900BE948E
:1050A000E39687FB04445DB7184C1C4004C85A972C
:1050B00093E7470018CC1CC091BF828018519547D8
:1050C000631AF70CEFB2AFC21C492A847D55D9CFC1
:1050D000328AAE8455CA832A84005844835B860092
:1050E0003289BA9AC20A93DA0A019399070193D9CD
:1050F0000901338B3A410356A900420B135B0B01A4
:10510000032C49006376CB065A86E2853E85EF6024
:10511000804C0357A9001C44B3056C013307574169
:10512000BA99C20993D909013E854E86EF60A04A1B
:10513000B307350103290900E31909FA184C1CC803
:1051400052855E9718CC18401367470018C0EF20AF
:10515000902BFE38184C2685B38B77415C44239BFB
:105160007403998FDEB4EF30601101456FB0AFBBAF
:105170003E85E285EF6020460357A900B307E500AE
:10518000E31A67FB1C447DB70145EDF22E85EF3035
:105190000058E9BF65558280EFB24FB6B7A900202D
:1051A00003C6419A138749F68147938949F693F6D6
:1051B000F70F63E5C6006D556FB08FB70328070280
:1051C000938617001307C70363040800B687C5B7A3
:1051D0001309C003338927032E842A8A1306C003C8
:1051E0008145B38429012685EFB0EFB51305C902C7
:1051F0001146930544004E95EF60E03D5E3080D847
:10520000A685DCD083278A0222859CD4EF30401605
:10521000B7550000938525EE2285EF306016B7550F
:1052200000009385C50B2285EF30C014B7550000F0
:10523000938545EE2285EF304014B7550000228556
:105240000546938525F2EF3040148D47DCCC954719
:105250009CD09C20014593E787009CC0B1BF19C931
:105260003305A040B567938747C21375F50F3E9588
:105270000821828001458280EFB2EFA99307C00325
:10528000B387F50237A40020130744F62A89AE84B9
:105290001306C0038145130444F6BA973E85EFB068
:1052A0008FAA630709001306C003CA85EF60A03206
:1052B0009305C003B385B402A2959C459CC9DCC983
:1052C0006FB0AFA7EFB28FA32A8A37A50020411194
:1052D000AE89B284814561461305052A36C6EFB012
:1052E0008FA6B24637A4002013098431B68519462B
:1052F0001305C900EF60202E1146D28513058431B5
:10530000EF60602D1146CE8513054900EF60A02C9B
:1053100013048431A1E0B7070001FD171CC48144C8
:1053200083C7419A63CFF402EF10C04885475CD031
:105330001567B7A700209387C730130707E298C304
:105340001167130787A9D8C3254798C701454101AD
:105350006FB00F9E1146A68513058400EF60A0274D
:105360007DBF93F5F40F0145EFF01FF185044DBFAC
:105370001841B7A700209387C73098C35841D8C3B6
:10538000184598C782801855B75734129387876796
:105390006310F712EFB28F961C512A842545638162
:1053A000071037A9002013064004814513058931F1
:1053B000EFB06F99B7A400201306C0028145138592
:1053C000C435EFB04F981306C002A2851385C435CB
:1053D000EF6060209389C43503A749014A8693870B
:1053E000C43525EBB56603D786AF938686AFAE226C
:1053F0002E97CE22F6222E9736979316270163D347
:10540000060AD8CBD84B9356E700FD8A89EAB746FF
:10541000F8FFFD16758FB7060500558FD8CBD84B12
:1054200093563701FD8A89EAB746F8FFFD16758F56
:10543000B7065000558FD8CBD84B9316670063CA78
:105440000600B70600FEFD16758FB7060014558FCF
:10545000D8CBD84B9356B70189E6B7060040558F95
:10546000D8CBD85311E7375700001307E7CDD8D36F
:10547000D44B014513D7E6007D8B2382D19A930745
:10548000863198CF13D736017D8B1306200333075F
:10549000C702D8CF13976600635407000947B8C303
:1054A0006FB00F89F976FD16758F8966558F91BF9C
:1054B0001305F00F828003C6419AB7A70020938698
:1054C00047F60147938747F66317E6008147631362
:1054D000F7020145828003A807036317A80009C5E6
:1054E0000545EDD998A1828005071377F70F9387BB
:1054F000C703D9BFD05A6319A60019C50545F9D904
:1055000093E707F89CA18280850793F7F70F9386AE
:10551000C60375BFEFA29FFE37A900202300050038
:1055200003C7419A4111930749F68144130949F68B
:10553000631797001305000241016FA07FFF938757
:10554000C70383A647FE63810618850493F4F40F0E
:10555000C5B7B7A7002083A787316C003EC6EF20F0
:10556000F01D11469305C4026800EF60C0066C0090
:105570004E85EF20901E1306C0033386C402B75534
:105580000000938565F24E854A96EF20F01E954700
:1055900037A500206C00232834031CD01305853860
:1055A000EF005058A6852285EFF01FCD014569B761
:1055B00009476390E70AEF50502EAA89630305124A
:1055C000930AC4021146D6856800EF60C000324AD3
:1055D000370500F0EF106029337AAA00370500E0A4
:1055E000EF10A0286300AA04B7A500209385853892
:1055F0006800EF10A06F1DE5B7A7002083A78731D3
:1056000012346C004E853EC6EF50F0021DE1D68587
:1056100011466800EF50307C52306C004E85EF50E0
:10562000901C39A01234938581864E85EF50B000CE
:1056300001C5EFF0DFC209B71306C0033386C40209
:10564000B7550000938565FE4E854A96EF50902130
:105650003DBF0D4713051002E390E7EEEF30204702
:105660005C4412346C005EB9B7A7002083A7873171
:10567000AA893EC6EF2090252A8A11C54E85EF30B3
:10568000000952857DB79305C003B385B4024E85EA
:10569000CA95EF20F04DB75500004E85938525EE55
:1056A000EF20104E9547A685228523283403232A10
:1056B00034031CD0EFF05FBC37A500206C0013054D
:1056C0008538EF003046DDB504A1DC4DC4C12E8421
:1056D000E39007EE03458402EF205016AA89E31AEF
:1056E00005E6454591BDEFA21FE34EB52A84EF20A4
:1056F000F03809CD83476402228593E7270023030E
:10570000F402EF40906405456FA03FE3B7A7002087
:1057100083A7C736A183858BFDD783476402858B1A
:10572000FDD38947A303F402054723A4E19AE1BF0F
:1057300083C7419A6376F5041307C0033305E50276
:10574000B7A70020938747F63E95584D232C0500B8
:1057500050C50CC50CC94CC98D476313F7020859D5
:1057600005C15A3993371600631CF700EFA2BFDA60
:1057700093150601C1814EB9EFF0FFF66FA0FFDB74
:105780008280EFA2BFD714426944CDCE2320060009
:10579000328A1306C0033306C502B7A4002013875C
:1057A00044F6AA89AE87938444F63297032B870088
:1057B000504703298701404B329B63F3260136890A
:1057C000B30A8B4063F32A0981CB3E855686A285B6
:1057D000EF507060B30755011307C0033387E90228
:1057E0004A94330464412697832A870091C722860E
:1057F000D6853E85EF50305E56949307C003B3873D
:10580000F90223202A01A697984FC0CB33092741DC
:1058100023AC2701631809009847D8CB98CB98434D
:105820006D9B98C39307C003B389F9028D47014468
:10583000CE94D84C6318F70063160900CE2488581C
:10584000EFF07FEA22856FA0BFCE91C74A86A2857E
:105850003E85EF5050584A94E3912AFB9307C003CA
:10586000B387F902A697804749BFEFA25FC80042FD
:105870002320060055C4AA876945D9C51305C0036E
:10588000B387A70237A50020130545F6B7AA002065
:105890008144AA9703AB070393878A31BC43938A59
:1058A0008A31898B99E39304700C9307805C63F4CD
:1058B00087001304805C931C0401328A2E8993DCD8
:1058C0000C01130C800C0146E6850145EF20803861
:1058D000AA8929C948412286CA8523AE0A02EF5007
:1058E000904FCE855A85EF206071AA8B4E85EF20B0
:1058F000803183A7CA0399CB8504C204C180EFF02D
:10590000EFB7E39284FD4D456FA0FFC163D60B0056
:105910005E85EFF0DF94CDBF23208A000145EDB70F
:105920006945DDB74545CDB7EFA27FBC00422320D6
:10593000060055C4AA876945D9C51305C003B387B6
:10594000A70237A50020130545F6B7AA0020814419
:10595000AA9703AB070393878A31BC43938A8A31A2
:10596000898B99E39304700C9307005C63F48700C0
:105970001304005C931C0401328A2E8993DC0C0111
:10598000130C800C0146E6850145EF20A02CAA8966
:1059900029C948412286CA8523AE0A02EF50B04386
:1059A000CE855A85EF500063AA8B4E85EF20A02547
:1059B00083A7CA0399CB8504C204C180EFF00FAC62
:1059C000E39284FD4D456FA01FB663D60B005E8544
:1059D000EFF0FF88CDBF23208A000145EDB7694570
:1059E000DDB74545CDB7EFA29FB083290600232040
:1059F0000600638E090CAA872E8B6945A1C1130589
:105A0000C003B387A70237A50020130545F637AAC0
:105A10000020B28B930A900C8144114C130ACA35B2
:105A2000FD5CAA9703A90703FD1AC20A93DA0A01CB
:105A300063980A0083A70B00C9CB01456FA0BFAED6
:105A40008327090163978709EFF04FA3035769077D
:105A500019E34545E5B783270A01858B99E3E36A96
:105A600037FF03244A00637387003A8463F3890095
:105A70004E84131604014182854691E38146DA85FE
:105A80004A85EF409022AA844A858DE4EF40F02BAE
:105A900083A70B00B3898940AA84A29723A0FB00A7
:105AA000229BE38C09F883270A01858BB5FFEFF071
:105AB0000FFB69B763999401EF40302983270A01EE
:105AC000858BBDF379B7EF4050282685CDB7694562
:105AD000B5B75D45A5B79307C003B307F50237A770
