:100000006F10806E1300000013000000130000004A
:100010001300000013000000130000001300000094
:100020001300000013000000130000001300000084
:08003000130000007300100032
:100038000000000000000000F0110000F4110000B2
:10004800000000002E160000000000000000000064
:10005800301600003216000000000000000000000A
:10006800F230000000000000000200000000000064
:10007800381600003A1600003C1600003E16000034
:100088004016000042160000441600004616000004
:10009800481600004A1600004C1600004E160000D4
:1000A80050160000521600005416000056160000A4
:1000B800581600005A1600005C1600005E16000074
:1000C8006016000062160000641600003812000076
:1000D800681600006A1600006C1600006E16000014
:1000E80094120000721600007416000076160000C4
:1000F800781600007A1600007C1600007E160000B4
:100108008016000082160000841600008616000083
:10011800881600008A1600008C1600008E16000053
:100128009016000092160000941600009616000023
:10013800981600009A1600009C1600009E160000F3
:10014800A0160000A2160000A4160000A6160000C3
:10015800A8160000AA160000AC160000AE16000093
:10016800B01600008C120000B4160000B61600008D
:10017800B8160000BA160000BC160000BE16000033
:10018800C0160000C2160000C4160000C616000003
:10019800C8160000CA160000CC160000CE160000D3
:1001A800D0160000D2160000D4160000D6160000A3
:1001B800D8160000DA160000DC160000DE16000073
:1001C800E0160000E2160000E4160000E616000043
:1001D8000000000000000000000000000000000017
:1001E8000000000000000000000000000000000007
:0801F8000000000000000000FF
:10020000130181F806C216C41AC61EC822CA26CC1B
:100210002ACE2ED032D236D43AD63ED842DA46DC76
:100220004ADECEC0D2C2D6C4DAC6DEC8E2CAE6CC46
:10023000EACEEED0F2D2F6D4FAD6FED8F3220030CF
:1002400096DA83A2419323A02200F32510342EC016
:100250009305000273A0458003A14185EF30B047AC
:1002600003A3419303210300824273901234D652B8
:10027000739002309240A2423243C2435244E2445D
:10028000724582551256A2563257C2575258E258FA
:1002900072598649164AA64A364BC64B564CE64C0E
:1002A000764D865D165EA65E365FC65F13018107DA
:1002B0007300203013000000130000001300000042
:1002C00013000000130000001300000013000000E2
:1002D00013000000130000001300000013000000D2
:1002E00013000000130000001300000013000000C2
:1002F00013000000130000001300000013000000B2
:1003000083A24185938202E07390023403A141935A
:10031000024182403243C2435244E2447245825514
:100320001256A2563257C2575258E258725986494D
:10033000164AA64A364BC64B564CE64C764D865D61
:10034000165EA65E365FC65FD652A102739002307B
:10035000A2421301810782801300000013000000F5
:100360001300000013000000130000001300000041
:100370001300000013000000130000001300000031
:100380001300000013000000130000001300000021
:100390001300000013000000130000001300000011
:1003A0001300000013000000130000001300000001
:1003B00013000000130000001300000013000000F1
:1003C00013000000130000001300000013000000E1
:1003D00013000000130000001300000013000000D1
:1003E00013000000130000001300000013000000C1
:1003F00013000000130000001300000013000000B1
:10040000F322003093F272FF130380781203B3E2F9
:100410006200711523205500130585FA10C12115BE
:10042000232005009302000063870200711523203A
:100430000500FD12D5BF71150CC1828000000000BF
:1004400000000000000000000000000000000000AC
:10045000000000000000000000000000000000009C
:10046000000000000000000000000000000000008C
:10047000000000000000000000000000000000007C
:10048000000000000000000000000000000000006C
:10049000000000000000000000000000000000005C
:1004A000000000000000000000000000000000004C
:1004B000000000000000000000000000000000003C
:1004C000000000000000000000000000000000002C
:1004D000000000000000000000000000000000001C
:1004E000000000000000397101436EC619A0397187
:1004F00041536AC866CA62CC5ECE19A039710153F5
:100500005AD056D252D44ED64AD826DA22DC06DE4B
:1005100033016140828241114AC026C222C406C60C
:100520008282B24D4101024D924C224CB24B4101AC
:10053000024B924A224AB249410102499244224462
:10054000B240410182803D432A876373C30293779F
:10055000F700BDEFADE5937606FF3D8ABA960CC372
:100560004CC30CC74CC74107E36BD7FE11E2828036
:10057000B306C3408A069702000096966780A600DD
:100580002307B700A306B7002306B700A305B700EB
:100590002305B700A304B7002304B700A303B700E3
:1005A0002303B700A302B7002302B700A301B700DB
:1005B0002301B700A300B7002300B700828093F5A2
:1005C000F50F93968500D58D93960501D58D61B76E
:1005D000939627009702000096968682E78086FA17
:1005E0009680C1171D8F3E96E374C3F8A5B7B70771
:1005F00000202382071805458280B70700200547A1
:100600002382E718B707002023A0A718054582809A
:10061000B7070020938747180387070009CB3707E0
:100620000020032707182380070018C105473A85D3
:100630008280EFF25FEE08218545EF50A0537D5791
:100640002386E180DDBDEFF21FED411185450545B3
:1006500002C202C423160100EF10C06583A7818186
:1006600037470F0013070724B3D7E7024C003705BD
:100670000040231501007C8489679387F7703EC290
:10068000EF10406E0546854537050040EF10A07914
:10069000854537050040EF108077854537050040D8
:1006A000EF108079B7E700E0056723A2E71041016A
:1006B00069B5EFF2BFE43704002041111305C418F7
:1006C000EF10F00E37C5000013058578EFB06038E5
:1006D0008144130AC418B7C900001949B3079A0026
:1006E0008C23138549798504EFB0A036E39824FF65
:1006F0002945EFB0003A813FB70500209306C418A2
:10070000138681809385051013854180EF20406515
:100710002A84EF00D03E19E437C50000130585791F
:10072000EFB000479567938707E23EC291679387D2
:1007300087A93EC44800A5473EC6EF40B015EF006C
:100740005038B707002023AEA7184101D5B3EFF208
:10075000FFDA0111C88793F745002E84B1CF937457
:10076000F50F1307C0033387E402B7870020938790
:100770004734BA97D44798473697D44B9C4F338623
:10078000F6006374C700B307D74037C50000A685DD
:1007900013058570370900203ECE13098919EFB083
:1007A000402B83550900F24713076010AE97637919
:1007B000F7081305F100B53D93778400A1CB93842E
:1007C000C18098209307F00F6312F704888785454E
:1007D000EF50401F88870566130686B6B305C5022D
:1007E000B707002093870733BE95EF40B0469C873C
:1007F00037C50000130505749CA0EFB060398C204C
:1008000037C5000013058575EFB0A0249377040168
:1008100091CB37C500007D57130585762386E1808F
:10082000EFB000371374040411C837C500007D57BA
:10083000130585772386E180EFB080350561CDB95A
:10084000B72900208887938909A07008CE95EF40CA
:1008500090458357090072473E9742074183231012
:10086000E9009947E3FAE7F483D6490093978600B5
:10087000A182D58FC207C18393865700E3DEE6F2DB
:100880009907E318F7F205458D3B3709002003254A
:10089000C9197D57854605468545EF20501037C557
:1008A000000013050572EFB0C01A37060020B72507
:1008B000002013068618938585B02685EF40F073D7
:1008C000AA8437C5000013050573EFB0801826858C
:1008D000EF00F0221309C91999C42685EF003022D0
:1008E0001305F100B933032509008945EF20D02015
:1008F000E1B5EFF25FC2EF506008937715002A84EC
:1009000099C737C500001305856CEFB06028937751
:10091000240099C737C500001305C56DEFB0402707
:100920009377440099CBEF504009118919C537C519
:1009300000001305456FEFB0A025418819CC014593
:10094000EF500005AA8519C1014511350545EF5045
:100950002004AA8519C10545DD3BC5B6EFF21FBAD3
:1009600037C4000037C90000B7C9000037CA00000B
:100970000545EF3020500145EF00C06C11C513054F
:10098000CA66EFB0E020EDB7EF00E07219C983A7A7
:1009900081841306C96893858969C847EFA09013BD
:1009A000C1BF1305C46BEFB0C00AEF00207375DD43
:1009B000C1B7EFF25FB639711304601F11C12A8409
:1009C0001306C00381454800BD3E22D68D471384DF
:1009D000D1804C001385D1803ED0EF40F00581449A
:1009E00009ED0820EF5040032A89EF0050116309F8
:1009F000090008208945EF50E0172685216135BEA2
:100A000037C500001305057BEFB0A0040C2037C5E7
:100A1000000013058575EFB0C0038544F9BFEFF200
:100A20009FAF1385D180313109BEB727002093874E
:100A300007A01CC1B7070020938787199A23054593
:100A4000239007009AA18280EFF2FFAC2A8937C574
:100A500000001305857C2E84EFA0B07F3725002091
:100A60002286930485B0CA85130585B0EFA0F008EF
:100A7000B707002023A48718370400201304C419E3
:100A80000840B7070020854523AA9718EF20D00615
:100A900008407D57854605468945EF20407037C59B
:100AA00000001305457DEFA0D07A054579B4EFF23B
:100AB0009FA6013719E10D4549B40145F5BF828074
:100AC000EFF27FA5A93F95BCEFF2FFA401112A84A4
:100AD000AE8468089305A10132C6813F0DC97247F3
:100AE00015453C333423A207D58F93968700A18305
:100AF000D58FC207C18391EBBC8532461D0798C0D4
:100B0000E5171EA2FD571CA0014505613DB4154522
:100B1000EDBFEFF25FA09307160013D787401D06C5
:100B2000238FF5FE2E85A38EE5FE93150601C18168
:100B30006515193F954711C181473E85FDBA96213C
:100B400015476398E608582130319306E07C220768
:100B5000518F131687002183598E42064182130755
:100B6000F6FF42074183AA870D4563E6E606EFF2EA
:100B70009F9AB8239433239005002207558F85460A
:100B800094A396219354360093F4F40F850696A10E
:100B90009376760081C6850493F4F40F84B396218E
:100BA0002E8413852700850696A19315870021833F
:100BB0004D8F93051700C2058146C181EF00A07FCC
:100BC00001C5BD216FF07F971E200145BE9406A090
:100BD000D5BF0D45828082809A2195476311F70623
:100BE00058218D4731EF38311306D00F9306F7FFA8
:100BF00093F6F60F6376D604EFF2FF913C210C31A9
:100C00004111A207CD8F93958700A183CD8F938546
:100C10001700130717F0C20513371700854605465E
:100C2000C1816800A30601005886EF00C0788147A3
:100C300019C1FD2EAA873E8541016FF01F908D4797
:100C40003E85828096211547637FD7065821303133
:100C5000AA872207518F131687002183598E4206D7
:100C6000418213573600937676001377F70F81C6CB
:100C700005071377F70F9306F6FFC206C182130824
:100C8000F07A0D456363D804D4336390E604EFF241
:100C90009F88B8232E848C332207138567004D8FDD
:100CA000931687002183558F050793150701854605
:100CB000C181EF00407001C5A52E6FF01F889547D8
:100CC0001EA00145DDBF0D4582808280962115471B
:100CD0006396E608582130319306E07C2207518F55
:100CE000131687002183598E420641821307F6FFAF
:100CF00042074183AA870D4563E4E606EFF2BF8110
:100D0000B8239433239005002207558F894694A376
:100D100096219354360093F4F40F850696A19376AA
:100D2000760081C6850493F4F40F84B396212E8453
:100D300013852700850696A19315870021834D8F83
:100D400093051700C205C1818D2D01C5D5246FF013
:100D5000CFFE1E200145BE9406A0D5BF0D45828062
:100D600082809A219547631BF702EFF2CFFA3C216C
:100D70000C318546A207CD8F93958700A183CD8F37
:100D800093851700C2050546C1810D05452B814796
:100D900019C1792CAA873E856FF02FFA8D473E85C1
:100DA0008280EFF24FF79A21954463F6E4065821CA
:100DB0003031930670072207518F13168700218365
:100DC000518F1316070141821307F6FF4207418333
:100DD000AA870D4563ECE602D43313171600137788
:100DE000F70F6395E602B8232E848C332207138510
:100DF00067004D8F931687002183558F0507931544
:100E000007018546C1811D2B01C51D246FF0EFF23E
:100E100006A00145E5BF0D45D5BF9621154763994D
:100E2000E606EFF24FEF54211306C007AA8793940A
:100E30000601C1801387F4FF420741830D456361BA
:100E4000E6042E84B8238C332310040088A31220D8
:100E500086062207050612A04D8F94B393158700CE
:100E6000162021834D8F930517008506C20516A015
:100E700026868146C18113852700C92101C54D2AD7
:100E80006FF0AFEB1E2086040145BE9406A0CDBFD7
:100E90000D4582809A21A54763F0E70EEFF20FE639
:100EA0005C2138312A84A207D98F93998700A183C6
:100EB000B3E7F9009399070193D909019387F9FFE3
:100EC000C207C1831307C0070D456365F70A1C24D9
:100ED000703013078007A207D18F13968700A18374
:100EE000D18F1396070141829307F6FFC207C18392
:100EF0006362F708183493171600639DE7062420F1
:100F00002E890C30A2047C20CD8C4C30A207854663
:100F1000CD8F93958700A183CD8F93851700C20550
:100F2000C1811305A400192931E923100900DD4707
:100F30001CA083570900139A190093958400850714
:100F40002310F900A300440183570900A180CD8C30
:100F5000938514008507C2052310F90081464E864B
:100F6000C18113052400D92E11E9835709003E9A47
:100F7000231049016FF0CFDB014582805528DDBF8A
:100F800096211547639FE606582130319306B00736
:100F90002207518F131687002183518F13160701E3
:100FA00041821307F6FF42074183AA870D4563EC90
:100FB000E604EFF24FD62E843E858C331147BC23D6
:100FC0002310040018A11A20A20793141600050785
:100FD0001AA004B1CD8F939587001A20A183CD8FDD
:100FE000938517000507C2051AA0C18109052D26A2
:100FF00001C53D286FF06FD41E200145BE9406A0A8
:10100000D5BF0D4582808280EFF2EFD0B707002078
:1010100003D4071AAE84B72500202286938505C124
:101020000505EFA0802D050482A001456FF0EFD0EB
:101030009D4763E7A7009387C184AA97882382808E
:1010400011458280EFF22FCDEFF07FA62A8419C5DB
:10105000054723A8E18022856FF02FCEEFF02FD92E
:1010600029C9B7170000370700209387E7AB232A69
:10107000F71AB717000037070020938707AC232C17
:10108000F71AB717000037070020938787AC23248F
:10109000F71AB717000037070020938727B12326D8
:1010A000F71AB707002023A8071A7D57238AE18083
:1010B00045B70D444DB7EFF20FC6138401811840B8
:1010C00085471945631AF700B707002083A7471B18
:1010D00082970145232004006FF02FC6EFF2AFC3C3
:1010E00083A7018141111944639B070E6800EFF04B
:1010F0002FD20547AA876304E5000144CDA03247FB
:101100006301A70A8946E31AD7FE370400200325A6
:10111000041CB7060020B70400200C21370700206C
:1011200023A2F41A13060700238EB61A814713046C
:10113000041C1389C61B9384441A130707004148F3
:10114000142281CE6391D50A8E07BA97DC43B70586
:1011500000209385651C829788C0B707002083C74D
:10116000471CC1DF9440B70700209387671C85C2E6
:1011700003470900104085458EA3136707F818A29E
:1011800092231840930516008EA3329714A392233E
:10119000370700200327C71A0C4003C54181029777
:1011A000A9BFB707002083A7871A37050020370695
:1011B0000020B70500209304451C1306661C938588
:1011C000051C1305451C82972A8405F99C2003C73A
:1011D00041816303F70095F30945EFF00FC22285C3
:1011E00041016FF08FB585072106E39B07F5B5B781
:1011F0007300203037C500001305057EEFA050199D
:10120000EF30205DAA8537C500001305457FEFA0AC
:101210005004EF30605CAA8537D500001305458087
:10122000EFA03003EF30A05BAA8537D5000013058F
:101230004581EFA0100201A0397106DE16DC1ADA32
:101240001ED82AD62ED432D236D03ACE3ECC42CA7E
:1012500046C872C676C47AC27EC0EF10E03B130562
:101260000008EF00407CF250E2525253C253325514
:10127000A255125682567247E2475248C248324E31
:10128000A24E124F824F216173002030EF10B01B2D
:10129000730020302945EF00905385453705004005
:1012A000EF00903973002030EFF2EFA6EF10E077F7
:1012B000EF40E06819C1EFF0CFE30545EF20903B28
:1012C000F5B7B707002003A5071D8280EFF2AFA492
:1012D00041118545114502C202C402C6EF00B01B90
:1012E0008D477C8237150140C1473EC64C008D4773
:1012F000130505803EC42D2F41016FF00FA401CDD1
:10130000EFF26FA1AA8537D5000013054582EFA043
:1013100040746FF08FA2828089C5B295AD4763DCBF
:10132000B700054582807D162300050042060905A9
:10133000A30F05FE418265FA01458280AA87B5C9DF
:101340003387C5002D4805456346E80685CE054729
:1013500001456391E606372700208605130707C37A
:10136000BA95890505CA983394237D162207558FAF
:10137000931687002183558F42068907239EE5FE39
:101380004182C5B7372700208605130707C3BA95E2
:10139000890519E20145828003D7C5FF7D168907BB
:1013A00093568700238FD7FE4206A38FE7FE418224
:1013B000C5B7054582800545828005458280EFF2EC
:1013C0008F950945152F6D22EF30602B7165130540
:1013D0000520EF30E03383A5818137D50000130568
:1013E0004583EFA00067512EAA8537D5000013056D
:1013F0004584EFA00066B7D5000037D5000093857F
:1014000045851305C585EFA0C064C935EF10705739
:10141000B707002023A8A71CEFF0AFA9B70700204B
:10142000B7D50000371500009387C71C15478146C4
:10143000130600209385C5871305852AEF20804F6A
:10144000B7070020B7D50000371500009387871C29
:101450001547814613060020938545881305C595D9
:10146000EF20404DEF20406B37D400001305C488B7
:10147000EFA00072E5BFB71702409843B706FFF828
:1014800041111367170098C3D84337060200758FC0
:10149000D8C39843B706F7FEFD16758F98C39843D7
:1014A000B706FCFFFD16758F98C3D843B70681FFBA
:1014B000FD16758FD8C39843B70600ECFD16758FDF
:1014C00098C33707FF0098C723A6070202C402C6C5
:1014D0009843C166558F98C3B716024005679C4272
:1014E000F18F3EC6A24785073EC4B24781E7A247B7
:1014F000E397E7FEB71702409C431397E700635753
:10150000070685473EC632478547631FF704B7176E
:101510000240D843B706C1FFFD16D8C3D843D8C38D
:10152000D84313670740D8C3D843758FD8C3D8436F
:10153000B7062900558FD8C39843B7060001558FC9
:1015400098C3984393166700E3DD06FED843B716A9
:101550000240719BD8C3D84313672700D8C32147E3
:10156000DC42B18BE39EE7FE4101828002C661BF8F
:10157000371602405C429146B18B138781816385A7
:10158000D700A1466388D702B7177A009387072050
:101590001CC3B7170240DC43918393F6F700B707EB
:1015A000002093870708B69794231C43B3D7D7002E
:1015B0001CC3828054425042C167C982BD8A7D8E5D
:1015C0009387260085CABD466389D702C1466389D1
:1015D000D702C54581466393B700C1470DE637463C
:1015E000024003260680418A15C637167A00130684
:1015F00006202DA08146C947D5B78546B547F9BF16
:101600008146BD47E1BF3716024050429315E600C0
:10161000E3DD05FC37163D0013060690B387C702CD
:101620001CC3A5DA1C438583A5B701A001A001A0B6
:1016300001A001A001A001A001A001A001A001A0A2
:1016400001A001A001A001A001A001A001A001A092
:1016500001A001A001A001A001A001A001A001A082
:1016600001A001A001A001A001A001A001A001A072
:1016700001A001A001A001A001A001A001A001A062
:1016800001A001A001A001A001A001A001A001A052
:1016900001A001A001A001A001A001A001A001A042
:1016A00001A001A001A001A001A001A001A001A032
:1016B00001A001A001A001A001A001A001A001A022
:1016C00001A001A001A001A001A001A001A001A012
:1016D00001A001A001A001A001A001A001A001A002
:1016E00001A001A001A001A097F1FF1F938181211A
:1016F00017F100201301019117B500001305453DB6
:1017000097F5FF1F938505901386018863FAC5003E
:101710008322050023A0550011059105E3EAC5FECB
:1017200017F5FF1F130505A697A50020938505FF54
:101730006377B500232005001105E36DB5FEFD427A
:10174000739002BCFD4273904280B7820000938286
:10175000028073A0023097F2FFFF9382228E93E201
:10176000320073905230EFF01FD197020000938245
:1017700042C57390123473002030B7F7FF1F03A5E2
:1017800047708280EFE23FD9854511656D2B814519
:101790001165552B6FE07FDA930700043CC1930776
:1017A00000027CC1930700087CD123200500B70705
:1017B00000042322050023240500232605002328F6
:1017C0000500232A0500232C0500232E05002320D5
:1017D00005022322050223240502232605022328CD
:1017E0000502232A0502232C0502232E05022324A9
:1017F00005042326050423280504232A0504232C95
:101800000504232E0504232005062324050623268C
:10181000050623280506232A0506232C0506232E64
:1018200005062320F508B70700022322F508232226
:10183000F50AB7070200370720002326F50A9307A9
:101840000010232405082326E50823280508232A59
:101850000508232C0508232E05082320050A232428
:10186000050A2328F50A232A050A232C050A828063
:10187000411102C6B78602409C4A41672E057D177A
:10188000F18B798D9A055D8D93F5057CC98D93E576
:101890001500B70750008CCAF917324705073AC63A
:1018A000984A058B01C73247E3F9E7FE3247B7078D
:1018B0005000FD1701456307F700B7870240C84B8A
:1018C00042054181410182804111B787024002C631
:1018D000984BC166FD162E05758D718B9A05598D35
:1018E00093F5057CC98DD0CB93E535008CCBB7073C
:1018F0000500B7860240F917324705073AC6984AED
:10190000058B01C73247E3F9E7FE3245B70705000B
:10191000FD173335F50041018280B707002023AC65
:10192000A71C2A878147B708104013030060130ED5
:10193000F6FF6396C700B797024088CB8280B386D4
:101940006702232017012A88AE9614C79306070161
:1019500063F3C70136882326070185073687D1BF81
:10196000B7070020916623AAA71C0147AA8737035F
:10197000008093860660130E0060930EF6FF6316D8
:10198000C700B7970240C8C782803308C70323A0A7
:101990006700D4C3AA882E9823A4070113880701DF
:1019A0006373D701C28823A617010507C287C1BF89
:1019B000379702401C4393E717001CC38280B797F8
:1019C0000240C8CB8280379702401C4FB7061000F8
:1019D000D58F1CCF8280EFE21FB4378402401C40B9
:1019E00093E787001CC0C5371C40896693E7470012
:1019F0001CC0B7970240984F558F98CF984F1367E8
:101A0000270098CF6FE07FB399C5379702405C4FAE
:101A10005D8D48CF8280B7970240D84F1345F5FFC0
:101A2000798DC8CF8280B707014023AAA740828062
:101A30009C4513F7070113F8F70001C7D841336835
:101A4000E8008E2113F7F50F39C318418146854E02
:101A50003D4F930F800293028004214E3396DE00A7
:101A6000B3F8C500631116039398260033131F01C2
:101A70001343F3FF3377E300B318180133E7E800AB
:101A8000639FF70550C98506E39AC6FD18C1130781
:101A9000F00F6375B70454412146854E3D4F930FB7
:101AA000800293028004414EB398CE0033F71501B3
:101AB0006392E8021317260001173313EF00134354
:101AC000F3FFB376D3003317E800D98E639DF70197
:101AD000232A15010506E319C6FD54C18280E3944B
:101AE00057FA10C94DB7E39757FE23281501DDB704
:101AF0000CC982804CC98280B707002023AEA71C86
:101B00008280371702405C439146B18B6385D700D2
:101B1000A1466382D706B7177A00938707201CC1B6
:101B2000371602405C4237070020130707099183EC
:101B3000BD8BBA9794231C41B3D7D7005CC15442E4
:101B4000A1829D8ABA969422B3D6D70014C5544276
:101B5000AD829D8A36971823B3D7E7005CC55842FB
:101B60003983937637001387C18136971823B3D70B
:101B7000E7021CC982805C435843C166C983758FE4
:101B8000B7F6FF1F83A6C670BD8B89071396160193
:101B900063480600C54601466392D702C94739A883
:101BA0008946638FD702BD46638ED702C146638ED6
:101BB000D702C54601466393D700C1471DEF37479B
:101BC000024003270780418B05C737177A001307A8
:101BD0000720B307F7021CC121D61C41858381B7BA
:101BE00001466DBF0546B547D1BF0146BD47F9B7B0
:101BF00037173D0013070790E9BFB7150240D855C6
:101C00009316F700D85563DF060411833D8B9306C6
:101C1000170037177A00130707203357D70218C168
:101C2000D455A182BD8A8DE295463307D70205833C
:101C300018C137170240585714413D8B050733D759
:101C4000E60218C1184171B785456394B600E546B0
:101C5000E9BFBD456396B600D1463387E602C9BFEA
:101C60008906E5BF3D8B9306170037177A001307E7
:101C700007203357D702F1B799C5371702405C4B9D
:101C80005D8D48CB8280B7170240D84B1345F5FFD6
:101C9000798DC8CB828099C5371702401C4F5D8D66
:101CA00008CF8280B7170240984F1345F5FF798D12
:101CB00088CF828099C5371702405C4F5D8D48CF31
:101CC0008280B7170240D84F1345F5FF798DC8CFF2
:101CD00082809357550005476399E700B717024084
:101CE0009C4333D5A7000589828009476396E700A6
:101CF000B71702409C53F5B7B7170240DC53D5B76E
:101D0000371702405C5793F7F7F05D8D48D7828014
:101D1000B7160240DC5645777D17F98F5D8DC8D622
:101D2000828009C9371702401C43B7060010D58FBF
:101D30001CC38280B71602409C42370700F07D1713
:101D4000F98F9CC2828099C5371702401C575D8D60
:101D500008D78280B717024098571345F5FF798D51
:101D600088D782801E2137370140930607C0C207FB
:101D7000C1836300D504B7060040630CD502938687
:101D800006406308D502B71600401386068063023A
:101D9000C502938606C0630ED50013070740630A89
:101DA000E50037570140930607C06304D50063166A
:101DB000E500BA2193F7F7F8D98F37170040630C85
:101DC000E500130707406308E50093F7F7CFFA2112
:101DD000C207C183D98F1EA1DE215EB59E211EB52B
:101DE000B7370140138707C0630EE50093870740AC
:101DF000630AF500B7570140138707C06304E50085
:101E00006314F5009C251EB985475EA982801E21BA
:101E100089C593E717001EA18280C207C183F99B81
:101E2000C207C183CDBF5E2501C6DD8D4EA5828070
:101E300093C5F5FFFD8DDDBF93C5F5FFC205C181DB
:101E40000EA98280EFE22FED1629F577FD17F58FA9
:101E5000F621DA257971D58F1EA95625FD7793874E
:101E6000379FF58FD6212A842EC6D58F9625D58FFC
:101E7000B625D58F5EA55E29C207C18393F7F7CF3C
:101E8000D98F5EA96808B539B747014093870780A5
:101E9000B245631AF404A25756246547B387E70294
:101EA000C206C186984163D2060406075224420640
:101EB000B3D7E702130740064186B3D6E702B3F76C
:101EC000E7029206635506028E0793872703B3D76E
:101ED000E70213F77700B367D700C207C1831EA4D8
:101EE00045616FE08FE5925745BF0A07C1B792077A
:101EF00093872703B3D7E702BD8BD58FF9BF91C571
:101F00005E250967D98F5EA582805A25F977FD176E
:101F1000F98FD5BF93F5F51F4EA182800A216D8DF3
:101F20003335A0008280B706002083A7861D984322
:101F3000634B07029843370600304E05518F98C314
:101F40009843370600804D81518F98C3C8C38CC712
:101F500037970240114650CB23220700DC47054546
:101F600023ACF61C828001458280EFE2CFDA854700
:101F700089456318F50037150140EFF07FB76FE032
:101F8000CFDB37150140EFF0FFB6D5BFEFE2AFD89A
:101F9000854785456318F50037150140EFF05FB5BB
:101FA0006FE0AFD937150140EFF0DFB4D5BF37F799
:101FB000FF1F81471307D77E99463306F7400C224F
:101FC0003306F50085070CA2E399D7FE8280B70798
:101FD00000209387C71E98433A9588C38280B7072D
:101FE000002003A7C71EB707002023A4E71EB7875A
:101FF000024003A7471C41E303A74719894763FC35
:10200000E706EFE24FD1370400200355C41FF9451E
:102010001304C41FEFF0DF8593572500858BB9C7E4
:102020004D99131605010A204182F945EFF0DF8929
:10203000378702408327071093E717002320F71004
:1020400083270710858BEDFFB787024003A7471C46
:1020500001CF370700202308071ED843B7060080AA
:1020600093C6E6FF758FD8C36FE02FCD136545008B
:10207000420541817DB7B787024003A7471C09CFBE
:10208000370700202308071ED843B706008093C6F1
:10209000E6FF758FD8C382808280EFE22FC63704B7
:1020A00000209304C41F8A2095451304C41FEFF039
:1020B0002FFC2A898A208545EFF08FFB9377F90161
:1020C000370900201309A91F6380071683470900F9
:1020D000C1E70A20854737070020F9452300F900AA
:1020E000A30CF71EEFF0CFF81376C5FF42069377E7
:1020F00015004182B9CF136626000A20F945EFF09A
:10210000AFFC0A208145EFF0AFF61376E5FF4206FB
:102110000A204182136606208145EFF0EFFA0A207B
:102120008145EFF0EFF4136635200A204206418224
:102130008145EFF06FF9B707002083A7471F13070A
:102140004006B3F7E702938727032380F1826FE00D
:102150002FBE1366160055B705476399E7008947F8
:102160002300F900B7070020A38C071E9387A190D6
:102170000387070063460706938411829420214752
:10218000639AE6040A20F945EFF08FEE1376350FD7
:102190000A20F94590A0EFF02FF3238004000A20D5
:1021A0008145EFF0EFEC1376E5FF42060A2041820D
:1021B000136606208145EFF02FF10A208145EFF0EC
:1021C0002FEB136635200A20420641828145EFF04D
:1021D000AFEF21A0130700F898A32384019085BFD7
:1021E0009387119198239306170094A39546E316BD
:1021F000D7FE1375050275F19384118223800700C1
:102200009C2011490A20F945E38027F9EFF04FE6B9
:102210001376350F0A2013664600F94590A0EFF0BB
:10222000AFEA23802401A5BF034709008547631453
:10223000F708370700201307971F1C23A1468A20A1
:10224000850793F7F70F1CA3639BD70023000700B4
:10225000230009002146F945EFF00FE7CDBDF94510
:10226000EFF00FE11376C5FF420693771500418228
:10227000A1C3136626000A20F945EFF0EFE40A2017
:102280008145EFF0EFDE1376E5FF42060A2041823A
:10229000136606208145EFF02FE30A208145EFF019
:1022A0002FDD136635204206418281450A206DB735
:1022B00013661600C9B713848190834A0400138AF9
:1022C000A19083460A0093871A001307000893F72A
:1022D000F70F6394E6063D476384EA001CA085BDC2
:1022E0008A2023000400230009001384118221495D
:1022F0002146F945A388019023000A002300240108
:10230000EFF08FDC230024018A208145EFF04FD6C7
:102310001376E5FF42068A20418213660620814536
:10232000EFF08FDA8A208145EFF08FD413663520E5
:102330004206418281458A2005B79389118203C7ED
:1023400009001DE71147E39BEAF88A20F9452300BD
:102350000400EFF0EFD11376350F8A2013664600A4
:10236000F9452380C900EFF02FD62380590169BFBA
:1023700091466318D7023D47E392EAF68A2023008C
:10238000040021442146F945A38801902300090057
:1023900023000A0023808900EFF00FD323808900F7
:1023A000A5B71CA093074006E393FADA8A202166BA
:1023B0008145EFF06FD123880190A3880190B70782
:1023C00000202388071EA1472300040023000900E2
:1023D00023000A002380F9002146F945A9BFEFE256
:1023E0008F939387919098231377F70F2DCB37070F
:1023F00000200327C71E83A6C190158F9306301FA8
:1024000063FDE604374702402380070083270780E7
:10241000370400201304C41F0A2093E74700232039
:10242000F78021668145EFF02FCA23880190A388A9
:10243000019023840190B7070020238D071E0A20F6
:10244000B70700202388071E2385019021472146D6
:10245000F945A380E182EFF02FC76FE00F8E13895B
:10246000019183470900370400201304841FC5E34A
:10247000B707002083C6A71F05471389A71F9384AA
:102480000182636DD700B707002003D5C71F9545AC
:10249000EFF00FBE7D8919C12380040037070020AB
:1024A0009307C71E90439386C19094428C20158E4B
:1024B0009306C71E1387C1906363B60403460900E1
:1024C00085476313F604370600201306461F1C4297
:1024D000B745030093851540B387B702B7A526001B
:1024E000938595ECAE971CC213064006B3F7C7025E
:1024F000938727039CA09C421CC3EFF01FBA1C20AB
:10250000A9DF2300040091BF93072003E5B71C2037
:10251000B70400209384041FB5C7B707002083A722
:10252000C71E03A7C190998F1307900F637CF70410
:1025300023000400370400201304C41F0A2085452B
:10254000EFF00FB39377450095EFEF20A0460A20F8
:1025500021668145EFF04FB7A38801902384019055
:102560000A20B7070020238D071E238501902147ED
:102570002146F9452300090023800400A380E1825D
:10258000EFF08FB49C20E38A07ECB70700203707F1
:1025900000200327871E83A7C71E998F13073006C5
:1025A000E37DF7EAEFF0BFA34DBDEFD2DFF64111B7
:1025B0008545414502C202C402C6EFF0CFED8D470A
:1025C0007C82C1473EC64C008D47371501403EC452
:1025D000EFF00FC6894537150140EFF06FD1854503
:1025E00037150140EFF0CFD041016FD01FF5EFD28A
:1025F0009FF20145EFF0EFF24145EFF06FF03565E6
:10260000EFF00FF10545EFF0CFF11305D003EFF038
:102610004FEC65DD6FD07FF2EFD2FFEF370900207E
:102620001304C91F0A2095451309C91FEFF04FA4D1
:10263000AA840A208545EFF0AFA3937745002A844A
:1026400085C79DE03747024083270780ED9B232005
:10265000F7800547A384E190B707002003A7C71EB2
:1026600023A6E1906FD07FED2285EF20A034137474
:102670004402930740026312F40A03550900C1455E
:10268000EFF00F9F1189B786024019E5FD88854755
:10269000B7860240638DF4069C42056713070780E6
:1026A000D98F9CC2B78702409843D176FD16758FAB
:1026B00098C391462388D190D843B70600808506F9
:1026C000558FD8C303A707101367170023A0E7107F
:1026D0003787024083270710858BEDFFB70700205F
:1026E00005472388E71EB707002003A7C71EB707C3
:1026F000002023A4E71EEFF00FAEB78702409C43F3
:1027000037070020AD83858B2302F71EA1BF9C42B3
:102710007D771307F77FF98F69B737470240832723
:102720000780ED9B2320F7800547A384E190B7073E
:10273000002003A7C71E23A6E190C1B7EFD21FDC7C
:10274000317137960240B7067000370760005C4A67
:10275000F58FE39EE7FE83C701919384019185CBBA
:10276000370400200355C41FF9451304C41FEFF0BC
:102770002F901376C5FF420693771500418263843C
:102780000724136626000A20F945EFF0EF93096449
:10279000EFF00FA213040471379902407D14420434
:1027A00029454180EF10107009C483270900858BEB
:1027B000F5F74800EFE05FFE85473EC29307002033
:1027C0003ED6B70700023EC58566930700083ECD9A
:1027D00037072000138906809307000437840240DE
:1027E0003AC94AD202CC02D002D802DE82C482C8E0
:1027F00082CA82CC02C33ECF02D31C48938616A065
:10280000378501808D9B1CC8B245A2471040130537
:10281000150CCD8FB78520FF9385F5106D8ED18F68
:102820004246B7950240D18F5246D18F7246D18F22
:102830002256D18F5256D18F6256D18FD58F1CC060
:102840001C40B7061000D58F1CC086479646D58F12
:10285000B646D58F5CC0F6471CC486575CC4365656
:10286000A657144CD18F4656D18F5656D18F6656E7
:10287000D18F4166130616F4F18ED58F9656C20697
:10288000D58F1CCC8A46F657D58F5CCC5A46BA47B2
:10289000944DD18F3746DEF8130636F2F18ED58F80
:1028A0008A5637060020D58FB70620029386060C7D
:1028B000D58F9CCD9306C618DC32CC22A207CD8FD3
:1028C0003CC08346D6188347C6188545A206DD8ED0
:1028D0008347E618C207DD8E8347F618E207D58FD7
:1028E0007CC0B70702002328E41093870702232641
:1028F000F410EFF06F9137250020B74500209309C1
:1029000045CB09469385456D130545CBEFF0EF8028
:1029100037250020B7250020130A45C41D4693859E
:1029200045CD130545C4EFF0AF8323A0419123A209
:1029300031911C407D771307F77FF98F1CC0B707D3
:10294000002083C7471E91C71C4033E9270123207D
:102950002401B78602409C4251777D17F98F9CC2B3
:10296000EFF06F879C20370400201304C41FB9EFD9
:102970000A2021668145EFE03FF5A388019023847A
:102980000190B7070020238D071E0A20B7070020FB
:102990002388071E2385019021472146F94523807E
:1029A0000400A380E182EFE03FF2B7070020054773
:1029B000238CE71EB707002003A7C71E23A6E190BC
:1029C00029616FD0FFB61366160075BB0A20F94562
:1029D000EFE01FEA1376C5FF4206937715004182A8
:1029E00091CB136626000A20F945EFE0FFED9C200D
:1029F000CDFFBDBF13661600FDB7B707002083A744
:102A0000071E1307000293F7070F639FE700B797AE
:102A100002409C533707FE1FF98F99C7EFD2BFAF13
:102A2000EFF0DFD16FD07FB18280EFD2DFAEEF1059
:102A30003077EF10305BEFF09F9AC1376FD0FFAF68
:102A4000EFD27FAD378702401C4B2E8481458D9B92
:102A50001CCB50411C411443D18F378620FF1306F5
:102A6000F610F18ED58F1445D58F5445D58F144966
:102A7000D58F5449D58F144DD58F544DD58F1451C2
:102A8000D58F5451D58F1455D58F5455D58F145992
:102A9000D58F5459D58F1CC31C43B7061000D58F52
:102AA0001CC3545D1C5DD58F3441D58F7441D58FC7
:102AB0003445D58F7445D58F3449D58F7449D58F1A
:102AC0005CC33C4D1CC77C4D5CC730557C51144FDA
:102AD000D18F4166130616F4F18ED58F7455379653
:102AE0000240D58F3459D58F7459D58F3451C206D1
:102AF000D58F1CCF745D3C5DD58F5CCF8326450898
:102B000083270508184ED58FB746DEF8938636F230
:102B1000758FD98F03278508D98F0327C508D98FCB
:102B200003270509D98F03274509D98F032785096D
:102B3000D98F0327C509D98F0327050A2285D98F85
:102B40001CCE2166EFE05FD82146F9452285EFE0F3
:102B5000BFD705456FD07F9EEFD25F9A3171854513
:102B6000AA847165EFF04F91854737090020231E35
:102B7000F91EEFF0DFA7374702408327078009647B
:102B80001304047193E747002320F780EFE09FBF11
:102B90001309C91FEFE0DFE1B79902407D14420439
:102BA00029454180EF10103009C483A70900858BA7
:102BB000F5F74800EFE05FBE8567938707803ED258
:102BC00085473EC2930700203ED683550900B707CC
:102BD00000023EC593070008370420003ECD4800A0
:102BE0009307000422C93ECF02CC02D002D802DEF5
:102BF00082C882C482CA82CC02C302D39135DC303F
:102C0000D820B7860240A207D98FBCC298309C203A
:102C10003785018022075D8FBC2085451305150C83
:102C2000C2075D8FBC30E207D98FFCC2B707020034
:102C300023A886109387070223A6F610EFE0DFDCB7
:102C400029616FD0FF8EEFD21F8DB7970240C04B26
:102C500013170401635C0702137704080DC73707D5
:102C600000200327071EC1461377070F6319D700FB
:102C7000F847B7060080584714C323A4070013057C
:102C80000008EFE0DFD32165EFE07FD39317F40076
:102C900063DA07029377040489C713050004EFE0A1
:102CA0001FD29377140081C70545EFE05FD16358C9
:102CB0000400EFF07F9637050080EFE05FD04165BC
:102CC000EFE0FFCF6FD07F87EFD2FF842A84130518
:102CD0004006EF109020EFE05FAAB707002023A086
:102CE000A71EEFF09F8C3C3058202285B98F5830BA
:102CF000B98F3747030013071740B387E70237A799
:102D00002600130797ECBA9737070020232AF71EEF
:102D1000A13537250020B7450020130445CB0946CF
:102D20009385456D130545CBEFE03FBF3725002068
:102D3000B7250020930445C41D46938545CD130552
:102D400045C4EFE0FFC123A0919023A281900967C1
:102D5000B7E700E023A4E710A38607446FD0EFFD98
:102D6000EFD26FFB3971930700603ECA9307405B57
:102D70003ECC8567938747273ECE930720033ED0FE
:102D8000930730103ED2B727554089073ED4B72766
:102D900000009387C7F83ED6B72700009387A7F6B1
:102DA0003ED8B7270000938767F23EDAB757341250
:102DB000938787672A8948082EC632C4B68402DC06
:102DC0003EDEEF20802E2A8411E92246B245A686F7
:102DD0004A85EF2060212A842685FD3522852161E0
:102DE0006FD0AFF59387C1929843636DA702D0432C
:102DF000B386C7006316D50054413E85B296D4C34E
:102E00005041B306C500631AD70083A641916306FB
:102E1000D70054431843B29654C118C16303F50058
:102E200088C38280BA87C9B7EFD24FED41112AC655
:102E3000EF00B05683A7419193864191138681910B
:102E40003245B1E7378700209307C73B93F5F7007A
:102E50001307C73B81C51387F700419B9385C19238
:102E600023A2050098C18D65C115AE97C19B23A211
:102E7000070023A00700B385E7409CC21CC323A022
:102E8000B19223AEB190B70700804CC31CC2032A95
:102E90000600B377AA0085E39307F5FF3957636C03
:102EA000F7009307050113F7F70025CF13F707FF86
:102EB000410763E7E70681442DA822872E84A5A851
:102EC00058C15CC005375840938601929042B307C1
:102ED000E94023A0F90063F3C7009CC23367EA000E
:102EE0009387419258C09843C104232004000507EA
:102EF00098C3EF00B06393F7F400D1C7A16793873D
:102F000007807390073037D6000037D500001306CE
:102F1000468C930500111305C58EEF80903301A0F8
:102F2000BA8703A9C1919389C191E366F9F803A413
:102F3000C1921387C19250406374F6000C40B5FDF6
:102F40009442E38A86F61440044314C33307F640E0
:102F500093060002E3F9E6F63305F4009376F500F4
:102F6000A5D2A167938707807390073037D60000FA
:102F700037D500001306468C9305F00C1305C58E5B
:102F8000EF80302D01A0268541016FD06FDA49CD49
:102F9000EFD26FD8032745FF83A781912A84B376A8
:102FA000F7009DE2A167938707807390073037D6BB
:102FB000000037D500001306468C93054012130518
:102FC000C58EEF80102901A0832605FF9DC2A16751
:102FD000938707807390073037D6000037D50000FD
:102FE0001306468C930550121305C58EEF8070268C
:102FF00001A093C7F7FFF98F232AF5FEEF00F03900
:103000009387C1919443032744FF130504FF369728
:1030100098C3EFF03FDD938781929843050798C3EB
:10302000EF00D0506FD06FD18280B7E700E04157FA
:103030002387E7402386E740B7F700E023A0070097
:1030400023A20700814694C70147D8C783A5818181
:103050001307401F814633D6E5023D4790CBD4CBC2
:1030600098C38280EFD22FCB411102C6F327503094
:103070003EC6B2470D478D8B6384E702A1679387F5
:1030800007807390073037D6000037D5000013064D
:1030900006919305600B1305C58EEF80901B01A070
:1030A000B707012093870700BD8B9DC3A167938756
:1030B00007807390073037D6000037D5000013061D
:1030C00006919305B00B1305C58EEF80901801A0F3
:1030D000A93FB7E700E0056723A0E710116723A029
:1030E000E71023A20182EFD0AFA1014541016FD0CB
:1030F000CFC473110134A1679387078073900730A1
:10310000B7F700E023A20700EF00502A11C5B7E788
:1031100000E0116723A0E720A16793878788739059
:1031200007307311013473002030A1679387078043
:1031300073900730938741829843050798C3828034
:10314000138741821C438DE7EFD2EFBCA1679387C1
:1031500007807390073037D6000037D5000013067C
:103160000691930520101305C58EEF80900E01A0E7
:10317000FD171CC391E7A167938787887390073079
:103180008280EFD24FB96145EFF01FCA2A8409C58A
:103190002320050011052D2422856FD00FBAEFD210
:1031A000EFB51DE1A167938707807390073037D68D
:1031B000000037D50000130686939305A01413056D
:1031C000C58EEF80100901A0B70900FFB3F93501E2
:1031D000AE8463840902A1679387078073900730E8
:1031E00037D6000037D50000130686939305B01438
:1031F0001305C58EEF80F00501A09DE1A1679387BF
:1032000007807390073037D6000037D500001306CB
:1032100086939305C0141305C58EEF80900301A01B
:103220002A89B28A368B3A8AEF1000120DE56304C0
:103230000A02A167938707807390073037D6000092
:1032400037D50000130686939305F0141305C58E39
:10325000EF80300001A0EF00501403240900B3F701
:10326000840063170B029DE78149630C0A02B335A2
:103270005001E20563050B00B7070004DD8D52869F
:10328000C58D13054900EF00F051D289014411A802
:10329000E39CF4FC63870A0093C7F4FFE18F2320CB
:1032A000F900EF00B028638C090211E5B7E700E0F0
:1032B000116723A0E720EF10600A931765002A84A6
:1032C00063CD0700EFF07FE603240900B3F7840025
:1032D000631A0B0091EBEFF0BFE6220421802285F8
:1032E0006FD00FA5E399F4FEE3870AFE93C4F4FFC1
:1032F000E18C23209900C5B7EFD24FA041111DE109
:10330000A167938707807390073037D6000037D5C1
:10331000000013068693930510221305C58EEF80D7
:10332000407301A0370700FF6D8F1DC3A16793870E
:1033300007807390073037D6000037D5000013069A
:103340008693930520221305C58EEF80807001A01F
:103350002A842EC69309C500EF0030041C40B245F4
:10336000084837090001CD8F1CC081447D19370AF8
:1033700000020C40639CA90093C4F4FFED8C04C0D0
:10338000EF00D01A084041016FD08F9A1841832A6C
:103390004500B377270113165700B3F6B70063450E
:1033A000060089E65685F1B7E39ED7FE93167700AF
:1033B00063D30600DD8CB3E54501EF00105DDDB79A
:1033C000930785007D575CC118C55CC51CC92320C7
:1033D000050082802328050082809841FD569307CE
:1033E0008500631ED7001C49D843D8C10CC79CC5B3
:1033F000CCC31C4188C985071CC18280B687D443D1
:103400009042E37DC7FECDB7544118451C4998C68C
:1034100054C3D4436393A600D8C39843232805001C
:103420007D1798C388438280EFD2EF8E41112AC660
:10343000EFF0BFCF3245005DEFF09FD013351400A1
:1034400041016FD08F8F304115C2EFD2CF8C5845DC
:103450001445AA87329758C56364D700184158C5E8
:103460002E85CC47EF7070696FD02F8D8280EFD2A0
:103470008F8A2A84EFF07FCB8344540413094402DB
:10348000E204E18463489002FD57A302F404EFF0E4
:103490003FCBEFF09FC98344440413090401E204C5
:1034A000E18463459002FD572302F404EFF05FC905
:1034B0006FD0AF885C50E9DB4A85EF00503F19C1FF
:1034C000EF001068FD14E204E1846DBF1C48E1DFE9
:1034D0004A85EF00D03D19C1EF009066FD14E2046B
:1034E000E184C1B7EFD22F8341111DE1A16793871A
:1034F00007807390073037D6000037D500001306D9
:103500004695930500111305C58EEF80805401A0E8
:103510005C5D2EC62A84BDC73841B3B7E702BDE360
:10352000EFF0BFC03040585C1440232C0402B307B6
:10353000E602B24554C03387F600918FB6975CC45B
:10354000FD572302F40418C4A302F4049DE11C48AF
:1035500099CB13050401EF00903511C5B7E700E0E2
:10356000116723A0E720EFF0BFBD054541016FC003
:10357000DFFC13050401EFF0BFE413054402EFF094
:103580003FE4D5B7A167938707807390073037D69C
:10359000000037D500001306469593055014130517
:1035A000C58EEF80004B01A0EFC2FFF6411131C183
:1035B000B3B7A502AA8495EF3305B502930770FB54
:1035C00063E9A702130585042EC6EFF0FF852A8460
:1035D00009CDB245AA8799C1930785042CC01CC0A8
:1035E00044DC85452285EFF0FFEF228541016FC065
:1035F000DFF4A167938707807390073037D6000008
:1036000037D50000130646959305601C1305C58E3B
:10361000EF80204401A0EFC29FED011132C61DE1F1
:10362000A167938707807390073037D6000037D59E
:10363000000013064695930510551305C58EEF80BF
:10364000404101A02A84AE898DE53C419DC3A1671C
:10365000938707807390073037D6000037D5000076
:1036600013064695930550551305C58EEF80603EB1
:1036700001A0EF00704D15E5B247014985C7A1676C
:10368000938707807390073037D6000037D5000046
:10369000130646959305A0551305C58EEF80603B34
:1036A00001A001497D5A930A440237EB00E0916B77
:1036B00085A8B24789E7EFF0BFA8014559A863156F
:1036C00009002808EF00103BEFF09FA7F921EFF069
:1036D000DFA583474404E207E1876394470123029F
:1036E000040483475404E207E18763944701A3027B
:1036F0000404EFF0FFA46C002808EF00903835E1D7
:103700002285EFF07FD229C9B2455685EF005005DA
:103710002285EFF0DFD5192D19E123207B21054902
:10372000EFF0BFA0045CD1D4CE852285FD14EFF06C
:103730009FD104DC1C4899CB13050401EF0030171E
:1037400011C5B7E700E0116723A0E720EFF05F9F06
:10375000054505616FC03FDD2285EFF05FD1F9239C
:103760007DBF2285EFF0BFD0D1232285EFF0DFCBE4
:103770005DD5A1B715E5EFC21FDAA1679387078072
:103780007390073037D60000856537D500001306E3
:103790004695938585AC1305C58EEF80802B01A0DF
:1037A0009DCD37B600209306C63B814701471306DF
:1037B000C63B214883A846006398A80093173700AA
:1037C000B2978CC3C8C321A891E783A8060063936E
:1037D0000800B6870507A106E31E07FDFDF38280FA
:1037E000EFC27FD341112A842EC632C4EFF0FF937B
:1037F000834744047D572246E207E187B24563943C
:10380000E70023020404834754047D57E207E1875D
:103810006394E700A302040432C62EC4EFF05F9263
:103820001C5CA245324689E713054402EF001001F3
:103830002285EFF0DFC341016FC03FD01387819332
:103840001C4394439387819581E67D5798C382807A
:10385000184358471843DDBFEFC25FCA93844193B2
:1038600083A981962A849C4088404111A38807043B
:1038700011052EC6EFF05FB97D5793874193B2458E
:10388000631CE40295C9B7B700209387475694405C
:10389000D84398C610479440D0C69440104791062C
:1038A00054C29440910614C798405CCB98430507D6
:1038B00098C341016FC0DFC798434E9440C36379FA
:1038C000340103A5C1938C439105EFF01FB1D5B727
:1038D00003A581938C439105EFF03FB093878195C9
:1038E0009843E378E4FC80C3E9B7EFC23FC137B443
:1038F000002013048457938441949C40EDDFEFF043
:10390000DF825C4403A9C70013054900EFF0DFAF75
:10391000138701941C43FD171CC39C40FD179CC0DA
:10392000EFF01F8203250903EFF06FE64A85EFF001
:103930000FE6D1B7EFC2BFBB13192600AA8A4A858A
:103940002E8A368BBA8BBE89EFF00FCE1DC1AA84AA
:1039500013054005EFF04FCD2A8409C904D98147EA
:10396000C146631A0A00230A050225A02685EFF046
:103970000FE27D5571A23307FA00030707003306F3
:10398000F400230AE60201C78507E396D7FEA301E8
:103990000404B94763F47703A167938707807390A2
:1039A000073037D6000037D50000130686969305FA
:1039B00070391305C58EEF80C00901A0130A4400B9
:1039C0005285232674032322740523240404EFF074
:1039D0007FA013058401EFF0FF9F3D471305C9FF4A
:1039E00033077741269500C818CC40D0230604043D
:1039F000A306040423070404A307040423080404FF
:103A0000A30804045A86D6854199EFC07F9F08C059
:103A10006384090023A08900EFF02FF193870194BC
:103A20009843B7B90020050798C3138741931843FB
:103A3000938441931389C93F6316070C80C0984350
:103A400085476312F7069389C93F930AC9124E85C9
:103A5000D109EFF0FF96E39C3AFF37B50020930AB7
:103A6000855213058552EFF0BF9537B500209309B5
:103A7000C5531305C553EFF0BF9437B500201305A8
:103A80000555EFF0FF9337B5002013058557EFF08C
:103A90003F9337B5002013054556EFF07F9223ACD6
:103AA000519323AE31939387C1949843050798C3EC
:103AB000138701955C54144363F3F6001CC351470C
:103AC000B387E702CA97D843144718C454C41447AD
:103AD00023A246012324470198435CC8050798C3E5
:103AE000EFF00FE683A74196054599CB9C40D85748
:103AF0005C546377F700B7E700E0116723A0E72085
:103B00006FC07FA283A74196D9FF9C40D8575C54D1
:103B1000E3EBE7F880C041BFEFC2FF9FB7D50000DD
:103B200037450000938741950147814613060010F1
:103B30009385C5971305A58EEFF0DFDF0544631865
:103B40008502EF00502E63148502A16793870780DA
:103B5000739007307D5723ACE19423A2A19623A450
:103B60000196EFF02FD083A781826FC01F9DFD5774
:103B7000E31BF5FEA167938707807390073037D664
:103B80000000856537D50000130686969385058469
:103B90001305C58EEF70F06B01A093878194984355
:103BA000050798C3828003A58196828083A78194AC
:103BB00063970716EFC23F9693878196804305046B
:103BC00080C331E4938781939843184305C7A16765
:103BD000938707807390073037D60000856537D507
:103BE000000013068696938575AC1305C58EEF709D
:103BF000506601A01387C1939443104390C314C32C
:103C00009387C1959843050798C3EFF03FC3938707
:103C100081959C4337B70020138681951307C73FD2
:103C20009385419301456373F4029C41D146DC576F
:103C3000B387D7023E971843854763F3E7000545EE
:103C400083A7C19691C305456FC03F8F514F93879E
:103C500081939443944281E6FD571CC2F9B79C437B
:103C6000DC47DC47D4436374D40014C27DBF83A80F
:103C7000870003A8C700D44B1383470023A408017F
:103C80002322180183A846006394680023A206013A
:103C900003A8060023AA07007D1823A00601945755
:103CA00095CA03A8C70183A8070283AF460023244F
:103CB000180183A8070223A20801138887016394CF
:103CC0000F0123A2160103A8060023A407027D18F2
:103CD00023A006019386019503A8C70283A80600C6
:103CE00063F4080123A00601B306E803BA9683A88B
:103CF000460083AF880023A4170123A6F70183AFF2
:103D0000880023A26F0023A46800D4CB9C428507BF
:103D10009CC29C41DC57E36CF8F205450DBF9387CC
:103D2000019698430145050798C38280EFC20FFDB5
:103D3000138481941C40411185E7A1679387078014
:103D40007390073037D60000856537D5000013061D
:103D500086969385358B1305C58EEF70904F01A025
:103D6000EFF0AFBC1C40FD171CC01C4089CB0145C7
:103D70002AC6EFF0EFBC324541016FC06FFB83A74D
:103D80000194F5D7B7B6002037B500208147938658
:103D900006551305C53FD148854E59A8DC46DC477A
:103DA000CC4F9053985790C503A807022322B80020
:103DB00003284700938587016313B80050C310435D
:103DC00023A407027D1610C38C47D047D84B138815
:103DD000470090C54CC24C436393050150C3104348
:103DE00023AA07007D1610C313870195D0570C43F3
:103DF00063F3C50010C3330716032A974C4383AF00
:103E000085008CC723A6F70183AF850023A20F018D
:103E100023A405010C43D8CB85050CC3138741931C
:103E2000184358576366E6001387C1962320D701CD
:103E300098422DF799C3EFF07FA0138701960443B2
:103E40001384019689CC8549EFF05FD609C5938725
:103E5000C19623A03701FD14E5F82320040083A7B1
:103E6000C196E38607F0B7E700E0116723A0E720DB
:103E70000545FDBD19E5B7E700E0116723A0E72080
:103E80008280EFC24FE983A7819441119DC3A1674E
:103E9000938707807390073037D6000037D500002E
:103EA00013068696930590541305C58EEF70703AED
:103EB00001A02AC6EFF07FCE32458145EFF0DF99B1
:103EC000EFF0DFE611E5B7E700E0116723A0E72098
:103ED00041016FC08FE603A781949387C19601C704
:103EE000054798C3828023A00700138701951843D4
:103EF00013860195B7B700209387C73F5148B30693
:103F00000703B385D700884105C5C841A106BE9601
:103F10004841C8C16314D5005441D4C1D146B30649
:103F2000D702B697DC43D44723AAD19218C2828025
:103F300015E7EFC24FDEA1679387078073900730C4
:103F400037D60000856537D5000013068696938521
:103F500025C01305C58EEF70D02F01A07D1745B782
:103F6000EFC26FDB05E5A167938707807390073089
:103F700037D60000856537D50000130686969385F1
:103F8000C5C11305C58EEF70D02C01A02E8483A56A
:103F90004193E105EFF06FC485452285EFF0DF8B9B
:103FA0006FC0AFD9EFC22FD705E5A1679387078010
:103FB0007390073037D60000856537D500001306AB
:103FC0008696938565C31305C58EEF70902801A072
:103FD00083A7819485E7A167938707807390073053
:103FE00037D60000856537D5000013068696938581
:103FF000A5C31305C58EEF70D02501A0938741930B
:1040000094432A8737050080C98D8CCE54438C4356
:104010008846D4CD8C4388D18C438846E1054CC179
:104020008C439C433285E1058CC698D71C4385455B
:1040300085071CC3EFF05F826FC02FD0EFC2AFCDFA
:104040002A8705E5A167938707807390073037D6E5
:104050000000856537D5000013068696938525C533
:104060001305C58EEF70F01E01A093874193544352
:104070002E858C4303A88600D4CD8C4323A0050352
:1040800003A807008C46610823A2050103A80700C6
:104090009C43610823A4060198D71C4385071CC3D1
:1040A00011C27D55B285EFF02FFB6FC00FC95C4583
:1040B000DC4795E7EFC22FC6A1679387078073900F
:1040C000073037D60000856537D500001306869681
:1040D000938525C81305C58EEF70B01701A0D04F8A
:1040E000945398579385870114C6D0C250436313E5
:1040F000B60054C3144323A40702FD1614C303A738
:104100008194D45735E78C47D047D84B90C5D047DA
:1041100048434CC2938547006313B50050C3104316
:1041200023AA07007D1610C31387019510436373FC
:10413000D60014C351473386E60237B70020130771
:10414000C73F32975043084690C7C8C708464CC17E
:104150000CC6D8CB1C43014585071CC383A74193DC
:10416000DC5763F6D700054723A6E1960545828014
:1041700037B700201307075550430846D0CF88D3E0
:1041800008464CC10CC698D7F1B7EFC2CFB883A789
:10419000819485E7A167938707807390073037D6AE
:1041A0000000856537D50000130686969385A5CB5C
:1041B0001305C58EEF70F00901A0B7070080DD8DF3
:1041C0005C450CC185E7A167938707807390073032
:1041D00037D60000856537D500001306869693858F
:1041E00025CC1305C58EEF70D00601A050411445B3
:1041F000184914C61445D0C250436313A60054C3D3
:104200001443232805009047FD1614C3D447D84B08
:104210009385470014C6D447D0C250436313B600F9
:1042200054C3144323AA0700FD1614C31387019532
:10423000D45710436373D60014C351473386E60244
:1042400037B700201307C73F32975043084690C73F
:10425000C8C708464CC10CC6D8CB1C4385071CC335
:1042600083A74193DC5763F5D700054723A6E19662
:104270006FC0AFAC83A7C1951CC183A781965CC1F9
:104280008280EFC24FA9411105E5A167938707809E
:104290007390073037D60000856537D500001306C8
:1042A00086969385D5CF1305C58EEF70807A01A0D1
:1042B00085E5A167938707807390073037D60000A4
:1042C000856537D50000130686969385E5CF1305DF
:1042D000C58EEF70007801A02EC62AC4EFE0FFE47F
:1042E0001387419383A681961C432245B24583C719
:1042F000170599CB1C43A38807040544EFE05FE44E
:10430000228541016FC06FA39C417D570144E38723
:10431000E7FE03A6C1950328050058416307C800BE
:1043200063E5E60023A00500C9BF3386E640E37BD2
:10433000F6FE958FBA979CC1EFF0DFF301447DBF85
:10434000054723A6E196828083A74196054591C73C
:1043500003A5819413351500060582809387419348
:1043600098439443084FD4569843BD47958F1CCF2C
:104370008280EFC24F9AEFE05FDB1384C1971C404D
:10438000B1E337B500201309C5581305C558EFF040
:104390002F8337B500209304055A1305055AEFF013
:1043A0002F8223A821970146C145114523AA919642
:1043B000EFF08F9F08C019C5B7D500009385859A87
:1043C000EFF04FBBEFE0DFD76FC02F97EFC2AF9496
:1043D0004CC108C9AA876360B602184D158E054501
:1043E0006379E6009385470003A54197EFE0FFFE60
:1043F00001456FC08F946375D6000545E3FBD5FE7C
:104400009385470003A50197D5B7EFC2CF902A84C3
:10441000AE8432890C4CA6864A86A6952285EFF09A
:10442000FFFA19E16FC06F911C4C2285BE941C509D
:104430008297CDB7EFC22F8E83A701974111AA842F
:10444000DC472EC6C04713054400EFE0FFFB83475F
:104450004402324613F7470019CBA6852285EFF0B8
:10446000DFFA1C502285829741016FC00F8DF99BA6
:104470002302F402FDB7EFC20F8A93860197984298
:104480001C4381EB93874197904398C390C26FC0C0
:10449000CF8A5C47FD558843EFF0DFF9F9BFEFC2E3
:1044A0000F85356941111309499883A701979843EE
:1044B00029CBDC47814C03AC0700EFF00FEEEFF0A7
:1044C0008FEE83A781972A8493848197138AC1975B
:1044D000636CF50288C063800C0483A74197904306
:1044E0001336160003250A00B3058C40EFF04FAFDA
:1044F000EFF0DF8319EDB7E700E0116723A0E720B5
:1045000009A8854C014C55BFEFF0FFF680C0EFF0D5
:10451000FF81214C0DA00146E36685FDEFF01F8170
:10452000A2856285EFF01FF1EDB79247B245829701
:10453000824763DD070003250A0001468A85EFF004
:104540008F8D25D582472245E3C107FE22445C4872
:104550009DE3EFF04FE59C40AA8C6374F500EFF00B
:104560009FF1824723A09401FD17E366FCFC8A07B4
:10457000CA979C43828713054400EFE0FFE8D1BF50
:10458000834744020C4C924693E717002302F4023F
:104590006686B6952285EFF07FE351DD83474402BE
:1045A00013F7470001CF1C4C924566862285BE95C5
:1045B000EFF0BFE51C5022858297B5BFF99B23021F
:1045C000F402CDBF83474402F99B2302F402A5B74E
:1045D00083474402924593E717002302F4020CCC70
:1045E0009DE1A167938707807390073037D600005D
:1045F00037D500001306069B930590351305C58E2D
:10460000EF70204501A0E6866686E6952285EFF0EC
:10461000FFDB15B78347440213F7270055F72285C0
:10462000EFE0FF9609BFEFB21FEFEFF09FD483A733
:10463000C1979DE3A167938707807390073037D6B2
:10464000000037D500001306069B93059011130553
:10465000C58EEF70004001A0B7D5000037450000BF
:104660009387019839478146130600109385859CEE
:104670001305E549EFF00FAC55DD6FB01FEC83A7D4
:10468000818137177A0013070720B3D7E70293F722
:10469000F70F2383F1981307803EB387E702239235
:1046A000F1988280B7F700E0D8438146799BD8C360
:1046B00003C761983306A70290CBD4CB9843136706
:1046C000070198C398431367170298C3D843058B13
:1046D00075DF9843799B98C38280B7F700E0D84391
:1046E0008146799BD8C303D741983306A70290CB64
:1046F000D4CB98431367070198C3984313671702F5
:1047000098C3D843058B75DF9843799B98C3828003
:10471000EFB27FE02A841165011185451105EFD0C4
:104720008FD7930700207C82371501408D473EC408
:104730004C00E147130505803EC6EFD06FAF22C89D
:1047400037440140B70708000C08130504803ECC2D
:1047500002CA231E0100EFD0EFEE85451305048049
:10476000EFD0EFF905616FB05FDDEFB23FD9B7442D
:104770000140AE8932890144938404806345240159
:104780004A856FB0FFDA930500042685EFD00FF954
:104790007DD9B38789008385070026850504C20576
:1047A000C181EFD02FF7D9BF1387C1821C43B7B6A1
:1047B0000020938686713E95636BD500B706012075
:1047C0009386068063E5A60008C33E858280FD5778
:1047D000EDBF7325103482807325203482807325C9
:1047E00030348280EFB23FD3370400208327C41EC9
:1047F00041113EC6EF10601C1189630005149387B8
:10480000019A9843B246998E37B70020032747652F
:1048100005836376D700324798C3EF30D055EF4019
:10482000200183A7019B91C7EF30105719E123A8FE
:10483000019A9384C1999840B247998F1307703EAB
:104840006376F700EF206021B2479CC09387819880
:104850009843B246998E0567130777386376D70079
:10486000324798C3EF10405DB7B700209387876148
:10487000D84711CF138781991043B246918E130602
:10488000703E6376D600B246DC4314C38297B7B459
:10489000002083A7045CA9CB138741991C43B2462F
:1048A0001306A00F9D8EB7B7002083A70769ED837D
:1048B000B387C70263E9F600B2471CC39387045C61
:1048C0009C4B91C38297938701999843B246998EE6
:1048D0003D671307F7A56379D70032479384045CDB
:1048E00098C3DC4891C3829732459384C19865246C
:1048F0009C4032471D8FBD679387F7A563F5E7009E
:10490000B92CB2479CC003C7D19ABE841377F70F66
:104910000DC703C7D19A1377070C1DE3B7B7002063
:1049200083A7876999C3054582970327C41E23A4DB
:10493000E19A93070004A386F19A41016FB0FFBF8B
:1049400003C7D19A1377070415CB83A6819A03274F
:10495000C41E1389819A158F93064006E3FFE6FC77
:10496000B7B7002083A7876999C30145829783273A
:10497000C41E2320F900930700F875BF03C7D19A1E
:1049800062076187E35B07FA83A6819A0327C41E47
:10499000158F93064006E3F2E6FAA386019A71BFEB
:1049A000EFB27FB737B500201305856AEF10D02B23
:1049B0006FB0BFB8EFB23FB6B7B700209387876339
:1049C000D85737B4002088D313674700D8D7118948
:1049D0009307C4679C4F1304C46701CD99C3014575
:1049E00082975C4C99C3014582970545812A6FB037
:1049F000DFB499C3054582975C4CF5DB054582978A
:104A0000FDB73707002083270720232005009DCB13
:104A1000944363DB0600D4479042634506029C43FF
:104A200063D407002320D720832707209165014600
:104A3000FD153548B7080080944363D7060019C2B6
:104A40002320F7200145828094431393060163429B
:104A50000304944393F606108DCE944393F60620F8
:104A60008DCA9443C182ED8EF11614C16371D802D0
:104A7000944393F6060281EA19C22320F7209C474B
:104A80005CC105458280944393F61608F5D6232031
:104A9000050023A017010546DC4779BFB7070020B2
:104AA00003A70720B706008014C3584723A0E720B8
:104AB0008280EFB25FA683C7D19A93F7F70F81E7A1
:104AC0008547A386F19AB707002003A7C71E9387DF
:104AD000419A09CB98C3B7B7002083A7C7698297CB
:104AE0006FB0BFA50547FDB7B7B7002083A7C7695B
:104AF0000145A1C3B707002003A7871D1DCB1443A1
:104B000008479387419A63D406028C43A1668906BD
:104B100037080020930830060326C81E0D8E63E474
:104B2000C800FD1681EA14438606858214C323A0BB
:104B3000070082801043E34106FED5BF37070020FF
:104B40000327C71EB7B700209387475B88A323912D
:104B500007002392070098C7A38007008280EFB266
:104B60009F9BB7B400201384846A5C4041116C00A1
:104B70001385846A3EC623220400EF10E04CB2473E
:104B80006C001385846A5CC05C443EC6EF10C04B69
:104B900041016FB09F9AB7B700209387475B982376
:104BA00019E388C7828098479306703E3307E54033
:104BB00063F3E602EFB23F96BA2388C7914663F7E4
:104BC000E6000145EFF09FF76FB03F970507BAA3E6
:104BD000EFF0FFF8D5BF8280EFB2FF932A84014542
:104BE000EFF0DFF5B7B700209387475B11C80547A3
:104BF00098B3B7B70020094723A2E7666FB0FF93C9
:104C0000A3800700E5BF828003288503630B0802A9
:104C1000EFB27F90FC5D014791C7050742074183D2
:104C20009C43DDBF83A7050891C705074207418361
:104C30009C43DDBF814601468145029801456FB026
:104C4000DF8F0145828001458280EFB25F8A5C423E
:104C5000032A85000329C5000049AA8488239C33C0
:104C6000B289A2075D8DEF10700F9355650093F523
:104C7000C503B305B0404E85EF20504449E5DC4400
:104C8000984C03DB8900998F63F867014E85EF200C
:104C9000D04905456FB03F894A9A4E890356A9000D
:104CA000B30A8A40832B490063F4CA045686DE8522
:104CB0002285EF6080648357A900984433044441FF
:104CC0003E942286B3855B013A85EF6000632A94A7
:104CD00003290900E31409FC4E85EF2010459C4C84
:104CE00080C8DA979CCC9C4093E747009CC055B79E
:104CF0002285DE85EF6060608357A9003E94E399CA
:104D000057FD8044F1B7014571B771CAEFB22FFE6C
:104D1000832BC5001C4D035B8600BA8AB387FB401A
:104D2000368A32892A8463F767013285EF20F03FA3
:104D30006FB06FFF1C450449B289BE9B03D6A90022
:104D4000338C9B4083AC49006377CC066286E68552
:104D50002685EF60805A83D7A9001844B384744134
:104D6000BE942686B3858C013A85EF600059AA94DB
:104D700083A90900E39409FC4A85EF20103B03282E
:104D800084036305080483451A0083470A00144816
:104D9000A205DD8D83472A005A875686C207CD8F2C
:104DA00083453A002285E205DD8D02981C44232CC0
:104DB00004001CC8B5BF2685E685EF60005483D784
:104DC000A900BE94E39687FB04445DB7184C1C40D1
:104DD00004C85A9793E7470018CC1CC091BF828043
:104DE00018519547631AF70CEFB26FF01C492A84EB
:104DF0007D55D9CF328AAE8455CA832A840058445F
:104E0000835B86003289BA9AC20A93DA0A019399BF
:104E1000070193D90901338B3A410356A900420B8C
:104E2000135B0B01032C49006376CB065A86E2859F
:104E30003E85EF60804C0357A9001C44B3056C010C
:104E400033075741BA99C20993D909013E854E8665
:104E5000EF60A04AB307350103290900E31909FAF5
:104E6000184C1CC852855E9718CC18401367470031
:104E700018C0EF20902BFE38184C2685B38B774155
:104E80005C44239B7403998FDEB4EF3060110145BD
:104E90006FB06FE93E85E285EF6020460357A900B9
:104EA000B307E500E31A67FB1C447DB70145EDF24B
:104EB0002E85EF300058E9BF65558280EFB20FE4D0
:104EC000B789002003C6C19A138749348147938963
:104ED000493493F6F70F63E5C6006D556FB04FE5A3
:104EE00003280702938617001307C703630408000B
:104EF000B687C5B71309C003338927032E842A8ACE
:104F00001306C0038145B38429012685EFB0AFE3C2
:104F10001305C9021146930544004E95EF60E03D2C
:104F20005E3080D8A685DCD083278A0222859CD477
:104F3000EF304016B7550000938565C02285EF30ED
:104F40006016B7550000938505DE2285EF30C0144A
:104F5000B7550000938585C02285EF304014B755C2
:104F6000000022850546938565C4EF3040148D47C7
:104F7000DCCC95479CD09C20014593E787009CC0E2
:104F8000B1BF19C93305A040B5679387079D137555
:104F9000F50F3E950821828001458280EFB2AFD7A0
:104FA0009307C003B387F502378400201307443406
:104FB0002A89AE841306C003814513044434BA978A
:104FC0003E85EFB04FD8630709001306C003CA85BA
:104FD000EF60A0329305C003B385B402A2959C454F
:104FE0009CC9DCC96FB06FD5EFB24FD12A8A37B5F3
:104FF00000204111AE89B284814561461305055CEC
:1050000036C6EFB04FD4B24637B4002013098463DC
:10501000B68519461305C900EF60202E1146D285CA
:1050200013058463EF60602D1146CE85130549009A
:10503000EF60A02C13048463A1E0B7070001FD1703
:105040001CC4814483C7C19A63CFF402EF10C048E7
:1050500085475CD01567B7B700209387C7621307F1
:1050600007E298C31167130787A9D8C3254798C7D4
:10507000014541016FB0CFCB1146A68513058400D1
:10508000EF60A0277DBF93F5F40F0145EFF01FF10E
:1050900085044DBF1841B7B700209387C76298C3F6
:1050A0005841D8C3184598C782801855B75734124D
:1050B000938787676310F712EFB24FC41C512A849D
:1050C00025456381071037B9002013064004814548
:1050D00013058963EFB02FC7B7B400201306C002D1
:1050E00081451385C467EFB00FC61306C002A285C1
:1050F0001385C467EF6060209389C46703A74901E3
:105100004A869387C46725EBB56603D7468A93869C
:10511000468AAE222E97CE22F6222E9736979316E7
:10512000270163D3060AD8CBD84B9356E700FD8AF4
:1051300089EAB746F8FFFD16758FB7060500558F4B
:10514000D8CBD84B93563701FD8A89EAB746F8FF8A
:10515000FD16758FB7065000558FD8CBD84B9316D8
:10516000670063CA0600B70600FEFD16758FB70616
:105170000014558FD8CBD84B9356B70189E6B706A4
:105180000040558FD8CBD85311E73757000013078D
:1051900027A0D8D3D44B014513D7E6007D8B2386B7
:1051A000D19A9307866398CF13D736017D8B130668
:1051B00020033307C702D8CF139766006354070054
:1051C0000947B8C36FB0CFB6F976FD16758F8966FB
:1051D000558F91BF1305F00F828003C6C19AB78720
:1051E0000020938647340147938747346317E600CE
:1051F00081476313F7020145828003A80703631701
:10520000A80009C50545EDD998A182800507137747
:10521000F70F9387C703D9BFD05A6319A60019C5E2
:105220000545F9D993E707F89CA18280850793F794
:10523000F70F9386C60375BFEFB24FAC37890020D6
:105240002300050003C7C19A4111930749348144E3
:1052500013094934631797001305000241016FB029
:105260002FAD9387C70383A647FE63810618850485
:1052700093F4F40FC5B7B7B7002083A787636C001A
:105280003EC6EF20F01D11469305C4026800EF6092
:10529000C0066C004E85EF20901E1306C0033386B7
:1052A000C402B75500009385A5C44E854A96EF20E9
:1052B000F01E954737B500206C00232834031CD01E
:1052C0001305856AEF005058A6852285EFF01FCDA3
:1052D000014569B709476390E70AEF50502EAA8944
:1052E00063030512930AC4021146D6856800EF6075
:1052F000C000324A370500F0EF106029337AAA0067
:10530000370500E0EF10A0286300AA04B7B500201D
:105310009385856A6800EF10A06F1DE5B7B7002080
:1053200083A7876312346C004E853EC6EF50F002AF
:105330001DE1D68511466800EF50307C52306C007C
:105340004E85EF50901C39A01234938581864E858E
:10535000EF50B00001C5EFF0DFC209B71306C0037C
:105360003386C402B75500009385A5D04E854A9672
:10537000EF5090213DBF0D4713051002E390E7EE7B
:10538000EF3020475C4412346C005EB9B7B70020A0
:1053900083A78763AA893EC6EF2090252A8A11C574
:1053A0004E85EF30000952857DB79305C003B38564
:1053B000B4024E85CA95EF20F04DB75500004E85DA
:1053C000938565C0EF20104E9547A685228523283A
:1053D0003403232A34031CD0EFF05FBC37B5002020
:1053E0006C001305856AEF003046DDB504A1DC4D85
:1053F000C4C12E84E39007EE03458402EF205016CB
:10540000AA89E31A05E6454591BDEFB2CF904EB5A6
:105410002A84EF20F03809CD83476402228593E780
:1054200027002303F402EF40906405456FB0EF902E
:10543000B7B7002083A7C768A183858BFDD78347B3
:105440006402858BFDD38947A303F402054723A893
:10545000E19AE1BF83C7C19A6376F5041307C003DD
:105460003305E502B7870020938747343E95584DB2
:10547000232C050050C50CC50CC94CC98D476313BE
:10548000F702085905C15A3993371600631CF70013
:10549000EFB26F8893150601C1814EB9EFF0FFF6A8
:1054A0006FB0AF898280EFB26F8514426944CDCE70
:1054B00023200600328A1306C0033306C502B784D0
:1054C000002013874434AA89AE87938444343297EA
:1054D000032B8700504703298701404B329B63F31E
:1054E00026013689B30A8B4063F32A0981CB3E85B6
:1054F0005686A285EF507060B30755011307C003AD
:105500003387E9024A94330464412697832A87004B
:1055100091C72286D6853E85EF50305E569493071C
:10552000C003B387F90223202A01A697984FC0CB66
:105530003309274123AC2701631809009847D8CBCA
:1055400098CB98436D9B98C39307C003B389F90226
:105550008D470144CE94D84C6318F70063160900B8
:10556000CE248858EFF07FEA22856FA07FFC91C798
:105570004A86A2853E85EF5050584A94E3912AFB13
:105580009307C003B387F902A697804749BFEFA2EC
:105590001FF600422320060055C4AA876945D9C5D5
:1055A0001305C003B387A7023785002013054534D0
:1055B000B7BA00208144AA9703AB070393878A6395
:1055C000BC43938A8A63898B99E39304700C930795
:1055D000805C63F487001304805C931C0401328AAE
:1055E0002E8993DC0C01130C800C0146E6850145E5
:1055F000EF208038AA8929C948412286CA8523AE6E
:105600000A02EF50904FCE855A85EF206071AA8B29
:105610004E85EF20803183A7CA0399CB8504C2044D
:10562000C180EFF0EFB7E39284FD4D456FA0BFEF6F
:1056300063D60B005E85EFF0DF94CDBF23208A0098
:105640000145EDB76945DDB74545CDB7EFA23FEA66
:1056500000422320060055C4AA876945D9C5130511
:10566000C003B387A7023785002013054534B7BAB6
:1056700000208144AA9703AB070393878A63BC4346
:10568000938A8A63898B99E39304700C9307005C77
:1056900063F487001304005C931C0401328A2E8992
:1056A00093DC0C01130C800C0146E6850145EF20CC
:1056B000A02CAA8929C948412286CA8523AE0A029C
:1056C000EF50B043CE855A85EF500063AA8B4E85CC
:1056D000EF20A02583A7CA0399CB8504C204C1800B
:1056E000EFF00FACE39284FD4D456FA0DFE363D68E
:1056F0000B005E85EFF0FF88CDBF23208A000145B7
:10570000EDB76945DDB74545CDB7EFA25FDE83292B
:10571000060023200600638E090CAA872E8B69459C
:10572000A1C11305C003B387A70237850020130565
:10573000453437BA0020B28B930A900C8144114C47
:10574000130ACA67FD5CAA9703A90703FD1AC20AD8
:1057500093DA0A0163980A0083A70B00C9CB0145BD
:105760006FA07FDC8327090163978709EFF04FA3C0
:105770000357690719E34545E5B783270A01858B78
:1057800099E3E36A37FF03244A00637387003A848E
:1057900063F389004E84131604014182854691E328
:1057A0008146DA854A85EF409022AA844A858DE4B5
:1057B000EF40F02B83A70B00B3898940AA84A297FE
:1057C00023A0FB00229BE38C09F883270A01858B29
:1057D000B5FFEFF00FFB69B763999401EF403029F3
:1057E00083270A01858BBDF379B7EF4050282685C2
:1057F000CDB76945B5B75D45A5B79307C003B307F6
:10580000F5023787002013074734BA9703A8070229
:1058100015476307E800DD47232006003E858280A8
:10582000EFA27FCFD84F8D476318F700EFF0FFED61
:10583000AA873E856FA07FD001E7EFF05FD5CDBF8F
:1058400089469307A00FE316D7FEEFF03FE0CDB7F0
:10585000EFA27FCCA147AA840021638AF50263EC02
:10586000B70085476381F502894713642400638E7E
:10587000F5006FA09FCCC147638EF500930700042D
:1058800013640404EDB71364140080C0DDB713641F
:105890008400E5BF48591364040165D9EF207039CD
:1058A000EDB7EFA25FC741119305F1002A89A30765
:1058B0000100EFF09F9215C5808793178401E1875F
:1058C00063D407021374F4071307C0033304E4021C
:1058D000B7870020938747343E94232A040223206D
:1058E000040241016FA07FC583C7C19AE37BF4FE28
:1058F0001307C0033307E402B7870020138547343A
:10590000938447343A95544D0D47E39CE6FC832736
:1059100009010547DD1793F7F70F636DF700C145E0
:10592000EFF01FF39307C0033304F40226942328F7
:10593000040275B71C2193E707041CC1E5B737873C
:10594000002083C6C19A130747348147638FF6004E
:105950001307C703032647FC11CEB7B70020938770
:105960008763D85713670701D8D7B7B7002003C597
:1059700047668280850793F7F70FC9BFEFA2BFB9CB
:10598000EFF0FFFBB7B7002023A207666FA0FFBAB6
:1059900083C7C19A6371F5029307C0033305F5020B
:1059A000B787002093874734AA9798431375F70F5A
:1059B000118B98C3828001458280B7B7002003C550
:1059C000876582809307C0033305F502B7870020FF
:1059D000938747343E951C5995CF145115475D4523
:1059E000639BE60285899A279DC1136787009AA762
:1059F00037B700201307C762144323A0D70A5443C4
:105A0000184723A2D70A23A4E70A014582805D9B99
:105A10009AA7E5BF5D4582801307C0033307E502FF
:105A2000B7870020938647343697105395466319FD
:105A3000D604EFA25FAE045B585B938747346304E0
:105A400097005D479DE81304C00333048502268553
:105A50003E94A28523280402EF20C0639305F00F33
:105A60002685EF20404A454709C9B755000048D868
:105A70009385C5EBEF20606301473A856FA0FFABCC
:105A80005D473A858280EFA21FA91304C003330447
:105A900085023785002013054534DD442A940858D3
:105AA00001CD1850954781446318F700EF50202E20
:105AB000232804022320040226856FA01FA8EFA23A
:105AC0009FA51304C0033304850237850020130506
:105AD0004534DD442A94085801CD18509547814437
