:100000006F60B061130000001300000013000000D7
:100010001300000013000000130000001300000094
:100020001300000013000000130000001300000084
:08003000130000007300100032
:1000380000000000000000006C3400007034000074
:1000480000000000606D00000000000000000000DB
:10005800626D0000646D00000000000000000000F8
:1000680080BA00000000000000020000000000004C
:100078006A6D00006C6D00006E6D0000FEA6000049
:10008800726D0000746D0000766D0000786D0000E0
:100098007A6D00007C6D00007E6D00009E99000066
:1000A8006C9A0000846D00003A9B0000089C0000D8
:1000B8008A6D00008C6D0000D0950000906D0000E6
:1000C800926D0000946D0000966D0000F6340000FB
:1000D8009A6D00009C6D00009E6D0000A06D0000F0
:1000E80056360000A46D0000C4AE000056A2000001
:1000F80024A30000F2A30000C0A40000F2AA00009C
:10010800EAAB00009EB500006CB600003AB70000EC
:10011800BA6D0000BC6D0000BE6D0000C06D00002F
:1001280092AF0000C46D0000C66D0000C86D0000ED
:10013800CA6D0000CC6D000060B00000EAAC0000A1
:1001480008B80000D46D0000D66D0000D86D00001E
:10015800DA6D0000DC6D0000DE6D0000E06D00006F
:10016800E26D0000CA350000E66D0000E86D000091
:10017800EA6D0000EC6D0000EE6D0000F06D00000F
:10018800F26D0000F46D0000F66D0000F86D0000DF
:10019800FA6D0000FC6D0000FE6D0000006E0000AE
:1001A800026E0000046E0000066E0000086E00007B
:1001B8000A6E00000C6E00000E6E0000106E00004B
:1001C800126E0000146E0000166E0000186E00001B
:1001D8000000000000000000000000000000000017
:1001E8000000000000000000000000000000000007
:0801F8000000000000000000FF
:10020000130181F806C216C41AC61EC822CA26CC1B
:100210002ACE2ED032D236D43AD63ED842DA46DC76
:100220004ADECEC0D2C2D6C4DAC6DEC8E2CAE6CC46
:10023000EACEEED0F2D2F6D4FAD6FED8F3220030CF
:1002400096DA83A281A623A02200F32510342EC0C3
:100250009305000273A0458003A1C189EFC05058E7
:1002600003A381A603210300824273901234D65265
:10027000739002309240A2423243C2435244E2445D
:10028000724582551256A2563257C2575258E258FA
:1002900072598649164AA64A364BC64B564CE64C0E
:1002A000764D865D165EA65E365FC65F13018107DA
:1002B0007300203013000000130000001300000042
:1002C00013000000130000001300000013000000E2
:1002D00013000000130000001300000013000000D2
:1002E00013000000130000001300000013000000C2
:1002F00013000000130000001300000013000000B2
:1003000083A2C189938202E07390023403A181A683
:10031000024182403243C2435244E2447245825514
:100320001256A2563257C2575258E258725986494D
:10033000164AA64A364BC64B564CE64C764D865D61
:10034000165EA65E365FC65FD652A102739002307B
:10035000A2421301810782801300000013000000F5
:100360001300000013000000130000001300000041
:100370001300000013000000130000001300000031
:100380001300000013000000130000001300000021
:100390001300000013000000130000001300000011
:1003A0001300000013000000130000001300000001
:1003B00013000000130000001300000013000000F1
:1003C00013000000130000001300000013000000E1
:1003D00013000000130000001300000013000000D1
:1003E00013000000130000001300000013000000C1
:1003F00013000000130000001300000013000000B1
:10040000F322003093F272FF130380781203B3E2F9
:100410006200711523205500130585FA10C12115BE
:10042000232005009302000063870200711523203A
:100430000500FD12D5BF71150CC1828000000000BF
:1004400000000000000000000000000000000000AC
:10045000000000000000000000000000000000009C
:10046000000000000000000000000000000000008C
:10047000000000000000000000000000000000007C
:10048000000000000000000000000000000000006C
:10049000000000000000000000000000000000005C
:1004A000000000000000000000000000000000004C
:1004B000000000000000000000000000000000003C
:1004C000000000000000000000000000000000002C
:1004D000000000000000000000000000000000001C
:1004E000000000000000397101436EC619A0397187
:1004F00041536AC866CA62CC5ECE19A039710153F5
:100500005AD056D252D44ED64AD826DA22DC06DE4B
:1005100033016140828241114AC026C222C406C60C
:100520008282B24D4101024D924C224CB24B4101AC
:10053000024B924A224AB249410102499244224462
:10054000B240410182803D432A876373C30293779F
:10055000F700BDEFADE5937606FF3D8ABA960CC372
:100560004CC30CC74CC74107E36BD7FE11E2828036
:10057000B306C3408A069702000096966780A600DD
:100580002307B700A306B7002306B700A305B700EB
:100590002305B700A304B7002304B700A303B700E3
:1005A0002303B700A302B7002302B700A301B700DB
:1005B0002301B700A300B7002300B700828093F5A2
:1005C000F50F93968500D58D93960501D58D61B76E
:1005D000939627009702000096968682E78086FA17
:1005E0009680C1171D8F3E96E374C3F8A5B7EFF24E
:1005F0001FF0AE96939906013A8B1307160093D914
:10060000090142074183CE86AA842E84B28A034A16
:100610002509EF00D00901C90549933B1A006395EC
:1006200089002389440901B783470B00B377F90098
:100630008DC723894409014785465686A2852685AC
:10064000EF0040750504060942041379F90F418053
:10065000E31709FC050B0549D9B783C71409FDF356
:1006600023897409C9BFEFF27FE932971319070193
:10067000B689AE9613590901C2064A87C1822A8BF0
:10068000AE8A32843E8AEF00900201C993847900D9
:10069000C204C1808D806313890059BD2286050480
:1006A0005287CE86D6855A8542049137269A418054
:1006B000DDB7EFF2BFE4329793140701B689AE9627
:1006C000C180C2062687C1822A8A2E893284EF0021
:1006D000007E01EDB1BD228605040147CE86CA85A4
:1006E00052854204EF00006B4180E39684FEDDB743
:1006F000EFF27FE21C418145902B834785034859E7
:100700003306F6020E0681350DBDA1471CA11385E7
:1007100001B68280EFF23FE03687AE84B286B7152D
:100720000000371600004111130686229385C52F5D
:100730002A84EF00D05C1305F100C13F9087B71603
:100740000000AA852687938686ED2285EF00101388
:100750004101E5B3AA959C218831A2073E95420547
:100760004181828001458280EFF2FFDA9C21AE84D4
:100770002A841CA19C311CB1BC213CA1BC313CB1E0
:10078000DC215CA1DC315CB1FC217CA1FC317CB1C1
:100790009C251CA59C351CB5BC253CA5BC353CB591
:1007A000DC255CA5DC355CB5FC257CA5FC357CB581
:1007B0009C29C5451CA92685713F2AA8CD452685BB
:1007C000513F4AA8D545268571376AA8BDB3104167
:1007D0000348C5001C223307B8001377F70FB3D6C0
:1007E00007419D4763ECE70093F7F60F58A57D5549
:1007F0003315B5001345F5FF7D8D828093071600F4
:100800001CC11C32214633060641B397C700D58F61
:10081000611793F7F70F1377F70FC9BFEFF2BFCF49
:100820002CD183458507930405062A8423060506F3
:100830002685713F834594072305A4062685413FFD
:1008400083472409A305A4062307F40693B71700DA
:10085000A307F406DDB1EFF21FCC2E848D3F7D148B
:100860008547B39787001D8D62056185F9B185477E
:10087000638CF60091C68947638AF6000D8D11A03E
:1008800032954205418182802E95E5BF118DD5BFFD
:100890008547638CF60091C68947638AF6003295D6
:1008A00011A02E95420541818280118DE5BF0D8DED
:1008B000D5BFEFF25FC38344850603499506411116
:1008C0002A84AE89328B834BA40693FAF90F338ABC
:1008D0009B40137AFA0F63743A01937AFA0F034735
:1008E0000407939C8401131C89010355440693DC7F
:1008F0008C41135C8C41BA866286E6853AC6493FD4
:100900003247835D64066286BA862A8DE6856E85E7
:10091000B93F2A86324763080B028347E40623095E
:10092000F408D686EA852285B521CE9493F4F40F97
:1009300063E14903B3847441050993F9F40F137912
:10094000F90F814449B78347D406E5F38347F4069A
:10095000F9B723049406A30484074101D9B6EFF242
:100960001FB92A84130A0506553D8345A4075285FD
:100970008309B406CD358345B4072A8C5285E13D01
:100980008345C4072A8B5285F9358304A406AA8AB5
:10099000635D90084E9B834B0407330B6041035506
:1009A0004406620B135B8B41DE865A86E285CD35A9
:1009B0002312A4062A89035564065A86DE86E28538
:1009C0007D352313A40685472A86638CFB06638046
:1009D0000B0689476387FB088D47638BFB0A2A87D1
:1009E000CA86CA852285E12129C1231404068345CC
:1009F00064075285E93B834574072A895285C13BC8
:100A0000AA840146CA8522856D35A68522850546BC
:100A10004D3585455285653B6DF583079406E3C8E2
:100A200037FD8347E4062309F4085685EDBCCA94D4
:100A300093960401B304350113970401C1824183E5
:100A40004DB7B3073941AA940509931609011397C5
:100A500004018507C18241831399070113590901D4
:100A600049B70547B3049740B307990033073741A7
:100A70009304190093960401B305E500930415004F
:100A80001397040113960501C18241834182E9B79E
:100A9000B304954013061500B306390185041317F6
:100AA0000601C20613960401C1824183418215BF2B
:100AB0003C4D1307F00FDD076368B702130700060C
:100AC000637DB70003578508BA97983335C39423DD
:100AD000E39CB6FE13852700828013070004E376AB
:100AE000B7FE03576508CDB7EFF2FFA20354A50880
:100AF000AE843E94228981454A85A9392A94894544
:100B00004A8589391109E36895FE1C301820A2072F
:100B1000D98F13978700A183D98FC207C18399CB3F
:100B20006395F4001305340009BC3C203E94F1BFEA
:100B3000014582800145CDBFEFF2FF9D2A848D3FA4
:100B40000DC5AA852285D9398345A40793040406D7
:100B5000268511338345B4072308A4082685E53983
:100B60008345C4072685C539C9BA0145F5BFEFF2EB
:100B70001F9823050506AA84AE8AF12BC1671309C5
:100B800000FC014A0144138BF7FF9389E7FF930BA5
:100B900000FC83C50A00DC4026858297AA85630392
:100BA0006503850AE30735FF26857937131A0501A2
:100BB000135A0A0163147901038904095294420407
:100BC0004180C1BF8387A40691CF03870409BA97E8
:100BD0003E943304444142044180635520014A94C9
:100BE0004204418022856FF01F94A306B5068280DF
:100BF000EFF2DF908347050705472A842E89B284E8
:100C0000B689638FE7029DC709476383E7040D47F1
:100C10006384E704CE8523122407231394062285D8
:100C2000413DAA85014589C52285153B4205418183
:100C30006FF01F907C4D8297AA94C204C180D9BFE7
:100C40007C4D82973309A940420913590901D9B74C
:100C50007C4D8297898CD5B77C4D82972A99EDB7C8
:100C6000EFF2FF884169AA8C2E84B284B689130AF8
:100C7000F9FFD521014C7919854A094B8D4B83A782
:100C80004C0083C5090066858297AA8663034505E3
:100C90008509E30625FF2686A2856685913F83C7E1
:100CA0000C076380570391CB6381670363817703EC
:100CB0002A9C420C135C0C01D9B72A94420441804F
:100CC000C5BFAA94C204C180E5B7098CC5BF898C91
:100CD000D5BF62856FF03F85EFF2FF83B717000045
:100CE0009387C70B5CC1AD3F6FF03F853C4DA9CBEF
:100CF00003061508830625088347D5082307C5087A
:100D0000A307D50895CF0547639FE70083073508FC
:100D10006354F6002307F5088307450863D2D7021A
:100D2000A307F50882808307E50703070508BA973C
:100D30006354F6002307F5086354D700A307E508BA
:100D40008280B7070000938747767CCD8280384D3C
:100D5000630DB700EFF22FFC2A842CCC1305450756
:100D60002134228561376FF04FFD8280EFF2AFFAB8
:100D7000B71700009387C70B5CC1D53B6FF0EFFB43
:100D8000EFF26FF97E3D1D8E5C55420641828297DF
:100D90006FF0AFFA8347C508C1CBD9C6854763F961
:100DA000D70089476317F7068505958DC205C18170
:100DB000058B25EF8357C5046368F6068357E50462
:100DC0006374F606AE96C206C18283578504035843
:100DD000A50463F9B60463F605059306F8FFC20699
:100DE000C18263F3D704BE8863F3B700AE889395DE
:100DF0000801C181C28763F30601B687B386B74095
:100E0000C206C182EFF22FF11C599C4782976FF006
:100E1000CFF28D47E31EF7F80506158E4206418294
:100E200041BFBE85E3EF05FB828083578504E3ED78
:100E3000F5FE8357A504E3F9F5FEB296C206C1821A
:100E40008357C5040358E50463F9C60263760603B5
:100E50009306F8FFC206C182E3F8D7FCBE8863F3AD
:100E6000C700B288139608014182C28763F3060166
:100E7000B687B386C74069B73E86E36F06FD6DB798
:100E8000894763E5B7002309B508828085472309B0
:100E9000F50882806379B60085476364D500B3B7EF
:100EA000C6003E858280E36CD5FE8147DDBFEFF250
:100EB0008FE62A84AE848355E5040355C50436893C
:100EC000BA86C93F01C98355A40403558404CA8660
:100ED0002686C9376FF06FE60343250993787600BD
:100EE0008547339817011378F80F014E63E56700C3
:100EF000428E6309F30403230500619A5C5903439E
:100F000003013306660242064182B295BE950DCFBB
:100F100005479C218508FD16B367FE00B347F8001E
:100F2000C2069CA193F87800C18263900804323D08
:100F300083472509B2956365F700054E638EE70286
:100F400005481DA8014845BFAE96C206C1829C2136
:100F50008505B367FE00B347F800A38FF5FE9397AE
:100F60000501C183E395D7FE828093171E00060812
:100F700013FEF70F1378F80FC9FE828083458503AF
:100F80001441834895031397050141839317370054
:100F90005EBD9C2A13980801135808018E073EBDB8
:100FA000931738007EBD903AC6956356B600330756
:100FB0000641420741830E072310F504BA97231117
:100FC000F504DE2A2312F504FE2A2313F504828099
:100FD000EFF26FD465376FF04FD6EFF2CFD34D33CA
:100FE0006FF0AFD5EFF22FD3035765058356250574
:100FF00003564505835505052A84553D09E5230615
:1010000004086FF08FD385472306F4080357840440
:10101000835704056374F7002314F40483572405ED
:101020000357A40463F4E7002315F404835744052D
:101030000357C4046374F7002316F404835764054C
:101040000357E404E3FFE7FA2317F4045DBFEFF26C
:101050008FCC03574504231405042315E5043841B8
:1010600078C549376FF06FCDEFF2EFCA1C59417761
:1010700038C9DC4378C982976FF02FCCEFF2AFC943
:1010800093071010230CC502A30C0502A306050646
:10109000A3060508A30805082319F5081C4354D521
:1010A0004CD918D9232C05042A84829722856D3FB8
:1010B00022854139230804066FF02FC8D1C9A947FA
:1010C0006388F508034765022DE79307B00F63FABD
:1010D000B70095472303F50285890EB1C165F9155F
:1010E000B9A09307700F63F7B70091472303F50288
:1010F0008D89E5B79307F00E63F7B7008D4723039B
:10110000F5029D89D9BF9307F00D63F7B7008947B2
:101110002303F502BD89D1B79307F00B63F7B7003E
:1011200085472303F502FD894DBFC205C1812E8588
:1011300082801E3193F5F5037D179A07DD8DC20578
:101140001377F70FC1812303E5020EB16DD379B791
:10115000C165FD15E9BF230305028280EFF2AFBB35
:101160001C492E8681469305000282976FF0EFBCE2
:10117000EFF26FBA1C49B2862E86DD4582976FF07A
:10118000CFBBEFF24FB94111CC871306F100854573
:10119000C53741016FF06FBAEFF2EFB75C452E86AD
:1011A0008146D54582976FF04FB9EFF2CFB65C45D7
:1011B000B2862E86DD4582976FF02FB8EFF20FB41E
:1011C0004111AA842E845D49E549130AE00FD54AEE
:1011D0000C20638C25036367B90063F0550341015C
:1011E0006FF00FB563FBB902E39B45FF1030930529
:1011F00090022685D087E92439A01030DC4481464E
:10120000D087268582970904E1B71C301306F100C8
:1012100085452685DC87513FFDB7DC448146014684
:101220002685050482976DB79387C5FE93F7F70F60
:1012300015476362F704EFF20FAE71678A07130771
:10124000C7AABA979C4341113289AE842A84828707
:1012500081452937CA8522852D37054541016FF023
:10126000CFAD854536C6DD3DB2461C484A86A685CB
:1012700022858297E5B701458280EFF22FA82E8460
:10128000CC212A89B2898E0593F5F50393E50504EF
:10129000213783C569004A8593E5850BF53D7C20A0
:1012A000A1CF542058309387860093F7870F958FEE
:1012B00093F7F70F9375F70F63F4E70093F5F70FC4
:1012C000AE960D8F10408E0593F4F50FA68554A0B1
:1012D00058B04A85D93D0C405C30AE9404C091EBC7
:1012E00083A709001CC083C749005CB07C20FD17A0
:1012F0007CA05C209D8BC5F76FF08FA3EFF2AFA1B0
:10130000A94741112A84638CF50863EAB700A54711
:101310006381F5088144268541016FF00FA2AD4736
:101320006381F50CBD47E397F5FE9C423689D432C4
:101330003EC483574900508713978700A183D98FF4
:101340007C869D4763E1D7025C4581460546E145C1
:1013500082974A862C0022850D375C4481460146DF
:10136000E545228582971886BD478544E3E5E7FA7F
:101370005C4481460946E145228582974A862C00D5
:101380002285E53D5C4481460146E54522858297FC
:1013900059B7F165938545AC65208544ADBF75208F
:1013A0005C4481460546E145228582979385818686
:1013B000228529355C4481460146E5452285829790
:1013C0005C44E14581460946228582979385818662
:1013D0002285ED335C4481460146E54522858297AE
:1013E0006DBF5C4581461DE60546E14582979385C4
:1013F000C1862285E1335C4481460146E54522856C
:1014000082975C44E145814609462285829793850F
:10141000C1867DBF0546E145829793850187228578
:10142000713B5C4481460146E545228582975C44D8
:10143000E14581460946228582979385018749BF08
:101440000CC1BC292301F5028280EFF2CF8C5C49EC
:1014500081460146930580022A8482975C44814636
:101460000146D14522858297228505469305B00421
:1014700081281C40228593059002D023912022854B
:1014800001469305B0042D281C4022859305900247
:10149000D0233D20228505469305B00415201C402D
:1014A000930590022285D03321286FF00F89EFF247
:1014B0008F861C4581460146A54582976FF0EF87D0
:1014C000EFF26F855C49814682976FF00F87014587
:1014D0008280B71700009387E74C1CC55CC51CC908
:1014E0005CC9FD5723200500A30105022303050263
:1014F000232C05002302F5022304F5028280EFF27B
:101500008F8141112A842EC632C436C23AC0D137E7
:10151000B2452246924602470CC450C414C858C86B
:101520002285713741016FF04F8137050020130587
:10153000854B828005458280EFE2FFFD85474111A2
:101540002A8663F5A7008D4763E6A702B707002048
:1015500083A5874B37C500007400130585E302C6D9
:10156000EFC0301101C9B24791C7B7E700E011677A
:1015700023A0E720054541016FE03FFCEFE2BFF902
:10158000B70700202A8403A5874B7D57814605466F
:101590008D45EFA040688547630FF50011C9894765
:1015A000630BF5008D476308F50005456FE0FFF814
:1015B00023200400DDBF08C0CDBFEFE2DFF5B70791
:1015C000002083A5874C411137C5000074000546F3
:1015D000130585E302C6EFC0D00901C9B24791C720
:1015E000B7E700E0116723A0E72041016FE0FFF4B7
:1015F000EFE27FF2B705002003C7554CB707002084
:101600009385554C2382E74CB707002003A5C74BB1
:10161000EF90706C83A7019282976FE01FF23705FD
:1016200000201305854C8280370500201305054CEA
:101630008280EFE25FEE85476382F6048947638329
:10164000F60401478146370400201304C44B0146C9
:1016500008C0EF90B059084037160000B7150000D9
:101660000D4785461306A65B9385055FEF90906056
:101670000840EF90B05E05456FE03FEC05679306CC
:101680000060D1B705679306004075BFEFE2BFE881
:1016900037040020AE841304C44B15C90840B705B5
:1016A00000209385554CEF9010633715014093054A
:1016B0000020130505C0EF808075B707002003A543
:1016C000874C95C08545EFA0A06A6FE01FE73715EE
:1016D000014093050020130505C0EF8040720840CB
:1016E000EF903061D9BF0147814605468545EFA09F
:1016F0008052E1BFEFE23FE22A84371501409305B3
:101700000020130505C0EF80806FB707002003A5F8
:10171000C74B9375F40FEF90705A05456FE0FFE1EA
:10172000B707002083C7474C1CA105458280EFE224
:101730009FDEB704002003A5844C7D5781460546F3
:101740008545EFA0404D8547E317F5FE83A74192FD
:101750008297D5B7EFE23FDC08218545EFD0706A6C
:101760007D572386E1806FE05FDDEFE2DFDA411134
:101770008545054502C202C423160100EF60A00F93
:1017800083A7018237470F0013070724B3D7E70267
:101790004C0037050040231501007C84896793873E
:1017A000F7703EC2EF60002D0546854537050040C5
:1017B000EF60A05E854537050040EF60805C8545A1
:1017C00037050040EF600066B7E700E0056723A239
:1017D000E71041016FE07FD6EFE27FD14111B709F9
:1017E000002061370144138C4180938B093F138B98
:1017F0008180914A93140401C1801385B40042058D
:101800004181EF20C003B3078C0088A31385F40047
:1018100042054181EF20A002B3878B0088A3138586
:10182000340142054181EF208001B3078B0088A37A
:101830000504E31154FDB70600209386064D138678
:1018400081809385093F13854180EF70204995671A
:10185000938707E23EC29167938787A93EC44800F9
:10186000A5473EC6EFD0E02BC9311841B70700208D
:1018700023A0E74E41016FE01FCBEFE23FC801110B
:10188000C88793F745002E84A9C79379F50F1307EE
:10189000C0033387E902B7F70020938787F8BA9728
:1018A000D44798473697D44B9C4F3386F6006374E1
:1018B000C700B307D740B70400209384C44D8E20DF
:1018C0003ECE13076010AE976371F7061305F10063
:1018D0005135937784009DCB9384C18098209307E2
:1018E000F00F6315F70288878545EFD0903688871B
:1018F0000566130686B6B305C502B71700209387A1
:1019000007B5BE95EFD0E05D9C879CA0937704015E
:1019100081C77D572386E1801374040401C47D5779
:101920002386E18005616FE0BFC0372900201309DD
:1019300009227008CA954E85EFD0C05F9E2072477D
:101940003E97420741839AA09947E3F4E7F883560C
:10195000490093978600A182D58FC207C1839386E1
:101960005700E3D8E6F69907E312F7F60545EFF0DE
:10197000BFBCB704002003A5044E7D57854605462D
:101980008545EFA0402937060020B7250020130623
:10199000C64C938585324E85EFD0100F9384044E4C
:1019A00001C51305F1007D3388408945EFA0403C17
:1019B0000DB7EFE25FB6EFD05025937715002A847C
:1019C00099C737C501001305C5ADEF60E16B93778B
:1019D000240099C737C50100130505AFEF60C16A40
:1019E0009377440099CBEFD03026118919C537C5BC
:1019F0000100130585B0EF602169418819CC0145CC
:101A0000EFD0F021AA8519C10145853D0545EFD0EC
:101A10001021AA8519C105458D356FE01FB2EFE28F
:101A20009FAF39711304601F11C12A841306C003CC
:101A300081454800EFE03FB18D4722D64C0013842A
:101A4000D1801385D1803ED0EFD0E027814719E9BE
:101A50000820EFD05025854711C508208945EFD0D3
:101A6000503A81473E8521616FE03FADEFE2BFAA6A
:101A70001385D180C5316FE05FACB7270020938715
:101A800007221CC1B70700209387C74D9A2305453D
:101A9000239007009AA18280EFE2FFA7B7270020DA
:101AA0002E862E84AA851385873293848732EF5041
:101AB0004170B707002023A6874C37040020130489
:101AC000044E0840B7070020854523AC974CEFA093
:101AD000202A08407D57854605468945EFA0A0137A
:101AE00005456FE09FA5EFE21FA383A78192829730
:101AF0006FE0BFA4EFE23FA2B726000095652A86FB
:101B000095470547938666AE938575C90D45EF9059
:101B1000006D05456FE07FA2EFE2FF9F0D45EF905E
:101B200040376FE09FA1EFE21F9F0D45EF902060CF
:101B30006FE0BFA0EFE23F9EDD3501E50D456FE0B0
:101B4000DF9F0145EDBF8280EFE2FF9C05376FE02C
:101B5000DF9EEFE25F9C01112A84AE846808930542
:101B6000A10132C6193F15C9724715453C333423CC
:101B7000A207D58F93968700A183D58FC207C18313
:101B800091EBBC8532461D0798C0E5171EA2FD5794
:101B90001CA0014505616FE05F9A1545E5BFEFE2C6
:101BA0009F979307160013D787401D06238FF5FED6
:101BB0002E85A38EE5FE93150601C1816515E93DCD
:101BC000954711C181473E856FE03F97AA95C205B1
:101BD000716671681307F00F9306F00FC181130649
:101BE000C6B11308C8C193170501C1836396F500F8
:101BF00013958600598D828005058347F5FFB98FBF
:101C00003307F6001823C297358F9423E9BFEFE21C
:101C10009F9032842E852146A285EFF09FA18547B3
:101C20006316F5029567938707B01305300263E8E2
:101C3000870037151602130505EC3355850242055A
:101C400041814D3D054781476303E5008D473E8552
:101C50006FE0BF8EEFE23F8CB7070020814505455E
:101C600023A2074EEFF09FA2453D6FE01F8DEFE2EC
:101C70009F8A81450145EFF07FA175356FE0FF8BAD
:101C8000EFE2DF87138401901E201307F00F41114C
:101C90006371F702B7C60100716637C5010093860C
:101CA000C6D61306C6D19305D009130545D9EF5002
:101CB00061471E200D476366F700154541016FE03F
:101CC0003F872E890E20AA893725002093040543DB
:101CD0001305054332C6DD3D6DF19C203246850477
:101CE0002380F9001E20F5171EA223209900F9B7C2
:101CF000EFE27F82B707002083A4474E8547639DAC
:101D0000F4061384219006A0AA87A38FF5FE1E2057
:101D10001385F5FF370700203E964206418212A048
:101D20000E202326A74E5D351A209376F50F2181CC
:101D30004207418393071700C207C1831EA0B7273C
:101D40000020938707433E9714A31A201375F50FBD
:101D500085454207418393061700C206C18216A03B
:101D6000BA9788A3B7070020014523A4974EEFF048
:101D7000FF9101456FE06FFC1545EDBFEFE2AFF954
:101D8000B707002083A7874E411185C3B7C601005E
:101D9000716637C501009386C6DA1306C6D293056D
:101DA000600E130545D9EF50E1371305F100EFF050
:101DB0003F97B70700209387474E98438546630FA8
:101DC000D70019C789466302D7048D476314F7000B
:101DD000EFF09FD4014541016FE02FF6938601900B
:101DE000239006009A22131607014182130716005A
:101DF000420741839AA2948737270020130707439D
:101E0000329714A3094798C3E1B7138701901623AB
:101E10001306F00F6363D6021E2393960701C18257
:101E200093871600C207C1831EA39887B727002097
:101E300093870743B69798A361BF0D47E9B7EFE2D1
:101E40008FEDB707002083A7474E05476381E70260
:101E5000B7C60100716637C501009386C6E2130656
:101E600006D493053012130545D9EF50A12BB704C2
:101E700000209384844E984019C7630BF7000144F7
:101E800022856FE08FEB81450545EFF03F80C5BFB0
:101E9000138421901E20C207C18385C7B704002088
:101EA0009384C44E9C40882362056185EFF09F8433
:101EB0009C4085079CC01E20FD17C207C1831EA041
:101EC0007DBF0D45EFF04FE72A8481450545EFF0D2
:101ED000EFFB23A004006DB7EFE2EFE3B7070020AC
:101EE0001387474E1443094641111384474E638FAD
:101EF000C6028D476388F604014595CA1443B9C2EA
:101F000014436381C604184301456304F702B7C64E
:101F10000100716637C50100938686DC130646D53D
:101F20009305D015130545D9EF50C11F0545EFF0B6
:101F3000AFE02AC6EFF03FBF324585471CC04101E4
:101F40006FE0AFDF0145F5B7962115476398E608C6
:101F5000582130319306E07C2207518F13168700F9
:101F60002183598E420641821307F6FF42074183BF
:101F7000AA870D4563E6E606EFE2EFD9B82394336E
:101F8000239005002207558F854694A396219354EC
:101F9000360093F4F40F850696A19376760081C6F9
:101FA000850493F4F40F84B396212E8413852700BF
:101FB000850696A19315870021834D8F9305170001
:101FC000C2058146C181EF20B00201C5092B6FE037
:101FD000CFD61E200145BE9406A0D5BF0D458280F8
:101FE00082809A2195476311F70658218D4731EF7A
:101FF00038311306D00F9306F7FF93F6F60F63768A
:10200000D604EFE24FD13C210C314111A207CD8F14
:1020100093958700A183CD8F93851700130717F041
:10202000C2051337170085460546C1816800A3061F
:1020300001005886EF20C07B814719C14D21AA8736
:102040003E8541016FE06FCF8D473E8582809621AE
:102050001547637FD70658213031AA872207518F51
:10206000131687002183598E42064182135736008A
:10207000937676001377F70F81C605071377F70F6E
:102080009306F6FFC206C1821308F07A0D4563631A
:10209000D804D4336390E604EFE2EFC7B8232E846C
:1020A0008C332207138567004D8F93168700218399
:1020B000558F0507931507018546C181EF204073B1
:1020C00001C531296FE06FC795471EA00145DDBFEF
:1020D0000D4582808280962115476397E608582136
:1020E00030319306E07C2207518F1316870021833D
:1020F000598E420641821307F6FF42074183AA87A1
:102100000D4563E5E606EFE20FC1B8239433239053
:1021100005002207558F894694A3962193543600D3
:1021200093F4F40F850696A19376760081C6850414
:1021300093F4F40F84B396212E841385270085062B
:1021400096A19315870021834D8F93051700C20533
:10215000C181EF20E07201C559266FE00FBE1E203D
:102160000145BE9406A0D5BF0D45828082809A218C
:102170009547631CF702EFE20FBA3C210C3185460C
:10218000A207CD8F93958700A183CD8F93851700EC
:10219000C2050546C1810D05EF20805A814719C14E
:1021A0003D2EAA873E856FE04FB98D473E858280E0
:1021B000EFE26FB69A21954463F7E4065821303177
:1021C000930670072207518F131687002183518FC2
:1021D0001316070141821307F6FF42074183AA87BE
:1021E0000D4563EDE602D433131716001377F70F8E
:1021F0006396E602B8232E848C332207138567008A
:102200004D8F931687002183558F0507931507017E
:102210008546C181EF20C05201C5D1246FE0EFB1E6
:1022200006A00145E5BF0D45D5BF96211547639A28
:10223000E606EFE24FAE54211306C007AA87939437
:102240000601C1801387F4FF420741830D45636295
:10225000E6042E84B8238C332310040088A31220B4
:1022600086062207050612A04D8F94B393158700AA
:10227000162021834D8F930517008506C20516A0F1
:1022800026868146C18113852700EF20604B01C55A
:10229000B9246FE08FAA1E2086040145BE9406A0D3
:1022A000CDBF0D4582809A21A54763F2E70EEFE28C
:1022B000EFA45C2138312A84A207D98F9399870033
:1022C000A183B3E7F9009399070193D90901938793
:1022D000F9FFC207C1831307C0070D456367F70AFB
:1022E0001C24703013078007A207D18F1396870034
:1022F000A183D18F1396070141829307F6FFC2078E
:10230000C1836364F708183493171600639FE706C8
:1023100024202E890C30A2047C20CD8C4C30A207C6
:102320008546CD8F93958700A183CD8F9385170028
:10233000C205C1811305A400EF20804039E92310B4
:102340000900DD471CA083570900139A19009395D3
:10235000840085072310F900A30044018357090076
:10236000A180CD8C938514008507C2052310F90048
:1023700081464E86C18113052400EF20603C11E99F
:10238000835709003E9A231049016FE06F9A014577
:102390008280B122DDBF962115476390E60858215F
:1023A00030319306B0072207518F1316870021831F
:1023B000518F1316070141821307F6FF420741832D
:1023C000AA870D4563EDE604EFE2EF942E843E8587
:1023D0008C331147BC232310040018A11A20A20734
:1023E0009314160005071AA004B1CD8F93958700AA
:1023F0001A20A183CD8F938517000507C2051AA067
:10240000C1810905EF20802401C5D1286FE0EF923A
:102410001E200145BE9406A0D5BF0D458280828056
:10242000EFE26F8F03D44190AE84B725002022865F
:10243000938505530505EF40D157050482A001455A
:102440006FE0AF8FA14763F3C702EFE2CF8CB7C64F
:102450000100716637C50100938686E5130686E4A0
:1024600093058003130585E6EF40D14B13D7350064
:10247000930717003308E5003E958547B397C700DB
:10248000FD17C2070E073387E540C183B397E70006
:1024900018210346080093C7F7FF2207518F9D8933
:1024A000F98FB396B600DD8EC206C1862300D80030
:1024B000C206C182A18214A1828093D735003E95C5
:1024C0001C3108219D89A207C98F05453315C50018
:1024D000B3D7B7407D157D8D1375F50F82809D476D
:1024E00063E7A70093874187AA97882382801145D5
:1024F0008280EFE24F82AE871388F7FFB2851378B0
:10250000F80F36869306600F63FC060137C501009D
:10251000130585E8EF505137094422856FE0EF81BC
:10252000238AF180094475F937250000130545C554
:1025300023ACA190372500001305E5C623AEA1907A
:1025400037250000130505CF23A8A19037250000EB
:10255000130505C823A6A1903725000023AA0190E2
:102560001305C5D723A0A192372500001305E5E385
:1025700023A2A19237250000130585ED23A4A19283
:10258000BA863E85EFF0AFE82A8441F9EFE09FFA82
:1025900009C5054723A8E18049B70D44BDBFEFD267
:1025A0009FF7EFF02FD92A8419C5054723A8E180AA
:1025B00022856FD09FF8EFE0FFF71DCDB727000011
:1025C000938767B423ACF190B7270000938787B453
:1025D00023AEF190B7270000938727B523A6F1908B
:1025E000B72700009387E7B923A8F19023AA0190A9
:1025F0007D57238AE18055BF0D445DBFEFD2BFF107
:10260000138401811840854719456318F70083A793
:10261000819182970145232004006FD01FF2EFD2F1
:102620009FEF83A70181411119446395070C68004E
:10263000EFE0DFF40547AA876304E50001445DA8E5
:1026400032476303A7088946E31AD7FE03A501931F
:102650000C213707002023A4F190130607002386DE
:10266000B1928147138401931389C192938481901D
:10267000130707004148142291CA6391D5088E07B9
:10268000BA97DC4393856193829788C083C741934F
:10269000D5D794409387619385C2034709001040C2
:1026A00085458EA3136707F818A292231840930557
:1026B00016008EA3329714A3922303A701910C4016
:1026C00003C5418102979DBF83A7C1909384419325
:1026D00013866193938501931385419382972A848E
:1026E00031FD9C2003C741816303F700A1FB09452D
:1026F000EFE09FE4228541016FD03FE4850721068A
:10270000E39B07F761B7930740063345F502A947F6
:102710004205418163E8A706F167938787E90A05C7
:102720003E951C41828723800500930760041CA20C
:10273000828089479CA193078002D5BF91479CA1C5
:10274000E547F5B795479CA1D147D5B79D479CA1D3
:10275000BD47F1BFA1479CA1A947D1BFAD479CA1EF
:10276000A147F1B7B1479CA19D47D1B7B9479CA1FB
:10277000994775BFBD479CA1954755BFC1479CA1CF
:10278000914775B7D147E5BFEFD2FFD87971BD4703
:10279000AA842E84368593056100130671005C833C
:1027A000DC83EFF05FF69C83034E61009308C05D0D
:1027B00093960701C182B388F840139827001397B6
:1027C00016008608B30EC0411393260081470145C9
:1027D0008145054FD14F634A170105476369F70AE1
:1027E00081471EA045616FD05FD593161700A6964E
:1027F0000396060063DBCE046359C605B3060741A2
:102800008606A6968396060063C5C604B306E8004E
:102810008606A69683960600634DD60211C19DCD0D
:1028200081459386170010188607B2971356170034
:102830001A974207050593F6F60F239CC7FC4183C0
:102840001375F50F63EDDF00B68709074207418373
:1028500059B719C16384E5018545E1B79546300054
:10286000054781472E220A2205071377F70F898D26
:10287000AE97C207C1830906E366D7FEFD16B3C74C
:10288000D702C207C1838607C207C18399BFBE862C
:10289000F9B7EFD25FC8B386C502AA8801470145E0
:1028A0000148634FD7002E868146C285EF20814BB9
:1028B000EF400146EFB0A074EF40C1686FD0FFC792
:1028C00093171700C6978397070032974207B3877D
:1028D000F702418313DEF741AA9733B3A70072983A
:1028E0003E851A987DBF856793870777AA971A2137
:1028F00036211105158F231EE5FEE39AA7FE82807F
:102900000566814701478146130686BB1398170069
:102910002A98031808009398070193D8080163D4F4
:1029200006014687C2868907E392C7FE05839AA1FE
:1029300036858280EFD23FBE0545EF605048138454
:102940004194931505010420C1850545EF60D057DA
:10295000B74700208604938707CCA6978AA31C203C
:102960009546850793F7F70F1CA01387818163F4C1
:10297000F6040C23373501408546054613050580CE
:1029800023000400EF40C05B03A58194138481956C
:102990000147938781958546094681452320040098
:1029A000EFA0107C1C4091C7B7E700E0116723A09F
:1029B000E7206FD09FB8BA978C23373401401305B6
:1029C000048085460546EF40A057854513050480E1
:1029D000EF408055F9BFEFD21FB40945EF80207555
:1029E000B707002083A6C71D416779179C4203A53E
:1029F0008194F98F9CC21384419501479387419537
:102A000085461146814523200400EFA070751C40C7
:102A100091C7B7E700E0116723A0E7206FD0FFB1AF
:102A20009D4763E8A702EFD21FAFAA852A845D45C0
:102A3000EF00104D370500201305050806042A9401
:102A40001A20B74700209387C7D1DAA39AAB6FD07B
:102A5000DFAE82801385819482801385C194828049
:102A600087A78193539517C01375F50F8280EFD216
:102A70009FAA5D71EF602068A9450145EF60C068BD
:102A800071642946930504F70145EF600076A94576
:102A90000545EF6060672946930504F70545EF603B
:102AA000C074A9450945EF602066930504F72946DF
:102AB0000945EF60807393070010B7060800701097
:102AC000894501452316F102EF6030439307000268
:102AD000BEC0B72701409387C744BEC2B7270020B6
:102AE00093870755BEC485473EDE8567938787BBBE
:102AF0002316F1040C188567130600020A853EDCD4
:102B000002D802DAEF40E16AB73600000A85938600
:102B1000669D01468545EF60B059B707002003A7C1
:102B2000C71D814605461C43B7050E00054593E7C2
:102B300017001CC33737000013074793EF60104698
:102B400083C58181373501409D46054613050580C3
:102B5000EF40003F0545EF40204A3745002013096C
:102B600005DB130600328145130505DBEFD0BF9D61
:102B70005D45EF00D04CB70400209384040806059F
:102B800026951E21374400201304C4D13745002068
:102B90005EA023202401130600321309050D814590
:102BA000232404001305050DEFD0FF995D45EF00C8
:102BB00010490605AA94374700209E201307C7CC6A
:102BC00058D037470020130707CE1EA818D88D47C6
:102BD000374700205EAC130747CF58DC9387C1937B
:102BE000374700201CCC130787D0A9471EB45EB816
:102BF0002310F4042316F40438C4231CF404231211
:102C0000F40637470020B7470020130787D893877B
:102C1000C7D923262401232A0400231004022316E3
:102C20000402231C04022312040423180404231E98
:102C3000040478C8231404063CD061616FD0FF8F70
:102C4000EFD27F8D5D45EF00903F370400201304E5
:102C50000408060522951E21B74400209384C4D1A0
:102C60005D45DEA0EF00B03D06052A941E209EA81B
:102C70006FD0BF8C1A251C410607BA978EA31E255C
:102C80005A218507C207C1831EA563E4E700231408
:102C90000500828052211A2581469305F6FFC20560
:102CA000C1818147631CD6000315A5003305C50209
:102CB000898F33C5C70242054185828011E32E8783
:102CC0007D17420703280500418393181700469893
:102CD000031808008506C206C297C182E1B75221D7
:102CE0001A2581469305F6FFC205C1818147631C01
:102CF000D6000315A5003305C502898F33C5C70269
:102D000042054185828003280500931817004698E4
:102D100003180800C29711E32E877D178506420726
:102D2000C2064183C182E1B7AD4763E2A712EFD289
:102D30008FFEF167938747EC0A053E951C41828719
:102D4000374500201305C5D1EFF07FF9D37705D0C3
:102D5000B1A037450020130585D2FDB737450020C7
:102D6000130545D3EFF01FF3D37705D0538507E064
:102D7000EF408112B7C7010003A6070083A64700F2
:102D8000EF30411CB7C7010003A6870083A6C70028
:102D9000EF30411BEF40011BD30705F0538507E0DF
:102DA0006FD0AFF937450020130505D4EFF09FEE43
:102DB000D37705D0538507E0EF40010EB7C7010078
:102DC00003A6070083A64700EF30C117B7C701006D
:102DD00003A6070183A6470165BF374500201305F9
:102DE000C5D4E9B737450020130585D5C1B73745A8
:102DF0000020130545D6EFF0FFE9D37705D05385C2
:102E000007E0EF406109B7C7010003A6070083A6EA
:102E10004700BDBF374500201305C5D7EFF09FE73A
:102E2000B7C70100D37705D007A7C7FFD3F7E710CF
:102E3000B5B70395219519BF37450020130505D770
:102E4000F1BF0395019519B787A7819381BFD30778
:102E500000F0538507E08280EFD2EFE8411193073D
:102E6000B05D7C8323120100EF90F057B7C70100DB
:102E700003AB87F683ABC7F6056CB74A00202AC6BA
:102E80009544014D01490144372A0020930C0C77E9
:102E9000938ACAD185456800EFA0C00189476307BE
:102EA000F9028D476300F9026310090237350140CA
:102EB000854513050580EF4020070945EF70707DBB
:102EC0000D49C9BF0949F9B70549E9B705473400B4
:102ED000194681450145EFA01000A247898BA1CB7F
:102EE000B7490020938909CC094DB1479D4D330561
:102EF000FD0283952900050D89095695EFF09FD7AE
:102F0000B147E316BDFFA947B377F402054D6392BD
:102F10009702FD1493F4F40F91E0A5443735014076
:102F2000854513050580EF402000014D19A0E31CE5
:102F30000DFCA247918BC5C393090A55B38D990126
:102F40008395090001458909EF600078239FA9FE58
:102F5000E3983DFF13050A55EFF0FF989305210014
:102F600013050A55EFF0DF99AA869305610009461B
:102F700013050A55EFF05F812C839307A05D63EE84
:102F8000B702094613050A55EFF0BF90D30705F0C5
:102F90004C00539517C042054181EF60C012D377B2
:102FA00015D0538507E0EF30316F5A86DE86EF206B
:102FB0007179EF30317923ACA192B707002083A754
:102FC000C71D13078CBB0945D8C398431367170067
:102FD00098C3EF70106C05041374F40FA547E3FB5E
:102FE00087EA014445BD9C4221476369F708EFD257
:102FF000EFD071678A07130747EFBA979C43B684EF
:103000003289AE892A848287EF60707A098919C172
:1030100001459DA02285EF70C00085479CC0CDBFB3
:10302000EF60107805896DD59305A00D2285EF60BE
:10303000D0798947E5B7EF60B076098971D92285E3
:10304000EF60F076CE852285EF6050778D47F9B737
:10305000EF6010751375050845DDCA852285EF60A0
:10306000F075A14765BFEF60B073137545084DD18A
:103070002285EF60D07905456FD08FCB01458280E6
:103080009C4229476364F70CEFD24FC771678A07E8
:10309000130787F1BA979C43B6843289AE892A8494
:1030A0008287EF60D070098919C1014571A8228516
:1030B000EF60307785479CC0CDBFEF60706E0589AB
:1030C0006DD59305A00D2285EF6030708947E5B777
:1030D000EF60106D098971D92285EF60506DCE8542
:1030E0002285EF60B06D9147F9B7EF60706B137593
:1030F000450845DD2285EF60D072A9476DBFEF60BE
:10310000306A05895DD19305A00D2285EF60106DB1
:10311000994755B7EF60D068098941D92285EF609A
:1031200010699D4749BFEF60B0671375050435DD31
:103130002285EF60106C2285EF6070652300A90086
:103140002285EF60D06C05456FD08FBE014582802F
:103150009C411D47636AF718EFD24FBA71678A071F
:10316000130747F4BA979C432A844111134515006D
:10317000368A3289AE898287B28693050003294652
:10318000EFF07FE68547631BF50423A0A900232009
:103190000900A9A0B286930500031306F100EFF021
:1031A0003FEE8547631CF5029C87A18BEDF38947B1
:1031B00023A0F900E9BFB747002093878741131682
:1031C00034003E96CA869945EFF09FEB854763171A
:1031D000F500232009008D4723A0F90041016FD09D
:1031E0002FB5B2860E04374600200504130686412B
:1031F00022969D45EFF0DFE88547E311F5FE232099
:1032000009009147D1BFB7470020931A3400938437
:10321000874113862A00CA862696A145EFF05FE60D
:103220008547E31DF5FAB387540184238833C2042C
:103230002205C98CA823B7078000C98C63F99702BF
:10324000EF100008B70700FFBE94B3D4A402231008
:103250009A0031453304A40283150A003745002043
:103260001305C5D12295EFF0FFA0954791B7EF1058
:10327000200533D5A4022310AA00E1BFB2860E04B4
:10328000374600200D04130686412296A545EFF02F
:103290003FDF8547E314F5F4994719BFB744002091
:1032A000131A34009384844113064A00CA86269672
:1032B000A945EFF0FFDC8547E312F5F21334140063
:1032C00031451D043304A402D294AC30DC203745D0
:1032D0000020A205BE95C2051305C5D1C185229562
:1032E000EFF05F999D47E9B582800547A381E1949E
:1032F000828003C7319441CB138631941385219486
:103300001821938621942548B74700209385073FCD
:103310006362E80283D6019593171700AE9796A3D0
:103320009307A7008607BE9583D72195050718A1A7
:103330009EA18280EFD22F9E9387073F138547017E
:103340000147814503D807008907C29503D82701A3
:103350004297E319F5FEA947B3C5F50237440020AB
:103360001304C4D1694523000600238006003347B7
:10337000F7026EA8C205C1813AA459262E247145D0
:1033800041266FD08F9B8280EFD24F97411113055A
:10339000803EEF90D03E6945374400201304C4D1ED
:1033A00002C402C69D216AA8714585212AA437C599
:1033B0000100130505FCEF40314DEF90D0022A8942
:1033C00002C002C2E549154AEF90F00133052541DC
:1033D0004205418163F3A90402469D47630DF6004F
:1033E000A24537C50100130545FDEF40F1370545FE
:1033F000EF60F04102C412469D47630DF600B245EE
:1034000037C50100130585FEEF4011360145EF6019
:10341000104002C6EFF0FFED4DB76370AA0282477D
:1034200091E79D4705453EC0EF60703E924791E7AA
:103430009D4701453EC2EF60903D93862195300047
:103440008A850145EFF0DFD09386019570004C002E
:103450000545EFF0FFCF82471D47E397E7F6124798
:10346000E314F7F60545EF909031B9BF73002030B3
:1034700037C5010019711305850182FE86FC8AFAA1
:103480008EF892F696F49AF29EF0A2EEA6ECAAEAD4
:10349000AEE8B2E6B6E4BAE2BEE042FE46FC4AFA64
:1034A0004EF852F656F45AF25EF062EE66EC6AEAB4
:1034B0006EE872E676E47AE27EE0EF40F13CEFA05F
:1034C000F032AA8537C501001305C502EF40D129A6
:1034D000EFA03032AA8537C501001305C503EF40C0
:1034E000B128EFA07031AA8537C501001305C504C6
:1034F000EF40912701A0317106DF16DD1ADB1ED9DE
:103500002AD72ED532D336D13ACF3ECD42CB46C97B
:1035100072C776C57AC37EC182FE86FC8AFA8EF8AF
:1035200092F696F49AF29EF0A2EEA6ECAAEAAEE823
:10353000B2E6B6E4BAE2BEE042FE46FC4AFA4EF813
:1035400052F656F45AF25EF062EE66EC6AEA6EE803
:1035500072E676E47AE27EE0EF5020081305000878
:10356000EF30F076FA50EA525A53CA533A55AA55F8
:103570001A568A567A47EA475A48CA483A4EAA4ED5
:103580001A4F8A4F7670E6705671C6713672A672FF
:10359000167386737664E6645665C6653666A666F7
:1035A000166786677278E2785279C279327AA27A9F
:1035B000127B827B726CE26C526DC26D326EA26EB7
:1035C000126F826F296173002030197182FE86FCB0
:1035D0008AFA8EF892F696F49AF29EF0A2EEA6EC93
:1035E000AAEAAEE8B2E6B6E4BAE2BEE042FE46FCC3
:1035F0004AFA4EF852F656F45AF25EF062EE66EC73
:103600006AEA6EE872E676E47AE27EE0EF50005C09
:103610007670E6705671C6713672A672167386732E
:103620007664E6645665C6653666A666166786677E
:103630007278E2785279C279327AA27A127B827BEE
:10364000726CE26C526DC26D326EA26E126F826F3E
:103650000961730020301971294582FE86FC8AFABF
:103660008EF892F696F49AF29EF0A2EEA6ECAAEAF2
:10367000AEE8B2E6B6E4BAE2BEE042FE46FC4AFA82
:103680004EF852F656F45AF25EF062EE66EC6AEAD2
:103690006EE872E676E47AE27EE0EF401016854549
:1036A00037050040EF4000787670E6705671C671BD
:1036B0003672A672167386737664E6645665C665BE
:1036C0003666A666166786677278E2785279C2799E
:1036D000327AA27A127B827B726CE26C526DC26D7E
:1036E000326EA26E126F826F096173002030B7478D
:1036F0000020938787423E950CA1A1810CB1828066
:10370000EFC27FE19307E00241112A846306F500CE
:10371000930700036316F5002EC6EF20F07CB24538
:103720002285EFF0DFFCB7450020938585420947ED
:10373000A9460946A2952285EF50D00F41016FC0DE
:10374000DFDFEFC25FDDA1472A8493F4F50F630941
:10375000F50463E1A7028547630BF5048D47014536
:10376000630EF402B7470020938787423E9404A07B
:1037700005452DA0DD47630FF500E365F5FE9307D2
:1037800015FCC207C1830547E36EF7FCE37CB7FC79
:103790008544C9BF99470145E3F6B7FC6FC0FFD91F
:1037A00093074006E3F0B7FC9304400665BF8D47DE
:1037B0000145E3E5B7FE91CDB745002093858542ED
:1037C000A4B10947A94605468D050D45EF50900661
:1037D00051BF814441BFB7470020938787423E9540
:1037E0000CA18280EFC23FD32A84EFF09FF501CD78
:1037F000B7450020938585420947A9460546A2950D
:103800002285EF5030036FC05FD3B7470020938706
:103810008742AA97983388232207598D8280B74719
:10382000002093878742AA979833A823220742054E
:10383000498F8823498FA8336205598D8280B74705
:103840000020938787423E9508218280B747002059
:10385000938787423E9593D785000CA11CB193D7DF
:103860000501E1813CA12CB18280B74700209387FC
:1038700087423E9593D785000CA11CB193D70501D3
:10388000E1813CA12CB18280EFC2FFC8B744002087
:103890001306E003814513858442EFC0DFCA094760
:1038A000930640061306E003938584420145EF50DA
:1038B000206A894755E11384844214201307500578
:1038C0008147638BE6081306800281451305640176
:1038D000EFC07FC7B7070401938757151CC0B7C750
:1038E000FAF09387E77B5CC0B7070AC013872713FA
:1038F0009387871A5CC4B70701FF9387871A1CC890
:10390000FD575EA8B7C7010083A5C7051305A00230
:1039100018C4EFF09FF599477CB809479307601FDB
:103920009306803E1306E0039385844201451EAC56
:10393000EF50407019E537C5010013050506EF404B
:10394000A1740947930640061306E0039385844259
:103950000145EF50E05F85473E856FC01FBEEFC257
:103960009FBB2A84EFF07FF0B74500209385854206
:103970000947A9461146A2952285EF50A06B6FC05A
:10398000DFBB1E212A21C2075D8D8280AA8741816B
:103990008AA1BEA18280B747002093878742AA9759
:1039A0009833A82322074205498F8823498FA833DB
:1039B0006205598D8280EFC27FB42A843971130564
:1039C000A0032E89B289B684EFF03FE463608508D6
:1039D0002A8A1305C003EFF05FE3B307454163DABA
:1039E0000700636345077D14330444412A9442046D
:1039F00041801D453305A4020947A9461D466C00B8
:103A00001305E50342054181EF5080541886814734
:103A100091461376170019E68507C207C18305830F
:103A2000E399D7FE2300F9009C86B8809CA41C87EC
:103A3000DCC09C879CB4834721012390E90023814B
:103A4000F90021616FC0DFAE2A8465B72300090049
:103A5000CDBFEFC25FAC0111AA841305C003EFF024
:103A6000DFDA2A8468004482EF60B0584808EF60CB
:103A7000D05B1D453305A4028347C1013886A946A2
:103A8000DC82E24778841D465C838347D1011305BD
:103A9000E5034205DC831C8709474C0041815C85B6
:103AA000EF5040591305140042054181930710035C
:103AB00063F3A70001453744002093078442238E17
:103AC000A7021305A003A38E0702EFF01FD49307EC
:103AD00010039305844263E7A7000505238DA50223
:103AE000A38D05020947A94611469385A503130531
:103AF000A003EF50205405616FC03FA4EFC2BFA1E7
:103B00003744002013048442930564030947A946FF
:103B1000114613056003EF50E0510947A9461146CD
:103B20009305E4017945EF50E0506FC01FA1914724
:103B300063E0A704EFC23F9EF167938707070A057A
:103B40003E951C4182878565938505803725014018
:103B500013050580EF60002A1375F50F6FC0FF9DF8
:103B60008565EDB78965DDB79165CDB7A165F9BF0D
:103B700001458280954763E5A704EFC2DF99F167AD
:103B8000938747080A053E951C41828793050004E8
:103B90003725014013050580EF60C0256FC0FF99F0
:103BA00093050002F5B7C145E5B7A145D5B79145E5
:103BB000C5B73715014093050010130505C0E9BFCF
:103BC00001458280EFC23F9585476309F50211C523
:103BD0008947630AF5026FC05F9689E9A1453715E9
:103BE0000140130505C0EF608021F5B7A1453715E9
:103BF0000140130505C0EF608021F1BF99E1C14587
:103C0000F9BFC145EDB781E593050002C9BF930532
:103C10000002F1BFEFC23F907971A9473ED23ED07A
:103C2000B74700009387E7B24C0801453ED602CC67
:103C3000EF50A06A4C080545EF50206A4C08094532
:103C4000EF50A0694C080D45EF5020694C08114514
:103C5000EF50A068B7470000938747BC2C00014590
:103C60003EC802C6EF50E05F2C000545EF50605F94
:103C70002C000945EF50E05E45616FC01F8CEFC21C
:103C80009F89011199475C849387C1953EC89387AA
:103C900041963EC6B7071464D1073ECA8947230C34
:103CA000F100B7470000938747B728003ECEEF509A
:103CB000607905616FC07F88EFC2FF85EFF03FFC40
:103CC000EF50A077EF90A02BEF50807CEF50406436
:103CD000C5BFEFC2BF8279713714014002C602C866
:103CE00002CA02CCEF60E012F146014613050480DF
:103CF000C145EF60E00C130504C08D45EF60400A3C
:103D0000130504808D45EF60A00993050003371566
:103D10000140EF60E008130504809305400CEF605C
:103D20002008B72401401385048093050078EF60D4
:103D3000200613050440B165EF60800585653715E1
:103D40000140EF60E004130504408D45EF6040043E
:103D5000130504409305000EEF6080031305044033
:103D60009145EF60E002130504408565EF60400275
:103D7000E1460146130504C0A965EF60600493079E
:103D8000800491696C08130504C03ED2231E3101E2
:103D9000231F01002310010223110102EF30C07321
:103DA000130504C08565EF50B07E9145371501407D
:103DB000EF50107E1305044093050004EF50507D32
:103DC000370613808D65E14641061305044093854F
:103DD00005A0EF50F07E130504C093058003EF505B
:103DE000307B0569930509C037150140EF50507AC3
:103DF000138504809305C007EF50907B130504C022
:103E000093050010EF50D07AC16513850480938527
:103E10000580EF50F07981450145EF30A03713055B
:103E2000044093050004EF50907D130504C09305F2
:103E30000020EF50F075370A308013062A001385F2
:103E4000048091468945EF50B07713062A00138508
:103E50000480E1468545EF50B076E1460146130502
:103E6000048093050040EF50B07585451165EF3033
:103E7000902011457526EFE09FBFB7B51D00654640
:103E8000938595150945EF7080319305000209452A
:103E9000EF70800195659D461306803E938505E28F
:103EA0002145EF70603C1306401F9D452145EF7092
:103EB000C0492145EF70E0512145EF60907DB71773
:103EC0000300938707D43EC6B70700403EC86C0086
:103ED000B70700048546054601453ECA231C31014B
:103EE000EF5010776C00854605460545EF5050763B
:103EF000930509C0130504C0F1460146EF50506C0C
:103F0000F14601469305000C130504C0EF50506BB9
:103F10000145EF50B0720545EF505072680802CE6F
:103F200002D002D202D402D6EF50D00F854501450F
:103F3000EF3080239305803E0145EF30A025EFF060
:103F40007FCD0545EF40B06E45616FC06FDEEFC2BB
:103F50008FDCB74700202384A7461145EF607073BC
:103F600013064006FD550945EF90A06B6FC0EFDCCE
:103F70001385C1968280EFC20FDAB757002083A560
:103F8000C78A374500201306004013058547EF30E8
:103F9000E11F1375F50F6FC04FDAEFC24FD537141D
:103FA0000140130504409145EF507066130504402D
:103FB00093050008EF50B065856537150140EF5057
:103FC00010652945EF80B07B856537150140EF50BE
:103FD00010632945EF80B07A13050440930500086B
:103FE000EF50F061856537150140EF50506229456B
:103FF000EF80F078856537150140EF505060294516
:10400000EF80F0779305000813050440EF5030600F
:104010001305F003EFF0BFF30545EF8050769305ED
:10402000000813050440EF50905D1305F003EFF016
:104030001FF20545B7590020B7440020EF803074C7
:10404000B74A0020938989871304044093848446E7
:10405000A14B7D5685450145EF90A05C83A54903A2
:104060001306004013858A47EF30A114138A8A474C
:104070000149930500082285EF507059130500048B
:10408000EFF0FFEC136B890B5A85EFF05FEC9305B3
:1040900000082285EF50B05613050004EFF03FEB07
:1040A0005A85EFF0DFEA93070008114523A2440187
:1040B0009CC423800400239604000509EF60705D12
:1040C00013064006FD5509451379F90FEF90605529
:1040D000130A0A08E31F79F9ADBFEFC2CFC3B714C3
:1040E00001402A8413850440EF50F0519355244039
:1040F0009317E4008D89DD8D9167F1177D8DC98D52
:10410000C205C18113850440EF50B04FB724014070
:1041100013850480EF50304F0E041375F587137428
:104120000478498C93150401C18113850480EF50F4
:10413000504D6FC08FC0EFC20FBE83C701974111B2
:104140003744002002C69384019713048446A5EBEC
:10415000371901409305000213050940EF50304B19
:104160001C2085651305094085C7EF50504A08207B
:10417000EFF0BFF6231404003715014091451305F5
:104180000540EF50D04785479CA041016FC0EFBA72
:10419000EF50F0465A249307F003930500081305E7
:1041A000094063EBE700EF5090453A245C40BA9732
:1041B0008823EFF09FF2C9B7EF507045FDB7371570
:1041C0000140914513050540EF5070445E241307EC
:1041D000F0078507C207C1836361F7045EA43E242C
:1041E0001A248507C207C1833EA463E5E70211458F
:1041F000EF60F07303A5C1967C0001478D4605462C
:104200008945EF90E075B24791C7B7E700E01167C5
:1042100023A0E720238004008DBF23160400C1B72C
:10422000EFC26FAFB7460000B7B50A008547014738
:10423000938666130546938505E6EF60507A371539
:1042400001409305000213050540EF50503C3754E0
:104250000020F1658146014613058487938505AAF0
:10426000EFC04FCBED659385058213058487EFC0C2
:104270001FAE13058487EFC0AFC76FC00FACEFC28E
:104280008FA90945EF30A03EEF10107CEF90D04091
:10429000EF208042EF20403FEF20E022EFD0CFD34D
:1042A000EFF03FA3716513050520EF90104837C567
:1042B00001001305C509EF30315DEF80100901A041
:1042C00003D5E181828003C511978280EFC2AFA43C
:1042D000B75600209387869113171500BA9782234B
:1042E0009307E5FF13F7F70F9307900241119386A9
:1042F0008691814463E7E700F1679387871CBA974B
:1043000084239307B00363EDA7007167931725001B
:104310001307C70ABA979C43828719C0EFE0FFFCD6
:1043200041016FC08FA19375F40F2685EFF06FC127
:10433000C5BF1375F40FEF20003CDDB70D49938422
:104340001197637589009C209EA2D9BF37C50100D3
:10435000A2851305C520EF30314180A0E31224FD72
:10436000B707EFBE37E700E0938707083CC74DBFAC
:1043700003C711978947E315F7FA1385A605EFF0F0
:104380004FE02A84EF2051312A8637C50100AE86DE
:104390001305C521EF30513DA2850145EF200049AD
:1043A00041B703C711978947E31CF7F61385E60564
:1043B000EFF02FDDAA850545D5B703C711978947CB
:1043C000E310F7F613852606EFF0AFDBAA85094563
:1043D000F1B72285EFE0CFE4A1B79E32E372F4F4A7
:1043E000A28526854DA0FE2EE3FC87F2DE32FDB7C6
:1043F0009E32E3F787F2BE32D5B7DE32E3F287F2C0
:10440000C5B79307F5FF86073385F600EFF06FD742
:10441000AA852685EFF0AFD421B783C71197E38132
:1044200007F07DBFDD47E3ED87EEBE2A48005C82E2
:10443000DE2ADC82FE2A5C83EF602049D5B5930733
:10444000B003D5B77D1442044180F947E3EA87EC15
:104450009E2E48005C86BE2E3EC4DE2EDC86EF60BB
:10446000404B7DBD7D1442044180AD47C5B79307E5
:104470002006E9BF83C71197E38407EA5515420573
:104480009375F40F4181EFF0EFB559BD83C71197D4
:10449000E38807E8A2852685EFF08FA651B5EFC225
:1044A000EF8583C71197B7540020138484911305B7
:1044B00060021EA0EFF02FCEB7C7010087A7C71F6D
:1044C000530705F09305240037C901005377F7100F
:1044D000531507C0537705D05377F718530507E0F6
:1044E000EFF0CFCA13052002EFF0EFCA8727C91FEC
:1044F000530705F0930564005377F710531507C071
:10450000537705D05377F718530507E0EFF00FC83E
:104510001305A002EFF02FC88727C91F530705F026
:104520009305A4005377F710531507C0537705D0B0
:10453000D377F718538507E0EFF04FC50145EF201B
:10454000F0009305A405EFF06FC40545EF201000BF
:104550009305E405EFF08FC30945EF20207F930515
:104560002406EFF0AFC29389419713854197EF601E
:104570004028375500201309C5901305C590EF60FA
:10458000C02A0545EF40305483C70900231AA4040C
:104590003EA883C719005EA883C72900DD497EA80D
:1045A000834789001EAC832749003EAC83479900AE
:1045B00013898491938484915EAC2D4422850504F3
:1045C000EFF0EFA742042316A90241800909E3177F
:1045D00034FF716A01499389C187130B9002130A52
:1045E0008A1C954AB3872901802301459307E4FF7C
:1045F00093F7F70F6364FB00D29788230604EFF06C
:10460000CFA026940AA00509E31E59FDF169716A3D
:10461000014993890920130B9002130A8A1CB14A9D
:10462000B3872901802301459307E4FF93F7F70F30
:104630006364FB00D29788230604EFF04FA0269412
:104640000AA00509E31E59FD6FB09FEE6388050EB1
:10465000EFB2DFEAB387C50013079002AA8A2E895A
:10466000B2840545634CF70A716A375400208149CA
:10467000130ACA1913040498130BC002B3073A01B2
:104680008843EFE06FEA37C70100D30705F007273B
:10469000C71FB30734019109D3F7E710539507C03B
:1046A000D37705D0D3F7E7189CE3E39969FD254557
:1046B000EFE08FE7D30705F00609539517C0D377CE
:1046C00005D0130500045CF4EFF06F970AB8EF1003
:1046D000B0242AB8EF1070234AB81305E003EFF0B6
:1046E0000F966AB8EF20C0000ABC0145EF200066B3
:1046F0009305A403EFF08FA90545EF2020659305EE
:10470000E403EFF0AFA80945EF20406493052404CB
:10471000EFF0CFA74A94090481E401456FB05FE14F
:104720008357C4FFFD14890AA183238FFAFE8357A0
:10473000C4FFC204C180A38FFAFEF1BF0545828089
:10474000D5C5EFB2BFDBB387C50013074003AA840A
:1047500041110545634BF706B1CA0547014563960C
:10476000E6061397150037540020FD1513048491B5
:1047700013950501139907013A94418113590901D1
:1047800093091500C20993D909010904638E29030D
:104790009C208904A207231EF4FE03C7F4FFD98FCF
:1047A000231EF4FEEFF09FB24E85D9BF32C62EC451
:1047B000EFF0FFCEA245B75700203246860593871B
:1047C0008791BE95890509E6014541016FB05FD625
:1047D00083D7C5FF7D168904A183238FF4FE83D779
:1047E000C5FF42064182A38FF4FEE9BF05458280E2
:1047F000EFB2DFD09384F5FFC204C1803387C400D9
:104800008D4763CDE70632842E89AA899DC68547E8
:1048100001456395F6043304B600420441801389D0
:1048200014004209135909016309890283C509006B
:104830002685CA84EF40B024DDB7375A00204A9459
:1048400013058A914204EF40F0244180138914003B
:104850004209135909016315890001456FB05FCD05
:10486000A685054613058A91EFD03FC5AA86A68581
:1048700005464E85EFD01FBDCA84C9BF0545F9BFA7
:10488000FD15C205C1813387C500954763CAE70698
:10489000EFB2FFC5375B00202A84935A360093DBC2
:1048A000350013058B91B28493F9750013891A00B2
:1048B000EF401032228A130B8B91B38B8B40330560
:1048C0007A01420541812146CE855A957D19050A16
:1048D000EFD0BFBE4209A30FAAFE13590901E3108E
:1048E00009FEA1479D88B384974033159500137541
:1048F000F50F56943355954008A001456FB0BFC2DF
:1049000005458280EFB29FBF156481440549B7C950
:104910000100130404B00D45EFE07FF2631225039C
:104920000945EFE0DFF1AA850547A2860D4601455E
:10493000EFD03FBC19EDEFD07FCC11CD8544E1BF66
:104940000145EFD0DFC511E51385491FEF30C17375
:10495000DDB7F1D0CDB70545EF806062EFD03FCC39
:10496000E9BF014793868198094895453386E6005B
:10497000834806009377F70F63950803054718A24D
:104980001547114885451DE18DCBFD1793F7F70FAE
:104990003386F600834806006393B80289471CA259
:1049A00082800507E314B7FC9547D9BF850793F7C5
:1049B000F70FE37FF8FC8147E1BF9147D1BF7D1737
:1049C0001377F70F69F3828093878198238207001A
:1049D00023A0070003C7C1995146B707002033073A
:1049E000C702938707090146938681988945054840
:1049F0001545BA97D8438147110783280700639765
:104A0000B80011EA3386F6000CA205468507410777
:104A1000E395A7FE8280B388F60023800801FDB7E6
:104A2000EFB27FAFF16737550020938787431307B5
:104A3000A003930600080146814513058587EFB062
:104A40009FC26FB09FAFEFB21FADEF40B01E1841D5
:104A500023A0E19A6FB07FAE370700201307070944
:104A60008147BD4610236309A600850793F7F70F1A
:104A70005107E399D7FE85473E858280EFB21FA894
:104A80007D15370700201375F50F114683C6C199B0
:104A9000930707091384C199636DA606716713070D
:104AA000C7220A053A95184102875147B386E602A4
:104AB000B697A62B8DC493F704F0C2072167C18374
:104AC000930607106385D70863EBF6046388E7064F
:104AD00093F7F40F89C73E85EFF01FF808A06FB079
:104AE0003FA55147B386E602B697862BE1B75147FB
:104AF000B386E602B697C62775BF5147B386E6026E
:104B0000B697E62745BF5147B386E602B697A62774
:104B100055B75147B386E602B697862761BF93061D
:104B200007306389D70213070740E393E7FA9387B7
:104B3000A199982351DF7D1798A359BFEFF0DFE8C3
:104B40000947A38DE1980547238EE19651B7238D40
:104B50000198BDBF1389A199834909001305A003DA
:104B60008509EFE09FCAE3D5A9F6834709008507C9
:104B70002300F900B1BF2A887D1619456365C50C6D
:104B8000EFB27F992E85F1650A06938505242E964E
:104B900010420286631C0800EFE07FCA4205418193
:104BA0002397A198A38101986FB03F99EFE0FFC5CB
:104BB000C5BF83D5E1986317080093F5F50FEFE0C3
:104BC0007FC2DDB7EFE0DFB3C5B7138731981C2391
:104BD000850793F7F70F63F4D7001CA3F1B7230001
:104BE0000700D9B793873198982319E394A36DBF31
:104BF0007D1798A355BF83C631989387E198939505
:104C00002600F16693860641AE9692239442B296B0
:104C10006364D70096A349BF9AA379B783C6319836
:104C20001387E19893952600F16693860641AE9628
:104C300012239442B305F64063E5D500158E12A306
:104C4000A5B71EA395B78280D38707F0FD159947B6
:104C500063E7B712EFB23F8CF1679387C7258A05E8
:104C6000BE959C41411136848287EFE0DFD223A8B4
:104C7000A1980504A381819841016FB01F8C83A581
:104C80000199EFE0DFCDCDBF03C73198369693870A
:104C9000319805071377F70F6359C70098A3982336
:104CA000E31C87FC050480A3C1BF23800700C5BFA8
:104CB00083C7319805061387319899C31386F7FF88
:104CC0001376F60F6304C40010A37DB77D1400A310
:104CD00065B783C73198530707F063F5F600FD17F2
:104CE00093F7F70FF166938606428A07B6979C639F
:104CF0003AE6538507E03EE4EF20011A2A8637D5CD
:104D00000100AE861305C58BEF300126938701990C
:104D10009463A2673267D3F7D7005387E7A019C31C
:104D20009CE399BF98E389BF03C7319863F5E60018
:104D30007D171377F70FF166938606420A073697B9
:104D400014633EE6538506E036E4EF20E1142A863C
:104D500037D50100AE861305C58BEF30E1201387F0
:104D600001991863B267A2665376F708D387C6A085
:104D700089C75377D70818E301B71CE3F5BD8280D4
:104D8000FD15994763E3B71EEFB24FF7F1679387BD
:104D900087278A05BE959C41AA848287014413898E
:104DA000419991493385840042054181EFE03FA953
:104DB000B307890088A30504E31634FFA381019893
:104DC0006FB00FF70144138941999149B3078900E6
:104DD000338584008C23420541810504EFE09FA0C8
:104DE000E31634FFF1BF03C73198B9469387319872
:104DF00005071377F70F63EFE60098A398238D4616
:104E00001376B70F6305D600AD46E31BD7FA050747
:104E100098A37DB723800700D5B783C73198138740
:104E2000319891CF9386F7FF93F6F60F93F5B60F6F
:104E30000D466388C5002D466385C600B6871CA352
:104E400041B7F917EDBF83C731987166094793855C
:104E5000419913060641636FF7008A07B297B8318C
:104E60009C43BA971307F00F6364F700BCB189BF86
:104E7000FD57EDBF19476361F702F11793962700BD
:104E8000B296B8219C42BA971307F00F6364F700FB
:104E9000BCA13DB7FD57EDBF29476362F702E1179B
:104EA0008A07B29798319C43BA971307F00F63644F
:104EB000F7009CB131B77D57A38AE19811B71387EA
:104EC00047FF8D473367F70294210A0732971C4347
:104ED0001307F00FB6976364F7009CA1D5B57D5713
:104EE000238AE198F1BD83C731987166094793859C
:104EF000419913060641636EF7008A07B297B831ED
:104F00009C436365F7001D8FB8B15DBDA3810500AB
:104F100045BD19476360F702F11793962700B296D3
:104F2000B8219C426365F7001D8FB8A151BD238154
:104F3000050079B52947636CF700E1178A07B29736
:104F400098319C43E369F7F61D8F98B195BD13879F
:104F500047FF8D473367F70294210A0732971C43B6
:104F6000E3EFF6F69D8E94A1A1BD8280EFB2AFDA99
:104F70002E841DE11385419AEF50B0079387419A23
:104F8000B82394339023B7D501009385C5A5228516
:104F9000EF3041106FB06FDA7D159D47E3ECA7FE4F
:104FA000F167938747290A053E951C418287A381B3
:104FB0000198CDB71385419AEF503011E1BF03C777
:104FC00031989D469387319805071377F70F63ED66
:104FD000E60098A3982389466305D7009546E31B0E
:104FE000D7FA050798A37DB723800700E5B783C7E5
:104FF00031981387319881CFFD1793F7F70F8946C2
:105000006389D70095466386D7001CA361B79D4787
:10501000EDBFFD17DDBF83C73198716605479386E5
:10502000419A13060641636DF7008A07B297B822CA
:105030009C43BA971307B0036365F706BCA299BFF8
:105040001147636EF700F5178A07B29798329C43B1
:10505000BA971307B0036366F7069CB225BF1387A0
:10506000A7FF89473367F7028C220A0732971C4350
:105070005D47AE976364F7009CA229BF98A219BF51
:1050800083C73198716605479386419A1306064196
:10509000636EF7008A07B297B8229C436365F700F6
:1050A0001D8FB8A2C5BD23810600EDB51147636F02
:1050B000F700F5178A07B29798329C436365F700AB
:1050C0001D8F98B2C1BDA3800600E9B51387A7FF65
:1050D00089473367F7028C220A0732971C4363E53E
:1050E000F5009D8D8CA27DB52380060065B56D15FC
:1050F00093170501C183130750026368F7007165B8
:105100001305053A3E950821828001458280EFB261
:10511000EFBE0111A30B0100AA892E89328481C63A
:1051200083C731989CA219C385471CA34E853AC2F8
:10513000EFF0FFFB9387F9FFC207C1839306C0021C
:10514000AA8463EBF670F1668A079386462BB697BE
:105150009C43124782879387419AB82394339023C4
:10516000B7D501009385C5A54A85EF20B1720561C9
:105170006FB00FBC83C7819913972700F16793879E
:10518000473DBA979DAD83C781990947638EE70074
:105190000D476387E70295EFB7D501009385858FAB
:1051A0004A85EF209173E1B71145EFE04FE9B7D59C
:1051B00001002A86938585904A85EF20B16D45BF11
:1051C0001945EFE0CFE7B7D501002A869385C59151
:1051D000E5B7B7D5010093850593D9B71384A19995
:1051E00010201305A003050632C2EFE00FE21246BD
:1051F000B7D50100AA86938585954A85EF209169E8
:105200000820B75600209386069D1386419A938501
:105210008199EFE04FFAA1BFEF10804D83477101F4
:10522000214781461376150009C6850793F7F70FC6
:1052300085467D1705811377F70F1375F50F7DF3FD
:1052400099C2A30BF10003467101B7D50100938504
:1052500045969DB7EF10C04911E5B7C5010093858C
:1052600045B03DBF83C6219883C791991387919913
:1052700089C6B356F540858A95E295468D458507E2
:1052800093F7F70F63F3F50081473356F540058A2E
:1052900009E6FD1693F6F60FFDF21CA31C231397E7
:1052A0002700F16793870740E9BD15C0A147630E4A
:1052B000F402B7D7010037D7010083A7078C032773
:1052C000478C89461146A285EFF01F984DB5EFE057
:1052D0008FECEF10713CAE86B7D501002A8693851E
:1052E000C5964A85EF20115B59B503A50199D5B73D
:1052F000630A041CA147630CF40081471307703E46
:1053000089462286A6850545EFF0FF868DB503D632
:10531000E198B7D501009385459779BDEFD0DFA01F
:10532000D30705F0B7D501009385C597539607C0FD
:1053300061B511C8A1476300F402096781471307EB
:10534000F7708D467DBFEFE04FCC2A86B7D50100C0
:105350009385459895B503D6E198CDBFEF10003BF6
:105360002A86B7D501009385C598B9B51305710193
:10537000EF10A03B8347710189C7131605014186D1
:10538000CDB7B7D501009385C59919BD1305710136
:10539000EF10003F834771012AC2014585C3EFD05A
:1053A000BF98EF10712F1247AE86B7D501002A863D
:1053B0009385C59A4A85EF20F14D55BBEFD0DF9616
:1053C000EF10912DAE86B7D501002A869385C59B37
:1053D00009BF13050004EFE08FC611C5B7D5010062
:1053E0009385C59C75BBB7D501009385059D4DBBC5
:1053F0002808EF20903E8348D1010348C10183472C
:10540000B1010347A1018346910103468101B7D54C
:1054100001009385459D4A85EF20D14789BBEF1058
:10542000603009E9B7D501009385858C4A85EF2066
:10543000714635BBEF10002F9147E305F5FEB7D558
:1054400001009385858DDDB701C8A1476309F40488
:10545000A285EFF0FF9221BBEFE06FBE2AC6138555
:10546000140042054181EFE08FBD2AC4138524005A
:1054700042054181EFE0AFBC2AC2138534004205EA
:105480004181EFE0CFBB1247A2463246AA87B7D58B
:1054900001009385459E4A85EF20D13FC9B9138607
:1054A00041993C32382214321022D5B719C8A1478D
:1054B000E30FF4E481471307703E8D462286E145F1
:1054C00099B56145EFE06FB42A86A1B52545EFD0C7
:1054D000BF85D30705F0B7D501009385859F539607
:1054E00017C042064182C9B9CA852285EFF01FA8BC
:1054F000BDB91DE0375500201305059DEF50E03282
:10550000B75700209387079DB7D501009837D4433C
:1055100090279385858E89B97D149D47E3E987C4DB
:10552000F167938787360A043E941C408287A381E3
:10553000019835B9375500201305059DEF50603DA2
:105540003DB103C731989D4693873198050713777E
:10555000F70F63EDE60098A3982389466305D7000B
:105560009546E316D7C0050798A311B1238007001D
:10557000E5B783C731981387319891CBFD1793F71F
:10558000F70F89466387D70095466384D7001CA32D
:10559000F9BEFD17EDBF83C73198B756002071667D
:1055A00005479386069D13060641636DF7008A073B
:1055B000B29798369C43BA97130730066366F7068E
:1055C0009CB675B61147636DF700F5178A07B29759
:1055D000D8429C43BA9731476367F706DCC241BEA5
:1055E0001387A7FF89473367F7028C260A0732978C
:1055F0001C437D47AE976364F7009CA68DBE98A6BA
:10560000BDB683C73198B75600207166854593862D
:10561000069D1306064163EDF5008A07B29798369A
:105620009C4363F5E7001D8F98B691B68CB681B6A2
:105630001147636EF700F5178A07B297D8429C436B
:1056400063F5E7001D8FD8C21DB6CCC20DB6138717
:10565000A7FF89473367F70288260A0732971C435A
:1056600063F5A7001D8D88A619B68CA609B60DC4D2
:10567000A147E30EF4C8B1476393F9021545EFE083
:105680000F9C7D151317050141839307400689463A
:105690002286A68501458DB9EFE06F9A35B5B547ED
:1056A0006393F9021D45EFE08F997D1513170501EE
:1056B000418311453AC2EFE08F9805059317050124
:1056C000C1831247E9B7BD476393F9021545EFE07F
:1056D0000F97050593170501C18319453EC2EFE0F9
:1056E0000F967D1513170501418392474DB71D4550
:1056F000EFE0EF94050593170501C1831307F00F41
:1057000079B71305A003EFE04F902A863DBE8D4781
:105710006308F40263E6870019C8A38D019881BC71
:105720009947630FF400A147E309F4B2FDB783C7BB
:10573000C197E38407B2B7D50100938505A08DB466
:10574000EFD0BFBAA38D0198238E01960DB48D477B
:105750006301F40263EC870069F083C7C197E38EAD
:1057600007AEB7D501009385C5A01DBC9947E31CC2
:10577000F4FA81451305C003EFD09FF88145130566
:10578000A003EFD0FFF77DBF01C8A1476309F40074
:10579000854713074006E5BDEFE06F8ABDB703D626
:1057A000E19865B42300070029C0A147631AF400FB
:1057B00083D7E19813972700F1679387873CD1B28D
:1057C000814709478146E9B52300070019CCA14765
:1057D000E300F4FE0D45EFE08F86E31A0598854758
:1057E000094781462286A68505B62685EFE02F85E6
:1057F000F1670A059387873CAA978C4355B2EF005F
:10580000B0112AC2EF0070101246B7D50100AA8667
:10581000938545A34A85EF20F1076FF05F9523003C
:10582000070011C8A1476300F40281471947814668
:105830002286DD4585B55D45EFE06F80F1670A059D
:105840009387473E55BF83D7E19813972700F167A9
:105850009387473E6FF0FF92E30B0990B7D50100A5
:10586000938585A56FF0DF938147138781988945DC
:105870001546B306F70088226311B504EFA2BFC92D
:105880000D4798A283C6C199514637070020B386B9
:10589000C6021307070992070D46814536975843FC
:1058A0008146BA97CA2701472392A198EFF03F8615
:1058B0000547238EE1966FA05FC88507E39BC7FA73
:1058C0000547238EE19682808147138781988D4515
:1058D0001546B306F70003C80600631FB802EFA21F
:1058E0009FC3094798A283C6C199D14537070020B5
:1058F000B386B6021307070992072A8681453697B1
:1059000058438146BA97CA270147EFF05F8009479D
:10591000A38DE1986FA07FC28507E39CC7FA094772
:10592000A38DE1988280EFA21FBC9389019A03A501
:1059300009005D71B7040020EF6030461384C199FF
:105940009384040929C103A509001389019801461C
:1059500093850198EF60102E85476316F502034783
:105960001900930700086310F7029387B1999423F5
:1059700009476388E6068D47638CF60E89E6034582
:105980000900EFF0AF8F1C205147B387E70213895E
:105990008198854A130B0008BE94C040B75400207C
:1059A00013858487EFA0DFD4930B04055C406380EC
:1059B0005713638607100947638BE7141C2089E798
:1059C00041040509E3948BFE138721981C23A94603
:1059D000850793F7F70F63ECF6241CA361616FA0B2
:1059E0005FB4034709000D466300C7066369E6001C
:1059F000E31BD7F883C7C197ADC7014589A8914676
:105A00006308D7029546E310D7F81387C19714238C
:105A100081C62300070085BF182023800700D147D7
:105A2000B307F702A697A82BEFF00F8308A0A1BF3A
:105A30001387C197142389E608A3EFE0FFF8A1B705
:105A400090A3EFF07FE281B783C7C19781C7EFE0F2
:105A50005FF115BF1C205147B387E702A697C827FF
:105A6000E1B71C205147B387E702A697E8276DBF2F
:105A7000834709001547E368F7F071678A07130742
:105A80008738BA979C4382871545EFF0FFE3E5BD61
:105A90001945E5BF01478146094603D5419881452F
:105AA000EFF0EFE6CDB5014781460546FDB701476A
:105AB00081461D46DDB7014781461146F9BF1444B2
:105AC00030200C3013858487EFB00FA1C5BD83490A
:105AD000240014440C304E8613858487EFB0CF9F8A
