:100000006F20904013000000130000001300000058
:100010001300000013000000130000001300000094
:100020001300000013000000130000001300000084
:08003000130000007300100032
:100038000000000000000000F61C0000FA1C000090
:10004800000000004E2B000000000000000000002F
:10005800502B0000522B00000000000000000000A0
:100068009A5E00000000000000020000000000008E
:10007800582B00005A2B00005C2B00005E2B000060
:10008800602B0000622B0000642B0000662B000030
:10009800682B00006A2B00006C2B0000365400000F
:1000A80004550000722B0000D2550000A056000035
:1000B800782B00007A2B0000965000007E2B000061
:1000C800802B0000822B0000842B0000801D000084
:1000D800882B00008A2B00008C2B00008E2B000040
:1000E800E01E0000922B0000942B0000962B0000CD
:1000F800982B00009A2B00009C2B00009E2B0000E0
:10010800A02B0000A22B0000A42B0000A62B0000AF
:10011800A82B0000AA2B0000AC2B0000AE2B00007F
:10012800CC590000B22B0000B42B0000B62B000005
:10013800B82B0000BA2B0000BC2B0000BE2B00001F
:10014800C02B0000C22B0000C42B0000C62B0000EF
:10015800C82B0000CA2B0000CC2B0000CE2B0000BF
:10016800D02B0000541E0000D42B0000D62B00001A
:10017800D82B0000DA2B0000DC2B0000DE2B00005F
:10018800E02B0000E22B0000E42B0000E62B00002F
:10019800E82B0000EA2B0000EC2B0000EE2B0000FF
:1001A800F02B0000F22B0000F42B0000F62B0000CF
:1001B800F82B0000FA2B0000FC2B0000FE2B00009F
:1001C800002C0000022C0000042C0000062C00006B
:1001D8000000000000000000000000000000000017
:1001E8000000000000000000000000000000000007
:0801F8000000000000000000FF
:10020000130181F806C216C41AC61EC822CA26CC1B
:100210002ACE2ED032D236D43AD63ED842DA46DC76
:100220004ADECEC0D2C2D6C4DAC6DEC8E2CAE6CC46
:10023000EACEEED0F2D2F6D4FAD6FED8F3220030CF
:1002400096DA83A2419923A02200F32510342EC010
:100250009305000273A0458003A1C187EF60707110
:1002600003A3419903210300824273901234D652B2
:10027000739002309240A2423243C2435244E2445D
:10028000724582551256A2563257C2575258E258FA
:1002900072598649164AA64A364BC64B564CE64C0E
:1002A000764D865D165EA65E365FC65F13018107DA
:1002B0007300203013000000130000001300000042
:1002C00013000000130000001300000013000000E2
:1002D00013000000130000001300000013000000D2
:1002E00013000000130000001300000013000000C2
:1002F00013000000130000001300000013000000B2
:1003000083A2C187938202E07390023403A14199D2
:10031000024182403243C2435244E2447245825514
:100320001256A2563257C2575258E258725986494D
:10033000164AA64A364BC64B564CE64C764D865D61
:10034000165EA65E365FC65FD652A102739002307B
:10035000A2421301810782801300000013000000F5
:100360001300000013000000130000001300000041
:100370001300000013000000130000001300000031
:100380001300000013000000130000001300000021
:100390001300000013000000130000001300000011
:1003A0001300000013000000130000001300000001
:1003B00013000000130000001300000013000000F1
:1003C00013000000130000001300000013000000E1
:1003D00013000000130000001300000013000000D1
:1003E00013000000130000001300000013000000C1
:1003F00013000000130000001300000013000000B1
:10040000F322003093F272FF130380781203B3E2F9
:100410006200711523205500130585FA10C12115BE
:10042000232005009302000063870200711523203A
:100430000500FD12D5BF71150CC1828000000000BF
:1004400000000000000000000000000000000000AC
:10045000000000000000000000000000000000009C
:10046000000000000000000000000000000000008C
:10047000000000000000000000000000000000007C
:10048000000000000000000000000000000000006C
:10049000000000000000000000000000000000005C
:1004A000000000000000000000000000000000004C
:1004B000000000000000000000000000000000003C
:1004C000000000000000000000000000000000002C
:1004D000000000000000000000000000000000001C
:1004E000000000000000397101436EC619A0397187
:1004F00041536AC866CA62CC5ECE19A039710153F5
:100500005AD056D252D44ED64AD826DA22DC06DE4B
:1005100033016140828241114AC026C222C406C60C
:100520008282B24D4101024D924C224CB24B4101AC
:10053000024B924A224AB249410102499244224462
:10054000B240410182803D432A876373C30293779F
:10055000F700BDEFADE5937606FF3D8ABA960CC372
:100560004CC30CC74CC74107E36BD7FE11E2828036
:10057000B306C3408A069702000096966780A600DD
:100580002307B700A306B7002306B700A305B700EB
:100590002305B700A304B7002304B700A303B700E3
:1005A0002303B700A302B7002302B700A301B700DB
:1005B0002301B700A300B7002300B700828093F5A2
:1005C000F50F93968500D58D93960501D58D61B76E
:1005D000939627009702000096968682E78086FA17
:1005E0009680C1171D8F3E96E374C3F8A5B7B70771
:1005F00000202382072405458280B7070020054795
:100600002382E724B707002023A0A7240545828082
:10061000B7070020938747240387070009CB3707D4
:100620000020032707242380070018C105473A85C7
:100630008280EFF25FEE08218545EF80705A7D578A
:100640002386E180DDBDEFF21FED411185450545B3
:1006500002C202C423160100EF30A01583A7C18295
:1006600037470F0013070724B3D7E7024C003705BD
:100670000040231501007C8489679387F7703EC290
:10068000EF30A0260546854537050040EF3040583D
:10069000854537050040EF30205685453705004039
:1006A000EF30A05FB7E700E0056723A2E710410144
:1006B00069B5EFF2BFE43704002041111305C424EB
:1006C000EF3040753725010013050526EF00115D59
:1006D0008144130AC424B72901001949B3079A00B9
:1006E0008C231385C9268504EF00515BE39824FF12
:1006F0002945EF00B15E813FB70500209306C42471
:10070000138681809385851913854180EF40A04031
:100710002A84EF10D03219E437250100130505278C
:10072000EF00116C9567938707E23EC2916793874C
:1007300087A93EC44800A5473EC6EF80601CEF1065
:10074000B02F1841B707002023AEE7244101CDB3F5
:10075000EFF2DFDA0111C88793F745002E84A9C7AD
:100760009379F50F1307C0033387E902B7D7002049
:10077000938747F3BA97D44798473697D44B9C4F03
:100780003386F6006374C700B307D740B704002070
:10079000938484258E203ECE13076010AE97637934
:1007A000F7081305F100713593778400A1CB93848A
:1007B000C18098209307F00F6312F704888785455E
:1007C000EF80102788870566130686B6B305C50235
:1007D000B707002093874742BE95EF80604E9C8705
:1007E00037250100130585219CA0EF00715F8C2047
:1007F0003725010013050523EF00514A93770401C3
:1008000091CB372501007D57130505242386E18010
:10081000EF00115D1374040411C8372501007D57E2
:10082000130505252386E180EF00915B056109B37F
:1008300037290020130949AF7008CA954E85EF800B
:10084000404D9E2072473E97420741839AA09947A8
:10085000E3FCE7F48356490093978600A182D58F85
:10086000C207C18393865700E3D0E6F49907E31AE1
:10087000F7F205455933B704002003A5C4257D5779
:10088000854605468545EF50A07A37060020B725F6
:100890000020130686249385C5BF4E85EF80A07C7B
:1008A0002A899384C425EF109019630809004A85AA
:1008B000EF10F0181305F100AD3B88408945EF506B
:1008C000D00CDDB5EFF23FC5EF8010129377150025
:1008D0002A8499C7372501001305851DEF00515063
:1008E0009377240099C7372501001305C51EEF0033
:1008F000314F9377440099CBEF80F012118919C5DD
:100900003725010013054520EF00914D418819CC92
:100910000145EF80B00EAA8519C10145153D054579
:10092000EF80D00DAA8519C105451D3539B1EFF20B
:100930009FBE39711304601F11C12A841306C003BE
:1009400081454800093122D68D471384D1804C005F
:100950001385D1803ED0EF80E014814409ED08205A
:10096000EF8050122A89EF10900D630909000820CA
:100970008945EF80F02626852161C1B63725010023
:1009800013058528EF0091310C2037250100130550
:100990000523EF00B1308544F9BFEFF2DFB71385CF
:1009A000D180413959BEB7270020938747AF1CC17A
:1009B000B7070020938787259A23054523900700D2
:1009C0009AA18280EFF23FB5B72700202E862E84B1
:1009D000AA851385C7BF9384C7BFEF006134B707EB
:1009E000002023A48724370400201304C4250840D2
:1009F000B7070020854523AA9724EF5000790840C7
:100A00007D57854605468945EF508062054535B6D8
:100A1000EFF27FB0293F19E10D4505B60145F5BF5D
:100A20008280EFF25FAF953F09BEEFF2DFAE0111BA
:100A30002A84AE8468089305A10132C6AD370DC97A
:100A4000724715453C333423A207D58F9396870010
:100A5000A183D58FC207C18391EBBC8532461D07A8
:100A600098C0E5171EA2FD571CA001450561F1B411
:100A70001545EDBFEFF23FAA9307160013D7874045
:100A80001D06238FF5FE2E85A38EE5FE9315060128
:100A9000C1816515053F954711C181473E8571BCF0
:100AA000962115476397E608582130319306E07C7C
:100AB0002207518F131687002183598E42064182E7
:100AC0001307F6FF42074183AA870D4563E5E60653
:100AD000EFF27FA4B8239433239005002207558FAB
:100AE000854694A396219354360093F4F40F85061B
:100AF00096A19376760081C6850493F4F40F84B3AF
:100B000096212E8413852700850696A193158700CC
:100B100021834D8F93051700C2058146C181EF10D7
:100B2000D01719C1112B11BC1E200145BE9406A07F
:100B3000DDBF0D45828082809A2195476311F706BB
:100B400058218D4731EF38311306D00F9306F7FF48
:100B500093F6F60F6376D604EFF2FF9B3C210C313F
:100B60004111A207CD8F93958700A183CD8F9385E7
:100B70001700130717F0C2051337170085460546FF
:100B8000C1816800A30601005886EF10101181474B
:100B900019C15D21AA873E8541016FF01F9A8D47DB
:100BA0003E85828096211547637FD70658213031D4
:100BB000AA872207518F131687002183598E420678
:100BC000418213573600937676001377F70F81C66C
:100BD00005071377F70F9306F6FFC206C1821308C5
:100BE000F07A0D456363D804D4336390E604EFF2E2
:100BF0009F92B8232E848C332207138567004D8F74
:100C0000931687002183558F0507931507018546A5
:100C1000C181EF10900801C505216FF01F92954723
:100C20001EA00145DDBF0D458280828096211547BB
:100C30006397E608582130319306E07C2207518FF4
:100C4000131687002183598E420641821307F6FF4F
:100C500042074183AA870D4563E5E606EFF2BF8BA5
:100C6000B8239433239005002207558F894694A317
:100C700096219354360093F4F40F850696A193764B
:100C8000760081C6850493F4F40F84B396212E84F4
:100C900013852700850696A19315870021834D8F24
:100CA00093051700C205C181EF10900D01C569269B
:100CB0006FF0BF881E200145BE9406A0D5BF0D452C
:100CC000828082809A219547631CF702EFF2BF84ED
:100CD0003C210C318546A207CD8F93958700A183D7
:100CE000CD8F93851700C2050546C1810D05EF1014
:100CF000A06A814719C18926AA873E856FF0FF83C4
:100D00008D473E858280EFF21F819A21954463F7DB
:100D1000E40658213031930670072207518F1316CD
:100D200087002183518F1316070141821307F6FFB5
:100D300042074183AA870D4563EDE602D4331317BA
:100D400016001377F70F6396E602B8232E848C33D0
:100D50002207138567004D8F931687002183558FD7
:100D60000507931507018546C181EF10E06201C5B3
:100D7000E1246FF08FFC06A00145E5BF0D45D5BF0E
:100D800096211547639AE606EFF2EFF85421130611
:100D9000C007AA8793940601C1801387F4FF420716
:100DA00041830D456362E6042E84B8238C332310FF
:100DB000040088A3122086062207050612A04D8F84
:100DC00094B393158700162021834D8F9305170048
:100DD0008506C20516A026868146C1811385270097
:100DE000EF10805B01C5892C6FF02FF51E20860463
:100DF0000145BE9406A0CDBF0D4582809A21A5472E
:100E000063F2E70EEFF28FEF5C2138312A84A207FC
:100E1000D98F93998700A183B3E7F90093990701CC
:100E200093D909019387F9FFC207C1831307C0074C
:100E30000D456367F70A1C24703013078007A2076B
:100E4000D18F13968700A183D18F1396070141821A
:100E50009307F6FFC207C1836364F708183493173A
:100E60001600639FE70624202E890C30A2047C2004
:100E7000CD8C4C30A2078546CD8F93958700A183FA
:100E8000CD8F93851700C205C1811305A400EF1013
:100E9000A05039E923100900DD471CA08357090041
:100EA000139A19009395840085072310F900A30075
:100EB000440183570900A180CD8C938514008507D8
:100EC000C2052310F90081464E86C1811305240016
:100ED000EF10804C11E9835709003E9A2310490115
:100EE0006FF00FE501458280812ADDBF962115470D
:100EF0006390E608582130319306B0072207518FDE
:100F0000131687002183518F13160701418213079F
:100F1000F6FF42074183AA870D4563EDE604EFF231
:100F20008FDF2E843E858C331147BC2323100400B1
:100F300018A11A20A2079314160005071AA004B1DD
:100F4000CD8F939587001A20A183CD8F93851700AD
:100F50000507C2051AA0C1810905EF10A04101C50E
:100F6000E1286FF08FDD1E200145BE9406A0D5BF9D
:100F70000D4582808280EFF20FDAB707002003D49C
:100F80000726AE84B72500202286938545D0050527
:100F9000EFF01059050482A001456FF00FDAA14768
:100FA00063F3C702EFF22FD7B72601004966372552
:100FB00001009386062B1306062A9305800313056A
:100FC000052CEFF0704F13D7350093071700330847
:100FD000E5003E958547B397C700FD17C2070E078A
:100FE0003387E540C183B397E70018210346080023
:100FF00093C7F7FF2207518F9D89F98FB396B600EB
:10100000DD8EC206C1862300D800C206C182A1823D
:1010100014A1828093D735003E951C3108219D890B
:10102000A207C98F05453315C500B3D7B7407D1555
:101030007D8D1375F50F82809D4763E7A700938729
:101040004186AA978823828011458280EFF2AFCC37
:10105000EFF01F9C2A8419C5054723A8E18022854B
:101060006FF0AFCDEFF0AFD829C9B7170000370741
:101070000020938707A2232AF726B7170000370717
:101080000020938727A2232CF726B71700003707E5
:1010900000209387A7A22324F726B717000037075D
:1010A0000020938747A72326F726B707002023A809
:1010B00007267D57238AE18045B70D444DB7EFF2EF
:1010C0008FC513840181184085471945631AF700BD
:1010D000B707002083A747278297014523200400F4
:1010E0006FF0AFC5EFF22FC383A7018141111944FF
:1010F000639B070E6800EFF0AFD10547AA87630432
:10110000E5000144CDA032476301A70A8946E31AEE
:10111000D7FE3704002003250428B7060020B704B3
:1011200000200C213707002023A2F4261306070015
:10113000238EB6268147130404281389C627938477
:101140004426130707004148142281CE6391D50A33
:101150008E07BA97DC43B7050020938565288297F0
:1011600088C0B707002083C74728C1DF9440B7076E
:1011700000209387672885C20347090010408545F2
:101180008EA3136707F818A2922318409305160040
:101190008EA3329714A39223370700200327C72674
:1011A0000C4003C541810297A9BFB707002083A760
:1011B00087263705002037060020B7050020930456
:1011C0004528130666289385052813054528829728
:1011D0002A8405F99C2003C741816303F70095F336
:1011E0000945EFF08FC1228541016FF00FB58507EA
:1011F0002106E39B07F5B5B7930740063345F50293
:10120000A9474205418163E8A706C9679387072E6E
:101210000A053E951C4182872380050093076004E0
:101220001CA2828089479CA193078002D5BF914769
:101230009CA1E547F5B795479CA1D147D5B79D47F8
:101240009CA1BD47F1BFA1479CA1A947D1BFAD4714
:101250009CA1A147F1B7B1479CA19D47D1B7B94720
:101260009CA1994775BFBD479CA1954755BFC147F4
:101270009CA1914775B7D147E5BFEFF2CFA979712E
:10128000BD47AA842E84368593056100130671003C
:101290005C83DC8395379C83034E61009308C05DBB
:1012A00093960701C182B388F840139827001397DB
:1012B00016008608B30EC0411393260081470145EE
:1012C0008145054FD14F634A170105476369F70A06
:1012D00081471EA045616FF04FA693161700A69692
:1012E0000396060063DBCE046359C605B3060741C7
:1012F0008606A6968396060063C5C604B306E80074
:101300008606A69683960600634DD60211C19DCD32
:1013100081459386170010188607B2971356170059
:101320001A974207050593F6F60F239CC7FC4183E5
:101330001375F50F63EDDF00B68709074207418398
:1013400059B719C16384E5018545E1B79546300079
:10135000054781472E220A2205071377F70F898D4B
:10136000AE97C207C1830906E366D7FEFD16B3C771
:10137000D702C207C1838607C207C18399BFBE8651
:10138000F9B7EFF24F99B386C502AA880147014524
:101390000148634FD7002E868146C285EFD0607A20
:1013A000EFF04050EF609023EFF000736FF0EF9894
:1013B00093171700C6978397070032974207B387A2
:1013C000F702418313DEF741AA9733B3A70072985F
:1013D0003E851A987DBF856793870777AA971A215C
:1013E00036211105158F231EE5FEE39AA7FE8280A4
:1013F0000566814701478146130686BB139817008F
:101400002A98031808009398070193D8080163D419
:1014100006014687C2868907E392C7FE05839AA123
:1014200036858280EFF22F8F0545EF30B0453704C7
:10143000002013042429931505010420C1850545C6
:10144000EF307057B7370020860493874749A69737
:101450008AA31C209546850793F7F70F1CA01387D6
:10146000818163F6F6040C23373501408546054635
:101470001305058023000400EF10700B37050020D2
:101480000325452913844190014793874190854660
:101490000946814523200400EF60602F1C4091C75E
:1014A000B7E700E0116723A0E7206FF00F89BA9734
:1014B0008C23373401401305048085460546EF1020
:1014C0001007854513050480EF10F004F9BFEFF213
:1014D0008F840945EF40805EB707002083A6C70FC1
:1014E000416779179C423705002003254529F98F6C
:1014F0009CC2138401900147938701908546114651
:10150000814523200400EF6080281C4091C7B7E785
:1015100000E0116723A0E7206FF02F829307F5FF0B
:1015200093F7F70F25476364F7002394A182828025
:1015300003C5818282809307F5FFC207C183130729
:10154000703E6366F700B7370020239AA74E82806B
:10155000B737002003D5474F828037050020130599
:1015600045298280EFE23FFB1D71EF302066A945DF
:101570000145EF30C0663704002029469305040872
:101580000145EF30E073A9450545EF304065294638
:10159000930504080545EF30A072A9450945EF30D1
:1015A00000642946930504080945EF3060718545BC
:1015B00037054000EF20E01F854537052000EF206C
:1015C000401F854537054000EF20802081453705C5
:1015D0004000EF20E01F854537052000EF20401F29
:1015E000814537052000EF20A01EB7570500B754EE
:1015F0000040938707731307004002DA02DC02DE23
:101600003ED80C18916713850440231DE102231B6B
:10161000F102231EF10237640040EF1010610C1834
:1016200013050480EF107060138504408545EF10AA
:10163000F06E130504808545EF10506EB7B51D00A0
:101640006546938595150945EF40404E9305000288
:101650000945EF40E03593070010B7060800701009
:10166000894501452316F102EF3010389307000237
:10167000BEC8B72701409387C744BECAB72700201A
:10168000938747D2BECC8547BEC68567938787BB05
:10169000231EF1048C008567130600020A85BEC470
:1016A00082C082C2EFF0C067B71600000A85938639
:1016B000E64C01468545EF305049B707002003A7A7
:1016C000C70F814605461C43B7050E00054593E745
:1016D00017001CC33717000013074742EF30F03ADA
:1016E00083C58181373501409D4605461305058038
:1016F000EF10E0630545EF10006F37350020130948
:1017000045561306007D814513054556EFE0BFE3BE
:10171000373400201304044F9304803E37450020E3
:101720002320240146A0130945D3231404001306E3
:10173000007D8145130545D3EFE0FFE037370020FA
:101740001307074A58D08D47373700205EAC130780
:10175000474BB707002018D89387C7283737002092
:101760001CCC1307874CA9471EB45EB82310F404A1
:1017700058DC2316F404231CF40437370020B73751
:1017800000201307C74D9387075506A8231A0400A6
:10179000232624012310040223160402231C04021E
:1017A000231204042318040438C4231E04047CC830
:1017B00025616FE09FD81A251C410607BA978EA3B2
:1017C0001E255A218507C207C1831EA563E4E700D1
:1017D00023140500828052211E2581469305F6FFC1
:1017E000C205C18101476317D6003355C7024205C0
:1017F0004181828091E3AE87FD17C207032805006F
:10180000C183939817004698035808008506C206BE
:101810004297C182C9BFA54763EFA712EFE2BFCFCE
:10182000C9679387C7300A053E951C4182873735C3
:1018300000201305054F4537D37715D0538507E0B2
:1018400085A0373500201305C54F7137D37715D0E4
:10185000538507E0EFF0801DB727010003A687340A
:1018600083A6C73415A83735002013058550A53742
:10187000D37715D0538507E0EFF0401BB727010061
:1018800003A6873483A6C734EFE0C03EB727010024
:1018900003A6073583A64735EFE0C03DEFF0C02330
:1018A0006FE0BFC937350020130545512D37D37779
:1018B00015D0538507E0EFF06017B727010003A6A6
:1018C000873483A6C734EFE0E03AB727010003A6C8
:1018D000873583A6C735C9B73735002013050552AC
:1018E000F1B7373500201305C552C9B73735002089
:1018F0001305855399BF3735002013054554E13D45
:10190000B7270100D37715D007A70734D3F7E7101F
:1019100035B7B74700209387475080278837B704EB
:10192000800042042205498CA827498CB377940093
:1019300099CBEF00F016058CD37704D0537715D0F0
:10194000D3F7E718E5BDEF00B015FDB7B7070020E6
:1019500003A58728B1B78280EFE25FBA2A84AE89F7
:101960003289B70502002285EF10F0447DF9376512
:101970000040854513050580B7040300EF10903B38
:101980008504A6852285EF10B04165DD01469305EB
:10199000A00D2285B7040700EF10703F9384240840
:1019A000A6852285EF10D03F65DDCE852285B70460
:1019B0000700EF10103D93844408A6852285EF10A0
:1019C000303E65DDB7050010938505082285EF10D0
:1019D000903E09C5CA852285EF10B03AB7040700CA
:1019E00093844408A6852285EF10903B65DD8545EC
:1019F0002285EF10D0356FE0BFB3EFE2DFB12A846C
:101A00002E89B70502002285EF10F03A7DF9854551
:101A10002285B7040300EF10F0318504A6852285E6
:101A2000EF10103865DD01469305A00D2285B7043F
:101A30000700EF10D03593842408A6852285EF1087
:101A4000303665DDCA852285B7040700EF10703394
:101A500093844408A6852285EF10903465DD854582
:101A60002285B7040300EF10F02C8504A68522859B
:101A7000EF10103365DD05469305A00D2285B704F0
:101A80000300EF10D0308904A6852285EF10503175
:101A900065DDB704001093840404A6852285EF1049
:101AA000903101CD2285EF10102EAA848545228524
:101AB000EF10F02926856FE05FA881452285EF10A1
:101AC000B02AE1BFEFE23FA241119307B05D7C83F2
:101AD00023120100EF50402AB7270100373B0020B6
:101AE00003A9873383A9C733930A0B4FB74B002051
:101AF0002AC6814D014A814413844B50138C4A05F8
:101B0000894C0D4D85456800EF50E0536381940585
:101B10006381A40389EC37350140854513050580B1
:101B2000EF10601F0945EF3050678D44D1BF8544E9
:101B3000D1BF1305803EEF50A05D376500406D4674
:101B40009305000313050580013D894455BF0147F6
:101B50003400194681450145EF509037A247918BDB
:101B6000DDCBB72C0020138D4CD283150D00014521
:101B7000090DEF304064B7370020231FADFE938777
:101B80004749E394A7FF13854CD2EFF0DF84930518
:101B9000210013854CD2EFF0BF85AA869305610022
:101BA000094613854CD2EFF04FED2C831307905D5F
:101BB0009387F5FFC207C1836360F7040946138565
:101BC0004CD2EFF00FFCD30705F04C00B70C00200F
:101BD000539517C042054181EF20507CD37715D033
:101BE000538507E0EFE090644A86CE86EFE08008F8
:101BF000EFE0906E23A4AC28B707002083A7C70F9F
:101C00000567130787BBD8C39843094513671700B7
:101C100098C3EF309058A247898B91C3854D050A30
:101C200083D78182420A135A0A01E36BFAEC014A14
:101C3000E3880DEC373A0020130A4A49854CB14736
:101C4000930D0B4F1D4D3385FC0283550A00850C07
:101C5000090A6E95EFF03FB6B147E396ACFF373512
:101C60000140854513050580B76D0040EF10A00ABF
:101C7000138D4B50814C138A0182938D0D80330755
:101C80009A010C236E85850C8D3B2304AD008D4796
:101C9000050DE396FCFE1C241834C2072207D98FD9
:101CA0003824D98F37078000B3F6E700BE8C99C27D
:101CB000B38CE740F523B3C5AC025685B76C004042
:101CC000814DC205C181EFF01FAF83453A001385F6
:101CD0000C80253383454A0028B413850C80313BA2
:101CE0002C3448A4014AA205AA95C205C181628587
:101CF000EFF07FAC31B5730020303725010019714A
:101D00001305053682FE86FC8AFA8EF892F696F462
:101D10009AF29EF0A2EEA6ECAAEAAEE8B2E6B6E42B
:101D2000BAE2BEE042FE46FC4AFA4EF852F656F4DB
:101D30005AF25EF062EE66EC6AEA6EE872E676E40B
:101D40007AE27EE0EFF0D009EF602008AA8537251F
:101D5000010013054537EFF06074EF606007AA8556
:101D60003725010013054538EFF04073EF60A006FA
:101D7000AA853725010013054539EFF0207201A02F
:101D8000317106DF16DD1ADB1ED92AD72ED532D3E4
:101D900036D13ACF3ECD42CB46C972C776C57AC35B
:101DA0007EC182FE86FC8AFA8EF892F696F49AF24A
:101DB0009EF0A2EEA6ECAAEAAEE8B2E6B6E4BAE27B
:101DC000BEE042FE46FC4AFA4EF852F656F45AF28B
:101DD0005EF062EE66EC6AEA6EE872E676E47AE25B
:101DE0007EE0EF20206313050008EF106049FA50F1
:101DF000EA525A53CA533A55AA551A568A567A473E
:101E0000EA475A48CA483A4EAA4E1A4F8A4F767045
:101E1000E6705671C6713672A67216738673766452
:101E2000E6645665C6653666A66616678667727886
:101E3000E2785279C279327AA27A127B827B726C12
:101E4000E26C526DC26D326EA26E126F826F2961AA
:101E500073002030197182FE86FC8AFA8EF892F6A1
:101E600096F49AF29EF0A2EEA6ECAAEAAEE8B2E6EA
:101E7000B6E4BAE2BEE042FE46FC4AFA4EF852F63A
:101E800056F45AF25EF062EE66EC6AEA6EE872E6CA
:101E900076E47AE27EE0EF2010377670E6705671D5
:101EA000C6713672A672167386737664E6645665DA
:101EB000C6653666A666166786677278E2785279D6
:101EC000C279327AA27A127B827B726CE26C526D9A
:101ED000C26D326EA26E126F826F09617300203084
:101EE0001971294582FE86FC8AFA8EF892F696F4DC
:101EF0009AF29EF0A2EEA6ECAAEAAEE8B2E6B6E44A
:101F0000BAE2BEE042FE46FC4AFA4EF852F656F4F9
:101F10005AF25EF062EE66EC6AEA6EE872E676E429
:101F20007AE27EE0EF101071854537050040EF1032
:101F3000D0567670E6705671C6713672A6721673F8
:101F400086737664E6645665C6653666A666166769
:101F500086677278E2785279C279327AA27A127BF5
:101F6000827B726CE26C526DC26D326EA26E126F29
:101F7000826F096173002030914763E0A704EFE2AC
:101F80008FD9C9679387473A0A053E951C418287D6
:101F90008565938505803725014013050580EF3061
:101FA000F00E1375F50F6FE04FD98565EDB78965B4
:101FB000DDB79165CDB7A165F9BF01458280954731
:101FC00063E5A704EFE22FD5C9679387873B0A052E
:101FD0003E951C418287371501409305001013057B
:101FE00005C0EF30B00A6FE04FD59145372501406D
:101FF00013050580FDB7A145D5BFC145C5BF9305F4
:102000000002EDB793050004D5B701458280EFE2E9
:102010008FD085476309F50211C58947630AF50228
:102020006FE0AFD189E9A14537150140130505C01F
:10203000EF307006F5B7A14537150140130505C00F
:10204000EF30B005F1BF99E1C145F9BFC145EDB72A
:1020500081E593050002C9BF93050002F1BFEFE2DD
:102060008FCB7971A9473ED23ED0B7270000938726
:1020700087F74C0801453ED602CCEF20F0534C08C0
:102080000545EF2070534C080945EF20F0524C08ED
:102090000D45EF2070524C081145EF20F051B72745
:1020A00000009387E7002C0001453EC802C6EF20E0
:1020B000B0482C000545EF2030482C000945EF20A2
:1020C000B04745616FE06FC7EFE2EFC40111994778
:1020D0005C84938781903EC8938701913EC6B70781
:1020E0000203D1073ECA8547230CF100B727000041
:1020F0009387E7FB28003ECEEF20306105616FE05B
:10210000CFC3EFE24FC1C937EF20905FEF504000DF
:10211000EF207064EF20704DC5BFEFE2CFBF4111DB
:1021200037140140EF30A077130504C08D45EF3020
:10213000A070130504808D45EF30007093050003F7
:1021400037150140EF30406F130504809305400CB4
:10215000EF30806E130504C0F14601469305000C74
:10216000EF30806F8564938504C0130504C0F14689
:102170000146EF30606EE1460146130504C0A965D3
:10218000EF30806D91677C824C00930780041305CB
:1021900004C03EC6231301002314010023150100CF
:1021A000EF10A00E130504C08565EF30E067370619
:1021B00013808D65E146410613050440938505A013
:1021C000EF308069130504C093058003EF30C065CC
:1021D000938504C037150140EF3000653724014076
:1021E000130504809305C010EF300066C165130528
:1021F000048093850580EF30206585451165EF10DB
:10220000405BEFF02FB695659D461306803E9385A3
:1022100005E22145EF3090151306401F9D452145ED
:10222000EF30F0222145EF30102B2145EF30E076E2
:102230003D3541016FE06FB013858191828001CD02
:10224000EFE26FADAA85372501001305053DEFF0DC
:10225000E0246FE08FAE8280EFE2EFAB0945EF1034
:10226000A038C521EF503021716513050520EF50CE
:10227000B02983A5C182372501001305053EEFF083
:10228000E021C12D372401007D25D123EFE06FC26D
:102290006935EF40B0241305043FEFF06034E5BF2B
:1022A00003D5A1828280391542054181AD4763E2A1
:1022B000A70CEFE24FA6C967938787400A053E95B2
:1022C0001C418287B747002083A5C7530145EF20F3
:1022D000B015D30705F02946539517C04205418133
:1022E0003306C502854515A0B747002083A50754CE
:1022F0000545EF207013D30705F02946894553950E
:1023000017C0420541813306C5022145EF30301424
:102310002145EF30501C0DA8B747002083A5475436
:102320000945EF207010D30705F0294691455395D4
:1023300017C0420541813306C502C1BFB74700201F
:1023400003D787532395E1826FE02F9FB747002083
:1023500003D6A75341BFB747002003C5C754EFF0CA
:10236000EF9BDDB7B747002003D5E754EFF0AF9CF4
:10237000E1BF828089C5B295AD4763DCB7000545F2
:1023800082807D162300050042060905A30F05FE85
:10239000418265FA01458280638F050EEFE20F9658
:1023A000B387C50013079002AA89AE843289054518
:1023B0006342F70CA1CA05470145639DE60A374908
:1023C00000201385F5FF13971500130949514205A5
:1023D000139407013A994181418093041500C20486
:1023E000C18009096387840883C709008909A20796
:1023F000231EF9FE03C7F9FFD98F231EF9FE6535A9
:102400002685E1BF37440020930A4451014A130452
:102410004451254B5285EFF00FC0B7270100D30779
:1024200005F007A78745050A910AD3F7E7105395EA
:1024300017C0D37715D0D3F7E71827AEFAFEE31B02
:102440006AFD2545EFF02FBDD30705F083D7A182A4
:10245000539517C086045EB0D37715D05CF8EFF0C3
:102460002F8D0ABCEFF0CF8E2ABC26940904631589
:10247000090001456FE0CF8B8357C4FF7D1989099F
:10248000A183238FF9FE8357C4FF42091359090121
:10249000A38FF9FEE1BF05458280EFE24F85938966
:1024A000F5FFC20993D909013387C9008D4763C776
:1024B000E70C935A360013D939003284AA84138A60
:1024C0001A0093F9790095CE854701456396F60881
:1024D000374A0020268B338C2A01930C4A51631F04
:1024E000890713767400D69401CA942013054A51C3
:1024F000CE854A95EFE0BFAA13054A51EF2090051B
:1025000099A8B74B002013854B51EF20D007268B9D
:10251000938B4B513309994033052B01420541817F
:102520002146CE855E957D1AEFE0DFAE050B420AAF
:10253000A30FABFE135A0A01E3100AFE1D882146C1
:10254000018E1374F50F3314C4001374F40FD69472
:102550003354C44080A001456FD0FFFC930B190099
:1025600083460B00C20B33852C0193DB0B01214604
:10257000CE85EFE0DFA2050B5E8995B70545E9BF83
:10258000FD15C205C1813387C500954763CCE706B9
:10259000EFD2FFF5374B00202A84935A360093DBA5
:1025A000350013054B51B28493F9750013891A0055
:1025B000EF20700E228A130B4B51B38B8B403305E7
:1025C0007A01420541812146CE855A957D19EFE079
:1025D0007FA4050A4209A30FAAFE13590901E310BB
:1025E00009FEA1479D88B38497409377F50FB39771
:1025F000970093F7F70F5694B3D797401CA0014567
:102600006FD07FF205458280EFD2FFF05545EFF0A5
:102610009FC95D45EFF03FC96545EFF0DFC837243E
:1026200001000545EF40D02E0145EFE03FA211C566
:1026300013058443EFE0D07AEDB7EFE05FA875F1C2
:10264000EFE05FAAEDBFB71702409843B706FFF867
:1026500041111367170098C3D84337060200758FDE
:10266000D8C39843B706F7FEFD16758F98C39843F5
:10267000B706FCFFFD16758F98C3D843B70681FFD8
:10268000FD16758FD8C39843B70600ECFD16758FFD
:1026900098C33707FF0098C723A6070202C402C6E3
:1026A0009843C166558F98C3B716024005679C4290
:1026B000F18F3EC6A24785073EC4B24781E7A247D5
:1026C000E397E7FEB71702409C431397E700635870
:1026D000070685473EC6324785476310F706B7179A
:1026E0000240D843B706C1FFFD1613670708D8C3D9
:1026F000D843D8C3D84313670740D8C3D843758F8E
:10270000D8C3D843C166558FD8C39843B7060001D4
:10271000558F98C3984393166700E3DD06FED843B0
:10272000B7160240719BD8C3D84313672700D8C39C
:102730002147DC42B18BE39EE7FE4101828002C665
:1027400059BF371602405C429146B18B1387C18254
:102750006385D700A1466388D702B7177A009387AD
:1027600007201CC3B7170240DC43918393F6F700A0
:10277000B70700209387070DB69794231C43B3D760
:10278000D7001CC3828054425042C167C982BD8AAF
:102790007D8E9387260085CABD466389D702C146D0
:1027A0006389D702C54581466393B700C1470DE6EB
:1027B0003746024003260680418A15C637167A003E
:1027C000130606202DA08146C947D5B78546B547D3
:1027D000F9BF8146BD47E1BF37160240504293150D
:1027E000E600E3DD05FC37163D0013060690B387CF
:1027F000C7021CC3A5DA1C438583A5B7EFD2BFD19E
:10280000EF10B07EEF60701A19C1EFE0AF8B054595
:10281000EF401010F5B7B7670020938787721CC18F
:10282000B7670020938787F29CC1930700101CC2F2
:102830008280B76700209387077E1CC1B76700209E
:10284000938787329CC1930700101CC28280EFD20D
:102850009FCCEFE09FD02A8437580020B747002054
:10286000B72501003725000013084896938747567F
:1028700015478546130600109385C545130545ACDD
:10288000EF40603B08C03758002037240100B7579D
:10289000002037250000930504461308C84093879D
:1028A000C7C0154785461306002013058560EF4015
:1028B000803837680020B75700203725000093057F
:1028C0000446130808C6938707461547854613062E
:1028D00000201305C57FEF40003637580020B7575A
:1028E0000020B725010037250000130888BB938717
:1028F000879B154785461306000893858546130573
:102900002510EF40403337680020B7670020B72517
:10291000010037350000130848EB938747CB154774
:10292000854613060008938545471305A5A5EF4086
:1029300080306FD09FC0EFD21FBEEFF0FF8F2A8490
:10294000376500201305C577EF30806708C06FD06A
:10295000DFBEEFD25FBCEF20405AB766002037667B
:1029600000202A84014793868679130686F08945DC
:102970004145EF30B03308C06FD03FBCEFD2BFB994
:1029800037440040AA841309048089454A85EF0032
:10299000307565DDA6851305048037440040EF00DF
:1029A000B0739304048085452685EF00707365DD60
:1029B00013050480EF0090721375F50F6FD0FFB709
:1029C000EFD27FB53715014001468565130505C077
:1029D000EF00B017054537440040EF406073130423
:1029E000048089452285EF00B06F65DD954522851D
:1029F000EF00906E85452285EF00906E65DD2285A3
:102A0000EF00D06D9374F50F93F71400F9FB3715B1
:102A1000014005468565130505C0EF0010132685A6
:102A20006FD0BFB1EFD23FAF37140140014685658B
:102A3000130504C0EF0070110545EF40606D1945A6
:102A4000EFF0DFF30545EF40A06C05468565130503
:102A500004C0EF00900F6FD05FAEEFD2DFAB01117B
:102A600002C6930740103744004002CA7C87930790
:102A700000201305048002CCFC836C009307000344
:102A8000FC8402C8231E0100EF00905F1305048040
:102A9000854537140140B7040020EF00506213044D
:102AA00004C09384040EEFF0BFF1098911C19D3F6A
:102AB0000545EF40E065EFF0BFF0014685652285F2
:102AC000EF00B0080545EF40A0640945EFF01FEBAB
:102AD0000145EFF0BFEA0545EFF05FEA1305500549
:102AE000EFF0DFE91305A00AEFF05FE90545EF40DD
:102AF0002062054685652285EF0030051545EF40CB
:102B00002061014685652285EF0030040545EF40D0
:102B100020600D45EFF09FE60145EFF03FE60545EB
:102B2000EFF0DFE51305F00FEFF05FE588A0130588
:102B3000F00FEFF0BFE488B00545EF40605D05465B
:102B400085652285EF007000B9BF01A001A001A03A
:102B500001A001A001A001A001A001A001A001A06D
:102B600001A001A001A001A001A001A001A001A05D
:102B700001A001A001A001A001A001A001A001A04D
:102B800001A001A001A001A001A001A001A001A03D
:102B900001A001A001A001A001A001A001A001A02D
:102BA00001A001A001A001A001A001A001A001A01D
:102BB00001A001A001A001A001A001A001A001A00D
:102BC00001A001A001A001A001A001A001A001A0FD
:102BD00001A001A001A001A001A001A001A001A0ED
:102BE00001A001A001A001A001A001A001A001A0DD
:102BF00001A001A001A001A001A001A001A001A0CD
:102C000001A001A001A001A097E1FF1F938101D9BC
:102C100017D100201301013F17050100130545CC12
:102C200097D5FF1F9385053E1386818A63FAC500F9
:102C30008322050023A0550011059105E3EAC5FE96
:102C400017D5FF1F1305056097B50020938585BA3A
:102C50006377B500232005001105E36DB5FEFD4245
:102C6000739002BCFD4273904280B7820000938251
:102C7000028073A0023097D2FFFF9382223C93E23E
:102C8000320073905230EFF01F9C97F2FFFF938257
:102C9000E25C73901234730020305C413707F1E03E
:102CA0001307F7EF944D7D8F9C41D58FD44DD58F71
:102CB000D441A206D58FD98F5CC11C4537F7F1FFEF
:102CC0001307D77FD4457D8F9C49D58F94458606C1
:102CD000D58FD98F1CC55C55370710FF7D177D8FA9
:102CE000DC29FD1793F7F70FD207D98F5CD58280C7
:102CF0005C4193F5F50F01C6DD8D4CC1828093C513
:102D0000F5FFFD8DDDBF08450D81058982800845F1
:102D10000981058982801C4591C537075000D98FEC
:102D20001CC582803707B0FF7D17F98FD5BFA54737
:102D300063F7B7048D47138765FF3307F70203284E
:102D4000C5009D47B397E70093C7F7FFB3F70701A7
:102D5000B396E600DD8E54C5994763E3C7049547F3
:102D60007D163306F6025859FD47B397C70093C73F
:102D7000F7FFF98F3396C5005D8E50D982800D47DD
:102D80003387E502032805019D47B397E70093C702
:102D9000F7FFB3F70701B396E600DD8E14C96DBFE8
:102DA000B14763E2C702954765163306F602185924
:102DB000FD47B397C70093C7F7FFF98F3396C50058
:102DC0005D8E10D9828095474D163306F602585510
:102DD000FD47B397C70093C7F7FFF98FB395C500B9
:102DE000DD8D4CD58280B7270140938707409847F7
:102DF00011C5B7068000558F98C78280B70680FF3F
:102E0000FD16758FD5BF5841144193D78500F58FB6
:102E100099C713F5F50F798D3335A00082800145F0
:102E20008280A18193C5F5FF0CC18280EFD2AFEE05
:102E300001112A8423040100A5441C8463F9F404CD
:102E400023040100A54621461C8463FFF6062315D2
:102E500001002304010095461C8463F1F60E3885B9
:102E60003C8599460D46B3F7D702056513050580E5
:102E7000B3D7C7023357D702BA97C207C1837C853D
:102E80003C8505611D8D420541856FD00FEB1C44CB
:102E900093E787001CC42285EFF0FFE66DFD1C441C
:102EA00093E747001CC42285EFF07FE66DFD784470
:102EB0001C8414108607B6972396E7FE1C848507AA
:102EC00093F7F70F5C8495BFA30401009C8463789B
:102ED000F6001C84850793F7F70F5C84B5B79884D8
:102EE0009C840C100607850786072E97AE9703571C
:102EF000C7FE83D7C7FE63FDE7029C848607AE97B3
:102F000083D7C7FE7C859C84988485078607AE9707
:102F100083D5C7FE931717001810BA972396B7FEEC
:102F20009C8438850C1085078607AE972396E7FEAC
:102F30009C84850793F7F70FDC8449BF1C8410102D
:102F4000388589078607B29783D7C7FEBA97C20725
:102F5000C1837C851C84850793F7F70F5C84EDBDE6
:102F6000B7F7FF1F03A5477082809317350063DA18
:102F70000700B707024083A707407D8D3335A000C7
:102F800082809317250063D70700B707024083A705
:102F9000074DE5B7B70702409C43C5B79317350007
:102FA00063D70700B707024023A2A7408280931788
:102FB000250063D70700B707024023AAA74C8280E9
:102FC000B7070240C8C38280EFD2EFD4EFF0FFF919
:102FD0006FD0AFD6EFD22FD4EFF05FFC6FD0EFD52C
:102FE000EFD26FD385451165EF00B00781451165BC
:102FF000EF0030076FD06FD4930700043CC19307F4
:1030000000027CC1930700087CD123200500B7078C
:10301000000423220500232405002326050023287D
:103020000500232A0500232C0500232E050023205C
:103030000502232205022324050223260502232854
:103040000502232A0502232C0502232E0502232430
:1030500005042326050423280504232A0504232C1C
:103060000504232E05042320050623240506232614
:10307000050623280506232A0506232C0506232EEC
:1030800005062320F508B70700022322F5082322AE
:10309000F50AB7070200370720002326F50A930731
:1030A0000010232405082326E50823280508232AE1
:1030B0000508232C0508232E05082320050A2324B0
:1030C000050A2328F50A232A050A232C050A8280EB
:1030D000411102C6B78602409C4A41672E057D1702
:1030E000F18B798D9A055D8D93F5057CC98D93E5FE
:1030F0001500B70750008CCAF917324705073AC6C2
:10310000984A058B01C73247E3F9E7FE3247B70714
:103110005000FD1701456307F700B7870240C84B11
:1031200042054181410182804111B787024002C6B8
:10313000984BC166FD162E05758D718B9A05598DBC
:1031400093F5057CC98DD0CB93E535008CCBB707C3
:103150000500B7860240F917324705073AC6984A74
:10316000058B01C73247E3F9E7FE3245B707050093
:10317000FD173335F5004101828023A0A1922A87F3
:103180008147B708104013030060130EF6FF6396E3
:10319000C700B797024088CB8280B386670223209E
:1031A00017012A88AE9614C79306070163F3C70177
:1031B00036882326070185073687D1BF916623AE5F
:1031C000A1900147AA873703008093860660130EFB
:1031D0000060930EF6FF6316C700B7970240C8C79A
:1031E00082803308C70323A06700D4C3AA882E981F
:1031F00023A40701138807016373D701C28823A69C
:1032000017010507C287C1BF379702401C4393E7E8
:1032100017001CC38280B7970240C8CB82803797C3
:1032200002401C4FB7061000D58F1CCF8280EFD212
:103230008FAE378402401C4093E787001CC0EFF03C
:103240001FFE1C40896693E747001CC0B7970240E9
:10325000984F558F98CF984F1367270098CF6FD00E
:10326000CFAD99C5379702405C4F5D8D48CF8280C6
:10327000B7970240D84F1345F5FF798DC8CF8280AC
:10328000B707014023AAA74082809C4513F7070196
:1032900013F8F70001C7D8413368E8008E2113F70F
:1032A000F50F39C318418146854E3D4F930F80027B
:1032B00093028004214E3396DE00B3F8C5006311FB
:1032C00016039398260033131F011343F3FF33773C
:1032D000E300B318180133E7E800639FF70550C90E
:1032E0008506E39AC6FD18C11307F00F6375B7048E
:1032F00054412146854E3D4F930F80029302800436
:10330000414EB398CE0033F715016392E8021317CC
:10331000260001173313EF001343F3FFB376D300F6
:103320003317E800D98E639DF701232A150105069E
:10333000E319C6FD54C18280E39457FA10C94DB712
:10334000E39757FE23281501DDB719C20CC9828007
:103350004CC98280B7070140635A0504DC4F93567D
:103360000501131805013707300013F6F60013584E
:103370000801B376E50063500506639BE6029306F9
:1033800006010D46B316D60093C6F6FFF58F99C910
:10339000135755011377F73F12073317E800D98FFA
:1033A00063570504370701405CCF8280DC4345BF8B
:1033B0001317B500635607008D46B396C600E9B7EC
:1033C000135755011377F73F12073317E8001347D8
:1033D000F7FFF98F6DBF6390E60237060140544254
:1033E000370700F17D17F98F758F58C2D5F1370770
:1033F00001405CC382801317B500635C07008D46F3
:10340000B396C60093C6F6FFFD8EB707000FD58FA3
:10341000F1BF1357550112073317E8001347F7FFA1
:103420007D8FB707000FD98FD1B7EFD2CF8E7971CB
:103430002A84462168082EC6E122925737470F009A
:103440001307072433D7E702C204C18093F404FCB6
:10345000C204C180B24561651305056A13160701F0
:103460004182D18C46A01620C206C182F99AC206BA
:10347000C18216A094416369D5048606B3D7D702EA
:103480009146139707014183BA876373D700914729
:1034900005064206C2074182C18312B05EAC1E20FF
:1034A000DA21B62593E717001EA01E20558FC2070C
:1034B000C18393F757BFD98F1EA09A25DE25D98FD8
:1034C0001EA445616FD06F87EA2131667D16631DAA
:1034D000C5020D46B386C602B3D7D702C207C18361
:1034E0009396470199E293E71700A166D58F93065B
:1034F000C0123307D7029306803E3347D702050731
:10350000420741831AB059BF6546B386C602B3D796
:10351000D7029166C207C183D58FD9B71E2189C54D
:1035200093E717001EA18280C207C183F99BC207DF
:10353000C183CDBF1E2189C593E707101EA18280DC
:10354000C207C18393F7F7EFC207C183C5BF1E212E
:1035500089C593E707201EA18280C207C18393F724
:10356000F7DFC207C183C5BF1E2189C593E70740A6
:103570001EA18280C207C18393F7F7BFC207C18330
:10358000C5BF0EA982800A291375F50F828093F7B3
:10359000E50F19C293E71500C207C1831EA98280F7
:1035A0005E290A2D42055D8D6D8D220521810D8DCF
:1035B000133515008280411102C402C693D7C5019C
:1035C0002AC63EC4A247A205A18199CBB247D10722
:1035D0003EC6B247884341016D8D3335A0008280DD
:1035E000B247C181E107EDB723A2A1928280B7164D
:1035F0000240DC4251777D17F98F5D8DC8C2828011
:10360000371702405C439146B18B6385D700A146D2
:103610006382D706B7177A00938707201CC1371635
:1036200002405C42370700201307C70E9183BD8B11
:10363000BA9794231C41B3D7D7005CC15442A182EE
:103640009D8ABA969422B3D6D70014C55442AD824F
:103650009D8A36971823B3D7E7005CC55842398353
:10366000937637001387018336971823B3D7E70281
:103670001CC982805C435843C166C983758FB7F605
:10368000FF1F83A6C670BD8B89071396160163487A
:103690000600C54601466392D702C94739A8894644
:1036A000638FD702BD46638ED702C146638ED702B1
:1036B000C54601466393D700C1471DEF3747024017
:1036C00003270780418B05C737177A0013070720A8
:1036D000B307F7021CC121D61C41858381B701467F
:1036E0006DBF0546B547D1BF0146BD47F9B737178E
:1036F0003D0013070790E9BFB7150240D855931650
:10370000F700D85563DF060411833D8B930617003D
:1037100037177A00130707203357D70218C1D4553B
:10372000A182BD8A8DE295463307D702058318C171
:1037300037170240585714413D8B050733D7E6022F
:1037400018C1184171B785456394B600E546E9BFD5
:10375000BD456396B600D1463387E602C9BF8906E8
:10376000E5BF3D8B9306170037177A001307072034
:103770003357D702F1B799C5371702405C4B5D8DBF
:1037800048CB8280B7170240D84B1345F5FF798D9F
:10379000C8CB828099C5371702401C4F5D8D08CF7A
:1037A0008280B7170240984F1345F5FF798D88CF77
:1037B000828099C5371702405C4F5D8D48CF82806B
:1037C000B7170240D84F1345F5FF798DC8CF8280D7
:1037D00099C5371702405C475D8D48C78280B7178F
:1037E0000240D8471345F5FF798DC8C782809357AB
:1037F000550005476399E700B71702409C4333D54E
:10380000A7000589828009476396E700B717024041
:103810009C53F5B7B7170240DC53D5B737170240B2
:103820005C5793F7F7F05D8D48D78280B71602405A
:10383000DC5645777D17F98F5D8DC8D6828009C922
:10384000371702401C43B7060010D58F1CC3828077
:10385000B71602409C42370700F07D17F98F9CC2D3
:10386000828099C5371702401C575D8D08D782802A
:10387000B717024098571345F5FF798D88D7828096
:103880001A218D6793870704B6217D8F9E21D58FDE
:10389000D621D58FF621D58F9625D58FB625D58FF4
:1038A000D625D58FF625D58FD98F1EA15A2DFD7718
:1038B0009387F77FF98F5EAD9E291EA982801E2116
:1038C00089C593E707041EA18280C207C18393F7CD
:1038D000F7FBC207C183C5BF4EA582804A258280FF
:1038E0000A256D8D3335A00082801E2137370140B7
:1038F000930607C0C207C1836300D504B706004022
:10390000630CD502938606406308D502B7160040C3
:10391000138606806302C502938606C0630ED50037
:1039200013070740630AE50037570140930607C0B5
:103930006304D5006316E500BA2193F7F7F8D98F31
:1039400037170040630CE500130707406308E500E4
:1039500093F7F7CFFA21C207C183D98F1EA1DE21C9
:103960005EB59E211EB5B7370140138707C0630EB1
:10397000E50093870740630AF500B75701401387B6
:1039800007C06304E5006314F5009C251EB9854754
:103990005EA982801E31922103D82500C207C1830F
:1039A000F99BC207C1831EB11E3156211A2DC207D1
:1039B000C183420741831377C7F8518F9225F59B46
:1039C000C20633660601D18F37360140130806C0A0
:1039D000C182630E050113060640630AC50037560F
:1039E0000140130806C0630405016310C502B22537
:1039F000DD9B03D8E500D18FD221ED9B93F6F6CF66
:103A0000D18FD22533660601D18E56A11AADFA2187
:103A10005AB91EB182801E3165771307F7CFC207EE
:103A2000C183BD9BC207C1831EB11E31562103D87D
:103A30008500C20713960601162DC18393F7F7FD83
:103A4000758F96214182A206558FB6214207418388
:103A5000B3E606019206D58FB7360140C207138838
:103A600006C0C183630E050193860640630AD50034
:103A7000B7560140138806C063040501631ED502D2
:103A8000B62593F7F7F703D8C5009206D58FD62150
:103A9000C207C183920693F7F7FBD58FFD76938615
:103AA000F63FF18EF225C207C183336606010A068E
:103AB000D18E13960601418252A11AADFA211ABD88
:103AC0001EB182801E3103D88500C207C18393F7DF
:103AD000F7EFC207C1831EB11E3156215A2DC2070E
:103AE000139606014207962141831377C7F8558F35
:103AF000B621C18393F7F7DFB3E60601A206D58F9F
:103B0000B7360140C207138806C04182C183630EE5
:103B1000050193860640630AD500B7560140138815
:103B200006C063040501631FD502FD769386F67F08
:103B3000F58FB62503D8C500A206D58FD621C207BA
:103B4000C183A20693F7F7BFD58FF576FD16F18EE8
:103B5000F225C207C183336606011206D18E139681
:103B60000601418252A15AADFA215ABD1EB182808E
:103B70001A31FD77FD17F98F1EB103580502562142
:103B80005E2D65771396060196211307F7CF7D8F7B
:103B9000F977A206FD17558FB3F70701B62103D8B1
:103BA000850042074182B3E60601B206D58FB736DB
:103BB0000140C207138806C04183C183630E05011B
:103BC00093860640630AD500B7560140138806C0A5
:103BD00063040501631BD500F176FD16F18ED22535
:103BE0001A06D18E13960601418252A15AADFA21CE
:103BF0002310E5041EB182801E2189C593E71700BA
:103C00001EA18280C207C183F99BC207C183CDBFB9
:103C10005E2501C6DD8D4EA5828093C5F5FFFD8D25
:103C2000DDBF1E2DC207C183DD9BDD8D0EAD828001
:103C30001A2DFD779387F77FF98FA205CD8FC207E5
:103C4000C1831EAD82805E2DC207C183DD9BDD8DE9
:103C50004EAD82805A2DFD779387F77FF98FA205AD
:103C6000CD8FC207C1835EAD82805E21C207C18352
:103C700093F7F7F8C207C1835EA15E21DD8D4EA1E7
:103C800082801E294A25ED8F4205418189C76D8DAD
:103C90003335A00082800145828093C5F5FFC205BF
:103CA000C1810EA98280EFC21F871629F577FD1703
:103CB000F58FF621DA257971D58F1EA95625FD7766
:103CC0009387379FF58FD6212A842EC6D58F9625C8
:103CD000D58FB625D58F5EA55E29C207C18393F720
:103CE000F7CFD98F5EA96808EFF09F91B7470140E1
:103CF00093870780B245631AF404A2575624654798
:103D0000B387E702C206C186984163D2060406075C
:103D100052244206B3D7E702130740064186B3D6C2
:103D2000E702B3F7E7029206635506028E07938710
:103D30002703B3D7E70213F77700B367D700C207AB
:103D4000C1831EA445616FC04FFF925745BF0A074C
:103D5000C1B7920793872703B3D7E702BD8BD58FEF
:103D6000F9BF91C55E250967D98F5EA582805A2566
:103D7000F977FD17F98FD5BF93F5F51F4EA1828016
:103D80000A216D8D3335A000828083A7019298436C
:103D9000634B07029843370600304E05518F98C396
:103DA0009843370600804D81518F98C3C8C38CC794
:103DB00037970240114650CB23220700DC470545C8
:103DC00023A0F192828001458280EFC2CFF4856505
:103DD0008547938505806318F50037150140EF107E
:103DE000902B6FC08FF537150140EF10102BD5BF0A
:103DF000EFC26FF28547930500406318F500371551
:103E00000140EF1050296FC04FF337150140EF10FC
:103E1000D028D5BF37F7FF1F81471307D77E9946B4
:103E20003306F7400C223306F50085070CA2E39910
:103E3000D7FE82809387419398433A9588C38280C6
:103E400003A7419323A8E192B787024003A7471C29
:103E500025EF03A74719894763F8E706EFC2AFEBE1
:103E600003D54194F94513844194EFF06FA693571D
:103E70002500858BA9C74D99131605010A2041829B
:103E8000F945EFF06FAA378702408327071093E7C1
:103E900017002320F71083270710858BEDFFB787C6
:103EA000024003A7471C11CB238C0192D843B706CD
:103EB000008093C6E6FF758FD8C36FC00FE8136507
:103EC0004500420541814DBFB787024003A7471C0B
:103ED00019CB238C0192D843B706008093C6E6FF26
:103EE000758FD8C382808280EFC24FE19384419462
:103EF0008A20954513844194EFF08F9D2A898A206A
:103F00008545EFF0EF9C9377F90113892194638A3B
:103F1000071483470900C1E30A208547F9452300B8
:103F2000F900A380F194EFF0AF9A1376C5FF420633
:103F3000937715004182A9CF136626000A20F94520
:103F4000EFF08F9E0A208145EFF08F981376E5FF02
:103F500042060A204182136606208145EFF0CF9C7D
:103F60000A208145EFF0CF96136635200A204206DD
:103F700041828145EFF04F9B83A7C1931307400611
:103F8000B3F7E70293872703238AF1826FC04FDAE2
:103F90001366160065B705476397E7008947230056
:103FA000F900A38001949387219503870700634656
:103FB00007069384518394202147639AE6040A20DC
:103FC000F945EFF0EF901376350F0A20F94590A0F0
:103FD000EFF08F95238004000A208145EFF04F8F8A
:103FE0001376E5FF42060A204182136606208145CA
:103FF000EFF08F930A208145EFF08F8D1366352007
:104000000A20420641828145EFF00F9221A013075A
:1040100000F898A32388019495BF938791959823DE
:104020009306170094A39546E316D7FE1375050271
:1040300075F193845183238007009C2011490A2045
:10404000F945E38027F9EFF0AF881376350F0A20A2
:1040500013664600F94590A0EFF00F8D23802401F0
:10406000A5BF0347090085476312F708138711941A
:104070001C23A1468A20850793F7F70F1CA3639B97
:10408000D70023000700230009002146F945EFF07F
:10409000AF89EDBDF945EFF0AF831376C5FF42065A
:1040A000937715004182A1C3136626000A20F945C3
:1040B000EFF08F870A208145EFF08F811376E5FFBF
:1040C00042060A204182136606208145EFF0CF8523
:1040D0000A208145EFE0DFFF13663520420641826A
:1040E00081450A206DB713661600C9B71384019580
:1040F000834A0400138A219583460A0093871A0095
:104100001307000893F7F70F6394E6063D476384AF
:10411000EA001CA0A5BD8A2023000400230009009A
:104120001384518321492146F945A38C019423002E
:104130000A0023002401EFE03FFF230024018A202E
:104140008145EFE0FFF81376E5FF42068A204182C1
:10415000136606208145EFE03FFD8A208145EFE0B0
:104160003FF7136635204206418281458A2005B714
:104170009389518303C709001DE71147E39BEAF8C0
:104180008A20F94523000400EFE09FF41376350FF1
:104190008A2013664600F9452380C900EFE0DFF866
:1041A0002380590169BF91466318D7023D47E392C6
:1041B000EAF68A202300040021442146F945A38C15
:1041C00001942300090023000A0023808900EFE006
:1041D000BFF523808900A5B71CA093074006E3978D
:1041E000FADA8A2021668145EFE01FF4238C0194DE
:1041F000A38C0194238C0192A14723000400230087
:10420000090023000A002380F9002146F945B9BFBF
:10421000EFC26FB09387119598231377F70F2DC3D3
:1042200003A7419383A64195158F9306301F63F72B
:10423000E604374702402380070083270780138462
:1042400041940A2093E747002320F78021668145A7
:10425000EFE09FED238C0194A38C019423880194BB
:10426000238101940A20238C019223890194214700
:104270002146F945A38AE182EFE01FEB6FC0EFAB67
:10428000138981958347090013840194C1EB83C688
:10429000219405471389219493844183636BD7004C
:1042A00003D541949545EFE0BFE27D8919C1238094
:1042B00004009387419390439386419594428C20C8
:1042C000158E93864193138741956361B604034627
:1042D000090085476311F6041386C1931C42B74554
:1042E000030093851540B387B702B7A526009385D1
:1042F00095ECAE971CC213064006B3F7C70293872E
:1043000027039CA09C421CC3EFF01FBE1C20BDD7FE
:1043100023000400A5B793072003E5B71C2093846E
:104320008193A5C383A7419303A74195998F130751
:10433000900F6378F70423000400138441940A204B
:104340008545EFE0FFD89377450085EFEF30D06EDD
:104350000A2021668145EFE03FDDA38C019423888C
:1043600001940A2023810194238901942147214645
:10437000F9452300090023800400A38AE182EFE0CD
:10438000BFDA9C20E38C07EE03A7019383A7419338
:10439000998F13073006E373F7EEEFF07FAAF9BDAC
:1043A000EFC26F9741118545414502C202C402C662
:1043B000EFF04FBE8D477C82C1473EC64C008D4713
:1043C000371501403EC4EFE05FEC856593850580BD
:1043D00037150140EF10204C930500403715014080
:1043E000EF10604B41016FC04F95EFC2CF92014576
:1043F000EFF0EFC44145EFF06FC23565EFF00FC34A
:104400000545EFF0CFC31305D003EFF04FBE65DDD8
:104410006FC0AF92EFC22F90138441940A2095454C
:1044200013894194EFE0DFCAAA840A208545EFE0B2
:104430003FCA937745002A8495C38DE037470240F1
:1044400083270780ED9B2320F7800547A388E1940D
:1044500003A7419323AAE1946FC02F8E2285EF30EA
:10446000B05D1374440293074002631AF4080355C5
:104470000900C145EFE0DFC51189B786024019E5A3
:10448000FD888547B78602406385F4069C42056730
:1044900013070780D98F9CC2B78702409843D17613
:1044A000FD16758F98C39146238CD194D843B706D7
:1044B00000808506558FD8C303A707101367170020
:1044C00023A0E7103787024083270710858BEDFF75
:1044D0000547238CE19203A7419323A8E192EFE0E3
:1044E0001FD5B78702409C43AD83858B2386F1920D
:1044F000A5B79C427D771307F77FF98F69BF3747D0
:10450000024083270780ED9B2320F7800547A3887F
:10451000E19403A7419323AAE194E1B7EFB21FFE10
:10452000317137960240B7067000370760005C4A69
:10453000F58FE39EE7FE83C781959384819595C7A8
:1045400003D54194F94513844194EFE07FB8137685
:10455000C5FF4206937715004182638807221366E0
:1045600026000A20F945EFE03FBC0964EFE0DFC90F
:1045700013040471379902407D1442042945418097
:10458000EF30C07109C483270900858BF5F7480017
:10459000EFE09FA685473EC2930700203ED6B707AF
:1045A00000023EC58566930700083ECD3707200010
:1045B0001389068093070004378402403AC94AD21F
:1045C00002CC02D002D802DE82C482C882CA82CC67
:1045D00002C33ECF02D31C48938616A037850180C4
:1045E0008D9B1CC8B245A24710401305150CCD8FFA
:1045F000B78520FF9385F5106D8ED18F4246B79514
:104600000240D18F5246D18F7246D18F2256D18F20
:104610005256D18F6256D18FD58F1CC01C40B70621
:104620001000D58F1CC086479646D58FB646D58FCD
:104630005CC0F6471CC486575CC43656A657144C5B
:10464000D18F4656D18F5656D18F6656D18F41663F
:10465000130616F4F18ED58F9656C206D58F1CCC54
:104660008A46F657D58F5CCC5A46BA47944DD18FBF
:104670003746DEF8130636F2F18ED58F8A563706A6
:104680000020D58FB70620029386060CD58F9CCDCF
:104690009306C624DC32CC22A207CD8F3CC08346D1
:1046A000D6248347C6248545A206DD8E8347E624AB
:1046B000C207DD8E8347F624E207D58F7CC0B7079B
:1046C00002002328E410938707022326F410EFE06A
:1046D0005FB937750020B79500209309458A0946D0
:1046E0009385452C1305458AEFE03FA937750020D7
:1046F000B7750020130A45831D469385458C130525
:104700004583EFE0BFAB23A4419523A631951C4020
:104710007D771307F77FF98F1CC083C7C19291C7BC
:104720001C4033E9270123202401B78602409C4224
:1047300051777D17F98F9CC2EFE07FAF9C201384E7
:104740004194B9E70A2021668145EFE0FF9DA38CE3
:10475000019423880194238101940A20238C0192DF
:104760002389019421472146F94523800400A38A27
:10477000E182EFE07F9B05472380E19403A741930B
:1047800023AAE19429616FB0BFDA13661600D1BB8A
:104790000A20F945EFE0DF931376C5FF42069377D1
:1047A0001500418291CB136626000A20F945EFE0FF
:1047B000BF979C20E9F379B713661600FDB783A76E
:1047C00081921307000293F7070F639FE700B797E3
:1047D00002409C533707FE1FF98F99C7EFB2BFD332
:1047E000EFF0DFD36FB07FD58280EFB2DFD2EF3052
:1047F0007023EF30B007EFF0BFA1EFF05FFC6FB0B8
:10480000DFD3EFB25FD1378702401C4B2E84814546
:104810008D9B1CCB50411C411443D18F378620FF08
:104820001306F610F18ED58F1445D58F5445D58FCC
:104830001449D58F5449D58F144DD58F544DD58FEC
:104840001451D58F5451D58F1455D58F5455D58FBC
:104850001459D58F5459D58F1CC31C43B70610006B
:10486000D58F1CC3545D1C5DD58F3441D58F7441E9
:10487000D58F3445D58F7445D58F3449D58F74493C
:10488000D58F5CC33C4D1CC77C4D5CC730557C51FB
:10489000144FD18F4166130616F4F18ED58F7455DF
:1048A00037960240D58F3459D58F7459D58F3451EE
:1048B000C206D58F1CCF745D3C5DD58F5CCF83263F
:1048C000450883270508184ED58FB746DEF893862E
:1048D00036F2758FD98F03278508D98F0327C5082E
:1048E000D98F03270509D98F03274509D98F0327B6
:1048F0008509D98F0327C509D98F0327050A228582
:10490000D98F1CCE2166EFE03F822146F9452285F2
:10491000EFE09F8105456FB05FC2EFB23FBE3171DE
:104920008545AA847165EFE01FE585472392F194E0
:10493000EFF0BFAB374702408327078009641304B9
:10494000047193E747002320F780EFE06FE91389B4
:104950004194EFE07F8BB79902407D1442042945D2
:104960004180EF30A03309C483A70900858BF5F798
:104970004800EFE06FE88567938707803ED2854760
:104980003EC2930700203ED683550900B7070002B8
:104990003EC593070008370420003ECD480093072A
:1049A000000422C93ECF02CC02D002D802DE82C867
:1049B00082C482CA82CC02C302D3EFF09FE4DC300F
:1049C000D820B7860240A207D98FBCC298309C205D
:1049D0003785018022075D8FBC2085451305150CA6
:1049E000C2075D8FBC30E207D98FFCC2B707020057
:1049F00023A886109387070223A6F610EFE07F8690
:104A000029616FB0FFB2EFB21FB1B7970240C04B40
:104A100013170401635A0702137704081DC303A781
:104A20008192C1461377070F6319D700F847B7067D
:104A30000080584714C323A4070013050008EFE0C3
:104A40008FFD2165EFE02FFD9317F40063DA070275
:104A50009377040489C713050004EFE0CFFB937735
:104A6000140081C70545EFE00FFB63580400EFF029
:104A70007F9A37050080EFE00FFA4165EFE0AFF96C
:104A80006FB0BFABEFB23FA92A8413054006EF30E9
:104A90004024EFE0EFCC23A4A192EFF07F903C30D4
:104AA00058202285B98F5830B98F37470300130734
:104AB0001740B387E70237A72600130797ECBA978A
:104AC00023AEF192EFF07FE537750020B795002017
:104AD0001304458A09469385452C1305458AEFE062
:104AE000CFE937750020B7750020930445831D4634
:104AF0009385458C13054583EFE04FEC23A49194F7
:104B000023A681940967B7E700E023A4E710A386F2
:104B100007446FB09FA2EFB21FA0397193070060E6
:104B20003ECA9307405B3ECC8567938747273ECEBE
:104B3000930720033ED0930730103ED2B72755404D
:104B400089073ED4B7470000938707DF3ED6B747B3
:104B500000009387A7DC3ED8B74700009387A7D80B
:104B60003EDAB7573412938787672A8948082EC6DA
:104B700032C4B68402DC3EDEEF30F0592A8419E9F3
:104B80002246B245A6864A85EF30D04C2A84268537
:104B9000EFF05FEF228521616FB03F9A9E214111B6
:104BA0002AC43EC6B24722479306800CB387D70279
:104BB000930680033307D702BA97A183C207C18344
:104BC0007C833C8328839EA1410182809387019648
:104BD00023A0070023A20700239E0194828085471B
:104BE0006382F504060593870196AA9798230DE73B
:104BF00003D7C1959306000505452E9763C5E602C8
:104C00001387F5FF9386A19598A39A22014598B33F
:104C10007D172E979AA28280FD1501456305B70086
:104C2000094582800D4582808D47D38705F063E575
:104C3000A70293171500138501963E951C21A9C361
:104C4000143137D700201307C7FAB697FD17C207EC
:104C5000C183B14563F5D700D30700F015A0638980
:104C6000F6003386B7023A9618625306F7A001CED3
:104C7000B146B387D702BA97D4639867C3F7D770A2
:104C8000538507E08280FD17C207C183E1B7530651
:104C900006F0D30707F0D38607F0538706F0D3F565
:104CA000D708D3F6C6105375E608C7F7E7685377F9
:104CB000C708D3F5A518D3F7E7180CE19CE182806B
:104CC00093171500138501963E951C21850763C334
:104CD000C702EFB2DF8137DA00200149AE8A9309BB
:104CE000F6FFAA84B14B130ACAFA6347390101459A
:104CF0006FB07F8309458280803093163900338BF3
:104D0000DA004A9433047403A106D6969C42032722
:104D10000B00D44203264B0005091379F90F9305C4
:104D2000840013054400D2955295EFF05FF6872773
:104D30004B0052941CE055BFB1473305F502B7D77D
:104D400000209387472E3E959C45230005001CC5F7
:104D500001458280B7D7002010219387472E938684
:104D60004702054785453375E60019C98CA3060738
:104D70001377F70F11E30547B107E396F6FE82803C
:104D800023800700EDB737D700201307472E1306FF
:104D9000470285470C23142181CDDD8E860714A19F
:104DA00093F7F70F91E385473107E315E6FE82801D
:104DB00093C5F7FFED8EDDB7F1473305F502B7D7A1
:104DC000002093878725D8413E959C4958C17D177F
:104DD0001CC9DC453337E00058A95CC59C4D78A957
:104DE000232405001CCD01458280EFB22FF137D47A
:104DF00000201304842581448949130A4006854A0A
:104E000015495C40638537071C4C268582977828B6
:104E1000630CA7041C4485071CC429E71848637960
:104E2000F7005C4068A893C7F7FF858BA98F5CA843
:104E3000850493F4F40F7104E39524FD37D4002026
:104E40001304442E81440D4958401C440C2019E39E
:104E500093B515002685850482973104E39624FFD7
:104E60006FB00FED584465BF23240400D1B75C2810
:104E7000850793F7F70F638447015CA855BF1C4073
:104E8000230A0400985B6315570123A807024DB756
:104E900023A6070271BF37D7002013078725130603
:104EA000C70885474C2B142181CDDD8E860714A1C0
:104EB00093F7F70F91E385477107E315E6FE8280CC
:104EC00093C5F7FFB3E6B60293F6F60FC5B7EFB298
:104ED0008FE4B7D7002083A7073141114886CC86DD
:104EE000AA972380070003A581966C0081467D5612
:104EF000EF10A06641016FB04FE413858196828068
:104F0000B7D7002003D547318280EFB2CFE05C49AC
:104F100037D4002013048430034905005CC81C45C5
:104F200054451829AA844A863E8581451CC454C428
:104F300018A823002401EFB00FE1D8404A8681452C
:104F400058C0EFB04FE003A581968145EF10C049EE
:104F500001456FB08FDEEFB26FDAB7D400200144A5
:104F60009384843005498949094A9C206364F4008C
:104F70006FB00FDCDC482285829763112503DC408B
:104F8000A297982301CB2380070093050004228574
:104F9000EFF0FFF305041374F40FC1BF9844229798
:104FA0001C23850793F7F70F1CA3D84022971423DF
:104FB00089EA9428E3E0D7FE23002701930500083F
:104FC000F9B7F03463E4C70063872601F024E3E314
:104FD000C7FCE39146FD23003701CDB7EFB2AFD355
:104FE00005E5B7170240984F1367072098CFD847B9
:104FF00013670720D8C7D8471377F7DFD8C73165BD
:10500000EFE0EFDE6FB06FD38547E31AF5FEB71719
:105010000240984F1367074098CFD847136707405F
:10502000D8C7D8471377F7BFD1BFEFB2CFCE13178A
:1050300025009387C186BA978043370700FC7D1708
:105040001C44AA8493E717001CC45C40F98F5CC021
:105050001C4493E787001CC42285EFD0DFCA6DFD96
:105060001C4493E747001CC42285EFD05FCA6DFD46
:105070002285EFD0BFDB860493874197A6978AA34A
:105080006FB0AFCB0A059387C186AA979C43E847C8
:1050900042054181828055712ADD372501402EDB92
:1050A00086C796C59AC39EC122DF32D936D73AD574
:1050B0003ED342D146CF72CD76CB7AC97EC782FE2F
:1050C00086FC8AFA8EF892F696F49AF29EF0A2EE98
:1050D000A6ECAAEAAEE8B2E6B6E4BAE2930500228C
:1050E00013050540BEE042FE46FC4AFA4EF852F671
:1050F00056F45AF25EF062EE66EC6AEA6EE872E628
:1051000076E47AE27EE0EFD01FD001C583A7C19696
:105110008297373501409305002213050580EFD0B3
:105120009FCE01C583A7019782973724014093053D
:10513000001413050440EFD01FCD11C993050014CE
:1051400013050440EFD0FFCD83A7819782977A544F
:10515000BE40AE421E438E436A55DA554A56BA5691
:105160002A579A570A58FA486A4EDA4E4A4FBA4FA7
:105170007670E6705671C6713672A67216738673B3
:105180007664E6645665C6653666A6661667866703
:105190007278E2785279C279327AA27A127B827B73
:1051A000726CE26C526DC26D326EA26E126F826FC3
:1051B000696173002030060593874197AA9783970A
:1051C00007000145AE9763C0070291CD856613873E
:1051D000F6FF3A8563D9D7002E856386E5001395DF
:1051E0000701418182808280EFB24FB10111AA8410
:1051F0002E8AB28A8145130600020A85B689EFB06D
:105200008FB42685EFF09FDD85473EC213972400BB
:105210009387C186BA9780438A8502C0228502C4DB
:105220004EC602C8230A410102CC02CE4969EFD022
:10523000DFA681471309C94963954703B7070E00E5
:10524000638FF9021C4437071000D98F1CC41C441B
:10525000268593E707101CC4EFF03FDD05616FB0B2
:105260002FAD138B1700D6979C2389461376FB0F1F
:10527000CA978C232285EFD09FABDA8775BF1C4479
:105280003707F0FF7D17F98FD1B7EFB22FA77971EC
:10529000AA842E8A3289B6893AC6EFF03FD43247C3
:1052A000139424001386C196229618C281451306D2
:1052B00000020808EFB02FA985472302F102938767
:1052C000C186A297804352CEB7070E00630CFA0244
:1052D0001C4437071000D98F1CC40C082285EFD05E
:1052E000DF9B4E86CA8513052002C52B0546930514
:1052F00000222285EFD0DF9F2685EFF01FD3456186
:105300006FB00FA31C443707F0FF7D17F98FE9B783
:10531000EFB26FA013142500094541113315850024
:10532000EFD09FCA8547631FF500B7D7002093874A
:105330000732A2979C432AC68297324533158500CF
:10534000EFD05FC941016FB04F9FEFB22F9B044177
:105350003D49994741112A84AE893319990063E385
:10536000970A371702405C4B93E717005CCB37076F
:1053700002405C4333E92701232227015C44C5C76F
:1053800005476385E70A85679308002093850780B2
:1053900037D5002013972400130505323A953A8833
:1053A000370700201307C70F4297184314C1C1667F
:1053B0001C43F9160848F58F1CC35C401443C98F81
:1053C0000844B3E71701C98F61753D05E98ED58F94
:1053D000CD8F93E707081CC35E2CCE851385B401DF
:1053E0005CC35C481CC71C4C5CC71C4393E727008C
:1053F0001CC3994763F4970013851404F9294101EC
:105400006FB00F938545094536C632C4EFE0AFB69D
:10541000B707024003A74740B24622463369270137
:1054200023A22741A1BF814881459DB79308001061
:1054300093050040B1BF317106DF16DD1ADB1ED9BE
:105440002AD72ED532D336D13ACF3ECD42CB46C91C
:1054500072C776C57AC37EC182FE86FC8AFA8EF850
:1054600092F696F49AF29EF0A2EEA6ECAAEAAEE8C4
:10547000B2E6B6E4BAE2BEE0014542FE46FC4AFAB4
:105480004EF852F656F45AF25EF062EE66EC6AEAB4
:105490006EE872E676E47AE27EE0EFF07FE7FA50BB
:1054A000EA525A53CA533A55AA551A568A567A4757
:1054B000EA475A48CA483A4EAA4E1A4F8A4F76705F
:1054C000E6705671C6713672A6721673867376646C
:1054D000E6645665C6653666A666166786677278A0
:1054E000E2785279C279327AA27A127B827B726C2C
:1054F000E26C526DC26D326EA26E126F826F2961C4
:1055000073002030317106DF16DD1ADB1ED92AD771
:105510002ED532D336D13ACF3ECD42CB46C972C713
:1055200076C57AC37EC182FE86FC8AFA8EF892F630
:1055300096F49AF29EF0A2EEA6ECAAEAAEE8B2E6E3
:10554000B6E4BAE2BEE0054542FE46FC4AFA4EF831
:1055500052F656F45AF25EF062EE66EC6AEA6EE8D3
:1055600072E676E47AE27EE0EFF09FDAFA50EA52F1
:105570005A53CA533A55AA551A568A567A47EA4791
:105580005A48CA483A4EAA4E1A4F8A4F7670E67069
:105590005671C6713672A672167386737664E664A7
:1055A0005665C6653666A666166786677278E278BF
:1055B0005279C279327AA27A127B827B726CE26C67
:1055C000526DC26D326EA26E126F826F29617300CE
:1055D0002030317106DF16DD1ADB1ED92AD72ED511
:1055E00032D336D13ACF3ECD42CB46C972C776C50B
:1055F0007AC37EC182FE86FC8AFA8EF892F696F411
:105600009AF29EF0A2EEA6ECAAEAAEE8B2E6B6E402
:10561000BAE2BEE00D4542FE46FC4AFA4EF852F6AA
:1056200056F45AF25EF062EE66EC6AEA6EE872E6F2
:1056300076E47AE27EE0EFF0BFCDFA50EA525A53B8
:10564000CA533A55AA551A568A567A47EA475A48CB
:10565000CA483A4EAA4E1A4F8A4F7670E670567173
:10566000C6713672A672167386737664E6645665E2
:10567000C6653666A666166786677278E2785279DE
:10568000C279327AA27A127B827B726CE26C526DA2
:10569000C26D326EA26E126F826F2961730020306C
:1056A000317106DF16DD1ADB1ED92AD72ED532D38B
:1056B00036D13ACF3ECD42CB46C972C776C57AC302
:1056C0007EC182FE86FC8AFA8EF892F696F49AF2F1
:1056D0009EF0A2EEA6ECAAEAAEE8B2E6B6E4BAE222
:1056E000BEE0114542FE46FC4AFA4EF852F656F428
:1056F0005AF25EF062EE66EC6AEA6EE872E676E412
:105700007AE27EE0EFF0DFC0FA50EA525A53CA5311
:105710003A55AA551A568A567A47EA475A48CA4805
:105720003A4EAA4E1A4F8A4F7670E6705671C6717D
:105730003672A672167386737664E6645665C6651D
:105740003666A666166786677278E2785279C279FD
:10575000327AA27A127B827B726CE26C526DC26DDD
:10576000326EA26E126F826F29617300203093F740
:10577000060113F8F60099C33368C80093F7F50FD4
:10578000B9C31C410147854E3D4F930F80029302E0
:105790008004214E3396EE00B3F8C5006311160362
:1057A0009318270033131F011343F3FFB377F3005C
:1057B000B3181801B3E7F800639FF60550C9050751
:1057C000E31AC7FD1CC19307F00F63F5B7045841F6
:1057D0002146854E3D4F930F800293028004414E37
:1057E000B398CE00B3F715016392F8029317260021
:1057F00081173313FF001343F3FF3377E300B3172D
:10580000F8005D8F639DF601232A15010506E31953
:10581000C6FD58C18280E39456FA10C94DB7E3978C
:1058200056FE23281501DDB7EFA2FFCEC14609467B
:10583000EFF0FFF36FA07FD0EFA2FFCD81460D46C2
:10584000EFF0FFF26FA07FCFEFA2FFCC91460D46A5
:10585000EFF0FFF16FA07FCEEFA2FFCB41112A84C2
:10586000AE8409CE371702401C4F36C6854593E7F4
:1058700017001CCF3285EFD0FFADB2460D46A6858E
:105880002285EFF0DFEE41016FA03FCB08456D8D23
:105890003335A00082800CC982804CC98280EFA27F
:1058A0009FC7114529282145192841450928130575
:1058B000000231201305000419206FA01FC8B7177C
:1058C0000240984F498F98CFD847498FD8C7D847BB
:1058D0001345F5FF798DC8C78280854763E9B70214
:1058E0008A052E961206B7E700E01376F60FAA9700
:1058F0002380C74093575500054793870704331506
:10590000A7008A0737E700E0BA9788C382809387A9
:10591000E5038A07B29793F7F70F920793E707F823
:1059200037E700E093F7F70F2A972300F740D9B73E
:105930009306F5FF954763FCD702A1473707100090
:1059400063E9A7009317250049651305054B3E95AC
:105950001841B7170240D447D98ED4C7D0479346D1
:10596000F7FFF18ED4C7944F558F98CF82801307DD
:1059700000026386F60093874187B6979823B7178E
:105980000240944BD98E94CB904B9346F7FFF18E07
:1059900094CBD44F558FD8CF8280C9670A0593879F
:1059A000474DAA9798431E2393E717001EA38280B2
:1059B000EFA27FB6C9670A059387474DAA97884328
:1059C000C205C181EFE06FAA6FA03FB7557122DF1A
:1059D000373401403ED386C796C59AC39EC12ADD9F
:1059E0002EDB32D936D73AD542D146CF72CD76CBDF
:1059F0007AC97EC782FE86FC8AFA8EF892F696F401
:105A00009AF29EF0A2EEA6ECAAEAAEE8B2E6B6E4FE
:105A1000BAE2854513050440BEE042FE46FC4AFA60
:105A20004EF852F656F45AF25EF062EE66EC6AEA0E
:105A30006EE872E676E47AE27EE0EFE08FA48547D6
:105A4000631AF500B7D7002083A7073F8297F9575D
:105A50002318F4407A54BE40AE421E438E436A552A
:105A6000DA554A56BA562A579A570A58FA486A4E89
:105A7000DA4E4A4FBA4F7670E6705671C67136727A
:105A8000A672167386737664E6645665C6653666D6
:105A9000A666166786677278E2785279C279327A9A
:105AA000A27A127B827B726CE26C526DC26D326E96
:105AB000A26E126F826F696173002030C9670A0598
:105AC0009387474DAA9798431E23C207C183F99B2A
:105AD000C207C1831EA38280C9671317250093875D
