:100000006F70804713000000130000001300000011
:100010001300000013000000130000001300000094
:100020001300000013000000130000001300000084
:08003000130000007300100032
:100038000000000000000000C2840000C684000028
:1000480000000000BE730000000000000000000077
:10005800C0730000C2730000000000000000000030
:100068009E0B0000000000000002000000000000DD
:10007800C8730000CA730000CC7300007C3A00000B
:10008800D0730000D2730000D4730000D673000050
:10009800D8730000DA730000DC730000D43200006B
:1000A800A2330000E2730000703400003E35000007
:1000B800E8730000EA730000CA2E0000EE73000027
:1000C800F0730000F2730000F47300004C85000028
:1000D800F8730000FA730000FC730000FE73000060
:1000E800AC860000027400000040000006740000A6
:1000F800087400000A7400000C7400000E740000FC
:100108002E3E000012740000D04600001674000055
:10011800187400001A7400001C7400001E7400009B
:10012800CE400000227400002474000026740000F1
:10013800287400002A7400009C4100002E740000FE
:100148009E470000327400003474000036740000CA
:10015800387400003A7400003C7400003E740000DB
:1001680040740000208600004474000046740000BB
:10017800487400004A7400004C7400004E7400007B
:10018800507400005274000054740000567400004B
:10019800587400005A7400005C7400005E7400001B
:1001A80060740000627400006474000066740000EB
:1001B800687400006A7400006C7400006E740000BB
:1001C800707400007274000074740000767400008B
:1001D8000000000000000000000000000000000017
:1001E8000000000000000000000000000000000007
:0801F8000000000000000000FF
:10020000130181F806C216C41AC61EC822CA26CC1B
:100210002ACE2ED032D236D43AD63ED842DA46DC76
:100220004ADECEC0D2C2D6C4DAC6DEC8E2CAE6CC46
:10023000EACEEED0F2D2F6D4FAD6FED8F3220030CF
:1002400096DA83A2C19823A02200F32510342EC091
:100250009305000273A0458003A1C186EF10703E94
:1002600003A3C19803210300824273901234D65233
:10027000739002309240A2423243C2435244E2445D
:10028000724582551256A2563257C2575258E258FA
:1002900072598649164AA64A364BC64B564CE64C0E
:1002A000764D865D165EA65E365FC65F13018107DA
:1002B0007300203013000000130000001300000042
:1002C00013000000130000001300000013000000E2
:1002D00013000000130000001300000013000000D2
:1002E00013000000130000001300000013000000C2
:1002F00013000000130000001300000013000000B2
:1003000083A2C186938202E07390023403A1C19854
:10031000024182403243C2435244E2447245825514
:100320001256A2563257C2575258E258725986494D
:10033000164AA64A364BC64B564CE64C764D865D61
:10034000165EA65E365FC65FD652A102739002307B
:10035000A2421301810782801300000013000000F5
:100360001300000013000000130000001300000041
:100370001300000013000000130000001300000031
:100380001300000013000000130000001300000021
:100390001300000013000000130000001300000011
:1003A0001300000013000000130000001300000001
:1003B00013000000130000001300000013000000F1
:1003C00013000000130000001300000013000000E1
:1003D00013000000130000001300000013000000D1
:1003E00013000000130000001300000013000000C1
:1003F00013000000130000001300000013000000B1
:10040000F322003093F272FF130380781203B3E2F9
:100410006200711523205500130585FA10C12115BE
:10042000232005009302000063870200711523203A
:100430000500FD12D5BF71150CC1828000000000BF
:1004400000000000000000000000000000000000AC
:10045000000000000000000000000000000000009C
:10046000000000000000000000000000000000008C
:10047000000000000000000000000000000000007C
:10048000000000000000000000000000000000006C
:10049000000000000000000000000000000000005C
:1004A000000000000000000000000000000000004C
:1004B000000000000000000000000000000000003C
:1004C000000000000000000000000000000000002C
:1004D000000000000000000000000000000000001C
:1004E000000000000000397101436EC619A0397187
:1004F00041536AC866CA62CC5ECE19A039710153F5
:100500005AD056D252D44ED64AD826DA22DC06DE4B
:1005100033016140828241114AC026C222C406C60C
:100520008282B24D4101024D924C224CB24B4101AC
:10053000024B924A224AB249410102499244224462
:10054000B240410182803D432A876373C30293779F
:10055000F700BDEFADE5937606FF3D8ABA960CC372
:100560004CC30CC74CC74107E36BD7FE11E2828036
:10057000B306C3408A069702000096966780A600DD
:100580002307B700A306B7002306B700A305B700EB
:100590002305B700A304B7002304B700A303B700E3
:1005A0002303B700A302B7002302B700A301B700DB
:1005B0002301B700A300B7002300B700828093F5A2
:1005C000F50F93968500D58D93960501D58D61B76E
:1005D000939627009702000096968682E78086FA17
:1005E0009680C1171D8F3E96E374C3F8A5B7732597
:1005F00010348280732520348280732530348280C9
:1006000083A7C18237177A0013070720B3D7E70201
:1006100093F7F70F2389F1961307803EB387E7021C
:100620002398F1968280B7F700E0D8438146799B02
:10063000D8C303C721973306A70290CBD4CB9843E6
:100640001367070198C398431367170298C3D843E9
:10065000058B75DF9843799B98C38280B7F700E0DC
:10066000D8438146799BD8C303D701973306A702A5
:1006700090CBD4CB98431367070198C39843136773
:10068000170298C3D843058B75DF9843799B98C3AD
:100690008280EFF25FE82A8411650111854511051A
:1006A000EF600061930700207C82371501408D4781
:1006B0003EC44C00E147130505803EC6EF6040276D
:1006C00022C837440140B70708000C08130504800E
:1006D0003ECC02CA231E0100EF60303C8545130565
:1006E0000480EF605047056189BDEFF23FE1B744F8
:1006F0000140AE893289014493840480634424011B
:100700004A853DB5930500042685EF60B0467DD946
:10071000B38789008385070026850504C205C1814A
:10072000EF60D044E1BF37170020130787A11C43B7
:10073000B7260120938686BD3E95636BD500B786AC
:1007400001209386068063E5A60008C33E8582806B
:10075000FD57EDBFEFF23FDC41111DE1A16793872B
:1007600007807390073037D6010037D50100130694
:10077000866D9305500613050572EFA0C16301A0B5
:10078000F1473EC632476304F702A16793870780AB
:100790007390073037D6010037D501001306866DF8
:1007A0009305D00613050572EFA0E16001A02A842D
:1007B0002320050011054D2485471CAC22854101ED
:1007C000ADBBEFF2BFD31DE1A167938707807390A4
:1007D000073037D6010037D501001306866D930523
:1007E000A01413050572EFA0015D01A0B70900FF79
:1007F000B3F93501AE8463840902A167938707804A
:100800007390073037D6010037D501001306866D87
:100810009305B01413050572EFA0E15901A09DE105
:10082000A167938707807390073037D6010037D5CB
:1008300001001306866D9305C01413050572EFA021
:10084000815701A02A89B28A368B3A8AEF10503339
:100850000DE563040A02A167938707807390073050
:1008600037D6010037D501001306866D9305F014C5
:1008700013050572EFA0215401A0EF10401D0324C1
:100880000900B3F7840063170B029DE78149630CED
:100890000A02B3355001E20563050B00B7070004F7
:1008A000DD8D5286C58D13054900EF10A073D289E6
:1008B000014411A8E39CF4FC63870A0093C7F4FF8A
:1008C000E18F2320F900EF106031638A090211E5FE
:1008D000B7E700E0116723A0E720EF1090379317E8
:1008E00065002A8463CB07008D2E03240900B3F72B
:1008F000840063180B0081EBA52E22042180228541
:1009000005B9E39BF4FEE3890AFE93C4F4FFE18C8E
:1009100023209900D5B7EFF21FC041111DE1A16757
:10092000938707807390073037D6010037D50100D1
:100930001306866D9305101E13050572EFA0A147DF
:1009400001A0B70700FFED8F9DC3A16793870780C4
:100950007390073037D6010037D501001306866D36
:100960009305201E13050572EFA0E14401A02A841F
:100970002EC6E524B245084093C5F5FFE98D0CC0AD
:100980002AC6FD24324541014DBEEFF23FB7411169
:100990001DE1A167938707807390073037D6010068
:1009A00037D501001306866D9305102213050572D5
:1009B000EFA0614001A0370700FF6D8F1DC3A16745
:1009C000938707807390073037D6010037D5010031
:1009D0001306866D9305202213050572EFA0A13D35
:1009E00001A02A842EC69309C500EF1040061C40C2
:1009F000B245084837090001CD8F1CC081447D19DC
:100A0000370A00020C40639BA90093C4F4FFED8CED
:100A100004C0EF10A01C0840410119BE1841832AF0
:100A20004500B377270113165700B3F6B7006345A7
:100A3000060089E65685F9B7E39ED7FE9316770040
:100A400063D30600DD8CB3E54501EF108077DDB799
:100A5000EFF27FAC1D3FD5B4930785007D575CC195
:100A600018C55CC51CC92320050082802328050009
:100A700082805C419847DCC198C598474CC38CC7BD
:100A80001C4188C985071CC182809841FD56930787
:100A90008500631ED7001C49D843D8C10CC79CC52C
:100AA000CCC31C4188C985071CC18280B687D4434A
:100AB0009042E37DC7FECDB7544118451C4998C606
:100AC00054C3D4436393A600D8C398432328050096
:100AD0007D1798C388438280B7E700E0415723879A
:100AE000E7402386E740B7F700E023A0070023A2F2
:100AF0000700814694C70147D8C783A5C182130761
:100B0000803E814633D6E5023D4790CBD4CB98C397
:100B10008280EFF25FA0411102C6F32750303EC63B
:100B2000B2470D478D8B6384E702A16793870780E7
:100B30007390073037D6010037D50100130646748D
:100B40009305600B13050572EFA0E12601A0B7879E
:100B5000012093870700BD8B9DC3A1679387078002
:100B60007390073037D6010037D50100130646745D
:100B70009305B00B13050572EFA0E12301A0A93F77
:100B8000B7E700E0056723A0E710116723A0E7108F
:100B900023A20180EFF0CFF60145410179BA197126
:100BA00082FE86FC8AFA8EF892F696F49AF29EF00D
:100BB000A2EEA6ECAAEAAEE8B2E6B6E4BAE2BEE07D
:100BC00042FE46FC4AFA4EF852F656F45AF25EF0ED
:100BD00062EE66EC6AEA6EE872E676E47AE27EE05D
:100BE00073110134A1679387078073900730B7F7BB
:100BF00000E023A20700EF00B06611C5B7E700E0F0
:100C0000116723A0E720A167938787887390073037
:100C1000731101347670E6705671C6713672A67221
:100C2000167386737664E6645665C6653666A66690
:100C3000166786677278E2785279C279327AA27A38
:100C4000127B827B726CE26C526DC26D326EA26E50
:100C5000126F826F096173002030A167938707804C
:100C600073900730938741809843050798C382802B
:100C7000138741801C438DE7EFF2FF89A1679387BB
:100C800007807390073037D6010037D5010013066F
:100C900046749305201013050572EFA0C11101A041
:100CA000FD171CC391E7A16793878788739007306E
:100CB00082802165130505807315053082807310CD
:100CC00005308280938741989843636DA702D04393
:100CD000B386C7006316D50054413E85B296D4C38F
:100CE0005041B306C500631AD70083A64197630637
:100CF000D70054431843B29654C118C16303F5009A
:100D000088C38280BA87C9B741CDEFF2DF8003275D
:100D100045FF83A781972A84B376F7009DE2A167F8
:100D2000938707807390073037D6010037D50100CD
:100D3000130686799305401213050572EFA0A107EB
:100D400001A0832605FF9DC2A1679387078073904A
:100D5000073037D6010037D5010013068679930591
:100D6000501213050572EFA0010501A093C7F7FF0C
:100D7000F98F232AF5FEEF00904D9387C197944396
:100D8000032744FF130504FF369798C3253F938735
:100D900001989843050798C3EF0050646FF0EFF98E
:100DA0008280EFF24FF741112AC6453D3245005D82
:100DB000C1351335140041016FF02FF8EFF2AFF594
:100DC00032893041045D2A8409EE1C41014591E7D6
:100DD0000844EF10205C23240400850404DC6FF039
:100DE000CFF5631009024841EF9081215C40384003
:100DF0000145BA9718445CC0E3E1E7FE1C405CC0C3
:100E0000E9BF4845EF90C11F3C4058441440B30728
:100E1000F0403E9758C46375D7001844BA975CC435
:100E200089470145E31BF9FACDD8FD147DB7304160
:100E300015C2EFF24FEE58451445AA87329758C5B0
:100E40006364D700184158C52E85CC47EF90411BED
:100E50006FF0AFEE8280EFF20FEC2A84FD3B83440B
:100E6000540413094402E204E18463459002FD57EF
:100E7000A302F404F53BD53383444404130904016D
:100E8000E204E18463449002FD572302F404CD336D
:100E90006FF0AFEA5C50E1DF4A85EF10402519C1E1
:100EA000EF10204DFD14E204E184C1B71C48E9DFD6
:100EB0004A85EF10C02319C1EF10A04BFD14E204C6
:100EC000E184C9B7EFF22FE541111DE1A1679387D6
:100ED00007807390073037D6010037D5010013061D
:100EE000867E9305001113050572EF90D16C01A069
:100EF0005C5D2EC62A84BDC33841B3B7E702B9EFA3
:100F0000A93B3040585C1440232C0402B307E6028E
:100F1000B24554C03387F600918FB6975CC4FD5735
:100F20002302F40418C4A302F40495E11C4899CBED
:100F300013050401EF10A01B11C5B7E700E011670E
:100F400023A0E7203533054541016FF00FDF13057E
:100F500004011936130544020136EDB7A1679387E2
:100F600007807390073037D6010037D5010013068C
:100F7000867E9305501413050572EF90D16301A08E
:100F8000EFF26FD901119DE2A167938707807390FB
:100F9000073037D6010037D501001306867E93054A
:100FA000901513050572EF90116101A019C105C6D6
:100FB00085E5A167938707807390073037D60100D6
:100FC00037D501001306867E930520181305057298
:100FD000EF90715E01A0F1FD930780043ECE724751
:100FE0006304F702A167938707807390073037D6B1
:100FF000010037D501001306867E9305B016130550
:101000000572EF90515B01A0F24785472383F604F8
:1010100091E1368690C2C8DEACC23685854536C6BB
:101020005535B246056136856FF02FD1EFF22FCCE2
:10103000011132C61DE1A1679387078073900730C5
:1010400037D6010037D501001306867E9305E032BE
:1010500013050572EF90315601A02A842E89B684BB
:101060008DE53C419DC3A16793870780739007304E
:1010700037D6010037D501001306867E9305F0327E
:1010800013050572EF90315301A089476398F4026C
:10109000585C85476304F702A167938707807390C4
:1010A000073037D6010037D501001306867E930539
:1010B000003313050572EF90115001A0EF10402C82
:1010C00015E5B247014C85C7A167938707807390E8
:1010D000073037D6010037D501001306867E930509
:1010E000303313050572EF90114D01A0014C094BEF
:1010F000FD59930B040137EA00E0916AADA0B247B5
:1011000081E7BD36014549A863150C002808EF109A
:10111000A019B93EEF00B013893683474404E207B3
:10112000E187639437012302040483475404E207F0
:10113000E18763943701A30204041D3E6C00280874
:10114000EF10601735E5113E185C5C5C6319F7041D
:101150000536B2455E85EF00B0642285ED39EF00BB
:10116000F02721C5054CD53C185C5C5C6364F70036
:10117000E39764F92686CA85228589315C5089C740
:1011800013054402EF00B07611C5B7E700E0116720
:1011900023A0E720F13C054505616FF0CFB8C93CBD
:1011A00022855539EF00902375BF23205A215DBF5A
:1011B00022855531EF009022B1B7EFF22FB44111E3
:1011C0001DE1A167938707807390073037D6010030
:1011D00037D501001306867E93052040130505725E
:1011E000EF90713D01A02A84B2898DE53C419DC3F9
:1011F000A167938707807390073037D6010037D5F2
:1012000001001306867E9305304013050572EF90AA
:10121000913A01A089476398F602585C85476304B8
:10122000F702A167938707807390073037D60100D4
:1012300037D501001306867E9305404013050572DD
:10124000EF90713701A036C62EC4EFF09FA6185C50
:101250005C5C2A8AA245B2466366F70089478144EE
:101260006392F602834454041C5C368622851399EB
:101270008401A93613598941FD576317F9025C505F
:1012800089EB85445285EFF09FA3268541016FF0DD
:101290002FAA13054402EF00906565D5E38309FE8C
:1012A000854723A0F900F1BF9307F0076314F90203
:1012B000A167938707807390073037D6010037D531
:1012C00001001306867E9305D04813050572EF9042
:1012D000912E01A08504E204E184A302940455B791
:1012E000EFF2EFA0011132C61DE1A16793870780DD
:1012F0007390073037D6010037D501001306867E7C
:101300009305105513050572EF90F12A01A02A8468
:10131000AE898DE53C419DC3A1679387078073909B
:10132000073037D6010037D501001306867E9305B6
:10133000505513050572EF90112801A0EF104004DD
:1013400015E5B247014985C7A16793870780739068
:10135000073037D6010037D501001306867E930586
:10136000A05513050572EF90112501A001497D5A82
:10137000930A440237EB00E0916B95A8B24789E7E6
:10138000EFF01F8F014569A8631509002808EF00D9
:10139000B071EFF0FF8DEF00806BEFF01F8C834793
:1013A0004404E207E187639447012302040483476E
:1013B0005404E207E18763944701A3020404EFF0B9
:1013C0003F8B6C002808EF00106F25E52285EFF0B9
:1013D0005F9D31C9B2455685EF00903C2285EFF004
:1013E0009FA7EF00A07F19E123207B210549EFF0A3
:1013F000DF86045CC1D4CE852285FD14EFF03FA3C7
:1014000004DC1C4899CB13050401EF00504E11C5B4
:10141000B7E700E0116723A0E720EFF07F850545DF
:1014200005616FF04F902285EFF0FFA2EF00007B87
:1014300075BF2285EFF03FA2EF00407A2285EFF0E2
:101440005F964DD581B7EFF20F8D41111DE1A16778
:10145000938707807390073037D6010037D5010096
:101460001306867E9305307E13050572EF90B11446
:1014700001A02AC6EFF06FFE3245085D2AC6EFF0E4
:101480002FFF324541016FF04F8B15E5EFF2AF882A
:10149000A167938707807390073037D60100856571
:1014A00037D501001306867E938585AC130505723A
:1014B000EF90711001A08DCD9386C1C78147014780
:1014C0001386C1C7214883A846006398A8009317D4
:1014D0003700B2978CC3C8C321A891E783A8060040
:1014E00063930800B6870507A106E31E07FDFDF319
:1014F0008280EFF24F8241112A842EC632C4EFF06F
:10150000CFF5834744047D572246E207E187B24581
:101510006394E70023020404834754047D57E207E1
:10152000E1876394E700A302040432C62EC4EFF0FF
:101530002FF41C5CA245324689E713054402EF00F4
:10154000F0332285EFF03F9141016FE01FFFEFE2A2
:10155000FFFA2A84EFF06FF093878199984305078B
:1015600098C31387C19818439384C1981389C1CB3A
:1015700055EB80C0984385476318F7049389C1CB26
:10158000130AC9124E85D109EFF00FCDE31C3AFFC3
:10159000138A81DE138581DEEFF00FCC9389C1DFE2
:1015A0001385C1DFEFF04FCB138501E1EFF0CFCA18
:1015B000138581E3EFF04FCA138541E2EFF0CFC905
:1015C00023A8419923AA31999387419A9843050703
:1015D00098C31387819A5C54144363F3F6001CC3C9
:1015E0005147B387E702CA97D843144718C454C475
:1015F00010479306440054C214C798435CC80507BB
:1016000098C3EFF0EFE683A7819B99CB9C40D85716
:101610005C546377F700B7E700E0116723A0E72089
:101620006FE01FF183A7819BC5F39C40D8575C54A2
:10163000E3ECE7F880C049BF138701991C4394434A
:101640009387C19A81E67D5798C382801843584793
:101650001843DDBF0DE5EFE21FECA167938707801C
:101660007390073037E6010037D501001306068571
:101670009305707213050572EF90E17301A0544950
:10168000138741E2AA8701456399E600985793873B
:1016900001E16304F700133517008280EFE21FE6D3
:1016A0004111AA89B284428403290803B1C50146C5
:1016B00041483385C50003050500B308C400238AEB
:1016C000A80201C50506E31606FFA3010404394676
:1016D0006377E602A167938707807390073037E648
:1016E000010037D5010013060685930570391305EF
:1016F0000572EF90416C01A0230A0802C9BF58D4BB
:1017000078C013054400232404043EC636C43AC2FC
:10171000EFF0CFB513058401EFF04FB512473D460A
:1017200081453307E64018CC314600C840D0130548
:10173000C404EFE05FE1A2461395240071154A95B9
:10174000230C0404A30C0404230D0404230E04043A
:101750003686CE854199EFE0BFCAB24708C091C333
:1017600080C341016FE0DFDCEFE2FFDA8347B505BC
:1017700091EB2A840859EFF02FD92285EFF0CFD8CA
:101780006FE0BFDB0547E38BE7FE0947E38AE7FE2F
:10179000A167938707807390073037E6010085655E
:1017A00037D50100130606859385C5F91305057223
:1017B000EF90616001A0EFE27FD4138481E3938412
:1017C000C1999C40EDDFEFF04FC95C4403A9C7000D
:1017D00013054900EFF04FAE138781991C43FD17A5
:1017E0001CC39C40FD179CC0EFF08FC84A85AD3FDD
:1017F000F9B7EFE2BFD09384C19883A9C19B2A8433
:101800009C4088404111238E070411052EC6EFF03D
:10181000AFAA7D579387C198B245631AE40285C980
:10182000938741E29440D84398C610479440D0C66D
:1018300094401047910654C29440910614C79840B2
:101840005CCB9843050798C341016FE07FCE984376
:101850004E9440C36379340103A541998C439105AB
:10186000EFF0AFA2D5B703A501998C439105EFF036
:10187000CFA19387C19A9843E378E4FC80C3E9B78A
:10188000EFE27FC941119DE3A167938707807390C1
:10189000073037E6010037D50100130606859305AA
:1018A000A02413050572EF90015101A04284631436
:1018B0000802A167938707807390073037E601001D
:1018C00037D50100130606859305B024130505726C
:1018D000EF90614E01A09308000646C632436304B0
:1018E0001303A167938707807390073037E60100E1
:1018F00037D50100130606859305302513050572BB
:10190000EF90614B01A0B2482328F8028947A30D4C
:10191000F8043C0061332285EFF07FC3224541018A
:101920006FE0BFC1EFE23FBF1DE1A1679387078072
:101930007390073037E6010037D50100130606859E
:101940009305107513050572EF90E14601A093878A
:10195000C1989C432A849384C1986381A706EFF0C1
:10196000CFAF2285C53929C9130944004A85EFF054
:10197000AF949387819A5854944363F3E60098C3D5
:10198000D147B306F7029387C1CBB697D4439046AD
:1019900014C450C490462322260123A42601944354
:1019A0005CC8850694C39C40DC576367F700B7E7C3
:1019B00000E0116723A0E720EFF08FAB6FE0FFB7E7
:1019C000EFE27FB5411170002C00480002C202C452
:1019D000EFB0D0491248A2473246B7E501003715AB
:1019E000000001478146938505891305657B493DC4
:1019F00005C5EF10A03885476315F502A1679387E9
:101A00000780739007307D5723A6E19A23ACA19AF3
:101A100023AE019AEFF0EF8F83A7818041016FE041
:101A2000DFB1FD57E31AF5FEA16793870780739036
:101A3000073037E60100856537D5010013060685B6
:101A40009385058413050572EF90E13601A0938715
:101A5000019A9843050798C3828003A5C19B8280A1
:101A600083A7019A63950716EFE2FFAA9387C19BAC
:101A70008043050480C331E4938701999843184358
:101A800005C7A167938707807390073037E6010089
:101A9000856537D5010013060685938575AC13055A
:101AA0000572EF90413101A013874199944310438F
:101AB00090C314C39387019B9843050798C3EFF025
:101AC000BFB79387C19A9C431386C19A1387C1CB32
:101AD0009385C19801456373F4029C41D146DC575C
:101AE000B387D7023E971843854763F3E700054560
:101AF00083A7019C91C305456FE03FA4514F938795
:101B000001999443944281E6FD571CC2F9B79C4366
:101B1000DC47DC47D4436374D40014C27DBF83A880
:101B2000870003A8C700D44B1383470023A40801F0
:101B30002322180183A846006394680023A20601AB
:101B400003A8060023AA07007D1823A006019457C6
:101B500095CA03A8C70183A8070283AF46002324C0
:101B6000180183A8070223A2080113888701639440
:101B70000F0123A2160103A8060023A407027D1863
:101B800023A006019386819A03A8C70283A80600B2
:101B900063F4080123A00601B306E803BA9683A8FC
:101BA000460083AF880023A4170123A6F70183AF63
:101BB000880023A26F0023A46800D4CB9C42850731
:101BC0009CC29C41DC57E36CF8F205450DBF93873E
:101BD000419B98430145050798C38280EFE21F921D
:101BE0001384019A1C40411185E7A1679387078000
:101BF0007390073037E60100856537D5010013067D
:101C000006859385358B13050572EF90C11A01A0E7
:101C1000EFF0AF841C40FD171CC01C4089CB014570
:101C20002AC6EFF0EF84324541016FE07F9083A731
:101C30008199F5D78147938601E11385C1CBD148BE
:101C4000854E59A8DC46DC47CC4F9053985790C539
:101C500003A807022322B8000328470093858701C1
:101C60006313B80050C3104323A407027D1610C3AA
:101C70008C47D047D84B1388470090C54CC24C4383
:101C80006393050150C3104323AA07007D1610C3B8
:101C90001387819AD0570C4363F3C50010C33307F1
:101CA00016032A974C4383AF85008CC723A6F70100
:101CB00083AF850023A20F0123A405010C43D8CBD9
:101CC00085050CC31387C198184358576366E6000F
:101CD0001387019C2320D70198422DF799C3EFF079
:101CE000BF951387419B04431384419B81CC854955
:101CF000853B09C59387019C23A03701FD14EDF8AE
:101D00002320040083A7019CE38B07F0B7E700E0E2
:101D1000116723A0E720054521B7EFE2CFFF41116E
:101D20001DE1A167938707807390073037E60100B4
:101D300037D50100130606859305104F130505726C
:101D4000EF90610701A09DE1A167938707807390E1
:101D5000073037E6010037D50100130606859305E5
:101D6000204F13050572EF90010501A083A7019A8A
:101D70009DC3A167938707807390073037E6010002
:101D800037D50100130606859305304F13050572FC
:101D9000EF90610201A02A842EC6EFF05FCB1840BD
:101DA000B24503A5C19BB307B7001CC06370E50231
:101DB00063E0E70201441D3511E5B7E700E0116774
:101DC00023A0E720228541016FE02FF763E4E700BD
:101DD000E372F5FE81453385A740EFF09FA10544EE
:101DE000D9BF19E5B7E700E0116723A0E72082809B
:101DF000EFE26FF283A7019A41119DC3A167938718
:101E000007807390073037E6010037D501001306CD
:101E100006859305905413050572EF80D17901A0D2
:101E20002AC6EFF0DFC232458145EFF09F9C7D333B
:101E300011E5B7E700E0116723A0E72041016FE05B
:101E4000CFEF03A7019A9387019C01C7054798C369
:101E5000828023A007001387819A18431386819AF2
:101E60009387C1CB5148B3060703B385D700884198
:101E700005C5C841A106BE964841C8C16314D50036
:101E80005441D4C1D146B306D702B697DC43D447F8
:101E900023A6D19818C2828015E7EFE2CFE7A167A9
:101EA000938707807390073037E60100856537D543
:101EB000010013060685938525C013050572EF8082
:101EC000916F01A07D1745B7EFE24FE32A84EFE061
:101ED000DFD89389C19819E003A4090013094400CD
:101EE0004A85EFE07FBD1C5489C713058401EFE0EC
:101EF000BFBCCA85138541E2EFE0BFB783478405C5
:101F0000054726896314F700230C040483479405CE
:101F100005476314F700A30C04048347A405054791
:101F20006314F700230D0404EFE09FD41387819B13
:101F300018439384819B19C7EFE03FD2EFF0CFEFB6
:101F4000EFE01FD383A70900639E87029C408DCFDB
:101F500083A7019A9DC3A167938707807390073079
:101F600037E6010037D50100130606859305D06FCB
:101F700013050572EF80316401A0B7E700E0116737
:101F800023A0E7206FE0CFDA938741E2984383A74D
:101F900081996315F70023A00900EDB75D35DDB722
:101FA000EFE26FD705E5A16793870780739007304D
:101FB00037E60100856537D5010013060685938550
:101FC000C5C113050572EF80115F01A02E8483A5A2
:101FD000C198E105EFE07FAB85452285EFF07F8179
:101FE0006FE0AFD5EFE22FD305E5A16793870780B8
:101FF0007390073037E60100856537D50100130679
:102000000685938565C313050572EF80D15A01A03B
:1020100083A7019A85E7A1679387078073900730AC
:1020200037E60100856537D50100130606859385DF
:10203000A5C313050572EF80115801A09387C198BD
:1020400094432A8737050080C98D8CCE54438C4336
:102050008846D4CD8C4388D18C438846E1054CC159
:102060008C439C433285E1058CC698D71C4385453B
:1020700085071CC3EFF0EFF76FE02FCCEFE2AFC99D
:102080002A8705E5A167938707807390073037E6B5
:102090000100856537D5010013060685938525C5A2
:1020A00013050572EF80315101A09387C198544305
:1020B0002E858C4303A88600D4CD8C4323A0050332
:1020C00003A807008C46610823A2050103A80700A6
:1020D0009C43610823A4060198D71C4385071CC3B1
:1020E00011C27D55B285EFF0CFF06FE00FC55C45B2
:1020F000DC4795E7EFE22FC2A167938707807390D3
:10210000073037E60100856537D5010013060685DF
:10211000938525C813050572EF80F14901A0D04FC2
:10212000945398579385870114C6D0C250436313C4
:10213000B60054C3144323A40702FD1614C303A717
:10214000019AD45725E78C47D047D84B90C5D04744
:1021500048434CC2938547006313B50050C31043F6
:1021600023AA07007D1610C31387819A1043637357
:10217000D60014C351473386E6021387C1CB32978A
:102180005043084690C7C8C708464CC10CC6D8CBB8
:102190001C43014585071CC383A7C198DC5763F620
:1021A000D700054723A0E19C05458280138701E104
:1021B00050430846D0CF88D308464CC10CC698D7A8
:1021C000C1BFEFE24FB583A7019A85E7A167938767
:1021D00007807390073037E60100856537D5010029
:1021E000130606859385A5CB13050572EF80B13CD8
:1021F00001A0B7070080DD8D5C450CC185E7A167B4
:10220000938707807390073037E60100856537D5DF
:10221000010013060685938525CC13050572EF8012
:10222000913901A050411445184914C61445D0C233
:1022300050436313A60054C314432328050090475A
:10224000FD1614C3D447D84B9385470014C6D44712
:10225000D0C250436313B60054C3144323AA0700EB
:10226000FD1614C31387819AD45710436373D600A5
:1022700014C351473386E6021387C1CB32975043CC
:10228000084690C7C8C708464CC10CC6D8CB1C43EB
:1022900085071CC383A7C198DC5763F5D7000547A2
:1022A00023A0E19C6FE06FA983A7019B1CC183A7BA
:1022B000C19B5CC18280EFE20FA6411105E5A167D9
:1022C000938707807390073037E60100856537D51F
:1022D0000100130606859385D5CF13050572EF809F
:1022E000912D01A085E5A167938707807390073042
:1022F00037E60100856537D501001306068593850D
:10230000E5CF13050572EF80112B01A02EC62AC45C
:10231000EFE0BF941387C19883A6C19B1C4322455D
:10232000B24583C7C70599CB1C43238E07040544D8
:10233000EFE01F94228541016FE02FA09C417D5763
:102340000144E387E7FE03A6019B032805005841EB
:102350006307C80063E5E60023A00500C9BF338614
:10236000E640E37BF6FE958FBA979CC1353F01446A
:10237000C1B7054723A0E19C828003A5C198828054
:1023800083A7819B054591C703A5019A13351500C5
:102390000605828011E50145828001456FE0EF99D5
:1023A000EFE26F9783A7C1982A846385A702A1678C
:1023B000938707807390073037E60100856537D52E
:1023C0000100130606859385F50413050572EF8059
:1023D000911E01A0BC4785E7A16793870780739092
:1023E000073037E60100856537D5010013060685FD
:1023F0009385050513050572EF80F11B01A0545567
:102400007841FD173CC5E38AE6F8C1FB930445001B
:102410002685EFE06FEA7C403D471D8F18CC13877F
:10242000819A14435CD463F3F6001CC3514733878D
:10243000E7029387C1CB0545BA97D843144718C420
:1024400054C41447C4C204C798435CC8050798C362
:10245000B1B79387C19898439443084FD456984393
:10246000BD47958F1CCF8280EFE24F89894741118C
:1024700063F5A702A167938707807390073037E65B
:102480000100856537D5010013060685938565260D
:1024900013050572EF80311201A02A89AE8932C678
:1024A000EFE0AFFB9387C1989C4393040901139716
:1024B0002400BA97DC471384C1988DE31C40324650
:1024C0000547CA97238CE70411CA85453285EFF08A
:1024D0004FB2B7E700E0116723A0E720EFE04FF924
:1024E000EFE0AFF71840939724003E97484719C58F
:1024F000184063800902BA9723A607001C402AC629
:102500003E99230C0904EFE0AFF6324541016FE03C
:102510002F829306F5FFBA97D4C7CDB7EFD21FFE2F
:10252000094A41116375AA02A167938707807390D6
:10253000073037E60100856537D5010013060685AB
:102540009385052B13050572EF80F10601A0AA847F
:102550003289B6893AC62EC4EFE02FF09387C1982E
:102560009C431384C198A69783C78705630CFA021E
:102570001C4093962400A245B697F44793C5F5FFF7
:102580003247F58DECC71C408546A697238CD704AF
:1025900011CB3A858545EFF0CFA5B7E700E011678D
:1025A00023A0E720EFE0CFECEFE02FEB638A0900F8
:1025B0001C40138704010A07BA97DC4723A0F900DF
:1025C0001C4009470145A69783C78705631EF7008E
:1025D0001C40139724001349F9FFBA97F8470545A3
:1025E0003379E90023A627051C402AC4BE94238C16
:1025F0000404EFE0EFE7224541016FD07FF3EFD213
:102600009FF18947011163F5B702A167938707809E
:102610007390073037E60100856537D50100130652
:1026200006859385853013050572EF80C17801A07A
:1026300005E5A167938707807390073037E60100AF
:10264000856537D5010013060685938595301305FA
:102650000572EF80417601A03ACE36CC32CA2EC840
:102660002AC6EFE08FDF72473245C2455246E24646
:1026700019C7938705018A07AA97DC471CC333074C
:10268000B500834787050948230C0705114793F7D1
:10269000F70F6367D7047967130787828A06BA96AC
:1026A000984202878A05AA95F845598EF0C50547D4
:1026B000638EE70405452AC6EFE08FDB32450561EE
:1026C0006FD0BFE78A05AA95F8450507F8C5C5B7D5
:1026D00009476386E70CC1058A05AA95D0C5C1BF25
:1026E00003A7C19B69D7A1679387078073900730C1
:1026F00037E60100856537D5010013060685938509
:10270000E53313050572EF80016B01A014455845B0
:102710005C491306450098C6584554C3D443639397
:10272000C600D8C39843232A05007D1798C3938712
:10273000819A5855944363F3E60098C3D147B30692
:10274000F7029387C1CBB697D4438C4614C54CC5CA
:102750008C46D0C190C694435CC9850694C31C5571
:1027600085C7A167938707807390073037E601001C
:10277000856537D50100130606859385D534130585
:102780000572EF80416301A083A7C198DC57E3F392
:10279000E7F2B7E700E0116723A0E72021BF01457A
:1027A00019BFEFD25FD7011105E5A16793870780B5
:1027B0007390073037E60100856537D501001306B1
:1027C00006859385553813050572EF80C15E01A01B
:1027D0002A8409456375B502A167938707807390C2
:1027E000073037E60100856537D5010013060685F9
:1027F0009385653813050572EF80E15B01A03ECE3D
:102800003ACC36CA32C82EC6EFE0AFCA6247B245EC
:102810004246D246F24709CB138805010A0822989E
:102820000328C800232007013308B40003478805A4
:102830008948230C180511481377F70F6366D804ED
:1028400079688A061308C883C296944282868A05EC
:10285000A295F445558EF0C58546630DD704054411
:10286000EFE0EFC5228505616FD03FCD8A05A295C7
:10287000F4458506F4C5CDB78946630ED70EC1056C
:102880008A05A295D0C5C9BF83A6C19BF1D6A16711
:10289000938707807390073037E60100856537D549
:1028A0000100130606859385D53C13050572EF805C
:1028B000815001A0185405C7A167938707807390C2
:1028C000073037E60100856537D501001306068518
:1028D0009385853D13050572EF80E14D01A003A7A7
:1028E000019A505435EB0C445444584894C5544410
:1028F00003284700CCC2930544006313B80054C3B7
:102900001443232A0400FD1614C31387819A144329
:1029100063F3C60010C35147B306E6021387C1CB69
:102920003697544303A8860014C42326040103A841
:1029300086002322B8008CC658C81443850614C3E9
:1029400003A7C1985857E37CC7F099C3054798C3BC
:10295000054723A0E19C21B7138701E154438C462E
:1029600054CC0CD003A88600930584012322B80020
:102970008CC618D4D9B70144E5B5EFD2DFB94111FF
:1029800005E5A167938707807390073037E601005C
:10299000856537D50100130606859385C540130567
:1029A0000572EF80414101A0894463F5B402A1673B
:1029B000938707807390073037E60100856537D528
:1029C0000100130606859385D54013050572EF8037
:1029D000813E01A02A842EC432C6EFE08FADA2450D
:1029E000B307B4008A0503C78705A295238C970413
:1029F000FC458507FCC585476394E70A1C543246AD
:102A000085C7A167938707807390073037E6010079
:102A1000856537D501001306068593853543130573
:102A20000572EF80413901A083A7019A5854B5EF90
:102A30000C4454445C4894C5544403A84700CCC299
:102A4000930544006313B800D4C39443232A0400BD
:102A5000FD1694C39387819A944363F3E60098C369
:102A6000D147B306F7029387C1CBB697D44303A8E7
:102A7000860014C42326040103A886002322B8007C
:102A80008CC65CC89443850694C383A7C198DC5761
:102A900063F8E70019C285471CC2054723A0E19CE3
:102AA000EFE0EFA141016FD05FA9938701E1D4432B
:102AB0008C4654CC0CD003A88600930584012322B5
:102AC000B8008CC61CD47DBFEFD2FFA4EFE0EF9816
:102AD0001384019D1C40B1E31389C1E81385C1E84B
:102AE000EFD09FF7938401EA138501EAEFD0DFF678
:102AF00023A2219D0147938641EB1386C1E4C14582
:102B0000114523A4919CEFE0AFC708C019C5B7E5F4
:102B100001009385C58BEFE05F97EFE06F956FD075
:102B2000DFA1EFD25F9F4CC108C9AA876360B602DC
:102B3000184D158E05456379E6009385470003A57A
:102B4000819CEFD09FF401456FD03F9F6375D60005
:102B50000545E3FBD5FE9385470003A5419CD5B70A
:102B6000EFD27F9B2A84AE8432890C4CA6864A869B
:102B7000A6952285EFF0FFFA19E16FD01F9C1C4C3F
:102B80002285BE941C508297CDB7EFD2DF9883A7E1
:102B9000419C4111AA84DC472EC6C047130544005E
:102BA000EFD09FF183474402324613F7470019CB19
:102BB000A6852285EFF0DFFA1C502285829741011D
:102BC0006FD0BF97F99B2302F402FDB7EFD2BF94F9
:102BD0009386419C98421C4381EB9387819C904350
:102BE00098C390C26FD07F955C47FD558843EFF046
:102BF000DFF9F9BFEFD2BF8F7969411113098989D4
:102C000083A7419C984329CBDC47814C03AC070048
:102C1000EFE0FFE3EFE07FE483A7C19C2A84938485
:102C2000C19C138A019D636CF50288C063800C040B
:102C300083A7819C90431336160003250A00B30531
:102C40008C40EFE01F8BEFE07FF919EDB7E700E074
:102C5000116723A0E72009A8854C014C55BFEFF070
:102C6000FFF680C0EFE09FF7214C0DA00146E36620
:102C700085FDEFE0BFF6A2856285EFF01FF1EDB7AD
:102C80009247B2458297824763DD070003250A0019
:102C900001468A85EFE0CFE425D582472245E3C18E
:102CA00007FE22445C489DE3EFE03FDB9C40AA8C9A
:102CB0006374F500EFF09FF1824723A09401FD17A4
:102CC000E366FCFC8A07CA979C438287130544008D
:102CD000EFD09FDED1BF834744020C4C924693E76E
:102CE00017002302F4026686B6952285EFF07FE393
:102CF00051DD8347440213F7470001CF1C4C924536
:102D000066862285BE95EFF0BFE51C50228582972E
:102D1000B5BFF99B2302F402CDBF83474402F99B60
:102D20002302F402A5B783474402924593E71700B4
:102D30002302F4020CCC9DE1A16793870780739076
:102D4000073037E6010037D501001306468C93059E
:102D5000903513050572EF80010601A0E6866686B0
:102D6000E6952285EFF0FFDB15B78347440213F7A2
:102D7000270055F72285EFD03FF909BFEFD2AFF911
:102D80004111EFF07FD483A7019D95CB70002C00FB
:102D9000480002C202C4EFA0300FA24712483246D8
:102DA000B7E50100373500003947814693854590E6
:102DB000130545BFEFE0DFAC23AAA19C1DE1A1678D
:102DC000938707807390073037E6010037D50100FD
:102DD0001306468C9305901113050572EF70B17DB3
:102DE00001A0054541016FD04FF5EFD2CFF241115F
:102DF000B68732C63E862AC203A5019D79572EC4E6
:102E000081468A853AC0EFE04FBB41016FD0EFF2B7
:102E1000EFD26FF005E5B7170240984F1367072010
:102E200098CFD84713670720D8C7D8471377F7DF5D
:102E3000D8C73165EF30F04A6FD02FF08547E31ADD
:102E4000F5FEB7170240984F1367074098CFD84751
:102E500013670740D8C7D8471377F7BFD1BFEFD262
:102E60008FEB1317250093870187BA9780433707A5
:102E700000FC7D171C44AA8493E717001CC45C4027
:102E8000F98F5CC01C4493E787001CC42285EF3097
:102E9000004B6DFD1C4493E747001CC42285EF30B6
:102EA000804A6DFD2285EF30405B86049387019E4A
:102EB000A6978AA36FD06FE80A0593870187AA9720
:102EC0009C43E84742054181828031712AD73725EA
:102ED00001402ED506DF16DD1ADB1ED932D336D1DE
:102EE0003ACF3ECD42CB46C972C776C57AC37EC1C2
:102EF00082FE86FC8AFA8EF892F696F49AF29EF09A
:102F0000A2EEA6ECAAEAAEE8B2E6B6E4BAE2BEE009
:102F1000930500221305054042FE46FC4AFA4EF88E
:102F200052F656F45AF25EF062EE66EC6AEA6EE829
:102F300072E676E47AE27EE0EF30605001C583A766
:102F4000819D829737350140930500221305058046
:102F5000EF30E04E01C583A7C19D8297FA50EA5237
:102F60005A53CA533A55AA551A568A567A47EA47C7
:102F70005A48CA483A4EAA4E1A4F8A4F7670E6709F
:102F80005671C6713672A672167386737664E664DD
:102F90005665C6653666A666166786677278E278F5
:102FA0005279C279327AA27A127B827B726CE26C9D
:102FB000526DC26D326EA26E126F826F2961730004
:102FC000203006059387019EAA9783970700014545
:102FD000AE9763C0070291CD85661387F6FF3A85E9
:102FE00063D9D7002E856386E500139507014181DB
:102FF00082808280EFD28FD00111AA842E8AB28A79
:103000008145130600020A85B689EFD0CFD3268505
:10301000EFF01FE085473EC2139724009387018796
:10302000BA9780438A8502C0228502C44EC602C870
:10303000230A410102CC02CE7969EF308029814711
:103040001309C99063954703B7070E00638FF90210
:103050001C4437071000D98F1CC41C44268593E7F5
:1030600007101CC4EFF0BFDF05616FD06FCC138B6E
:103070001700D6979C2389461376FB0FCA978C239B
:103080002285EF30402EDA8775BF1C443707F0FFEA
:103090007D17F98FD1B7EFD26FC67971AA842E8AC6
:1030A0003289B6893AC6EFF0BFD63247139424006E
:1030B0001386819D229618C28145130600020808D6
:1030C000EFD06FC885472302F10293870187A2974B
:1030D000804352CEB7070E00630DFA021C44370737
:1030E0001000D98F1CC40C082285EF30801E4E863C
:1030F000CA8513052002EF007006054693050022DD
:103100002285EF3060222685EFF07FD545616FD0B4
:103110002FC21C443707F0FF7D17F98FE1B7EFD2BC
:103120008FBF2A8437050020EF00C07F1C408145F7
:103130000145139727009387C180BA979443184499
:103140005C40D98F5844D98F1848D98FB397D7008E
:10315000377700402320F740032607408547B39781
:10316000D700D18F2320F740EF3040486FD0EFBC1D
:10317000EFD26FBA131425000945411133158500AC
:10318000EF30204F8547631DF5009387C1EFA2976D
:103190009C432AC68297324533158500EF30204E76
:1031A00041016FD08FB9B70700200A059387070048
:1031B000AA979443416779179C42F98F9CC28280F9
:1031C000EFD2CFB304413D49994741112A84AE89DA
:1031D0003319990063E2970A371702405C4B93E773
:1031E00017005CCB370702405C4333E927012322F9
:1031F00027015C44DDC305476384E70A8567930ABA
:10320000002013890780139724009385C1EFBA9596
:1032100094C126853A8A32C4EFF0FFF837070020C0
:103220000C48130707005C4052971843CD8F0C449D
:103230001443B3E75701CD8FE175BD05ED8ED58FF2
:10324000B3E7270193E707081CC35E2C2246CE850F
:103250005CC35C481385B4011CC71C4C5CC71C4391
:1032600093E727001CC3994763F497001385140460
:10327000F52541016FD0CFAB8545094536C632C42F
:10328000EF303021B707024003A74740B24622463D
:103290003369270123A22741A9BF814A0149A5B764
:1032A000930A001013090040B9BFB70700200A05B0
:1032B00093870700AA9798431C4393E717001CC302
:1032C0008280B70700200A0593870700AA979C43CE
:1032D000CCC38280317106DF16DD1ADB1ED92AD7F6
:1032E0002ED532D336D13ACF3ECD42CB46C972C766
:1032F00076C57AC37EC182FE86FC8AFA8EF892F683
:1033000096F49AF29EF0A2EEA6ECAAEAAEE8B2E635
:10331000B6E4BAE2BEE0014542FE46FC4AFA4EF887
:1033200052F656F45AF25EF062EE66EC6AEA6EE825
:1033300072E676E47AE27EE0EFF09FE3FA50EA523A
:103340005A53CA533A55AA551A568A567A47EA47E3
:103350005A48CA483A4EAA4E1A4F8A4F7670E670BB
:103360005671C6713672A672167386737664E664F9
:103370005665C6653666A666166786677278E27811
:103380005279C279327AA27A127B827B726CE26CB9
:10339000526DC26D326EA26E126F826F2961730020
:1033A0002030317106DF16DD1ADB1ED92AD72ED563
:1033B00032D336D13ACF3ECD42CB46C972C776C55D
:1033C0007AC37EC182FE86FC8AFA8EF892F696F463
:1033D0009AF29EF0A2EEA6ECAAEAAEE8B2E6B6E455
:1033E000BAE2BEE0054542FE46FC4AFA4EF852F605
:1033F00056F45AF25EF062EE66EC6AEA6EE872E645
:1034000076E47AE27EE0EFF0BFD6FA50EA525A5301
:10341000CA533A55AA551A568A567A47EA475A481D
:10342000CA483A4EAA4E1A4F8A4F7670E6705671C5
:10343000C6713672A672167386737664E664566534
:10344000C6653666A666166786677278E278527930
:10345000C279327AA27A127B827B726CE26C526DF4
:10346000C26D326EA26E126F826F296173002030BE
:10347000317106DF16DD1ADB1ED92AD72ED532D3DD
:1034800036D13ACF3ECD42CB46C972C776C57AC354
:103490007EC182FE86FC8AFA8EF892F696F49AF243
:1034A0009EF0A2EEA6ECAAEAAEE8B2E6B6E4BAE274
:1034B000BEE00D4542FE46FC4AFA4EF852F656F47E
:1034C0005AF25EF062EE66EC6AEA6EE872E676E464
:1034D0007AE27EE0EFF0DFC9FA50EA525A53CA535B
:1034E0003A55AA551A568A567A47EA475A48CA4858
:1034F0003A4EAA4E1A4F8A4F7670E6705671C671D0
:103500003672A672167386737664E6645665C6656F
:103510003666A666166786677278E2785279C2794F
:10352000327AA27A127B827B726CE26C526DC26D2F
:10353000326EA26E126F826F29617300203031717A
:1035400006DF16DD1ADB1ED92AD72ED532D336D1A7
:103550003ACF3ECD42CB46C972C776C57AC37EC14B
:1035600082FE86FC8AFA8EF892F696F49AF29EF023
:10357000A2EEA6ECAAEAAEE8B2E6B6E4BAE2BEE093
:10358000114542FE46FC4AFA4EF852F656F45AF2FB
:103590005EF062EE66EC6AEA6EE872E676E47AE283
:1035A0007EE0EFF0FFBCFA50EA525A53CA533A5544
:1035B000AA551A568A567A47EA475A48CA483A4E8E
:1035C000AA4E1A4F8A4F7670E6705671C6713672DF
:1035D000A672167386737664E6645665C6653666AB
:1035E000A666166786677278E2785279C279327A6F
:1035F000A27A127B827B726CE26C526DC26D326E6B
:10360000A26E126F826F29617300203093F706015A
:1036100013F8F60099C33368C80093F7F50FB9C3E0
:103620001C410147854E3D4F930F80029302800459
:10363000214E3396EE00B3F8C500631116039318BC
:10364000270033131F011343F3FFB377F300B318BD
:103650001801B3E7F800639FF60550C90507E31AA0
:10366000C7FD1CC19307F00F63F5B704584121460D
:10367000854E3D4F930F800293028004414EB398D4
:10368000CE00B3F715016392F80293172600811755
:103690003313FF001343F3FF3377E300B317F8004E
:1036A0005D8F639DF601232A15010506E319C6FD0A
:1036B00058C18280E39456FA10C94DB7E39756FE7D
:1036C00023281501DDB7EFC21FE5C1460D46EFF017
:1036D000FFF36FC09FE6EFC21FE481460D46EFF097
:1036E000FFF26FC09FE5EFC21FE391460D46EFF07A
:1036F000FFF16FC09FE4EFC21FE241112A84AE8444
:1037000009CE371702401C4F36C6854593E7170090
:103710001CCF3285EF30C02DB2460D46A6852285DE
:10372000EFF0DFEE41016FC05FE108456D8D33358D
:10373000A00082800CC982804CC582804845420529
:10374000418182804CC98280EFC2FFDC1145CD2AC5
:103750002145FD224145ED2213050002D522130526
:103760000004F92A6FC07FDDEFC2FFDA0111AA84DD
:103770002E8459E93705200075226800EF30003AA1
:10378000D24737470F001307072433D7E7028A04CD
:10379000138581872695144161651305056A931584
:1037A0000701C181CEA2922242064182799A420645
:1037B000418292A21040636FC5040606B3D7C702C8
:1037C0001146139707014183BA876373C700914776
:1037D0008505C205C207C181C1838EB2DEAE9E22BD
:1037E0005A20322493E717009EA29E22518FC207CF
:1037F000C18393F757BFD98F9EA21A245E24D98F15
:103800009EA605616FC07FD38547E318F5F637059F
:1038100040009DB76A20B165FD15631DB5028D4559
:103820003306B602B3D7C702C207C1831396470156
:1038300019E293E717002166D18F1306C0123307F0
:10384000C7021306803E3347C7020507420741837C
:103850009AB269B7E5453306B602B3D7C702116617
:10386000C207C183D18FD9B70A0593878187AA97E9
:103870009C438A2B1375F50F82800A0593878187F5
:10388000AA979C43CA2B82800A0593878187AA97AF
:103890009C438A2F82800A0593878187AA97984341
:1038A0001E2393E717001EA382800A059387818752
:1038B000AA9798431E2393E707201EA382800A0538
:1038C00093878187AA9798431E2393E707101EA327
:1038D00082800A0593878187AA979C438EAB82805A
:1038E0000A0593878187AA979C4393F5E50F8EABD2
:1038F00082800A0593878187AA979C4393E51500E8
:1039000093F5F50F8EAB82800A0593878187AA977E
:1039100098431E23C207C18393F7F7BFC207C18331
:103920001EA38280B7170240D84F498FD8CF984B3B
:10393000498F98CB984B1345F5FF798D88CB8280C2
:10394000B7170240984F498F98CFD847498FD8C7AB
:10395000D8471345F5FF798DC8C7828037E700E067
:103960009605B307A70093F5F50F2380B74093574B
:1039700055009387070485468A07B396A600BA9731
:1039800094C382809377350099EF1307400633770D
:10399000E502854719E7930700193375F502933758
:1039A00015003E8582808147EDBFEFC23FB53714D9
:1039B00002405C4C37070018AE89D98F5CCC377752
:1039C00000401C43328AAA8493E707101CC3EF30DF
:1039D000A03D1C5041672A89D98F1CD01C504177CB
:1039E0007D17F98F1CD00545EF30C0100144930AB4
:1039F000A00F13051004EF30602F01ED6314540184
:103A00006FC01FB3050451451374F40FEFC01FC5F9
:103A1000CDB79307A00FE305F4FEB7170240985304
:103A200021641367071098D39853418F98D3EF30D0
:103A3000A040EF306041EF3020401305F4FFEF303D
:103A4000C03CEF30603FEF30A03437370040835741
:103A500007805286CE8593E717002310F7804D45E7
:103A6000EFF0DFEF4A85EF30803737E501001305CF
:103A7000059223A2919EEF70014659B7557122DF3E
:103A80003ED386C7B737004096C59AC39EC12ADD8C
:103A90002EDB32D936D73AD542D146CF72CD76CB4E
:103AA0007AC97EC782FE86FC8AFA8EF892F696F470
:103AB0009AF29EF0A2EEA6ECAAEAAEE8B2E6B6E46E
:103AC000BAE2BEE01384078083D7078042FE46FC3B
:103AD0004AFA4EF852F656F45AF25EF062EE66EC8E
:103AE0006AEA6EE872E676E47AE27EE0858B99CB4C
:103AF00083A7419E82975E20C207C183F99BC207BC
:103B0000C1835EA0EF3040337A54BE40AE421E43C4
:103B10008E436A55DA554A56BA562A579A570A5862
:103B2000FA486A4EDA4E4A4FBA4F7670E6705671CE
:103B3000C6713672A672167386737664E66456652D
:103B4000C6653666A666166786677278E278527929
:103B5000C279327AA27A127B827B726CE26C526DED
:103B6000C26D326EA26E126F826F69617300203077
:103B7000EFC27F9A2A84EF302023D56793870718F6
:103B80003375F5028567938707E13357F50233757F
:103B9000F5029307C00318A03357F5023375F502F9
:103BA00018B028A06FC07F99EFC27F945564AA898E
:103BB00013040418EF30401F335485029304207B14
:103BC0001309C016130AD016637089022685EFF018
:103BD0007FDB850431C163074401130424E9C20477
:103BE000C180DDB7C204C180796A01496D4B130AF7
:103BF000CA92854B714C930A190063628B0293073A
:103C00004006B3F4F402050423A259012384890079
:103C1000A38499006FC03F91130434E9C9B7268586
:103C2000EFF05FD619C9631A7901E30A84FD0D1418
:103C300013990A01135909017DBF5299834709005D
:103C4000E36FF4FA1D8CEDB7EFC2FF8CAA84EF305E
:103C5000A015D567938707183355F50280200567AF
:103C6000130707E19306C0033304E40298303307D7
:103C7000D702B307F502A8203A942A9405453E944A
:103C8000EF20D0642285EF308015EF30E01A054533
:103C90006FC0BF8AEFC2BF852A84EF30E01083492E
:103CA00094009307300663EB370BB73AE101378B8B
:103CB000E2012A8A81441309207B938A0A38130B74
:103CC0000B50938BF97C4A85EFF0DFCB25C5DA9456
:103CD0000509420913590901E3D72BFF832A440040
:103CE000F96B556BFD1A232254010149938BCB923A
:103CF000130B0B189389097D054C636F590300243E
:103D00005565130505187D143304A40285453375E4
:103D1000AA022A9437050018EF20707B0545EF2092
:103D2000F05A26942285EF30800BEF30E0100145E9
:103D30006FC06FFFD69469BFB3872B019C234E855C
:103D4000B3876703BE94EFF0FFC301C56313890116
:103D5000DA94050942091359090145B70545C9BF58
:103D6000EFC26FFBAA842E8429E50565EFF05FBDE5
:103D7000B7070020938787038A043624BE941E2445
:103D80009840D58F5440D58F5624D58F7624D58F23
:103D90001628D58F1440D58F93E74710C207C183EB
:103DA0001EA35E2F93F747105EAF3E281EAB6FC079
:103DB000CFF8854711656386F4008947E39AF4FAE2
:103DC0002165EFF03FB66DB7EFC2EFF485472A8467
:103DD0006311F5022E89B284B6853A861305400335
:103DE000EFF0DFB76304090023AE21F399C023A0ED
:103DF00091F4370500200A04130585032295084134
:103E00008545EF30A0066FC04FF3B70700200A05C5
:103E100093878703AA979C43CA278280B70700200D
:103E20000A0593878703AA979C43CEA782803171A6
:103E30002AD7374500402ED506DF16DD1ADB1ED9FE
:103E400032D336D13ACF3ECD42CB46C972C776C5C2
:103E50007AC37EC182FE86FC8AFA8EF892F696F4C8
:103E60009AF29EF0A2EEA6ECAAEAAEE8B2E6B6E4BA
:103E7000BAE2BEE0930510071305058042FE46FC3A
:103E80004AFA4EF852F656F45AF25EF062EE66ECDA
:103E90006AEA6EE872E676E47AE27EE0EF30A0014C
:103EA00001C583A701F482973745004093050006BA
:103EB00013050580EF30200001C583A7C1F3829769
:103EC000FA50EA525A53CA533A55AA551A568A56C4
:103ED0007A47EA475A48CA483A4EAA4E1A4F8A4F7A
:103EE0007670E6705671C6713672A6721673867356
:103EF0007664E6645665C6653666A66616678667A6
:103F00007278E2785279C279327AA27A127B827B15
:103F1000726CE26C526DC26D326EA26E126F826F65
:103F20002961730020309306F5FF954763FCD702A3
:103F3000A1473707100063E9A700931725007965AB
:103F4000130585933E951841B7170240D447D98E83
:103F5000D4C7D0479346F7FFF18ED4C7944F558FFF
:103F600098CF8280130700026386F600938701884A
:103F7000B6979823B7170240944BD98E94CB904BA9
:103F80009346F7FFF18E94CBD44F558FD8CF8280D4
:103F9000EFC26FD8F967131725009387C795BA97B3
:103FA00084432A8485452685EF30E02C8547631CB1
:103FB000F50051453304A4021385C1F422955C45F4
:103FC0008297F9579EA86FC04FD7F9670A05938764
:103FD000C795AA979C43239207029A231367170059
:103FE0009AA38280EFC22FD3F9670A059387C795FA
:103FF000AA978843C205C181EF3060266FC0EFD316
:10400000317106DF16DD1ADB1ED92AD72ED532D341
:1040100036D13ACF3ECD42CB46C972C776C57AC3B8
:104020007EC182FE86FC8AFA8EF892F696F49AF2A7
:104030009EF0A2EEA6ECAAEAAEE8B2E6B6E4BAE2D8
:10404000BEE00D4542FE46FC4AFA4EF852F656F4E2
:104050005AF25EF062EE66EC6AEA6EE872E676E4C8
:104060007AE27EE0EFF0DFF2FA50EA525A53CA5396
:104070003A55AA551A568A567A47EA475A48CA48BC
:104080003A4EAA4E1A4F8A4F7670E6705671C67134
:104090003672A672167386737664E6645665C665D4
:1040A0003666A666166786677278E2785279C279B4
:1040B000327AA27A127B827B726CE26C526DC26D94
:1040C000326EA26E126F826F2961730020303171DF
:1040D00006DF16DD1ADB1ED92AD72ED532D336D10C
:1040E0003ACF3ECD42CB46C972C776C57AC37EC1B0
:1040F00082FE86FC8AFA8EF892F696F49AF29EF088
:10410000A2EEA6ECAAEAAEE8B2E6B6E4BAE2BEE0F7
:104110001D4542FE46FC4AFA4EF852F656F45AF253
:104120005EF062EE66EC6AEA6EE872E676E47AE2E7
:104130007EE0EFF0FFE5FA50EA525A53CA533A557F
:10414000AA551A568A567A47EA475A48CA483A4EF2
:10415000AA4E1A4F8A4F7670E6705671C671367243
:10416000A672167386737664E6645665C66536660F
:10417000A666166786677278E2785279C279327AD3
:10418000A27A127B827B726CE26C526DC26D326ECF
:10419000A26E126F826F296173002030317106DFC9
:1041A00016DD1ADB1ED92AD72ED532D336D13ACF17
:1041B0003ECD42CB46C972C776C57AC37EC182FE68
:1041C00086FC8AFA8EF892F696F49AF29EF0A2EEA7
:1041D000A6ECAAEAAEE8B2E6B6E4BAE2BEE0114561
:1041E00042FE46FC4AFA4EF852F656F45AF25EF097
:1041F00062EE66EC6AEA6EE872E676E47AE27EE007
:10420000EFF01FD9FA50EA525A53CA533A55AA55F9
:104210001A568A567A47EA475A48CA483A4EAA4E28
:104220001A4F8A4F7670E6705671C6713672A67252
:10423000167386737664E6645665C6653666A6664A
:10424000166786677278E2785279C279327AA27AF2
:10425000127B827B726CE26C526DC26D326EA26E0A
:10426000126F826F296173002030F9670A05938706
:10427000C795AA979C43239207028280F9670A0593
:104280009387C795AA979C43CA338280F9670A052A
:104290009387C795AA9798431E23C207C183F99BAA
:1042A000C207C1831EA38280F96713172500938775
:1042B000C795BA979C439A2742074183619B42075F
:1042C00041839AA751473306E50296231387C1F429
:1042D000C206C18293F6F6C832975223D18E96A3B6
:1042E00016233A23D6B79AB709E537370140231882
:1042F00007C20547DAAB8280EFC2EFA141112A84E1
:104300002EC632C4EFF03FC2B24503A7C182D147E7
:10431000B306F40222469387C1F422853357B702CD
:10432000B69792A3BAA3EFF03FF841016FC0EFA098
:10433000EFC26F9E01112A843AC83EC62ECE32CCFF
:1043400036CAEFF05FBE5145B308A402624613853A
:10435000C1F4F245D246469512A103A8C18254C5C4
:10436000231205003358B802231105012285EFF00E
:10437000BFF3F966131624009386C695B29694424D
:104380007956B24792AACA26424713651500CAA6B3
:104390008D461305E0026309D400914613052004FD
:1043A0006304D4001305C0033E86BA85EFF00FDB2B
:1043B00005616FC08F98EFC20F9601112A84B684F1
:1043C0002EC632C402C802CA02CC02CEEFF0BFB57C
:1043D000D1473307F4022246B245131906019387E9
:1043E000C1F41359090122850A043306B602BA97AB
:1043F00083A5C182239027012392070033D6C502EB
:10440000B2A3EFF07FEAC1677965938707071305C9
:10441000C5953EC82295231B2101231C010093F75B
:104420001400004189CB0C082285EF20F03581452E
:104430002285EF20505E93F7240089CB0C0822855B
:10444000EF20B03C81452285EF20D05D93F74400FA
:1044500089CB0C082285EF20304681452285EF204C
:10446000D05DA18889C80C082285EF20B04F814516
:104470002285EF20705D1E20216793E707081EA0AC
:1044800083574404D98F2312F40405616FC0EF8A67
:10449000EFC26F88F9670A059387C795AA9780438B
:1044A000A167FD1703574404411102C27D8F2312F7
:1044B000E4040357440402C402C6F98F2312F4042F
:1044C000C167938707073EC089477C84708393F751
:1044D0001500AE8489C78A852285EF20F02A93F7DC
:1044E000240089C78A852285EF20303293F7440063
:1044F00089C78A852285EF20303CA18889C48A85B6
:104500002285EF203046835744042167D98F231238
:10451000F40441016FC06F82F9670A059387C7955C
:10452000AA979843A16683574704D58F2312F704AF
:104530008280EFB2BFFC854741112A842E8A3289DE
:10454000B684BA896304F50415CD89476305F5047B
:104550008D476305F504B1477C85B7070020938735
:1045600047040A043E9408408A8552C02312310150
:1045700023132101648423160100EF20105241010E
:104580006FB01FFB1165EFF0AFBBF1B7370502004D
:10459000EFF04FB9C9B737050400DDBF3705080094
:1045A000C5BFB70700200A0593874704AA97984319
:1045B00089665E27D58F5EA78280EFB2DFF58547DB
:1045C0002E89B2842A84B6853A86630EF5008D471B
:1045D0006300F5020E0413850100229523202501B6
:1045E00044C16FB09FF513056003EFF02FB7DDB73F
:1045F00013054004DDBFB70700200A059387470471
:10460000AA979C43CEA3DA2713670704DAA7828010
:1046100023A4B19EB70700200A0593874704AA97F1
:1046200098435E2793E707025EA78280B7070020C2
:104630000A0593874704AA9798435E27C207C18358
:1046400093F7F7FDC207C1835EA78280EFB21FEB2D
:104650003704002013094404931925004E99AA84B5
:10466000032509009305606213044404EF203051D0
:1046700085476319F5020325090093056062EF2061
:104680001050032709005E27C207C18393F7F7FB89
:10469000C207C1835EA79397340013870100BA97BE
:1046A000DC4382974E94084093055052EF20304DE2
:1046B0008547631DF5001C408E04DA2383A7819E85
:1046C00013850100269598A31C4182976FB05FE681
:1046D000317106DF16DD1ADB1ED92AD72ED532D36B
:1046E00036D13ACF3ECD42CB46C972C776C57AC3E2
:1046F0007EC182FE86FC8AFA8EF892F696F49AF2D1
:104700009EF0A2EEA6ECAAEAAEE8B2E6B6E4BAE201
:10471000BEE0054542FE46FC4AFA4EF852F656F413
:104720005AF25EF062EE66EC6AEA6EE872E676E4F1
:104730007AE27EE0EFF09FF1FA50EA525A53CA5300
:104740003A55AA551A568A567A47EA475A48CA48E5
:104750003A4EAA4E1A4F8A4F7670E6705671C6715D
:104760003672A672167386737664E6645665C665FD
:104770003666A666166786677278E2785279C279DD
:10478000327AA27A127B827B726CE26C526DC26DBD
:10479000326EA26E126F826F296173002030317108
:1047A00006DF16DD1ADB1ED92AD72ED532D336D135
:1047B0003ACF3ECD42CB46C972C776C57AC37EC1D9
:1047C00082FE86FC8AFA8EF892F696F49AF29EF0B1
:1047D000A2EEA6ECAAEAAEE8B2E6B6E4BAE2BEE021
:1047E0000D4542FE46FC4AFA4EF852F656F45AF28D
:1047F0005EF062EE66EC6AEA6EE872E676E47AE211
:104800007EE0EFF0BFE4FA50EA525A53CA533A55E9
:10481000AA551A568A567A47EA475A48CA483A4E1B
:10482000AA4E1A4F8A4F7670E6705671C67136726C
:10483000A672167386737664E6645665C665366638
:10484000A666166786677278E2785279C279327AFC
:10485000A27A127B827B726CE26C526DC26D326EF8
:10486000A26E126F826F2961730020301567B7370F
:1048700000401307575598C31147D8C3056713075E
:1048800007FA98C72D671307A7AA98C335671307B8
:10489000C7CC98C38280AD67373700409387A7AAFB
:1048A0001CC382808280EFB21FC7938401018844B9
:1048B0004111EFF08FD5DC442547FD176365F70400
:1048C00079678A0713070798BA979C431375F50F02
:1048D00013840101828789470E285CC4A1810DA041
:1048E0000C280844EFF08FD3A9475CC429A80844DA
:1048F0008145EFF0AFD28D47CDBF058905C5954500
:104900000844EFF0AFD141016FB03FC31E2C5848AF
:1049100081453E97850708A3C2073A2CC1831EAC88
:10492000E3E0E7FE0C2048407C0001478D46054649
:1049300002C6EFD01FE7B247F9D7B7E700E011672B
:1049400023A0E720C9B7954741BF0C280844EFF0E2
:10495000EFCC994759BF1A2C3E2CE375F7FC5C4805
:104960009306170016ACBA978C2359BFEFB2BFBAA3
:10497000C167011189073ECAB7071800938707204E
:10498000AE84138401016C003ECC2A8908C402C69F
:1049900002C802CEEFF0CFBC37560000B75500007A
:1049A000014789464A851306468A9385658AEFF052
:1049B000AFC1374500400546930500061305058045
:1049C000EF20604C371501408565130505C0EFE009
:1049D0007FD689652946938505712685EFF0DF919D
:1049E00004D005616FB07FB5EFB2FFB24111A547AA
:1049F000138401015CC40CA0B71401402AC6EFD097
:104A0000DF9748C08565138504C0EFE0BFD3084435
:104A10009945EFF0AFC032460820FD55EFD0DFA436
:104A20002A840545EFD0EFBB138504C08565EFE010
:104A30007FD0854711456313F400014541016FB0F4
:104A4000DFAFEFB25FAD4111A147138401015CC438
:104A50000CA0B71401402AC6EFD03F9248C085652C
:104A6000138504C0EFE01FCE08449545EFF00FBB5F
:104A700032460820FD55EFD03F9F2A848565138577
:104A800004C0EFE03FCB854711456313F4000145B7
:104A900041016FB09FAAEFB27FA6138401014111BB
:104AA000B6894CC832AC18A03AC60AA8231C040028
:104AB000EFD0BF8C324748C04E85BA85EFF07FF803
:104AC000AA840DE9371901408565130509C0EFE097
:104AD0007FC7084485478D455CC4EFF02FB408209C
:104AE000FD554E86EFD05F98AA848565130509C0F1
:104AF000EFE05FC4854701456383F4001145410140
:104B00006FB01FA3EFB29F9F938701012A8A88533A
:104B1000B7440040AE89328913840101EFF0EFF40D
:104B2000938A048089455685EF20403815C9D2857F
:104B300013850480EF2000370850B7440040138AE3
:104B40000480EFF08FF285455285EF2020360DC1AD
:104B500013850480EF2040352380A900014539A04A
:104B60000850EFF0AFF1E37FA9FA19456FB05F9CF1
:104B70000850EFF0AFF0E378A9FCC5BFEFB2BF99E2
:104B8000AA843715014041118565130505C0EFE082
:104B90007FBB26869305F1001545EFF0BFF69C8795
:104BA0002A84858B91C375D537150140856513051A
:104BB00005C0EFE03FB8228541016FB01F98EFB20A
:104BC000FF93938701012A89885341113684AE8A65
:104BD000328AEFF08FBF374500400146930500064B
:104BE00013050580EF20202A2285EFF03FF93715C5
:104BF00001408565130505C0EFE0DFB4228693050B
:104C0000F1000D45EFF01FF022869305F1001355DA
:104C10008900EFF03FEF1375F90F22869305F1003D
:104C2000EFF05FEEAA89014993840101931709010E
:104C3000C18363FB4701B3852A0122860145EFF05A
:104C40007FECAA8905097DD13715014085651305DB
:104C500005C0EFE03FAE374500400546930500062E
:104C600013050580EF2020228850EFF02FE24E85BB
:104C700041016FB0FF8BEFB21F8A37140140411121
:104C8000130504C08565EFE0FFAB05469305F10011
:104C90001945EFF03FE7AA840545EFB03F9C1305A7
:104CA00004C08565EFE01FA9268541016FB0FF882C
:104CB000EFB2DF842A84371501404111130505C086
:104CC0002E8A8565B684B289EFE0DFA72686930534
:104CD000F1000945EFF01FE326869305F100135517
:104CE0008400EFF03FE21375F40F26869305F10080
:104CF000EFF05FE12A89014493170401C18363FD4A
:104D00003701B3078A00882326869305F100EFF068
:104D10007FDF2A8905046DD13715014085651305AC
:104D200005C0EFE03FA14A8541016FB07F80EFB23F
:104D30000FFC2A8C37450040B2842E8B0146930528
:104D4000000613050580368AEF20E01333079C0028
:104D5000A167114963C7E706ADC48149930B0004FD
:104D60005285EFF0BFE19377FC03B387FB40C207A6
:104D7000C1833E8463F3F40026844204418022868A
:104D8000B3053B0113854103EF5081275285EFF0B6
:104D90009FEE2A891DE5D28622869385410362858E
:104DA000EFF01FF12A8911ED818CA299C20462945F
:104DB000C209131C0401C18093D90901135C0C01C1
:104DC000C5F03745004005469305000613050580EC
:104DD000EF20600B4A856FB00FF5EFB22FF213840E
:104DE00001014111B6894CC832AC18A03AC60AA8D4
:104DF000231C0400EFD06FD8324748C04E85BA85D7
:104E0000EFF03FC4AA840DE9371901408565130509
:104E100009C0EFE03F930844914789455CC4EFE047
:104E2000FFFF0820FD554E86EFD00FE4AA8485656C
:104E3000130509C0EFE01F90854701456383F40027
:104E4000114541016FB0CFEEEFB26FEABA8BA167A7
:104E50003307C50063CFE7062A893284114525CA86
:104E60002E8B368A8149130C00049377F903B3071C
:104E7000FC40C207C183BE846373F400A284C204F1
:104E8000C180B3053B01268613854103EF504117CE
:104E9000DE855285EFF0FFBA1DE989455285EFF0B6
:104EA000BFB415E50947D2862686938541034A8516
:104EB000EFF0BFF209ED058CA69942042699C209CC
:104EC0004209418093D909011359090159FC6FB076
:104ED0008FE51145EDBF9E2141112AC43EC6B24760
:104EE00022479306C00DB387D702930640023307CB
:104EF000D702BA97A183C207C1837C833C832883EE
:104F00009EA1410182809E2141112AC43EC63247A2
:104F1000A24693070010918FB387D7023306E602AB
:104F2000B297A183C207C1837C833C8328839EA15F
:104F3000410182809387410823A0070023A2070034
:104F4000239407009387410723A0070023A20700AB
:104F500023A40700239607002396019E828093874F
:104F6000019F23A0070023A207002397019E8280B0
:104F70009147D38705F063E3A702931715001385C4
:104F800041083E951C219DCF143113874150B6979F
:104F9000FD17C207C183B14563F5D700D30700F001
:104FA00015A06389F6003386B7023A961862530655
:104FB000F7A001CEB146B387D702BA97D4639867FA
:104FC000C3F7D770538507E08280FD17C207C183FE
:104FD000E1B785476381F5040605138741082A97E1
:104FE0001C2385E79386C19E9E2213064006054535
:104FF0003388B700634206031CB3FD171386F5FF21
:10500000AE9710A39EA201458280FD1501456385E0
:10501000B700094582800D45828085476382F5048B
:1050200006059387019FAA9798230DE703D7E19E72
:105030009306000505452E9763C5E6021387F5FF25
:105040009386C19E98A39A22014598B37D172E9707
:105050009AA28280FD1501456305B700094582804B
:105060000D4582808D47D38705F063E3A702931730
:1050700015001385019F3E951C219DCF1431138788
:105080000109B697FD17C207C183B14563F5D70083
:10509000D30700F015A06389F6003386B7023A966D
:1050A00018625306F7A001CEB146B387D702BA976C
:1050B000D4639867C3F7D770538507E08280FD17E4
:1050C000C207C183E1B7530606F0D30707F0D386C2
:1050D00007F0538706F0D3F5D708D3F6C6105375FB
:1050E000E608C7F7E7685377C708D3F5A518D3F7DD
:1050F000E7180CE19CE182809317150013854108A5
:105100003E951C216376F604EFB2EFC00031B14743
:105110002E8922961314060141803304F4020327DA
:105120000900832789008326C90003264900938448
:10513000415093058400130544002695A695EFF091
:105140009FF88727C900269401451CE06FB0EFBE89
:1051500009458280931715001385019F3E951C21F8
:10516000850763C1C702EFB28FB80149AE8A9309C0
:10517000F6FFAA84B14B138A01096347390101453F
:105180006FB06FBA09458280803093163900338B37
:10519000DA004A9433047403A106D6969C4203278E
:1051A0000B00D44203264B0005091379F90F930530
:1051B000840013054400D2955295EFF0DFF0872765
:1051C0004B0052941CE055BFB1473305F502B72799
:1051D00000209387C7C13E959C45230005001CC550
:1051E00001458280B1473305F502B7270020938738
:1051F000C7C1AA978CA301458280372700201307D7
:10520000C7C11306070385470C23142181CDDD8E0A
:10521000860714A193F7F70F91E385473107E3154C
:10522000E6FE828093C5F7FFED8EDDB7B14733050B
:10523000F502B72700209387C7C1AA9788238280E9
:10524000F1473305F502B7270020938707B9D84106
:105250003E959C4958C17D171CC9DC453337E00099
:1052600058A95CC59C4D230B0500232405001CCDCB
:1052700001458280EFB28FA837240020130404B9BF
:1052800081448949130A4006854A15495C40638573
:1052900037071C4C268582977828630CA7041C448A
:1052A00085071CC429E718486379F7005C4068A8A3
:1052B00093C7F7FF858BA98F5CA8850493F4F40F3F
:1052C0007104E39524FD372400201304C4C18144F4
:1052D000114958401C440C2019E393B5150026854C
:1052E000850482973104E39624FF6FB06FA458447D
:1052F00065BF23240400D1B75C28850793F7F70F17
:10530000638447015CA855BF1C40230A0400985BD6
:105310006315570123A807024DB723A6070271BFE3
:10532000F1473305F502B7270020938707B9AA97FD
:10533000C82B8280B7270020938707B9938647F749
:10534000014503C7470806059117058B598DE39A58
:10535000F6FE828037270020130707B91306C70817
:1053600085474C2B142181CDDD8E860714A193F740
:10537000F70F91E385477107E315E6FE828093C539
:10538000F7FFB3E6B60293F6F60FC5B7EFB2AF98E4
:10539000B727002083A747C541114886CC86AA9726
:1053A0002380070003A5C19F2E8481467D566C0093
:1053B000EFB0DFC7930700086314F40023AC019E2D
:1053C00041016FB08F971385C19F8280B72700205E
:1053D00003D587C58280EFB20F943E293724002081
:1053E0001304C4C43EA85C490349050054455CC885
:1053F0001C451829AA844A863E8581451CC454C48C
:1054000018A823002401EFB00F94D8404A868145A4
:1054100058C0EFB04F9303A5C19F8145EFB09FAA3D
:1054200001456FB08F91EFB26F8DB724002001441A
:105430009384C4C405498949094A9C20636DF400DA
:10544000B62881CA9387819F9843050763E9E606DA
:1054500098C36FB0EF8DDC482285829763112503D6
:10546000DC40A297982301CB23800700930500041A
:105470002285EFF0BFF105041374F40F7DBF98444B
:1054800022971C23850793F7F70F1CA3D840229778
:10549000142389EA9428E3E0D7FE2300270193052B
:1054A0000008F9B7F03463E4C70063872601F024ED
:1054B000E3E3C7FCE39146FD23003701CDB7930535
:1054C0000002014523A00700EFF05FEC59B783A766
:1054D00081A39843634B07029843370600304E057B
:1054E000518F98C39843370600804D81518F98C3E0
:1054F000C8C38CC737970240114650CB2322070000
:10550000DC47054523ACF1A2828001458280EFB2E1
:105510008F8085658547938505806318F50037156D
:105520000140EFE02FA16FB04F8137150140EFE050
:105530006FA1D5BFEFA23FFE8547930500406318DA
:10554000F50037150140EFE0EF9E6FA01FFF371504
:105550000140EFE02F9FD5BF37F7FF1F81471307AB
:10556000D77E99463306F7400C223306F5008507AF
:105570000CA2E399D7FE82809387C1A098433A9505
:1055800088C3828003A7C1A023A4E1A0B7870240FB
:1055900003A7471C25EF03A74719894763F8E706C8
:1055A000EFA27FF703D5C1A1F9451384C1A1EF1084
:1055B000801C93572500858BA9C74D9913160501AB
:1055C0000A204182F945EF10802037870240832767
:1055D000071093E717002320F71083270710858B08
:1055E000EDFFB787024003A7471C11CB238801A01A
:1055F000D843B706008093C6E6FF758FD8C36FA067
:10560000DFF313654500420541814DBFB787024076
:1056100003A7471C19CB238801A0D843B7060080F5
:1056200093C6E6FF758FD8C382808280EFA21FEDFC
:105630009384C1A18A2095451384C1A1EF10A013C2
:105640002A898A208545EF1000139377F901138981
:10565000A1A1638A071483470900C1E30A20854793
:10566000F9452300F900A38CF1A0EF10C0101376C8
:10567000C5FF4206937715004182A9CF1366260025
:105680000A20F945EF10A0140A208145EF10A00E62
:105690001376E5FF42060A20418213660620814503
:1056A000EF10E0120A208145EF10E00C1366352060
:1056B0000A20420641828145EF10601183A741A173
:1056C00013074006B3F7E70293872703238AF18085
:1056D0006FA01FE61366160065B705476397E700DE
:1056E00089472300F900A38C01A09387A1A2038717
:1056F0000700634607069384518194202147639AEB
:10570000E6040A20F945EF1000071376350F0A204A
:10571000F94590A0EF10A00B238004000A208145DA
:10572000EF1060051376E5FF42060A2041821366FA
:1057300006208145EF10A0090A208145EF10A00343
:10574000136635200A20420641828145EF10200869
:1057500021A0130700F898A3238401A295BF938783
:1057600011A398239306170094A39546E316D7FE3A
:105770001375050275F193845181238007009C20E5
:1057800011490A20F945E38027F9EF00D07E13760E
:10579000350F0A2013664600F94590A0EF1020034C
:1057A00023802401A5BF0347090085476312F7083A
:1057B000138791A11C23A1468A20850793F7F70F31
:1057C0001CA3639BD7002300070023000900214688
:1057D000F945EF00D07FEDBDF945EF00D0791376A4
:1057E000C5FF4206937715004182A1C313662600C8
:1057F0000A20F945EF00B07D0A208145EF00B0771F
:105800001376E5FF42060A20418213660620814591
:10581000EF00F07B0A208145EF00F075136635201C
:105820004206418281450A206DB713661600C9B74A
:10583000138481A2834A0400138AA1A283460A002A
:1058400093871A001307000893F7F70F6394E6068F
:105850003D476384EA001CA0A5BD8A202300040004
:10586000230009001384518121492146F945A38869
:1058700001A223000A0023002401EF005075230039
:1058800024018A208145EF00106F1376E5FF420660
:105890008A204182136606208145EF0050738A20DA
:1058A0008145EF00506D13663520420641828145E7
:1058B0008A2005B79389518103C709001DE7114765
:1058C000E39BEAF88A20F94523000400EF00B06A60
:1058D0001376350F8A2013664600F9452380C900E8
:1058E000EF00F06E2380590169BF91466318D7021B
:1058F0003D47E392EAF68A20230004002144214632
:10590000F945A38801A22300090023000A0023808F
:105910008900EF00D06B23808900A5B71CA09307F6
:105920004006E397FADA8A2021668145EF00306A63
:10593000238801A2A38801A2238801A0A1472300F4
:1059400004002300090023000A002380F9002146F7
:10595000F945B9BFEFA23FBC938791A29823137773
:10596000F70F2DC303A7C1A083A6C1A2158F93066D
:10597000301F63F7E6043747024023800700832780
:1059800007801384C1A10A2093E747002320F780F2
:1059900021668145EF00B063238801A2A38801A29C
:1059A000238401A2238D01A00A20238801A023853E
:1059B00001A221472146F945A38AE180EF00306129
:1059C0006FA0BFB7138901A383470900138481A186
:1059D000C1EB83C6A1A105471389A1A1938441818D
:1059E000636BD70003D5C1A19545EF00D0587D89E1
:1059F00019C1238004009387C1A090439386C1A25C
:105A000094428C20158E9386C1A01387C1A2636136
:105A1000B6040346090085476311F604138641A1C5
:105A20001C42B745030093851540B387B702B7A55D
:105A30002600938595ECAE971CC213064006B3F77B
:105A4000C702938727039CA09C421CC3EFF01FBE94
:105A50001C20BDD723000400A5B793072003E5B79A
:105A60001C20938401A1A5C383A7C1A003A7C1A241
:105A7000998F1307900F6378F704230004001384B1
:105A8000C1A10A208545EF00104F9377450085EFAF
:105A9000EFB090070A2021668145EF005053A3889C
:105AA00001A2238401A20A20238D01A0238501A243
:105AB00021472146F9452300090023800400A38AD9
:105AC000E180EF00D0509C20E38C07EE03A781A07B
:105AD00083A7C1A0998F13073006E373F7EEEFF0A9
